{
    "contractName": "AaveMigration",
    "abi": [
        {
            "inputs": [],
            "name": "AAVE_REFERRAL_CODE",
            "outputs": [
                {
                    "internalType": "uint16",
                    "name": "",
                    "type": "uint16"
                }
            ],
            "stateMutability": "view",
            "type": "function"
        },
        {
            "inputs": [],
            "name": "AAVE_V1_LENDING_POOL_ADDRESSES",
            "outputs": [
                {
                    "internalType": "address",
                    "name": "",
                    "type": "address"
                }
            ],
            "stateMutability": "view",
            "type": "function"
        },
        {
            "inputs": [],
            "name": "ETH_ADDR",
            "outputs": [
                {
                    "internalType": "address",
                    "name": "",
                    "type": "address"
                }
            ],
            "stateMutability": "view",
            "type": "function"
        },
        {
            "inputs": [],
            "name": "WETH_ADDRESS",
            "outputs": [
                {
                    "internalType": "address",
                    "name": "",
                    "type": "address"
                }
            ],
            "stateMutability": "view",
            "type": "function"
        },
        {
            "inputs": [
                {
                    "internalType": "address",
                    "name": "_market",
                    "type": "address"
                },
                {
                    "internalType": "address[]",
                    "name": "_collAssets",
                    "type": "address[]"
                },
                {
                    "internalType": "address[]",
                    "name": "_borrowAssets",
                    "type": "address[]"
                },
                {
                    "internalType": "uint256[]",
                    "name": "_borrowAmounts",
                    "type": "uint256[]"
                },
                {
                    "internalType": "uint256[]",
                    "name": "_fees",
                    "type": "uint256[]"
                },
                {
                    "internalType": "uint256[]",
                    "name": "_modes",
                    "type": "uint256[]"
                }
            ],
            "name": "migrateLoan",
            "outputs": [],
            "stateMutability": "nonpayable",
            "type": "function"
        },
        {
            "inputs": [
                {
                    "internalType": "address",
                    "name": "_lendingPoolV2",
                    "type": "address"
                },
                {
                    "internalType": "address",
                    "name": "_market",
                    "type": "address"
                },
                {
                    "internalType": "address",
                    "name": "_tokenAddr",
                    "type": "address"
                }
            ],
            "name": "setUserUseReserveAsCollateralIfNeeded",
            "outputs": [],
            "stateMutability": "nonpayable",
            "type": "function"
        }
    ],
    "bytecode": "608060405234801561001057600080fd5b5061135d806100206000396000f3fe608060405234801561001057600080fd5b50600436106100625760003560e01c8063040141e51461006757806305a363de146100855780637574e7861461009a5780637753f47b146100af5780639477fff9146100b7578063f094dd6e146100ca575b600080fd5b61006f6100d2565b60405161007c91906110aa565b60405180910390f35b61008d6100ea565b60405161007c919061128d565b6100ad6100a8366004610e33565b6100ef565b005b61006f6101f5565b6100ad6100c5366004610e7d565b61020d565b61006f610515565b73c02aaa39b223fe8d0a0e5c4f27ead9083c756cc281565b604081565b60006100fa8361052d565b90506000816001600160a01b03166328dd2d0184306040518363ffffffff1660e01b815260040161012c9291906110be565b6101206040518083038186803b15801561014557600080fd5b505afa158015610159573d6000803e3d6000fd5b505050506040513d601f19601f8201168201806040525081019061017d919061100c565b98505050505050505050806101ee57604051635a3b74b960e01b81526001600160a01b03861690635a3b74b9906101bb9086906001906004016110fc565b600060405180830381600087803b1580156101d557600080fd5b505af11580156101e9573d6000803e3d6000fd5b505050505b5050505050565b73eeeeeeeeeeeeeeeeeeeeeeeeeeeeeeeeeeeeeeee81565b60007324a42fd28c976a61df5d00d0599c34c4f90748c86001600160a01b031663ed6ff7606040518163ffffffff1660e01b815260040160206040518083038186803b15801561025c57600080fd5b505afa158015610270573d6000803e3d6000fd5b505050506040513d601f19601f820116820180604052508101906102949190610e10565b90506000876001600160a01b0316630261bf8b6040518163ffffffff1660e01b815260040160206040518083038186803b1580156102d157600080fd5b505afa1580156102e5573d6000803e3d6000fd5b505050506040513d601f19601f820116820180604052508101906103099190610e10565b905060005b86518110156103d0576000836001600160a01b03166334b3beee89848151811061033457fe5b60200260200101516040518263ffffffff1660e01b815260040161035891906110aa565b60206040518083038186803b15801561037057600080fd5b505afa158015610384573d6000803e3d6000fd5b505050506040513d601f19601f820116820180604052508101906103a89190610e10565b90506103c78883815181106103b957fe5b6020026020010151826105b6565b5060010161030e565b5060005b87518110156104a6576000836001600160a01b03166334b3beee8984815181106103fa57fe5b60200260200101516040518263ffffffff1660e01b815260040161041e91906110aa565b60206040518083038186803b15801561043657600080fd5b505afa15801561044a573d6000803e3d6000fd5b505050506040513d601f19601f8201168201806040525081019061046e9190610e10565b9050600061047b82610817565b905061049c848c8c868151811061048e57fe5b6020026020010151846108fc565b50506001016103d4565b5060005b86518110156101e95761050d828883815181106104c357fe5b60200260200101518784815181106104d757fe5b60200260200101518985815181106104eb57fe5b60200260200101510187858151811061050057fe5b6020026020010151610a29565b6001016104aa565b7324a42fd28c976a61df5d00d0599c34c4f90748c881565b6040516321f8a72160e01b81526000906001600160a01b038316906321f8a7219061056090600160f81b906004016111d0565b60206040518083038186803b15801561057857600080fd5b505afa15801561058c573d6000803e3d6000fd5b505050506040513d601f19601f820116820180604052508101906105b09190610e10565b92915050565b60007324a42fd28c976a61df5d00d0599c34c4f90748c86001600160a01b031663ed6ff7606040518163ffffffff1660e01b815260040160206040518083038186803b15801561060557600080fd5b505afa158015610619573d6000803e3d6000fd5b505050506040513d601f19601f8201168201806040525081019061063d9190610e10565b905060007324a42fd28c976a61df5d00d0599c34c4f90748c86001600160a01b0316630261bf8b6040518163ffffffff1660e01b815260040160206040518083038186803b15801561068e57600080fd5b505afa1580156106a2573d6000803e3d6000fd5b505050506040513d601f19601f820116820180604052508101906106c69190610e10565b9050600080826001600160a01b03166328dd2d0187306040518363ffffffff1660e01b81526004016106f99291906110be565b6101406040518083038186803b15801561071257600080fd5b505afa158015610726573d6000803e3d6000fd5b505050506040513d601f19601f8201168201806040525081019061074a9190610f91565b50969950909750505086860194505050506001600160a01b03881673eeeeeeeeeeeeeeeeeeeeeeeeeeeeeeeeeeeeeeee1490506107aa576107966001600160a01b038816333084610ad8565b6107aa6001600160a01b0388168683610b30565b60405163173aba7160e21b81526001600160a01b03851690635ceae9c49034906107dc908b908690309060040161114c565b6000604051808303818588803b1580156107f557600080fd5b505af1158015610809573d6000803e3d6000fd5b505050505050505050505050565b6040516370a0823160e01b81526000906001600160a01b038316906370a08231906108469030906004016110aa565b60206040518083038186803b15801561085e57600080fd5b505afa158015610872573d6000803e3d6000fd5b505050506040513d601f19601f820116820180604052508101906108969190610f79565b60405163db006a7560e01b81529091506001600160a01b0383169063db006a75906108c59084906004016111d0565b600060405180830381600087803b1580156108df57600080fd5b505af11580156108f3573d6000803e3d6000fd5b50505050919050565b6001600160a01b03821673eeeeeeeeeeeeeeeeeeeeeeeeeeeeeeeeeeeeeeee14156109a15773c02aaa39b223fe8d0a0e5c4f27ead9083c756cc26001600160a01b031663d0e30db0826040518263ffffffff1660e01b81526004016000604051808303818588803b15801561097057600080fd5b505af1158015610984573d6000803e3d6000fd5b505050505073c02aaa39b223fe8d0a0e5c4f27ead9083c756cc291505b6109b56001600160a01b0383168583610b30565b6040805163e8eda9df60e01b81526001600160a01b0386169163e8eda9df916109e69186918691309160040161116f565b600060405180830381600087803b158015610a0057600080fd5b505af1158015610a14573d6000803e3d6000fd5b50505050610a238484846100ef565b50505050565b6001600160a01b03831673eeeeeeeeeeeeeeeeeeeeeeeeeeeeeeeeeeeeeeee14610a535782610a69565b73c02aaa39b223fe8d0a0e5c4f27ead9083c756cc25b6040805163a415bcad60e01b81529194506001600160a01b0386169163a415bcad91610aa09187918791879190339060040161119c565b600060405180830381600087803b158015610aba57600080fd5b505af1158015610ace573d6000803e3d6000fd5b5050505050505050565b610a23846323b872dd60e01b858585604051602401610af9939291906110d8565b60408051601f198184030181529190526020810180516001600160e01b03166001600160e01b031990931692909217909152610b74565b610b508363095ea7b360e01b846000604051602401610af9929190611117565b610b6f8363095ea7b360e01b8484604051602401610af9929190611133565b505050565b6060610bc9826040518060400160405280602081526020017f5361666545524332303a206c6f772d6c6576656c2063616c6c206661696c6564815250856001600160a01b0316610c0c9092919063ffffffff16565b805190915015610b6f5780806020019051810190610be79190610f59565b610b6f5760405162461bcd60e51b8152600401610c0390611243565b60405180910390fd5b6060610c1b8484600085610c23565b949350505050565b6060610c2e85610ce7565b610c4a5760405162461bcd60e51b8152600401610c039061120c565b60006060866001600160a01b03168587604051610c67919061108e565b60006040518083038185875af1925050503d8060008114610ca4576040519150601f19603f3d011682016040523d82523d6000602084013e610ca9565b606091505b50915091508115610cbd579150610c1b9050565b805115610ccd5780518082602001fd5b8360405162461bcd60e51b8152600401610c0391906111d9565b6000813f7fc5d2460186f7233c927e7db2dcc703c0e500b653ca82273b7bfad8045d85a470818114801590610c1b575050151592915050565b80356105b08161130f565b600082601f830112610d3b578081fd5b8135610d4e610d49826112c3565b61129c565b818152915060208083019084810181840286018201871015610d6f57600080fd5b60005b84811015610d97578135610d858161130f565b84529282019290820190600101610d72565b505050505092915050565b600082601f830112610db2578081fd5b8135610dc0610d49826112c3565b818152915060208083019084810181840286018201871015610de157600080fd5b60005b84811015610d9757813584529282019290820190600101610de4565b805180151581146105b057600080fd5b600060208284031215610e21578081fd5b8151610e2c8161130f565b9392505050565b600080600060608486031215610e47578182fd5b8335610e528161130f565b92506020840135610e628161130f565b91506040840135610e728161130f565b809150509250925092565b60008060008060008060c08789031215610e95578182fd5b610e9f8888610d20565b9550602087013567ffffffffffffffff80821115610ebb578384fd5b610ec78a838b01610d2b565b96506040890135915080821115610edc578384fd5b610ee88a838b01610d2b565b95506060890135915080821115610efd578384fd5b610f098a838b01610da2565b94506080890135915080821115610f1e578384fd5b610f2a8a838b01610da2565b935060a0890135915080821115610f3f578283fd5b50610f4c89828a01610da2565b9150509295509295509295565b600060208284031215610f6a578081fd5b81518015158114610e2c578182fd5b600060208284031215610f8a578081fd5b5051919050565b6000806000806000806000806000806101408b8d031215610fb0578384fd5b8a51995060208b0151985060408b0151975060608b0151965060808b0151955060a08b0151945060c08b0151935060e08b015192506101008b01519150610ffb8c6101208d01610e00565b90509295989b9194979a5092959850565b60008060008060008060008060006101208a8c03121561102a578485fd5b8951985060208a0151975060408a0151965060608a0151955060808a0151945060a08a0151935060c08a0151925060e08a015164ffffffffff8116811461106f578283fd5b915061107f8b6101008c01610e00565b90509295985092959850929598565b600082516110a08184602087016112e3565b9190910192915050565b6001600160a01b0391909116815260200190565b6001600160a01b0392831681529116602082015260400190565b6001600160a01b039384168152919092166020820152604081019190915260600190565b6001600160a01b039290921682521515602082015260400190565b6001600160a01b0392909216825260ff16602082015260400190565b6001600160a01b03929092168252602082015260400190565b6001600160a01b0393841681526020810192909252909116604082015260600190565b6001600160a01b03948516815260208101939093529216604082015261ffff909116606082015260800190565b6001600160a01b0395861681526020810194909452604084019290925261ffff166060830152909116608082015260a00190565b90815260200190565b60006020825282518060208401526111f88160408501602087016112e3565b601f01601f19169190910160400192915050565b6020808252601d908201527f416464726573733a2063616c6c20746f206e6f6e2d636f6e7472616374000000604082015260600190565b6020808252602a908201527f5361666545524332303a204552433230206f7065726174696f6e20646964206e6040820152691bdd081cdd58d8d9595960b21b606082015260800190565b61ffff91909116815260200190565b60405181810167ffffffffffffffff811182821017156112bb57600080fd5b604052919050565b600067ffffffffffffffff8211156112d9578081fd5b5060209081020190565b60005b838110156112fe5781810151838201526020016112e6565b83811115610a235750506000910152565b6001600160a01b038116811461132457600080fd5b5056fea2646970667358221220d7f53b0bce7492a9a9978665de6e84e4caf38dc37268eb2b627a7fd19e6cb9a264736f6c634300060c0033",
    "sourcePath": "/Users/nenadpalinkasevic/Desktop/blockchain/cdpsaver-mcd-contracts/contracts/aave/migration/AaveMigration.sol",
    "compiler": {
        "name": "solc",
        "version": "0.6.12+commit.27d51765"
    },
    "functionHashes": {
        "AAVE_REFERRAL_CODE()": "05a363de",
        "AAVE_V1_LENDING_POOL_ADDRESSES()": "f094dd6e",
        "ETH_ADDR()": "7753f47b",
        "WETH_ADDRESS()": "040141e5",
        "migrateLoan(address,address[],address[],uint256[],uint256[],uint256[])": "9477fff9",
        "setUserUseReserveAsCollateralIfNeeded(address,address,address)": "7574e786"
    },
    "gasEstimates": {
        "creation": {
            "codeDepositCost": "991400",
            "executionCost": "1027",
            "totalCost": "992427"
        },
        "external": {
            "AAVE_REFERRAL_CODE()": "240",
            "AAVE_V1_LENDING_POOL_ADDRESSES()": "340",
            "ETH_ADDR()": "296",
            "WETH_ADDRESS()": "230",
            "migrateLoan(address,address[],address[],uint256[],uint256[],uint256[])": "infinite",
            "setUserUseReserveAsCollateralIfNeeded(address,address,address)": "infinite"
        },
        "internal": {
            "borrowAaveV2(address,address,uint256,uint256)": "infinite",
            "depositAaveV2(address,address,address,uint256)": "infinite",
            "getDataProvider(address)": "infinite",
            "paybackAaveV1(address,address)": "infinite",
            "withdrawAaveV1(address)": "infinite"
        }
    }
}