{
    "contractName": "AaveMigrationTaker",
    "abi": [
        {
            "inputs": [],
            "name": "AAVE_REFERRAL_CODE",
            "outputs": [
                {
                    "internalType": "uint16",
                    "name": "",
                    "type": "uint16"
                }
            ],
            "stateMutability": "view",
            "type": "function"
        },
        {
            "inputs": [],
            "name": "AAVE_V1_LENDING_POOL_ADDRESSES",
            "outputs": [
                {
                    "internalType": "address",
                    "name": "",
                    "type": "address"
                }
            ],
            "stateMutability": "view",
            "type": "function"
        },
        {
            "inputs": [],
            "name": "FACTORY_ADDRESS",
            "outputs": [
                {
                    "internalType": "address",
                    "name": "",
                    "type": "address"
                }
            ],
            "stateMutability": "view",
            "type": "function"
        },
        {
            "inputs": [
                {
                    "internalType": "address",
                    "name": "_user",
                    "type": "address"
                },
                {
                    "internalType": "address[]",
                    "name": "_borrowTokens",
                    "type": "address[]"
                }
            ],
            "name": "getUserBorrows",
            "outputs": [
                {
                    "internalType": "address[]",
                    "name": "borrowAddr",
                    "type": "address[]"
                },
                {
                    "internalType": "uint256[]",
                    "name": "borrowAmounts",
                    "type": "uint256[]"
                },
                {
                    "internalType": "uint256[]",
                    "name": "borrowRateModes",
                    "type": "uint256[]"
                }
            ],
            "stateMutability": "view",
            "type": "function"
        },
        {
            "inputs": [
                {
                    "internalType": "address",
                    "name": "_contractAddr",
                    "type": "address"
                }
            ],
            "name": "givePermission",
            "outputs": [],
            "stateMutability": "nonpayable",
            "type": "function"
        },
        {
            "inputs": [
                {
                    "internalType": "address",
                    "name": "_market",
                    "type": "address"
                },
                {
                    "internalType": "address",
                    "name": "_userProxy",
                    "type": "address"
                },
                {
                    "internalType": "address[]",
                    "name": "_borrowTokens",
                    "type": "address[]"
                },
                {
                    "internalType": "address",
                    "name": "_aaveMigrationAddr",
                    "type": "address"
                }
            ],
            "name": "migrateV1Position",
            "outputs": [],
            "stateMutability": "nonpayable",
            "type": "function"
        },
        {
            "inputs": [
                {
                    "internalType": "address",
                    "name": "_contractAddr",
                    "type": "address"
                }
            ],
            "name": "removePermission",
            "outputs": [],
            "stateMutability": "nonpayable",
            "type": "function"
        }
    ],
    "bytecode": "608060405234801561001057600080fd5b50610c69806100206000396000f3fe608060405234801561001057600080fd5b506004361061007d5760003560e01c80638823151b1161005b5780638823151b146100c85780639c4b57b1146100dd578063e074bb47146100ff578063f094dd6e146101125761007d565b806305a363de146100825780633d391f70146100a057806381dfc9cd146100b5575b600080fd5b61008a61011a565b6040516100979190610c0f565b60405180910390f35b6100b36100ae3660046108c8565b61011f565b005b6100b36100c3366004610907565b61030a565b6100d061043f565b6040516100979190610abc565b6100f06100eb36600461097a565b610457565b60405161009793929190610bcc565b6100b361010d3660046108c8565b610726565b6100d0610804565b604081565b6000306001600160a01b031663bf7e214f6040518163ffffffff1660e01b815260040160206040518083038186803b15801561015a57600080fd5b505afa15801561016e573d6000803e3d6000fd5b505050506040513d601f19601f8201168201806040525081019061019291906108eb565b9050806001600160a01b03811661028357735a15566417e6c1c9546523066500bddbc53f88c76001600160a01b03166365688cc96040518163ffffffff1660e01b8152600401602060405180830381600087803b1580156101f257600080fd5b505af1158015610206573d6000803e3d6000fd5b505050506040513d601f19601f8201168201806040525081019061022a91906108eb565b604051637a9e5e4b60e01b81529091503090637a9e5e4b90610250908490600401610abc565b600060405180830381600087803b15801561026a57600080fd5b505af115801561027e573d6000803e3d6000fd5b505050505b6040516332fba9a360e21b81526001600160a01b0382169063cbeea68c906102d390869030907f1cff79cde515a86f6cc1adbebe8ae25888905561371faf11c8102211f56b487090600401610aea565b600060405180830381600087803b1580156102ed57600080fd5b505af1158015610301573d6000803e3d6000fd5b50505050505050565b6000846001600160a01b0316630261bf8b6040518163ffffffff1660e01b815260040160206040518083038186803b15801561034557600080fd5b505afa158015610359573d6000803e3d6000fd5b505050506040513d601f19601f8201168201806040525081019061037d91906108eb565b90506060306040516020016103929190610abc565b604051602081830303815290604052905060608060606103b28888610457565b9250925092506103c18661011f565b6040805163ab9c4b5d60e01b81526001600160a01b0387169163ab9c4b5d916103f9918a9188918891889130918d9190600401610b17565b600060405180830381600087803b15801561041357600080fd5b505af1158015610427573d6000803e3d6000fd5b5050505061043486610726565b505050505050505050565b735a15566417e6c1c9546523066500bddbc53f88c781565b606080606060007324a42fd28c976a61df5d00d0599c34c4f90748c86001600160a01b0316630261bf8b6040518163ffffffff1660e01b815260040160206040518083038186803b1580156104ab57600080fd5b505afa1580156104bf573d6000803e3d6000fd5b505050506040513d601f19601f820116820180604052508101906104e391906108eb565b9050845167ffffffffffffffff811180156104fd57600080fd5b50604051908082528060200260200182016040528015610527578160200160208202803683370190505b509350845167ffffffffffffffff8111801561054257600080fd5b5060405190808252806020026020018201604052801561056c578160200160208202803683370190505b509250845167ffffffffffffffff8111801561058757600080fd5b506040519080825280602002602001820160405280156105b1578160200160208202803683370190505b5091506000805b86518167ffffffffffffffff16101561071c576000878267ffffffffffffffff16815181106105e357fe5b602002602001015190506000806000866001600160a01b03166328dd2d01858e6040518363ffffffff1660e01b8152600401610620929190610ad0565b6101406040518083038186803b15801561063957600080fd5b505afa15801561064d573d6000803e3d6000fd5b505050506040513d601f19601f8201168201806040525081019061067191906109c8565b50505096505050945050935050600083111561070c57838a8767ffffffffffffffff168151811061069e57fe5b60200260200101906001600160a01b031690816001600160a01b031681525050808301898767ffffffffffffffff16815181106106d757fe5b60200260200101818152505081888767ffffffffffffffff16815181106106fa57fe5b60209081029190910101526001909501945b5050600190920191506105b89050565b5050509250925092565b6000306001600160a01b031663bf7e214f6040518163ffffffff1660e01b815260040160206040518083038186803b15801561076157600080fd5b505afa158015610775573d6000803e3d6000fd5b505050506040513d601f19601f8201168201806040525081019061079991906108eb565b90506001600160a01b0381166107af5750610801565b604051632bc3217d60e01b815281906001600160a01b03821690632bc3217d906102d390869030907f1cff79cde515a86f6cc1adbebe8ae25888905561371faf11c8102211f56b487090600401610aea565b50565b7324a42fd28c976a61df5d00d0599c34c4f90748c881565b803561082781610c1e565b92915050565b600082601f83011261083d578081fd5b813567ffffffffffffffff80821115610854578283fd5b602080830260405182828201018181108582111715610871578687fd5b60405284815294508185019250858201818701830188101561089257600080fd5b600091505b848210156108bd576108a9888261081c565b845292820192600191909101908201610897565b505050505092915050565b6000602082840312156108d9578081fd5b81356108e481610c1e565b9392505050565b6000602082840312156108fc578081fd5b81516108e481610c1e565b6000806000806080858703121561091c578283fd5b843561092781610c1e565b9350602085013561093781610c1e565b9250604085013567ffffffffffffffff811115610952578283fd5b61095e8782880161082d565b925050606085013561096f81610c1e565b939692955090935050565b6000806040838503121561098c578182fd5b823561099781610c1e565b9150602083013567ffffffffffffffff8111156109b2578182fd5b6109be8582860161082d565b9150509250929050565b6000806000806000806000806000806101408b8d0312156109e7578586fd5b8a51995060208b0151985060408b0151975060608b0151965060808b0151955060a08b0151945060c08b0151935060e08b015192506101008b015191506101208b01518015158114610a37578182fd5b809150509295989b9194979a5092959850565b6000815180845260208085019450808401835b83811015610a825781516001600160a01b031687529582019590820190600101610a5d565b509495945050505050565b6000815180845260208085019450808401835b83811015610a8257815187529582019590820190600101610aa0565b6001600160a01b0391909116815260200190565b6001600160a01b0392831681529116602082015260400190565b6001600160a01b0393841681529190921660208201526001600160e01b0319909116604082015260600190565b600060018060a01b03808a168352602060e081850152610b3a60e085018b610a4a565b8481036040860152610b4c818b610a8d565b90508481036060860152610b60818a610a8d565b92881660808601525083820360a0850152855180835291835b83811015610b94578781018301518282018401528201610b79565b83811115610ba457848385840101525b5081601f19601f850116820101935050505061ffff831660c083015298975050505050505050565b600060608252610bdf6060830186610a4a565b8281036020840152610bf18186610a8d565b90508281036040840152610c058185610a8d565b9695505050505050565b61ffff91909116815260200190565b6001600160a01b038116811461080157600080fdfea264697066735822122009662748b35f44289357583636be57ed833c71b59f1a7ed21356f3e2a3ae588364736f6c634300060c0033",
    "sourcePath": "/Users/nenadpalinkasevic/Desktop/blockchain/cdpsaver-mcd-contracts/contracts/aave/migration/AaveMigrationTaker.sol",
    "compiler": {
        "name": "solc",
        "version": "0.6.12+commit.27d51765"
    },
    "functionHashes": {
        "AAVE_REFERRAL_CODE()": "05a363de",
        "AAVE_V1_LENDING_POOL_ADDRESSES()": "f094dd6e",
        "FACTORY_ADDRESS()": "8823151b",
        "getUserBorrows(address,address[])": "9c4b57b1",
        "givePermission(address)": "3d391f70",
        "migrateV1Position(address,address,address[],address)": "81dfc9cd",
        "removePermission(address)": "e074bb47"
    },
    "gasEstimates": {
        "creation": {
            "codeDepositCost": "635400",
            "executionCost": "670",
            "totalCost": "636070"
        },
        "external": {
            "AAVE_REFERRAL_CODE()": "241",
            "AAVE_V1_LENDING_POOL_ADDRESSES()": "318",
            "FACTORY_ADDRESS()": "252",
            "getUserBorrows(address,address[])": "infinite",
            "givePermission(address)": "infinite",
            "migrateV1Position(address,address,address[],address)": "infinite",
            "removePermission(address)": "infinite"
        }
    }
}