{
    "contractName": "AaveMigrationReceiver",
    "abi": [
        {
            "inputs": [],
            "name": "AAVE_MIGRATION_ADDR",
            "outputs": [
                {
                    "internalType": "address",
                    "name": "",
                    "type": "address"
                }
            ],
            "stateMutability": "view",
            "type": "function"
        },
        {
            "inputs": [],
            "name": "AAVE_V2_LENDING_POOL",
            "outputs": [
                {
                    "internalType": "address",
                    "name": "",
                    "type": "address"
                }
            ],
            "stateMutability": "view",
            "type": "function"
        },
        {
            "inputs": [],
            "name": "admin",
            "outputs": [
                {
                    "internalType": "address",
                    "name": "",
                    "type": "address"
                }
            ],
            "stateMutability": "view",
            "type": "function"
        },
        {
            "inputs": [
                {
                    "internalType": "address[]",
                    "name": "borrowAssets",
                    "type": "address[]"
                },
                {
                    "internalType": "uint256[]",
                    "name": "amounts",
                    "type": "uint256[]"
                },
                {
                    "internalType": "uint256[]",
                    "name": "fees",
                    "type": "uint256[]"
                },
                {
                    "internalType": "address",
                    "name": "initiator",
                    "type": "address"
                },
                {
                    "internalType": "bytes",
                    "name": "params",
                    "type": "bytes"
                }
            ],
            "name": "executeOperation",
            "outputs": [
                {
                    "internalType": "bool",
                    "name": "",
                    "type": "bool"
                }
            ],
            "stateMutability": "nonpayable",
            "type": "function"
        },
        {
            "inputs": [],
            "name": "kill",
            "outputs": [],
            "stateMutability": "nonpayable",
            "type": "function"
        },
        {
            "inputs": [],
            "name": "owner",
            "outputs": [
                {
                    "internalType": "address",
                    "name": "",
                    "type": "address"
                }
            ],
            "stateMutability": "view",
            "type": "function"
        },
        {
            "inputs": [
                {
                    "internalType": "address",
                    "name": "_admin",
                    "type": "address"
                }
            ],
            "name": "setAdminByAdmin",
            "outputs": [],
            "stateMutability": "nonpayable",
            "type": "function"
        },
        {
            "inputs": [
                {
                    "internalType": "address",
                    "name": "_admin",
                    "type": "address"
                }
            ],
            "name": "setAdminByOwner",
            "outputs": [],
            "stateMutability": "nonpayable",
            "type": "function"
        },
        {
            "inputs": [
                {
                    "internalType": "address",
                    "name": "_owner",
                    "type": "address"
                }
            ],
            "name": "setOwnerByAdmin",
            "outputs": [],
            "stateMutability": "nonpayable",
            "type": "function"
        },
        {
            "inputs": [
                {
                    "internalType": "address",
                    "name": "_token",
                    "type": "address"
                },
                {
                    "internalType": "uint256",
                    "name": "_amount",
                    "type": "uint256"
                }
            ],
            "name": "withdrawStuckFunds",
            "outputs": [],
            "stateMutability": "nonpayable",
            "type": "function"
        },
        {
            "stateMutability": "payable",
            "type": "receive"
        }
    ],
    "bytecode": "608060405234801561001057600080fd5b50600080546001600160a01b03199081163317909155600180549091167325efa336886c74ea8e282ac466bdcd0199f85bb9179055611058806100546000396000f3fe6080604052600436106100955760003560e01c8063920f5c8411610059578063920f5c8414610138578063a7304bf714610165578063ab57a4ee14610185578063deca5f881461019a578063f851a440146101ba5761009c565b80631e48907b146100a15780633a128322146100c357806341c0e1b5146100e357806366658d44146100f85780638da5cb5b146101235761009c565b3661009c57005b600080fd5b3480156100ad57600080fd5b506100c16100bc366004610ac1565b6101cf565b005b3480156100cf57600080fd5b506100c16100de366004610bb8565b610208565b3480156100ef57600080fd5b506100c16102a1565b34801561010457600080fd5b5061010d6102c6565b60405161011a9190610ddf565b60405180910390f35b34801561012f57600080fd5b5061010d6102de565b34801561014457600080fd5b50610158610153366004610be3565b6102ed565b60405161011a9190610e4c565b34801561017157600080fd5b506100c1610180366004610ac1565b610671565b34801561019157600080fd5b5061010d6106aa565b3480156101a657600080fd5b506100c16101b5366004610ac1565b6106c2565b3480156101c657600080fd5b5061010d6106ef565b6001546001600160a01b031633146101e657600080fd5b600080546001600160a01b0319166001600160a01b0392909216919091179055565b6000546001600160a01b0316331461021f57600080fd5b73eeeeeeeeeeeeeeeeeeeeeeeeeeeeeeeeeeeeeeee6001600160a01b038316141561028357600080546040516001600160a01b039091169183156108fc02918491818181858888f1935050505015801561027d573d6000803e3d6000fd5b5061029d565b60005461029d906001600160a01b038481169116836106fe565b5050565b6000546001600160a01b031633146102b857600080fd5b6000546001600160a01b0316ff5b737d2768de32b0b80b7a3454c06bdac94a69ddc7a981565b6000546001600160a01b031681565b6000806060806102ff85870187610ae4565b92509250925060005b8c8110156103df578d8d8281811061031c57fe5b90506020020160208101906103319190610ac1565b6001600160a01b031663a9059cbb73eeeeeeeeeeeeeeeeeeeeeeeeeeeeeeeeeeeeeeee8e8e8581811061036057fe5b905060200201356040518363ffffffff1660e01b8152600401610384929190610e33565b602060405180830381600087803b15801561039e57600080fd5b505af11580156103b2573d6000803e3d6000fd5b505050506040513d601f19601f820116820180604052508101906103d69190610ce0565b50600101610308565b506103e86109cb565b6040518060c00160405280856001600160a01b031681526020018481526020018f8f80806020026020016040519081016040528093929190818152602001838360200280828437600081840152601f19601f8201169050808301925050505050505081526020018d8d808060200260200160405190810160405280939291908181526020018383602002808284376000920191909152505050908252506040805160208d810282810182019093528d82529283019290918e918e9182918501908490808284376000920191909152505050908252506020018390526040519091506001600160a01b03891690631cff79cd90479073eeeeeeeeeeeeeeeeeeeeeeeeeeeeeeeeeeeeeeee90610500908690602401610eeb565b60408051601f198184030181529181526020820180516001600160e01b0316633196392d60e11b1790525160e085901b6001600160e01b031916815261054a929190600401610df3565b6020604051808303818588803b15801561056357600080fd5b505af1158015610577573d6000803e3d6000fd5b50505050506040513d601f19601f8201168201806040525081019061059c9190610d00565b5061065d8e8e80806020026020016040519081016040528093929190818152602001838360200280828437600081840152601f19601f820116905080830192505050505050508d8d80806020026020016040519081016040528093929190818152602001838360200280828437600081840152601f19601f820116905080830192505050505050508c8c8080602002602001604051908101604052809392919081815260200183836020028082843760009201919091525061075992505050565b5060019d9c50505050505050505050505050565b6001546001600160a01b0316331461068857600080fd5b600180546001600160a01b0319166001600160a01b0392909216919091179055565b73eeeeeeeeeeeeeeeeeeeeeeeeeeeeeeeeeeeeeeee81565b6000546001600160a01b031633146106d957600080fd5b6001546001600160a01b03161561068857600080fd5b6001546001600160a01b031681565b6107548363a9059cbb60e01b848460405160240161071d929190610e33565b60408051601f198184030181529190526020810180516001600160e01b03166001600160e01b0319909316929092179091526107e0565b505050565b60005b83518110156107da576107d2737d2768de32b0b80b7a3454c06bdac94a69ddc7a983838151811061078957fe5b602002602001015185848151811061079d57fe5b6020026020010151018684815181106107b257fe5b60200260200101516001600160a01b03166108789092919063ffffffff16565b60010161075c565b50505050565b6060610835826040518060400160405280602081526020017f5361666545524332303a206c6f772d6c6576656c2063616c6c206661696c6564815250856001600160a01b03166108b79092919063ffffffff16565b80519091501561075457808060200190518101906108539190610ce0565b6107545760405162461bcd60e51b815260040161086f90610ea1565b60405180910390fd5b6108988363095ea7b360e01b84600060405160240161071d929190610e17565b6107548363095ea7b360e01b848460405160240161071d929190610e33565b60606108c684846000856108ce565b949350505050565b60606108d985610992565b6108f55760405162461bcd60e51b815260040161086f90610e6a565b60006060866001600160a01b031685876040516109129190610dc3565b60006040518083038185875af1925050503d806000811461094f576040519150601f19603f3d011682016040523d82523d6000602084013e610954565b606091505b509150915081156109685791506108c69050565b8051156109785780518082602001fd5b8360405162461bcd60e51b815260040161086f9190610e57565b6000813f7fc5d2460186f7233c927e7db2dcc703c0e500b653ca82273b7bfad8045d85a4708181148015906108c6575050151592915050565b6040518060c0016040528060006001600160a01b0316815260200160608152602001606081526020016060815260200160608152602001606081525090565b60008083601f840112610a1b578182fd5b50813567ffffffffffffffff811115610a32578182fd5b6020830191508360208083028501011115610a4c57600080fd5b9250929050565b600082601f830112610a63578081fd5b8135610a76610a7182610fbe565b610f97565b818152915060208083019084810181840286018201871015610a9757600080fd5b60005b84811015610ab657813584529282019290820190600101610a9a565b505050505092915050565b600060208284031215610ad2578081fd5b8135610add8161100a565b9392505050565b600080600060608486031215610af8578182fd5b8335610b038161100a565b925060208481013567ffffffffffffffff80821115610b20578485fd5b818701915087601f830112610b33578485fd5b8135610b41610a7182610fbe565b81815284810190848601868402860187018c1015610b5d578889fd5b8895505b83861015610b88578035610b748161100a565b835260019590950194918601918601610b61565b50965050506040870135925080831115610ba0578384fd5b5050610bae86828701610a53565b9150509250925092565b60008060408385031215610bca578182fd5b8235610bd58161100a565b946020939093013593505050565b600080600080600080600080600060a08a8c031215610c00578485fd5b893567ffffffffffffffff80821115610c17578687fd5b610c238d838e01610a0a565b909b50995060208c0135915080821115610c3b578687fd5b610c478d838e01610a0a565b909950975060408c0135915080821115610c5f578687fd5b610c6b8d838e01610a0a565b909750955060608c01359150610c808261100a565b90935060808b01359080821115610c95578384fd5b818c0191508c601f830112610ca8578384fd5b813581811115610cb6578485fd5b8d6020828501011115610cc7578485fd5b6020830194508093505050509295985092959850929598565b600060208284031215610cf1578081fd5b81518015158114610add578182fd5b600060208284031215610d11578081fd5b5051919050565b6001600160a01b03169052565b6000815180845260208085019450808401835b83811015610d5d5781516001600160a01b031687529582019590820190600101610d38565b509495945050505050565b6000815180845260208085019450808401835b83811015610d5d57815187529582019590820190600101610d7b565b60008151808452610daf816020860160208601610fde565b601f01601f19169290920160200192915050565b60008251610dd5818460208701610fde565b9190910192915050565b6001600160a01b0391909116815260200190565b6001600160a01b03831681526040602082018190526000906108c690830184610d97565b6001600160a01b0392909216825260ff16602082015260400190565b6001600160a01b03929092168252602082015260400190565b901515815260200190565b600060208252610add6020830184610d97565b6020808252601d908201527f416464726573733a2063616c6c20746f206e6f6e2d636f6e7472616374000000604082015260600190565b6020808252602a908201527f5361666545524332303a204552433230206f7065726174696f6e20646964206e6040820152691bdd081cdd58d8d9595960b21b606082015260800190565b600060208252610eff602083018451610d18565b602083015160c06040840152610f1860e0840182610d25565b90506040840151601f1980858403016060860152610f368383610d25565b92506060860151915080858403016080860152610f538383610d68565b925060808601519150808584030160a0860152610f708383610d68565b925060a08601519150808584030160c086015250610f8e8282610d68565b95945050505050565b60405181810167ffffffffffffffff81118282101715610fb657600080fd5b604052919050565b600067ffffffffffffffff821115610fd4578081fd5b5060209081020190565b60005b83811015610ff9578181015183820152602001610fe1565b838111156107da5750506000910152565b6001600160a01b038116811461101f57600080fd5b5056fea2646970667358221220bdc8faf0ef43453d0a07d9820a0aea288ec496fa538a603b1a7d47617cd7af4f64736f6c634300060c0033",
    "sourcePath": "/Users/nenadpalinkasevic/Desktop/blockchain/cdpsaver-mcd-contracts/contracts/aave/migration/AaveMigrationReceiver.sol",
    "compiler": {
        "name": "solc",
        "version": "0.6.12+commit.27d51765"
    },
    "functionHashes": {
        "AAVE_MIGRATION_ADDR()": "ab57a4ee",
        "AAVE_V2_LENDING_POOL()": "66658d44",
        "admin()": "f851a440",
        "executeOperation(address[],uint256[],uint256[],address,bytes)": "920f5c84",
        "kill()": "41c0e1b5",
        "owner()": "8da5cb5b",
        "setAdminByAdmin(address)": "a7304bf7",
        "setAdminByOwner(address)": "deca5f88",
        "setOwnerByAdmin(address)": "1e48907b",
        "withdrawStuckFunds(address,uint256)": "3a128322"
    },
    "gasEstimates": {
        "creation": {
            "codeDepositCost": "836800",
            "executionCost": "42538",
            "totalCost": "879338"
        },
        "external": {
            "AAVE_MIGRATION_ADDR()": "296",
            "AAVE_V2_LENDING_POOL()": "319",
            "admin()": "1158",
            "executeOperation(address[],uint256[],uint256[],address,bytes)": "infinite",
            "kill()": "31841",
            "owner()": "1159",
            "setAdminByAdmin(address)": "22027",
            "setAdminByOwner(address)": "22909",
            "setOwnerByAdmin(address)": "22006",
            "withdrawStuckFunds(address,uint256)": "infinite"
        },
        "internal": {
            "returnFL(address[] memory,uint256[] memory,uint256[] memory)": "infinite"
        }
    }
}