{
    "contractName": "MCDMonitorV2",
    "abi": [
        {
            "inputs": [
                {
                    "internalType": "address",
                    "name": "_monitorProxy",
                    "type": "address"
                },
                {
                    "internalType": "address",
                    "name": "_subscriptions",
                    "type": "address"
                },
                {
                    "internalType": "address",
                    "name": "_mcdSaverTakerAddress",
                    "type": "address"
                }
            ],
            "stateMutability": "nonpayable",
            "type": "constructor"
        },
        {
            "inputs": [],
            "name": "BOOST_GAS_COST",
            "outputs": [
                {
                    "internalType": "uint256",
                    "name": "",
                    "type": "uint256"
                }
            ],
            "stateMutability": "view",
            "type": "function"
        },
        {
            "inputs": [],
            "name": "BOOST_SELECTOR",
            "outputs": [
                {
                    "internalType": "bytes4",
                    "name": "",
                    "type": "bytes4"
                }
            ],
            "stateMutability": "view",
            "type": "function"
        },
        {
            "inputs": [],
            "name": "BOT_REGISTRY_ADDRESS",
            "outputs": [
                {
                    "internalType": "address",
                    "name": "",
                    "type": "address"
                }
            ],
            "stateMutability": "view",
            "type": "function"
        },
        {
            "inputs": [],
            "name": "MAX_GAS_PRICE",
            "outputs": [
                {
                    "internalType": "uint256",
                    "name": "",
                    "type": "uint256"
                }
            ],
            "stateMutability": "view",
            "type": "function"
        },
        {
            "inputs": [],
            "name": "PROXY_PERMISSION_ADDR",
            "outputs": [
                {
                    "internalType": "address",
                    "name": "",
                    "type": "address"
                }
            ],
            "stateMutability": "view",
            "type": "function"
        },
        {
            "inputs": [],
            "name": "REPAY_GAS_COST",
            "outputs": [
                {
                    "internalType": "uint256",
                    "name": "",
                    "type": "uint256"
                }
            ],
            "stateMutability": "view",
            "type": "function"
        },
        {
            "inputs": [],
            "name": "REPAY_SELECTOR",
            "outputs": [
                {
                    "internalType": "bytes4",
                    "name": "",
                    "type": "bytes4"
                }
            ],
            "stateMutability": "view",
            "type": "function"
        },
        {
            "inputs": [],
            "name": "admin",
            "outputs": [
                {
                    "internalType": "address",
                    "name": "",
                    "type": "address"
                }
            ],
            "stateMutability": "view",
            "type": "function"
        },
        {
            "inputs": [
                {
                    "components": [
                        {
                            "internalType": "address",
                            "name": "srcAddr",
                            "type": "address"
                        },
                        {
                            "internalType": "address",
                            "name": "destAddr",
                            "type": "address"
                        },
                        {
                            "internalType": "uint256",
                            "name": "srcAmount",
                            "type": "uint256"
                        },
                        {
                            "internalType": "uint256",
                            "name": "destAmount",
                            "type": "uint256"
                        },
                        {
                            "internalType": "uint256",
                            "name": "minPrice",
                            "type": "uint256"
                        },
                        {
                            "internalType": "uint256",
                            "name": "dfsFeeDivider",
                            "type": "uint256"
                        },
                        {
                            "internalType": "address",
                            "name": "user",
                            "type": "address"
                        },
                        {
                            "internalType": "address",
                            "name": "wrapper",
                            "type": "address"
                        },
                        {
                            "internalType": "bytes",
                            "name": "wrapperData",
                            "type": "bytes"
                        },
                        {
                            "components": [
                                {
                                    "internalType": "address",
                                    "name": "wrapper",
                                    "type": "address"
                                },
                                {
                                    "internalType": "address",
                                    "name": "exchangeAddr",
                                    "type": "address"
                                },
                                {
                                    "internalType": "address",
                                    "name": "allowanceTarget",
                                    "type": "address"
                                },
                                {
                                    "internalType": "uint256",
                                    "name": "price",
                                    "type": "uint256"
                                },
                                {
                                    "internalType": "uint256",
                                    "name": "protocolFee",
                                    "type": "uint256"
                                },
                                {
                                    "internalType": "bytes",
                                    "name": "callData",
                                    "type": "bytes"
                                }
                            ],
                            "internalType": "struct DFSExchangeData.OffchainData",
                            "name": "offchainData",
                            "type": "tuple"
                        }
                    ],
                    "internalType": "struct DFSExchangeData.ExchangeData",
                    "name": "_exchangeData",
                    "type": "tuple"
                },
                {
                    "internalType": "uint256",
                    "name": "_cdpId",
                    "type": "uint256"
                },
                {
                    "internalType": "uint256",
                    "name": "_nextPrice",
                    "type": "uint256"
                },
                {
                    "internalType": "address",
                    "name": "_joinAddr",
                    "type": "address"
                }
            ],
            "name": "boostFor",
            "outputs": [],
            "stateMutability": "payable",
            "type": "function"
        },
        {
            "inputs": [
                {
                    "internalType": "uint256",
                    "name": "_gasAmount",
                    "type": "uint256"
                }
            ],
            "name": "calcGasCost",
            "outputs": [
                {
                    "internalType": "uint256",
                    "name": "",
                    "type": "uint256"
                }
            ],
            "stateMutability": "view",
            "type": "function"
        },
        {
            "inputs": [
                {
                    "internalType": "uint256",
                    "name": "_gasCost",
                    "type": "uint256"
                }
            ],
            "name": "changeBoostGasCost",
            "outputs": [],
            "stateMutability": "nonpayable",
            "type": "function"
        },
        {
            "inputs": [
                {
                    "internalType": "uint256",
                    "name": "_maxGasPrice",
                    "type": "uint256"
                }
            ],
            "name": "changeMaxGasPrice",
            "outputs": [],
            "stateMutability": "nonpayable",
            "type": "function"
        },
        {
            "inputs": [
                {
                    "internalType": "uint256",
                    "name": "_gasCost",
                    "type": "uint256"
                }
            ],
            "name": "changeRepayGasCost",
            "outputs": [],
            "stateMutability": "nonpayable",
            "type": "function"
        },
        {
            "inputs": [
                {
                    "internalType": "enum StaticV2.Method",
                    "name": "_method",
                    "type": "uint8"
                },
                {
                    "internalType": "uint256",
                    "name": "_cdpId",
                    "type": "uint256"
                },
                {
                    "internalType": "uint256",
                    "name": "_nextPrice",
                    "type": "uint256"
                }
            ],
            "name": "checkPreconditions",
            "outputs": [
                {
                    "internalType": "bool",
                    "name": "",
                    "type": "bool"
                },
                {
                    "internalType": "uint256",
                    "name": "",
                    "type": "uint256"
                },
                {
                    "internalType": "string",
                    "name": "",
                    "type": "string"
                }
            ],
            "stateMutability": "view",
            "type": "function"
        },
        {
            "inputs": [
                {
                    "internalType": "uint256",
                    "name": "_cdpId",
                    "type": "uint256"
                },
                {
                    "internalType": "bytes32",
                    "name": "_ilk",
                    "type": "bytes32"
                }
            ],
            "name": "getCdpInfo",
            "outputs": [
                {
                    "internalType": "uint256",
                    "name": "",
                    "type": "uint256"
                },
                {
                    "internalType": "uint256",
                    "name": "",
                    "type": "uint256"
                }
            ],
            "stateMutability": "view",
            "type": "function"
        },
        {
            "inputs": [
                {
                    "internalType": "uint256",
                    "name": "_cdpId",
                    "type": "uint256"
                }
            ],
            "name": "getOwner",
            "outputs": [
                {
                    "internalType": "address",
                    "name": "",
                    "type": "address"
                }
            ],
            "stateMutability": "view",
            "type": "function"
        },
        {
            "inputs": [
                {
                    "internalType": "bytes32",
                    "name": "_ilk",
                    "type": "bytes32"
                }
            ],
            "name": "getPrice",
            "outputs": [
                {
                    "internalType": "uint256",
                    "name": "",
                    "type": "uint256"
                }
            ],
            "stateMutability": "view",
            "type": "function"
        },
        {
            "inputs": [
                {
                    "internalType": "uint256",
                    "name": "_cdpId",
                    "type": "uint256"
                },
                {
                    "internalType": "uint256",
                    "name": "_nextPrice",
                    "type": "uint256"
                }
            ],
            "name": "getRatio",
            "outputs": [
                {
                    "internalType": "uint256",
                    "name": "",
                    "type": "uint256"
                }
            ],
            "stateMutability": "view",
            "type": "function"
        },
        {
            "inputs": [],
            "name": "kill",
            "outputs": [],
            "stateMutability": "nonpayable",
            "type": "function"
        },
        {
            "inputs": [],
            "name": "logger",
            "outputs": [
                {
                    "internalType": "contract DefisaverLogger",
                    "name": "",
                    "type": "address"
                }
            ],
            "stateMutability": "view",
            "type": "function"
        },
        {
            "inputs": [],
            "name": "manager",
            "outputs": [
                {
                    "internalType": "contract Manager",
                    "name": "",
                    "type": "address"
                }
            ],
            "stateMutability": "view",
            "type": "function"
        },
        {
            "inputs": [],
            "name": "mcdSaverTakerAddress",
            "outputs": [
                {
                    "internalType": "address",
                    "name": "",
                    "type": "address"
                }
            ],
            "stateMutability": "view",
            "type": "function"
        },
        {
            "inputs": [],
            "name": "monitorProxyContract",
            "outputs": [
                {
                    "internalType": "contract MCDMonitorProxyV2",
                    "name": "",
                    "type": "address"
                }
            ],
            "stateMutability": "view",
            "type": "function"
        },
        {
            "inputs": [],
            "name": "owner",
            "outputs": [
                {
                    "internalType": "address",
                    "name": "",
                    "type": "address"
                }
            ],
            "stateMutability": "view",
            "type": "function"
        },
        {
            "inputs": [
                {
                    "internalType": "enum StaticV2.Method",
                    "name": "_method",
                    "type": "uint8"
                },
                {
                    "internalType": "uint256",
                    "name": "_cdpId",
                    "type": "uint256"
                },
                {
                    "internalType": "uint256",
                    "name": "_nextPrice",
                    "type": "uint256"
                },
                {
                    "internalType": "uint256",
                    "name": "_beforeRatio",
                    "type": "uint256"
                }
            ],
            "name": "ratioGoodAfter",
            "outputs": [
                {
                    "internalType": "bool",
                    "name": "",
                    "type": "bool"
                },
                {
                    "internalType": "uint256",
                    "name": "",
                    "type": "uint256"
                },
                {
                    "internalType": "string",
                    "name": "",
                    "type": "string"
                }
            ],
            "stateMutability": "view",
            "type": "function"
        },
        {
            "inputs": [
                {
                    "components": [
                        {
                            "internalType": "address",
                            "name": "srcAddr",
                            "type": "address"
                        },
                        {
                            "internalType": "address",
                            "name": "destAddr",
                            "type": "address"
                        },
                        {
                            "internalType": "uint256",
                            "name": "srcAmount",
                            "type": "uint256"
                        },
                        {
                            "internalType": "uint256",
                            "name": "destAmount",
                            "type": "uint256"
                        },
                        {
                            "internalType": "uint256",
                            "name": "minPrice",
                            "type": "uint256"
                        },
                        {
                            "internalType": "uint256",
                            "name": "dfsFeeDivider",
                            "type": "uint256"
                        },
                        {
                            "internalType": "address",
                            "name": "user",
                            "type": "address"
                        },
                        {
                            "internalType": "address",
                            "name": "wrapper",
                            "type": "address"
                        },
                        {
                            "internalType": "bytes",
                            "name": "wrapperData",
                            "type": "bytes"
                        },
                        {
                            "components": [
                                {
                                    "internalType": "address",
                                    "name": "wrapper",
                                    "type": "address"
                                },
                                {
                                    "internalType": "address",
                                    "name": "exchangeAddr",
                                    "type": "address"
                                },
                                {
                                    "internalType": "address",
                                    "name": "allowanceTarget",
                                    "type": "address"
                                },
                                {
                                    "internalType": "uint256",
                                    "name": "price",
                                    "type": "uint256"
                                },
                                {
                                    "internalType": "uint256",
                                    "name": "protocolFee",
                                    "type": "uint256"
                                },
                                {
                                    "internalType": "bytes",
                                    "name": "callData",
                                    "type": "bytes"
                                }
                            ],
                            "internalType": "struct DFSExchangeData.OffchainData",
                            "name": "offchainData",
                            "type": "tuple"
                        }
                    ],
                    "internalType": "struct DFSExchangeData.ExchangeData",
                    "name": "_exchangeData",
                    "type": "tuple"
                },
                {
                    "internalType": "uint256",
                    "name": "_cdpId",
                    "type": "uint256"
                },
                {
                    "internalType": "uint256",
                    "name": "_nextPrice",
                    "type": "uint256"
                },
                {
                    "internalType": "address",
                    "name": "_joinAddr",
                    "type": "address"
                }
            ],
            "name": "repayFor",
            "outputs": [],
            "stateMutability": "payable",
            "type": "function"
        },
        {
            "inputs": [
                {
                    "internalType": "address",
                    "name": "_admin",
                    "type": "address"
                }
            ],
            "name": "setAdminByAdmin",
            "outputs": [],
            "stateMutability": "nonpayable",
            "type": "function"
        },
        {
            "inputs": [
                {
                    "internalType": "address",
                    "name": "_admin",
                    "type": "address"
                }
            ],
            "name": "setAdminByOwner",
            "outputs": [],
            "stateMutability": "nonpayable",
            "type": "function"
        },
        {
            "inputs": [
                {
                    "internalType": "address",
                    "name": "_owner",
                    "type": "address"
                }
            ],
            "name": "setOwnerByAdmin",
            "outputs": [],
            "stateMutability": "nonpayable",
            "type": "function"
        },
        {
            "inputs": [],
            "name": "spotter",
            "outputs": [
                {
                    "internalType": "contract Spotter",
                    "name": "",
                    "type": "address"
                }
            ],
            "stateMutability": "view",
            "type": "function"
        },
        {
            "inputs": [],
            "name": "subscriptionsContract",
            "outputs": [
                {
                    "internalType": "contract ISubscriptionsV2",
                    "name": "",
                    "type": "address"
                }
            ],
            "stateMutability": "view",
            "type": "function"
        },
        {
            "inputs": [],
            "name": "vat",
            "outputs": [
                {
                    "internalType": "contract Vat",
                    "name": "",
                    "type": "address"
                }
            ],
            "stateMutability": "view",
            "type": "function"
        },
        {
            "inputs": [
                {
                    "internalType": "address",
                    "name": "_token",
                    "type": "address"
                },
                {
                    "internalType": "uint256",
                    "name": "_amount",
                    "type": "uint256"
                }
            ],
            "name": "withdrawStuckFunds",
            "outputs": [],
            "stateMutability": "nonpayable",
            "type": "function"
        }
    ],
    "bytecode": "608060405264ba43b74000600255620f4240600381905560045560058054678ec2ae250000000063ffffffff60201b1963ffffffff1990921663f360ce201791909116179055600880546001600160a01b0319908116735ef30b9986345249bc32d8928b7ee64de9435e39179091556009805482167335d1b3f3d7966a1dfe207aa4514c12a259a0492b179055600a80549091167365c79fcb50ca1594b025960e539ed7a9a6d434a3179055348015620000b857600080fd5b50604051620027f0380380620027f0833981016040819052620000db9162000172565b600080546001600160a01b031990811673bc841b0de0b93205e912cfbbd1d0c160a1ec6f00179091556001805482167325efa336886c74ea8e282ac466bdcd0199f85bb9179055600580546001600160a01b039586166801000000000000000002600160401b600160e01b0319909116179055600680549385169382169390931790925560078054919093169116179055620001de565b60008060006060848603121562000187578283fd5b83516200019481620001c5565b6020850151909350620001a781620001c5565b6040850151909250620001ba81620001c5565b809150509250925092565b6001600160a01b0381168114620001db57600080fd5b50565b61260280620001ee6000396000f3fe6080604052600436106101ee5760003560e01c80635ea2a6091161010d578063b6d5a156116100a0578063cff700011161006f578063cff700011461050e578063deca5f881461052e578063e3bbb4f11461054e578063f24ccbfe14610563578063f851a44014610578576101ee565b8063b6d5a15614610496578063c41a360a146104ab578063c42498ea146104cb578063cf66a6bc146104f9576101ee565b8063a564056c116100dc578063a564056c1461042e578063a7304bf714610441578063a8c9032314610461578063b2f9e47f14610481576101ee565b80635ea2a609146103dc5780637016722c146103f157806379521f02146104045780638da5cb5b14610419576101ee565b80633816377e11610185578063481c6a7511610154578063481c6a75146103705780634d3f199e14610385578063526d6461146103a557806358346f4b146103ba576101ee565b80633816377e146102fb5780633a1283221461031b57806341c0e1b51461033b57806342e7c83014610350576101ee565b80632e77468d116101c15780632e77468d1461028f57806331d98b3f146102b157806336569e77146102d157806336fc603f146102e6576101ee565b8063065b80bf146101f357806318bf60e11461022b5780631e48907b1461024d5780632a56f6021461026f575b600080fd5b3480156101ff57600080fd5b5061021361020e366004611ea3565b61058d565b60405161022293929190612284565b60405180910390f35b34801561023757600080fd5b5061024061080e565b60405161022291906122a5565b34801561025957600080fd5b5061026d610268366004611cf7565b610814565b005b34801561027b57600080fd5b5061024061028a366004611e46565b61084d565b34801561029b57600080fd5b506102a4610877565b6040516102229190612178565b3480156102bd57600080fd5b506102406102cc366004611e46565b610886565b3480156102dd57600080fd5b506102a4610a35565b3480156102f257600080fd5b50610240610a44565b34801561030757600080fd5b5061026d610316366004611e46565b610a4a565b34801561032757600080fd5b5061026d610336366004611d2f565b610a94565b34801561034757600080fd5b5061026d610b2d565b34801561035c57600080fd5b5061021361036b366004611eda565b610b52565b34801561037c57600080fd5b506102a4610d86565b34801561039157600080fd5b5061026d6103a0366004611e46565b610d95565b3480156103b157600080fd5b506102a4610dd3565b3480156103c657600080fd5b506103cf610deb565b60405161022291906122c5565b3480156103e857600080fd5b506102a4610df4565b61026d6103ff366004611f17565b610e0f565b34801561041057600080fd5b506102a4611141565b34801561042557600080fd5b506102a4611150565b61026d61043c366004611f17565b61115f565b34801561044d57600080fd5b5061026d61045c366004611cf7565b611452565b34801561046d57600080fd5b5061026d61047c366004611e46565b61148b565b34801561048d57600080fd5b506103cf6114c9565b3480156104a257600080fd5b506102a46114da565b3480156104b757600080fd5b506102a46104c6366004611e46565b6114f2565b3480156104d757600080fd5b506104eb6104e6366004612044565b611579565b60405161022292919061252f565b34801561050557600080fd5b506102a461172e565b34801561051a57600080fd5b50610240610529366004612044565b61173d565b34801561053a57600080fd5b5061026d610549366004611cf7565b611833565b34801561055a57600080fd5b50610240611860565b34801561056f57600080fd5b506102a4611866565b34801561058457600080fd5b506102a461187e565b6000806060600061059c611b75565b600654604051631da1542f60e01b81526001600160a01b0390911690631da1542f906105cc908a906004016122a5565b6101206040518083038186803b1580156105e557600080fd5b505afa1580156105f9573d6000803e3d6000fd5b505050506040513d601f19601f8201168201806040525081019061061d9190611d76565b915091508161065a576000806040518060400160405280600b81526020016a21b238103737ba1039bab160a91b8152509450945094505050610805565b60008611801561066c57508060e00151155b156106b7576000806040518060400160405280601f81526020017f4e65787420707269636520656e61626c656420627574206e6f742073656e64008152509450945094505050610805565b60008860018111156106c557fe5b1480156106d457508060c00151155b156107135760008060405180604001604052806011815260200170109bdbdcdd081b9bdd08195b98589b1959607a1b8152509450945094505050610805565b80608001516001600160a01b031661072a886114f2565b6001600160a01b031614610774576000806040518060400160405280601381526020017222a7a0903737ba1039bab132b21037bbb732b960691b8152509450945094505050610805565b6000610780888861173d565b9050600189600181111561079057fe5b14156107c25790516040805160208101909152600081526001600160801b039091168210955090935091506108059050565b60008960018111156107d057fe5b141561080157602091820151604080519384019052600083526001600160801b031681119550935091506108059050565b5050505b93509350939050565b60045481565b6001546001600160a01b0316331461082b57600080fd5b600080546001600160a01b0319166001600160a01b0392909216919091179055565b6000806002543a111561086257600254610864565b3a5b9050610870818461188d565b9392505050565b600a546001600160a01b031681565b600a54604051636cb1c69b60e11b815260009182916001600160a01b039091169063d9638d36906108bb9086906004016122a5565b604080518083038186803b1580156108d257600080fd5b505afa1580156108e6573d6000803e3d6000fd5b505050506040513d601f19601f8201168201806040525081019061090a9190611e76565b600954604051636cb1c69b60e11b8152919350600092506001600160a01b03169063d9638d369061093f9087906004016122a5565b60a06040518083038186803b15801561095757600080fd5b505afa15801561096b573d6000803e3d6000fd5b505050506040513d601f19601f8201168201806040525081019061098f9190612088565b505092505050610a2d610a2782600a60009054906101000a90046001600160a01b03166001600160a01b031663495d32cb6040518163ffffffff1660e01b815260040160206040518083038186803b1580156109ea57600080fd5b505afa1580156109fe573d6000803e3d6000fd5b505050506040513d601f19601f82011682018060405250810190610a229190611e5e565b6118b1565b836118b1565b949350505050565b6009546001600160a01b031681565b60035481565b6000546001600160a01b03163314610a6157600080fd5b6501d1a94a20008110610a8f5760405162461bcd60e51b8152600401610a869061235b565b60405180910390fd5b600255565b6000546001600160a01b03163314610aab57600080fd5b73eeeeeeeeeeeeeeeeeeeeeeeeeeeeeeeeeeeeeeee6001600160a01b0383161415610b0f57600080546040516001600160a01b039091169183156108fc02918491818181858888f19350505050158015610b09573d6000803e3d6000fd5b50610b29565b600054610b29906001600160a01b038481169116836118f2565b5050565b6000546001600160a01b03163314610b4457600080fd5b6000546001600160a01b0316ff5b6000806060610b5f611b75565b600654604051631da1542f60e01b81526001600160a01b0390911690631da1542f90610b8f908a906004016122a5565b6101206040518083038186803b158015610ba857600080fd5b505afa158015610bbc573d6000803e3d6000fd5b505050506040513d601f19601f82011682018060405250810190610be09190611d76565b9150506000610bef888861173d565b90506001896001811115610bff57fe5b1415610caa5781602001516001600160801b03168110610c5f576000816040518060400160405280601e81526020017f526570617920696e6372656173656420726174696f206f766572206d617800008152509450945094505050610d7c565b858111610ca557600081604051806040016040528060168152602001755265706179206d61646520726174696f20776f72736560501b8152509450945094505050610d7c565b610d62565b6000896001811115610cb857fe5b1415610d625781516001600160801b03168111610d15576000816040518060400160405280601c81526020017f426f6f7374206c6f776572656420726174696f206f766572206d696e000000008152509450945094505050610d7c565b858110610d62576000816040518060400160405280601881526020017f426f6f7374206469646e2774206c6f77657220726174696f00000000000000008152509450945094505050610d7c565b604080516020810190915260008152600195509093509150505b9450945094915050565b6008546001600160a01b031681565b6000546001600160a01b03163314610dac57600080fd5b622dc6c08110610dce5760405162461bcd60e51b8152600401610a86906122ed565b600355565b73637726f8b08a7abe3ae3acab01a80e2d8ddef77b81565b60055460e01b81565b6005546801000000000000000090046001600160a01b031681565b6040516320eb73ed60e11b815273637726f8b08a7abe3ae3acab01a80e2d8ddef77b906341d6e7da90610e46903390600401612178565b60206040518083038186803b158015610e5e57600080fd5b505afa158015610e72573d6000803e3d6000fd5b505050506040513d601f19601f82011682018060405250810190610e969190611d5a565b610eb25760405162461bcd60e51b8152600401610a86906123c9565b6000806060610ec36001878761058d565b919450925090508083610ee95760405162461bcd60e51b8152600401610a8691906122da565b506000610ef760035461084d565b60065460405163620d1b0560e11b81529192506000916001600160a01b039091169063c41a360a90610f2d908b906004016122a5565b60206040518083038186803b158015610f4557600080fd5b505afa158015610f59573d6000803e3d6000fd5b505050506040513d601f19601f82011682018060405250810190610f7d9190611d13565b9050600560089054906101000a90046001600160a01b03166001600160a01b0316638a0e833f3483600760009054906101000a90046001600160a01b0316600560009054906101000a900460e01b8e8e898e6000604051602401610fe5959493929190612439565b60408051601f198184030181529181526020820180516001600160e01b03166001600160e01b03199485161790525160e087901b909216825261102c93929160040161218c565b6000604051808303818588803b15801561104557600080fd5b505af1158015611059573d6000803e3d6000fd5b505050505060008061106e60018b8b89610b52565b9650909250905084826110945760405162461bcd60e51b8152600401610a8691906122da565b5061109d61194d565b735c55b921f590a89c1ebe84df170e655a82b621266001600160a01b031663d061ce50308589856040516020016110d592919061252f565b6040516020818303038152906040526040518463ffffffff1660e01b8152600401611102939291906121c1565b600060405180830381600087803b15801561111c57600080fd5b505af1158015611130573d6000803e3d6000fd5b505050505050505050505050505050565b6006546001600160a01b031681565b6000546001600160a01b031681565b6040516320eb73ed60e11b815273637726f8b08a7abe3ae3acab01a80e2d8ddef77b906341d6e7da90611196903390600401612178565b60206040518083038186803b1580156111ae57600080fd5b505afa1580156111c2573d6000803e3d6000fd5b505050506040513d601f19601f820116820180604052508101906111e69190611d5a565b6112025760405162461bcd60e51b8152600401610a86906123c9565b60008060606112136000878761058d565b9194509250905080836112395760405162461bcd60e51b8152600401610a8691906122da565b50600061124760045461084d565b60065460405163620d1b0560e11b81529192506000916001600160a01b039091169063c41a360a9061127d908b906004016122a5565b60206040518083038186803b15801561129557600080fd5b505afa1580156112a9573d6000803e3d6000fd5b505050506040513d601f19601f820116820180604052508101906112cd9190611d13565b9050600560089054906101000a90046001600160a01b03166001600160a01b0316638a0e833f3483600760009054906101000a90046001600160a01b0316600560049054906101000a900460e01b8e8e898e6000604051602401611335959493929190612439565b60408051601f198184030181529181526020820180516001600160e01b03166001600160e01b03199485161790525160e087901b909216825261137c93929160040161218c565b6000604051808303818588803b15801561139557600080fd5b505af11580156113a9573d6000803e3d6000fd5b50505050506000806113be60008b8b89610b52565b9650909250905084826113e45760405162461bcd60e51b8152600401610a8691906122da565b506113ed61194d565b735c55b921f590a89c1ebe84df170e655a82b621266001600160a01b031663d061ce503085898560405160200161142592919061252f565b6040516020818303038152906040526040518463ffffffff1660e01b815260040161110293929190612216565b6001546001600160a01b0316331461146957600080fd5b600180546001600160a01b0319166001600160a01b0392909216919091179055565b6000546001600160a01b031633146114a257600080fd5b622dc6c081106114c45760405162461bcd60e51b8152600401610a8690612324565b600455565b600554640100000000900460e01b81565b735a4f877ca808cca3cb7c2a194f80ab8588fae26b81565b60085460405163040b0d8960e51b81526000916001600160a01b031690638161b120906115239085906004016122a5565b60206040518083038186803b15801561153b57600080fd5b505afa15801561154f573d6000803e3d6000fd5b505050506040513d601f19601f820116820180604052508101906115739190611d13565b92915050565b600854604051632726b07360e01b8152600091829182916001600160a01b031690632726b073906115ae9088906004016122a5565b60206040518083038186803b1580156115c657600080fd5b505afa1580156115da573d6000803e3d6000fd5b505050506040513d601f19601f820116820180604052508101906115fe9190611d13565b6009546040516309092f9760e21b815291925060009182916001600160a01b031690632424be5c9061163690899087906004016122ae565b604080518083038186803b15801561164d57600080fd5b505afa158015611661573d6000803e3d6000fd5b505050506040513d601f19601f820116820180604052508101906116859190612065565b600954604051636cb1c69b60e11b81529294509092506000916001600160a01b039091169063d9638d36906116be908a906004016122a5565b60a06040518083038186803b1580156116d657600080fd5b505afa1580156116ea573d6000803e3d6000fd5b505050506040513d601f19601f8201168201806040525081019061170e9190612088565b5050509150508261171f83836118b1565b95509550505050509250929050565b6007546001600160a01b031681565b600854604051632c2cb9fd60e01b815260009182916001600160a01b0390911690632c2cb9fd906117729087906004016122a5565b60206040518083038186803b15801561178a57600080fd5b505afa15801561179e573d6000803e3d6000fd5b505050506040513d601f19601f820116820180604052508101906117c29190611e5e565b9050600083156117d257836117db565b6117db82610886565b90506000806117ea8785611579565b915091508060001415611804576000945050505050611573565b670de0b6b3a764000061182061181a8486611983565b836119ab565b8161182757fe5b04979650505050505050565b6000546001600160a01b0316331461184a57600080fd5b6001546001600160a01b03161561146957600080fd5b60025481565b735c55b921f590a89c1ebe84df170e655a82b6212681565b6001546001600160a01b031681565b60008115806118a8575050808202828282816118a557fe5b04145b61157357600080fd5b60006b033b2e3c9fd0803ce80000006118e36118cd858561188d565b60026b033b2e3c9fd0803ce80000005b046119cf565b816118ea57fe5b049392505050565b6119488363a9059cbb60e01b848460405160240161191192919061226b565b60408051601f198184030181529190526020810180516001600160e01b03166001600160e01b0319909316929092179091526119df565b505050565b47156119815760405133904780156108fc02916000818181858888f1935050505015801561197f573d6000803e3d6000fd5b505b565b6000670de0b6b3a76400006118e361199b858561188d565b6002670de0b6b3a76400006118dd565b6000816118e36119c7856b033b2e3c9fd0803ce800000061188d565b6002856118dd565b8082018281101561157357600080fd5b6060611a34826040518060400160405280602081526020017f5361666545524332303a206c6f772d6c6576656c2063616c6c206661696c6564815250856001600160a01b0316611a6e9092919063ffffffff16565b8051909150156119485780806020019051810190611a529190611d5a565b6119485760405162461bcd60e51b8152600401610a86906123ef565b6060610a2d84846000856060611a8385611b3c565b611a9f5760405162461bcd60e51b8152600401610a8690612392565b60006060866001600160a01b03168587604051611abc919061215c565b60006040518083038185875af1925050503d8060008114611af9576040519150601f19603f3d011682016040523d82523d6000602084013e611afe565b606091505b50915091508115611b12579150610a2d9050565b805115611b225780518082602001fd5b8360405162461bcd60e51b8152600401610a8691906122da565b6000813f7fc5d2460186f7233c927e7db2dcc703c0e500b653ca82273b7bfad8045d85a470818114801590610a2d575050151592915050565b6040805161010081018252600080825260208201819052918101829052606081018290526080810182905260a0810182905260c0810182905260e081019190915290565b803561157381612594565b805161157381612594565b8051801515811461157357600080fd5b600082601f830112611bef578081fd5b813567ffffffffffffffff811115611c05578182fd5b611c18601f8201601f191660200161253d565b9150808252836020828501011115611c2f57600080fd5b8060208401602084013760009082016020015292915050565b600060c08284031215611c59578081fd5b611c6360c061253d565b90508135611c7081612594565b81526020820135611c8081612594565b60208201526040820135611c9381612594565b80604083015250606082013560608201526080820135608082015260a082013567ffffffffffffffff811115611cc857600080fd5b611cd484828501611bdf565b60a08301525092915050565b80516001600160801b038116811461157357600080fd5b600060208284031215611d08578081fd5b813561087081612594565b600060208284031215611d24578081fd5b815161087081612594565b60008060408385031215611d41578081fd5b8235611d4c81612594565b946020939093013593505050565b600060208284031215611d6b578081fd5b8151610870816125a9565b600080828403610120811215611d8a578283fd5b8351611d95816125a9565b9250610100601f198201811315611daa578283fd5b611db38161253d565b91506020850151611dc3816125b7565b8252611dd28660408701611ce0565b6020830152611de48660608701611ce0565b6040830152611df68660808701611ce0565b6060830152611e088660a08701611bc4565b608083015260c085015160a0830152611e248660e08701611bcf565b60c0830152611e3586828701611bcf565b60e083015250809150509250929050565b600060208284031215611e57578081fd5b5035919050565b600060208284031215611e6f578081fd5b5051919050565b60008060408385031215611e88578182fd5b8251611e9381612594565b6020939093015192949293505050565b600080600060608486031215611eb7578081fd5b833560028110611ec5578182fd5b95602085013595506040909401359392505050565b60008060008060808587031215611eef578182fd5b843560028110611efd578283fd5b966020860135965060408601359560600135945092505050565b60008060008060808587031215611f2c578182fd5b843567ffffffffffffffff80821115611f43578384fd5b818701915061014080838a031215611f59578485fd5b611f628161253d565b9050611f6e8984611bb9565b8152611f7d8960208501611bb9565b602082015260408301356040820152606083013560608201526080830135608082015260a083013560a0820152611fb78960c08501611bb9565b60c0820152611fc98960e08501611bb9565b60e08201526101008084013583811115611fe1578687fd5b611fed8b828701611bdf565b8284015250506101208084013583811115612006578687fd5b6120128b828701611c48565b82840152505080965050505060208501359250604085013591506120398660608701611bb9565b905092959194509250565b60008060408385031215612056578182fd5b50508035926020909101359150565b60008060408385031215612077578182fd5b505080516020909101519092909150565b600080600080600060a0868803121561209f578283fd5b5050835160208501516040860151606087015160809097015192989197509594509092509050565b6001600160a01b03169052565b600081518084526120ec816020860160208601612564565b601f01601f19169290920160200192915050565b60ff169052565b600060018060a01b0380835116845280602084015116602085015280604084015116604085015250606082015160608401526080820151608084015260a082015160c060a0850152610a2d60c08501826120d4565b6000825161216e818460208701612564565b9190910192915050565b6001600160a01b0391909116815260200190565b6001600160a01b038481168252831660208201526060604082018190526000906121b8908301846120d4565b95945050505050565b6001600160a01b03848116825283166020820152608060408201819052601190820152704175746f6d617469634d4344526570617960781b60a082015260c0606082018190526000906121b8908301846120d4565b6001600160a01b0384811682528316602082015260806040820181905260119082015270105d5d1bdb585d1a58d350d1109bdbdcdd607a1b60a082015260c0606082018190526000906121b8908301846120d4565b6001600160a01b03929092168252602082015260400190565b60008415158252836020830152606060408301526121b860608301846120d4565b90815260200190565b9182526001600160a01b0316602082015260400190565b6001600160e01b031991909116815260200190565b60006020825261087060208301846120d4565b60208082526019908201527f52657061792067617320636f7374206f766572206c696d697400000000000000604082015260600190565b60208082526019908201527f426f6f73742067617320636f7374206f766572206c696d697400000000000000604082015260600190565b6020808252601c908201527f4d617820676173207072696365206f76657220746865206c696d697400000000604082015260600190565b6020808252601d908201527f416464726573733a2063616c6c20746f206e6f6e2d636f6e7472616374000000604082015260600190565b6020808252600c908201526b139bdd08185d5d1a08189bdd60a21b604082015260600190565b6020808252602a908201527f5361666545524332303a204552433230206f7065726174696f6e20646964206e6040820152691bdd081cdd58d8d9595960b21b606082015260800190565b600060a0825261244d60a0830188516120c7565b602087015161245f60c08401826120c7565b50604087015160e08301526060870151610100818185015260808901519150610120828186015260a08a01519250610140838187015260c08b015193506124aa6101608701856120c7565b60e08b015193506124bf6101808701856120c7565b828b01519350806101a0870152506124db6101e08601846120d4565b908a0151858203609f19016101c087015290925090506124fb8282612107565b9250505085602083015284604083015261251860608301856120c7565b6125256080830184612100565b9695505050505050565b918252602082015260400190565b60405181810167ffffffffffffffff8111828210171561255c57600080fd5b604052919050565b60005b8381101561257f578181015183820152602001612567565b8381111561258e576000848401525b50505050565b6001600160a01b038116811461197f57600080fd5b801515811461197f57600080fd5b6001600160801b038116811461197f57600080fdfea264697066735822122059af222945e97fbe57cc7e9d323378cc47806b61c00aca55024d0631455e5b3e64736f6c634300060c0033",
    "sourcePath": "/Users/nenadpalinkasevic/Documents/code/defisaver-contracts/contracts/mcd/automaticV2/MCDMonitorV2.sol",
    "compiler": {
        "name": "solc",
        "version": "0.6.12+commit.27d51765"
    },
    "functionHashes": {
        "BOOST_GAS_COST()": "18bf60e1",
        "BOOST_SELECTOR()": "b2f9e47f",
        "BOT_REGISTRY_ADDRESS()": "526d6461",
        "MAX_GAS_PRICE()": "e3bbb4f1",
        "PROXY_PERMISSION_ADDR()": "b6d5a156",
        "REPAY_GAS_COST()": "36fc603f",
        "REPAY_SELECTOR()": "58346f4b",
        "admin()": "f851a440",
        "boostFor((address,address,uint256,uint256,uint256,uint256,address,address,bytes,(address,address,address,uint256,uint256,bytes)),uint256,uint256,address)": "a564056c",
        "calcGasCost(uint256)": "2a56f602",
        "changeBoostGasCost(uint256)": "a8c90323",
        "changeMaxGasPrice(uint256)": "3816377e",
        "changeRepayGasCost(uint256)": "4d3f199e",
        "checkPreconditions(uint8,uint256,uint256)": "065b80bf",
        "getCdpInfo(uint256,bytes32)": "c42498ea",
        "getOwner(uint256)": "c41a360a",
        "getPrice(bytes32)": "31d98b3f",
        "getRatio(uint256,uint256)": "cff70001",
        "kill()": "41c0e1b5",
        "logger()": "f24ccbfe",
        "manager()": "481c6a75",
        "mcdSaverTakerAddress()": "cf66a6bc",
        "monitorProxyContract()": "5ea2a609",
        "owner()": "8da5cb5b",
        "ratioGoodAfter(uint8,uint256,uint256,uint256)": "42e7c830",
        "repayFor((address,address,uint256,uint256,uint256,uint256,address,address,bytes,(address,address,address,uint256,uint256,bytes)),uint256,uint256,address)": "7016722c",
        "setAdminByAdmin(address)": "a7304bf7",
        "setAdminByOwner(address)": "deca5f88",
        "setOwnerByAdmin(address)": "1e48907b",
        "spotter()": "2e77468d",
        "subscriptionsContract()": "79521f02",
        "vat()": "36569e77",
        "withdrawStuckFunds(address,uint256)": "3a128322"
    },
    "gasEstimates": {
        "creation": {
            "codeDepositCost": "1946000",
            "executionCost": "infinite",
            "totalCost": "infinite"
        },
        "external": {
            "BOOST_GAS_COST()": "1097",
            "BOOST_SELECTOR()": "1183",
            "BOT_REGISTRY_ADDRESS()": "341",
            "MAX_GAS_PRICE()": "1116",
            "PROXY_PERMISSION_ADDR()": "297",
            "REPAY_GAS_COST()": "1140",
            "REPAY_SELECTOR()": "1172",
            "admin()": "1202",
            "boostFor((address,address,uint256,uint256,uint256,uint256,address,address,bytes,(address,address,address,uint256,uint256,bytes)),uint256,uint256,address)": "infinite",
            "calcGasCost(uint256)": "2203",
            "changeBoostGasCost(uint256)": "21176",
            "changeMaxGasPrice(uint256)": "21133",
            "changeRepayGasCost(uint256)": "21154",
            "checkPreconditions(uint8,uint256,uint256)": "infinite",
            "getCdpInfo(uint256,bytes32)": "infinite",
            "getOwner(uint256)": "infinite",
            "getPrice(bytes32)": "infinite",
            "getRatio(uint256,uint256)": "infinite",
            "kill()": "31886",
            "logger()": "362",
            "manager()": "1115",
            "mcdSaverTakerAddress()": "1181",
            "monitorProxyContract()": "1127",
            "owner()": "1182",
            "ratioGoodAfter(uint8,uint256,uint256,uint256)": "infinite",
            "repayFor((address,address,uint256,uint256,uint256,uint256,address,address,bytes,(address,address,address,uint256,uint256,bytes)),uint256,uint256,address)": "infinite",
            "setAdminByAdmin(address)": "22073",
            "setAdminByOwner(address)": "22910",
            "setOwnerByAdmin(address)": "22097",
            "spotter()": "1116",
            "subscriptionsContract()": "1160",
            "vat()": "1160",
            "withdrawStuckFunds(address,uint256)": "infinite"
        },
        "internal": {
            "returnEth()": "infinite"
        }
    }
}