{
    "contractName": "CompoundMonitor",
    "abi": [
        {
            "inputs": [
                {
                    "internalType": "address",
                    "name": "_compoundMonitorProxy",
                    "type": "address"
                },
                {
                    "internalType": "address",
                    "name": "_subscriptions",
                    "type": "address"
                },
                {
                    "internalType": "address",
                    "name": "_compoundFlashLoanTaker",
                    "type": "address"
                }
            ],
            "stateMutability": "nonpayable",
            "type": "constructor"
        },
        {
            "inputs": [],
            "name": "BOOST_GAS_COST",
            "outputs": [
                {
                    "internalType": "uint256",
                    "name": "",
                    "type": "uint256"
                }
            ],
            "stateMutability": "view",
            "type": "function"
        },
        {
            "inputs": [],
            "name": "BOT_REGISTRY_ADDRESS",
            "outputs": [
                {
                    "internalType": "address",
                    "name": "",
                    "type": "address"
                }
            ],
            "stateMutability": "view",
            "type": "function"
        },
        {
            "inputs": [],
            "name": "DEFISAVER_LOGGER",
            "outputs": [
                {
                    "internalType": "address",
                    "name": "",
                    "type": "address"
                }
            ],
            "stateMutability": "view",
            "type": "function"
        },
        {
            "inputs": [],
            "name": "GAS_TOKEN_INTERFACE_ADDRESS",
            "outputs": [
                {
                    "internalType": "address",
                    "name": "",
                    "type": "address"
                }
            ],
            "stateMutability": "view",
            "type": "function"
        },
        {
            "inputs": [],
            "name": "MAX_GAS_PRICE",
            "outputs": [
                {
                    "internalType": "uint256",
                    "name": "",
                    "type": "uint256"
                }
            ],
            "stateMutability": "view",
            "type": "function"
        },
        {
            "inputs": [],
            "name": "REPAY_GAS_COST",
            "outputs": [
                {
                    "internalType": "uint256",
                    "name": "",
                    "type": "uint256"
                }
            ],
            "stateMutability": "view",
            "type": "function"
        },
        {
            "inputs": [],
            "name": "admin",
            "outputs": [
                {
                    "internalType": "address",
                    "name": "",
                    "type": "address"
                }
            ],
            "stateMutability": "view",
            "type": "function"
        },
        {
            "inputs": [
                {
                    "components": [
                        {
                            "internalType": "address",
                            "name": "srcAddr",
                            "type": "address"
                        },
                        {
                            "internalType": "address",
                            "name": "destAddr",
                            "type": "address"
                        },
                        {
                            "internalType": "uint256",
                            "name": "srcAmount",
                            "type": "uint256"
                        },
                        {
                            "internalType": "uint256",
                            "name": "destAmount",
                            "type": "uint256"
                        },
                        {
                            "internalType": "uint256",
                            "name": "minPrice",
                            "type": "uint256"
                        },
                        {
                            "internalType": "uint256",
                            "name": "dfsFeeDivider",
                            "type": "uint256"
                        },
                        {
                            "internalType": "address",
                            "name": "user",
                            "type": "address"
                        },
                        {
                            "internalType": "address",
                            "name": "wrapper",
                            "type": "address"
                        },
                        {
                            "internalType": "bytes",
                            "name": "wrapperData",
                            "type": "bytes"
                        },
                        {
                            "components": [
                                {
                                    "internalType": "address",
                                    "name": "wrapper",
                                    "type": "address"
                                },
                                {
                                    "internalType": "address",
                                    "name": "exchangeAddr",
                                    "type": "address"
                                },
                                {
                                    "internalType": "address",
                                    "name": "allowanceTarget",
                                    "type": "address"
                                },
                                {
                                    "internalType": "uint256",
                                    "name": "price",
                                    "type": "uint256"
                                },
                                {
                                    "internalType": "uint256",
                                    "name": "protocolFee",
                                    "type": "uint256"
                                },
                                {
                                    "internalType": "bytes",
                                    "name": "callData",
                                    "type": "bytes"
                                }
                            ],
                            "internalType": "struct DFSExchangeData.OffchainData",
                            "name": "offchainData",
                            "type": "tuple"
                        }
                    ],
                    "internalType": "struct DFSExchangeData.ExchangeData",
                    "name": "_exData",
                    "type": "tuple"
                },
                {
                    "internalType": "address[2]",
                    "name": "_cAddresses",
                    "type": "address[2]"
                },
                {
                    "internalType": "address",
                    "name": "_user",
                    "type": "address"
                }
            ],
            "name": "boostFor",
            "outputs": [],
            "stateMutability": "payable",
            "type": "function"
        },
        {
            "inputs": [
                {
                    "internalType": "uint256",
                    "name": "_gasAmount",
                    "type": "uint256"
                }
            ],
            "name": "calcGasCost",
            "outputs": [
                {
                    "internalType": "uint256",
                    "name": "",
                    "type": "uint256"
                }
            ],
            "stateMutability": "view",
            "type": "function"
        },
        {
            "inputs": [
                {
                    "internalType": "uint256",
                    "name": "_gasCost",
                    "type": "uint256"
                }
            ],
            "name": "changeBoostGasCost",
            "outputs": [],
            "stateMutability": "nonpayable",
            "type": "function"
        },
        {
            "inputs": [
                {
                    "internalType": "uint256",
                    "name": "_gasCost",
                    "type": "uint256"
                }
            ],
            "name": "changeRepayGasCost",
            "outputs": [],
            "stateMutability": "nonpayable",
            "type": "function"
        },
        {
            "inputs": [
                {
                    "internalType": "enum CompoundMonitor.Method",
                    "name": "_method",
                    "type": "uint8"
                },
                {
                    "internalType": "address",
                    "name": "_user",
                    "type": "address"
                }
            ],
            "name": "checkPreconditions",
            "outputs": [
                {
                    "internalType": "bool",
                    "name": "",
                    "type": "bool"
                },
                {
                    "internalType": "uint256",
                    "name": "",
                    "type": "uint256"
                },
                {
                    "internalType": "string",
                    "name": "",
                    "type": "string"
                }
            ],
            "stateMutability": "view",
            "type": "function"
        },
        {
            "inputs": [],
            "name": "comp",
            "outputs": [
                {
                    "internalType": "contract ComptrollerInterface",
                    "name": "",
                    "type": "address"
                }
            ],
            "stateMutability": "view",
            "type": "function"
        },
        {
            "inputs": [],
            "name": "compoundFlashLoanTakerAddress",
            "outputs": [
                {
                    "internalType": "address",
                    "name": "",
                    "type": "address"
                }
            ],
            "stateMutability": "view",
            "type": "function"
        },
        {
            "inputs": [],
            "name": "compoundMonitorProxy",
            "outputs": [
                {
                    "internalType": "contract CompoundMonitorProxy",
                    "name": "",
                    "type": "address"
                }
            ],
            "stateMutability": "view",
            "type": "function"
        },
        {
            "inputs": [
                {
                    "internalType": "address",
                    "name": "_user",
                    "type": "address"
                }
            ],
            "name": "getSafetyRatio",
            "outputs": [
                {
                    "internalType": "uint256",
                    "name": "",
                    "type": "uint256"
                }
            ],
            "stateMutability": "view",
            "type": "function"
        },
        {
            "inputs": [],
            "name": "kill",
            "outputs": [],
            "stateMutability": "nonpayable",
            "type": "function"
        },
        {
            "inputs": [],
            "name": "logger",
            "outputs": [
                {
                    "internalType": "contract DefisaverLogger",
                    "name": "",
                    "type": "address"
                }
            ],
            "stateMutability": "view",
            "type": "function"
        },
        {
            "inputs": [],
            "name": "owner",
            "outputs": [
                {
                    "internalType": "address",
                    "name": "",
                    "type": "address"
                }
            ],
            "stateMutability": "view",
            "type": "function"
        },
        {
            "inputs": [
                {
                    "internalType": "enum CompoundMonitor.Method",
                    "name": "_method",
                    "type": "uint8"
                },
                {
                    "internalType": "address",
                    "name": "_user",
                    "type": "address"
                }
            ],
            "name": "ratioGoodAfter",
            "outputs": [
                {
                    "internalType": "bool",
                    "name": "",
                    "type": "bool"
                },
                {
                    "internalType": "uint256",
                    "name": "",
                    "type": "uint256"
                },
                {
                    "internalType": "string",
                    "name": "",
                    "type": "string"
                }
            ],
            "stateMutability": "view",
            "type": "function"
        },
        {
            "inputs": [
                {
                    "components": [
                        {
                            "internalType": "address",
                            "name": "srcAddr",
                            "type": "address"
                        },
                        {
                            "internalType": "address",
                            "name": "destAddr",
                            "type": "address"
                        },
                        {
                            "internalType": "uint256",
                            "name": "srcAmount",
                            "type": "uint256"
                        },
                        {
                            "internalType": "uint256",
                            "name": "destAmount",
                            "type": "uint256"
                        },
                        {
                            "internalType": "uint256",
                            "name": "minPrice",
                            "type": "uint256"
                        },
                        {
                            "internalType": "uint256",
                            "name": "dfsFeeDivider",
                            "type": "uint256"
                        },
                        {
                            "internalType": "address",
                            "name": "user",
                            "type": "address"
                        },
                        {
                            "internalType": "address",
                            "name": "wrapper",
                            "type": "address"
                        },
                        {
                            "internalType": "bytes",
                            "name": "wrapperData",
                            "type": "bytes"
                        },
                        {
                            "components": [
                                {
                                    "internalType": "address",
                                    "name": "wrapper",
                                    "type": "address"
                                },
                                {
                                    "internalType": "address",
                                    "name": "exchangeAddr",
                                    "type": "address"
                                },
                                {
                                    "internalType": "address",
                                    "name": "allowanceTarget",
                                    "type": "address"
                                },
                                {
                                    "internalType": "uint256",
                                    "name": "price",
                                    "type": "uint256"
                                },
                                {
                                    "internalType": "uint256",
                                    "name": "protocolFee",
                                    "type": "uint256"
                                },
                                {
                                    "internalType": "bytes",
                                    "name": "callData",
                                    "type": "bytes"
                                }
                            ],
                            "internalType": "struct DFSExchangeData.OffchainData",
                            "name": "offchainData",
                            "type": "tuple"
                        }
                    ],
                    "internalType": "struct DFSExchangeData.ExchangeData",
                    "name": "_exData",
                    "type": "tuple"
                },
                {
                    "internalType": "address[2]",
                    "name": "_cAddresses",
                    "type": "address[2]"
                },
                {
                    "internalType": "address",
                    "name": "_user",
                    "type": "address"
                }
            ],
            "name": "repayFor",
            "outputs": [],
            "stateMutability": "payable",
            "type": "function"
        },
        {
            "inputs": [
                {
                    "internalType": "address",
                    "name": "_admin",
                    "type": "address"
                }
            ],
            "name": "setAdminByAdmin",
            "outputs": [],
            "stateMutability": "nonpayable",
            "type": "function"
        },
        {
            "inputs": [
                {
                    "internalType": "address",
                    "name": "_admin",
                    "type": "address"
                }
            ],
            "name": "setAdminByOwner",
            "outputs": [],
            "stateMutability": "nonpayable",
            "type": "function"
        },
        {
            "inputs": [
                {
                    "internalType": "address",
                    "name": "_owner",
                    "type": "address"
                }
            ],
            "name": "setOwnerByAdmin",
            "outputs": [],
            "stateMutability": "nonpayable",
            "type": "function"
        },
        {
            "inputs": [],
            "name": "subscriptionsContract",
            "outputs": [
                {
                    "internalType": "contract CompoundSubscriptions",
                    "name": "",
                    "type": "address"
                }
            ],
            "stateMutability": "view",
            "type": "function"
        },
        {
            "inputs": [
                {
                    "internalType": "address",
                    "name": "_token",
                    "type": "address"
                },
                {
                    "internalType": "uint256",
                    "name": "_amount",
                    "type": "uint256"
                }
            ],
            "name": "withdrawStuckFunds",
            "outputs": [],
            "stateMutability": "nonpayable",
            "type": "function"
        }
    ],
    "bytecode": "608060405262124f806002819055600355600780546001600160a01b031916735c55b921f590a89c1ebe84df170e655a82b621261790553480156200004357600080fd5b50604051620023f2380380620023f28339810160408190526200006691620000e6565b600080546001600160a01b031990811673bc841b0de0b93205e912cfbbd1d0c160a1ec6f00179091556001805482167325efa336886c74ea8e282ac466bdcd0199f85bb9179055600480546001600160a01b0395861690831617905560058054938516938216939093179092556006805491909316911617905562000152565b600080600060608486031215620000fb578283fd5b8351620001088162000139565b60208501519093506200011b8162000139565b60408501519092506200012e8162000139565b809150509250925092565b6001600160a01b03811681146200014f57600080fd5b50565b61229080620001626000396000f3fe6080604052600436106101815760003560e01c8063696a2ac2116100d1578063bfc361721161008a578063e3bbb4f111610064578063e3bbb4f1146103f2578063ec23ef2714610407578063f24ccbfe1461041c578063f851a4401461043157610181565b8063bfc3617214610392578063d98bb5b1146103b2578063deca5f88146103d257610181565b8063696a2ac2146103025780636998c9e51461031557806379521f02146103285780638da5cb5b1461033d578063a7304bf714610352578063a8c903231461037257610181565b806336fc603f1161013e57806341c0e1b51161011857806341c0e1b5146102895780634d3f199e1461029e578063526d6461146102be578063553e33ca146102d357610181565b806336fc603f1461023f57806339df1878146102545780633a1283221461026957610181565b8063109d0af81461018657806318bf60e1146101b15780631e48907b146101d357806329ad0f36146101f55780632a56f6021461020a57806332ac5cd21461022a575b600080fd5b34801561019257600080fd5b5061019b610446565b6040516101a89190611e7c565b60405180910390f35b3480156101bd57600080fd5b506101c661045e565b6040516101a891906121b8565b3480156101df57600080fd5b506101f36101ee3660046119e5565b610464565b005b34801561020157600080fd5b5061019b61049d565b34801561021657600080fd5b506101c6610225366004611d3b565b6104ac565b34801561023657600080fd5b5061019b6104de565b34801561024b57600080fd5b506101c66104f1565b34801561026057600080fd5b5061019b6104f7565b34801561027557600080fd5b506101f3610284366004611a24565b61050f565b34801561029557600080fd5b506101f36105a8565b3480156102aa57600080fd5b506101f36102b9366004611d3b565b6105cd565b3480156102ca57600080fd5b5061019b610614565b3480156102df57600080fd5b506102f36102ee366004611b47565b61062c565b6040516101a893929190611f92565b6101f3610310366004611c10565b610870565b6101f3610323366004611c10565b610ade565b34801561033457600080fd5b5061019b610d0f565b34801561034957600080fd5b5061019b610d1e565b34801561035e57600080fd5b506101f361036d3660046119e5565b610d2d565b34801561037e57600080fd5b506101f361038d366004611d3b565b610d66565b34801561039e57600080fd5b506102f36103ad366004611b47565b610da4565b3480156103be57600080fd5b506101c66103cd3660046119e5565b610ec3565b3480156103de57600080fd5b506101f36103ed3660046119e5565b611289565b3480156103fe57600080fd5b506101c66112b6565b34801561041357600080fd5b5061019b6112bf565b34801561042857600080fd5b5061019b6112ce565b34801561043d57600080fd5b5061019b6112dd565b733d9819210a31b4961b30ef54be2aed79b9c9cd3b81565b60035481565b6001546001600160a01b0316331461047b57600080fd5b600080546001600160a01b0319166001600160a01b0392909216919091179055565b6006546001600160a01b031681565b60008064ba43b740003a11156104c75764ba43b740006104c9565b3a5b90506104d581846112ec565b9150505b919050565b6eb3f879cb30fe243b4dfee438691c0481565b60025481565b735c55b921f590a89c1ebe84df170e655a82b6212681565b6000546001600160a01b0316331461052657600080fd5b73eeeeeeeeeeeeeeeeeeeeeeeeeeeeeeeeeeeeeeee6001600160a01b038316141561058a57600080546040516001600160a01b039091169183156108fc02918491818181858888f19350505050158015610584573d6000803e3d6000fd5b506105a4565b6000546105a4906001600160a01b03848116911683611316565b5050565b6000546001600160a01b031633146105bf57600080fd5b6000546001600160a01b0316ff5b6000546001600160a01b031633146105e457600080fd5b622dc6c0811061060f5760405162461bcd60e51b815260040161060690611fc6565b60405180910390fd5b600255565b73637726f8b08a7abe3ae3acab01a80e2d8ddef77b81565b600554604051632e4aba1f60e21b8152600091829160609183916001600160a01b039091169063b92ae87c90610666908890600401611e7c565b60206040518083038186803b15801561067e57600080fd5b505afa158015610692573d6000803e3d6000fd5b505050506040513d601f19601f820116820180604052508101906106b69190611afa565b90506106c0611823565b60055460405163335d71f560e21b81526001600160a01b039091169063cd75c7d4906106f0908990600401611e7c565b60c06040518083038186803b15801561070857600080fd5b505afa15801561071c573d6000803e3d6000fd5b505050506040513d601f19601f820116820180604052508101906107409190611b82565b90508161077e576000806040518060400160405280600e81526020016d155cd95c881b9bdd081cdd58995960921b8152509450945094505050610869565b600087600181111561078c57fe5b14801561079b57508060a00151155b156107da5760008060405180604001604052806011815260200170109bdbdcdd081b9bdd08195b98589b1959607a1b8152509450945094505050610869565b60006107e587610ec3565b905060018860018111156107f557fe5b141561082657602091820151604080519384019052600083526001600160801b031681109550935091506108699050565b600088600181111561083457fe5b141561086557604091820151825160208101909352600083526001600160801b031681119550935091506108699050565b5050505b9250925092565b6040516320eb73ed60e11b815273637726f8b08a7abe3ae3acab01a80e2d8ddef77b906341d6e7da906108a7903390600401611e7c565b60206040518083038186803b1580156108bf57600080fd5b505afa1580156108d3573d6000803e3d6000fd5b505050506040513d601f19601f820116820180604052508101906108f79190611afa565b6109135760405162461bcd60e51b81526004016106069061206b565b600080606061092360018561062c565b9194509250905080836109495760405162461bcd60e51b81526004016106069190611fb3565b5060006109576002546104ac565b6004546006546040519293506001600160a01b0391821692638a0e833f9234928a9291169061098e908d908d9089906024016120db565b60408051601f198184030181529181526020820180516001600160e01b0316632ce6f7c360e01b1790525160e086901b6001600160e01b03191681526109d993929190600401611e90565b6000604051808303818588803b1580156109f257600080fd5b505af1158015610a06573d6000803e3d6000fd5b5050505050600080610a19600188610da4565b955090925090508382610a3f5760405162461bcd60e51b81526004016106069190611fb3565b50610a48611371565b6007546040516001600160a01b039091169063d061ce509030908a90610a74908a9087906020016121c1565b6040516020818303038152906040526040518463ffffffff1660e01b8152600401610aa193929190611ec5565b600060405180830381600087803b158015610abb57600080fd5b505af1158015610acf573d6000803e3d6000fd5b50505050505050505050505050565b6040516320eb73ed60e11b815273637726f8b08a7abe3ae3acab01a80e2d8ddef77b906341d6e7da90610b15903390600401611e7c565b60206040518083038186803b158015610b2d57600080fd5b505afa158015610b41573d6000803e3d6000fd5b505050506040513d601f19601f82011682018060405250810190610b659190611afa565b610b815760405162461bcd60e51b81526004016106069061206b565b6060600080610b9160008561062c565b945090925090508282610bb75760405162461bcd60e51b81526004016106069190611fb3565b506000610bc56003546104ac565b6004546006546040519293506001600160a01b0391821692638a0e833f9234928a92911690610bfc908d908d9089906024016120db565b60408051601f198184030181529181526020820180516001600160e01b031663c8a6b04960e01b1790525160e086901b6001600160e01b0319168152610c4793929190600401611e90565b6000604051808303818588803b158015610c6057600080fd5b505af1158015610c74573d6000803e3d6000fd5b5050505050600080610c87600088610da4565b975090925090508582610cad5760405162461bcd60e51b81526004016106069190611fb3565b50610cb6611371565b6007546040516001600160a01b039091169063d061ce509030908a90610ce290899087906020016121c1565b6040516020818303038152906040526040518463ffffffff1660e01b8152600401610aa193929190611f1f565b6005546001600160a01b031681565b6000546001600160a01b031681565b6001546001600160a01b03163314610d4457600080fd5b600180546001600160a01b0319166001600160a01b0392909216919091179055565b6000546001600160a01b03163314610d7d57600080fd5b622dc6c08110610d9f5760405162461bcd60e51b815260040161060690611ffd565b600355565b6000806060610db1611823565b60055460405163335d71f560e21b81526001600160a01b039091169063cd75c7d490610de1908890600401611e7c565b60c06040518083038186803b158015610df957600080fd5b505afa158015610e0d573d6000803e3d6000fd5b505050506040513d601f19601f82011682018060405250810190610e319190611b82565b90506000610e3e86610ec3565b90506001876001811115610e4e57fe5b1415610e7d57604091820151825160208101909352600083526001600160801b03168110945092509050610869565b6000876001811115610e8b57fe5b1415610eba57602091820151604080519384019052600083526001600160801b03168111945092509050610869565b50509250925092565b604051632aff3bff60e21b8152600090606090733d9819210a31b4961b30ef54be2aed79b9c9cd3b9063abfceffc90610f00908690600401611e7c565b60006040518083038186803b158015610f1857600080fd5b505afa158015610f2c573d6000803e3d6000fd5b505050506040513d6000823e601f3d908101601f19168201604052610f549190810190611a4f565b90506000733d9819210a31b4961b30ef54be2aed79b9c9cd3b6001600160a01b0316637dc0d1d06040518163ffffffff1660e01b815260040160206040518083038186803b158015610fa557600080fd5b505afa158015610fb9573d6000803e3d6000fd5b505050506040513d601f19601f82011682018060405250810190610fdd9190611a08565b905060008060005b8451811015611240576000858281518110610ffc57fe5b602002602001015190506000806000836001600160a01b031663c37f68e28c6040518263ffffffff1660e01b81526004016110379190611e7c565b60806040518083038186803b15801561104f57600080fd5b505afa158015611063573d6000803e3d6000fd5b505050506040513d601f19601f820116820180604052508101906110879190611d6b565b93509350935050611096611858565b831515806110a357508215155b156111315760408051602081019182905263fc57d4df60e01b909152806001600160a01b038b1663fc57d4df6110dc8960248501611e7c565b60206040518083038186803b1580156110f457600080fd5b505afa158015611108573d6000803e3d6000fd5b505050506040513d601f19601f8201168201806040525081019061112c9190611d53565b905290505b831561121a57604051638e8f294b60e01b8152600090733d9819210a31b4961b30ef54be2aed79b9c9cd3b90638e8f294b90611171908990600401611e7c565b604080518083038186803b15801561118857600080fd5b505afa15801561119c573d6000803e3d6000fd5b505050506040513d601f19601f820116820180604052508101906111c09190611b16565b9150506111cb611858565b5060408051602081019091528181526111e2611858565b5060408051602081019091528481526111f9611858565b6112048383876113a7565b91505061121281898e611400565b9c5050505050505b821561122f5761122b818489611400565b9750505b505060019093019250610fe5915050565b5080611254576000199450505050506104d9565b60008282670de0b6b3a7640000028161126957fe5b04905061127e670de0b6b3a76400008261144d565b979650505050505050565b6000546001600160a01b031633146112a057600080fd5b6001546001600160a01b031615610d4457600080fd5b64ba43b7400081565b6004546001600160a01b031681565b6007546001600160a01b031681565b6001546001600160a01b031681565b60008115806113075750508082028282828161130457fe5b04145b61131057600080fd5b92915050565b61136c8363a9059cbb60e01b8484604051602401611335929190611f79565b60408051601f198184030181529190526020810180516001600160e01b03166001600160e01b03199093169290921790915261147d565b505050565b47156113a55760405133904780156108fc02916000818181858888f193505050501580156113a3573d6000803e3d6000fd5b505b565b60006113b1611858565b60006113bb611858565b6113c5878761150c565b909250905060008260038111156113d857fe5b146113e75790925090506113f8565b6113f1818661150c565b9350935050505b935093915050565b600080600061140d611858565b61141787876115f8565b9092509050600082600381111561142a57fe5b1461143b57509150600090506113f8565b6113f161144782611660565b8661166f565b60008161146e61146585670de0b6b3a76400006112ec565b60028504611695565b8161147557fe5b049392505050565b60606114d2826040518060400160405280602081526020017f5361666545524332303a206c6f772d6c6576656c2063616c6c206661696c6564815250856001600160a01b03166116a59092919063ffffffff16565b80519091501561136c57808060200190518101906114f09190611afa565b61136c5760405162461bcd60e51b815260040161060690612091565b6000611516611858565b60008061152b866000015186600001516116bc565b9092509050600082600381111561153e57fe5b1461155d575060408051602081019091526000815290925090506115f1565b6000806115726706f05b59d3b200008461166f565b9092509050600082600381111561158557fe5b146115a857816040518060200160405280600081525095509550505050506115f1565b6000806115bd83670de0b6b3a76400006116fb565b909250905060008260038111156115d057fe5b146115d757fe5b604080516020810190915290815260009750955050505050505b9250929050565b6000611602611858565b6000806116138660000151866116bc565b9092509050600082600381111561162657fe5b14611645575060408051602081019091526000815290925090506115f1565b60408051602081019091529081526000969095509350505050565b51670de0b6b3a7640000900490565b600080838301848110611687576000925090506115f1565b6002600092509250506115f1565b8082018281101561131057600080fd5b60606116b48484600085611726565b949350505050565b600080836116cf575060009050806115f1565b838302838582816116dc57fe5b04146116f0576002600092509250506115f1565b6000925090506115f1565b6000808261170f57506001905060006115f1565b600083858161171a57fe5b04915091509250929050565b6060611731856117ea565b61174d5760405162461bcd60e51b815260040161060690612034565b60006060866001600160a01b0316858760405161176a9190611e60565b60006040518083038185875af1925050503d80600081146117a7576040519150601f19603f3d011682016040523d82523d6000602084013e6117ac565b606091505b509150915081156117c05791506116b49050565b8051156117d05780518082602001fd5b8360405162461bcd60e51b81526004016106069190611fb3565b6000813f7fc5d2460186f7233c927e7db2dcc703c0e500b653ca82273b7bfad8045d85a4708181148015906116b4575050151592915050565b6040805160c081018252600080825260208201819052918101829052606081018290526080810182905260a081019190915290565b6040518060200160405280600081525090565b803561131081612222565b805161131081612222565b600082601f830112611891578081fd5b61189b60406121cf565b90508082846040850111156118af57600080fd5b60005b60028110156118db5781356118c681612222565b835260209283019291909101906001016118b2565b50505092915050565b600082601f8301126118f4578081fd5b813567ffffffffffffffff81111561190a578182fd5b61191d601f8201601f19166020016121cf565b915080825283602082850101111561193457600080fd5b8060208401602084013760009082016020015292915050565b600060c0828403121561195e578081fd5b61196860c06121cf565b9050813561197581612222565b8152602082013561198581612222565b6020820152604082013561199881612222565b80604083015250606082013560608201526080820135608082015260a082013567ffffffffffffffff8111156119cd57600080fd5b6119d9848285016118e4565b60a08301525092915050565b6000602082840312156119f6578081fd5b8135611a0181612222565b9392505050565b600060208284031215611a19578081fd5b8151611a0181612222565b60008060408385031215611a36578081fd5b8235611a4181612222565b946020939093013593505050565b60006020808385031215611a61578182fd5b825167ffffffffffffffff80821115611a78578384fd5b818501915085601f830112611a8b578384fd5b815181811115611a99578485fd5b8381029150611aa98483016121cf565b8181528481019084860184860187018a1015611ac3578788fd5b8795505b83861015611aed57611ad98a82611876565b835260019590950194918601918601611ac7565b5098975050505050505050565b600060208284031215611b0b578081fd5b8151611a0181612237565b60008060408385031215611b28578182fd5b82518015158114611b37578283fd5b6020939093015192949293505050565b60008060408385031215611b59578182fd5b823560028110611b67578283fd5b91506020830135611b7781612222565b809150509250929050565b600060c08284031215611b93578081fd5b611b9d60c06121cf565b8251611ba881612222565b81526020830151611bb881612245565b60208201526040830151611bcb81612245565b60408201526060830151611bde81612245565b60608201526080830151611bf181612245565b608082015260a0830151611c0481612237565b60a08201529392505050565b600080600060808486031215611c24578081fd5b833567ffffffffffffffff80821115611c3b578283fd5b8186019150610140808389031215611c51578384fd5b611c5a816121cf565b9050611c66888461186b565b8152611c75886020850161186b565b602082015260408301356040820152606083013560608201526080830135608082015260a083013560a0820152611caf8860c0850161186b565b60c0820152611cc18860e0850161186b565b60e08201526101008084013583811115611cd9578586fd5b611ce58a8287016118e4565b8284015250506101208084013583811115611cfe578586fd5b611d0a8a82870161194d565b828401525050809550505050611d238560208601611881565b9150611d32856060860161186b565b90509250925092565b600060208284031215611d4c578081fd5b5035919050565b600060208284031215611d64578081fd5b5051919050565b60008060008060808587031215611d80578182fd5b505082516020840151604085015160609095015191969095509092509050565b6001600160a01b03169052565b8060005b6002811015611dd95781516001600160a01b0316845260209384019390910190600101611db1565b50505050565b60008151808452611df78160208601602086016121f6565b601f01601f19169290920160200192915050565b600060018060a01b0380835116845280602084015116602085015280604084015116604085015250606082015160608401526080820151608084015260a082015160c060a08501526116b460c0850182611ddf565b60008251611e728184602087016121f6565b9190910192915050565b6001600160a01b0391909116815260200190565b6001600160a01b03848116825283166020820152606060408201819052600090611ebc90830184611ddf565b95945050505050565b6001600160a01b03848116825283166020820152608060408201819052601690820152754175746f6d61746963436f6d706f756e64526570617960501b60a082015260c060608201819052600090611ebc90830184611ddf565b6001600160a01b0384811682528316602082015260806040820181905260169082015275105d5d1bdb585d1a58d0dbdb5c1bdd5b99109bdbdcdd60521b60a082015260c060608201819052600090611ebc90830184611ddf565b6001600160a01b03929092168252602082015260400190565b6000841515825283602083015260606040830152611ebc6060830184611ddf565b600060208252611a016020830184611ddf565b60208082526019908201527f52657061792067617320636f7374206f766572206c696d697400000000000000604082015260600190565b60208082526019908201527f426f6f73742067617320636f7374206f766572206c696d697400000000000000604082015260600190565b6020808252601d908201527f416464726573733a2063616c6c20746f206e6f6e2d636f6e7472616374000000604082015260600190565b6020808252600c908201526b139bdd08185d5d1a08189bdd60a21b604082015260600190565b6020808252602a908201527f5361666545524332303a204552433230206f7065726174696f6e20646964206e6040820152691bdd081cdd58d8d9595960b21b606082015260800190565b6000608082526120ef608083018651611da0565b602085015161210160a0840182611da0565b50604085015160c0830152606085015160e08301526080850151610100818185015260a08701519150610120828186015260c0880151925061014061214881870185611da0565b60e0890151935061215d610160870185611da0565b82890151935080610180870152506121796101c0860184611ddf565b90880151858203607f19016101a087015290925090506121998282611e0b565b925050506121aa6020830185611dad565b826060830152949350505050565b90815260200190565b918252602082015260400190565b60405181810167ffffffffffffffff811182821017156121ee57600080fd5b604052919050565b60005b838110156122115781810151838201526020016121f9565b83811115611dd95750506000910152565b6001600160a01b03811681146113a357600080fd5b80151581146113a357600080fd5b6001600160801b03811681146113a357600080fdfea26469706673582212205dce13a4da1e0fc86e9e1896cd53c5fa506c63d80b0d720f82bb693b3e9188f764736f6c634300060c0033",
    "sourcePath": "/Users/nenadpalinkasevic/Documents/code/defisaver-contracts/contracts/compound/automatic/CompoundMonitor.sol",
    "compiler": {
        "name": "solc",
        "version": "0.6.12+commit.27d51765"
    },
    "functionHashes": {
        "BOOST_GAS_COST()": "18bf60e1",
        "BOT_REGISTRY_ADDRESS()": "526d6461",
        "DEFISAVER_LOGGER()": "39df1878",
        "GAS_TOKEN_INTERFACE_ADDRESS()": "32ac5cd2",
        "MAX_GAS_PRICE()": "e3bbb4f1",
        "REPAY_GAS_COST()": "36fc603f",
        "admin()": "f851a440",
        "boostFor((address,address,uint256,uint256,uint256,uint256,address,address,bytes,(address,address,address,uint256,uint256,bytes)),address[2],address)": "6998c9e5",
        "calcGasCost(uint256)": "2a56f602",
        "changeBoostGasCost(uint256)": "a8c90323",
        "changeRepayGasCost(uint256)": "4d3f199e",
        "checkPreconditions(uint8,address)": "553e33ca",
        "comp()": "109d0af8",
        "compoundFlashLoanTakerAddress()": "29ad0f36",
        "compoundMonitorProxy()": "ec23ef27",
        "getSafetyRatio(address)": "d98bb5b1",
        "kill()": "41c0e1b5",
        "logger()": "f24ccbfe",
        "owner()": "8da5cb5b",
        "ratioGoodAfter(uint8,address)": "bfc36172",
        "repayFor((address,address,uint256,uint256,uint256,uint256,address,address,bytes,(address,address,address,uint256,uint256,bytes)),address[2],address)": "696a2ac2",
        "setAdminByAdmin(address)": "a7304bf7",
        "setAdminByOwner(address)": "deca5f88",
        "setOwnerByAdmin(address)": "1e48907b",
        "subscriptionsContract()": "79521f02",
        "withdrawStuckFunds(address,uint256)": "3a128322"
    },
    "gasEstimates": {
        "creation": {
            "codeDepositCost": "1769600",
            "executionCost": "infinite",
            "totalCost": "infinite"
        },
        "external": {
            "BOOST_GAS_COST()": "1074",
            "BOT_REGISTRY_ADDRESS()": "341",
            "DEFISAVER_LOGGER()": "320",
            "GAS_TOKEN_INTERFACE_ADDRESS()": "386",
            "MAX_GAS_PRICE()": "272",
            "REPAY_GAS_COST()": "1074",
            "admin()": "1180",
            "boostFor((address,address,uint256,uint256,uint256,uint256,address,address,bytes,(address,address,address,uint256,uint256,bytes)),address[2],address)": "infinite",
            "calcGasCost(uint256)": "606",
            "changeBoostGasCost(uint256)": "21220",
            "changeRepayGasCost(uint256)": "21154",
            "checkPreconditions(uint8,address)": "infinite",
            "comp()": "276",
            "compoundFlashLoanTakerAddress()": "1160",
            "compoundMonitorProxy()": "1136",
            "getSafetyRatio(address)": "infinite",
            "kill()": "31841",
            "logger()": "1158",
            "owner()": "1159",
            "ratioGoodAfter(uint8,address)": "infinite",
            "repayFor((address,address,uint256,uint256,uint256,uint256,address,address,bytes,(address,address,address,uint256,uint256,bytes)),address[2],address)": "infinite",
            "setAdminByAdmin(address)": "22117",
            "setAdminByOwner(address)": "22933",
            "setOwnerByAdmin(address)": "22074",
            "subscriptionsContract()": "1137",
            "withdrawStuckFunds(address,uint256)": "infinite"
        },
        "internal": {
            "returnEth()": "infinite"
        }
    }
}