{
  "contractName": "ActionLogger",
  "abi": [
    {
      "anonymous": false,
      "inputs": [
        {
          "indexed": true,
          "name": "_type",
          "type": "string"
        },
        {
          "indexed": true,
          "name": "owner",
          "type": "address"
        },
        {
          "indexed": false,
          "name": "_first",
          "type": "uint256"
        },
        {
          "indexed": false,
          "name": "_second",
          "type": "uint256"
        }
      ],
      "name": "Log",
      "type": "event"
    },
    {
      "constant": false,
      "inputs": [
        {
          "name": "_type",
          "type": "string"
        },
        {
          "name": "_owner",
          "type": "address"
        },
        {
          "name": "_first",
          "type": "uint256"
        },
        {
          "name": "_second",
          "type": "uint256"
        }
      ],
      "name": "logEvent",
      "outputs": [],
      "payable": false,
      "stateMutability": "nonpayable",
      "type": "function"
    }
  ],
  "bytecode": "0x608060405234801561001057600080fd5b5061022d806100206000396000f3fe608060405260043610610041576000357c0100000000000000000000000000000000000000000000000000000000900463ffffffff1680632ddab6d714610046575b600080fd5b34801561005257600080fd5b506101406004803603608081101561006957600080fd5b810190808035906020019064010000000081111561008657600080fd5b82018360208201111561009857600080fd5b803590602001918460018302840111640100000000831117156100ba57600080fd5b91908080601f016020809104026020016040519081016040528093929190818152602001838380828437600081840152601f19601f820116905080830192505050505050509192919290803573ffffffffffffffffffffffffffffffffffffffff1690602001909291908035906020019092919080359060200190929190505050610142565b005b8273ffffffffffffffffffffffffffffffffffffffff16846040518082805190602001908083835b60208310151561018f578051825260208201915060208101905060208303925061016a565b6001836020036101000a03801982511681845116808217855250505050505090500191505060405180910390207fa2455ec11f160d321516c021994881e7678c0b5870cd7aae50107098770e2c288484604051808381526020018281526020019250505060405180910390a35050505056fea165627a7a72305820b108e40e671de29336296fa3d18db4766d4e0460256ab939c2ce13551952be260029",
  "source": "pragma solidity ^0.5.0;\n\ncontract ActionLogger {\n    event Log(string indexed _type, address indexed owner, uint _first, uint _second);\n\n    function logEvent(string memory _type, address _owner, uint _first, uint _second) public {\n        emit Log(_type, _owner, _first, _second);\n    }\n}",
  "sourcePath": "/Users/nenadpalinkasevic/Desktop/blockchain/cdpsaver-contracts/contracts/ActionLogger.sol",
  "compiler": {
    "name": "solc",
    "version": "0.5.0+commit.1d4f565a.Emscripten.clang"
  },
  "schemaVersion": "3.0.0",
  "updatedAt": "2019-06-28T08:20:24.927Z",
  "devdoc": {
    "methods": {}
  },
  "userdoc": {
    "methods": {}
  }
}