{
  "contractName": "CompoundMarginTrade",
  "abi": [
    {
      "constant": true,
      "inputs": [],
      "name": "CDAI_ADDRESS",
      "outputs": [
        {
          "name": "",
          "type": "address"
        }
      ],
      "payable": false,
      "stateMutability": "view",
      "type": "function"
    },
    {
      "constant": true,
      "inputs": [],
      "name": "DAI_ADDRESS",
      "outputs": [
        {
          "name": "",
          "type": "address"
        }
      ],
      "payable": false,
      "stateMutability": "view",
      "type": "function"
    },
    {
      "constant": true,
      "inputs": [],
      "name": "WALLET_ID",
      "outputs": [
        {
          "name": "",
          "type": "address"
        }
      ],
      "payable": false,
      "stateMutability": "view",
      "type": "function"
    },
    {
      "constant": false,
      "inputs": [
        {
          "name": "_baseToken",
          "type": "address"
        },
        {
          "name": "_cBaseToken",
          "type": "address"
        },
        {
          "name": "_collateralAmount",
          "type": "uint256"
        },
        {
          "name": "_amountToBorrow",
          "type": "uint256"
        }
      ],
      "name": "long",
      "outputs": [],
      "payable": false,
      "stateMutability": "nonpayable",
      "type": "function"
    },
    {
      "constant": false,
      "inputs": [],
      "name": "short",
      "outputs": [],
      "payable": false,
      "stateMutability": "nonpayable",
      "type": "function"
    }
  ],
  "bytecode": "0x608060405234801561001057600080fd5b50610a32806100206000396000f3fe60806040526004361061006d576000357c0100000000000000000000000000000000000000000000000000000000900463ffffffff1680630531b2ad146100725780632a4c0a1a146100c957806338bea4cb14610120578063adbd2a3914610137578063d3661fa5146101bc575b600080fd5b34801561007e57600080fd5b50610087610213565b604051808273ffffffffffffffffffffffffffffffffffffffff1673ffffffffffffffffffffffffffffffffffffffff16815260200191505060405180910390f35b3480156100d557600080fd5b506100de61022b565b604051808273ffffffffffffffffffffffffffffffffffffffff1673ffffffffffffffffffffffffffffffffffffffff16815260200191505060405180910390f35b34801561012c57600080fd5b50610135610243565b005b34801561014357600080fd5b506101ba6004803603608081101561015a57600080fd5b81019080803573ffffffffffffffffffffffffffffffffffffffff169060200190929190803573ffffffffffffffffffffffffffffffffffffffff1690602001909291908035906020019092919080359060200190929190505050610245565b005b3480156101c857600080fd5b506101d1610533565b604051808273ffffffffffffffffffffffffffffffffffffffff1673ffffffffffffffffffffffffffffffffffffffff16815260200191505060405180910390f35b73b6b09fbffba6a5c4631e5f7b2e3ee183ac259c0d81565b73c4375b7de8af5a38a93548eb8453a498222c4ff281565b565b6000839050600073b6b09fbffba6a5c4631e5f7b2e3ee183ac259c0d90508173ffffffffffffffffffffffffffffffffffffffff166323b872dd3330876040518463ffffffff167c0100000000000000000000000000000000000000000000000000000000028152600401808473ffffffffffffffffffffffffffffffffffffffff1673ffffffffffffffffffffffffffffffffffffffff1681526020018373ffffffffffffffffffffffffffffffffffffffff1673ffffffffffffffffffffffffffffffffffffffff1681526020018281526020019350505050602060405180830381600087803b15801561033a57600080fd5b505af115801561034e573d6000803e3d6000fd5b505050506040513d602081101561036457600080fd5b81019080805190602001909291905050505060008173ffffffffffffffffffffffffffffffffffffffff1663c5ebeaec856040518263ffffffff167c010000000000000000000000000000000000000000000000000000000002815260040180828152602001915050602060405180830381600087803b1580156103e757600080fd5b505af11580156103fb573d6000803e3d6000fd5b505050506040513d602081101561041157600080fd5b810190808051906020019092919050505014151561042e57600080fd5b600061047073c4375b7de8af5a38a93548eb8453a498222c4ff288867fffffffffffffffffffffffffffffffffffffffffffffffffffffffffffffffff61054b565b905060008373ffffffffffffffffffffffffffffffffffffffff1663a0712d68836040518263ffffffff167c010000000000000000000000000000000000000000000000000000000002815260040180828152602001915050602060405180830381600087803b1580156104e357600080fd5b505af11580156104f7573d6000803e3d6000fd5b505050506040513d602081101561050d57600080fd5b810190808051906020019092919050505014151561052a57600080fd5b50505050505050565b7354b44c6b18fc0b4a1010b21d524c338d1f8065f681565b60008073692f391bcc85cefce8c237c01e1f636bbd70ea4d905060008173ffffffffffffffffffffffffffffffffffffffff1663809a9e558888886040518463ffffffff167c0100000000000000000000000000000000000000000000000000000000028152600401808473ffffffffffffffffffffffffffffffffffffffff1673ffffffffffffffffffffffffffffffffffffffff1681526020018373ffffffffffffffffffffffffffffffffffffffff1673ffffffffffffffffffffffffffffffffffffffff1681526020018281526020019350505050604080518083038186803b15801561063b57600080fd5b505afa15801561064f573d6000803e3d6000fd5b505050506040513d604081101561066557600080fd5b8101908080519060200190929190805190602001909291905050509050809150508673ffffffffffffffffffffffffffffffffffffffff1663095ea7b38360006040518363ffffffff167c0100000000000000000000000000000000000000000000000000000000028152600401808373ffffffffffffffffffffffffffffffffffffffff1673ffffffffffffffffffffffffffffffffffffffff16815260200182815260200192505050602060405180830381600087803b15801561072a57600080fd5b505af115801561073e573d6000803e3d6000fd5b505050506040513d602081101561075457600080fd5b8101908080519060200190929190505050151561077057600080fd5b8673ffffffffffffffffffffffffffffffffffffffff1663095ea7b383876040518363ffffffff167c0100000000000000000000000000000000000000000000000000000000028152600401808373ffffffffffffffffffffffffffffffffffffffff1673ffffffffffffffffffffffffffffffffffffffff16815260200182815260200192505050602060405180830381600087803b15801561081357600080fd5b505af1158015610827573d6000803e3d6000fd5b505050506040513d602081101561083d57600080fd5b8101908080519060200190929190505050151561085957600080fd5b8173ffffffffffffffffffffffffffffffffffffffff1663cb3c28c78887893389877354b44c6b18fc0b4a1010b21d524c338d1f8065f66040518863ffffffff167c0100000000000000000000000000000000000000000000000000000000028152600401808873ffffffffffffffffffffffffffffffffffffffff1673ffffffffffffffffffffffffffffffffffffffff1681526020018781526020018673ffffffffffffffffffffffffffffffffffffffff1673ffffffffffffffffffffffffffffffffffffffff1681526020018573ffffffffffffffffffffffffffffffffffffffff1673ffffffffffffffffffffffffffffffffffffffff1681526020018481526020018381526020018273ffffffffffffffffffffffffffffffffffffffff1673ffffffffffffffffffffffffffffffffffffffff168152602001975050505050505050602060405180830381600087803b1580156109bc57600080fd5b505af11580156109d0573d6000803e3d6000fd5b505050506040513d60208110156109e657600080fd5b81019080805190602001909291905050509250829250505094935050505056fea165627a7a72305820cd44bcdfec02e6a77871f9ce8bd17616a3e9c7894723e35f2fdb8d17447046d50029",
  "source": "pragma solidity ^0.5.0;\n\nimport \"../interfaces/CTokenInterface.sol\";\nimport \"../interfaces/KyberNetworkProxyInterface.sol\";\n\ncontract CompoundMarginTrade {\n\n    address public constant CDAI_ADDRESS = 0xb6b09fBffBa6A5C4631e5F7B2e3Ee183aC259c0d;\n    address public constant DAI_ADDRESS = 0xC4375B7De8af5a38a93548eb8453a498222C4fF2;\n    address constant KYBER_INTERFACE = 0x692f391bCc85cefCe8C237C01e1f636BbD70EA4D;\n    address public constant WALLET_ID = 0x54b44C6B18fc0b4A1010B21d524c338D1f8065F6;\n\n\n    struct Position {\n        address _baseToken;\n        uint _borrowedAmount;\n        uint8 positionType; // 0 - long, 1 - short\n        bool opened;\n    }\n\n    mapping (address => mapping(uint => Position)) positions;\n\n    /// @notice Use Base token as collateral to borrow Dai, sell Dai for Base token\n    /// @dev User needs to approve _baseToken so this contract can pull it\n    function long(address _baseToken, address _cBaseToken, uint _collateralAmount, uint _amountToBorrow) public {\n        CTokenInterface cBaseContract = CTokenInterface(_cBaseToken);\n        CTokenInterface cDaiContract = CTokenInterface(CDAI_ADDRESS);\n\n        cBaseContract.transferFrom(msg.sender, address(this), _collateralAmount);\n\n        require(cDaiContract.borrow(_amountToBorrow) == 0);\n\n        uint exchangedAmount = exchangeToken(ERC20(DAI_ADDRESS), ERC20(_baseToken), _amountToBorrow, uint(-1));\n\n        require(cBaseContract.mint(exchangedAmount) == 0);\n\n    }\n\n    function short() public {\n\n    }\n\n     function exchangeToken(ERC20 _sourceToken, ERC20 _destToken, uint _sourceAmount, uint _maxAmount) internal returns (uint destAmount) {\n        KyberNetworkProxyInterface _kyberNetworkProxy = KyberNetworkProxyInterface(KYBER_INTERFACE);\n\n        uint minRate;\n        (, minRate) = _kyberNetworkProxy.getExpectedRate(_sourceToken, _destToken, _sourceAmount);\n\n        require(_sourceToken.approve(address(_kyberNetworkProxy), 0));\n        require(_sourceToken.approve(address(_kyberNetworkProxy), _sourceAmount));\n\n        destAmount = _kyberNetworkProxy.trade(\n            _sourceToken,\n            _sourceAmount,\n            _destToken,\n            msg.sender,\n            _maxAmount,\n            minRate,\n            WALLET_ID\n        );\n\n        return destAmount;\n    }\n}",
  "sourcePath": "/Users/nikolaklipa/Decenter/defisaver/cdpsaver-contracts/contracts/compound/CompoundMarginTrade.sol",
  "compiler": {
    "name": "solc",
    "version": "0.5.0+commit.1d4f565a.Emscripten.clang"
  },
  "schemaVersion": "3.0.9",
  "updatedAt": "2019-08-08T14:46:16.638Z",
  "devdoc": {
    "methods": {
      "long(address,address,uint256,uint256)": {
        "details": "User needs to approve _baseToken so this contract can pull it"
      }
    }
  },
  "userdoc": {
    "methods": {
      "long(address,address,uint256,uint256)": {
        "notice": "Use Base token as collateral to borrow Dai, sell Dai for Base token"
      }
    }
  }
}