{
  "contractName": "CompoundProxy",
  "abi": [
    {
      "constant": true,
      "inputs": [],
      "name": "WETH_ADDRESS",
      "outputs": [
        {
          "name": "",
          "type": "address"
        }
      ],
      "payable": false,
      "stateMutability": "view",
      "type": "function"
    },
    {
      "constant": true,
      "inputs": [],
      "name": "CDAI_ADDRESS",
      "outputs": [
        {
          "name": "",
          "type": "address"
        }
      ],
      "payable": false,
      "stateMutability": "view",
      "type": "function"
    },
    {
      "constant": true,
      "inputs": [],
      "name": "DAI_ADDRESS",
      "outputs": [
        {
          "name": "",
          "type": "address"
        }
      ],
      "payable": false,
      "stateMutability": "view",
      "type": "function"
    },
    {
      "constant": true,
      "inputs": [],
      "name": "STUPID_EXCHANGE",
      "outputs": [
        {
          "name": "",
          "type": "address"
        }
      ],
      "payable": false,
      "stateMutability": "view",
      "type": "function"
    },
    {
      "constant": true,
      "inputs": [],
      "name": "MKR_ADDRESS",
      "outputs": [
        {
          "name": "",
          "type": "address"
        }
      ],
      "payable": false,
      "stateMutability": "view",
      "type": "function"
    },
    {
      "constant": true,
      "inputs": [],
      "name": "LOGGER_ADDRESS",
      "outputs": [
        {
          "name": "",
          "type": "address"
        }
      ],
      "payable": false,
      "stateMutability": "view",
      "type": "function"
    },
    {
      "constant": true,
      "inputs": [],
      "name": "KYBER_WRAPPER",
      "outputs": [
        {
          "name": "",
          "type": "address"
        }
      ],
      "payable": false,
      "stateMutability": "view",
      "type": "function"
    },
    {
      "constant": true,
      "inputs": [],
      "name": "COMPOUND_DAI_ADDRESS",
      "outputs": [
        {
          "name": "",
          "type": "address"
        }
      ],
      "payable": false,
      "stateMutability": "view",
      "type": "function"
    },
    {
      "constant": true,
      "inputs": [],
      "name": "PETH_ADDRESS",
      "outputs": [
        {
          "name": "",
          "type": "address"
        }
      ],
      "payable": false,
      "stateMutability": "view",
      "type": "function"
    },
    {
      "constant": true,
      "inputs": [],
      "name": "KYBER_INTERFACE",
      "outputs": [
        {
          "name": "",
          "type": "address"
        }
      ],
      "payable": false,
      "stateMutability": "view",
      "type": "function"
    },
    {
      "constant": true,
      "inputs": [],
      "name": "ETHER_ADDRESS",
      "outputs": [
        {
          "name": "",
          "type": "address"
        }
      ],
      "payable": false,
      "stateMutability": "view",
      "type": "function"
    },
    {
      "constant": true,
      "inputs": [],
      "name": "WALLET_ID",
      "outputs": [
        {
          "name": "",
          "type": "address"
        }
      ],
      "payable": false,
      "stateMutability": "view",
      "type": "function"
    },
    {
      "constant": true,
      "inputs": [],
      "name": "TUB_ADDRESS",
      "outputs": [
        {
          "name": "",
          "type": "address"
        }
      ],
      "payable": false,
      "stateMutability": "view",
      "type": "function"
    },
    {
      "constant": false,
      "inputs": [
        {
          "name": "_cup",
          "type": "bytes32"
        },
        {
          "name": "_amount",
          "type": "uint256"
        }
      ],
      "name": "repayCDPDebt",
      "outputs": [],
      "payable": false,
      "stateMutability": "nonpayable",
      "type": "function"
    },
    {
      "constant": false,
      "inputs": [
        {
          "name": "_cup",
          "type": "bytes32"
        },
        {
          "name": "_amount",
          "type": "uint256"
        }
      ],
      "name": "cdpToCompound",
      "outputs": [],
      "payable": false,
      "stateMutability": "nonpayable",
      "type": "function"
    },
    {
      "constant": false,
      "inputs": [
        {
          "name": "_tub",
          "type": "address"
        },
        {
          "name": "_cup",
          "type": "bytes32"
        },
        {
          "name": "_daiRepay",
          "type": "uint256"
        }
      ],
      "name": "stabilityFeeInMkr",
      "outputs": [
        {
          "name": "",
          "type": "uint256"
        }
      ],
      "payable": false,
      "stateMutability": "nonpayable",
      "type": "function"
    }
  ],
  "bytecode": "0x608060405234801561001057600080fd5b5061296b806100206000396000f3fe6080604052600436106100e6576000357c0100000000000000000000000000000000000000000000000000000000900463ffffffff168063040141e5146100eb5780630531b2ad146101425780632a4c0a1a14610199578063502237d7146101f0578063825ffd921461024757806394bfbe741461029e578063b175afa1146102f5578063c16921b71461034c578063c387fd86146103a3578063c9fde2701461041c578063ce9bde1d14610473578063cf1d21c0146104ca578063d3661fa514610521578063f0d405e514610578578063f27eb599146105cf578063fbf4a01314610614575b600080fd5b3480156100f757600080fd5b50610100610659565b604051808273ffffffffffffffffffffffffffffffffffffffff1673ffffffffffffffffffffffffffffffffffffffff16815260200191505060405180910390f35b34801561014e57600080fd5b50610157610671565b604051808273ffffffffffffffffffffffffffffffffffffffff1673ffffffffffffffffffffffffffffffffffffffff16815260200191505060405180910390f35b3480156101a557600080fd5b506101ae610689565b604051808273ffffffffffffffffffffffffffffffffffffffff1673ffffffffffffffffffffffffffffffffffffffff16815260200191505060405180910390f35b3480156101fc57600080fd5b506102056106a1565b604051808273ffffffffffffffffffffffffffffffffffffffff1673ffffffffffffffffffffffffffffffffffffffff16815260200191505060405180910390f35b34801561025357600080fd5b5061025c6106b9565b604051808273ffffffffffffffffffffffffffffffffffffffff1673ffffffffffffffffffffffffffffffffffffffff16815260200191505060405180910390f35b3480156102aa57600080fd5b506102b36106d1565b604051808273ffffffffffffffffffffffffffffffffffffffff1673ffffffffffffffffffffffffffffffffffffffff16815260200191505060405180910390f35b34801561030157600080fd5b5061030a6106e9565b604051808273ffffffffffffffffffffffffffffffffffffffff1673ffffffffffffffffffffffffffffffffffffffff16815260200191505060405180910390f35b34801561035857600080fd5b50610361610701565b604051808273ffffffffffffffffffffffffffffffffffffffff1673ffffffffffffffffffffffffffffffffffffffff16815260200191505060405180910390f35b3480156103af57600080fd5b50610406600480360360608110156103c657600080fd5b81019080803573ffffffffffffffffffffffffffffffffffffffff1690602001909291908035906020019092919080359060200190929190505050610719565b6040518082815260200191505060405180910390f35b34801561042857600080fd5b506104316109ee565b604051808273ffffffffffffffffffffffffffffffffffffffff1673ffffffffffffffffffffffffffffffffffffffff16815260200191505060405180910390f35b34801561047f57600080fd5b50610488610a06565b604051808273ffffffffffffffffffffffffffffffffffffffff1673ffffffffffffffffffffffffffffffffffffffff16815260200191505060405180910390f35b3480156104d657600080fd5b506104df610a1e565b604051808273ffffffffffffffffffffffffffffffffffffffff1673ffffffffffffffffffffffffffffffffffffffff16815260200191505060405180910390f35b34801561052d57600080fd5b50610536610a36565b604051808273ffffffffffffffffffffffffffffffffffffffff1673ffffffffffffffffffffffffffffffffffffffff16815260200191505060405180910390f35b34801561058457600080fd5b5061058d610a4e565b604051808273ffffffffffffffffffffffffffffffffffffffff1673ffffffffffffffffffffffffffffffffffffffff16815260200191505060405180910390f35b3480156105db57600080fd5b50610612600480360360408110156105f257600080fd5b810190808035906020019092919080359060200190929190505050610a66565b005b34801561062057600080fd5b506106576004803603604081101561063757600080fd5b810190808035906020019092919080359060200190929190505050611143565b005b73d0a1e359811322d97991e03f863a0c30c2cf029c81565b73b6b09fbffba6a5c4631e5f7b2e3ee183ac259c0d81565b73c4375b7de8af5a38a93548eb8453a498222c4ff281565b73863e41fe88288ebf3fcd91d8dbb679fb83fdfe1781565b73aaf64bfcc32d0f15873a02163e7e500671a4ffcd81565b7370b742b84a75aff6482953f7883fd7e70d3dbbac81565b7382cd6436c58a65e2d4263259eca5843d3d7e0e6581565b7325a01a05c188dacbcf1d61af55d4a5b4021f7eed81565b6000806000806108848561087f8973ffffffffffffffffffffffffffffffffffffffff16636f78ee0d8a6040518263ffffffff167c010000000000000000000000000000000000000000000000000000000002815260040180828152602001915050602060405180830381600087803b15801561079557600080fd5b505af11580156107a9573d6000803e3d6000fd5b505050506040513d60208110156107bf57600080fd5b81019080805190602001909291905050508a73ffffffffffffffffffffffffffffffffffffffff1663f7c8d6348b6040518263ffffffff167c010000000000000000000000000000000000000000000000000000000002815260040180828152602001915050602060405180830381600087803b15801561083f57600080fd5b505af1158015610853573d6000803e3d6000fd5b505050506040513d602081101561086957600080fd5b8101908080519060200190929190505050611af0565b611b30565b90508673ffffffffffffffffffffffffffffffffffffffff1663ace237f56040518163ffffffff167c0100000000000000000000000000000000000000000000000000000000028152600401602060405180830381600087803b1580156108ea57600080fd5b505af11580156108fe573d6000803e3d6000fd5b505050506040513d602081101561091457600080fd5b810190808051906020019092919050505073ffffffffffffffffffffffffffffffffffffffff166359e02dd76040518163ffffffff167c01000000000000000000000000000000000000000000000000000000000281526004016040805180830381600087803b15801561098757600080fd5b505af115801561099b573d6000803e3d6000fd5b505050506040513d60408110156109b157600080fd5b81019080805190602001909291908051906020019092919050505080935081945050506109e2818460019004611b7c565b93505050509392505050565b73f4d791139ce033ad35db2b2201435fad668b1b6481565b73692f391bcc85cefce8c237c01e1f636bbd70ea4d81565b73eeeeeeeeeeeeeeeeeeeeeeeeeeeeeeeeeeeeeeee81565b7354b44c6b18fc0b4a1010b21d524c338d1f8065f681565b73a71937147b55deb8a530c7229c442fd3f31b7db281565b600073a71937147b55deb8a530c7229c442fd3f31b7db29050600073b6b09fbffba6a5c4631e5f7b2e3ee183ac259c0d9050610ab573d0a1e359811322d97991e03f863a0c30c2cf029c611bb8565b610ad273f4d791139ce033ad35db2b2201435fad668b1b64611bb8565b610aef73c4375b7de8af5a38a93548eb8453a498222c4ff2611bb8565b8173ffffffffffffffffffffffffffffffffffffffff1663440f19ba85856040518363ffffffff167c01000000000000000000000000000000000000000000000000000000000281526004018083815260200182815260200192505050600060405180830381600087803b158015610b6657600080fd5b505af1158015610b7a573d6000803e3d6000fd5b5050505073863e41fe88288ebf3fcd91d8dbb679fb83fdfe1773ffffffffffffffffffffffffffffffffffffffff166369a90514846040518263ffffffff167c010000000000000000000000000000000000000000000000000000000002815260040180828152602001915050600060405180830381600087803b158015610c0157600080fd5b505af1158015610c15573d6000803e3d6000fd5b505050507325a01a05c188dacbcf1d61af55d4a5b4021f7eed73ffffffffffffffffffffffffffffffffffffffff1663095ea7b373b6b09fbffba6a5c4631e5f7b2e3ee183ac259c0d7fffffffffffffffffffffffffffffffffffffffffffffffffffffffffffffffff6040518363ffffffff167c0100000000000000000000000000000000000000000000000000000000028152600401808373ffffffffffffffffffffffffffffffffffffffff1673ffffffffffffffffffffffffffffffffffffffff16815260200182815260200192505050602060405180830381600087803b158015610d0457600080fd5b505af1158015610d18573d6000803e3d6000fd5b505050506040513d6020811015610d2e57600080fd5b81019080805190602001909291905050505060008173ffffffffffffffffffffffffffffffffffffffff1663a0712d68856040518263ffffffff167c010000000000000000000000000000000000000000000000000000000002815260040180828152602001915050602060405180830381600087803b158015610db157600080fd5b505af1158015610dc5573d6000803e3d6000fd5b505050506040513d6020811015610ddb57600080fd5b8101908080519060200190929190505050141515610e61576040517f08c379a000000000000000000000000000000000000000000000000000000000815260040180806020018281038252600b8152602001807f4661696c6564204d696e7400000000000000000000000000000000000000000081525060200191505060405180910390fd5b60008173ffffffffffffffffffffffffffffffffffffffff166370a08231306040518263ffffffff167c0100000000000000000000000000000000000000000000000000000000028152600401808273ffffffffffffffffffffffffffffffffffffffff1673ffffffffffffffffffffffffffffffffffffffff16815260200191505060206040518083038186803b158015610efc57600080fd5b505afa158015610f10573d6000803e3d6000fd5b505050506040513d6020811015610f2657600080fd5b8101908080519060200190929190505050905073b6b09fbffba6a5c4631e5f7b2e3ee183ac259c0d73ffffffffffffffffffffffffffffffffffffffff1663a9059cbb33836040518363ffffffff167c0100000000000000000000000000000000000000000000000000000000028152600401808373ffffffffffffffffffffffffffffffffffffffff1673ffffffffffffffffffffffffffffffffffffffff16815260200182815260200192505050602060405180830381600087803b158015610ff057600080fd5b505af1158015611004573d6000803e3d6000fd5b505050506040513d602081101561101a57600080fd5b8101908080519060200190929190505050507370b742b84a75aff6482953f7883fd7e70d3dbbac73ffffffffffffffffffffffffffffffffffffffff16632ddab6d73386846040518463ffffffff167c010000000000000000000000000000000000000000000000000000000002815260040180806020018573ffffffffffffffffffffffffffffffffffffffff1673ffffffffffffffffffffffffffffffffffffffff1681526020018481526020018381526020018281038252600d8152602001807f636470546f436f6d706f756e6400000000000000000000000000000000000000815250602001945050505050600060405180830381600087803b15801561112457600080fd5b505af1158015611138573d6000803e3d6000fd5b505050505050505050565b600073a71937147b55deb8a530c7229c442fd3f31b7db29050600073b6b09fbffba6a5c4631e5f7b2e3ee183ac259c0d905061119273c4375b7de8af5a38a93548eb8453a498222c4ff2611bb8565b6111af73aaf64bfcc32d0f15873a02163e7e500671a4ffcd611bb8565b6111cc73f4d791139ce033ad35db2b2201435fad668b1b64611bb8565b6111e973d0a1e359811322d97991e03f863a0c30c2cf029c611bb8565b60006112098473b6b09fbffba6a5c4631e5f7b2e3ee183ac259c0d611e0a565b90508173ffffffffffffffffffffffffffffffffffffffff1663095ea7b373b6b09fbffba6a5c4631e5f7b2e3ee183ac259c0d7fffffffffffffffffffffffffffffffffffffffffffffffffffffffffffffffff6040518363ffffffff167c0100000000000000000000000000000000000000000000000000000000028152600401808373ffffffffffffffffffffffffffffffffffffffff1673ffffffffffffffffffffffffffffffffffffffff16815260200182815260200192505050602060405180830381600087803b1580156112e257600080fd5b505af11580156112f6573d6000803e3d6000fd5b505050506040513d602081101561130c57600080fd5b8101908080519060200190929190505050508173ffffffffffffffffffffffffffffffffffffffff166323b872dd3330846040518463ffffffff167c0100000000000000000000000000000000000000000000000000000000028152600401808473ffffffffffffffffffffffffffffffffffffffff1673ffffffffffffffffffffffffffffffffffffffff1681526020018373ffffffffffffffffffffffffffffffffffffffff1673ffffffffffffffffffffffffffffffffffffffff1681526020018281526020019350505050602060405180830381600087803b1580156113f557600080fd5b505af1158015611409573d6000803e3d6000fd5b505050506040513d602081101561141f57600080fd5b81019080805190602001909291905050505060008273ffffffffffffffffffffffffffffffffffffffff1663852a12e3866040518263ffffffff167c010000000000000000000000000000000000000000000000000000000002815260040180828152602001915050602060405180830381600087803b1580156114a257600080fd5b505af11580156114b6573d6000803e3d6000fd5b505050506040513d60208110156114cc57600080fd5b8101908080519060200190929190505050141515611552576040517f08c379a000000000000000000000000000000000000000000000000000000000815260040180806020018281038252600d8152602001807f52656564656d204661696c65640000000000000000000000000000000000000081525060200191505060405180910390fd5b73863e41fe88288ebf3fcd91d8dbb679fb83fdfe1773ffffffffffffffffffffffffffffffffffffffff1663db8b0a58856040518263ffffffff167c010000000000000000000000000000000000000000000000000000000002815260040180828152602001915050600060405180830381600087803b1580156115d557600080fd5b505af11580156115e9573d6000803e3d6000fd5b5050505060006115fa848787610719565b905060006116108261160b88611f61565b611b7c565b9050600061164873c4375b7de8af5a38a93548eb8453a498222c4ff273aaf64bfcc32d0f15873a02163e7e500671a4ffcd84866120c2565b9050611654878361257a565b96506000611662878a612596565b90508088111561176c5773c4375b7de8af5a38a93548eb8453a498222c4ff273ffffffffffffffffffffffffffffffffffffffff1663a9059cbb336116a78b8561257a565b6040518363ffffffff167c0100000000000000000000000000000000000000000000000000000000028152600401808373ffffffffffffffffffffffffffffffffffffffff1673ffffffffffffffffffffffffffffffffffffffff16815260200182815260200192505050602060405180830381600087803b15801561172c57600080fd5b505af1158015611740573d6000803e3d6000fd5b505050506040513d602081101561175657600080fd5b8101908080519060200190929190505050508097505b8673ffffffffffffffffffffffffffffffffffffffff166373b381018a8a6040518363ffffffff167c01000000000000000000000000000000000000000000000000000000000281526004018083815260200182815260200192505050600060405180830381600087803b1580156117e357600080fd5b505af11580156117f7573d6000803e3d6000fd5b5050505073aaf64bfcc32d0f15873a02163e7e500671a4ffcd73ffffffffffffffffffffffffffffffffffffffff1663a9059cbb3373aaf64bfcc32d0f15873a02163e7e500671a4ffcd73ffffffffffffffffffffffffffffffffffffffff166370a08231306040518263ffffffff167c0100000000000000000000000000000000000000000000000000000000028152600401808273ffffffffffffffffffffffffffffffffffffffff1673ffffffffffffffffffffffffffffffffffffffff16815260200191505060206040518083038186803b1580156118d957600080fd5b505afa1580156118ed573d6000803e3d6000fd5b505050506040513d602081101561190357600080fd5b81019080805190602001909291905050506040518363ffffffff167c0100000000000000000000000000000000000000000000000000000000028152600401808373ffffffffffffffffffffffffffffffffffffffff1673ffffffffffffffffffffffffffffffffffffffff16815260200182815260200192505050602060405180830381600087803b15801561199957600080fd5b505af11580156119ad573d6000803e3d6000fd5b505050506040513d60208110156119c357600080fd5b8101908080519060200190929190505050507370b742b84a75aff6482953f7883fd7e70d3dbbac73ffffffffffffffffffffffffffffffffffffffff16632ddab6d73386856040518463ffffffff167c010000000000000000000000000000000000000000000000000000000002815260040180806020018573ffffffffffffffffffffffffffffffffffffffff1673ffffffffffffffffffffffffffffffffffffffff1681526020018481526020018381526020018281038252600c8152602001807f7265706179434450446562740000000000000000000000000000000000000000815250602001945050505050600060405180830381600087803b158015611acd57600080fd5b505af1158015611ae1573d6000803e3d6000fd5b50505050505050505050505050565b600081611b1e611b0c856b033b2e3c9fd0803ce8000000612672565b600285811515611b1857fe5b046126a2565b811515611b2757fe5b04905092915050565b60006b033b2e3c9fd0803ce8000000611b6a611b4c8585612672565b60026b033b2e3c9fd0803ce8000000811515611b6457fe5b046126a2565b811515611b7357fe5b04905092915050565b600081611ba6611b9485670de0b6b3a7640000612672565b600285811515611ba057fe5b046126a2565b811515611baf57fe5b04905092915050565b60027fffffffffffffffffffffffffffffffffffffffffffffffffffffffffffffffff811515611be457fe5b048173ffffffffffffffffffffffffffffffffffffffff1663dd62ed3e33846040518363ffffffff167c0100000000000000000000000000000000000000000000000000000000028152600401808373ffffffffffffffffffffffffffffffffffffffff1673ffffffffffffffffffffffffffffffffffffffff1681526020018273ffffffffffffffffffffffffffffffffffffffff1673ffffffffffffffffffffffffffffffffffffffff1681526020019250505060206040518083038186803b158015611cb257600080fd5b505afa158015611cc6573d6000803e3d6000fd5b505050506040513d6020811015611cdc57600080fd5b81019080805190602001909291905050501015611e07578073ffffffffffffffffffffffffffffffffffffffff1663095ea7b373a71937147b55deb8a530c7229c442fd3f31b7db27fffffffffffffffffffffffffffffffffffffffffffffffffffffffffffffffff6040518363ffffffff167c0100000000000000000000000000000000000000000000000000000000028152600401808373ffffffffffffffffffffffffffffffffffffffff1673ffffffffffffffffffffffffffffffffffffffff16815260200182815260200192505050602060405180830381600087803b158015611dca57600080fd5b505af1158015611dde573d6000803e3d6000fd5b505050506040513d6020811015611df457600080fd5b8101908080519060200190929190505050505b50565b600080611ec4846020604051908101604052808673ffffffffffffffffffffffffffffffffffffffff1663bd6d894d6040518163ffffffff167c0100000000000000000000000000000000000000000000000000000000028152600401602060405180830381600087803b158015611e8157600080fd5b505af1158015611e95573d6000803e3d6000fd5b505050506040513d6020811015611eab57600080fd5b81019080805190602001909291905050508152506126be565b809350819250505060006003811115611ed957fe5b816003811115611ee557fe5b141515611f5a576040517f08c379a000000000000000000000000000000000000000000000000000000000815260040180806020018281038252600a8152602001807f4d617468206572726f720000000000000000000000000000000000000000000081525060200191505060405180910390fd5b5092915050565b600073692f391bcc85cefce8c237c01e1f636bbd70ea4d73ffffffffffffffffffffffffffffffffffffffff1663809a9e5573c4375b7de8af5a38a93548eb8453a498222c4ff273aaf64bfcc32d0f15873a02163e7e500671a4ffcd856040518463ffffffff167c0100000000000000000000000000000000000000000000000000000000028152600401808473ffffffffffffffffffffffffffffffffffffffff1673ffffffffffffffffffffffffffffffffffffffff1681526020018373ffffffffffffffffffffffffffffffffffffffff1673ffffffffffffffffffffffffffffffffffffffff1681526020018281526020019350505050604080518083038186803b15801561207357600080fd5b505afa158015612087573d6000803e3d6000fd5b505050506040513d604081101561209d57600080fd5b8101908080519060200190929190805190602001909291905050505080915050919050565b60008073692f391bcc85cefce8c237c01e1f636bbd70ea4d905060008173ffffffffffffffffffffffffffffffffffffffff1663809a9e558888886040518463ffffffff167c0100000000000000000000000000000000000000000000000000000000028152600401808473ffffffffffffffffffffffffffffffffffffffff1673ffffffffffffffffffffffffffffffffffffffff1681526020018373ffffffffffffffffffffffffffffffffffffffff1673ffffffffffffffffffffffffffffffffffffffff1681526020018281526020019350505050604080518083038186803b1580156121b257600080fd5b505afa1580156121c6573d6000803e3d6000fd5b505050506040513d60408110156121dc57600080fd5b8101908080519060200190929190805190602001909291905050509050809150508673ffffffffffffffffffffffffffffffffffffffff1663095ea7b38360006040518363ffffffff167c0100000000000000000000000000000000000000000000000000000000028152600401808373ffffffffffffffffffffffffffffffffffffffff1673ffffffffffffffffffffffffffffffffffffffff16815260200182815260200192505050602060405180830381600087803b1580156122a157600080fd5b505af11580156122b5573d6000803e3d6000fd5b505050506040513d60208110156122cb57600080fd5b810190808051906020019092919050505015156122e757600080fd5b8673ffffffffffffffffffffffffffffffffffffffff1663095ea7b383876040518363ffffffff167c0100000000000000000000000000000000000000000000000000000000028152600401808373ffffffffffffffffffffffffffffffffffffffff1673ffffffffffffffffffffffffffffffffffffffff16815260200182815260200192505050602060405180830381600087803b15801561238a57600080fd5b505af115801561239e573d6000803e3d6000fd5b505050506040513d60208110156123b457600080fd5b810190808051906020019092919050505015156123d057600080fd5b8173ffffffffffffffffffffffffffffffffffffffff1663cb3c28c78887893089877354b44c6b18fc0b4a1010b21d524c338d1f8065f66040518863ffffffff167c0100000000000000000000000000000000000000000000000000000000028152600401808873ffffffffffffffffffffffffffffffffffffffff1673ffffffffffffffffffffffffffffffffffffffff1681526020018781526020018673ffffffffffffffffffffffffffffffffffffffff1673ffffffffffffffffffffffffffffffffffffffff1681526020018573ffffffffffffffffffffffffffffffffffffffff1673ffffffffffffffffffffffffffffffffffffffff1681526020018481526020018381526020018273ffffffffffffffffffffffffffffffffffffffff1673ffffffffffffffffffffffffffffffffffffffff168152602001975050505050505050602060405180830381600087803b15801561253357600080fd5b505af1158015612547573d6000803e3d6000fd5b505050506040513d602081101561255d57600080fd5b810190808051906020019092919050505092505050949350505050565b6000828284039150811115151561259057600080fd5b92915050565b60008273ffffffffffffffffffffffffffffffffffffffff1663fdac0025836040518263ffffffff167c010000000000000000000000000000000000000000000000000000000002815260040180828152602001915050608060405180830381600087803b15801561260757600080fd5b505af115801561261b573d6000803e3d6000fd5b505050506040513d608081101561263157600080fd5b810190808051906020019092919080519060200190929190805190602001909291908051906020019092919050505090919250909150508091505092915050565b6000808214806126915750828283850292508281151561268e57fe5b04145b151561269c57600080fd5b92915050565b600082828401915081101515156126b857600080fd5b92915050565b60008060006126cb61292b565b6126d58686612723565b91509150600060038111156126e657fe5b8260038111156126f257fe5b14151561270a5781600080905093509350505061271c565b6000612715826127a2565b9350935050505b9250929050565b600061272d61292b565b600080612742670de0b6b3a7640000876127c3565b915091506000600381111561275357fe5b82600381111561275f57fe5b1415156127865781602060405190810160405280600081525080905093509350505061279b565b61279481866000015161281a565b9350935050505b9250929050565b6000670de0b6b3a764000082600001518115156127bb57fe5b049050919050565b60008060008414156127de5760008080905091509150612813565b600083850290508385828115156127f157fe5b0414151561280a57600260008090509250925050612813565b60008192509250505b9250929050565b600061282461292b565b60008061283986670de0b6b3a76400006127c3565b915091506000600381111561284a57fe5b82600381111561285657fe5b14151561287d578160206040519081016040528060008152508090509350935050506128ee565b60008061288a83886128f5565b915091506000600381111561289b57fe5b8260038111156128a757fe5b1415156128d05781602060405190810160405280600081525080905095509550505050506128ee565b60006020604051908101604052808381525080905095509550505050505b9250929050565b6000806000831415612911576001600080905091509150612924565b6000838581151561291e57fe5b04915091505b9250929050565b60206040519081016040528060008152509056fea165627a7a723058204bb76527cad5b69e3a6702db1a5590f94e6aa79e8147abc768e81b56b1cee8130029",
  "source": "pragma solidity ^0.5.0;\n\nimport \"../DS/DSMath.sol\";\nimport \"../interfaces/CTokenInterface.sol\";\nimport \"../interfaces/TubInterface.sol\";\nimport \"../interfaces/KyberNetworkProxyInterface.sol\";\nimport \"../ActionLogger.sol\";\nimport \"./Exponential.sol\";\nimport \"./StupidExchange.sol\";\n\n/// @title CompoundProxy implements CDP and Compound direct interactions\ncontract CompoundProxy is DSMath, Exponential {\n    \n    // Kovan addresses\n    address public constant TUB_ADDRESS = 0xa71937147b55Deb8a530C7229C442Fd3F31b7db2;\n    address public constant WETH_ADDRESS = 0xd0A1E359811322d97991E03f863a0C30C2cF029C;\n    address public constant DAI_ADDRESS = 0xC4375B7De8af5a38a93548eb8453a498222C4fF2;\n    address public constant MKR_ADDRESS = 0xAaF64BFCC32d0F15873a02163e7E500671a4ffcD;\n    address public constant PETH_ADDRESS = 0xf4d791139cE033Ad35DB2B2201435fAd668B1b64;\n    address public constant KYBER_WRAPPER = 0x82CD6436c58A65E2D4263259EcA5843d3d7e0e65;\n    address public constant ETHER_ADDRESS = 0xEeeeeEeeeEeEeeEeEeEeeEEEeeeeEeeeeeeeEEeE;\n    address public constant CDAI_ADDRESS = 0xb6b09fBffBa6A5C4631e5F7B2e3Ee183aC259c0d;\n    address public constant LOGGER_ADDRESS = 0x70b742b84a75aFF6482953f7883Fd7E70d3dBbac;\n    address public constant WALLET_ID = 0x54b44C6B18fc0b4A1010B21d524c338D1f8065F6;\n    address public constant KYBER_INTERFACE = 0x692f391bCc85cefCe8C237C01e1f636BbD70EA4D;\n    address public constant COMPOUND_DAI_ADDRESS = 0x25a01a05C188DaCBCf1D61Af55D4a5B4021F7eeD;\n    address public constant STUPID_EXCHANGE = 0x863E41FE88288ebf3fcd91d8Dbb679fb83fdfE17;\n    \n    /// @notice It will draw Dai from Compound and repay part of the CDP debt\n    /// @dev User has to approve DSProxy to pull CDai before calling this\n    /// @param _cup Cdp id\n    /// @param _amount Amount of Dai that will be taken from Compound and put into CDP\n    function repayCDPDebt(bytes32 _cup, uint _amount) public {\n        TubInterface tub = TubInterface(TUB_ADDRESS);\n        CTokenInterface cDaiContract = CTokenInterface(CDAI_ADDRESS);\n        \n        approveTub(DAI_ADDRESS);\n        approveTub(MKR_ADDRESS);\n        approveTub(PETH_ADDRESS);\n        approveTub(WETH_ADDRESS);\n\n        // Calculate how many cDai tokens we need to pull for the Dai _amount\n        uint cAmount = getCTokenAmount(_amount, CDAI_ADDRESS);     \n\n        cDaiContract.approve(CDAI_ADDRESS, uint(-1));\n        cDaiContract.transferFrom(msg.sender, address(this), cAmount);\n        \n        require(cDaiContract.redeemUnderlying(_amount) == 0, \"Reedem Failed\");\n        \n        // REMOVE: USED ONLY ON KOVAN TO HANDLE DAI DIFFERENT TOKENS\n        StupidExchange(STUPID_EXCHANGE).getMakerDaiToken(_amount);\n\n        // Buy some Mkr to pay stability fee\n        uint mkrAmount = stabilityFeeInMkr(tub, _cup, _amount);\n        uint daiFee = wdiv(mkrAmount, estimatedDaiMkrPrice(_amount));\n        uint amountExchanged = exchangeToken(ERC20(DAI_ADDRESS), ERC20(MKR_ADDRESS), daiFee, mkrAmount);\n\n        _amount = sub(_amount, daiFee);\n\n        uint daiDebt = getDebt(tub, _cup);\n\n        if (_amount > daiDebt) {\n            ERC20(DAI_ADDRESS).transfer(msg.sender, sub(_amount, daiDebt));\n            _amount = daiDebt;\n        }\n        \n        tub.wipe(_cup, _amount);\n\n        ERC20(MKR_ADDRESS).transfer(msg.sender, ERC20(MKR_ADDRESS).balanceOf(address(this)));\n        ActionLogger(LOGGER_ADDRESS).logEvent('repayCDPDebt', msg.sender, mkrAmount, amountExchanged);\n    }\n    \n    /// @notice It will draw Dai from CDP and add it to Compound\n    /// @param _cup CDP id\n    /// @param _amount Amount of Dai drawn from the CDP and put into Compound\n    function cdpToCompound(bytes32 _cup, uint _amount) public {\n        TubInterface tub = TubInterface(TUB_ADDRESS);\n        CTokenInterface cDaiContract = CTokenInterface(CDAI_ADDRESS);\n\n        approveTub(WETH_ADDRESS);\n        approveTub(PETH_ADDRESS);\n        approveTub(DAI_ADDRESS);\n\n        tub.draw(_cup, _amount);\n        \n        StupidExchange(STUPID_EXCHANGE).getCompoundDaiToken(_amount);\n        \n        //cDai will try and pull Dai tokens from DSProxy, so approve it\n        ERC20(COMPOUND_DAI_ADDRESS).approve(CDAI_ADDRESS, uint(-1));\n        \n        require(cDaiContract.mint(_amount) == 0, \"Failed Mint\");\n        \n        uint cDaiMinted = cDaiContract.balanceOf(address(this));\n        \n        // transfer the cDai to the original sender\n        ERC20(CDAI_ADDRESS).transfer(msg.sender, cDaiMinted);\n        \n        ActionLogger(LOGGER_ADDRESS).logEvent('cdpToCompound', msg.sender, _amount, cDaiMinted);\n        \n    }\n\n    /// @notice Calculates how many cTokens you get for a _tokenAmount\n    function getCTokenAmount(uint _tokenAmount, address _tokeAddress) internal returns(uint cAmount) {\n        MathError error;\n        (error, cAmount) = divScalarByExpTruncate(_tokenAmount,\n             Exp({mantissa: CTokenInterface(_tokeAddress).exchangeRateCurrent()}));\n\n        require(error == MathError.NO_ERROR, \"Math error\");\n    }\n    \n    /// @notice Stability fee amount in Mkr\n    /// @param _tub Tub interface\n    /// @param _cup Id of the CDP\n    /// @param _daiRepay Amount of dai we are repaying\n    function stabilityFeeInMkr(TubInterface _tub, bytes32 _cup, uint _daiRepay) public returns (uint) {\n        bytes32 mkrPrice;\n        bool ok;\n\n        uint feeInDai = rmul(_daiRepay, rdiv(_tub.rap(_cup), _tub.tab(_cup)));\n\n        (mkrPrice, ok) = _tub.pep().peek();\n\n        return wdiv(feeInDai, uint(mkrPrice));\n    }\n    \n    /// @notice Returns expected rate for Dai -> Mkr conversion\n    /// @param _daiAmount Amount of Dai\n    function estimatedDaiMkrPrice(uint _daiAmount) internal returns (uint expectedRate) {\n        (expectedRate, ) = KyberNetworkProxyInterface(KYBER_INTERFACE).getExpectedRate(ERC20(DAI_ADDRESS), ERC20(MKR_ADDRESS), _daiAmount);\n    }\n    \n    /// @notice Approve a token if it's not already approved\n    /// @param _tokenAddress Address of the ERC20 token we want to approve\n    function approveTub(address _tokenAddress) internal {\n        if (ERC20(_tokenAddress).allowance(msg.sender, _tokenAddress) < (uint(-1) / 2)) {\n            ERC20(_tokenAddress).approve(TUB_ADDRESS, uint(-1));\n        }\n    }\n\n    /// @notice Returns current Dai debt of the CDP\n    /// @param _tub Tub interface\n    /// @param _cup Id of the CDP\n    function getDebt(TubInterface _tub, bytes32 _cup) internal returns (uint debt) {\n        ( , , debt, ) = _tub.cups(_cup);\n    }\n\n    /// @notice Exhcanged a token on kyber\n    function exchangeToken(ERC20 _sourceToken, ERC20 _destToken, uint _sourceAmount, uint _maxAmount) internal returns (uint destAmount) {\n        KyberNetworkProxyInterface _kyberNetworkProxy = KyberNetworkProxyInterface(KYBER_INTERFACE);\n\n        uint minRate;\n        (, minRate) = _kyberNetworkProxy.getExpectedRate(_sourceToken, _destToken, _sourceAmount);\n\n        require(_sourceToken.approve(address(_kyberNetworkProxy), 0));\n        require(_sourceToken.approve(address(_kyberNetworkProxy), _sourceAmount));\n\n        destAmount = _kyberNetworkProxy.trade(\n            _sourceToken,\n            _sourceAmount,\n            _destToken,\n            address(this),\n            _maxAmount,\n            minRate,\n            WALLET_ID\n        );\n    }\n}",
  "sourcePath": "/Users/nikolaklipa/Decenter/defisaver/cdpsaver-contracts/contracts/compound/CompoundProxy.sol",
  "compiler": {
    "name": "solc",
    "version": "0.5.0+commit.1d4f565a.Emscripten.clang"
  },
  "schemaVersion": "3.0.9",
  "updatedAt": "2019-08-08T14:48:32.888Z",
  "devdoc": {
    "methods": {
      "cdpToCompound(bytes32,uint256)": {
        "params": {
          "_amount": "Amount of Dai drawn from the CDP and put into Compound",
          "_cup": "CDP id"
        }
      },
      "repayCDPDebt(bytes32,uint256)": {
        "details": "User has to approve DSProxy to pull CDai before calling this",
        "params": {
          "_amount": "Amount of Dai that will be taken from Compound and put into CDP",
          "_cup": "Cdp id"
        }
      },
      "stabilityFeeInMkr(address,bytes32,uint256)": {
        "params": {
          "_cup": "Id of the CDP",
          "_daiRepay": "Amount of dai we are repaying",
          "_tub": "Tub interface"
        }
      }
    },
    "title": "CompoundProxy implements CDP and Compound direct interactions"
  },
  "userdoc": {
    "methods": {
      "cdpToCompound(bytes32,uint256)": {
        "notice": "It will draw Dai from CDP and add it to Compound"
      },
      "repayCDPDebt(bytes32,uint256)": {
        "notice": "It will draw Dai from Compound and repay part of the CDP debt"
      },
      "stabilityFeeInMkr(address,bytes32,uint256)": {
        "notice": "Stability fee amount in Mkr"
      }
    }
  }
}