{
  "contractName": "CompoundAdvanced",
  "abi": [
    {
      "constant": true,
      "inputs": [],
      "name": "WALLET_ID",
      "outputs": [
        {
          "name": "",
          "type": "address"
        }
      ],
      "payable": false,
      "stateMutability": "view",
      "type": "function"
    },
    {
      "constant": false,
      "inputs": [
        {
          "name": "_suppliedAsset",
          "type": "address"
        },
        {
          "name": "_borrowedAsset",
          "type": "address"
        },
        {
          "name": "_underlyingSupply",
          "type": "address"
        },
        {
          "name": "_underlyingBorrow",
          "type": "address"
        },
        {
          "name": "_amount",
          "type": "uint256"
        }
      ],
      "name": "repay",
      "outputs": [],
      "payable": false,
      "stateMutability": "nonpayable",
      "type": "function"
    }
  ],
  "bytecode": "0x608060405234801561001057600080fd5b50611210806100206000396000f3fe60806040526004361061004c576000357c0100000000000000000000000000000000000000000000000000000000900463ffffffff168063d3661fa514610051578063ebc27b08146100a8575b600080fd5b34801561005d57600080fd5b50610066610163565b604051808273ffffffffffffffffffffffffffffffffffffffff1673ffffffffffffffffffffffffffffffffffffffff16815260200191505060405180910390f35b3480156100b457600080fd5b50610161600480360360a08110156100cb57600080fd5b81019080803573ffffffffffffffffffffffffffffffffffffffff169060200190929190803573ffffffffffffffffffffffffffffffffffffffff169060200190929190803573ffffffffffffffffffffffffffffffffffffffff169060200190929190803573ffffffffffffffffffffffffffffffffffffffff1690602001909291908035906020019092919050505061017b565b005b7354b44c6b18fc0b4a1010b21d524c338d1f8065f681565b6000859050600085905060006101918489610782565b90508273ffffffffffffffffffffffffffffffffffffffff1663095ea7b389836040518363ffffffff167c0100000000000000000000000000000000000000000000000000000000028152600401808373ffffffffffffffffffffffffffffffffffffffff1673ffffffffffffffffffffffffffffffffffffffff16815260200182815260200192505050602060405180830381600087803b15801561023657600080fd5b505af115801561024a573d6000803e3d6000fd5b505050506040513d602081101561026057600080fd5b8101908080519060200190929190505050508273ffffffffffffffffffffffffffffffffffffffff166323b872dd3330846040518463ffffffff167c0100000000000000000000000000000000000000000000000000000000028152600401808473ffffffffffffffffffffffffffffffffffffffff1673ffffffffffffffffffffffffffffffffffffffff1681526020018373ffffffffffffffffffffffffffffffffffffffff1673ffffffffffffffffffffffffffffffffffffffff1681526020018281526020019350505050602060405180830381600087803b15801561034957600080fd5b505af115801561035d573d6000803e3d6000fd5b505050506040513d602081101561037357600080fd5b81019080805190602001909291905050505060008373ffffffffffffffffffffffffffffffffffffffff1663852a12e3866040518263ffffffff167c010000000000000000000000000000000000000000000000000000000002815260040180828152602001915050602060405180830381600087803b1580156103f657600080fd5b505af115801561040a573d6000803e3d6000fd5b505050506040513d602081101561042057600080fd5b81019080805190602001909291905050501415156104a6576040517f08c379a000000000000000000000000000000000000000000000000000000000815260040180806020018281038252600d8152602001807f52656564656d204661696c65640000000000000000000000000000000000000081525060200191505060405180910390fd5b60008273ffffffffffffffffffffffffffffffffffffffff166317bfdfbc336040518263ffffffff167c0100000000000000000000000000000000000000000000000000000000028152600401808273ffffffffffffffffffffffffffffffffffffffff1673ffffffffffffffffffffffffffffffffffffffff168152602001915050602060405180830381600087803b15801561054357600080fd5b505af1158015610557573d6000803e3d6000fd5b505050506040513d602081101561056d57600080fd5b810190808051906020019092919050505090506000610596826105918a8a8a6108d9565b610a16565b905060006105a689898486610a5a565b9050828111151515610620576040517f08c379a000000000000000000000000000000000000000000000000000000000815260040180806020018281038252601a8152602001807f436f6e76657273696f6e206d757374206265207072656369736500000000000081525060200191505060405180910390fd5b60008573ffffffffffffffffffffffffffffffffffffffff16632608f81833846040518363ffffffff167c0100000000000000000000000000000000000000000000000000000000028152600401808373ffffffffffffffffffffffffffffffffffffffff1673ffffffffffffffffffffffffffffffffffffffff16815260200182815260200192505050602060405180830381600087803b1580156106c557600080fd5b505af11580156106d9573d6000803e3d6000fd5b505050506040513d60208110156106ef57600080fd5b8101908080519060200190929190505050141515610775576040517f08c379a000000000000000000000000000000000000000000000000000000000815260040180806020018281038252600c8152602001807f5265706179204661696c6564000000000000000000000000000000000000000081525060200191505060405180910390fd5b5050505050505050505050565b60008061083c846020604051908101604052808673ffffffffffffffffffffffffffffffffffffffff1663bd6d894d6040518163ffffffff167c0100000000000000000000000000000000000000000000000000000000028152600401602060405180830381600087803b1580156107f957600080fd5b505af115801561080d573d6000803e3d6000fd5b505050506040513d602081101561082357600080fd5b8101908080519060200190929190505050815250610f17565b80935081925050506000600381111561085157fe5b81600381111561085d57fe5b1415156108d2576040517f08c379a000000000000000000000000000000000000000000000000000000000815260040180806020018281038252600a8152602001807f4d617468206572726f720000000000000000000000000000000000000000000081525060200191505060405180910390fd5b5092915050565b600073692f391bcc85cefce8c237c01e1f636bbd70ea4d73ffffffffffffffffffffffffffffffffffffffff1663809a9e558585856040518463ffffffff167c0100000000000000000000000000000000000000000000000000000000028152600401808473ffffffffffffffffffffffffffffffffffffffff1673ffffffffffffffffffffffffffffffffffffffff1681526020018373ffffffffffffffffffffffffffffffffffffffff1673ffffffffffffffffffffffffffffffffffffffff16815260200182815260200193505050506040805180830381600087803b1580156109c557600080fd5b505af11580156109d9573d6000803e3d6000fd5b505050506040513d60408110156109ef57600080fd5b81019080805190602001909291908051906020019092919050505050809150509392505050565b6000670de0b6b3a7640000610a48610a2e8585610f7c565b6002670de0b6b3a7640000811515610a4257fe5b04610fac565b811515610a5157fe5b04905092915050565b60008073692f391bcc85cefce8c237c01e1f636bbd70ea4d905060008173ffffffffffffffffffffffffffffffffffffffff1663809a9e558888886040518463ffffffff167c0100000000000000000000000000000000000000000000000000000000028152600401808473ffffffffffffffffffffffffffffffffffffffff1673ffffffffffffffffffffffffffffffffffffffff1681526020018373ffffffffffffffffffffffffffffffffffffffff1673ffffffffffffffffffffffffffffffffffffffff16815260200182815260200193505050506040805180830381600087803b158015610b4c57600080fd5b505af1158015610b60573d6000803e3d6000fd5b505050506040513d6040811015610b7657600080fd5b8101908080519060200190929190805190602001909291905050509050809150508673ffffffffffffffffffffffffffffffffffffffff1663095ea7b38360006040518363ffffffff167c0100000000000000000000000000000000000000000000000000000000028152600401808373ffffffffffffffffffffffffffffffffffffffff1673ffffffffffffffffffffffffffffffffffffffff16815260200182815260200192505050602060405180830381600087803b158015610c3b57600080fd5b505af1158015610c4f573d6000803e3d6000fd5b505050506040513d6020811015610c6557600080fd5b81019080805190602001909291905050501515610c8157600080fd5b8673ffffffffffffffffffffffffffffffffffffffff1663095ea7b383876040518363ffffffff167c0100000000000000000000000000000000000000000000000000000000028152600401808373ffffffffffffffffffffffffffffffffffffffff1673ffffffffffffffffffffffffffffffffffffffff16815260200182815260200192505050602060405180830381600087803b158015610d2457600080fd5b505af1158015610d38573d6000803e3d6000fd5b505050506040513d6020811015610d4e57600080fd5b81019080805190602001909291905050501515610d6a57600080fd5b8173ffffffffffffffffffffffffffffffffffffffff1663cb3c28c78887893389877354b44c6b18fc0b4a1010b21d524c338d1f8065f66040518863ffffffff167c0100000000000000000000000000000000000000000000000000000000028152600401808873ffffffffffffffffffffffffffffffffffffffff1673ffffffffffffffffffffffffffffffffffffffff1681526020018781526020018673ffffffffffffffffffffffffffffffffffffffff1673ffffffffffffffffffffffffffffffffffffffff1681526020018573ffffffffffffffffffffffffffffffffffffffff1673ffffffffffffffffffffffffffffffffffffffff1681526020018481526020018381526020018273ffffffffffffffffffffffffffffffffffffffff1673ffffffffffffffffffffffffffffffffffffffff168152602001975050505050505050602060405180830381600087803b158015610ecd57600080fd5b505af1158015610ee1573d6000803e3d6000fd5b505050506040513d6020811015610ef757600080fd5b810190808051906020019092919050505092508292505050949350505050565b6000806000610f246111d0565b610f2e8686610fc8565b9150915060006003811115610f3f57fe5b826003811115610f4b57fe5b141515610f6357816000809050935093505050610f75565b6000610f6e82611047565b9350935050505b9250929050565b600080821480610f9b57508282838502925082811515610f9857fe5b04145b1515610fa657600080fd5b92915050565b60008282840191508110151515610fc257600080fd5b92915050565b6000610fd26111d0565b600080610fe7670de0b6b3a764000087611068565b9150915060006003811115610ff857fe5b82600381111561100457fe5b14151561102b57816020604051908101604052806000815250809050935093505050611040565b6110398186600001516110bf565b9350935050505b9250929050565b6000670de0b6b3a7640000826000015181151561106057fe5b049050919050565b600080600084141561108357600080809050915091506110b8565b6000838502905083858281151561109657fe5b041415156110af576002600080905092509250506110b8565b60008192509250505b9250929050565b60006110c96111d0565b6000806110de86670de0b6b3a7640000611068565b91509150600060038111156110ef57fe5b8260038111156110fb57fe5b14151561112257816020604051908101604052806000815250809050935093505050611193565b60008061112f838861119a565b915091506000600381111561114057fe5b82600381111561114c57fe5b141515611175578160206040519081016040528060008152508090509550955050505050611193565b60006020604051908101604052808381525080905095509550505050505b9250929050565b60008060008314156111b65760016000809050915091506111c9565b600083858115156111c357fe5b04915091505b9250929050565b60206040519081016040528060008152509056fea165627a7a72305820e0c38f718668092fdac03edc2793d53422870be07f74a2df8ad0926e94de77fb0029",
  "source": "pragma solidity ^0.5.0;\n\nimport \"../interfaces/CTokenInterface.sol\";\nimport \"../interfaces/KyberNetworkProxyInterface.sol\";\nimport \"./Exponential.sol\";\nimport \"../DS/DSMath.sol\";\n\ncontract CompoundAdvanced is Exponential, DSMath {\n\n    address public constant WALLET_ID = 0x54b44C6B18fc0b4A1010B21d524c338D1f8065F6;\n    address constant KYBER_INTERFACE = 0x692f391bCc85cefCe8C237C01e1f636BbD70EA4D;\n\n\n    /// @notice Takes out an asset which a user supplies, converts and pays the debt\n    function repay(address _suppliedAsset, address _borrowedAsset, address _underlyingSupply, address _underlyingBorrow, uint _amount) public {\n        CTokenInterface cSuppliedContract = CTokenInterface(_suppliedAsset);\n        CTokenInterface cBorrowedContract = CTokenInterface(_borrowedAsset);\n\n        uint cAmount = getCTokenAmount(_amount, _suppliedAsset);   \n\n        cSuppliedContract.approve(_suppliedAsset, cAmount);\n        cSuppliedContract.transferFrom(msg.sender, address(this), cAmount);\n\n        //TODO: how much can we reedem\n        require(cSuppliedContract.redeemUnderlying(_amount) == 0, \"Reedem Failed\");\n\n        uint borrowAmount = cBorrowedContract.borrowBalanceCurrent(msg.sender);\n\n        //TODO : check this\n        uint debtInSupplyToken = wmul(borrowAmount, estimatedSourceTokenPrice(_underlyingSupply, _underlyingBorrow, _amount));\n\n        uint amountExchanged = exchangeToken(ERC20(_underlyingSupply), ERC20(_underlyingBorrow), debtInSupplyToken, borrowAmount);\n\n        require(amountExchanged <= borrowAmount, \"Conversion must be precise\");\n\n        require(cBorrowedContract.repayBorrowBehalf(msg.sender, amountExchanged) == 0, \"Repay Failed\");\n    }\n\n    function exchangeToken(ERC20 _sourceToken, ERC20 _destToken, uint _sourceAmount, uint _maxAmount) internal returns (uint destAmount) {\n        KyberNetworkProxyInterface _kyberNetworkProxy = KyberNetworkProxyInterface(KYBER_INTERFACE);\n\n        uint minRate;\n        (, minRate) = _kyberNetworkProxy.getExpectedRate(_sourceToken, _destToken, _sourceAmount);\n\n        require(_sourceToken.approve(address(_kyberNetworkProxy), 0));\n        require(_sourceToken.approve(address(_kyberNetworkProxy), _sourceAmount));\n\n        destAmount = _kyberNetworkProxy.trade(\n            _sourceToken,\n            _sourceAmount,\n            _destToken,\n            msg.sender,\n            _maxAmount,\n            minRate,\n            WALLET_ID\n        );\n\n        return destAmount;\n    }\n\n    /// @notice Returns expected rate for Eth -> Dai conversion\n    /// @param _amount Amount of Ether\n    function estimatedSourceTokenPrice(address _source, address _dest, uint _amount) internal returns (uint expectedRate) {\n        (expectedRate, ) = KyberNetworkProxyInterface(KYBER_INTERFACE).getExpectedRate(ERC20(_source), ERC20(_dest), _amount);\n    }\n\n    /// @notice Calculates how many cTokens you get for a _tokenAmount\n    function getCTokenAmount(uint _tokenAmount, address _tokeAddress) internal returns(uint cAmount) {\n        MathError error;\n        (error, cAmount) = divScalarByExpTruncate(_tokenAmount,\n             Exp({mantissa: CTokenInterface(_tokeAddress).exchangeRateCurrent()}));\n\n        require(error == MathError.NO_ERROR, \"Math error\");\n    }\n}",
  "sourcePath": "/Users/nenadpalinkasevic/Desktop/blockchain/cdpsaver-contracts/contracts/compound/CompoundAdvanced.sol",
  "compiler": {
    "name": "solc",
    "version": "0.5.0+commit.1d4f565a.Emscripten.clang"
  },
  "schemaVersion": "3.0.0",
  "updatedAt": "2019-06-28T08:20:24.955Z",
  "devdoc": {
    "methods": {}
  },
  "userdoc": {
    "methods": {
      "repay(address,address,address,address,uint256)": {
        "notice": "Takes out an asset which a user supplies, converts and pays the debt"
      }
    }
  }
}