{
  "contractName": "Eth2DaiWrapper",
  "abi": [
    {
      "constant": true,
      "inputs": [],
      "name": "WETH_ADDRESS",
      "outputs": [
        {
          "name": "",
          "type": "address"
        }
      ],
      "payable": false,
      "stateMutability": "view",
      "type": "function"
    },
    {
      "constant": true,
      "inputs": [],
      "name": "KYBER_ETH_ADDRESS",
      "outputs": [
        {
          "name": "",
          "type": "address"
        }
      ],
      "payable": false,
      "stateMutability": "view",
      "type": "function"
    },
    {
      "constant": true,
      "inputs": [],
      "name": "OTC_ADDRESS",
      "outputs": [
        {
          "name": "",
          "type": "address"
        }
      ],
      "payable": false,
      "stateMutability": "view",
      "type": "function"
    },
    {
      "payable": true,
      "stateMutability": "payable",
      "type": "fallback"
    },
    {
      "constant": false,
      "inputs": [
        {
          "name": "_ethAmount",
          "type": "uint256"
        },
        {
          "name": "_tokenAddress",
          "type": "address"
        },
        {
          "name": "_maxAmount",
          "type": "uint256"
        }
      ],
      "name": "swapEtherToToken",
      "outputs": [
        {
          "name": "",
          "type": "uint256"
        },
        {
          "name": "",
          "type": "uint256"
        }
      ],
      "payable": true,
      "stateMutability": "payable",
      "type": "function"
    },
    {
      "constant": false,
      "inputs": [
        {
          "name": "_tokenAddress",
          "type": "address"
        },
        {
          "name": "_amount",
          "type": "uint256"
        },
        {
          "name": "_maxAmount",
          "type": "uint256"
        }
      ],
      "name": "swapTokenToEther",
      "outputs": [
        {
          "name": "",
          "type": "uint256"
        }
      ],
      "payable": false,
      "stateMutability": "nonpayable",
      "type": "function"
    },
    {
      "constant": false,
      "inputs": [
        {
          "name": "_src",
          "type": "address"
        },
        {
          "name": "_dest",
          "type": "address"
        },
        {
          "name": "_srcQty",
          "type": "uint256"
        }
      ],
      "name": "getExpectedRate",
      "outputs": [
        {
          "name": "",
          "type": "uint256"
        },
        {
          "name": "",
          "type": "uint256"
        }
      ],
      "payable": false,
      "stateMutability": "nonpayable",
      "type": "function"
    }
  ],
  "bytecode": "0x608060405234801561001057600080fd5b50610e48806100206000396000f3fe608060405260043610610078576000357c0100000000000000000000000000000000000000000000000000000000900463ffffffff168063040141e51461007a57806329f7fc9e146100d15780632a441f05146101285780633bba21dc1461017f57806343ac1dc6146101f8578063809a9e551461026b575b005b34801561008657600080fd5b5061008f610301565b604051808273ffffffffffffffffffffffffffffffffffffffff1673ffffffffffffffffffffffffffffffffffffffff16815260200191505060405180910390f35b3480156100dd57600080fd5b506100e6610319565b604051808273ffffffffffffffffffffffffffffffffffffffff1673ffffffffffffffffffffffffffffffffffffffff16815260200191505060405180910390f35b34801561013457600080fd5b5061013d610331565b604051808273ffffffffffffffffffffffffffffffffffffffff1673ffffffffffffffffffffffffffffffffffffffff16815260200191505060405180910390f35b34801561018b57600080fd5b506101e2600480360360608110156101a257600080fd5b81019080803573ffffffffffffffffffffffffffffffffffffffff1690602001909291908035906020019092919080359060200190929190505050610349565b6040518082815260200191505060405180910390f35b61024e6004803603606081101561020e57600080fd5b8101908080359060200190929190803573ffffffffffffffffffffffffffffffffffffffff1690602001909291908035906020019092919050505061067c565b604051808381526020018281526020019250505060405180910390f35b34801561027757600080fd5b506102e46004803603606081101561028e57600080fd5b81019080803573ffffffffffffffffffffffffffffffffffffffff169060200190929190803573ffffffffffffffffffffffffffffffffffffffff16906020019092919080359060200190929190505050610a5a565b604051808381526020018281526020019250505060405180910390f35b73d0a1e359811322d97991e03f863a0c30c2cf029c81565b73eeeeeeeeeeeeeeeeeeeeeeeeeeeeeeeeeeeeeeee81565b734a6bc4e803c62081ffebcc8d227b5a87a58f1f8f81565b60008373ffffffffffffffffffffffffffffffffffffffff1663095ea7b3734a6bc4e803c62081ffebcc8d227b5a87a58f1f8f856040518363ffffffff167c0100000000000000000000000000000000000000000000000000000000028152600401808373ffffffffffffffffffffffffffffffffffffffff1673ffffffffffffffffffffffffffffffffffffffff16815260200182815260200192505050602060405180830381600087803b15801561040257600080fd5b505af1158015610416573d6000803e3d6000fd5b505050506040513d602081101561042c57600080fd5b8101908080519060200190929190505050151561044857600080fd5b6000734a6bc4e803c62081ffebcc8d227b5a87a58f1f8f73ffffffffffffffffffffffffffffffffffffffff16630621b4f6868673d0a1e359811322d97991e03f863a0c30c2cf029c60006040518563ffffffff167c0100000000000000000000000000000000000000000000000000000000028152600401808573ffffffffffffffffffffffffffffffffffffffff1673ffffffffffffffffffffffffffffffffffffffff1681526020018481526020018373ffffffffffffffffffffffffffffffffffffffff1673ffffffffffffffffffffffffffffffffffffffff168152602001828152602001945050505050602060405180830381600087803b15801561055257600080fd5b505af1158015610566573d6000803e3d6000fd5b505050506040513d602081101561057c57600080fd5b8101908080519060200190929190505050905073d0a1e359811322d97991e03f863a0c30c2cf029c73ffffffffffffffffffffffffffffffffffffffff16632e1a7d4d826040518263ffffffff167c010000000000000000000000000000000000000000000000000000000002815260040180828152602001915050600060405180830381600087803b15801561061257600080fd5b505af1158015610626573d6000803e3d6000fd5b505050503373ffffffffffffffffffffffffffffffffffffffff166108fc829081150290604051600060405180830381858888f19350505050158015610670573d6000803e3d6000fd5b50809150509392505050565b60008073d0a1e359811322d97991e03f863a0c30c2cf029c73ffffffffffffffffffffffffffffffffffffffff1663095ea7b3734a6bc4e803c62081ffebcc8d227b5a87a58f1f8f876040518363ffffffff167c0100000000000000000000000000000000000000000000000000000000028152600401808373ffffffffffffffffffffffffffffffffffffffff1673ffffffffffffffffffffffffffffffffffffffff16815260200182815260200192505050602060405180830381600087803b15801561074a57600080fd5b505af115801561075e573d6000803e3d6000fd5b505050506040513d602081101561077457600080fd5b8101908080519060200190929190505050151561079057600080fd5b73d0a1e359811322d97991e03f863a0c30c2cf029c73ffffffffffffffffffffffffffffffffffffffff1663d0e30db0866040518263ffffffff167c01000000000000000000000000000000000000000000000000000000000281526004016000604051808303818588803b15801561080857600080fd5b505af115801561081c573d6000803e3d6000fd5b50505050506000734a6bc4e803c62081ffebcc8d227b5a87a58f1f8f73ffffffffffffffffffffffffffffffffffffffff16630621b4f673d0a1e359811322d97991e03f863a0c30c2cf029c888860006040518563ffffffff167c0100000000000000000000000000000000000000000000000000000000028152600401808573ffffffffffffffffffffffffffffffffffffffff1673ffffffffffffffffffffffffffffffffffffffff1681526020018481526020018373ffffffffffffffffffffffffffffffffffffffff1673ffffffffffffffffffffffffffffffffffffffff168152602001828152602001945050505050602060405180830381600087803b15801561092b57600080fd5b505af115801561093f573d6000803e3d6000fd5b505050506040513d602081101561095557600080fd5b810190808051906020019092919050505090508473ffffffffffffffffffffffffffffffffffffffff1663a9059cbb33836040518363ffffffff167c0100000000000000000000000000000000000000000000000000000000028152600401808373ffffffffffffffffffffffffffffffffffffffff1673ffffffffffffffffffffffffffffffffffffffff16815260200182815260200192505050602060405180830381600087803b158015610a0b57600080fd5b505af1158015610a1f573d6000803e3d6000fd5b505050506040513d6020811015610a3557600080fd5b8101908080519060200190929190505050508060008090509250925050935093915050565b60008073eeeeeeeeeeeeeeeeeeeeeeeeeeeeeeeeeeeeeeee73ffffffffffffffffffffffffffffffffffffffff168573ffffffffffffffffffffffffffffffffffffffff161415610bf457610be6734a6bc4e803c62081ffebcc8d227b5a87a58f1f8f73ffffffffffffffffffffffffffffffffffffffff1663144a27528673d0a1e359811322d97991e03f863a0c30c2cf029c876040518463ffffffff167c0100000000000000000000000000000000000000000000000000000000028152600401808473ffffffffffffffffffffffffffffffffffffffff1673ffffffffffffffffffffffffffffffffffffffff1681526020018373ffffffffffffffffffffffffffffffffffffffff1673ffffffffffffffffffffffffffffffffffffffff168152602001828152602001935050505060206040518083038186803b158015610ba557600080fd5b505afa158015610bb9573d6000803e3d6000fd5b505050506040513d6020811015610bcf57600080fd5b810190808051906020019092919050505084610d94565b600080905091509150610d8c565b73eeeeeeeeeeeeeeeeeeeeeeeeeeeeeeeeeeeeeeee73ffffffffffffffffffffffffffffffffffffffff168473ffffffffffffffffffffffffffffffffffffffff161415610d8b57610d7d734a6bc4e803c62081ffebcc8d227b5a87a58f1f8f73ffffffffffffffffffffffffffffffffffffffff1663144a275273d0a1e359811322d97991e03f863a0c30c2cf029c88876040518463ffffffff167c0100000000000000000000000000000000000000000000000000000000028152600401808473ffffffffffffffffffffffffffffffffffffffff1673ffffffffffffffffffffffffffffffffffffffff1681526020018373ffffffffffffffffffffffffffffffffffffffff1673ffffffffffffffffffffffffffffffffffffffff168152602001828152602001935050505060206040518083038186803b158015610d3c57600080fd5b505afa158015610d50573d6000803e3d6000fd5b505050506040513d6020811015610d6657600080fd5b810190808051906020019092919050505084610d94565b600080905091509150610d8c565b5b935093915050565b600081610dbe610dac85670de0b6b3a7640000610dd0565b600285811515610db857fe5b04610e00565b811515610dc757fe5b04905092915050565b600080821480610def57508282838502925082811515610dec57fe5b04145b1515610dfa57600080fd5b92915050565b60008282840191508110151515610e1657600080fd5b9291505056fea165627a7a72305820f995048f10e98dedcee2e694d06b421b554870ea77b420a98626840ff22389d90029",
  "source": "pragma solidity ^0.5.0;\n\nimport \"./interfaces/ERC20.sol\";\nimport \"./interfaces/KyberNetworkProxyInterface.sol\";\nimport \"./interfaces/ExchangeInterface.sol\";\nimport \"./interfaces/Eth2DaiInterface.sol\";\nimport \"./interfaces/TokenInterface.sol\";\nimport \"./DS/DSMath.sol\";\n\ncontract Eth2DaiWrapper is ExchangeInterface, DSMath {\n\n    address public constant KYBER_ETH_ADDRESS = 0xEeeeeEeeeEeEeeEeEeEeeEEEeeeeEeeeeeeeEEeE;\n\n    // Kovan\n    address public constant OTC_ADDRESS = 0x4A6bC4e803c62081ffEbCc8d227B5a87a58f1F8F;\n    address public constant WETH_ADDRESS = 0xd0A1E359811322d97991E03f863a0C30C2cF029C;\n\n    function swapEtherToToken (uint _ethAmount, address _tokenAddress, uint _maxAmount) external payable returns(uint, uint) {\n        require(ERC20(WETH_ADDRESS).approve(OTC_ADDRESS, _ethAmount));\n        TokenInterface(WETH_ADDRESS).deposit.value(_ethAmount)();\n\n        uint daiBought = Eth2DaiInterface(OTC_ADDRESS).sellAllAmount(ERC20(WETH_ADDRESS), _ethAmount,\n                 ERC20(_tokenAddress), 0);\n\n        ERC20(_tokenAddress).transfer(msg.sender, daiBought);\n\n        return (daiBought, 0);\n    }\n    \n    function swapTokenToEther (address _tokenAddress, uint _amount, uint _maxAmount) external returns(uint) {\n        require(ERC20(_tokenAddress).approve(OTC_ADDRESS, _amount));\n\n        uint ethBought = Eth2DaiInterface(OTC_ADDRESS).sellAllAmount(ERC20(_tokenAddress), _amount,\n         ERC20(WETH_ADDRESS), 0);\n\n        TokenInterface(WETH_ADDRESS).withdraw(ethBought);\n\n        msg.sender.transfer(ethBought);\n\n        return ethBought;\n    }\n\n    function getExpectedRate(address _src, address _dest, uint _srcQty) public returns (uint, uint) {\n        if(_src == KYBER_ETH_ADDRESS) {\n            return (wdiv(Eth2DaiInterface(OTC_ADDRESS).getBuyAmount(ERC20(_dest), ERC20(WETH_ADDRESS), _srcQty), _srcQty), 0);\n        } else if (_dest == KYBER_ETH_ADDRESS) {\n            return (wdiv(Eth2DaiInterface(OTC_ADDRESS).getBuyAmount(ERC20(WETH_ADDRESS), ERC20(_src), _srcQty), _srcQty), 0);\n        }\n    }\n\n    function() payable external {\n    }\n}",
  "sourcePath": "/Users/nenadpalinkasevic/Desktop/blockchain/cdpsaver-contracts/contracts/Eth2DaiWrapper.sol",
  "compiler": {
    "name": "solc",
    "version": "0.5.0+commit.1d4f565a.Emscripten.clang"
  },
  "schemaVersion": "3.0.0",
  "updatedAt": "2019-08-02T12:49:20.821Z",
  "devdoc": {
    "methods": {}
  },
  "userdoc": {
    "methods": {}
  }
}