{
  "contractName": "Marketplace",
  "abi": [
    {
      "constant": false,
      "inputs": [
        {
          "name": "owner_",
          "type": "address"
        }
      ],
      "name": "setOwner",
      "outputs": [],
      "payable": false,
      "stateMutability": "nonpayable",
      "type": "function"
    },
    {
      "constant": true,
      "inputs": [
        {
          "name": "",
          "type": "uint256"
        }
      ],
      "name": "itemsArr",
      "outputs": [
        {
          "name": "",
          "type": "bytes32"
        }
      ],
      "payable": false,
      "stateMutability": "view",
      "type": "function"
    },
    {
      "constant": true,
      "inputs": [],
      "name": "tub",
      "outputs": [
        {
          "name": "",
          "type": "address"
        }
      ],
      "payable": false,
      "stateMutability": "view",
      "type": "function"
    },
    {
      "constant": true,
      "inputs": [
        {
          "name": "",
          "type": "bytes32"
        }
      ],
      "name": "items",
      "outputs": [
        {
          "name": "owner",
          "type": "address"
        },
        {
          "name": "proxy",
          "type": "address"
        },
        {
          "name": "discount",
          "type": "uint256"
        },
        {
          "name": "active",
          "type": "bool"
        }
      ],
      "payable": false,
      "stateMutability": "view",
      "type": "function"
    },
    {
      "constant": false,
      "inputs": [
        {
          "name": "authority_",
          "type": "address"
        }
      ],
      "name": "setAuthority",
      "outputs": [],
      "payable": false,
      "stateMutability": "nonpayable",
      "type": "function"
    },
    {
      "constant": true,
      "inputs": [],
      "name": "registry",
      "outputs": [
        {
          "name": "",
          "type": "address"
        }
      ],
      "payable": false,
      "stateMutability": "view",
      "type": "function"
    },
    {
      "constant": true,
      "inputs": [],
      "name": "owner",
      "outputs": [
        {
          "name": "",
          "type": "address"
        }
      ],
      "payable": false,
      "stateMutability": "view",
      "type": "function"
    },
    {
      "constant": true,
      "inputs": [],
      "name": "marketplaceProxy",
      "outputs": [
        {
          "name": "",
          "type": "address"
        }
      ],
      "payable": false,
      "stateMutability": "view",
      "type": "function"
    },
    {
      "constant": true,
      "inputs": [],
      "name": "authority",
      "outputs": [
        {
          "name": "",
          "type": "address"
        }
      ],
      "payable": false,
      "stateMutability": "view",
      "type": "function"
    },
    {
      "constant": true,
      "inputs": [],
      "name": "fee",
      "outputs": [
        {
          "name": "",
          "type": "uint256"
        }
      ],
      "payable": false,
      "stateMutability": "view",
      "type": "function"
    },
    {
      "constant": true,
      "inputs": [
        {
          "name": "",
          "type": "bytes32"
        }
      ],
      "name": "itemPos",
      "outputs": [
        {
          "name": "",
          "type": "uint256"
        }
      ],
      "payable": false,
      "stateMutability": "view",
      "type": "function"
    },
    {
      "inputs": [
        {
          "name": "_marketplaceProxy",
          "type": "address"
        }
      ],
      "payable": false,
      "stateMutability": "nonpayable",
      "type": "constructor"
    },
    {
      "anonymous": false,
      "inputs": [
        {
          "indexed": true,
          "name": "cup",
          "type": "bytes32"
        },
        {
          "indexed": true,
          "name": "proxy",
          "type": "address"
        },
        {
          "indexed": false,
          "name": "owner",
          "type": "address"
        },
        {
          "indexed": false,
          "name": "discount",
          "type": "uint256"
        }
      ],
      "name": "OnSale",
      "type": "event"
    },
    {
      "anonymous": false,
      "inputs": [
        {
          "indexed": true,
          "name": "cup",
          "type": "bytes32"
        },
        {
          "indexed": true,
          "name": "newLad",
          "type": "address"
        },
        {
          "indexed": true,
          "name": "oldProxy",
          "type": "address"
        },
        {
          "indexed": false,
          "name": "oldOwner",
          "type": "address"
        },
        {
          "indexed": false,
          "name": "discount",
          "type": "uint256"
        }
      ],
      "name": "Bought",
      "type": "event"
    },
    {
      "anonymous": false,
      "inputs": [
        {
          "indexed": true,
          "name": "authority",
          "type": "address"
        }
      ],
      "name": "LogSetAuthority",
      "type": "event"
    },
    {
      "anonymous": false,
      "inputs": [
        {
          "indexed": true,
          "name": "owner",
          "type": "address"
        }
      ],
      "name": "LogSetOwner",
      "type": "event"
    },
    {
      "constant": false,
      "inputs": [
        {
          "name": "_cup",
          "type": "bytes32"
        },
        {
          "name": "_discount",
          "type": "uint256"
        }
      ],
      "name": "putOnSale",
      "outputs": [],
      "payable": false,
      "stateMutability": "nonpayable",
      "type": "function"
    },
    {
      "constant": false,
      "inputs": [
        {
          "name": "_cup",
          "type": "bytes32"
        },
        {
          "name": "_newOwner",
          "type": "address"
        }
      ],
      "name": "buy",
      "outputs": [],
      "payable": true,
      "stateMutability": "payable",
      "type": "function"
    },
    {
      "constant": false,
      "inputs": [
        {
          "name": "_cup",
          "type": "bytes32"
        }
      ],
      "name": "cancel",
      "outputs": [],
      "payable": false,
      "stateMutability": "nonpayable",
      "type": "function"
    },
    {
      "constant": false,
      "inputs": [],
      "name": "withdraw",
      "outputs": [],
      "payable": false,
      "stateMutability": "nonpayable",
      "type": "function"
    },
    {
      "constant": false,
      "inputs": [
        {
          "name": "_cup",
          "type": "bytes32"
        }
      ],
      "name": "getCdpPrice",
      "outputs": [
        {
          "name": "",
          "type": "uint256"
        },
        {
          "name": "",
          "type": "uint256"
        }
      ],
      "payable": false,
      "stateMutability": "nonpayable",
      "type": "function"
    },
    {
      "constant": true,
      "inputs": [],
      "name": "getItemsOnSale",
      "outputs": [
        {
          "name": "arr",
          "type": "bytes32[]"
        }
      ],
      "payable": false,
      "stateMutability": "view",
      "type": "function"
    },
    {
      "constant": true,
      "inputs": [
        {
          "name": "_cup",
          "type": "bytes32"
        }
      ],
      "name": "isOnSale",
      "outputs": [
        {
          "name": "",
          "type": "bool"
        }
      ],
      "payable": false,
      "stateMutability": "view",
      "type": "function"
    }
  ],
  "bytecode": "0x608060405260646006557364a436ae831c1672ae81f674cab8b6775df3475c600760006101000a81548173ffffffffffffffffffffffffffffffffffffffff021916908373ffffffffffffffffffffffffffffffffffffffff16021790555073a71937147b55deb8a530c7229c442fd3f31b7db2600860006101000a81548173ffffffffffffffffffffffffffffffffffffffff021916908373ffffffffffffffffffffffffffffffffffffffff1602179055503480156100bf57600080fd5b50604051602080612d78833981018060405260208110156100df57600080fd5b810190808051906020019092919050505033600160006101000a81548173ffffffffffffffffffffffffffffffffffffffff021916908373ffffffffffffffffffffffffffffffffffffffff1602179055503373ffffffffffffffffffffffffffffffffffffffff167fce241d7ca1f669fee44b6fc00b8eba2df3bb514eed0f6f668f8f89096e81ed9460405160405180910390a280600560006101000a81548173ffffffffffffffffffffffffffffffffffffffff021916908373ffffffffffffffffffffffffffffffffffffffff16021790555050612bb3806101c56000396000f3fe6080604052600436106100fc576000357c0100000000000000000000000000000000000000000000000000000000900463ffffffff16806313af4035146101015780631c19eb231461015257806334e70cc2146101a15780633661ab5c146101f85780633ccfd60b1461024b57806348f343f3146102625780634db4f981146103225780637a9e5e4b146103675780637b103999146103b85780638da5cb5b1461040f578063a06c9be214610466578063ac5e7f73146104bc578063bbcbc2e714610513578063bf7e214f1461057f578063c049604a146105d6578063c4d252f514610624578063ddca3f431461065f578063f97f5ba11461068a575b600080fd5b34801561010d57600080fd5b506101506004803603602081101561012457600080fd5b81019080803573ffffffffffffffffffffffffffffffffffffffff1690602001909291905050506106d9565b005b34801561015e57600080fd5b5061018b6004803603602081101561017557600080fd5b81019080803590602001909291905050506107bb565b6040518082815260200191505060405180910390f35b3480156101ad57600080fd5b506101b66107de565b604051808273ffffffffffffffffffffffffffffffffffffffff1673ffffffffffffffffffffffffffffffffffffffff16815260200191505060405180910390f35b34801561020457600080fd5b506102316004803603602081101561021b57600080fd5b8101908080359060200190929190505050610804565b604051808215151515815260200191505060405180910390f35b34801561025757600080fd5b50610260610831565b005b34801561026e57600080fd5b5061029b6004803603602081101561028557600080fd5b81019080803590602001909291905050506108ca565b604051808573ffffffffffffffffffffffffffffffffffffffff1673ffffffffffffffffffffffffffffffffffffffff1681526020018473ffffffffffffffffffffffffffffffffffffffff1673ffffffffffffffffffffffffffffffffffffffff1681526020018381526020018215151515815260200194505050505060405180910390f35b34801561032e57600080fd5b506103656004803603604081101561034557600080fd5b810190808035906020019092919080359060200190929190505050610947565b005b34801561037357600080fd5b506103b66004803603602081101561038a57600080fd5b81019080803573ffffffffffffffffffffffffffffffffffffffff169060200190929190505050610fea565b005b3480156103c457600080fd5b506103cd6110ca565b604051808273ffffffffffffffffffffffffffffffffffffffff1673ffffffffffffffffffffffffffffffffffffffff16815260200191505060405180910390f35b34801561041b57600080fd5b506104246110f0565b604051808273ffffffffffffffffffffffffffffffffffffffff1673ffffffffffffffffffffffffffffffffffffffff16815260200191505060405180910390f35b34801561047257600080fd5b5061049f6004803603602081101561048957600080fd5b8101908080359060200190929190505050611116565b604051808381526020018281526020019250505060405180910390f35b3480156104c857600080fd5b506104d1611a6c565b604051808273ffffffffffffffffffffffffffffffffffffffff1673ffffffffffffffffffffffffffffffffffffffff16815260200191505060405180910390f35b34801561051f57600080fd5b50610528611a92565b6040518080602001828103825283818151815260200191508051906020019060200280838360005b8381101561056b578082015181840152602081019050610550565b505050509050019250505060405180910390f35b34801561058b57600080fd5b50610594611c4a565b604051808273ffffffffffffffffffffffffffffffffffffffff1673ffffffffffffffffffffffffffffffffffffffff16815260200191505060405180910390f35b610622600480360360408110156105ec57600080fd5b8101908080359060200190929190803573ffffffffffffffffffffffffffffffffffffffff169060200190929190505050611c6f565b005b34801561063057600080fd5b5061065d6004803603602081101561064757600080fd5b8101908080359060200190929190505050612377565b005b34801561066b57600080fd5b506106746124ca565b6040518082815260200191505060405180910390f35b34801561069657600080fd5b506106c3600480360360208110156106ad57600080fd5b81019080803590602001909291905050506124d0565b6040518082815260200191505060405180910390f35b610707336000357fffffffff00000000000000000000000000000000000000000000000000000000166124e8565b151561071257600080fd5b80600160006101000a81548173ffffffffffffffffffffffffffffffffffffffff021916908373ffffffffffffffffffffffffffffffffffffffff160217905550600160009054906101000a900473ffffffffffffffffffffffffffffffffffffffff1673ffffffffffffffffffffffffffffffffffffffff167fce241d7ca1f669fee44b6fc00b8eba2df3bb514eed0f6f668f8f89096e81ed9460405160405180910390a250565b6004818154811015156107ca57fe5b906000526020600020016000915090505481565b600860009054906101000a900473ffffffffffffffffffffffffffffffffffffffff1681565b60006002600083815260200190815260200160002060030160009054906101000a900460ff169050919050565b61085f336000357fffffffff00000000000000000000000000000000000000000000000000000000166124e8565b151561086a57600080fd5b3373ffffffffffffffffffffffffffffffffffffffff166108fc3073ffffffffffffffffffffffffffffffffffffffff16319081150290604051600060405180830381858888f193505050501580156108c7573d6000803e3d6000fd5b50565b60026020528060005260406000206000915090508060000160009054906101000a900473ffffffffffffffffffffffffffffffffffffffff16908060010160009054906101000a900473ffffffffffffffffffffffffffffffffffffffff16908060020154908060030160009054906101000a900460ff16905084565b610951338361275d565b15156109eb576040517f08c379a000000000000000000000000000000000000000000000000000000000815260040180806020018281038252602b8152602001807f6d73672e73656e646572206d7573742062652070726f7879207768696368206f81526020017f776e73207468652063757000000000000000000000000000000000000000000081525060400191505060405180910390fd5b612710811080156109fc5750606481115b1515610a96576040517f08c379a000000000000000000000000000000000000000000000000000000000815260040180806020018281038252602c8152602001807f63616e27742068617665203130302520646973636f756e7420616e64206d757381526020017f74206265206f766572203125000000000000000000000000000000000000000081525060400191505060405180910390fd5b6000600860009054906101000a900473ffffffffffffffffffffffffffffffffffffffff1673ffffffffffffffffffffffffffffffffffffffff16631f3634ed846040518263ffffffff167c010000000000000000000000000000000000000000000000000000000002815260040180828152602001915050602060405180830381600087803b158015610b2957600080fd5b505af1158015610b3d573d6000803e3d6000fd5b505050506040513d6020811015610b5357600080fd5b8101908080519060200190929190505050118015610c3c57506000600860009054906101000a900473ffffffffffffffffffffffffffffffffffffffff1673ffffffffffffffffffffffffffffffffffffffff1663f7c8d634846040518263ffffffff167c010000000000000000000000000000000000000000000000000000000002815260040180828152602001915050602060405180830381600087803b158015610bff57600080fd5b505af1158015610c13573d6000803e3d6000fd5b505050506040513d6020811015610c2957600080fd5b8101908080519060200190929190505050115b1515610cd6576040517f08c379a000000000000000000000000000000000000000000000000000000000815260040180806020018281038252602c8152602001807f6d757374206861766520636f6c6c61746572616c20616e64206465627420746f81526020017f20707574206f6e2073616c65000000000000000000000000000000000000000081525060400191505060405180910390fd5b610cdf82610804565b151515610d54576040517f08c379a000000000000000000000000000000000000000000000000000000000815260040180806020018281038252601d8152602001807f63616e277420707574206120636470206f6e2073616c6520747769636500000081525060200191505060405180910390fd5b60003373ffffffffffffffffffffffffffffffffffffffff16638da5cb5b6040518163ffffffff167c0100000000000000000000000000000000000000000000000000000000028152600401602060405180830381600087803b158015610dba57600080fd5b505af1158015610dce573d6000803e3d6000fd5b505050506040513d6020811015610de457600080fd5b810190808051906020019092919050505090506080604051908101604052808273ffffffffffffffffffffffffffffffffffffffff1681526020013373ffffffffffffffffffffffffffffffffffffffff168152602001838152602001600115158152506002600085815260200190815260200160002060008201518160000160006101000a81548173ffffffffffffffffffffffffffffffffffffffff021916908373ffffffffffffffffffffffffffffffffffffffff16021790555060208201518160010160006101000a81548173ffffffffffffffffffffffffffffffffffffffff021916908373ffffffffffffffffffffffffffffffffffffffff1602179055506040820151816002015560608201518160030160006101000a81548160ff021916908315150217905550905050600483908060018154018082558091505090600182039060005260206000200160009091929091909150555060016004805490500360036000858152602001908152602001600020819055503373ffffffffffffffffffffffffffffffffffffffff16837fa23e1b9c0cc66d644699301966e3d07beee16a26448ed5807814abbec25025638385604051808373ffffffffffffffffffffffffffffffffffffffff1673ffffffffffffffffffffffffffffffffffffffff1681526020018281526020019250505060405180910390a3505050565b611018336000357fffffffff00000000000000000000000000000000000000000000000000000000166124e8565b151561102357600080fd5b806000806101000a81548173ffffffffffffffffffffffffffffffffffffffff021916908373ffffffffffffffffffffffffffffffffffffffff1602179055506000809054906101000a900473ffffffffffffffffffffffffffffffffffffffff1673ffffffffffffffffffffffffffffffffffffffff167f1abebea81bfa2637f28358c371278fb15ede7ea8dd28d2e03b112ff6d936ada460405160405180910390a250565b600760009054906101000a900473ffffffffffffffffffffffffffffffffffffffff1681565b600160009054906101000a900473ffffffffffffffffffffffffffffffffffffffff1681565b600080611121612adf565b60026000858152602001908152602001600020608060405190810160405290816000820160009054906101000a900473ffffffffffffffffffffffffffffffffffffffff1673ffffffffffffffffffffffffffffffffffffffff1673ffffffffffffffffffffffffffffffffffffffff1681526020016001820160009054906101000a900473ffffffffffffffffffffffffffffffffffffffff1673ffffffffffffffffffffffffffffffffffffffff1673ffffffffffffffffffffffffffffffffffffffff168152602001600282015481526020016003820160009054906101000a900460ff161515151581525050905060006113aa600860009054906101000a900473ffffffffffffffffffffffffffffffffffffffff1673ffffffffffffffffffffffffffffffffffffffff16631f3634ed876040518263ffffffff167c010000000000000000000000000000000000000000000000000000000002815260040180828152602001915050602060405180830381600087803b1580156112a957600080fd5b505af11580156112bd573d6000803e3d6000fd5b505050506040513d60208110156112d357600080fd5b8101908080519060200190929190505050600860009054906101000a900473ffffffffffffffffffffffffffffffffffffffff1673ffffffffffffffffffffffffffffffffffffffff16637ec9c3b86040518163ffffffff167c0100000000000000000000000000000000000000000000000000000000028152600401602060405180830381600087803b15801561136a57600080fd5b505af115801561137e573d6000803e3d6000fd5b505050506040513d602081101561139457600080fd5b810190808051906020019092919050505061286c565b9050600061178d611625600860009054906101000a900473ffffffffffffffffffffffffffffffffffffffff1673ffffffffffffffffffffffffffffffffffffffff1663f7c8d634896040518263ffffffff167c010000000000000000000000000000000000000000000000000000000002815260040180828152602001915050602060405180830381600087803b15801561144557600080fd5b505af1158015611459573d6000803e3d6000fd5b505050506040513d602081101561146f57600080fd5b8101908080519060200190929190505050611620600860009054906101000a900473ffffffffffffffffffffffffffffffffffffffff1673ffffffffffffffffffffffffffffffffffffffff16636f78ee0d8b6040518263ffffffff167c010000000000000000000000000000000000000000000000000000000002815260040180828152602001915050602060405180830381600087803b15801561151457600080fd5b505af1158015611528573d6000803e3d6000fd5b505050506040513d602081101561153e57600080fd5b8101908080519060200190929190505050600860009054906101000a900473ffffffffffffffffffffffffffffffffffffffff1673ffffffffffffffffffffffffffffffffffffffff1663f7c8d6348c6040518263ffffffff167c010000000000000000000000000000000000000000000000000000000002815260040180828152602001915050602060405180830381600087803b1580156115e057600080fd5b505af11580156115f4573d6000803e3d6000fd5b505050506040513d602081101561160a57600080fd5b81019080805190602001909291905050506128b8565b61286c565b600860009054906101000a900473ffffffffffffffffffffffffffffffffffffffff1673ffffffffffffffffffffffffffffffffffffffff1663d741e2f96040518163ffffffff167c0100000000000000000000000000000000000000000000000000000000028152600401602060405180830381600087803b1580156116ab57600080fd5b505af11580156116bf573d6000803e3d6000fd5b505050506040513d60208110156116d557600080fd5b810190808051906020019092919050505073ffffffffffffffffffffffffffffffffffffffff166357de26a46040518163ffffffff167c0100000000000000000000000000000000000000000000000000000000028152600401602060405180830381600087803b15801561174957600080fd5b505af115801561175d573d6000803e3d6000fd5b505050506040513d602081101561177357600080fd5b8101908080519060200190929190505050600190046128f8565b905060006119d1826119cc600860009054906101000a900473ffffffffffffffffffffffffffffffffffffffff1673ffffffffffffffffffffffffffffffffffffffff1663f7c8d6348b6040518263ffffffff167c010000000000000000000000000000000000000000000000000000000002815260040180828152602001915050602060405180830381600087803b15801561182957600080fd5b505af115801561183d573d6000803e3d6000fd5b505050506040513d602081101561185357600080fd5b8101908080519060200190929190505050600860009054906101000a900473ffffffffffffffffffffffffffffffffffffffff1673ffffffffffffffffffffffffffffffffffffffff1663d741e2f96040518163ffffffff167c0100000000000000000000000000000000000000000000000000000000028152600401602060405180830381600087803b1580156118ea57600080fd5b505af11580156118fe573d6000803e3d6000fd5b505050506040513d602081101561191457600080fd5b810190808051906020019092919050505073ffffffffffffffffffffffffffffffffffffffff166357de26a46040518163ffffffff167c0100000000000000000000000000000000000000000000000000000000028152600401602060405180830381600087803b15801561198857600080fd5b505af115801561199c573d6000803e3d6000fd5b505050506040513d60208110156119b257600080fd5b8101908080519060200190929190505050600190046128f8565b612934565b90506000809050600654856040015111156119fd576119f68560400151600654612950565b9050611a05565b846040015190505b6000612710611a28611a178786612950565b611a2361271086612950565b61296c565b811515611a3157fe5b0490506000612710611a4e611a468887612950565b60065461296c565b811515611a5757fe5b04905081819850985050505050505050915091565b600560009054906101000a900473ffffffffffffffffffffffffffffffffffffffff1681565b60606000809050600480549050604051908082528060200260200182016040528015611acd5781602001602082028038833980820191505090505b50915060008090505b600480549050811015611c4557600073ffffffffffffffffffffffffffffffffffffffff16600860009054906101000a900473ffffffffffffffffffffffffffffffffffffffff1673ffffffffffffffffffffffffffffffffffffffff1663de5f5517600484815481101515611b4857fe5b90600052602060002001546040518263ffffffff167c01000000000000000000000000000000000000000000000000000000000281526004018082815260200191505060206040518083038186803b158015611ba357600080fd5b505afa158015611bb7573d6000803e3d6000fd5b505050506040513d6020811015611bcd57600080fd5b810190808051906020019092919050505073ffffffffffffffffffffffffffffffffffffffff16141515611c3a57600481815481101515611c0a57fe5b90600052602060002001548383815181101515611c2357fe5b906020019060200201818152505081806001019250505b806001019050611ad6565b505090565b6000809054906101000a900473ffffffffffffffffffffffffffffffffffffffff1681565b6000600260008481526020019081526020016000209050600115158160030160009054906101000a900460ff161515141515611d13576040517f08c379a00000000000000000000000000000000000000000000000000000000081526004018080602001828103825260178152602001807f436865636b20696620637570206973206f6e2073616c6500000000000000000081525060200191505060405180910390fd5b600860009054906101000a900473ffffffffffffffffffffffffffffffffffffffff1673ffffffffffffffffffffffffffffffffffffffff1663de5f5517846040518263ffffffff167c01000000000000000000000000000000000000000000000000000000000281526004018082815260200191505060206040518083038186803b158015611da257600080fd5b505afa158015611db6573d6000803e3d6000fd5b505050506040513d6020811015611dcc57600080fd5b810190808051906020019092919050505073ffffffffffffffffffffffffffffffffffffffff168160010160009054906101000a900473ffffffffffffffffffffffffffffffffffffffff1673ffffffffffffffffffffffffffffffffffffffff16141515611ea3576040517f08c379a000000000000000000000000000000000000000000000000000000000815260040180806020018281038252601c8152602001807f546865206f776e6572206d7573742073746179207468652073616d650000000081525060200191505060405180910390fd5b600080611eaf85611116565b8092508193505050813410151515611f55576040517f08c379a000000000000000000000000000000000000000000000000000000000815260040180806020018281038252602a8152602001807f436865636b20696620656e6f7567682065746865722069732073656e7420666f81526020017f722074686973206375700000000000000000000000000000000000000000000081525060400191505060405180910390fd5b60008360030160006101000a81548160ff0219169083151502179055508260010160009054906101000a900473ffffffffffffffffffffffffffffffffffffffff1673ffffffffffffffffffffffffffffffffffffffff16631cff79cd600560009054906101000a900473ffffffffffffffffffffffffffffffffffffffff168787604051602401808381526020018273ffffffffffffffffffffffffffffffffffffffff1673ffffffffffffffffffffffffffffffffffffffff168152602001925050506040516020818303038152906040527fbaa8529c000000000000000000000000000000000000000000000000000000007bffffffffffffffffffffffffffffffffffffffffffffffffffffffff19166020820180517bffffffffffffffffffffffffffffffffffffffffffffffffffffffff83818316178352505050506040518363ffffffff167c0100000000000000000000000000000000000000000000000000000000028152600401808373ffffffffffffffffffffffffffffffffffffffff1673ffffffffffffffffffffffffffffffffffffffff16815260200180602001828103825283818151815260200191508051906020019080838360005b83811015612134578082015181840152602081019050612119565b50505050905090810190601f1680156121615780820380516001836020036101000a031916815260200191505b509350505050602060405180830381600087803b15801561218157600080fd5b505af1158015612195573d6000803e3d6000fd5b505050506040513d60208110156121ab57600080fd5b8101908080519060200190929190505050508260000160009054906101000a900473ffffffffffffffffffffffffffffffffffffffff1673ffffffffffffffffffffffffffffffffffffffff166108fc6122058484612950565b9081150290604051600060405180830381858888f19350505050158015612230573d6000803e3d6000fd5b503373ffffffffffffffffffffffffffffffffffffffff166108fc6122553485612950565b9081150290604051600060405180830381858888f19350505050158015612280573d6000803e3d6000fd5b508260010160009054906101000a900473ffffffffffffffffffffffffffffffffffffffff1673ffffffffffffffffffffffffffffffffffffffff163373ffffffffffffffffffffffffffffffffffffffff16867f786e1e7a3c34c913b4bac247ef51a76aacc938cd4eb2149cac51da7a314d19528660000160009054906101000a900473ffffffffffffffffffffffffffffffffffffffff168760020154604051808373ffffffffffffffffffffffffffffffffffffffff1673ffffffffffffffffffffffffffffffffffffffff1681526020018281526020019250505060405180910390a46123708561299c565b5050505050565b612381338261275d565b151561241b576040517f08c379a00000000000000000000000000000000000000000000000000000000081526004018080602001828103825260288152602001807f6d73672e73656e646572206d7573742070726f7879207768696368206f776e7381526020017f207468652063757000000000000000000000000000000000000000000000000081525060400191505060405180910390fd5b61242481610804565b15156124be576040517f08c379a00000000000000000000000000000000000000000000000000000000081526004018080602001828103825260218152602001807f6f6e6c792063616e63656c2063647073207468617420617265206f6e2073616c81526020017f650000000000000000000000000000000000000000000000000000000000000081525060400191505060405180910390fd5b6124c78161299c565b50565b60065481565b60036020528060005260406000206000915090505481565b60003073ffffffffffffffffffffffffffffffffffffffff168373ffffffffffffffffffffffffffffffffffffffff1614156125275760019050612757565b600160009054906101000a900473ffffffffffffffffffffffffffffffffffffffff1673ffffffffffffffffffffffffffffffffffffffff168373ffffffffffffffffffffffffffffffffffffffff1614156125865760019050612757565b600073ffffffffffffffffffffffffffffffffffffffff166000809054906101000a900473ffffffffffffffffffffffffffffffffffffffff1673ffffffffffffffffffffffffffffffffffffffff1614156125e55760009050612757565b6000809054906101000a900473ffffffffffffffffffffffffffffffffffffffff1673ffffffffffffffffffffffffffffffffffffffff1663b70096138430856040518463ffffffff167c0100000000000000000000000000000000000000000000000000000000028152600401808473ffffffffffffffffffffffffffffffffffffffff1673ffffffffffffffffffffffffffffffffffffffff1681526020018373ffffffffffffffffffffffffffffffffffffffff1673ffffffffffffffffffffffffffffffffffffffff168152602001827bffffffffffffffffffffffffffffffffffffffffffffffffffffffff19167bffffffffffffffffffffffffffffffffffffffffffffffffffffffff19168152602001935050505060206040518083038186803b15801561271957600080fd5b505afa15801561272d573d6000803e3d6000fd5b505050506040513d602081101561274357600080fd5b810190808051906020019092919050505090505b92915050565b60008273ffffffffffffffffffffffffffffffffffffffff16600860009054906101000a900473ffffffffffffffffffffffffffffffffffffffff1673ffffffffffffffffffffffffffffffffffffffff1663de5f5517846040518263ffffffff167c01000000000000000000000000000000000000000000000000000000000281526004018082815260200191505060206040518083038186803b15801561280557600080fd5b505afa158015612819573d6000803e3d6000fd5b505050506040513d602081101561282f57600080fd5b810190808051906020019092919050505073ffffffffffffffffffffffffffffffffffffffff1614151561286257600080fd5b6001905092915050565b60006b033b2e3c9fd0803ce80000006128a6612888858561296c565b60026b033b2e3c9fd0803ce80000008115156128a057fe5b04612934565b8115156128af57fe5b04905092915050565b6000816128e66128d4856b033b2e3c9fd0803ce800000061296c565b6002858115156128e057fe5b04612934565b8115156128ef57fe5b04905092915050565b60008161292261291085670de0b6b3a764000061296c565b60028581151561291c57fe5b04612934565b81151561292b57fe5b04905092915050565b6000828284019150811015151561294a57600080fd5b92915050565b6000828284039150811115151561296657600080fd5b92915050565b60008082148061298b5750828283850292508281151561298857fe5b04145b151561299657600080fd5b92915050565b60026000828152602001908152602001600020600080820160006101000a81549073ffffffffffffffffffffffffffffffffffffffff02191690556001820160006101000a81549073ffffffffffffffffffffffffffffffffffffffff021916905560028201600090556003820160006101000a81549060ff021916905550506000600360008381526020019081526020016000205490506004600160048054905003815481101515612a4b57fe5b9060005260206000200154600482815481101515612a6557fe5b90600052602060002001819055506000600360008481526020019081526020016000208190555080600360006004600160048054905003815481101515612aa857fe5b90600052602060002001548152602001908152602001600020819055506004805480919060019003612ada9190612b36565b505050565b608060405190810160405280600073ffffffffffffffffffffffffffffffffffffffff168152602001600073ffffffffffffffffffffffffffffffffffffffff168152602001600081526020016000151581525090565b815481835581811115612b5d57818360005260206000209182019101612b5c9190612b62565b5b505050565b612b8491905b80821115612b80576000816000905550600101612b68565b5090565b9056fea165627a7a723058206ca6f2cd7ca5b402076e66ebe15dc3ca1d868d67bceb23a8b0345aba907c2a390029",
  "source": "pragma solidity 0.5.0;\n\nimport \"./DS/DSMath.sol\";\nimport \"./DS/DSAuth.sol\";\nimport \"./interfaces/TubInterface.sol\";\nimport \"./interfaces/ProxyRegistryInterface.sol\";\n\n/// @title Marketplace keeps track of all the CDPs and implements the buy logic through MarketplaceProxy\ncontract Marketplace is DSAuth, DSMath {\n\n    struct SaleItem {\n        address payable owner;\n        address payable proxy;\n        uint discount;\n        bool active;\n    }\n \n    mapping (bytes32 => SaleItem) public items;\n    mapping (bytes32 => uint) public itemPos;\n    bytes32[] public itemsArr;\n\n    address public marketplaceProxy;\n\n    // 2 decimal percision when defining the disocunt value\n    uint public fee = 100; //1% fee\n\n    // KOVAN\n    ProxyRegistryInterface public registry = ProxyRegistryInterface(0x64A436ae831C1672AE81F674CAb8B6775df3475C);\n    TubInterface public tub = TubInterface(0xa71937147b55Deb8a530C7229C442Fd3F31b7db2);\n\n    event OnSale(bytes32 indexed cup, address indexed proxy, address owner, uint discount);\n\n    event Bought(bytes32 indexed cup, address indexed newLad, address indexed oldProxy,\n                address oldOwner, uint discount);\n\n    constructor(address _marketplaceProxy) public {\n        marketplaceProxy = _marketplaceProxy;\n    }\n\n    /// @notice User calls this method to put a CDP on sale which he must own\n    /// @dev Must be called by DSProxy contract in order to authorize for sale\n    /// @param _cup Id of the CDP that is being put on sale\n    /// @param _discount Discount of the original value, goes from 0 - 99% with 2 decimal percision\n    function putOnSale(bytes32 _cup, uint _discount) public {\n        require(isOwner(msg.sender, _cup), \"msg.sender must be proxy which owns the cup\");\n        require(_discount < 10000 && _discount > 100, \"can't have 100% discount and must be over 1%\");\n        require(tub.ink(_cup) > 0 && tub.tab(_cup) > 0, \"must have collateral and debt to put on sale\");\n        require(!isOnSale(_cup), \"can't put a cdp on sale twice\");\n\n        address payable owner = address(uint160(DSProxyInterface(msg.sender).owner()));\n\n        items[_cup] = SaleItem({\n            discount: _discount,\n            proxy: msg.sender,\n            owner: owner,\n            active: true\n        });\n\n        itemsArr.push(_cup);\n        itemPos[_cup] = itemsArr.length - 1;\n\n        emit OnSale(_cup, msg.sender, owner, _discount);\n    }\n\n    /// @notice Any user can call this method to buy a CDP\n    /// @dev This will fail if the CDP owner was changed\n    /// @param _cup Id of the CDP you want to buy\n    function buy(bytes32 _cup, address _newOwner) public payable {\n        SaleItem storage item = items[_cup];\n\n        require(item.active == true, \"Check if cup is on sale\");\n        require(item.proxy == tub.lad(_cup), \"The owner must stay the same\");\n\n        uint cdpPrice;\n        uint feeAmount;\n\n        (cdpPrice, feeAmount) = getCdpPrice(_cup);\n\n        require(msg.value >= cdpPrice, \"Check if enough ether is sent for this cup\");\n\n        item.active = false;\n\n        // give the cup to the buyer, him becoming the lad that owns the cup\n        DSProxyInterface(item.proxy).execute(marketplaceProxy, \n            abi.encodeWithSignature(\"give(bytes32,address)\", _cup, _newOwner));\n\n        item.owner.transfer(sub(cdpPrice, feeAmount)); // transfer money to the seller\n\n        msg.sender.transfer(sub(msg.value, cdpPrice));\n\n        emit Bought(_cup, msg.sender, item.proxy, item.owner, item.discount);\n\n        removeItem(_cup);\n\n    }\n\n    /// @notice Remove the CDP from the marketplace\n    /// @param _cup Id of the CDP\n    function cancel(bytes32 _cup) public {\n        require(isOwner(msg.sender, _cup), \"msg.sender must proxy which owns the cup\");\n        require(isOnSale(_cup), \"only cancel cdps that are on sale\");\n        \n        removeItem(_cup);\n    }\n\n    /// @notice A only owner functon which withdraws Eth balance\n    function withdraw() public auth {\n        msg.sender.transfer(address(this).balance);\n    }\n\n    /// @notice Calculates the price of the CDP given the discount and the fee\n    /// @param _cup Id of the CDP\n    /// @return It returns the price of the CDP and the amount needed for the contracts fee\n    function getCdpPrice(bytes32 _cup) public returns(uint, uint) {\n        SaleItem memory item = items[_cup];\n\n        uint collateral = rmul(tub.ink(_cup), tub.per()); // collateral in Eth\n        uint govFee = wdiv(rmul(tub.tab(_cup), rdiv(tub.rap(_cup), tub.tab(_cup))), uint(tub.pip().read()));\n        uint debt = add(govFee, wdiv(tub.tab(_cup), uint(tub.pip().read()))); // debt in Eth\n\n        uint difference = 0;\n\n        if (item.discount > fee) {\n            difference = sub(item.discount, fee);\n        } else {\n            difference = item.discount;\n        }\n\n        uint cdpPrice = mul(sub(collateral, debt), (sub(10000, difference))) / 10000;\n        uint feeAmount = mul(sub(collateral, debt), fee) / 10000;\n\n        return (cdpPrice, feeAmount);\n    }\n\n    /// @notice Used by front to fetch what is on sale\n    /// @return Returns all CDP ids that are on sale and are not closed\n    function getItemsOnSale() public view returns(bytes32[] memory arr) {\n        uint n = 0;\n\n        arr = new bytes32[](itemsArr.length);\n        for (uint i = 0; i < itemsArr.length; ++i) {\n            if (tub.lad(itemsArr[i]) != address(0)) {\n                arr[n] = itemsArr[i];\n                n++;\n            }\n        }\n\n    }\n\n    /// @notice Helper method to check if a CDP is on sale\n    /// @return True|False depending if it is on sale\n    function isOnSale(bytes32 _cup) public view returns (bool) {\n        return items[_cup].active;\n    }\n\n    function removeItem(bytes32 _cup) internal {\n        delete items[_cup];\n\n        uint index = itemPos[_cup];\n        itemsArr[index] = itemsArr[itemsArr.length - 1];\n\n        itemPos[_cup] = 0;\n        itemPos[itemsArr[itemsArr.length - 1]] = index;\n\n        itemsArr.length--;\n    }\n\n    function isOwner(address _owner, bytes32 _cup) internal view returns(bool) {         \n        require(tub.lad(_cup) == _owner);\n\n        return true;\n    }\n\n}\n",
  "sourcePath": "/Users/nenadpalinkasevic/Desktop/blockchain/cdpsaver-contracts/contracts/Marketplace.sol",
  "compiler": {
    "name": "solc",
    "version": "0.5.0+commit.1d4f565a.Emscripten.clang"
  },
  "schemaVersion": "3.0.0",
  "updatedAt": "2019-08-15T08:25:24.148Z",
  "devdoc": {
    "methods": {
      "buy(bytes32,address)": {
        "details": "This will fail if the CDP owner was changed",
        "params": {
          "_cup": "Id of the CDP you want to buy"
        }
      },
      "cancel(bytes32)": {
        "params": {
          "_cup": "Id of the CDP"
        }
      },
      "getCdpPrice(bytes32)": {
        "params": {
          "_cup": "Id of the CDP"
        },
        "return": "It returns the price of the CDP and the amount needed for the contracts fee"
      },
      "getItemsOnSale()": {
        "return": "Returns all CDP ids that are on sale and are not closed"
      },
      "isOnSale(bytes32)": {
        "return": "True|False depending if it is on sale"
      },
      "putOnSale(bytes32,uint256)": {
        "details": "Must be called by DSProxy contract in order to authorize for sale",
        "params": {
          "_cup": "Id of the CDP that is being put on sale",
          "_discount": "Discount of the original value, goes from 0 - 99% with 2 decimal percision"
        }
      }
    },
    "title": "Marketplace keeps track of all the CDPs and implements the buy logic through MarketplaceProxy"
  },
  "userdoc": {
    "methods": {
      "buy(bytes32,address)": {
        "notice": "Any user can call this method to buy a CDP"
      },
      "cancel(bytes32)": {
        "notice": "Remove the CDP from the marketplace"
      },
      "getCdpPrice(bytes32)": {
        "notice": "Calculates the price of the CDP given the discount and the fee"
      },
      "getItemsOnSale()": {
        "notice": "Used by front to fetch what is on sale"
      },
      "isOnSale(bytes32)": {
        "notice": "Helper method to check if a CDP is on sale"
      },
      "putOnSale(bytes32,uint256)": {
        "notice": "User calls this method to put a CDP on sale which he must own"
      },
      "withdraw()": {
        "notice": "A only owner functon which withdraws Eth balance"
      }
    }
  }
}