{
  "contractName": "MarketplaceProxy",
  "abi": [
    {
      "constant": true,
      "inputs": [],
      "name": "FACTORY_ADDRESS",
      "outputs": [
        {
          "name": "",
          "type": "address"
        }
      ],
      "payable": false,
      "stateMutability": "view",
      "type": "function"
    },
    {
      "constant": true,
      "inputs": [],
      "name": "TUB_ADDRESS",
      "outputs": [
        {
          "name": "",
          "type": "address"
        }
      ],
      "payable": false,
      "stateMutability": "view",
      "type": "function"
    },
    {
      "constant": false,
      "inputs": [
        {
          "name": "_cup",
          "type": "bytes32"
        },
        {
          "name": "_newOwner",
          "type": "address"
        }
      ],
      "name": "give",
      "outputs": [],
      "payable": false,
      "stateMutability": "nonpayable",
      "type": "function"
    },
    {
      "constant": false,
      "inputs": [
        {
          "name": "_cup",
          "type": "bytes32"
        },
        {
          "name": "_discount",
          "type": "uint256"
        },
        {
          "name": "_marketplace",
          "type": "address"
        },
        {
          "name": "_proxy",
          "type": "address"
        }
      ],
      "name": "createAuthorizeAndSell",
      "outputs": [],
      "payable": false,
      "stateMutability": "nonpayable",
      "type": "function"
    },
    {
      "constant": false,
      "inputs": [
        {
          "name": "_cup",
          "type": "bytes32"
        },
        {
          "name": "_discount",
          "type": "uint256"
        },
        {
          "name": "_marketplace",
          "type": "address"
        },
        {
          "name": "_proxy",
          "type": "address"
        }
      ],
      "name": "authorizeAndSell",
      "outputs": [],
      "payable": false,
      "stateMutability": "nonpayable",
      "type": "function"
    },
    {
      "constant": false,
      "inputs": [
        {
          "name": "_cup",
          "type": "bytes32"
        },
        {
          "name": "_discount",
          "type": "uint256"
        },
        {
          "name": "_marketplace",
          "type": "address"
        }
      ],
      "name": "sell",
      "outputs": [],
      "payable": false,
      "stateMutability": "nonpayable",
      "type": "function"
    },
    {
      "constant": false,
      "inputs": [
        {
          "name": "_cup",
          "type": "bytes32"
        },
        {
          "name": "_marketplace",
          "type": "address"
        }
      ],
      "name": "cancel",
      "outputs": [],
      "payable": false,
      "stateMutability": "nonpayable",
      "type": "function"
    }
  ],
  "bytecode": "0x608060405234801561001057600080fd5b50610b6c806100206000396000f3fe608060405260043610610083576000357c0100000000000000000000000000000000000000000000000000000000900463ffffffff16806318c6926e1461008857806322cae9a21461010d5780638823151b1461016857806390423e44146101bf578063baa8529c14610224578063d3ee65811461027f578063f0d405e514610304575b600080fd5b34801561009457600080fd5b5061010b600480360360808110156100ab57600080fd5b810190808035906020019092919080359060200190929190803573ffffffffffffffffffffffffffffffffffffffff169060200190929190803573ffffffffffffffffffffffffffffffffffffffff16906020019092919050505061035b565b005b34801561011957600080fd5b506101666004803603604081101561013057600080fd5b8101908080359060200190929190803573ffffffffffffffffffffffffffffffffffffffff1690602001909291905050506105d5565b005b34801561017457600080fd5b5061017d610660565b604051808273ffffffffffffffffffffffffffffffffffffffff1673ffffffffffffffffffffffffffffffffffffffff16815260200191505060405180910390f35b3480156101cb57600080fd5b50610222600480360360608110156101e257600080fd5b810190808035906020019092919080359060200190929190803573ffffffffffffffffffffffffffffffffffffffff169060200190929190505050610678565b005b34801561023057600080fd5b5061027d6004803603604081101561024757600080fd5b8101908080359060200190929190803573ffffffffffffffffffffffffffffffffffffffff16906020019092919050505061070c565b005b34801561028b57600080fd5b50610302600480360360808110156102a257600080fd5b810190808035906020019092919080359060200190929190803573ffffffffffffffffffffffffffffffffffffffff169060200190929190803573ffffffffffffffffffffffffffffffffffffffff1690602001909291905050506107e5565b005b34801561031057600080fd5b50610319610b28565b604051808273ffffffffffffffffffffffffffffffffffffffff1673ffffffffffffffffffffffffffffffffffffffff16815260200191505060405180910390f35b60008173ffffffffffffffffffffffffffffffffffffffff1663bf7e214f6040518163ffffffff167c010000000000000000000000000000000000000000000000000000000002815260040160206040518083038186803b1580156103bf57600080fd5b505afa1580156103d3573d6000803e3d6000fd5b505050506040513d60208110156103e957600080fd5b810190808051906020019092919050505090508073ffffffffffffffffffffffffffffffffffffffff1663cbeea68c848460405180807f6578656375746528616464726573732c62797465732900000000000000000000815250601601905060405180910390206040518463ffffffff167c0100000000000000000000000000000000000000000000000000000000028152600401808473ffffffffffffffffffffffffffffffffffffffff1673ffffffffffffffffffffffffffffffffffffffff1681526020018373ffffffffffffffffffffffffffffffffffffffff1673ffffffffffffffffffffffffffffffffffffffff168152602001827bffffffffffffffffffffffffffffffffffffffffffffffffffffffff191681526020019350505050600060405180830381600087803b15801561052757600080fd5b505af115801561053b573d6000803e3d6000fd5b505050508273ffffffffffffffffffffffffffffffffffffffff16634db4f98186866040518363ffffffff167c01000000000000000000000000000000000000000000000000000000000281526004018083815260200182815260200192505050600060405180830381600087803b1580156105b657600080fd5b505af11580156105ca573d6000803e3d6000fd5b505050505050505050565b8073ffffffffffffffffffffffffffffffffffffffff1663c4d252f5836040518263ffffffff167c010000000000000000000000000000000000000000000000000000000002815260040180828152602001915050600060405180830381600087803b15801561064457600080fd5b505af1158015610658573d6000803e3d6000fd5b505050505050565b73c72e74e474682680a414b506699bbca44ab9a93081565b8073ffffffffffffffffffffffffffffffffffffffff16634db4f98184846040518363ffffffff167c01000000000000000000000000000000000000000000000000000000000281526004018083815260200182815260200192505050600060405180830381600087803b1580156106ef57600080fd5b505af1158015610703573d6000803e3d6000fd5b50505050505050565b600073a71937147b55deb8a530c7229c442fd3f31b7db290508073ffffffffffffffffffffffffffffffffffffffff1663baa8529c84846040518363ffffffff167c0100000000000000000000000000000000000000000000000000000000028152600401808381526020018273ffffffffffffffffffffffffffffffffffffffff1673ffffffffffffffffffffffffffffffffffffffff16815260200192505050600060405180830381600087803b1580156107c857600080fd5b505af11580156107dc573d6000803e3d6000fd5b50505050505050565b600073c72e74e474682680a414b506699bbca44ab9a93073ffffffffffffffffffffffffffffffffffffffff166365688cc96040518163ffffffff167c0100000000000000000000000000000000000000000000000000000000028152600401602060405180830381600087803b15801561085f57600080fd5b505af1158015610873573d6000803e3d6000fd5b505050506040513d602081101561088957600080fd5b810190808051906020019092919050505090508173ffffffffffffffffffffffffffffffffffffffff16637a9e5e4b826040518263ffffffff167c0100000000000000000000000000000000000000000000000000000000028152600401808273ffffffffffffffffffffffffffffffffffffffff1673ffffffffffffffffffffffffffffffffffffffff168152602001915050600060405180830381600087803b15801561093757600080fd5b505af115801561094b573d6000803e3d6000fd5b505050508073ffffffffffffffffffffffffffffffffffffffff1663cbeea68c848460405180807f6578656375746528616464726573732c62797465732900000000000000000000815250601601905060405180910390206040518463ffffffff167c0100000000000000000000000000000000000000000000000000000000028152600401808473ffffffffffffffffffffffffffffffffffffffff1673ffffffffffffffffffffffffffffffffffffffff1681526020018373ffffffffffffffffffffffffffffffffffffffff1673ffffffffffffffffffffffffffffffffffffffff168152602001827bffffffffffffffffffffffffffffffffffffffffffffffffffffffff191681526020019350505050600060405180830381600087803b158015610a7a57600080fd5b505af1158015610a8e573d6000803e3d6000fd5b505050508273ffffffffffffffffffffffffffffffffffffffff16634db4f98186866040518363ffffffff167c01000000000000000000000000000000000000000000000000000000000281526004018083815260200182815260200192505050600060405180830381600087803b158015610b0957600080fd5b505af1158015610b1d573d6000803e3d6000fd5b505050505050505050565b73a71937147b55deb8a530c7229c442fd3f31b7db28156fea165627a7a72305820020234ae93018bcb464aeb030100a3d9584e3af3ce8ec8614681422db50ebb050029",
  "source": "pragma solidity 0.5.0;\n\nimport \"./interfaces/TubInterface.sol\";\nimport \"./DS/DSGuard.sol\";\nimport \"./Marketplace.sol\";\n\n/// @title MarketplaceProxy handles authorization and interaction with the Marketplace contract\ncontract MarketplaceProxy {\n    address public constant TUB_ADDRESS = 0xa71937147b55Deb8a530C7229C442Fd3F31b7db2;\n    address public constant FACTORY_ADDRESS = 0xc72E74E474682680a414b506699bBcA44ab9a930;\n\n    ///@dev Called by the Marketplace contract, will give CDP only if you're authorized or CDP owner\n    ///@param _cup CDP Id\n    ///@param _newOwner Transfer the CDP to this address\n    function give(bytes32 _cup, address _newOwner) public {\n        TubInterface tub = TubInterface(TUB_ADDRESS);\n\n        tub.give(_cup, _newOwner);\n    }\n\n    ///@dev Creates a new DSGuard for the user, authorizes the marketplace contract and puts on sale the cdp\n    ///@param _cup CDP Id\n    ///@param _discount 4 digit number representing a discount of CDP value (0-9999)\n    ///@param _marketplace Address of the marketplace contract \n    function createAuthorizeAndSell(bytes32 _cup, uint _discount, address _marketplace, address _proxy) public {\n        DSGuard guard = DSGuardFactory(FACTORY_ADDRESS).newGuard();\n        DSAuth(_proxy).setAuthority(DSAuthority(address(guard)));\n\n        guard.permit(_marketplace, _proxy, bytes4(keccak256(\"execute(address,bytes)\")));\n\n        Marketplace(_marketplace).putOnSale(_cup, _discount);\n    }\n\n    ///@dev If the user already own a DSGuard but isn't authorized, authorizes the marketplace contract and sell\n    ///@param _cup CDP Id\n    ///@param _discount 4 digit number representing a discount of CDP value (0-9999)\n    ///@param _marketplace Address of the marketplace contract \n    function authorizeAndSell(bytes32 _cup, uint _discount, address _marketplace, address _proxy) public {\n        DSGuard guard = DSGuard(address(DSAuth(_proxy).authority()));\n        guard.permit(_marketplace, _proxy, bytes4(keccak256(\"execute(address,bytes)\")));\n\n        Marketplace(_marketplace).putOnSale(_cup, _discount);\n    }\n\n    ///@dev Put a cdp on sale, if the user already has a DSGuard and authorized it\n    ///@param _cup CDP Id\n    ///@param _discount 4 digit number representing a discount of CDP value (0-9999)\n    ///@param _marketplace Address of the marketplace contract \n    function sell(bytes32 _cup, uint _discount, address _marketplace) public {\n        Marketplace(_marketplace).putOnSale(_cup, _discount);\n    }\n\n    ///@dev Cancel a CDP on sale\n    ///@param _cup CDP Id\n    ///@param _marketplace Address of the marketplace contract \n    function cancel(bytes32 _cup, address _marketplace) public {\n        Marketplace(_marketplace).cancel(_cup);\n    }\n}",
  "sourcePath": "/Users/nenadpalinkasevic/Desktop/blockchain/cdpsaver-contracts/contracts/MarketplaceProxy.sol",
  "compiler": {
    "name": "solc",
    "version": "0.5.0+commit.1d4f565a.Emscripten.clang"
  },
  "schemaVersion": "3.0.0",
  "updatedAt": "2019-08-02T12:49:20.812Z",
  "devdoc": {
    "methods": {
      "authorizeAndSell(bytes32,uint256,address,address)": {
        "details": "If the user already own a DSGuard but isn't authorized, authorizes the marketplace contract and sell",
        "params": {
          "_cup": "CDP Id",
          "_discount": "4 digit number representing a discount of CDP value (0-9999)",
          "_marketplace": "Address of the marketplace contract "
        }
      },
      "cancel(bytes32,address)": {
        "details": "Cancel a CDP on sale",
        "params": {
          "_cup": "CDP Id",
          "_marketplace": "Address of the marketplace contract "
        }
      },
      "createAuthorizeAndSell(bytes32,uint256,address,address)": {
        "details": "Creates a new DSGuard for the user, authorizes the marketplace contract and puts on sale the cdp",
        "params": {
          "_cup": "CDP Id",
          "_discount": "4 digit number representing a discount of CDP value (0-9999)",
          "_marketplace": "Address of the marketplace contract "
        }
      },
      "give(bytes32,address)": {
        "details": "Called by the Marketplace contract, will give CDP only if you're authorized or CDP owner",
        "params": {
          "_cup": "CDP Id",
          "_newOwner": "Transfer the CDP to this address"
        }
      },
      "sell(bytes32,uint256,address)": {
        "details": "Put a cdp on sale, if the user already has a DSGuard and authorized it",
        "params": {
          "_cup": "CDP Id",
          "_discount": "4 digit number representing a discount of CDP value (0-9999)",
          "_marketplace": "Address of the marketplace contract "
        }
      }
    },
    "title": "MarketplaceProxy handles authorization and interaction with the Marketplace contract"
  },
  "userdoc": {
    "methods": {}
  }
}