{
  "contractName": "Monitor",
  "abi": [
    {
      "constant": true,
      "inputs": [],
      "name": "VOX_ADDRESS",
      "outputs": [
        {
          "name": "",
          "type": "address"
        }
      ],
      "payable": false,
      "stateMutability": "view",
      "type": "function",
      "signature": "0x36e6da11"
    },
    {
      "constant": true,
      "inputs": [],
      "name": "owner",
      "outputs": [
        {
          "name": "",
          "type": "address"
        }
      ],
      "payable": false,
      "stateMutability": "view",
      "type": "function",
      "signature": "0x8da5cb5b"
    },
    {
      "constant": true,
      "inputs": [
        {
          "name": "",
          "type": "bytes32"
        }
      ],
      "name": "holders",
      "outputs": [
        {
          "name": "minRatio",
          "type": "uint256"
        },
        {
          "name": "maxRatio",
          "type": "uint256"
        },
        {
          "name": "slippageLimit",
          "type": "uint256"
        },
        {
          "name": "optimalRatio",
          "type": "uint256"
        },
        {
          "name": "owner",
          "type": "address"
        }
      ],
      "payable": false,
      "stateMutability": "view",
      "type": "function",
      "signature": "0x99386144"
    },
    {
      "constant": true,
      "inputs": [
        {
          "name": "",
          "type": "address"
        }
      ],
      "name": "approvedCallers",
      "outputs": [
        {
          "name": "",
          "type": "bool"
        }
      ],
      "payable": false,
      "stateMutability": "view",
      "type": "function",
      "signature": "0xa71975af"
    },
    {
      "constant": true,
      "inputs": [],
      "name": "saverProxy",
      "outputs": [
        {
          "name": "",
          "type": "address"
        }
      ],
      "payable": false,
      "stateMutability": "view",
      "type": "function",
      "signature": "0xebc723cb"
    },
    {
      "inputs": [],
      "payable": false,
      "stateMutability": "nonpayable",
      "type": "constructor",
      "signature": "constructor"
    },
    {
      "anonymous": false,
      "inputs": [
        {
          "indexed": true,
          "name": "owner",
          "type": "address"
        },
        {
          "indexed": false,
          "name": "cdpId",
          "type": "bytes32"
        }
      ],
      "name": "Subscribed",
      "type": "event",
      "signature": "0x3e8901f9ef2d2a2a75af91d229b1ab4c4530ff19a91e142a22249976b4f9fdb2"
    },
    {
      "anonymous": false,
      "inputs": [
        {
          "indexed": true,
          "name": "owner",
          "type": "address"
        },
        {
          "indexed": false,
          "name": "cdpId",
          "type": "bytes32"
        }
      ],
      "name": "Unsubscribed",
      "type": "event",
      "signature": "0xbd7d343a76cb95ae0e4391dff1b19b1894066d854717b1b63971cb7e4ad56410"
    },
    {
      "anonymous": false,
      "inputs": [
        {
          "indexed": true,
          "name": "cdpId",
          "type": "bytes32"
        },
        {
          "indexed": false,
          "name": "caller",
          "type": "address"
        }
      ],
      "name": "CdpRepay",
      "type": "event",
      "signature": "0xb22ef5e7cd98231f83419c2038e3dd68284c68b7fa8686a3ace638d20fec5644"
    },
    {
      "anonymous": false,
      "inputs": [
        {
          "indexed": true,
          "name": "cdpId",
          "type": "bytes32"
        },
        {
          "indexed": false,
          "name": "caller",
          "type": "address"
        }
      ],
      "name": "CdpBoost",
      "type": "event",
      "signature": "0x5186b837d8484d333e12eaf30af5822e94e8a672ee0e40d9e4c4f90edaff106d"
    },
    {
      "constant": false,
      "inputs": [
        {
          "name": "_cdpId",
          "type": "bytes32"
        },
        {
          "name": "_minRatio",
          "type": "uint256"
        },
        {
          "name": "_maxRatio",
          "type": "uint256"
        },
        {
          "name": "_optimalRatio",
          "type": "uint256"
        },
        {
          "name": "_slippageLimit",
          "type": "uint256"
        }
      ],
      "name": "subscribe",
      "outputs": [],
      "payable": false,
      "stateMutability": "nonpayable",
      "type": "function",
      "signature": "0x3f0740c5"
    },
    {
      "constant": false,
      "inputs": [
        {
          "name": "_cdpId",
          "type": "bytes32"
        }
      ],
      "name": "unsubscribe",
      "outputs": [],
      "payable": false,
      "stateMutability": "nonpayable",
      "type": "function",
      "signature": "0xf8c60146"
    },
    {
      "constant": false,
      "inputs": [
        {
          "name": "_cdpId",
          "type": "bytes32"
        },
        {
          "name": "_amount",
          "type": "uint256"
        }
      ],
      "name": "repayFor",
      "outputs": [],
      "payable": false,
      "stateMutability": "nonpayable",
      "type": "function",
      "signature": "0x35c66d40"
    },
    {
      "constant": false,
      "inputs": [
        {
          "name": "_cdpId",
          "type": "bytes32"
        },
        {
          "name": "_amount",
          "type": "uint256"
        }
      ],
      "name": "boostFor",
      "outputs": [],
      "payable": false,
      "stateMutability": "nonpayable",
      "type": "function",
      "signature": "0x46fb3805"
    },
    {
      "constant": false,
      "inputs": [
        {
          "name": "_caller",
          "type": "address"
        }
      ],
      "name": "addCaller",
      "outputs": [],
      "payable": false,
      "stateMutability": "nonpayable",
      "type": "function",
      "signature": "0x747293fb"
    },
    {
      "constant": false,
      "inputs": [
        {
          "name": "_caller",
          "type": "address"
        }
      ],
      "name": "removeCaller",
      "outputs": [],
      "payable": false,
      "stateMutability": "nonpayable",
      "type": "function",
      "signature": "0xeef21cd2"
    },
    {
      "constant": false,
      "inputs": [
        {
          "name": "_cdpId",
          "type": "bytes32"
        }
      ],
      "name": "getRatio",
      "outputs": [
        {
          "name": "",
          "type": "uint256"
        }
      ],
      "payable": false,
      "stateMutability": "nonpayable",
      "type": "function",
      "signature": "0x2bd63f0c"
    }
  ],
  "bytecode": "0x608060405273a944bd4b25c9f186a846fd5668941aa3d3b8425f6000806101000a81548173ffffffffffffffffffffffffffffffffffffffff021916908373ffffffffffffffffffffffffffffffffffffffff16021790555073a71937147b55deb8a530c7229c442fd3f31b7db2600160006101000a81548173ffffffffffffffffffffffffffffffffffffffff021916908373ffffffffffffffffffffffffffffffffffffffff1602179055507364a436ae831c1672ae81f674cab8b6775df3475c600260006101000a81548173ffffffffffffffffffffffffffffffffffffffff021916908373ffffffffffffffffffffffffffffffffffffffff16021790555034801561010e57600080fd5b506001600660003373ffffffffffffffffffffffffffffffffffffffff1673ffffffffffffffffffffffffffffffffffffffff16815260200190815260200160002060006101000a81548160ff02191690831515021790555033600460006101000a81548173ffffffffffffffffffffffffffffffffffffffff021916908373ffffffffffffffffffffffffffffffffffffffff160217905550738bc58dc76bb856bf623d8483dc9590b3d6924ec9600360006101000a81548173ffffffffffffffffffffffffffffffffffffffff021916908373ffffffffffffffffffffffffffffffffffffffff1602179055506115e58061020c6000396000f3fe6080604052600436106100ba576000357c0100000000000000000000000000000000000000000000000000000000900463ffffffff1680632bd63f0c146100bf57806335c66d401461010e57806336e6da11146101535780633f0740c5146101aa57806346fb38051461020d578063747293fb146102525780638da5cb5b146102a357806399386144146102fa578063a71975af14610391578063ebc723cb146103fa578063eef21cd214610451578063f8c60146146104a2575b600080fd5b3480156100cb57600080fd5b506100f8600480360360208110156100e257600080fd5b81019080803590602001909291905050506104dd565b6040518082815260200191505060405180910390f35b34801561011a57600080fd5b506101516004803603604081101561013157600080fd5b810190808035906020019092919080359060200190929190505050610760565b005b34801561015f57600080fd5b50610168610b4c565b604051808273ffffffffffffffffffffffffffffffffffffffff1673ffffffffffffffffffffffffffffffffffffffff16815260200191505060405180910390f35b3480156101b657600080fd5b5061020b600480360360a08110156101cd57600080fd5b810190808035906020019092919080359060200190929190803590602001909291908035906020019092919080359060200190929190505050610b64565b005b34801561021957600080fd5b506102506004803603604081101561023057600080fd5b810190808035906020019092919080359060200190929190505050610c91565b005b34801561025e57600080fd5b506102a16004803603602081101561027557600080fd5b81019080803573ffffffffffffffffffffffffffffffffffffffff169060200190929190505050611099565b005b3480156102af57600080fd5b506102b8611150565b604051808273ffffffffffffffffffffffffffffffffffffffff1673ffffffffffffffffffffffffffffffffffffffff16815260200191505060405180910390f35b34801561030657600080fd5b506103336004803603602081101561031d57600080fd5b8101908080359060200190929190505050611176565b604051808681526020018581526020018481526020018381526020018273ffffffffffffffffffffffffffffffffffffffff1673ffffffffffffffffffffffffffffffffffffffff1681526020019550505050505060405180910390f35b34801561039d57600080fd5b506103e0600480360360208110156103b457600080fd5b81019080803573ffffffffffffffffffffffffffffffffffffffff1690602001909291905050506111cc565b604051808215151515815260200191505060405180910390f35b34801561040657600080fd5b5061040f6111ec565b604051808273ffffffffffffffffffffffffffffffffffffffff1673ffffffffffffffffffffffffffffffffffffffff16815260200191505060405180910390f35b34801561045d57600080fd5b506104a06004803603602081101561047457600080fd5b81019080803573ffffffffffffffffffffffffffffffffffffffff169060200190929190505050611212565b005b3480156104ae57600080fd5b506104db600480360360208110156104c557600080fd5b81019080803590602001909291905050506112c9565b005b600061075961068861067a600160009054906101000a900473ffffffffffffffffffffffffffffffffffffffff1673ffffffffffffffffffffffffffffffffffffffff16631f3634ed866040518263ffffffff167c010000000000000000000000000000000000000000000000000000000002815260040180828152602001915050602060405180830381600087803b15801561057957600080fd5b505af115801561058d573d6000803e3d6000fd5b505050506040513d60208110156105a357600080fd5b8101908080519060200190929190505050600160009054906101000a900473ffffffffffffffffffffffffffffffffffffffff1673ffffffffffffffffffffffffffffffffffffffff166351f910666040518163ffffffff167c0100000000000000000000000000000000000000000000000000000000028152600401602060405180830381600087803b15801561063a57600080fd5b505af115801561064e573d6000803e3d6000fd5b505050506040513d602081101561066457600080fd5b810190808051906020019092919050505061138c565b670de0b6b3a764000061138c565b600160009054906101000a900473ffffffffffffffffffffffffffffffffffffffff1673ffffffffffffffffffffffffffffffffffffffff1663f7c8d634856040518263ffffffff167c010000000000000000000000000000000000000000000000000000000002815260040180828152602001915050602060405180830381600087803b15801561071957600080fd5b505af115801561072d573d6000803e3d6000fd5b505050506040513d602081101561074357600080fd5b81019080805190602001909291905050506113d8565b9050919050565b600660003373ffffffffffffffffffffffffffffffffffffffff1673ffffffffffffffffffffffffffffffffffffffff16815260200190815260200160002060009054906101000a900460ff1615156107b857600080fd5b6107c0611573565b6005600084815260200190815260200160002060a06040519081016040529081600082015481526020016001820154815260200160028201548152602001600382015481526020016004820160009054906101000a900473ffffffffffffffffffffffffffffffffffffffff1673ffffffffffffffffffffffffffffffffffffffff1673ffffffffffffffffffffffffffffffffffffffff16815250509050600073ffffffffffffffffffffffffffffffffffffffff16816080015173ffffffffffffffffffffffffffffffffffffffff161415151561089f57600080fd5b60056000848152602001908152602001600020600001546108bf846104dd565b111515156108cc57600080fd5b806080015173ffffffffffffffffffffffffffffffffffffffff16631cff79cd600360009054906101000a900473ffffffffffffffffffffffffffffffffffffffff16858560006002604051602401808581526020018481526020018360ff1681526020018260ff1681526020019450505050506040516020818303038152906040527f4c3e49f0000000000000000000000000000000000000000000000000000000007bffffffffffffffffffffffffffffffffffffffffffffffffffffffff19166020820180517bffffffffffffffffffffffffffffffffffffffffffffffffffffffff83818316178352505050506040518363ffffffff167c0100000000000000000000000000000000000000000000000000000000028152600401808373ffffffffffffffffffffffffffffffffffffffff1673ffffffffffffffffffffffffffffffffffffffff16815260200180602001828103825283818151815260200191508051906020019080838360005b83811015610a5a578082015181840152602081019050610a3f565b50505050905090810190601f168015610a875780820380516001836020036101000a031916815260200191505b509350505050602060405180830381600087803b158015610aa757600080fd5b505af1158015610abb573d6000803e3d6000fd5b505050506040513d6020811015610ad157600080fd5b810190808051906020019092919050505050827fb22ef5e7cd98231f83419c2038e3dd68284c68b7fa8686a3ace638d20fec564433604051808273ffffffffffffffffffffffffffffffffffffffff1673ffffffffffffffffffffffffffffffffffffffff16815260200191505060405180910390a2505050565b73bb4339c0ab5b1d9f14bd6e3426444a1e9d86a1d981565b610b6e3386611418565b1515610b7957600080fd5b60a0604051908101604052808581526020018481526020018281526020018381526020013373ffffffffffffffffffffffffffffffffffffffff16815250600560008781526020019081526020016000206000820151816000015560208201518160010155604082015181600201556060820151816003015560808201518160040160006101000a81548173ffffffffffffffffffffffffffffffffffffffff021916908373ffffffffffffffffffffffffffffffffffffffff1602179055509050503373ffffffffffffffffffffffffffffffffffffffff167f3e8901f9ef2d2a2a75af91d229b1ab4c4530ff19a91e142a22249976b4f9fdb2866040518082815260200191505060405180910390a25050505050565b600660003373ffffffffffffffffffffffffffffffffffffffff1673ffffffffffffffffffffffffffffffffffffffff16815260200190815260200160002060009054906101000a900460ff161515610ce957600080fd5b610cf1611573565b6005600084815260200190815260200160002060a06040519081016040529081600082015481526020016001820154815260200160028201548152602001600382015481526020016004820160009054906101000a900473ffffffffffffffffffffffffffffffffffffffff1673ffffffffffffffffffffffffffffffffffffffff1673ffffffffffffffffffffffffffffffffffffffff16815250509050600073ffffffffffffffffffffffffffffffffffffffff16816080015173ffffffffffffffffffffffffffffffffffffffff1614151515610dd057600080fd5b6005600084815260200190815260200160002060010154610df0846104dd565b10151515610dfd57600080fd5b806080015173ffffffffffffffffffffffffffffffffffffffff16631cff79cd600360009054906101000a900473ffffffffffffffffffffffffffffffffffffffff1685857fffffffffffffffffffffffffffffffffffffffffffffffffffffffffffffffff6002604051602401808581526020018481526020018381526020018260ff1681526020019450505050506040516020818303038152906040527f67dc7736000000000000000000000000000000000000000000000000000000007bffffffffffffffffffffffffffffffffffffffffffffffffffffffff19166020820180517bffffffffffffffffffffffffffffffffffffffffffffffffffffffff83818316178352505050506040518363ffffffff167c0100000000000000000000000000000000000000000000000000000000028152600401808373ffffffffffffffffffffffffffffffffffffffff1673ffffffffffffffffffffffffffffffffffffffff16815260200180602001828103825283818151815260200191508051906020019080838360005b83811015610fa7578082015181840152602081019050610f8c565b50505050905090810190601f168015610fd45780820380516001836020036101000a031916815260200191505b509350505050602060405180830381600087803b158015610ff457600080fd5b505af1158015611008573d6000803e3d6000fd5b505050506040513d602081101561101e57600080fd5b810190808051906020019092919050505050827f5186b837d8484d333e12eaf30af5822e94e8a672ee0e40d9e4c4f90edaff106d33604051808273ffffffffffffffffffffffffffffffffffffffff1673ffffffffffffffffffffffffffffffffffffffff16815260200191505060405180910390a2505050565b3373ffffffffffffffffffffffffffffffffffffffff16600460009054906101000a900473ffffffffffffffffffffffffffffffffffffffff1673ffffffffffffffffffffffffffffffffffffffff161415156110f557600080fd5b6001600660008373ffffffffffffffffffffffffffffffffffffffff1673ffffffffffffffffffffffffffffffffffffffff16815260200190815260200160002060006101000a81548160ff02191690831515021790555050565b600460009054906101000a900473ffffffffffffffffffffffffffffffffffffffff1681565b60056020528060005260406000206000915090508060000154908060010154908060020154908060030154908060040160009054906101000a900473ffffffffffffffffffffffffffffffffffffffff16905085565b60066020528060005260406000206000915054906101000a900460ff1681565b600360009054906101000a900473ffffffffffffffffffffffffffffffffffffffff1681565b3373ffffffffffffffffffffffffffffffffffffffff16600460009054906101000a900473ffffffffffffffffffffffffffffffffffffffff1673ffffffffffffffffffffffffffffffffffffffff1614151561126e57600080fd5b6000600660008373ffffffffffffffffffffffffffffffffffffffff1673ffffffffffffffffffffffffffffffffffffffff16815260200190815260200160002060006101000a81548160ff02191690831515021790555050565b6112d33382611418565b15156112de57600080fd5b600560008281526020019081526020016000206000808201600090556001820160009055600282016000905560038201600090556004820160006101000a81549073ffffffffffffffffffffffffffffffffffffffff021916905550503373ffffffffffffffffffffffffffffffffffffffff167fbd7d343a76cb95ae0e4391dff1b19b1894066d854717b1b63971cb7e4ad56410826040518082815260200191505060405180910390a250565b60006b033b2e3c9fd0803ce80000006113c66113a88585611527565b60026b033b2e3c9fd0803ce80000008115156113c057fe5b04611557565b8115156113cf57fe5b04905092915050565b6000816114066113f4856b033b2e3c9fd0803ce8000000611527565b60028581151561140057fe5b04611557565b81151561140f57fe5b04905092915050565b60008273ffffffffffffffffffffffffffffffffffffffff16600160009054906101000a900473ffffffffffffffffffffffffffffffffffffffff1673ffffffffffffffffffffffffffffffffffffffff1663de5f5517846040518263ffffffff167c01000000000000000000000000000000000000000000000000000000000281526004018082815260200191505060206040518083038186803b1580156114c057600080fd5b505afa1580156114d4573d6000803e3d6000fd5b505050506040513d60208110156114ea57600080fd5b810190808051906020019092919050505073ffffffffffffffffffffffffffffffffffffffff1614151561151d57600080fd5b6001905092915050565b6000808214806115465750828283850292508281151561154357fe5b04145b151561155157600080fd5b92915050565b6000828284019150811015151561156d57600080fd5b92915050565b60a06040519081016040528060008152602001600081526020016000815260200160008152602001600073ffffffffffffffffffffffffffffffffffffffff168152509056fea165627a7a7230582092badc56a6f0ee8756d4981a70863a572e448952a9edfde8c06a5e31179dfaa60029",
  "source": "pragma solidity ^0.5.0;\n\nimport \"./interfaces/TubInterface.sol\";\nimport \"./interfaces/ProxyRegistryInterface.sol\";\nimport \"./interfaces/ERC20.sol\";\nimport \"./DS/DSMath.sol\";\n\n\ncontract Monitor is DSMath {\n\n    // KOVAN\n    PipInterface pip = PipInterface(0xA944bd4b25C9F186A846fd5668941AA3d3B8425F);\n    TubInterface tub = TubInterface(0xa71937147b55Deb8a530C7229C442Fd3F31b7db2);\n    ProxyRegistryInterface registry = ProxyRegistryInterface(0x64A436ae831C1672AE81F674CAb8B6775df3475C);\n    address public constant VOX_ADDRESS = 0xBb4339c0aB5B1d9f14Bd6e3426444A1e9d86A1d9;\n\n    address public saverProxy;\n    address public owner;\n\n    struct CdpHolder {\n        uint minRatio;\n        uint maxRatio;\n        uint slippageLimit;\n        uint optimalRatio;\n        address owner;\n    }\n\n    mapping(bytes32 => CdpHolder) public holders;\n    mapping(address => bool) public approvedCallers;\n\n    event Subscribed(address indexed owner, bytes32 cdpId);\n    event Unsubscribed(address indexed owner, bytes32 cdpId);\n\n    event CdpRepay(bytes32 indexed cdpId, address caller);\n    event CdpBoost(bytes32 indexed cdpId, address caller);\n\n    modifier onlyApproved() {\n        require(approvedCallers[msg.sender]);\n        _;\n    }\n\n    modifier onlyOwner() {\n        require(owner == msg.sender);\n        _;\n    }\n\n    constructor() public {\n        approvedCallers[msg.sender] = true;\n        owner = msg.sender;\n        saverProxy = 0x8bc58Dc76bB856Bf623d8483dC9590b3d6924ec9;\n    }\n\n    /// @dev Users DSProxy should call this\n    function subscribe(bytes32 _cdpId, uint _minRatio, uint _maxRatio, uint _optimalRatio, uint _slippageLimit) public {\n        require(isOwner(msg.sender, _cdpId));\n\n        holders[_cdpId] = CdpHolder({\n            minRatio: _minRatio,\n            maxRatio: _maxRatio,\n            optimalRatio: _optimalRatio,\n            slippageLimit: _slippageLimit,\n            owner: msg.sender\n        });\n\n        emit Subscribed(msg.sender, _cdpId);\n    }\n\n    function unsubscribe(bytes32 _cdpId) public {\n        require(isOwner(msg.sender, _cdpId));\n\n        delete holders[_cdpId];\n\n        emit Unsubscribed(msg.sender, _cdpId);\n    }\n\n    /// @dev Should be callable by onlyApproved\n    function repayFor(bytes32 _cdpId, uint _amount) public onlyApproved {\n        CdpHolder memory holder = holders[_cdpId];\n\n        require(holder.owner != address(0));\n        require(getRatio(_cdpId) <= holders[_cdpId].minRatio);\n\n        DSProxyInterface(holder.owner).execute(saverProxy, abi.encodeWithSignature(\"repay(bytes32,uint256,uint256,uint256)\", _cdpId, _amount, 0, 2));\n\n        emit CdpRepay(_cdpId, msg.sender);\n    }\n\n    /// @dev Should be callable by onlyApproved\n    function boostFor(bytes32 _cdpId, uint _amount) public onlyApproved {\n        CdpHolder memory holder = holders[_cdpId];\n\n        require(holder.owner != address(0));\n\n        require(getRatio(_cdpId) >= holders[_cdpId].maxRatio);\n\n        DSProxyInterface(holder.owner).execute(saverProxy, abi.encodeWithSignature(\"boost(bytes32,uint256,uint256,uint256)\", _cdpId, _amount, uint(-1), 2));\n\n        emit CdpBoost(_cdpId, msg.sender);\n    }\n\n    // Owner only operations\n    function addCaller(address _caller) public onlyOwner {\n        approvedCallers[_caller] = true;\n    }\n\n    function removeCaller(address _caller) public onlyOwner {\n        approvedCallers[_caller] = false;\n    }\n\n    function getRatio(bytes32 _cdpId) public returns(uint) {\n        return (rdiv(rmul(rmul(tub.ink(_cdpId), tub.tag()), WAD), tub.tab(_cdpId)));\n    }\n\n    function isOwner(address _owner, bytes32 _cdpId) internal returns(bool) {\n        require(tub.lad(_cdpId) == _owner);\n        \n        return true;\n    }\n }",
  "sourcePath": "/Users/nenadpalinkasevic/Desktop/blockchain/cdpsaver-contracts/contracts/Monitor.sol",
  "compiler": {
    "name": "solc",
    "version": "0.5.0+commit.1d4f565a.Emscripten.clang"
  },
  "schemaVersion": "3.0.0",
  "updatedAt": "2019-06-28T08:21:02.277Z",
  "devdoc": {
    "methods": {
      "boostFor(bytes32,uint256)": {
        "details": "Should be callable by onlyApproved"
      },
      "repayFor(bytes32,uint256)": {
        "details": "Should be callable by onlyApproved"
      },
      "subscribe(bytes32,uint256,uint256,uint256,uint256)": {
        "details": "Users DSProxy should call this"
      }
    }
  },
  "userdoc": {
    "methods": {}
  }
}