{
  "contractName": "Monitor",
  "abi": [
    {
      "constant": true,
      "inputs": [],
      "name": "changeIndex",
      "outputs": [
        {
          "name": "",
          "type": "uint256"
        }
      ],
      "payable": false,
      "stateMutability": "view",
      "type": "function"
    },
    {
      "constant": true,
      "inputs": [],
      "name": "BOOST_GAS_TOKEN",
      "outputs": [
        {
          "name": "",
          "type": "uint256"
        }
      ],
      "payable": false,
      "stateMutability": "view",
      "type": "function"
    },
    {
      "constant": true,
      "inputs": [],
      "name": "owner",
      "outputs": [
        {
          "name": "",
          "type": "address"
        }
      ],
      "payable": false,
      "stateMutability": "view",
      "type": "function"
    },
    {
      "constant": true,
      "inputs": [
        {
          "name": "",
          "type": "bytes32"
        }
      ],
      "name": "holders",
      "outputs": [
        {
          "name": "minRatio",
          "type": "uint256"
        },
        {
          "name": "maxRatio",
          "type": "uint256"
        },
        {
          "name": "slippageLimit",
          "type": "uint256"
        },
        {
          "name": "optimalRatioBoost",
          "type": "uint256"
        },
        {
          "name": "optimalRatioRepay",
          "type": "uint256"
        },
        {
          "name": "owner",
          "type": "address"
        }
      ],
      "payable": false,
      "stateMutability": "view",
      "type": "function"
    },
    {
      "constant": true,
      "inputs": [],
      "name": "REPAY_GAS_TOKEN",
      "outputs": [
        {
          "name": "",
          "type": "uint256"
        }
      ],
      "payable": false,
      "stateMutability": "view",
      "type": "function"
    },
    {
      "constant": true,
      "inputs": [
        {
          "name": "",
          "type": "address"
        }
      ],
      "name": "approvedCallers",
      "outputs": [
        {
          "name": "",
          "type": "bool"
        }
      ],
      "payable": false,
      "stateMutability": "view",
      "type": "function"
    },
    {
      "constant": true,
      "inputs": [],
      "name": "saverProxy",
      "outputs": [
        {
          "name": "",
          "type": "address"
        }
      ],
      "payable": false,
      "stateMutability": "view",
      "type": "function"
    },
    {
      "inputs": [],
      "payable": false,
      "stateMutability": "nonpayable",
      "type": "constructor"
    },
    {
      "anonymous": false,
      "inputs": [
        {
          "indexed": true,
          "name": "owner",
          "type": "address"
        },
        {
          "indexed": false,
          "name": "cdpId",
          "type": "bytes32"
        }
      ],
      "name": "Subscribed",
      "type": "event"
    },
    {
      "anonymous": false,
      "inputs": [
        {
          "indexed": true,
          "name": "owner",
          "type": "address"
        },
        {
          "indexed": false,
          "name": "cdpId",
          "type": "bytes32"
        }
      ],
      "name": "Unsubscribed",
      "type": "event"
    },
    {
      "anonymous": false,
      "inputs": [
        {
          "indexed": true,
          "name": "owner",
          "type": "address"
        },
        {
          "indexed": false,
          "name": "cdpId",
          "type": "bytes32"
        }
      ],
      "name": "Updated",
      "type": "event"
    },
    {
      "anonymous": false,
      "inputs": [
        {
          "indexed": true,
          "name": "cdpId",
          "type": "bytes32"
        },
        {
          "indexed": false,
          "name": "caller",
          "type": "address"
        },
        {
          "indexed": false,
          "name": "_amount",
          "type": "uint256"
        },
        {
          "indexed": false,
          "name": "_ratioBefore",
          "type": "uint256"
        },
        {
          "indexed": false,
          "name": "_ratioAfter",
          "type": "uint256"
        }
      ],
      "name": "CdpRepay",
      "type": "event"
    },
    {
      "anonymous": false,
      "inputs": [
        {
          "indexed": true,
          "name": "cdpId",
          "type": "bytes32"
        },
        {
          "indexed": false,
          "name": "caller",
          "type": "address"
        },
        {
          "indexed": false,
          "name": "_amount",
          "type": "uint256"
        },
        {
          "indexed": false,
          "name": "_ratioBefore",
          "type": "uint256"
        },
        {
          "indexed": false,
          "name": "_ratioAfter",
          "type": "uint256"
        }
      ],
      "name": "CdpBoost",
      "type": "event"
    },
    {
      "constant": false,
      "inputs": [
        {
          "name": "_cdpId",
          "type": "bytes32"
        },
        {
          "name": "_minRatio",
          "type": "uint256"
        },
        {
          "name": "_maxRatio",
          "type": "uint256"
        },
        {
          "name": "_optimalRatioBoost",
          "type": "uint256"
        },
        {
          "name": "_optimalRatioRepay",
          "type": "uint256"
        },
        {
          "name": "_slippageLimit",
          "type": "uint256"
        }
      ],
      "name": "subscribe",
      "outputs": [],
      "payable": false,
      "stateMutability": "nonpayable",
      "type": "function"
    },
    {
      "constant": false,
      "inputs": [
        {
          "name": "_cdpId",
          "type": "bytes32"
        }
      ],
      "name": "unsubscribe",
      "outputs": [],
      "payable": false,
      "stateMutability": "nonpayable",
      "type": "function"
    },
    {
      "constant": false,
      "inputs": [
        {
          "name": "_cdpId",
          "type": "bytes32"
        },
        {
          "name": "_amount",
          "type": "uint256"
        }
      ],
      "name": "repayFor",
      "outputs": [],
      "payable": false,
      "stateMutability": "nonpayable",
      "type": "function"
    },
    {
      "constant": false,
      "inputs": [
        {
          "name": "_cdpId",
          "type": "bytes32"
        },
        {
          "name": "_amount",
          "type": "uint256"
        }
      ],
      "name": "boostFor",
      "outputs": [],
      "payable": false,
      "stateMutability": "nonpayable",
      "type": "function"
    },
    {
      "constant": false,
      "inputs": [
        {
          "name": "_cdpId",
          "type": "bytes32"
        }
      ],
      "name": "getRatio",
      "outputs": [
        {
          "name": "",
          "type": "uint256"
        }
      ],
      "payable": false,
      "stateMutability": "nonpayable",
      "type": "function"
    },
    {
      "constant": false,
      "inputs": [
        {
          "name": "_caller",
          "type": "address"
        }
      ],
      "name": "addCaller",
      "outputs": [],
      "payable": false,
      "stateMutability": "nonpayable",
      "type": "function"
    },
    {
      "constant": false,
      "inputs": [
        {
          "name": "_caller",
          "type": "address"
        }
      ],
      "name": "removeCaller",
      "outputs": [],
      "payable": false,
      "stateMutability": "nonpayable",
      "type": "function"
    }
  ],
  "bytecode": "0x608060405273a944bd4b25c9f186a846fd5668941aa3d3b8425f6000806101000a81548173ffffffffffffffffffffffffffffffffffffffff021916908373ffffffffffffffffffffffffffffffffffffffff16021790555073a71937147b55deb8a530c7229c442fd3f31b7db2600160006101000a81548173ffffffffffffffffffffffffffffffffffffffff021916908373ffffffffffffffffffffffffffffffffffffffff1602179055507364a436ae831c1672ae81f674cab8b6775df3475c600260006101000a81548173ffffffffffffffffffffffffffffffffffffffff021916908373ffffffffffffffffffffffffffffffffffffffff1602179055506e170ccc93903185be5a2094c870df62600360006101000a81548173ffffffffffffffffffffffffffffffffffffffff021916908373ffffffffffffffffffffffffffffffffffffffff16021790555034801561015e57600080fd5b506001600860003373ffffffffffffffffffffffffffffffffffffffff1673ffffffffffffffffffffffffffffffffffffffff16815260200190815260200160002060006101000a81548160ff02191690831515021790555033600560006101000a81548173ffffffffffffffffffffffffffffffffffffffff021916908373ffffffffffffffffffffffffffffffffffffffff16021790555073043125335e8fed7421f4af91f7123b605b30f593600460006101000a81548173ffffffffffffffffffffffffffffffffffffffff021916908373ffffffffffffffffffffffffffffffffffffffff1602179055506000600781905550611b52806102646000396000f3fe6080604052600436106100d0576000357c0100000000000000000000000000000000000000000000000000000000900463ffffffff168063106b0339146100d557806326fdf077146101005780632bd63f0c1461016d57806335c66d40146101bc57806346fb380514610201578063696806c014610246578063747293fb146102715780638da5cb5b146102c25780639938614414610319578063a56f9718146103b7578063a71975af146103e2578063ebc723cb1461044b578063eef21cd2146104a2578063f8c60146146104f3575b600080fd5b3480156100e157600080fd5b506100ea61052e565b6040518082815260200191505060405180910390f35b34801561010c57600080fd5b5061016b600480360360c081101561012357600080fd5b81019080803590602001909291908035906020019092919080359060200190929190803590602001909291908035906020019092919080359060200190929190505050610534565b005b34801561017957600080fd5b506101a66004803603602081101561019057600080fd5b8101908080359060200190929190505050610756565b6040518082815260200191505060405180910390f35b3480156101c857600080fd5b506101ff600480360360408110156101df57600080fd5b8101908080359060200190929190803590602001909291905050506109d9565b005b34801561020d57600080fd5b506102446004803603604081101561022457600080fd5b810190808035906020019092919080359060200190929190505050610fc9565b005b34801561025257600080fd5b5061025b6115d5565b6040518082815260200191505060405180910390f35b34801561027d57600080fd5b506102c06004803603602081101561029457600080fd5b81019080803573ffffffffffffffffffffffffffffffffffffffff1690602001909291905050506115da565b005b3480156102ce57600080fd5b506102d7611691565b604051808273ffffffffffffffffffffffffffffffffffffffff1673ffffffffffffffffffffffffffffffffffffffff16815260200191505060405180910390f35b34801561032557600080fd5b506103526004803603602081101561033c57600080fd5b81019080803590602001909291905050506116b7565b604051808781526020018681526020018581526020018481526020018381526020018273ffffffffffffffffffffffffffffffffffffffff1673ffffffffffffffffffffffffffffffffffffffff168152602001965050505050505060405180910390f35b3480156103c357600080fd5b506103cc611713565b6040518082815260200191505060405180910390f35b3480156103ee57600080fd5b506104316004803603602081101561040557600080fd5b81019080803573ffffffffffffffffffffffffffffffffffffffff169060200190929190505050611718565b604051808215151515815260200191505060405180910390f35b34801561045757600080fd5b50610460611738565b604051808273ffffffffffffffffffffffffffffffffffffffff1673ffffffffffffffffffffffffffffffffffffffff16815260200191505060405180910390f35b3480156104ae57600080fd5b506104f1600480360360208110156104c557600080fd5b81019080803573ffffffffffffffffffffffffffffffffffffffff16906020019092919050505061175e565b005b3480156104ff57600080fd5b5061052c6004803603602081101561051657600080fd5b8101908080359060200190929190505050611815565b005b60075481565b61053e33876118f2565b151561054957600080fd5b60008073ffffffffffffffffffffffffffffffffffffffff166006600089815260200190815260200160002060050160009054906101000a900473ffffffffffffffffffffffffffffffffffffffff1673ffffffffffffffffffffffffffffffffffffffff16146105bb5760006105be565b60015b905060c0604051908101604052808781526020018681526020018381526020018581526020018481526020013373ffffffffffffffffffffffffffffffffffffffff1681525060066000898152602001908152602001600020600082015181600001556020820151816001015560408201518160020155606082015181600301556080820151816004015560a08201518160050160006101000a81548173ffffffffffffffffffffffffffffffffffffffff021916908373ffffffffffffffffffffffffffffffffffffffff16021790555090505060076000815480929190600101919050555080156106fe573373ffffffffffffffffffffffffffffffffffffffff167f3e8901f9ef2d2a2a75af91d229b1ab4c4530ff19a91e142a22249976b4f9fdb2886040518082815260200191505060405180910390a261074d565b3373ffffffffffffffffffffffffffffffffffffffff167f381a32e049502b173221a8aedfae50ce8d5b10c6add4439b2179b4d034b75e5b886040518082815260200191505060405180910390a25b50505050505050565b60006109d26109016108f3600160009054906101000a900473ffffffffffffffffffffffffffffffffffffffff1673ffffffffffffffffffffffffffffffffffffffff16631f3634ed866040518263ffffffff167c010000000000000000000000000000000000000000000000000000000002815260040180828152602001915050602060405180830381600087803b1580156107f257600080fd5b505af1158015610806573d6000803e3d6000fd5b505050506040513d602081101561081c57600080fd5b8101908080519060200190929190505050600160009054906101000a900473ffffffffffffffffffffffffffffffffffffffff1673ffffffffffffffffffffffffffffffffffffffff166351f910666040518163ffffffff167c0100000000000000000000000000000000000000000000000000000000028152600401602060405180830381600087803b1580156108b357600080fd5b505af11580156108c7573d6000803e3d6000fd5b505050506040513d60208110156108dd57600080fd5b8101908080519060200190929190505050611a01565b670de0b6b3a7640000611a01565b600160009054906101000a900473ffffffffffffffffffffffffffffffffffffffff1673ffffffffffffffffffffffffffffffffffffffff1663f7c8d634856040518263ffffffff167c010000000000000000000000000000000000000000000000000000000002815260040180828152602001915050602060405180830381600087803b15801561099257600080fd5b505af11580156109a6573d6000803e3d6000fd5b505050506040513d60208110156109bc57600080fd5b8101908080519060200190929190505050611a4d565b9050919050565b600860003373ffffffffffffffffffffffffffffffffffffffff1673ffffffffffffffffffffffffffffffffffffffff16815260200190815260200160002060009054906101000a900460ff161515610a3157600080fd5b6013600360009054906101000a900473ffffffffffffffffffffffffffffffffffffffff1673ffffffffffffffffffffffffffffffffffffffff166370a08231306040518263ffffffff167c0100000000000000000000000000000000000000000000000000000000028152600401808273ffffffffffffffffffffffffffffffffffffffff1673ffffffffffffffffffffffffffffffffffffffff16815260200191505060206040518083038186803b158015610aee57600080fd5b505afa158015610b02573d6000803e3d6000fd5b505050506040513d6020811015610b1857600080fd5b8101908080519060200190929190505050101515610bff57600360009054906101000a900473ffffffffffffffffffffffffffffffffffffffff1673ffffffffffffffffffffffffffffffffffffffff1663d8ccd0f360136040518263ffffffff167c010000000000000000000000000000000000000000000000000000000002815260040180828152602001915050602060405180830381600087803b158015610bc257600080fd5b505af1158015610bd6573d6000803e3d6000fd5b505050506040513d6020811015610bec57600080fd5b8101908080519060200190929190505050505b610c07611ad9565b6006600084815260200190815260200160002060c0604051908101604052908160008201548152602001600182015481526020016002820154815260200160038201548152602001600482015481526020016005820160009054906101000a900473ffffffffffffffffffffffffffffffffffffffff1673ffffffffffffffffffffffffffffffffffffffff1673ffffffffffffffffffffffffffffffffffffffff168152505090506000610cbb84610756565b9050600073ffffffffffffffffffffffffffffffffffffffff168260a0015173ffffffffffffffffffffffffffffffffffffffff1614151515610cfd57600080fd5b60066000858152602001908152602001600020600001548111151515610d2257600080fd5b8160a0015173ffffffffffffffffffffffffffffffffffffffff16631cff79cd600460009054906101000a900473ffffffffffffffffffffffffffffffffffffffff16868660006002604051602401808581526020018481526020018360ff1681526020018260ff1681526020019450505050506040516020818303038152906040527f4c3e49f0000000000000000000000000000000000000000000000000000000007bffffffffffffffffffffffffffffffffffffffffffffffffffffffff19166020820180517bffffffffffffffffffffffffffffffffffffffffffffffffffffffff83818316178352505050506040518363ffffffff167c0100000000000000000000000000000000000000000000000000000000028152600401808373ffffffffffffffffffffffffffffffffffffffff1673ffffffffffffffffffffffffffffffffffffffff16815260200180602001828103825283818151815260200191508051906020019080838360005b83811015610eb0578082015181840152602081019050610e95565b50505050905090810190601f168015610edd5780820380516001836020036101000a031916815260200191505b509350505050602060405180830381600087803b158015610efd57600080fd5b505af1158015610f11573d6000803e3d6000fd5b505050506040513d6020811015610f2757600080fd5b8101908080519060200190929190505050506000610f4485610756565b9050847f38b848867f033433a60ddbc2138cc66f87818dde92104b7c621cfc2ed9d9b11533868585604051808573ffffffffffffffffffffffffffffffffffffffff1673ffffffffffffffffffffffffffffffffffffffff16815260200184815260200183815260200182815260200194505050505060405180910390a25050505050565b600860003373ffffffffffffffffffffffffffffffffffffffff1673ffffffffffffffffffffffffffffffffffffffff16815260200190815260200160002060009054906101000a900460ff16151561102157600080fd5b601e600360009054906101000a900473ffffffffffffffffffffffffffffffffffffffff1673ffffffffffffffffffffffffffffffffffffffff166370a08231306040518263ffffffff167c0100000000000000000000000000000000000000000000000000000000028152600401808273ffffffffffffffffffffffffffffffffffffffff1673ffffffffffffffffffffffffffffffffffffffff16815260200191505060206040518083038186803b1580156110de57600080fd5b505afa1580156110f2573d6000803e3d6000fd5b505050506040513d602081101561110857600080fd5b81019080805190602001909291905050501015156111ef57600360009054906101000a900473ffffffffffffffffffffffffffffffffffffffff1673ffffffffffffffffffffffffffffffffffffffff1663d8ccd0f3601e6040518263ffffffff167c010000000000000000000000000000000000000000000000000000000002815260040180828152602001915050602060405180830381600087803b1580156111b257600080fd5b505af11580156111c6573d6000803e3d6000fd5b505050506040513d60208110156111dc57600080fd5b8101908080519060200190929190505050505b6111f7611ad9565b6006600084815260200190815260200160002060c0604051908101604052908160008201548152602001600182015481526020016002820154815260200160038201548152602001600482015481526020016005820160009054906101000a900473ffffffffffffffffffffffffffffffffffffffff1673ffffffffffffffffffffffffffffffffffffffff1673ffffffffffffffffffffffffffffffffffffffff1681525050905060006112ab84610756565b9050600073ffffffffffffffffffffffffffffffffffffffff168260a0015173ffffffffffffffffffffffffffffffffffffffff16141515156112ed57600080fd5b6006600085815260200190815260200160002060010154811015151561131257600080fd5b8160a0015173ffffffffffffffffffffffffffffffffffffffff16631cff79cd600460009054906101000a900473ffffffffffffffffffffffffffffffffffffffff1686867fffffffffffffffffffffffffffffffffffffffffffffffffffffffffffffffff6002604051602401808581526020018481526020018381526020018260ff1681526020019450505050506040516020818303038152906040527f67dc7736000000000000000000000000000000000000000000000000000000007bffffffffffffffffffffffffffffffffffffffffffffffffffffffff19166020820180517bffffffffffffffffffffffffffffffffffffffffffffffffffffffff83818316178352505050506040518363ffffffff167c0100000000000000000000000000000000000000000000000000000000028152600401808373ffffffffffffffffffffffffffffffffffffffff1673ffffffffffffffffffffffffffffffffffffffff16815260200180602001828103825283818151815260200191508051906020019080838360005b838110156114bc5780820151818401526020810190506114a1565b50505050905090810190601f1680156114e95780820380516001836020036101000a031916815260200191505b509350505050602060405180830381600087803b15801561150957600080fd5b505af115801561151d573d6000803e3d6000fd5b505050506040513d602081101561153357600080fd5b810190808051906020019092919050505050600061155085610756565b9050847f30d77cb90eaf60f3adb5378f6e31c893714d37bde2eecb64a1e05802d896807e33868585604051808573ffffffffffffffffffffffffffffffffffffffff1673ffffffffffffffffffffffffffffffffffffffff16815260200184815260200183815260200182815260200194505050505060405180910390a25050505050565b601381565b3373ffffffffffffffffffffffffffffffffffffffff16600560009054906101000a900473ffffffffffffffffffffffffffffffffffffffff1673ffffffffffffffffffffffffffffffffffffffff1614151561163657600080fd5b6001600860008373ffffffffffffffffffffffffffffffffffffffff1673ffffffffffffffffffffffffffffffffffffffff16815260200190815260200160002060006101000a81548160ff02191690831515021790555050565b600560009054906101000a900473ffffffffffffffffffffffffffffffffffffffff1681565b60066020528060005260406000206000915090508060000154908060010154908060020154908060030154908060040154908060050160009054906101000a900473ffffffffffffffffffffffffffffffffffffffff16905086565b601e81565b60086020528060005260406000206000915054906101000a900460ff1681565b600460009054906101000a900473ffffffffffffffffffffffffffffffffffffffff1681565b3373ffffffffffffffffffffffffffffffffffffffff16600560009054906101000a900473ffffffffffffffffffffffffffffffffffffffff1673ffffffffffffffffffffffffffffffffffffffff161415156117ba57600080fd5b6000600860008373ffffffffffffffffffffffffffffffffffffffff1673ffffffffffffffffffffffffffffffffffffffff16815260200190815260200160002060006101000a81548160ff02191690831515021790555050565b61181f33826118f2565b151561182a57600080fd5b6006600082815260200190815260200160002060008082016000905560018201600090556002820160009055600382016000905560048201600090556005820160006101000a81549073ffffffffffffffffffffffffffffffffffffffff021916905550506007600081548092919060010191905055503373ffffffffffffffffffffffffffffffffffffffff167fbd7d343a76cb95ae0e4391dff1b19b1894066d854717b1b63971cb7e4ad56410826040518082815260200191505060405180910390a250565b60008273ffffffffffffffffffffffffffffffffffffffff16600160009054906101000a900473ffffffffffffffffffffffffffffffffffffffff1673ffffffffffffffffffffffffffffffffffffffff1663de5f5517846040518263ffffffff167c01000000000000000000000000000000000000000000000000000000000281526004018082815260200191505060206040518083038186803b15801561199a57600080fd5b505afa1580156119ae573d6000803e3d6000fd5b505050506040513d60208110156119c457600080fd5b810190808051906020019092919050505073ffffffffffffffffffffffffffffffffffffffff161415156119f757600080fd5b6001905092915050565b60006b033b2e3c9fd0803ce8000000611a3b611a1d8585611a8d565b60026b033b2e3c9fd0803ce8000000811515611a3557fe5b04611abd565b811515611a4457fe5b04905092915050565b600081611a7b611a69856b033b2e3c9fd0803ce8000000611a8d565b600285811515611a7557fe5b04611abd565b811515611a8457fe5b04905092915050565b600080821480611aac57508282838502925082811515611aa957fe5b04145b1515611ab757600080fd5b92915050565b60008282840191508110151515611ad357600080fd5b92915050565b60c0604051908101604052806000815260200160008152602001600081526020016000815260200160008152602001600073ffffffffffffffffffffffffffffffffffffffff168152509056fea165627a7a72305820ce742f4d42eddf112243e417c96159f76fddbcffd0bc527acd8f41f89b4b92af0029",
  "source": "pragma solidity ^0.5.0;\n\nimport \"./interfaces/TubInterface.sol\";\nimport \"./interfaces/ProxyRegistryInterface.sol\";\nimport \"./interfaces/GasTokenInterface.sol\";\nimport \"./interfaces/ERC20.sol\";\nimport \"./DS/DSMath.sol\";\n\ncontract Monitor is DSMath {\n    // KOVAN\n    PipInterface pip = PipInterface(0xA944bd4b25C9F186A846fd5668941AA3d3B8425F);\n    TubInterface tub = TubInterface(0xa71937147b55Deb8a530C7229C442Fd3F31b7db2);\n    ProxyRegistryInterface registry = ProxyRegistryInterface(0x64A436ae831C1672AE81F674CAb8B6775df3475C);\n    GasTokenInterface gasToken = GasTokenInterface(0x0000000000170CcC93903185bE5A2094C870Df62);\n\n    uint constant public REPAY_GAS_TOKEN = 30;\n    uint constant public BOOST_GAS_TOKEN = 19;\n\n    address public saverProxy;\n    address public owner;\n\n    struct CdpHolder {\n        uint minRatio;\n        uint maxRatio;\n        uint slippageLimit;\n        uint optimalRatioBoost;\n        uint optimalRatioRepay;\n        address owner;\n    }\n\n    mapping(bytes32 => CdpHolder) public holders;\n\n    uint public changeIndex;\n\n    /// @dev This will be Bot addresses which will trigger the calls\n    mapping(address => bool) public approvedCallers;\n\n    event Subscribed(address indexed owner, bytes32 cdpId);\n    event Unsubscribed(address indexed owner, bytes32 cdpId);\n    event Updated(address indexed owner, bytes32 cdpId);\n\n    event CdpRepay(bytes32 indexed cdpId, address caller, uint _amount, uint _ratioBefore, uint _ratioAfter);\n    event CdpBoost(bytes32 indexed cdpId, address caller, uint _amount, uint _ratioBefore, uint _ratioAfter);\n\n    modifier onlyApproved() {\n        require(approvedCallers[msg.sender]);\n        _;\n    }\n\n    modifier onlyOwner() {\n        require(owner == msg.sender);\n        _;\n    }\n\n    constructor() public {\n        approvedCallers[msg.sender] = true;\n        owner = msg.sender;\n        saverProxy = 0x043125335E8feD7421F4aF91F7123b605b30F593;\n        changeIndex = 0;\n    }\n\n    /// @dev Users DSProxy should call this\n    function subscribe(bytes32 _cdpId, uint _minRatio, uint _maxRatio, uint _optimalRatioBoost, uint _optimalRatioRepay, uint _slippageLimit) public {\n        require(isOwner(msg.sender, _cdpId));\n\n        bool isCreated = holders[_cdpId].owner == address(0) ? true : false;\n\n        holders[_cdpId] = CdpHolder({\n            minRatio: _minRatio,\n            maxRatio: _maxRatio,\n            optimalRatioBoost: _optimalRatioBoost,\n            optimalRatioRepay: _optimalRatioRepay,\n            slippageLimit: _slippageLimit,\n            owner: msg.sender\n        });\n\n        changeIndex++;\n\n        if (isCreated) {\n            emit Subscribed(msg.sender, _cdpId);\n        } else {\n            emit Updated(msg.sender, _cdpId);\n        }\n    }\n\n    function unsubscribe(bytes32 _cdpId) public {\n        require(isOwner(msg.sender, _cdpId));\n\n        delete holders[_cdpId];\n\n        changeIndex++;\n\n        emit Unsubscribed(msg.sender, _cdpId);\n    }\n\n    /// @dev Should be callable by onlyApproved\n    function repayFor(bytes32 _cdpId, uint _amount) public onlyApproved {\n        // require(tx.gasPrice <= 40000000000);\n        if (gasToken.balanceOf(address(this)) >= BOOST_GAS_TOKEN) {\n            gasToken.free(BOOST_GAS_TOKEN);\n        }\n\n        CdpHolder memory holder = holders[_cdpId];\n        uint ratioBefore = getRatio(_cdpId);\n\n        require(holder.owner != address(0));\n        require(ratioBefore <= holders[_cdpId].minRatio);\n\n        DSProxyInterface(holder.owner).execute(saverProxy, abi.encodeWithSignature(\"repay(bytes32,uint256,uint256,uint256)\", _cdpId, _amount, 0, 2));\n\n        uint ratioAfter = getRatio(_cdpId);\n\n        emit CdpRepay(_cdpId, msg.sender, _amount, ratioBefore, ratioAfter);\n    }\n\n    /// @dev Should be callable by onlyApproved\n    function boostFor(bytes32 _cdpId, uint _amount) public onlyApproved {\n        if (gasToken.balanceOf(address(this)) >= REPAY_GAS_TOKEN) {\n            gasToken.free(REPAY_GAS_TOKEN);\n        }\n\n        CdpHolder memory holder = holders[_cdpId];\n        uint ratioBefore = getRatio(_cdpId);\n\n        require(holder.owner != address(0));\n\n        require(ratioBefore >= holders[_cdpId].maxRatio);\n\n        DSProxyInterface(holder.owner).execute(saverProxy, abi.encodeWithSignature(\"boost(bytes32,uint256,uint256,uint256)\", _cdpId, _amount, uint(-1), 2));\n\n        uint ratioAfter = getRatio(_cdpId);\n\n        emit CdpBoost(_cdpId, msg.sender, _amount, ratioBefore, ratioAfter);\n    }\n\n    function getRatio(bytes32 _cdpId) public returns(uint) {\n        return (rdiv(rmul(rmul(tub.ink(_cdpId), tub.tag()), WAD), tub.tab(_cdpId)));\n    }\n\n    function isOwner(address _owner, bytes32 _cdpId) internal returns(bool) {\n        require(tub.lad(_cdpId) == _owner);\n        \n        return true;\n    }\n\n    // Owner only operations\n    function addCaller(address _caller) public onlyOwner {\n        approvedCallers[_caller] = true;\n    }\n\n    function removeCaller(address _caller) public onlyOwner {\n        approvedCallers[_caller] = false;\n    }\n }",
  "sourcePath": "/Users/nenadpalinkasevic/Desktop/blockchain/cdpsaver-contracts/contracts/Monitor.sol",
  "compiler": {
    "name": "solc",
    "version": "0.5.0+commit.1d4f565a.Emscripten.clang"
  },
  "schemaVersion": "3.0.0",
  "updatedAt": "2019-08-15T08:25:24.139Z",
  "devdoc": {
    "methods": {
      "boostFor(bytes32,uint256)": {
        "details": "Should be callable by onlyApproved"
      },
      "repayFor(bytes32,uint256)": {
        "details": "Should be callable by onlyApproved"
      },
      "subscribe(bytes32,uint256,uint256,uint256,uint256,uint256)": {
        "details": "Users DSProxy should call this"
      }
    }
  },
  "userdoc": {
    "methods": {}
  }
}