{
  "contractName": "MonitorProxy",
  "abi": [
    {
      "constant": true,
      "inputs": [],
      "name": "FACTORY_ADDRESS",
      "outputs": [
        {
          "name": "",
          "type": "address"
        }
      ],
      "payable": false,
      "stateMutability": "view",
      "type": "function"
    },
    {
      "constant": false,
      "inputs": [
        {
          "name": "_cup",
          "type": "bytes32"
        },
        {
          "name": "_minRatio",
          "type": "uint256"
        },
        {
          "name": "_maxRatio",
          "type": "uint256"
        },
        {
          "name": "_optimalRatio",
          "type": "uint256"
        },
        {
          "name": "_slippageLimit",
          "type": "uint256"
        },
        {
          "name": "_monitor",
          "type": "address"
        }
      ],
      "name": "subscribe",
      "outputs": [],
      "payable": false,
      "stateMutability": "nonpayable",
      "type": "function"
    },
    {
      "constant": false,
      "inputs": [
        {
          "name": "_cup",
          "type": "bytes32"
        },
        {
          "name": "_monitor",
          "type": "address"
        }
      ],
      "name": "unsubscribe",
      "outputs": [],
      "payable": false,
      "stateMutability": "nonpayable",
      "type": "function"
    }
  ],
  "bytecode": "0x608060405234801561001057600080fd5b506105bd806100206000396000f3fe608060405260043610610057576000357c0100000000000000000000000000000000000000000000000000000000900463ffffffff1680638823151b1461005c578063d0a1ae3b146100b3578063d59fd22f14610136575b600080fd5b34801561006857600080fd5b50610071610191565b604051808273ffffffffffffffffffffffffffffffffffffffff1673ffffffffffffffffffffffffffffffffffffffff16815260200191505060405180910390f35b3480156100bf57600080fd5b50610134600480360360c08110156100d657600080fd5b810190808035906020019092919080359060200190929190803590602001909291908035906020019092919080359060200190929190803573ffffffffffffffffffffffffffffffffffffffff1690602001909291905050506101a9565b005b34801561014257600080fd5b5061018f6004803603604081101561015957600080fd5b8101908080359060200190929190803573ffffffffffffffffffffffffffffffffffffffff169060200190929190505050610506565b005b73c72e74e474682680a414b506699bbca44ab9a93081565b600073c72e74e474682680a414b506699bbca44ab9a93073ffffffffffffffffffffffffffffffffffffffff166365688cc96040518163ffffffff167c0100000000000000000000000000000000000000000000000000000000028152600401602060405180830381600087803b15801561022357600080fd5b505af1158015610237573d6000803e3d6000fd5b505050506040513d602081101561024d57600080fd5b810190808051906020019092919050505090503073ffffffffffffffffffffffffffffffffffffffff16637a9e5e4b826040518263ffffffff167c0100000000000000000000000000000000000000000000000000000000028152600401808273ffffffffffffffffffffffffffffffffffffffff1673ffffffffffffffffffffffffffffffffffffffff168152602001915050600060405180830381600087803b1580156102fb57600080fd5b505af115801561030f573d6000803e3d6000fd5b505050508073ffffffffffffffffffffffffffffffffffffffff1663cbeea68c833060405180807f6578656375746528616464726573732c62797465732900000000000000000000815250601601905060405180910390206040518463ffffffff167c0100000000000000000000000000000000000000000000000000000000028152600401808473ffffffffffffffffffffffffffffffffffffffff1673ffffffffffffffffffffffffffffffffffffffff1681526020018373ffffffffffffffffffffffffffffffffffffffff1673ffffffffffffffffffffffffffffffffffffffff168152602001827bffffffffffffffffffffffffffffffffffffffffffffffffffffffff191681526020019350505050600060405180830381600087803b15801561043e57600080fd5b505af1158015610452573d6000803e3d6000fd5b505050508173ffffffffffffffffffffffffffffffffffffffff16633f0740c588888888886040518663ffffffff167c01000000000000000000000000000000000000000000000000000000000281526004018086815260200185815260200184815260200183815260200182815260200195505050505050600060405180830381600087803b1580156104e557600080fd5b505af11580156104f9573d6000803e3d6000fd5b5050505050505050505050565b8073ffffffffffffffffffffffffffffffffffffffff1663f8c60146836040518263ffffffff167c010000000000000000000000000000000000000000000000000000000002815260040180828152602001915050600060405180830381600087803b15801561057557600080fd5b505af1158015610589573d6000803e3d6000fd5b50505050505056fea165627a7a72305820fb23d9e651cc2df028fbce5f6fb258ac3050e00799c881fba334e73982d7bc3a0029",
  "source": "pragma solidity ^0.5.0;\n\nimport \"./interfaces/TubInterface.sol\";\nimport \"./DS/DSGuard.sol\";\nimport \"./DS/DSAuth.sol\";\nimport \"./Monitor.sol\";\n\n/// @title MonitorProxy handles authorization and interaction with the Monitor contract\ncontract MonitorProxy {\n    // Kovan\n    address public constant FACTORY_ADDRESS = 0xc72E74E474682680a414b506699bBcA44ab9a930;\n\n    function subscribe(bytes32 _cup, uint _minRatio, uint _maxRatio, uint _optimalRatio, uint _slippageLimit, address _monitor) public {\n        DSGuard guard = DSGuardFactory(FACTORY_ADDRESS).newGuard();\n        DSAuth(address(this)).setAuthority(DSAuthority(address(guard)));\n\n        guard.permit(_monitor, address(this), bytes4(keccak256(\"execute(address,bytes)\")));\n\n        Monitor(_monitor).subscribe(_cup, _minRatio, _maxRatio, _optimalRatio, _slippageLimit);\n    }\n\n    function unsubscribe(bytes32 _cup, address _monitor) public {\n        Monitor(_monitor).unsubscribe(_cup);\n    }\n}",
  "sourcePath": "/Users/nenadpalinkasevic/Desktop/blockchain/cdpsaver-contracts/contracts/MonitorProxy.sol",
  "compiler": {
    "name": "solc",
    "version": "0.5.0+commit.1d4f565a.Emscripten.clang"
  },
  "schemaVersion": "3.0.0",
  "updatedAt": "2019-07-01T10:35:37.287Z",
  "devdoc": {
    "methods": {},
    "title": "MonitorProxy handles authorization and interaction with the Monitor contract"
  },
  "userdoc": {
    "methods": {}
  }
}