{
  "contractName": "SaverLogger",
  "abi": [
    {
      "anonymous": false,
      "inputs": [
        {
          "indexed": true,
          "name": "cdpId",
          "type": "uint256"
        },
        {
          "indexed": true,
          "name": "owner",
          "type": "address"
        },
        {
          "indexed": false,
          "name": "collateralAmount",
          "type": "uint256"
        },
        {
          "indexed": false,
          "name": "daiAmount",
          "type": "uint256"
        }
      ],
      "name": "Repay",
      "type": "event"
    },
    {
      "anonymous": false,
      "inputs": [
        {
          "indexed": true,
          "name": "cdpId",
          "type": "uint256"
        },
        {
          "indexed": true,
          "name": "owner",
          "type": "address"
        },
        {
          "indexed": false,
          "name": "daiAmount",
          "type": "uint256"
        },
        {
          "indexed": false,
          "name": "collateralAmount",
          "type": "uint256"
        }
      ],
      "name": "Boost",
      "type": "event"
    },
    {
      "constant": false,
      "inputs": [
        {
          "name": "_cdpId",
          "type": "uint256"
        },
        {
          "name": "_owner",
          "type": "address"
        },
        {
          "name": "_collateralAmount",
          "type": "uint256"
        },
        {
          "name": "_daiAmount",
          "type": "uint256"
        }
      ],
      "name": "LogRepay",
      "outputs": [],
      "payable": false,
      "stateMutability": "nonpayable",
      "type": "function"
    },
    {
      "constant": false,
      "inputs": [
        {
          "name": "_cdpId",
          "type": "uint256"
        },
        {
          "name": "_owner",
          "type": "address"
        },
        {
          "name": "_daiAmount",
          "type": "uint256"
        },
        {
          "name": "_collateralAmount",
          "type": "uint256"
        }
      ],
      "name": "LogBoost",
      "outputs": [],
      "payable": false,
      "stateMutability": "nonpayable",
      "type": "function"
    }
  ],
  "bytecode": "0x608060405234801561001057600080fd5b50610215806100206000396000f3fe60806040526004361061004c576000357c0100000000000000000000000000000000000000000000000000000000900463ffffffff168063406bb32a1461005157806368771005146100c0575b600080fd5b34801561005d57600080fd5b506100be6004803603608081101561007457600080fd5b8101908080359060200190929190803573ffffffffffffffffffffffffffffffffffffffff169060200190929190803590602001909291908035906020019092919050505061012f565b005b3480156100cc57600080fd5b5061012d600480360360808110156100e357600080fd5b8101908080359060200190929190803573ffffffffffffffffffffffffffffffffffffffff169060200190929190803590602001909291908035906020019092919050505061018c565b005b8273ffffffffffffffffffffffffffffffffffffffff16847f4e209d95368098bc8c8a8b0010964bca5d6789b67388238d3a2bad8e236e54b08484604051808381526020018281526020019250505060405180910390a350505050565b8273ffffffffffffffffffffffffffffffffffffffff16847f8eeb98bc97afac8a400c010e88a1295ce2cef30b23c752ac702c2b3432bbba438484604051808381526020018281526020019250505060405180910390a35050505056fea165627a7a7230582069ee215d2e7468e159eb5561270fcd62f9f288195f45807d0dd27890996fc2f90029",
  "source": "pragma solidity 0.5.0;\n\ncontract SaverLogger {\n    event Repay(uint indexed cdpId, address indexed owner, uint collateralAmount, uint daiAmount);\n    event Boost(uint indexed cdpId, address indexed owner, uint daiAmount, uint collateralAmount);\n\n    function LogRepay(uint _cdpId, address _owner, uint _collateralAmount, uint _daiAmount) public {\n        emit Repay(_cdpId, _owner, _collateralAmount, _daiAmount);\n    }\n\n    function LogBoost(uint _cdpId, address _owner, uint _daiAmount, uint _collateralAmount) public {\n        emit Boost(_cdpId, _owner, _daiAmount, _collateralAmount);\n    }\n}",
  "sourcePath": "/Users/nenadpalinkasevic/Desktop/blockchain/cdpsaver-contracts/contracts/SaverLogger.sol",
  "compiler": {
    "name": "solc",
    "version": "0.5.0+commit.1d4f565a.Emscripten.clang"
  },
  "schemaVersion": "3.0.0",
  "updatedAt": "2019-06-28T08:21:02.284Z",
  "devdoc": {
    "methods": {}
  },
  "userdoc": {
    "methods": {}
  }
}