{
  "contractName": "SaverProxy",
  "abi": [
    {
      "constant": true,
      "inputs": [],
      "name": "WETH_ADDRESS",
      "outputs": [
        {
          "name": "",
          "type": "address"
        }
      ],
      "payable": false,
      "stateMutability": "view",
      "type": "function"
    },
    {
      "constant": true,
      "inputs": [],
      "name": "DAI_ADDRESS",
      "outputs": [
        {
          "name": "",
          "type": "address"
        }
      ],
      "payable": false,
      "stateMutability": "view",
      "type": "function"
    },
    {
      "constant": true,
      "inputs": [],
      "name": "VOX_ADDRESS",
      "outputs": [
        {
          "name": "",
          "type": "address"
        }
      ],
      "payable": false,
      "stateMutability": "view",
      "type": "function"
    },
    {
      "constant": true,
      "inputs": [],
      "name": "ETH2DAI_WRAPPER",
      "outputs": [
        {
          "name": "",
          "type": "address"
        }
      ],
      "payable": false,
      "stateMutability": "view",
      "type": "function"
    },
    {
      "constant": true,
      "inputs": [],
      "name": "SERVICE_FEE",
      "outputs": [
        {
          "name": "",
          "type": "uint256"
        }
      ],
      "payable": false,
      "stateMutability": "view",
      "type": "function"
    },
    {
      "constant": true,
      "inputs": [],
      "name": "MKR_ADDRESS",
      "outputs": [
        {
          "name": "",
          "type": "address"
        }
      ],
      "payable": false,
      "stateMutability": "view",
      "type": "function"
    },
    {
      "constant": true,
      "inputs": [],
      "name": "LOGGER_ADDRESS",
      "outputs": [
        {
          "name": "",
          "type": "address"
        }
      ],
      "payable": false,
      "stateMutability": "view",
      "type": "function"
    },
    {
      "constant": true,
      "inputs": [],
      "name": "KYBER_WRAPPER",
      "outputs": [
        {
          "name": "",
          "type": "address"
        }
      ],
      "payable": false,
      "stateMutability": "view",
      "type": "function"
    },
    {
      "constant": true,
      "inputs": [],
      "name": "PETH_ADDRESS",
      "outputs": [
        {
          "name": "",
          "type": "address"
        }
      ],
      "payable": false,
      "stateMutability": "view",
      "type": "function"
    },
    {
      "constant": true,
      "inputs": [],
      "name": "ETHER_ADDRESS",
      "outputs": [
        {
          "name": "",
          "type": "address"
        }
      ],
      "payable": false,
      "stateMutability": "view",
      "type": "function"
    },
    {
      "constant": true,
      "inputs": [],
      "name": "WALLET_ID",
      "outputs": [
        {
          "name": "",
          "type": "address"
        }
      ],
      "payable": false,
      "stateMutability": "view",
      "type": "function"
    },
    {
      "constant": true,
      "inputs": [],
      "name": "UNISWAP_WRAPPER",
      "outputs": [
        {
          "name": "",
          "type": "address"
        }
      ],
      "payable": false,
      "stateMutability": "view",
      "type": "function"
    },
    {
      "constant": true,
      "inputs": [],
      "name": "TUB_ADDRESS",
      "outputs": [
        {
          "name": "",
          "type": "address"
        }
      ],
      "payable": false,
      "stateMutability": "view",
      "type": "function"
    },
    {
      "constant": false,
      "inputs": [
        {
          "name": "_cup",
          "type": "bytes32"
        },
        {
          "name": "_amount",
          "type": "uint256"
        },
        {
          "name": "_minPrice",
          "type": "uint256"
        },
        {
          "name": "_exchangeType",
          "type": "uint256"
        }
      ],
      "name": "repay",
      "outputs": [],
      "payable": false,
      "stateMutability": "nonpayable",
      "type": "function"
    },
    {
      "constant": false,
      "inputs": [
        {
          "name": "_cup",
          "type": "bytes32"
        },
        {
          "name": "_amount",
          "type": "uint256"
        },
        {
          "name": "_minPrice",
          "type": "uint256"
        },
        {
          "name": "_exchangeType",
          "type": "uint256"
        }
      ],
      "name": "boost",
      "outputs": [],
      "payable": false,
      "stateMutability": "nonpayable",
      "type": "function"
    },
    {
      "constant": false,
      "inputs": [
        {
          "name": "_tub",
          "type": "address"
        },
        {
          "name": "_cup",
          "type": "bytes32"
        }
      ],
      "name": "maxFreeCollateral",
      "outputs": [
        {
          "name": "",
          "type": "uint256"
        }
      ],
      "payable": false,
      "stateMutability": "nonpayable",
      "type": "function"
    },
    {
      "constant": false,
      "inputs": [
        {
          "name": "_tub",
          "type": "address"
        },
        {
          "name": "_cup",
          "type": "bytes32"
        }
      ],
      "name": "maxFreeDai",
      "outputs": [
        {
          "name": "",
          "type": "uint256"
        }
      ],
      "payable": false,
      "stateMutability": "nonpayable",
      "type": "function"
    },
    {
      "constant": false,
      "inputs": [
        {
          "name": "_tub",
          "type": "address"
        },
        {
          "name": "_cup",
          "type": "bytes32"
        },
        {
          "name": "_daiRepay",
          "type": "uint256"
        }
      ],
      "name": "stabilityFeeInMkr",
      "outputs": [
        {
          "name": "",
          "type": "uint256"
        }
      ],
      "payable": false,
      "stateMutability": "nonpayable",
      "type": "function"
    }
  ],
  "bytecode": "0x608060405234801561001057600080fd5b506131a1806100206000396000f3fe6080604052600436106100fc576000357c0100000000000000000000000000000000000000000000000000000000900463ffffffff168063040141e5146101015780632a4c0a1a1461015857806336e6da11146101af57806343fb75e8146102065780634c3e49f01461025d57806350c86de5146102b657806367dc7736146102e1578063730fd6801461033a578063825ffd92146103a957806394bfbe7414610400578063b175afa114610457578063c387fd86146104ae578063c9fde27014610527578063cf1d21c01461057e578063d325a2c1146105d5578063d3661fa514610644578063ddaa293c1461069b578063f0d405e5146106f2575b600080fd5b34801561010d57600080fd5b50610116610749565b604051808273ffffffffffffffffffffffffffffffffffffffff1673ffffffffffffffffffffffffffffffffffffffff16815260200191505060405180910390f35b34801561016457600080fd5b5061016d610761565b604051808273ffffffffffffffffffffffffffffffffffffffff1673ffffffffffffffffffffffffffffffffffffffff16815260200191505060405180910390f35b3480156101bb57600080fd5b506101c4610779565b604051808273ffffffffffffffffffffffffffffffffffffffff1673ffffffffffffffffffffffffffffffffffffffff16815260200191505060405180910390f35b34801561021257600080fd5b5061021b610791565b604051808273ffffffffffffffffffffffffffffffffffffffff1673ffffffffffffffffffffffffffffffffffffffff16815260200191505060405180910390f35b34801561026957600080fd5b506102b46004803603608081101561028057600080fd5b81019080803590602001909291908035906020019092919080359060200190929190803590602001909291905050506107a9565b005b3480156102c257600080fd5b506102cb610f1c565b6040518082815260200191505060405180910390f35b3480156102ed57600080fd5b506103386004803603608081101561030457600080fd5b8101908080359060200190929190803590602001909291908035906020019092919080359060200190929190505050610f22565b005b34801561034657600080fd5b506103936004803603604081101561035d57600080fd5b81019080803573ffffffffffffffffffffffffffffffffffffffff169060200190929190803590602001909291905050506112c3565b6040518082815260200191505060405180910390f35b3480156103b557600080fd5b506103be61158b565b604051808273ffffffffffffffffffffffffffffffffffffffff1673ffffffffffffffffffffffffffffffffffffffff16815260200191505060405180910390f35b34801561040c57600080fd5b506104156115a3565b604051808273ffffffffffffffffffffffffffffffffffffffff1673ffffffffffffffffffffffffffffffffffffffff16815260200191505060405180910390f35b34801561046357600080fd5b5061046c6115bb565b604051808273ffffffffffffffffffffffffffffffffffffffff1673ffffffffffffffffffffffffffffffffffffffff16815260200191505060405180910390f35b3480156104ba57600080fd5b50610511600480360360608110156104d157600080fd5b81019080803573ffffffffffffffffffffffffffffffffffffffff16906020019092919080359060200190929190803590602001909291905050506115d3565b6040518082815260200191505060405180910390f35b34801561053357600080fd5b5061053c6118a8565b604051808273ffffffffffffffffffffffffffffffffffffffff1673ffffffffffffffffffffffffffffffffffffffff16815260200191505060405180910390f35b34801561058a57600080fd5b506105936118c0565b604051808273ffffffffffffffffffffffffffffffffffffffff1673ffffffffffffffffffffffffffffffffffffffff16815260200191505060405180910390f35b3480156105e157600080fd5b5061062e600480360360408110156105f857600080fd5b81019080803573ffffffffffffffffffffffffffffffffffffffff169060200190929190803590602001909291905050506118d8565b6040518082815260200191505060405180910390f35b34801561065057600080fd5b50610659611c5b565b604051808273ffffffffffffffffffffffffffffffffffffffff1673ffffffffffffffffffffffffffffffffffffffff16815260200191505060405180910390f35b3480156106a757600080fd5b506106b0611c73565b604051808273ffffffffffffffffffffffffffffffffffffffff1673ffffffffffffffffffffffffffffffffffffffff16815260200191505060405180910390f35b3480156106fe57600080fd5b50610707611c8b565b604051808273ffffffffffffffffffffffffffffffffffffffff1673ffffffffffffffffffffffffffffffffffffffff16815260200191505060405180910390f35b73d0a1e359811322d97991e03f863a0c30c2cf029c81565b73c4375b7de8af5a38a93548eb8453a498222c4ff281565b73bb4339c0ab5b1d9f14bd6e3426444a1e9d86a1d981565b73823cde416973a19f98bb9c96d97f4fe6c9a7238b81565b6000806107e08573eeeeeeeeeeeeeeeeeeeeeeeeeeeeeeeeeeeeeeee73c4375b7de8af5a38a93548eb8453a498222c4ff286611ca3565b8092508193505050838111151561085f576040517f08c379a000000000000000000000000000000000000000000000000000000000815260040180806020018281038252600b8152602001807f536c70706167652068697400000000000000000000000000000000000000000081525060200191505060405180910390fd5b600073a71937147b55deb8a530c7229c442fd3f31b7db2905061089573c4375b7de8af5a38a93548eb8453a498222c4ff2612040565b6108b273aaf64bfcc32d0f15873a02163e7e500671a4ffcd612040565b6108cf73f4d791139ce033ad35db2b2201435fad668b1b64612040565b6108ec73d0a1e359811322d97991e03f863a0c30c2cf029c612040565b60006108f88289612292565b905061090482896118d8565b8711156109185761091582896118d8565b96505b6109238289896124b0565b600061092f888561279d565b9050600061093d848b6127e1565b90506000610962858c61095d866101908881151561095757fe5b046128bd565b6115d3565b90508183111561097a57610977858c846115d3565b90505b600061098e826109898d6128d9565b612a3c565b90506000735595930d576aedf13945c83ce5aad827529a131073ffffffffffffffffffffffffffffffffffffffff166343ac1dc6838473aaf64bfcc32d0f15873a02163e7e500671a4ffcd876040518563ffffffff167c0100000000000000000000000000000000000000000000000000000000028152600401808481526020018373ffffffffffffffffffffffffffffffffffffffff1673ffffffffffffffffffffffffffffffffffffffff168152602001828152602001935050505060408051808303818588803b158015610a6457600080fd5b505af1158015610a78573d6000803e3d6000fd5b50505050506040513d6040811015610a8f57600080fd5b810190808051906020019092919080519060200190929190505050905080915050610ac38c610abe84846128bd565b6128bd565b9b508873ffffffffffffffffffffffffffffffffffffffff166343ac1dc68d8e73c4375b7de8af5a38a93548eb8453a498222c4ff27fffffffffffffffffffffffffffffffffffffffffffffffffffffffffffffffff6040518563ffffffff167c0100000000000000000000000000000000000000000000000000000000028152600401808481526020018373ffffffffffffffffffffffffffffffffffffffff1673ffffffffffffffffffffffffffffffffffffffff168152602001828152602001935050505060408051808303818588803b158015610ba357600080fd5b505af1158015610bb7573d6000803e3d6000fd5b50505050506040513d6040811015610bce57600080fd5b8101908080519060200190929190805190602001909291905050505080955050610c0085610bfb87612a78565b6128bd565b945083851115610d9a578673ffffffffffffffffffffffffffffffffffffffff166373b381018e866040518363ffffffff167c01000000000000000000000000000000000000000000000000000000000281526004018083815260200182815260200192505050600060405180830381600087803b158015610c8157600080fd5b505af1158015610c95573d6000803e3d6000fd5b5050505073c4375b7de8af5a38a93548eb8453a498222c4ff273ffffffffffffffffffffffffffffffffffffffff1663a9059cbb33610cd488886128bd565b6040518363ffffffff167c0100000000000000000000000000000000000000000000000000000000028152600401808373ffffffffffffffffffffffffffffffffffffffff1673ffffffffffffffffffffffffffffffffffffffff16815260200182815260200192505050602060405180830381600087803b158015610d5957600080fd5b505af1158015610d6d573d6000803e3d6000fd5b505050506040513d6020811015610d8357600080fd5b810190808051906020019092919050505050610e2a565b8673ffffffffffffffffffffffffffffffffffffffff166373b381018e876040518363ffffffff167c01000000000000000000000000000000000000000000000000000000000281526004018083815260200182815260200192505050600060405180830381600087803b158015610e1157600080fd5b505af1158015610e25573d6000803e3d6000fd5b505050505b7332d0e18f988f952eb3524ace762042381a2c39e573ffffffffffffffffffffffffffffffffffffffff1663406bb32a8e60019004338f896040518563ffffffff167c0100000000000000000000000000000000000000000000000000000000028152600401808581526020018473ffffffffffffffffffffffffffffffffffffffff1673ffffffffffffffffffffffffffffffffffffffff168152602001838152602001828152602001945050505050600060405180830381600087803b158015610ef557600080fd5b505af1158015610f09573d6000803e3d6000fd5b5050505050505050505050505050505050565b61019081565b600080610f598573c4375b7de8af5a38a93548eb8453a498222c4ff273eeeeeeeeeeeeeeeeeeeeeeeeeeeeeeeeeeeeeeee86611ca3565b809250819350505083610f74670de0b6b3a764000083612a3c565b101515610fe9576040517f08c379a000000000000000000000000000000000000000000000000000000000815260040180806020018281038252600c8152602001807f536c69707061676520686974000000000000000000000000000000000000000081525060200191505060405180910390fd5b600073a71937147b55deb8a530c7229c442fd3f31b7db2905061101f73d0a1e359811322d97991e03f863a0c30c2cf029c612040565b61103c73f4d791139ce033ad35db2b2201435fad668b1b64612040565b61105973c4375b7de8af5a38a93548eb8453a498222c4ff2612040565b600061106582896112c3565b905080871115611073578096505b60008273ffffffffffffffffffffffffffffffffffffffff16631f3634ed8a6040518263ffffffff167c010000000000000000000000000000000000000000000000000000000002815260040180828152602001915050602060405180830381600087803b1580156110e457600080fd5b505af11580156110f8573d6000803e3d6000fd5b505050506040513d602081101561110e57600080fd5b810190808051906020019092919050505090508273ffffffffffffffffffffffffffffffffffffffff1663440f19ba8a8a6040518363ffffffff167c01000000000000000000000000000000000000000000000000000000000281526004018083815260200182815260200192505050600060405180830381600087803b15801561119857600080fd5b505af11580156111ac573d6000803e3d6000fd5b505050506111c2886111bd8a612a78565b6128bd565b975060006111d2848b8b89612b96565b90507332d0e18f988f952eb3524ace762042381a2c39e573ffffffffffffffffffffffffffffffffffffffff1663687710058b60019004338c856040518563ffffffff167c0100000000000000000000000000000000000000000000000000000000028152600401808581526020018473ffffffffffffffffffffffffffffffffffffffff1673ffffffffffffffffffffffffffffffffffffffff168152602001838152602001828152602001945050505050600060405180830381600087803b15801561129f57600080fd5b505af11580156112b3573d6000803e3d6000fd5b5050505050505050505050505050565b600060016115826114d361141e8673ffffffffffffffffffffffffffffffffffffffff16631f3634ed876040518263ffffffff167c010000000000000000000000000000000000000000000000000000000002815260040180828152602001915050602060405180830381600087803b15801561133f57600080fd5b505af1158015611353573d6000803e3d6000fd5b505050506040513d602081101561136957600080fd5b81019080805190602001909291905050508773ffffffffffffffffffffffffffffffffffffffff166351f910666040518163ffffffff167c0100000000000000000000000000000000000000000000000000000000028152600401602060405180830381600087803b1580156113de57600080fd5b505af11580156113f2573d6000803e3d6000fd5b505050506040513d602081101561140857600080fd5b810190808051906020019092919050505061309d565b6114ce8773ffffffffffffffffffffffffffffffffffffffff1663ab0783da6040518163ffffffff167c0100000000000000000000000000000000000000000000000000000000028152600401602060405180830381600087803b15801561148557600080fd5b505af1158015611499573d6000803e3d6000fd5b505050506040513d60208110156114af57600080fd5b8101908080519060200190929190505050670de0b6b3a764000061309d565b612a3c565b8573ffffffffffffffffffffffffffffffffffffffff1663f7c8d634866040518263ffffffff167c010000000000000000000000000000000000000000000000000000000002815260040180828152602001915050602060405180830381600087803b15801561154257600080fd5b505af1158015611556573d6000803e3d6000fd5b505050506040513d602081101561156c57600080fd5b81019080805190602001909291905050506128bd565b03905092915050565b73aaf64bfcc32d0f15873a02163e7e500671a4ffcd81565b7332d0e18f988f952eb3524ace762042381a2c39e581565b735595930d576aedf13945c83ce5aad827529a131081565b60008060008061173e856117398973ffffffffffffffffffffffffffffffffffffffff16636f78ee0d8a6040518263ffffffff167c010000000000000000000000000000000000000000000000000000000002815260040180828152602001915050602060405180830381600087803b15801561164f57600080fd5b505af1158015611663573d6000803e3d6000fd5b505050506040513d602081101561167957600080fd5b81019080805190602001909291905050508a73ffffffffffffffffffffffffffffffffffffffff1663f7c8d6348b6040518263ffffffff167c010000000000000000000000000000000000000000000000000000000002815260040180828152602001915050602060405180830381600087803b1580156116f957600080fd5b505af115801561170d573d6000803e3d6000fd5b505050506040513d602081101561172357600080fd5b81019080805190602001909291905050506130e9565b61309d565b90508673ffffffffffffffffffffffffffffffffffffffff1663ace237f56040518163ffffffff167c0100000000000000000000000000000000000000000000000000000000028152600401602060405180830381600087803b1580156117a457600080fd5b505af11580156117b8573d6000803e3d6000fd5b505050506040513d60208110156117ce57600080fd5b810190808051906020019092919050505073ffffffffffffffffffffffffffffffffffffffff166359e02dd76040518163ffffffff167c01000000000000000000000000000000000000000000000000000000000281526004016040805180830381600087803b15801561184157600080fd5b505af1158015611855573d6000803e3d6000fd5b505050506040513d604081101561186b57600080fd5b810190808051906020019092919080519060200190929190505050809350819450505061189c818460019004612a3c565b93505050509392505050565b73f4d791139ce033ad35db2b2201435fad668b1b6481565b73eeeeeeeeeeeeeeeeeeeeeeeeeeeeeeeeeeeeeeee81565b60006001611c528473ffffffffffffffffffffffffffffffffffffffff16631f3634ed856040518263ffffffff167c010000000000000000000000000000000000000000000000000000000002815260040180828152602001915050602060405180830381600087803b15801561194e57600080fd5b505af1158015611962573d6000803e3d6000fd5b505050506040513d602081101561197857600080fd5b8101908080519060200190929190505050611c4d611ba9611af18873ffffffffffffffffffffffffffffffffffffffff1663f7c8d634896040518263ffffffff167c010000000000000000000000000000000000000000000000000000000002815260040180828152602001915050602060405180830381600087803b158015611a0157600080fd5b505af1158015611a15573d6000803e3d6000fd5b505050506040513d6020811015611a2b57600080fd5b8101908080519060200190929190505050611aec8a73ffffffffffffffffffffffffffffffffffffffff1663ab0783da6040518163ffffffff167c0100000000000000000000000000000000000000000000000000000000028152600401602060405180830381600087803b158015611aa357600080fd5b505af1158015611ab7573d6000803e3d6000fd5b505050506040513d6020811015611acd57600080fd5b8101908080519060200190929190505050670de0b6b3a764000061309d565b61279d565b73bb4339c0ab5b1d9f14bd6e3426444a1e9d86a1d973ffffffffffffffffffffffffffffffffffffffff1663495d32cb6040518163ffffffff167c0100000000000000000000000000000000000000000000000000000000028152600401602060405180830381600087803b158015611b6957600080fd5b505af1158015611b7d573d6000803e3d6000fd5b505050506040513d6020811015611b9357600080fd5b810190808051906020019092919050505061279d565b8773ffffffffffffffffffffffffffffffffffffffff166351f910666040518163ffffffff167c0100000000000000000000000000000000000000000000000000000000028152600401602060405180830381600087803b158015611c0d57600080fd5b505af1158015611c21573d6000803e3d6000fd5b505050506040513d6020811015611c3757600080fd5b8101908080519060200190929190505050612a3c565b6128bd565b03905092915050565b7354b44c6b18fc0b4a1010b21d524c338d1f8065f681565b735595930d576aedf13945c83ce5aad827529a131081565b73a71937147b55deb8a530c7229c442fd3f31b7db281565b6000806000806000735595930d576aedf13945c83ce5aad827529a131073ffffffffffffffffffffffffffffffffffffffff1663809a9e5589898c6040518463ffffffff167c0100000000000000000000000000000000000000000000000000000000028152600401808473ffffffffffffffffffffffffffffffffffffffff1673ffffffffffffffffffffffffffffffffffffffff1681526020018373ffffffffffffffffffffffffffffffffffffffff1673ffffffffffffffffffffffffffffffffffffffff16815260200182815260200193505050506040805180830381600087803b158015611d9557600080fd5b505af1158015611da9573d6000803e3d6000fd5b505050506040513d6040811015611dbf57600080fd5b8101908080519060200190929190805190602001909291905050505080935050735595930d576aedf13945c83ce5aad827529a131073ffffffffffffffffffffffffffffffffffffffff1663809a9e5589898c6040518463ffffffff167c0100000000000000000000000000000000000000000000000000000000028152600401808473ffffffffffffffffffffffffffffffffffffffff1673ffffffffffffffffffffffffffffffffffffffff1681526020018373ffffffffffffffffffffffffffffffffffffffff1673ffffffffffffffffffffffffffffffffffffffff16815260200182815260200193505050506040805180830381600087803b158015611ec957600080fd5b505af1158015611edd573d6000803e3d6000fd5b505050506040513d6040811015611ef357600080fd5b81019080805190602001909291908051906020019092919050505050809250506001861415611f3e5773823cde416973a19f98bb9c96d97f4fe6c9a7238b8194509450505050612037565b6002861415611f6957735595930d576aedf13945c83ce5aad827529a13108394509450505050612037565b6003861415611f9457735595930d576aedf13945c83ce5aad827529a13108294509450505050612037565b8281118015611fa257508181115b15611fc95773823cde416973a19f98bb9c96d97f4fe6c9a7238b8194509450505050612037565b8183118015611fd757508083115b15611ffe57735595930d576aedf13945c83ce5aad827529a13108394509450505050612037565b828211801561200c57508082115b1561203357735595930d576aedf13945c83ce5aad827529a13108294509450505050612037565b5050505b94509492505050565b60027fffffffffffffffffffffffffffffffffffffffffffffffffffffffffffffffff81151561206c57fe5b048173ffffffffffffffffffffffffffffffffffffffff1663dd62ed3e33846040518363ffffffff167c0100000000000000000000000000000000000000000000000000000000028152600401808373ffffffffffffffffffffffffffffffffffffffff1673ffffffffffffffffffffffffffffffffffffffff1681526020018273ffffffffffffffffffffffffffffffffffffffff1673ffffffffffffffffffffffffffffffffffffffff1681526020019250505060206040518083038186803b15801561213a57600080fd5b505afa15801561214e573d6000803e3d6000fd5b505050506040513d602081101561216457600080fd5b8101908080519060200190929190505050101561228f578073ffffffffffffffffffffffffffffffffffffffff1663095ea7b373a71937147b55deb8a530c7229c442fd3f31b7db27fffffffffffffffffffffffffffffffffffffffffffffffffffffffffffffffff6040518363ffffffff167c0100000000000000000000000000000000000000000000000000000000028152600401808373ffffffffffffffffffffffffffffffffffffffff1673ffffffffffffffffffffffffffffffffffffffff16815260200182815260200192505050602060405180830381600087803b15801561225257600080fd5b505af1158015612266573d6000803e3d6000fd5b505050506040513d602081101561227c57600080fd5b8101908080519060200190929190505050505b50565b60006124a86123f96123eb8573ffffffffffffffffffffffffffffffffffffffff16631f3634ed866040518263ffffffff167c010000000000000000000000000000000000000000000000000000000002815260040180828152602001915050602060405180830381600087803b15801561230c57600080fd5b505af1158015612320573d6000803e3d6000fd5b505050506040513d602081101561233657600080fd5b81019080805190602001909291905050508673ffffffffffffffffffffffffffffffffffffffff166351f910666040518163ffffffff167c0100000000000000000000000000000000000000000000000000000000028152600401602060405180830381600087803b1580156123ab57600080fd5b505af11580156123bf573d6000803e3d6000fd5b505050506040513d60208110156123d557600080fd5b810190808051906020019092919050505061309d565b670de0b6b3a764000061309d565b8473ffffffffffffffffffffffffffffffffffffffff1663f7c8d634856040518263ffffffff167c010000000000000000000000000000000000000000000000000000000002815260040180828152602001915050602060405180830381600087803b15801561246857600080fd5b505af115801561247c573d6000803e3d6000fd5b505050506040513d602081101561249257600080fd5b8101908080519060200190929190505050612a3c565b905092915050565b600061255a828573ffffffffffffffffffffffffffffffffffffffff16637ec9c3b86040518163ffffffff167c0100000000000000000000000000000000000000000000000000000000028152600401602060405180830381600087803b15801561251a57600080fd5b505af115801561252e573d6000803e3d6000fd5b505050506040513d602081101561254457600080fd5b81019080805190602001909291905050506130e9565b90508373ffffffffffffffffffffffffffffffffffffffff1663a5cd184e84836040518363ffffffff167c01000000000000000000000000000000000000000000000000000000000281526004018083815260200182815260200192505050600060405180830381600087803b1580156125d357600080fd5b505af11580156125e7573d6000803e3d6000fd5b505050508373ffffffffffffffffffffffffffffffffffffffff16637f8661a1826040518263ffffffff167c010000000000000000000000000000000000000000000000000000000002815260040180828152602001915050600060405180830381600087803b15801561265a57600080fd5b505af115801561266e573d6000803e3d6000fd5b505050508373ffffffffffffffffffffffffffffffffffffffff16637bd2bea76040518163ffffffff167c0100000000000000000000000000000000000000000000000000000000028152600401602060405180830381600087803b1580156126d657600080fd5b505af11580156126ea573d6000803e3d6000fd5b505050506040513d602081101561270057600080fd5b810190808051906020019092919050505073ffffffffffffffffffffffffffffffffffffffff16632e1a7d4d836040518263ffffffff167c010000000000000000000000000000000000000000000000000000000002815260040180828152602001915050600060405180830381600087803b15801561277f57600080fd5b505af1158015612793573d6000803e3d6000fd5b5050505050505050565b6000670de0b6b3a76400006127cf6127b58585613129565b6002670de0b6b3a76400008115156127c957fe5b04613159565b8115156127d857fe5b04905092915050565b60008273ffffffffffffffffffffffffffffffffffffffff1663fdac0025836040518263ffffffff167c010000000000000000000000000000000000000000000000000000000002815260040180828152602001915050608060405180830381600087803b15801561285257600080fd5b505af1158015612866573d6000803e3d6000fd5b505050506040513d608081101561287c57600080fd5b810190808051906020019092919080519060200190929190805190602001909291908051906020019092919050505090919250909150508091505092915050565b600082828403915081111515156128d357600080fd5b92915050565b6000735595930d576aedf13945c83ce5aad827529a131073ffffffffffffffffffffffffffffffffffffffff1663809a9e5573eeeeeeeeeeeeeeeeeeeeeeeeeeeeeeeeeeeeeeee73aaf64bfcc32d0f15873a02163e7e500671a4ffcd856040518463ffffffff167c0100000000000000000000000000000000000000000000000000000000028152600401808473ffffffffffffffffffffffffffffffffffffffff1673ffffffffffffffffffffffffffffffffffffffff1681526020018373ffffffffffffffffffffffffffffffffffffffff1673ffffffffffffffffffffffffffffffffffffffff16815260200182815260200193505050506040805180830381600087803b1580156129ed57600080fd5b505af1158015612a01573d6000803e3d6000fd5b505050506040513d6040811015612a1757600080fd5b8101908080519060200190929190805190602001909291905050505080915050919050565b600081612a66612a5485670de0b6b3a7640000613129565b600285811515612a6057fe5b04613159565b811515612a6f57fe5b04905092915050565b600061019082811515612a8757fe5b04905073c4375b7de8af5a38a93548eb8453a498222c4ff273ffffffffffffffffffffffffffffffffffffffff1663a9059cbb7354b44c6b18fc0b4a1010b21d524c338d1f8065f6836040518363ffffffff167c0100000000000000000000000000000000000000000000000000000000028152600401808373ffffffffffffffffffffffffffffffffffffffff1673ffffffffffffffffffffffffffffffffffffffff16815260200182815260200192505050602060405180830381600087803b158015612b5557600080fd5b505af1158015612b69573d6000803e3d6000fd5b505050506040513d6020811015612b7f57600080fd5b810190808051906020019092919050505050919050565b600073c4375b7de8af5a38a93548eb8453a498222c4ff273ffffffffffffffffffffffffffffffffffffffff1663a9059cbb83856040518363ffffffff167c0100000000000000000000000000000000000000000000000000000000028152600401808373ffffffffffffffffffffffffffffffffffffffff1673ffffffffffffffffffffffffffffffffffffffff16815260200182815260200192505050602060405180830381600087803b158015612c4f57600080fd5b505af1158015612c63573d6000803e3d6000fd5b505050506040513d6020811015612c7957600080fd5b81019080805190602001909291905050505060008273ffffffffffffffffffffffffffffffffffffffff16633bba21dc73c4375b7de8af5a38a93548eb8453a498222c4ff2867fffffffffffffffffffffffffffffffffffffffffffffffffffffffffffffffff6040518463ffffffff167c0100000000000000000000000000000000000000000000000000000000028152600401808473ffffffffffffffffffffffffffffffffffffffff1673ffffffffffffffffffffffffffffffffffffffff1681526020018381526020018281526020019350505050602060405180830381600087803b158015612d6c57600080fd5b505af1158015612d80573d6000803e3d6000fd5b505050506040513d6020811015612d9657600080fd5b810190808051906020019092919050505090508573ffffffffffffffffffffffffffffffffffffffff16637bd2bea76040518163ffffffff167c0100000000000000000000000000000000000000000000000000000000028152600401602060405180830381600087803b158015612e0d57600080fd5b505af1158015612e21573d6000803e3d6000fd5b505050506040513d6020811015612e3757600080fd5b810190808051906020019092919050505073ffffffffffffffffffffffffffffffffffffffff1663d0e30db0826040518263ffffffff167c01000000000000000000000000000000000000000000000000000000000281526004016000604051808303818588803b158015612eab57600080fd5b505af1158015612ebf573d6000803e3d6000fd5b50505050506000612f78612f71838973ffffffffffffffffffffffffffffffffffffffff16637ec9c3b86040518163ffffffff167c0100000000000000000000000000000000000000000000000000000000028152600401602060405180830381600087803b158015612f3157600080fd5b505af1158015612f45573d6000803e3d6000fd5b505050506040513d6020811015612f5b57600080fd5b81019080805190602001909291905050506130e9565b60016128bd565b90508673ffffffffffffffffffffffffffffffffffffffff1663049878f3826040518263ffffffff167c010000000000000000000000000000000000000000000000000000000002815260040180828152602001915050600060405180830381600087803b158015612fe957600080fd5b505af1158015612ffd573d6000803e3d6000fd5b505050508673ffffffffffffffffffffffffffffffffffffffff1663b3b77a5187836040518363ffffffff167c01000000000000000000000000000000000000000000000000000000000281526004018083815260200182815260200192505050600060405180830381600087803b15801561307857600080fd5b505af115801561308c573d6000803e3d6000fd5b505050508192505050949350505050565b60006b033b2e3c9fd0803ce80000006130d76130b98585613129565b60026b033b2e3c9fd0803ce80000008115156130d157fe5b04613159565b8115156130e057fe5b04905092915050565b600081613117613105856b033b2e3c9fd0803ce8000000613129565b60028581151561311157fe5b04613159565b81151561312057fe5b04905092915050565b6000808214806131485750828283850292508281151561314557fe5b04145b151561315357600080fd5b92915050565b6000828284019150811015151561316f57600080fd5b9291505056fea165627a7a723058203ae6691690f3f18d94e9c426bf78954b47b101963f31c13f33cf73f36d8eefb50029",
  "source": "pragma solidity ^0.5.0;\n\nimport \"./interfaces/TubInterface.sol\";\nimport \"./interfaces/ExchangeInterface.sol\";\nimport \"./DS/DSMath.sol\";\nimport \"./SaverLogger.sol\";\n\n/// @title SaverProxy implements advanced dashboard features repay/boost\ncontract SaverProxy is DSMath {\n    //KOVAN\n    address public constant WETH_ADDRESS = 0xd0A1E359811322d97991E03f863a0C30C2cF029C;\n    address public constant DAI_ADDRESS = 0xC4375B7De8af5a38a93548eb8453a498222C4fF2;\n    address public constant MKR_ADDRESS = 0xAaF64BFCC32d0F15873a02163e7E500671a4ffcD;\n    address public constant VOX_ADDRESS = 0xBb4339c0aB5B1d9f14Bd6e3426444A1e9d86A1d9;\n    address public constant PETH_ADDRESS = 0xf4d791139cE033Ad35DB2B2201435fAd668B1b64;\n    address public constant TUB_ADDRESS = 0xa71937147b55Deb8a530C7229C442Fd3F31b7db2;\n    address public constant ETHER_ADDRESS = 0xEeeeeEeeeEeEeeEeEeEeeEEEeeeeEeeeeeeeEEeE;\n    address public constant LOGGER_ADDRESS = 0x32d0e18f988F952Eb3524aCE762042381a2c39E5;\n    address public constant WALLET_ID = 0x54b44C6B18fc0b4A1010B21d524c338D1f8065F6;\n\n    uint public constant SERVICE_FEE = 400; // 0.25% Fee\n\n    address public constant KYBER_WRAPPER = 0x5595930d576Aedf13945C83cE5aaD827529A1310;\n    address public constant UNISWAP_WRAPPER = 0x5595930d576Aedf13945C83cE5aaD827529A1310;\n    address public constant ETH2DAI_WRAPPER = 0x823cde416973a19f98Bb9C96d97F4FE6C9A7238B;\n\n    /// @notice Withdraws Eth collateral, swaps Eth -> Dai with Kyber, and pays back the debt in Dai\n    /// @dev If _buyMkr is false user needs to have MKR tokens and approve his DSProxy\n    /// @param _cup Id of the CDP\n    /// @param _amount Amount of Eth to sell\n    /// @param _minPrice Minimum acaptable ETH/DAI price\n    function repay(bytes32 _cup, uint _amount, uint _minPrice, uint _exchangeType) public {\n        address exchangeWrapper;\n        uint ethDaiPrice;\n\n        (exchangeWrapper, ethDaiPrice) = getBestPrice(_amount, ETHER_ADDRESS, DAI_ADDRESS, _exchangeType);\n\n        require(ethDaiPrice > _minPrice, \"Slppage hit\");\n\n        TubInterface tub = TubInterface(TUB_ADDRESS);\n\n        approveTub(DAI_ADDRESS);\n        approveTub(MKR_ADDRESS);\n        approveTub(PETH_ADDRESS);\n        approveTub(WETH_ADDRESS);\n\n        uint startingRatio = getRatio(tub, _cup);\n\n        if (_amount > maxFreeCollateral(tub, _cup)) {\n            _amount = maxFreeCollateral(tub, _cup);\n        }\n\n        withdrawEth(tub, _cup, _amount);\n\n        uint daiAmount = wmul(_amount, ethDaiPrice);\n        uint cdpWholeDebt = getDebt(tub, _cup);\n\n        uint mkrAmount = stabilityFeeInMkr(tub, _cup, sub(daiAmount, daiAmount / SERVICE_FEE));\n\n        if (daiAmount > cdpWholeDebt) {\n            mkrAmount = stabilityFeeInMkr(tub, _cup, cdpWholeDebt);\n        }\n\n        uint ethFee = wdiv(mkrAmount, estimatedMkrPrice(_amount));\n\n        uint change;\n        (, change) = ExchangeInterface(KYBER_WRAPPER).swapEtherToToken.\n                        value(ethFee)(ethFee, MKR_ADDRESS, mkrAmount);\n\n\n        _amount = sub(_amount, sub(ethFee, change));\n\n        (daiAmount, ) = ExchangeInterface(exchangeWrapper).swapEtherToToken.\n                            value(_amount)(_amount, DAI_ADDRESS, uint(-1));\n\n         // Take a fee from the user in dai\n         daiAmount = sub(daiAmount, takeFee(daiAmount));\n        \n        if (daiAmount > cdpWholeDebt) {\n            tub.wipe(_cup, cdpWholeDebt);\n            ERC20(DAI_ADDRESS).transfer(msg.sender, sub(daiAmount, cdpWholeDebt));\n        } else {\n            tub.wipe(_cup, daiAmount);\n            // require(getRatio(tub, _cup) > startingRatio, \"ratio must be better off at the end\");\n        }\n\n        SaverLogger(LOGGER_ADDRESS).LogRepay(uint(_cup), msg.sender, _amount, daiAmount);\n    }\n\n    /// @notice Boost will draw Dai, swap Dai -> Eth on kyber, and add that Eth to the CDP\n    /// @dev Amount must be less then the max. amount available Dai to generate\n    /// @param _cup Id of the CDP\n    /// @param _amount Amount of Dai to sell\n    /// @param _minPrice Minimum acaptable ETH/DAI price\n    function boost(bytes32 _cup, uint _amount, uint _minPrice, uint _exchangeType) public {\n        address exchangeWrapper;\n        uint daiEthPrice;\n\n        (exchangeWrapper, daiEthPrice) = getBestPrice(_amount, DAI_ADDRESS, ETHER_ADDRESS, _exchangeType);\n\n        require(wdiv(1000000000000000000, daiEthPrice) < _minPrice, \"Slippage hit\");\n\n        TubInterface tub = TubInterface(TUB_ADDRESS);\n\n        approveTub(WETH_ADDRESS);\n        approveTub(PETH_ADDRESS);\n        approveTub(DAI_ADDRESS);\n        \n        uint maxAmount = maxFreeDai(tub, _cup);\n\n        if (_amount > maxAmount) {\n            _amount = maxAmount;\n        }\n\n        uint startingCollateral = tub.ink(_cup);\n        \n        tub.draw(_cup, _amount);\n\n        // Take a fee from the user in dai\n        _amount = sub(_amount, takeFee(_amount));\n        \n        uint ethAmount = swapDaiAndLockEth(tub, _cup, _amount, exchangeWrapper);\n\n        // require(tub.ink(_cup) > startingCollateral, \"collateral must be bigger than starting point\");\n        \n        SaverLogger(LOGGER_ADDRESS).LogBoost(uint(_cup), msg.sender, _amount, ethAmount);\n    }\n\n    /// @notice Max. amount of collateral available to withdraw\n    /// @param _tub Tub interface\n    /// @param _cup Id of the CDP\n    function maxFreeCollateral(TubInterface _tub, bytes32 _cup) public returns (uint) {\n        return sub(_tub.ink(_cup), wdiv(wmul(wmul(_tub.tab(_cup), rmul(_tub.mat(), WAD)),\n                VoxInterface(VOX_ADDRESS).par()), _tub.tag())) - 1;\n    }\n    \n    /// @notice Max. amount of Dai available to generate\n    /// @param _tub Tub interface\n    /// @param _cup Id of the CDP\n    function maxFreeDai(TubInterface _tub, bytes32 _cup) public returns (uint) {\n        return sub(wdiv(rmul(_tub.ink(_cup), _tub.tag()), rmul(_tub.mat(), WAD)), _tub.tab(_cup)) - 1;\n    }\n\n    /// @notice Stability fee amount in Mkr\n    /// @param _tub Tub interface\n    /// @param _cup Id of the CDP\n    /// @param _daiRepay Amount of dai we are repaying\n    function stabilityFeeInMkr(TubInterface _tub, bytes32 _cup, uint _daiRepay) public returns (uint) {\n        bytes32 mkrPrice;\n        bool ok;\n\n        uint feeInDai = rmul(_daiRepay, rdiv(_tub.rap(_cup), _tub.tab(_cup)));\n\n        (mkrPrice, ok) = _tub.pep().peek();\n\n        return wdiv(feeInDai, uint(mkrPrice));\n    }\n    \n    /// @notice Helper function which swaps Dai for Eth and adds the collateral to the CDP\n    /// @param _tub Tub interface\n    /// @param _cup Id of the CDP\n    /// @param _daiAmount Amount of Dai to swap for Eth\n    function swapDaiAndLockEth(TubInterface _tub, bytes32 _cup, uint _daiAmount, address _exchangeWrapper) internal returns(uint) {\n\n        ERC20(DAI_ADDRESS).transfer(_exchangeWrapper, _daiAmount);\n\n        uint ethAmount = ExchangeInterface(_exchangeWrapper).swapTokenToEther(DAI_ADDRESS, _daiAmount, uint(-1));\n        \n        _tub.gem().deposit.value(ethAmount)();\n\n        uint ink = sub(rdiv(ethAmount, _tub.per()), 1);\n        \n        _tub.join(ink);\n\n        _tub.lock(_cup, ink);\n        \n        return ethAmount;\n    }\n\n    /// @notice Approve a token if it's not already approved\n    /// @param _tokenAddress Address of the ERC20 token we want to approve\n    function approveTub(address _tokenAddress) internal {\n        if (ERC20(_tokenAddress).allowance(msg.sender, _tokenAddress) < (uint(-1) / 2)) {\n            ERC20(_tokenAddress).approve(TUB_ADDRESS, uint(-1));\n        }\n    }\n\n    /// @notice Returns the current collaterlization ratio for the CDP\n    /// @param _tub Tub interface\n    /// @param _cup Id of the CDP\n    function getRatio(TubInterface _tub, bytes32 _cup) internal returns(uint) {\n        return (wdiv(rmul(rmul(_tub.ink(_cup), _tub.tag()), WAD), _tub.tab(_cup)));\n    }\n\n    /// @notice Helper function which withdraws collateral from CDP\n    /// @param _tub Tub interface\n    /// @param _cup Id of the CDP\n    /// @param _ethAmount Amount of Eth to withdraw\n    function withdrawEth(TubInterface _tub, bytes32 _cup, uint _ethAmount) internal {\n        uint ink = rdiv(_ethAmount, _tub.per());\n        _tub.free(_cup, ink);\n        \n        _tub.exit(ink);\n        _tub.gem().withdraw(_ethAmount);\n    }\n\n    /// @notice Takes a feePercentage and sends it to wallet\n    /// @param _amount Dai amount of the whole trade\n    /// @return feeAmount Amount in Dai owner earned on the fee\n    function takeFee(uint _amount) internal returns (uint feeAmount) {\n        feeAmount = _amount / SERVICE_FEE;\n        ERC20(DAI_ADDRESS).transfer(WALLET_ID, feeAmount);\n    }\n\n    /// @notice Returns the best estimated price from 2 exchanges\n    /// @param _amount Amount of source tokens you want to exchange\n    /// @param _srcToken Address of the source token\n    /// @param _destToken Address of the destination token\n    /// @return (address, uint) The address of the best exchange and the exchange price\n    function getBestPrice(uint _amount, address _srcToken, address _destToken, uint _exchangeType) internal returns (address, uint) {\n        uint expectedRateKyber;\n        uint expectedRateUniswap;\n        uint expectedRateEth2Dai;\n\n        (expectedRateKyber, ) = ExchangeInterface(KYBER_WRAPPER).getExpectedRate(_srcToken, _destToken, _amount);\n        (expectedRateUniswap, ) = ExchangeInterface(UNISWAP_WRAPPER).getExpectedRate(_srcToken, _destToken, _amount);\n        // (expectedRateEth2Dai, ) = ExchangeInterface(ETH2DAI_WRAPPER).getExpectedRate(_srcToken, _destToken, _amount);\n\n        if (_exchangeType == 1) {\n            return (ETH2DAI_WRAPPER, expectedRateEth2Dai);\n        }\n\n        if (_exchangeType == 2) {\n            return (KYBER_WRAPPER, expectedRateKyber);\n        }\n\n        if (_exchangeType == 3) {\n            return (UNISWAP_WRAPPER, expectedRateUniswap);\n        }\n\n        if (expectedRateEth2Dai > expectedRateKyber && expectedRateEth2Dai > expectedRateUniswap) {\n            return (ETH2DAI_WRAPPER, expectedRateEth2Dai);\n        }\n\n        if (expectedRateKyber > expectedRateUniswap && expectedRateKyber > expectedRateEth2Dai) {\n            return (KYBER_WRAPPER, expectedRateKyber);\n        }\n\n        if (expectedRateUniswap > expectedRateKyber && expectedRateUniswap > expectedRateEth2Dai) {\n            return (UNISWAP_WRAPPER, expectedRateUniswap);\n        }\n    }\n\n    /// @notice Returns expected rate for Eth -> Dai conversion\n    /// @param _amount Amount of Ether\n    function estimatedDaiPrice(uint _amount) internal returns (uint expectedRate) {\n        (expectedRate, ) = ExchangeInterface(KYBER_WRAPPER).getExpectedRate(ETHER_ADDRESS, DAI_ADDRESS, _amount);\n    }\n\n    /// @notice Returns expected rate for Dai -> Eth conversion\n    /// @param _amount Amount of Dai\n    function estimatedEthPrice(uint _amount) internal returns (uint expectedRate) {\n        (expectedRate, ) = ExchangeInterface(KYBER_WRAPPER).getExpectedRate(DAI_ADDRESS, ETHER_ADDRESS, _amount);\n    }\n\n    /// @notice Returns expected rate for Eth -> Mkr conversion\n    /// @param _amount Amount of Ether\n    function estimatedMkrPrice(uint _amount) internal returns (uint expectedRate) {\n        (expectedRate, ) = ExchangeInterface(KYBER_WRAPPER).getExpectedRate(ETHER_ADDRESS, MKR_ADDRESS, _amount);\n    }\n\n    /// @notice Returns current Dai debt of the CDP\n    /// @param _tub Tub interface\n    /// @param _cup Id of the CDP\n    function getDebt(TubInterface _tub, bytes32 _cup) internal returns (uint debt) {\n        ( , , debt, ) = _tub.cups(_cup);\n    }\n}\n",
  "sourcePath": "/Users/nenadpalinkasevic/Desktop/blockchain/cdpsaver-contracts/contracts/SaverProxy.sol",
  "compiler": {
    "name": "solc",
    "version": "0.5.0+commit.1d4f565a.Emscripten.clang"
  },
  "schemaVersion": "3.0.0",
  "updatedAt": "2019-07-12T12:39:36.481Z",
  "devdoc": {
    "methods": {
      "boost(bytes32,uint256,uint256,uint256)": {
        "details": "Amount must be less then the max. amount available Dai to generate",
        "params": {
          "_amount": "Amount of Dai to sell",
          "_cup": "Id of the CDP",
          "_minPrice": "Minimum acaptable ETH/DAI price"
        }
      },
      "maxFreeCollateral(address,bytes32)": {
        "params": {
          "_cup": "Id of the CDP",
          "_tub": "Tub interface"
        }
      },
      "maxFreeDai(address,bytes32)": {
        "params": {
          "_cup": "Id of the CDP",
          "_tub": "Tub interface"
        }
      },
      "repay(bytes32,uint256,uint256,uint256)": {
        "details": "If _buyMkr is false user needs to have MKR tokens and approve his DSProxy",
        "params": {
          "_amount": "Amount of Eth to sell",
          "_cup": "Id of the CDP",
          "_minPrice": "Minimum acaptable ETH/DAI price"
        }
      },
      "stabilityFeeInMkr(address,bytes32,uint256)": {
        "params": {
          "_cup": "Id of the CDP",
          "_daiRepay": "Amount of dai we are repaying",
          "_tub": "Tub interface"
        }
      }
    },
    "title": "SaverProxy implements advanced dashboard features repay/boost"
  },
  "userdoc": {
    "methods": {
      "boost(bytes32,uint256,uint256,uint256)": {
        "notice": "Boost will draw Dai, swap Dai -> Eth on kyber, and add that Eth to the CDP"
      },
      "maxFreeCollateral(address,bytes32)": {
        "notice": "Max. amount of collateral available to withdraw"
      },
      "maxFreeDai(address,bytes32)": {
        "notice": "Max. amount of Dai available to generate"
      },
      "repay(bytes32,uint256,uint256,uint256)": {
        "notice": "Withdraws Eth collateral, swaps Eth -> Dai with Kyber, and pays back the debt in Dai"
      },
      "stabilityFeeInMkr(address,bytes32,uint256)": {
        "notice": "Stability fee amount in Mkr"
      }
    }
  }
}