{
  "contractName": "SaverExchange",
  "abi": [
    {
      "constant": true,
      "inputs": [],
      "name": "DAI_ADDRESS",
      "outputs": [
        {
          "name": "",
          "type": "address"
        }
      ],
      "payable": false,
      "stateMutability": "view",
      "type": "function"
    },
    {
      "constant": true,
      "inputs": [],
      "name": "ETH2DAI_WRAPPER",
      "outputs": [
        {
          "name": "",
          "type": "address"
        }
      ],
      "payable": false,
      "stateMutability": "view",
      "type": "function"
    },
    {
      "constant": true,
      "inputs": [],
      "name": "SERVICE_FEE",
      "outputs": [
        {
          "name": "",
          "type": "uint256"
        }
      ],
      "payable": false,
      "stateMutability": "view",
      "type": "function"
    },
    {
      "constant": true,
      "inputs": [],
      "name": "KYBER_WRAPPER",
      "outputs": [
        {
          "name": "",
          "type": "address"
        }
      ],
      "payable": false,
      "stateMutability": "view",
      "type": "function"
    },
    {
      "constant": true,
      "inputs": [],
      "name": "ETHER_ADDRESS",
      "outputs": [
        {
          "name": "",
          "type": "address"
        }
      ],
      "payable": false,
      "stateMutability": "view",
      "type": "function"
    },
    {
      "constant": true,
      "inputs": [],
      "name": "WALLET_ID",
      "outputs": [
        {
          "name": "",
          "type": "address"
        }
      ],
      "payable": false,
      "stateMutability": "view",
      "type": "function"
    },
    {
      "constant": true,
      "inputs": [],
      "name": "UNISWAP_WRAPPER",
      "outputs": [
        {
          "name": "",
          "type": "address"
        }
      ],
      "payable": false,
      "stateMutability": "view",
      "type": "function"
    },
    {
      "constant": false,
      "inputs": [
        {
          "name": "_amount",
          "type": "uint256"
        },
        {
          "name": "_minPrice",
          "type": "uint256"
        },
        {
          "name": "_exchangeType",
          "type": "uint256"
        }
      ],
      "name": "swapDaiToEth",
      "outputs": [],
      "payable": true,
      "stateMutability": "payable",
      "type": "fallback"
    },
    {
      "constant": false,
      "inputs": [
        {
          "name": "_amount",
          "type": "uint256"
        },
        {
          "name": "_minPrice",
          "type": "uint256"
        },
        {
          "name": "_exchangeType",
          "type": "uint256"
        }
      ],
      "name": "swapDaiToEth",
      "outputs": [],
      "payable": false,
      "stateMutability": "nonpayable",
      "type": "function"
    },
    {
      "constant": false,
      "inputs": [
        {
          "name": "_amount",
          "type": "uint256"
        },
        {
          "name": "_minPrice",
          "type": "uint256"
        },
        {
          "name": "_exchangeType",
          "type": "uint256"
        },
        {
          "name": "_exchangeType",
          "type": "uint256"
        }
      ],
      "name": "swapEthToDai",
      "outputs": [
        {
          "name": "",
          "type": "address"
        },
        {
          "name": "",
          "type": "uint256"
        }
      ],
      "payable": true,
      "stateMutability": "payable",
      "type": "function"
    },
    {
      "constant": false,
      "inputs": [
        {
          "name": "_amount",
          "type": "uint256"
        },
        {
          "name": "_srcToken",
          "type": "address"
        },
        {
          "name": "_destToken",
          "type": "address"
        },
        {
          "name": "_exchangeType",
          "type": "uint256"
        }
      ],
      "name": "getBestPrice",
      "outputs": [
        {
          "name": "",
          "type": "address"
        },
        {
          "name": "",
          "type": "uint256"
        }
      ],
      "payable": false,
      "stateMutability": "nonpayable",
      "type": "function"
    }
  ],
  "bytecode": "0x608060405234801561001057600080fd5b50611471806100206000396000f3fe6080604052600436106100a4576000357c0100000000000000000000000000000000000000000000000000000000900463ffffffff16806301bbecde146100a65780632a4c0a1a146100e85780632ec1f0091461013f57806343fb75e81461020b57806350c86de514610262578063b175afa11461028d578063c209fd9f146102e4578063cf1d21c014610333578063d3661fa51461038a578063ddaa293c146103e1575b005b6100e6600480360360608110156100bc57600080fd5b81019080803590602001909291908035906020019092919080359060200190929190505050610438565b005b3480156100f457600080fd5b506100fd610793565b604051808273ffffffffffffffffffffffffffffffffffffffff1673ffffffffffffffffffffffffffffffffffffffff16815260200191505060405180910390f35b34801561014b57600080fd5b506101c26004803603608081101561016257600080fd5b8101908080359060200190929190803573ffffffffffffffffffffffffffffffffffffffff169060200190929190803573ffffffffffffffffffffffffffffffffffffffff169060200190929190803590602001909291905050506107ab565b604051808373ffffffffffffffffffffffffffffffffffffffff1673ffffffffffffffffffffffffffffffffffffffff1681526020018281526020019250505060405180910390f35b34801561021757600080fd5b50610220610b8c565b604051808273ffffffffffffffffffffffffffffffffffffffff1673ffffffffffffffffffffffffffffffffffffffff16815260200191505060405180910390f35b34801561026e57600080fd5b50610277610ba4565b6040518082815260200191505060405180910390f35b34801561029957600080fd5b506102a2610baa565b604051808273ffffffffffffffffffffffffffffffffffffffff1673ffffffffffffffffffffffffffffffffffffffff16815260200191505060405180910390f35b3480156102f057600080fd5b506103316004803603606081101561030757600080fd5b81019080803590602001909291908035906020019092919080359060200190929190505050610bc2565b005b34801561033f57600080fd5b50610348611231565b604051808273ffffffffffffffffffffffffffffffffffffffff1673ffffffffffffffffffffffffffffffffffffffff16815260200191505060405180910390f35b34801561039657600080fd5b5061039f611249565b604051808273ffffffffffffffffffffffffffffffffffffffff1673ffffffffffffffffffffffffffffffffffffffff16815260200191505060405180910390f35b3480156103ed57600080fd5b506103f6611261565b604051808273ffffffffffffffffffffffffffffffffffffffff1673ffffffffffffffffffffffffffffffffffffffff16815260200191505060405180910390f35b82341015151561044757600080fd5b60008061047e8573eeeeeeeeeeeeeeeeeeeeeeeeeeeeeeeeeeeeeeee73c4375b7de8af5a38a93548eb8453a498222c4ff2866107ab565b809250819350505083811115156104fd576040517f08c379a000000000000000000000000000000000000000000000000000000000815260040180806020018281038252600c8152602001807f536c69707061676520686974000000000000000000000000000000000000000081525060200191505060405180910390fd5b6000808373ffffffffffffffffffffffffffffffffffffffff166343ac1dc6888973c4375b7de8af5a38a93548eb8453a498222c4ff27fffffffffffffffffffffffffffffffffffffffffffffffffffffffffffffffff6040518563ffffffff167c0100000000000000000000000000000000000000000000000000000000028152600401808481526020018373ffffffffffffffffffffffffffffffffffffffff1673ffffffffffffffffffffffffffffffffffffffff168152602001828152602001935050505060408051808303818588803b1580156105de57600080fd5b505af11580156105f2573d6000803e3d6000fd5b50505050506040513d604081101561060957600080fd5b8101908080519060200190929190805190602001909291905050508093508192505050600061063782611279565b905061064382826113a1565b915073c4375b7de8af5a38a93548eb8453a498222c4ff273ffffffffffffffffffffffffffffffffffffffff1663a9059cbb33846040518363ffffffff167c0100000000000000000000000000000000000000000000000000000000028152600401808373ffffffffffffffffffffffffffffffffffffffff1673ffffffffffffffffffffffffffffffffffffffff16815260200182815260200192505050602060405180830381600087803b1580156106fc57600080fd5b505af1158015610710573d6000803e3d6000fd5b505050506040513d602081101561072657600080fd5b8101908080519060200190929190505050506000831115610789573373ffffffffffffffffffffffffffffffffffffffff166108fc849081150290604051600060405180830381858888f19350505050158015610787573d6000803e3d6000fd5b505b5050505050505050565b73c4375b7de8af5a38a93548eb8453a498222c4ff281565b6000806000806000735595930d576aedf13945c83ce5aad827529a131073ffffffffffffffffffffffffffffffffffffffff1663809a9e5589898c6040518463ffffffff167c0100000000000000000000000000000000000000000000000000000000028152600401808473ffffffffffffffffffffffffffffffffffffffff1673ffffffffffffffffffffffffffffffffffffffff1681526020018373ffffffffffffffffffffffffffffffffffffffff1673ffffffffffffffffffffffffffffffffffffffff16815260200182815260200193505050506040805180830381600087803b15801561089d57600080fd5b505af11580156108b1573d6000803e3d6000fd5b505050506040513d60408110156108c757600080fd5b8101908080519060200190929190805190602001909291905050505080935050735595930d576aedf13945c83ce5aad827529a131073ffffffffffffffffffffffffffffffffffffffff1663809a9e5589898c6040518463ffffffff167c0100000000000000000000000000000000000000000000000000000000028152600401808473ffffffffffffffffffffffffffffffffffffffff1673ffffffffffffffffffffffffffffffffffffffff1681526020018373ffffffffffffffffffffffffffffffffffffffff1673ffffffffffffffffffffffffffffffffffffffff16815260200182815260200193505050506040805180830381600087803b1580156109d157600080fd5b505af11580156109e5573d6000803e3d6000fd5b505050506040513d60408110156109fb57600080fd5b81019080805190602001909291908051906020019092919050505050809250506001861415610a465773823cde416973a19f98bb9c96d97f4fe6c9a7238b8194509450505050610b83565b6002861415610a7157735595930d576aedf13945c83ce5aad827529a13108394509450505050610b83565b6003861415610a9c57735595930d576aedf13945c83ce5aad827529a13108294509450505050610b83565b8281118015610aaa57508181115b15610ad15773823cde416973a19f98bb9c96d97f4fe6c9a7238b8194509450505050610b83565b8183118015610adf57508083115b15610b0657735595930d576aedf13945c83ce5aad827529a13108394509450505050610b83565b8282118015610b1457508082115b15610b3b57735595930d576aedf13945c83ce5aad827529a13108294509450505050610b83565b81831115610b6557735595930d576aedf13945c83ce5aad827529a13108394509450505050610b83565b735595930d576aedf13945c83ce5aad827529a131082945094505050505b94509492505050565b73823cde416973a19f98bb9c96d97f4fe6c9a7238b81565b61019081565b735595930d576aedf13945c83ce5aad827529a131081565b73c4375b7de8af5a38a93548eb8453a498222c4ff273ffffffffffffffffffffffffffffffffffffffff166323b872dd3330866040518463ffffffff167c0100000000000000000000000000000000000000000000000000000000028152600401808473ffffffffffffffffffffffffffffffffffffffff1673ffffffffffffffffffffffffffffffffffffffff1681526020018373ffffffffffffffffffffffffffffffffffffffff1673ffffffffffffffffffffffffffffffffffffffff1681526020018281526020019350505050602060405180830381600087803b158015610cad57600080fd5b505af1158015610cc1573d6000803e3d6000fd5b505050506040513d6020811015610cd757600080fd5b81019080805190602001909291905050501515610cf357600080fd5b6000610cfe84611279565b9050610d0a84826113a1565b9350600080610d438673c4375b7de8af5a38a93548eb8453a498222c4ff273eeeeeeeeeeeeeeeeeeeeeeeeeeeeeeeeeeeeeeee876107ab565b809250819350505084610d5e670de0b6b3a7640000836113bd565b101515610dd3576040517f08c379a000000000000000000000000000000000000000000000000000000000815260040180806020018281038252600c8152602001807f536c69707061676520686974000000000000000000000000000000000000000081525060200191505060405180910390fd5b73c4375b7de8af5a38a93548eb8453a498222c4ff273ffffffffffffffffffffffffffffffffffffffff1663a9059cbb83886040518363ffffffff167c0100000000000000000000000000000000000000000000000000000000028152600401808373ffffffffffffffffffffffffffffffffffffffff1673ffffffffffffffffffffffffffffffffffffffff16815260200182815260200192505050602060405180830381600087803b158015610e8a57600080fd5b505af1158015610e9e573d6000803e3d6000fd5b505050506040513d6020811015610eb457600080fd5b8101908080519060200190929190505050508173ffffffffffffffffffffffffffffffffffffffff16633bba21dc73c4375b7de8af5a38a93548eb8453a498222c4ff2887fffffffffffffffffffffffffffffffffffffffffffffffffffffffffffffffff6040518463ffffffff167c0100000000000000000000000000000000000000000000000000000000028152600401808473ffffffffffffffffffffffffffffffffffffffff1673ffffffffffffffffffffffffffffffffffffffff1681526020018381526020018281526020019350505050602060405180830381600087803b158015610fa557600080fd5b505af1158015610fb9573d6000803e3d6000fd5b505050506040513d6020811015610fcf57600080fd5b810190808051906020019092919050505050600073c4375b7de8af5a38a93548eb8453a498222c4ff273ffffffffffffffffffffffffffffffffffffffff166370a08231306040518263ffffffff167c0100000000000000000000000000000000000000000000000000000000028152600401808273ffffffffffffffffffffffffffffffffffffffff1673ffffffffffffffffffffffffffffffffffffffff16815260200191505060206040518083038186803b15801561109057600080fd5b505afa1580156110a4573d6000803e3d6000fd5b505050506040513d60208110156110ba57600080fd5b8101908080519060200190929190505050905060008111156111ca5773c4375b7de8af5a38a93548eb8453a498222c4ff273ffffffffffffffffffffffffffffffffffffffff1663a9059cbb33836040518363ffffffff167c0100000000000000000000000000000000000000000000000000000000028152600401808373ffffffffffffffffffffffffffffffffffffffff1673ffffffffffffffffffffffffffffffffffffffff16815260200182815260200192505050602060405180830381600087803b15801561118d57600080fd5b505af11580156111a1573d6000803e3d6000fd5b505050506040513d60208110156111b757600080fd5b8101908080519060200190929190505050505b3373ffffffffffffffffffffffffffffffffffffffff166108fc3073ffffffffffffffffffffffffffffffffffffffff16319081150290604051600060405180830381858888f19350505050158015611227573d6000803e3d6000fd5b5050505050505050565b73eeeeeeeeeeeeeeeeeeeeeeeeeeeeeeeeeeeeeeee81565b7354b44c6b18fc0b4a1010b21d524c338d1f8065f681565b735595930d576aedf13945c83ce5aad827529a131081565b60006101908281151561128857fe5b049050600081111561139c5773c4375b7de8af5a38a93548eb8453a498222c4ff273ffffffffffffffffffffffffffffffffffffffff1663a9059cbb7354b44c6b18fc0b4a1010b21d524c338d1f8065f6836040518363ffffffff167c0100000000000000000000000000000000000000000000000000000000028152600401808373ffffffffffffffffffffffffffffffffffffffff1673ffffffffffffffffffffffffffffffffffffffff16815260200182815260200192505050602060405180830381600087803b15801561135f57600080fd5b505af1158015611373573d6000803e3d6000fd5b505050506040513d602081101561138957600080fd5b8101908080519060200190929190505050505b919050565b600082828403915081111515156113b757600080fd5b92915050565b6000816113e76113d585670de0b6b3a76400006113f9565b6002858115156113e157fe5b04611429565b8115156113f057fe5b04905092915050565b6000808214806114185750828283850292508281151561141557fe5b04145b151561142357600080fd5b92915050565b6000828284019150811015151561143f57600080fd5b9291505056fea165627a7a72305820eb938d6717170e1e7bd85e566aa4f28faf6039f63c9e12239db35d05b269dd5f0029",
  "source": "pragma solidity ^0.5.0;\n\nimport \"../interfaces/ExchangeInterface.sol\";\nimport \"../DS/DSMath.sol\";\n\ncontract SaverExchange is DSMath {\n    //KOVAN\n    address public constant DAI_ADDRESS = 0xC4375B7De8af5a38a93548eb8453a498222C4fF2;\n    address public constant ETHER_ADDRESS = 0xEeeeeEeeeEeEeeEeEeEeeEEEeeeeEeeeeeeeEEeE;\n    address public constant WALLET_ID = 0x54b44C6B18fc0b4A1010B21d524c338D1f8065F6;\n\n    uint public constant SERVICE_FEE = 400; // 0.25% Fee\n\n    address public constant KYBER_WRAPPER = 0x5595930d576Aedf13945C83cE5aaD827529A1310;\n    address public constant UNISWAP_WRAPPER = 0x5595930d576Aedf13945C83cE5aaD827529A1310;\n    address public constant ETH2DAI_WRAPPER = 0x823cde416973a19f98Bb9C96d97F4FE6C9A7238B;\n\n\n    function swapDaiToEth(uint _amount, uint _minPrice, uint _exchangeType) public {\n        require(ERC20(DAI_ADDRESS).transferFrom(msg.sender, address(this), _amount));\n\n        uint fee = takeFee(_amount);\n        _amount = sub(_amount, fee);\n\n        address exchangeWrapper;\n        uint daiEthPrice;\n        (exchangeWrapper, daiEthPrice) = getBestPrice(_amount, DAI_ADDRESS, ETHER_ADDRESS, _exchangeType);\n\n        require(wdiv(1000000000000000000, daiEthPrice) < _minPrice, \"Slippage hit\");\n\n        ERC20(DAI_ADDRESS).transfer(exchangeWrapper, _amount);\n        ExchangeInterface(exchangeWrapper).swapTokenToEther(DAI_ADDRESS, _amount, uint(-1));\n\n        uint daiBalance = ERC20(DAI_ADDRESS).balanceOf(address(this));\n        if (daiBalance > 0) {\n            ERC20(DAI_ADDRESS).transfer(msg.sender, daiBalance);\n        }\n\n        msg.sender.transfer(address(this).balance);\n    }\n\n    function swapEthToDai(uint _amount, uint _minPrice, uint _exchangeType) public payable {\n        require(msg.value >= _amount);\n\n        address exchangeWrapper;\n        uint ethDaiPrice;\n        (exchangeWrapper, ethDaiPrice) = getBestPrice(_amount, ETHER_ADDRESS, DAI_ADDRESS, _exchangeType);\n\n        require(ethDaiPrice > _minPrice, \"Slippage hit\");\n        \n        uint ethReturned;\n        uint daiReturned;\n        (daiReturned, ethReturned) = ExchangeInterface(exchangeWrapper).swapEtherToToken.value(_amount)(_amount, DAI_ADDRESS, uint(-1));\n        \n        uint fee = takeFee(daiReturned);\n        daiReturned = sub(daiReturned, fee);\n\n        ERC20(DAI_ADDRESS).transfer(msg.sender, daiReturned);\n\n        if (ethReturned > 0) {\n            msg.sender.transfer(ethReturned);\n        }\n    }\n    \n\n    /// @notice Returns the best estimated price from 2 exchanges\n    /// @param _amount Amount of source tokens you want to exchange\n    /// @param _srcToken Address of the source token\n    /// @param _destToken Address of the destination token\n    /// @return (address, uint) The address of the best exchange and the exchange price\n    function getBestPrice(uint _amount, address _srcToken, address _destToken, uint _exchangeType) public returns (address, uint) {\n        uint expectedRateKyber;\n        uint expectedRateUniswap;\n        uint expectedRateEth2Dai;\n\n        (expectedRateKyber, ) = ExchangeInterface(KYBER_WRAPPER).getExpectedRate(_srcToken, _destToken, _amount);\n        (expectedRateUniswap, ) = ExchangeInterface(UNISWAP_WRAPPER).getExpectedRate(_srcToken, _destToken, _amount);\n        // reverts on kovan\n        // (expectedRateEth2Dai, ) = ExchangeInterface(ETH2DAI_WRAPPER).getExpectedRate(_srcToken, _destToken, _amount);\n\n        if (_exchangeType == 1) {\n            return (ETH2DAI_WRAPPER, expectedRateEth2Dai);\n        }\n\n        if (_exchangeType == 2) {\n            return (KYBER_WRAPPER, expectedRateKyber);\n        }\n\n        if (_exchangeType == 3) {\n            return (UNISWAP_WRAPPER, expectedRateUniswap);\n        }\n\n        if (expectedRateEth2Dai > expectedRateKyber && expectedRateEth2Dai > expectedRateUniswap) {\n            return (ETH2DAI_WRAPPER, expectedRateEth2Dai);\n        }\n\n        if (expectedRateKyber > expectedRateUniswap && expectedRateKyber > expectedRateEth2Dai) {\n            return (KYBER_WRAPPER, expectedRateKyber);\n        }\n\n        if (expectedRateUniswap > expectedRateKyber && expectedRateUniswap > expectedRateEth2Dai) {\n            return (UNISWAP_WRAPPER, expectedRateUniswap);\n        }\n\n        // if one rate is lower, and two rates are better but exactly same, return one of them\n        if (expectedRateKyber > expectedRateUniswap) {\n            return (KYBER_WRAPPER, expectedRateKyber);\n        } else {\n            return (UNISWAP_WRAPPER, expectedRateUniswap);\n        }\n    }\n\n    /// @notice Takes a feePercentage and sends it to wallet\n    /// @param _amount Dai amount of the whole trade\n    /// @return feeAmount Amount in Dai owner earned on the fee\n    function takeFee(uint _amount) internal returns (uint feeAmount) {\n        feeAmount = _amount / SERVICE_FEE;\n        if (feeAmount > 0) {\n            ERC20(DAI_ADDRESS).transfer(WALLET_ID, feeAmount);\n        }\n    }\n\n    // receive eth from wrappers\n    function() external payable {}\n}",
  "sourcePath": "/Users/nikolaklipa/Decenter/defisaver/cdpsaver-contracts/contracts/exchange/SaverExchange.sol",
  "compiler": {
    "name": "solc",
    "version": "0.5.0+commit.1d4f565a.Emscripten.clang"
  },
  "schemaVersion": "3.0.9",
  "updatedAt": "2019-08-07T15:25:37.153Z",
  "devdoc": {
    "methods": {
      "getBestPrice(uint256,address,address,uint256)": {
        "params": {
          "_amount": "Amount of source tokens you want to exchange",
          "_destToken": "Address of the destination token",
          "_srcToken": "Address of the source token"
        },
        "return": "(address, uint) The address of the best exchange and the exchange price"
      }
    }
  },
  "userdoc": {
    "methods": {
      "getBestPrice(uint256,address,address,uint256)": {
        "notice": "Returns the best estimated price from 2 exchanges"
      }
    }
  }
}