{
  "contractName": "SavingsProxy",
  "abi": [
    {
      "constant": false,
      "inputs": [
        {
          "name": "_amount",
          "type": "uint256"
        },
        {
          "name": "_protocol",
          "type": "uint256"
        }
      ],
      "name": "deposit",
      "outputs": [],
      "payable": false,
      "stateMutability": "nonpayable",
      "type": "function"
    },
    {
      "constant": false,
      "inputs": [
        {
          "name": "_amount",
          "type": "uint256"
        },
        {
          "name": "_protocol",
          "type": "uint256"
        }
      ],
      "name": "withdraw",
      "outputs": [],
      "payable": false,
      "stateMutability": "nonpayable",
      "type": "function"
    },
    {
      "constant": false,
      "inputs": [
        {
          "name": "_from",
          "type": "uint256"
        },
        {
          "name": "_to",
          "type": "uint256"
        }
      ],
      "name": "swap",
      "outputs": [],
      "payable": false,
      "stateMutability": "nonpayable",
      "type": "function"
    }
  ],
  "bytecode": "0x608060405234801561001057600080fd5b50610163806100206000396000f3fe608060405260043610610057576000357c0100000000000000000000000000000000000000000000000000000000900463ffffffff168063441a3e701461005c578063d96073cf146100a1578063e2bbb158146100e6575b600080fd5b34801561006857600080fd5b5061009f6004803603604081101561007f57600080fd5b81019080803590602001909291908035906020019092919050505061012b565b005b3480156100ad57600080fd5b506100e4600480360360408110156100c457600080fd5b81019080803590602001909291908035906020019092919050505061012f565b005b3480156100f257600080fd5b506101296004803603604081101561010957600080fd5b810190808035906020019092919080359060200190929190505050610133565b005b5050565b5050565b505056fea165627a7a723058207eb698f90e74a3aaa88ebe61bd494d614fc53956e7672f9173ad8d82345bbf330029",
  "source": "pragma solidity ^0.5.0;\n\ncontract SavingsProxy {\n    function deposit(uint _amount, uint _protocol) public {\n\n    }\n\n    function withdraw(uint _amount, uint _protocol) public {\n\n    }\n\n    function swap(uint _from, uint _to) public {\n        \n    }\n}",
  "sourcePath": "/Users/nenadpalinkasevic/Desktop/blockchain/cdpsaver-contracts/contracts/savings/SavingsProxy.sol",
  "compiler": {
    "name": "solc",
    "version": "0.5.0+commit.1d4f565a.Emscripten.clang"
  },
  "schemaVersion": "3.0.0",
  "updatedAt": "2019-07-22T16:07:03.290Z",
  "devdoc": {
    "methods": {}
  },
  "userdoc": {
    "methods": {}
  }
}