{
  "contractName": "StupidExchange",
  "abi": [
    {
      "constant": true,
      "inputs": [],
      "name": "MAKER_DAI_ADDRESS",
      "outputs": [
        {
          "name": "",
          "type": "address"
        }
      ],
      "payable": false,
      "stateMutability": "view",
      "type": "function"
    },
    {
      "constant": true,
      "inputs": [],
      "name": "COMPOUND_DAI_ADDRESS",
      "outputs": [
        {
          "name": "",
          "type": "address"
        }
      ],
      "payable": false,
      "stateMutability": "view",
      "type": "function"
    },
    {
      "constant": false,
      "inputs": [
        {
          "name": "_amount",
          "type": "uint256"
        }
      ],
      "name": "getMakerDaiToken",
      "outputs": [],
      "payable": false,
      "stateMutability": "nonpayable",
      "type": "function"
    },
    {
      "constant": false,
      "inputs": [
        {
          "name": "_amount",
          "type": "uint256"
        }
      ],
      "name": "getCompoundDaiToken",
      "outputs": [],
      "payable": false,
      "stateMutability": "nonpayable",
      "type": "function"
    }
  ],
  "bytecode": "0x608060405234801561001057600080fd5b506103d3806100206000396000f3fe608060405260043610610062576000357c0100000000000000000000000000000000000000000000000000000000900463ffffffff16806369a90514146100675780639da779e9146100a2578063c16921b7146100f9578063db8b0a5814610150575b600080fd5b34801561007357600080fd5b506100a06004803603602081101561008a57600080fd5b810190808035906020019092919050505061018b565b005b3480156100ae57600080fd5b506100b7610281565b604051808273ffffffffffffffffffffffffffffffffffffffff1673ffffffffffffffffffffffffffffffffffffffff16815260200191505060405180910390f35b34801561010557600080fd5b5061010e610299565b604051808273ffffffffffffffffffffffffffffffffffffffff1673ffffffffffffffffffffffffffffffffffffffff16815260200191505060405180910390f35b34801561015c57600080fd5b506101896004803603602081101561017357600080fd5b81019080803590602001909291905050506102b1565b005b7325a01a05c188dacbcf1d61af55d4a5b4021f7eed73ffffffffffffffffffffffffffffffffffffffff1663a9059cbb33836040518363ffffffff167c0100000000000000000000000000000000000000000000000000000000028152600401808373ffffffffffffffffffffffffffffffffffffffff1673ffffffffffffffffffffffffffffffffffffffff16815260200182815260200192505050602060405180830381600087803b15801561024257600080fd5b505af1158015610256573d6000803e3d6000fd5b505050506040513d602081101561026c57600080fd5b81019080805190602001909291905050505050565b73c4375b7de8af5a38a93548eb8453a498222c4ff281565b7325a01a05c188dacbcf1d61af55d4a5b4021f7eed81565b73c4375b7de8af5a38a93548eb8453a498222c4ff273ffffffffffffffffffffffffffffffffffffffff1663a9059cbb33836040518363ffffffff167c0100000000000000000000000000000000000000000000000000000000028152600401808373ffffffffffffffffffffffffffffffffffffffff1673ffffffffffffffffffffffffffffffffffffffff16815260200182815260200192505050602060405180830381600087803b15801561036857600080fd5b505af115801561037c573d6000803e3d6000fd5b505050506040513d602081101561039257600080fd5b8101908080519060200190929190505050505056fea165627a7a72305820ad0fc524112ebf6097024b6d82a087b758bdf0b6690ec9c13867271f81ad93f00029",
  "source": "pragma solidity ^0.5.0;\n\nimport \"../interfaces/ERC20.sol\";\n\n/// @title Used only on kovan as a helper because different Dai tokens are used in Maker | Compound\ncontract StupidExchange {\n    address public constant MAKER_DAI_ADDRESS = 0xC4375B7De8af5a38a93548eb8453a498222C4fF2;\n    address public constant COMPOUND_DAI_ADDRESS = 0x25a01a05C188DaCBCf1D61Af55D4a5B4021F7eeD;\n    \n    function getMakerDaiToken(uint _amount) public {\n        ERC20(MAKER_DAI_ADDRESS).transfer(msg.sender, _amount);\n    }\n    \n    function getCompoundDaiToken(uint _amount) public {\n        ERC20(COMPOUND_DAI_ADDRESS).transfer(msg.sender, _amount);\n    }\n}\n",
  "sourcePath": "/Users/nenadpalinkasevic/Desktop/blockchain/cdpsaver-contracts/contracts/compound/StupidExchange.sol",
  "compiler": {
    "name": "solc",
    "version": "0.5.0+commit.1d4f565a.Emscripten.clang"
  },
  "schemaVersion": "3.0.0",
  "updatedAt": "2019-07-12T12:39:34.937Z",
  "devdoc": {
    "methods": {},
    "title": "Used only on kovan as a helper because different Dai tokens are used in Maker | Compound"
  },
  "userdoc": {
    "methods": {}
  }
}