{
  "contractName": "UniswapWrapper",
  "abi": [
    {
      "constant": true,
      "inputs": [],
      "name": "KYBER_ETH_ADDRESS",
      "outputs": [
        {
          "name": "",
          "type": "address"
        }
      ],
      "payable": false,
      "stateMutability": "view",
      "type": "function"
    },
    {
      "constant": true,
      "inputs": [],
      "name": "UNISWAP_FACTORY",
      "outputs": [
        {
          "name": "",
          "type": "address"
        }
      ],
      "payable": false,
      "stateMutability": "view",
      "type": "function"
    },
    {
      "payable": true,
      "stateMutability": "payable",
      "type": "fallback"
    },
    {
      "constant": false,
      "inputs": [
        {
          "name": "_ethAmount",
          "type": "uint256"
        },
        {
          "name": "_tokenAddress",
          "type": "address"
        },
        {
          "name": "_maxAmount",
          "type": "uint256"
        }
      ],
      "name": "swapEtherToToken",
      "outputs": [
        {
          "name": "",
          "type": "uint256"
        },
        {
          "name": "",
          "type": "uint256"
        }
      ],
      "payable": true,
      "stateMutability": "payable",
      "type": "function"
    },
    {
      "constant": false,
      "inputs": [
        {
          "name": "_tokenAddress",
          "type": "address"
        },
        {
          "name": "_amount",
          "type": "uint256"
        },
        {
          "name": "_maxAmount",
          "type": "uint256"
        }
      ],
      "name": "swapTokenToEther",
      "outputs": [
        {
          "name": "",
          "type": "uint256"
        }
      ],
      "payable": false,
      "stateMutability": "nonpayable",
      "type": "function"
    },
    {
      "constant": false,
      "inputs": [
        {
          "name": "_src",
          "type": "address"
        },
        {
          "name": "_dest",
          "type": "address"
        },
        {
          "name": "_srcQty",
          "type": "uint256"
        }
      ],
      "name": "getExpectedRate",
      "outputs": [
        {
          "name": "",
          "type": "uint256"
        },
        {
          "name": "",
          "type": "uint256"
        }
      ],
      "payable": false,
      "stateMutability": "nonpayable",
      "type": "function"
    }
  ],
  "bytecode": "0x608060405234801561001057600080fd5b50610f6a806100206000396000f3fe60806040526004361061006d576000357c0100000000000000000000000000000000000000000000000000000000900463ffffffff16806329f7fc9e1461006f5780633bba21dc146100c657806343ac1dc61461013f578063809a9e55146101b2578063c74c0fac14610248575b005b34801561007b57600080fd5b5061008461029f565b604051808273ffffffffffffffffffffffffffffffffffffffff1673ffffffffffffffffffffffffffffffffffffffff16815260200191505060405180910390f35b3480156100d257600080fd5b50610129600480360360608110156100e957600080fd5b81019080803573ffffffffffffffffffffffffffffffffffffffff16906020019092919080359060200190929190803590602001909291905050506102b7565b6040518082815260200191505060405180910390f35b6101956004803603606081101561015557600080fd5b8101908080359060200190929190803573ffffffffffffffffffffffffffffffffffffffff16906020019092919080359060200190929190505050610584565b604051808381526020018281526020019250505060405180910390f35b3480156101be57600080fd5b5061022b600480360360608110156101d557600080fd5b81019080803573ffffffffffffffffffffffffffffffffffffffff169060200190929190803573ffffffffffffffffffffffffffffffffffffffff16906020019092919080359060200190929190505050610775565b604051808381526020018281526020019250505060405180910390f35b34801561025457600080fd5b5061025d610e9e565b604051808273ffffffffffffffffffffffffffffffffffffffff1673ffffffffffffffffffffffffffffffffffffffff16815260200191505060405180910390f35b73eeeeeeeeeeeeeeeeeeeeeeeeeeeeeeeeeeeeeeee81565b60008073f5d915570bc477f9b8d6c0e980aa81757a3aac3673ffffffffffffffffffffffffffffffffffffffff166306f2bf62866040518263ffffffff167c0100000000000000000000000000000000000000000000000000000000028152600401808273ffffffffffffffffffffffffffffffffffffffff1673ffffffffffffffffffffffffffffffffffffffff16815260200191505060206040518083038186803b15801561036757600080fd5b505afa15801561037b573d6000803e3d6000fd5b505050506040513d602081101561039157600080fd5b810190808051906020019092919050505090508473ffffffffffffffffffffffffffffffffffffffff1663095ea7b382866040518363ffffffff167c0100000000000000000000000000000000000000000000000000000000028152600401808373ffffffffffffffffffffffffffffffffffffffff1673ffffffffffffffffffffffffffffffffffffffff16815260200182815260200192505050602060405180830381600087803b15801561044757600080fd5b505af115801561045b573d6000803e3d6000fd5b505050506040513d602081101561047157600080fd5b81019080805190602001909291905050505060008173ffffffffffffffffffffffffffffffffffffffff16637237e031866001804201336040518563ffffffff167c0100000000000000000000000000000000000000000000000000000000028152600401808581526020018481526020018381526020018273ffffffffffffffffffffffffffffffffffffffff1673ffffffffffffffffffffffffffffffffffffffff168152602001945050505050602060405180830381600087803b15801561053b57600080fd5b505af115801561054f573d6000803e3d6000fd5b505050506040513d602081101561056557600080fd5b8101908080519060200190929190505050905080925050509392505050565b600080600073f5d915570bc477f9b8d6c0e980aa81757a3aac3673ffffffffffffffffffffffffffffffffffffffff166306f2bf62866040518263ffffffff167c0100000000000000000000000000000000000000000000000000000000028152600401808273ffffffffffffffffffffffffffffffffffffffff1673ffffffffffffffffffffffffffffffffffffffff16815260200191505060206040518083038186803b15801561063657600080fd5b505afa15801561064a573d6000803e3d6000fd5b505050506040513d602081101561066057600080fd5b8101908080519060200190929190505050905060008173ffffffffffffffffffffffffffffffffffffffff1663ad65d76d886001804201336040518563ffffffff167c0100000000000000000000000000000000000000000000000000000000028152600401808481526020018381526020018273ffffffffffffffffffffffffffffffffffffffff1673ffffffffffffffffffffffffffffffffffffffff16815260200193505050506020604051808303818588803b15801561072357600080fd5b505af1158015610737573d6000803e3d6000fd5b50505050506040513d602081101561074e57600080fd5b81019080805190602001909291905050509050806000809050935093505050935093915050565b60008073eeeeeeeeeeeeeeeeeeeeeeeeeeeeeeeeeeeeeeee73ffffffffffffffffffffffffffffffffffffffff168573ffffffffffffffffffffffffffffffffffffffff16141561096c57600073f5d915570bc477f9b8d6c0e980aa81757a3aac3673ffffffffffffffffffffffffffffffffffffffff166306f2bf62866040518263ffffffff167c0100000000000000000000000000000000000000000000000000000000028152600401808273ffffffffffffffffffffffffffffffffffffffff1673ffffffffffffffffffffffffffffffffffffffff16815260200191505060206040518083038186803b15801561086f57600080fd5b505afa158015610883573d6000803e3d6000fd5b505050506040513d602081101561089957600080fd5b8101908080519060200190929190505050905061095d8173ffffffffffffffffffffffffffffffffffffffff1663cd7724c3866040518263ffffffff167c01000000000000000000000000000000000000000000000000000000000281526004018082815260200191505060206040518083038186803b15801561091c57600080fd5b505afa158015610930573d6000803e3d6000fd5b505050506040513d602081101561094657600080fd5b810190808051906020019092919050505085610eb6565b60008090509250925050610e96565b73eeeeeeeeeeeeeeeeeeeeeeeeeeeeeeeeeeeeeeee73ffffffffffffffffffffffffffffffffffffffff168473ffffffffffffffffffffffffffffffffffffffff161415610b6057600073f5d915570bc477f9b8d6c0e980aa81757a3aac3673ffffffffffffffffffffffffffffffffffffffff166306f2bf62876040518263ffffffff167c0100000000000000000000000000000000000000000000000000000000028152600401808273ffffffffffffffffffffffffffffffffffffffff1673ffffffffffffffffffffffffffffffffffffffff16815260200191505060206040518083038186803b158015610a6357600080fd5b505afa158015610a77573d6000803e3d6000fd5b505050506040513d6020811015610a8d57600080fd5b81019080805190602001909291905050509050610b518173ffffffffffffffffffffffffffffffffffffffff166395b68fe7866040518263ffffffff167c01000000000000000000000000000000000000000000000000000000000281526004018082815260200191505060206040518083038186803b158015610b1057600080fd5b505afa158015610b24573d6000803e3d6000fd5b505050506040513d6020811015610b3a57600080fd5b810190808051906020019092919050505085610eb6565b60008090509250925050610e96565b600073f5d915570bc477f9b8d6c0e980aa81757a3aac3673ffffffffffffffffffffffffffffffffffffffff166306f2bf62876040518263ffffffff167c0100000000000000000000000000000000000000000000000000000000028152600401808273ffffffffffffffffffffffffffffffffffffffff1673ffffffffffffffffffffffffffffffffffffffff16815260200191505060206040518083038186803b158015610c0f57600080fd5b505afa158015610c23573d6000803e3d6000fd5b505050506040513d6020811015610c3957600080fd5b810190808051906020019092919050505073ffffffffffffffffffffffffffffffffffffffff166395b68fe7856040518263ffffffff167c01000000000000000000000000000000000000000000000000000000000281526004018082815260200191505060206040518083038186803b158015610cb657600080fd5b505afa158015610cca573d6000803e3d6000fd5b505050506040513d6020811015610ce057600080fd5b81019080805190602001909291905050509050610e8b73f5d915570bc477f9b8d6c0e980aa81757a3aac3673ffffffffffffffffffffffffffffffffffffffff166306f2bf62876040518263ffffffff167c0100000000000000000000000000000000000000000000000000000000028152600401808273ffffffffffffffffffffffffffffffffffffffff1673ffffffffffffffffffffffffffffffffffffffff16815260200191505060206040518083038186803b158015610da357600080fd5b505afa158015610db7573d6000803e3d6000fd5b505050506040513d6020811015610dcd57600080fd5b810190808051906020019092919050505073ffffffffffffffffffffffffffffffffffffffff1663cd7724c3836040518263ffffffff167c01000000000000000000000000000000000000000000000000000000000281526004018082815260200191505060206040518083038186803b158015610e4a57600080fd5b505afa158015610e5e573d6000803e3d6000fd5b505050506040513d6020811015610e7457600080fd5b810190808051906020019092919050505082610eb6565b600080905092509250505b935093915050565b73f5d915570bc477f9b8d6c0e980aa81757a3aac3681565b600081610ee0610ece85670de0b6b3a7640000610ef2565b600285811515610eda57fe5b04610f22565b811515610ee957fe5b04905092915050565b600080821480610f1157508282838502925082811515610f0e57fe5b04145b1515610f1c57600080fd5b92915050565b60008282840191508110151515610f3857600080fd5b9291505056fea165627a7a723058202f6fc1b1c4d318694830088ff3487b3c27a0c83f94261ddb35ce18a9a3c125c70029",
  "source": "pragma solidity ^0.5.0;\n\nimport \"./interfaces/ERC20.sol\";\nimport \"./interfaces/KyberNetworkProxyInterface.sol\";\nimport \"./interfaces/ExchangeInterface.sol\";\nimport \"./interfaces/UniswapExchangeInterface.sol\";\nimport \"./DS/DSMath.sol\";\n\ncontract UniswapFactoryInterface {\n    function getExchange(address token) external view returns (address exchange);\n}\n\ncontract UniswapWrapper is ExchangeInterface, DSMath {\n\n    address public constant KYBER_ETH_ADDRESS = 0xEeeeeEeeeEeEeeEeEeEeeEEEeeeeEeeeeeeeEEeE;\n\n    // Mainnet, no kovan deployment :(\n    // address public constant UNISWAP_FACTORY = 0xc0a47dFe034B400B47bDaD5FecDa2621de6c4d95;\n\n    // Rinkeby\n    address public constant UNISWAP_FACTORY = 0xf5D915570BC477f9B8D6C0E980aA81757A3AaC36;\n\n    function swapEtherToToken (uint _ethAmount, address _tokenAddress, uint _maxAmount) external payable returns(uint, uint) {\n        address uniswapTokenAddress = UniswapFactoryInterface(UNISWAP_FACTORY).getExchange(_tokenAddress);\n\n        uint tokenAmount = UniswapExchangeInterface(uniswapTokenAddress).\n                ethToTokenTransferInput.value(_ethAmount)(1, block.timestamp + 1, msg.sender);\n\n        return (tokenAmount, 0);\n    }\n    \n    function swapTokenToEther (address _tokenAddress, uint _amount, uint _maxAmount) external returns(uint) {\n        address uniswapTokenAddress = UniswapFactoryInterface(UNISWAP_FACTORY).getExchange(_tokenAddress);\n\n        ERC20(_tokenAddress).approve(uniswapTokenAddress, _amount);\n\n        uint ethAmount = UniswapExchangeInterface(uniswapTokenAddress).\n                tokenToEthTransferInput(_amount, 1, block.timestamp + 1, msg.sender);\n\n        return ethAmount;\n    }\n\n    function getExpectedRate(address _src, address _dest, uint _srcQty) public returns (uint, uint) {\n        if(_src == KYBER_ETH_ADDRESS) {\n            address uniswapTokenAddress = UniswapFactoryInterface(UNISWAP_FACTORY).getExchange(_dest);\n            return (wdiv(UniswapExchangeInterface(uniswapTokenAddress).getEthToTokenInputPrice(_srcQty), _srcQty), 0);\n        } else if (_dest == KYBER_ETH_ADDRESS) {\n            address uniswapTokenAddress = UniswapFactoryInterface(UNISWAP_FACTORY).getExchange(_src);\n            return (wdiv(UniswapExchangeInterface(uniswapTokenAddress).getTokenToEthInputPrice(_srcQty), _srcQty), 0);\n        } else {\n            uint ethBought = UniswapExchangeInterface(UniswapFactoryInterface(UNISWAP_FACTORY).getExchange(_src)).getTokenToEthInputPrice(_srcQty);\n            return (wdiv(UniswapExchangeInterface(UniswapFactoryInterface(UNISWAP_FACTORY).getExchange(_dest)).getEthToTokenInputPrice(ethBought), ethBought), 0);\n        }\n    }\n\n    function() payable external {\n    }\n}",
  "sourcePath": "/Users/nikolaklipa/Decenter/defisaver/cdpsaver-contracts/contracts/UniswapWrapper.sol",
  "compiler": {
    "name": "solc",
    "version": "0.5.0+commit.1d4f565a.Emscripten.clang"
  },
  "schemaVersion": "3.0.9",
  "updatedAt": "2019-08-07T15:25:37.069Z",
  "devdoc": {
    "methods": {}
  },
  "userdoc": {
    "methods": {}
  }
}