{
  "contractName": "ActionLogger",
  "abi": [
    {
      "anonymous": false,
      "inputs": [
        {
          "indexed": true,
          "name": "_type",
          "type": "string"
        },
        {
          "indexed": true,
          "name": "owner",
          "type": "address"
        },
        {
          "indexed": false,
          "name": "_first",
          "type": "uint256"
        },
        {
          "indexed": false,
          "name": "_second",
          "type": "uint256"
        }
      ],
      "name": "Log",
      "type": "event"
    },
    {
      "constant": false,
      "inputs": [
        {
          "name": "_type",
          "type": "string"
        },
        {
          "name": "_owner",
          "type": "address"
        },
        {
          "name": "_first",
          "type": "uint256"
        },
        {
          "name": "_second",
          "type": "uint256"
        }
      ],
      "name": "logEvent",
      "outputs": [],
      "payable": false,
      "stateMutability": "nonpayable",
      "type": "function"
    }
  ],
  "bytecode": "0x608060405234801561001057600080fd5b50610208806100206000396000f3fe608060405234801561001057600080fd5b506004361061002b5760003560e01c80632ddab6d714610030575b600080fd5b61011d6004803603608081101561004657600080fd5b810190808035906020019064010000000081111561006357600080fd5b82018360208201111561007557600080fd5b8035906020019184600183028401116401000000008311171561009757600080fd5b91908080601f016020809104026020016040519081016040528093929190818152602001838380828437600081840152601f19601f820116905080830192505050505050509192919290803573ffffffffffffffffffffffffffffffffffffffff169060200190929190803590602001909291908035906020019092919050505061011f565b005b8273ffffffffffffffffffffffffffffffffffffffff16846040518082805190602001908083835b6020831061016a5780518252602082019150602081019050602083039250610147565b6001836020036101000a03801982511681845116808217855250505050505090500191505060405180910390207fa2455ec11f160d321516c021994881e7678c0b5870cd7aae50107098770e2c288484604051808381526020018281526020019250505060405180910390a35050505056fea165627a7a72305820857e5fc75b70c43c7086855d04c68f47c98b39739c9979e9e3dbb6a7339b228c0029",
  "source": "pragma solidity ^0.5.0;\n\ncontract ActionLogger {\n    event Log(string indexed _type, address indexed owner, uint _first, uint _second);\n\n    function logEvent(string memory _type, address _owner, uint _first, uint _second) public {\n        emit Log(_type, _owner, _first, _second);\n    }\n}\n",
  "sourcePath": "/Users/nikolaklipa/Decenter/defisaver/cdpsaver-contracts/contracts/ActionLogger.sol",
  "compiler": {
    "name": "solc",
    "version": "0.5.7+commit.6da8b019.Emscripten.clang"
  },
  "schemaVersion": "3.0.9",
  "updatedAt": "2019-08-13T11:10:46.885Z",
  "devdoc": {
    "methods": {}
  },
  "userdoc": {
    "methods": {}
  }
}