{
  "contractName": "CompoundProxy",
  "abi": [
    {
      "constant": true,
      "inputs": [],
      "name": "WETH_ADDRESS",
      "outputs": [
        {
          "name": "",
          "type": "address"
        }
      ],
      "payable": false,
      "stateMutability": "view",
      "type": "function"
    },
    {
      "constant": true,
      "inputs": [],
      "name": "CDAI_ADDRESS",
      "outputs": [
        {
          "name": "",
          "type": "address"
        }
      ],
      "payable": false,
      "stateMutability": "view",
      "type": "function"
    },
    {
      "constant": true,
      "inputs": [],
      "name": "PIP_INTERFACE_ADDRESS",
      "outputs": [
        {
          "name": "",
          "type": "address"
        }
      ],
      "payable": false,
      "stateMutability": "view",
      "type": "function"
    },
    {
      "constant": true,
      "inputs": [],
      "name": "KYBER_ETH_ADDRESS",
      "outputs": [
        {
          "name": "",
          "type": "address"
        }
      ],
      "payable": false,
      "stateMutability": "view",
      "type": "function"
    },
    {
      "constant": true,
      "inputs": [],
      "name": "OTC_ADDRESS",
      "outputs": [
        {
          "name": "",
          "type": "address"
        }
      ],
      "payable": false,
      "stateMutability": "view",
      "type": "function"
    },
    {
      "constant": true,
      "inputs": [],
      "name": "IDAI_ADDRESS",
      "outputs": [
        {
          "name": "",
          "type": "address"
        }
      ],
      "payable": false,
      "stateMutability": "view",
      "type": "function"
    },
    {
      "constant": true,
      "inputs": [],
      "name": "GAS_TOKEN_INTERFACE_ADDRESS",
      "outputs": [
        {
          "name": "",
          "type": "address"
        }
      ],
      "payable": false,
      "stateMutability": "view",
      "type": "function"
    },
    {
      "constant": true,
      "inputs": [],
      "name": "VOX_ADDRESS",
      "outputs": [
        {
          "name": "",
          "type": "address"
        }
      ],
      "payable": false,
      "stateMutability": "view",
      "type": "function"
    },
    {
      "constant": true,
      "inputs": [],
      "name": "ETH2DAI_WRAPPER",
      "outputs": [
        {
          "name": "",
          "type": "address"
        }
      ],
      "payable": false,
      "stateMutability": "view",
      "type": "function"
    },
    {
      "constant": true,
      "inputs": [],
      "name": "STUPID_EXCHANGE",
      "outputs": [
        {
          "name": "",
          "type": "address"
        }
      ],
      "payable": false,
      "stateMutability": "view",
      "type": "function"
    },
    {
      "constant": true,
      "inputs": [],
      "name": "PROXY_REGISTRY_INTERFACE_ADDRESS",
      "outputs": [
        {
          "name": "",
          "type": "address"
        }
      ],
      "payable": false,
      "stateMutability": "view",
      "type": "function"
    },
    {
      "constant": true,
      "inputs": [],
      "name": "MKR_ADDRESS",
      "outputs": [
        {
          "name": "",
          "type": "address"
        }
      ],
      "payable": false,
      "stateMutability": "view",
      "type": "function"
    },
    {
      "constant": true,
      "inputs": [],
      "name": "FACTORY_ADDRESS",
      "outputs": [
        {
          "name": "",
          "type": "address"
        }
      ],
      "payable": false,
      "stateMutability": "view",
      "type": "function"
    },
    {
      "constant": true,
      "inputs": [],
      "name": "LOGGER_ADDRESS",
      "outputs": [
        {
          "name": "",
          "type": "address"
        }
      ],
      "payable": false,
      "stateMutability": "view",
      "type": "function"
    },
    {
      "constant": true,
      "inputs": [],
      "name": "MAKER_DAI_ADDRESS",
      "outputs": [
        {
          "name": "",
          "type": "address"
        }
      ],
      "payable": false,
      "stateMutability": "view",
      "type": "function"
    },
    {
      "constant": true,
      "inputs": [],
      "name": "KYBER_WRAPPER",
      "outputs": [
        {
          "name": "",
          "type": "address"
        }
      ],
      "payable": false,
      "stateMutability": "view",
      "type": "function"
    },
    {
      "constant": true,
      "inputs": [],
      "name": "COMPOUND_DAI_ADDRESS",
      "outputs": [
        {
          "name": "",
          "type": "address"
        }
      ],
      "payable": false,
      "stateMutability": "view",
      "type": "function"
    },
    {
      "constant": true,
      "inputs": [],
      "name": "UNISWAP_FACTORY",
      "outputs": [
        {
          "name": "",
          "type": "address"
        }
      ],
      "payable": false,
      "stateMutability": "view",
      "type": "function"
    },
    {
      "constant": true,
      "inputs": [],
      "name": "PETH_ADDRESS",
      "outputs": [
        {
          "name": "",
          "type": "address"
        }
      ],
      "payable": false,
      "stateMutability": "view",
      "type": "function"
    },
    {
      "constant": true,
      "inputs": [],
      "name": "KYBER_INTERFACE",
      "outputs": [
        {
          "name": "",
          "type": "address"
        }
      ],
      "payable": false,
      "stateMutability": "view",
      "type": "function"
    },
    {
      "constant": true,
      "inputs": [],
      "name": "WALLET_ID",
      "outputs": [
        {
          "name": "",
          "type": "address"
        }
      ],
      "payable": false,
      "stateMutability": "view",
      "type": "function"
    },
    {
      "constant": true,
      "inputs": [],
      "name": "SOLO_MARGIN_ADDRESS",
      "outputs": [
        {
          "name": "",
          "type": "address"
        }
      ],
      "payable": false,
      "stateMutability": "view",
      "type": "function"
    },
    {
      "constant": true,
      "inputs": [],
      "name": "UNISWAP_WRAPPER",
      "outputs": [
        {
          "name": "",
          "type": "address"
        }
      ],
      "payable": false,
      "stateMutability": "view",
      "type": "function"
    },
    {
      "constant": true,
      "inputs": [],
      "name": "TUB_ADDRESS",
      "outputs": [
        {
          "name": "",
          "type": "address"
        }
      ],
      "payable": false,
      "stateMutability": "view",
      "type": "function"
    },
    {
      "constant": false,
      "inputs": [
        {
          "name": "_cup",
          "type": "bytes32"
        },
        {
          "name": "_amount",
          "type": "uint256"
        }
      ],
      "name": "repayCDPDebt",
      "outputs": [],
      "payable": false,
      "stateMutability": "nonpayable",
      "type": "function"
    },
    {
      "constant": false,
      "inputs": [
        {
          "name": "_cup",
          "type": "bytes32"
        },
        {
          "name": "_amount",
          "type": "uint256"
        }
      ],
      "name": "cdpToCompound",
      "outputs": [],
      "payable": false,
      "stateMutability": "nonpayable",
      "type": "function"
    },
    {
      "constant": false,
      "inputs": [
        {
          "name": "_tub",
          "type": "address"
        },
        {
          "name": "_cup",
          "type": "bytes32"
        },
        {
          "name": "_daiRepay",
          "type": "uint256"
        }
      ],
      "name": "stabilityFeeInMkr",
      "outputs": [
        {
          "name": "",
          "type": "uint256"
        }
      ],
      "payable": false,
      "stateMutability": "nonpayable",
      "type": "function"
    }
  ],
  "bytecode": "0x608060405234801561001057600080fd5b50612a2c806100206000396000f3fe608060405234801561001057600080fd5b50600436106101a95760003560e01c806394bfbe74116100f9578063ce9bde1d11610097578063ddaa293c11610071578063ddaa293c14610876578063f0d405e5146108c0578063f27eb5991461090a578063fbf4a01314610942576101a9565b8063ce9bde1d14610798578063d3661fa5146107e2578063d36b907d1461082c576101a9565b8063c16921b7116100d3578063c16921b71461064e578063c387fd8614610698578063c74c0fac14610704578063c9fde2701461074e576101a9565b806394bfbe74146105705780639da779e9146105ba578063b175afa114610604576101a9565b806332ac5cd211610166578063502237d711610140578063502237d714610448578063728c009214610492578063825ffd92146104dc5780638823151b14610526576101a9565b806332ac5cd21461036a57806336e6da11146103b457806343fb75e8146103fe576101a9565b8063040141e5146101ae5780630531b2ad146101f85780631dab52b01461024257806329f7fc9e1461028c5780632a441f05146102d65780632d5eeb3f14610320575b600080fd5b6101b661097a565b604051808273ffffffffffffffffffffffffffffffffffffffff1673ffffffffffffffffffffffffffffffffffffffff16815260200191505060405180910390f35b610200610992565b604051808273ffffffffffffffffffffffffffffffffffffffff1673ffffffffffffffffffffffffffffffffffffffff16815260200191505060405180910390f35b61024a6109aa565b604051808273ffffffffffffffffffffffffffffffffffffffff1673ffffffffffffffffffffffffffffffffffffffff16815260200191505060405180910390f35b6102946109c2565b604051808273ffffffffffffffffffffffffffffffffffffffff1673ffffffffffffffffffffffffffffffffffffffff16815260200191505060405180910390f35b6102de6109da565b604051808273ffffffffffffffffffffffffffffffffffffffff1673ffffffffffffffffffffffffffffffffffffffff16815260200191505060405180910390f35b6103286109f2565b604051808273ffffffffffffffffffffffffffffffffffffffff1673ffffffffffffffffffffffffffffffffffffffff16815260200191505060405180910390f35b610372610a0a565b604051808273ffffffffffffffffffffffffffffffffffffffff1673ffffffffffffffffffffffffffffffffffffffff16815260200191505060405180910390f35b6103bc610a1d565b604051808273ffffffffffffffffffffffffffffffffffffffff1673ffffffffffffffffffffffffffffffffffffffff16815260200191505060405180910390f35b610406610a35565b604051808273ffffffffffffffffffffffffffffffffffffffff1673ffffffffffffffffffffffffffffffffffffffff16815260200191505060405180910390f35b610450610a4d565b604051808273ffffffffffffffffffffffffffffffffffffffff1673ffffffffffffffffffffffffffffffffffffffff16815260200191505060405180910390f35b61049a610a65565b604051808273ffffffffffffffffffffffffffffffffffffffff1673ffffffffffffffffffffffffffffffffffffffff16815260200191505060405180910390f35b6104e4610a7d565b604051808273ffffffffffffffffffffffffffffffffffffffff1673ffffffffffffffffffffffffffffffffffffffff16815260200191505060405180910390f35b61052e610a95565b604051808273ffffffffffffffffffffffffffffffffffffffff1673ffffffffffffffffffffffffffffffffffffffff16815260200191505060405180910390f35b610578610aad565b604051808273ffffffffffffffffffffffffffffffffffffffff1673ffffffffffffffffffffffffffffffffffffffff16815260200191505060405180910390f35b6105c2610ac5565b604051808273ffffffffffffffffffffffffffffffffffffffff1673ffffffffffffffffffffffffffffffffffffffff16815260200191505060405180910390f35b61060c610add565b604051808273ffffffffffffffffffffffffffffffffffffffff1673ffffffffffffffffffffffffffffffffffffffff16815260200191505060405180910390f35b610656610af5565b604051808273ffffffffffffffffffffffffffffffffffffffff1673ffffffffffffffffffffffffffffffffffffffff16815260200191505060405180910390f35b6106ee600480360360608110156106ae57600080fd5b81019080803573ffffffffffffffffffffffffffffffffffffffff1690602001909291908035906020019092919080359060200190929190505050610b0d565b6040518082815260200191505060405180910390f35b61070c610d71565b604051808273ffffffffffffffffffffffffffffffffffffffff1673ffffffffffffffffffffffffffffffffffffffff16815260200191505060405180910390f35b610756610d89565b604051808273ffffffffffffffffffffffffffffffffffffffff1673ffffffffffffffffffffffffffffffffffffffff16815260200191505060405180910390f35b6107a0610da1565b604051808273ffffffffffffffffffffffffffffffffffffffff1673ffffffffffffffffffffffffffffffffffffffff16815260200191505060405180910390f35b6107ea610db9565b604051808273ffffffffffffffffffffffffffffffffffffffff1673ffffffffffffffffffffffffffffffffffffffff16815260200191505060405180910390f35b610834610dd1565b604051808273ffffffffffffffffffffffffffffffffffffffff1673ffffffffffffffffffffffffffffffffffffffff16815260200191505060405180910390f35b61087e610de9565b604051808273ffffffffffffffffffffffffffffffffffffffff1673ffffffffffffffffffffffffffffffffffffffff16815260200191505060405180910390f35b6108c8610e01565b604051808273ffffffffffffffffffffffffffffffffffffffff1673ffffffffffffffffffffffffffffffffffffffff16815260200191505060405180910390f35b6109406004803603604081101561092057600080fd5b810190808035906020019092919080359060200190929190505050610e19565b005b6109786004803603604081101561095857600080fd5b810190808035906020019092919080359060200190929190505050611430565b005b73d0a1e359811322d97991e03f863a0c30c2cf029c81565b73b6b09fbffba6a5c4631e5f7b2e3ee183ac259c0d81565b73a944bd4b25c9f186a846fd5668941aa3d3b8425f81565b73eeeeeeeeeeeeeeeeeeeeeeeeeeeeeeeeeeeeeeee81565b734a6bc4e803c62081ffebcc8d227b5a87a58f1f8f81565b73a1e58f3b1927743393b25f261471e1f2d3d9f0f681565b6e170ccc93903185be5a2094c870df6281565b73bb4339c0ab5b1d9f14bd6e3426444a1e9d86a1d981565b73823cde416973a19f98bb9c96d97f4fe6c9a7238b81565b73863e41fe88288ebf3fcd91d8dbb679fb83fdfe1781565b7364a436ae831c1672ae81f674cab8b6775df3475c81565b73aaf64bfcc32d0f15873a02163e7e500671a4ffcd81565b73c72e74e474682680a414b506699bbca44ab9a93081565b7332d0e18f988f952eb3524ace762042381a2c39e581565b73c4375b7de8af5a38a93548eb8453a498222c4ff281565b735595930d576aedf13945c83ce5aad827529a131081565b7325a01a05c188dacbcf1d61af55d4a5b4021f7eed81565b600080600080610c4085610c3b8973ffffffffffffffffffffffffffffffffffffffff16636f78ee0d8a6040518263ffffffff1660e01b815260040180828152602001915050602060405180830381600087803b158015610b6d57600080fd5b505af1158015610b81573d6000803e3d6000fd5b505050506040513d6020811015610b9757600080fd5b81019080805190602001909291905050508a73ffffffffffffffffffffffffffffffffffffffff1663f7c8d6348b6040518263ffffffff1660e01b815260040180828152602001915050602060405180830381600087803b158015610bfb57600080fd5b505af1158015610c0f573d6000803e3d6000fd5b505050506040513d6020811015610c2557600080fd5b8101908080519060200190929190505050611cdf565b611d1b565b90508673ffffffffffffffffffffffffffffffffffffffff1663ace237f56040518163ffffffff1660e01b8152600401602060405180830381600087803b158015610c8a57600080fd5b505af1158015610c9e573d6000803e3d6000fd5b505050506040513d6020811015610cb457600080fd5b810190808051906020019092919050505073ffffffffffffffffffffffffffffffffffffffff166359e02dd76040518163ffffffff1660e01b81526004016040805180830381600087803b158015610d0b57600080fd5b505af1158015610d1f573d6000803e3d6000fd5b505050506040513d6040811015610d3557600080fd5b8101908080519060200190929190805190602001909291905050508093508194505050610d65818460001c611d63565b93505050509392505050565b73f5d915570bc477f9b8d6c0e980aa81757a3aac3681565b73f4d791139ce033ad35db2b2201435fad668b1b6481565b73692f391bcc85cefce8c237c01e1f636bbd70ea4d81565b7354b44c6b18fc0b4a1010b21d524c338d1f8065f681565b734ec3570cadaaee08ae384779b0f3a45ef85289de81565b735595930d576aedf13945c83ce5aad827529a131081565b73a71937147b55deb8a530c7229c442fd3f31b7db281565b600073a71937147b55deb8a530c7229c442fd3f31b7db29050600073b6b09fbffba6a5c4631e5f7b2e3ee183ac259c0d9050610e6873d0a1e359811322d97991e03f863a0c30c2cf029c611d9b565b610e8573f4d791139ce033ad35db2b2201435fad668b1b64611d9b565b610ea273c4375b7de8af5a38a93548eb8453a498222c4ff2611d9b565b8173ffffffffffffffffffffffffffffffffffffffff1663440f19ba85856040518363ffffffff1660e01b81526004018083815260200182815260200192505050600060405180830381600087803b158015610efd57600080fd5b505af1158015610f11573d6000803e3d6000fd5b5050505073863e41fe88288ebf3fcd91d8dbb679fb83fdfe1773ffffffffffffffffffffffffffffffffffffffff166369a90514846040518263ffffffff1660e01b815260040180828152602001915050600060405180830381600087803b158015610f7c57600080fd5b505af1158015610f90573d6000803e3d6000fd5b505050507325a01a05c188dacbcf1d61af55d4a5b4021f7eed73ffffffffffffffffffffffffffffffffffffffff1663095ea7b373b6b09fbffba6a5c4631e5f7b2e3ee183ac259c0d7fffffffffffffffffffffffffffffffffffffffffffffffffffffffffffffffff6040518363ffffffff1660e01b8152600401808373ffffffffffffffffffffffffffffffffffffffff1673ffffffffffffffffffffffffffffffffffffffff16815260200182815260200192505050602060405180830381600087803b15801561106357600080fd5b505af1158015611077573d6000803e3d6000fd5b505050506040513d602081101561108d57600080fd5b81019080805190602001909291905050505060008173ffffffffffffffffffffffffffffffffffffffff1663a0712d68856040518263ffffffff1660e01b815260040180828152602001915050602060405180830381600087803b1580156110f457600080fd5b505af1158015611108573d6000803e3d6000fd5b505050506040513d602081101561111e57600080fd5b8101908080519060200190929190505050146111a2576040517f08c379a000000000000000000000000000000000000000000000000000000000815260040180806020018281038252600b8152602001807f4661696c6564204d696e7400000000000000000000000000000000000000000081525060200191505060405180910390fd5b60008173ffffffffffffffffffffffffffffffffffffffff166370a08231306040518263ffffffff1660e01b8152600401808273ffffffffffffffffffffffffffffffffffffffff1673ffffffffffffffffffffffffffffffffffffffff16815260200191505060206040518083038186803b15801561122157600080fd5b505afa158015611235573d6000803e3d6000fd5b505050506040513d602081101561124b57600080fd5b8101908080519060200190929190505050905073b6b09fbffba6a5c4631e5f7b2e3ee183ac259c0d73ffffffffffffffffffffffffffffffffffffffff1663a9059cbb33836040518363ffffffff1660e01b8152600401808373ffffffffffffffffffffffffffffffffffffffff1673ffffffffffffffffffffffffffffffffffffffff16815260200182815260200192505050602060405180830381600087803b1580156112f957600080fd5b505af115801561130d573d6000803e3d6000fd5b505050506040513d602081101561132357600080fd5b8101908080519060200190929190505050507332d0e18f988f952eb3524ace762042381a2c39e573ffffffffffffffffffffffffffffffffffffffff16632ddab6d73386846040518463ffffffff1660e01b815260040180806020018573ffffffffffffffffffffffffffffffffffffffff1673ffffffffffffffffffffffffffffffffffffffff1681526020018481526020018381526020018281038252600d8152602001807f636470546f436f6d706f756e6400000000000000000000000000000000000000815250602001945050505050600060405180830381600087803b15801561141157600080fd5b505af1158015611425573d6000803e3d6000fd5b505050505050505050565b600073a71937147b55deb8a530c7229c442fd3f31b7db29050600073b6b09fbffba6a5c4631e5f7b2e3ee183ac259c0d905061147f73c4375b7de8af5a38a93548eb8453a498222c4ff2611d9b565b61149c73aaf64bfcc32d0f15873a02163e7e500671a4ffcd611d9b565b6114b973f4d791139ce033ad35db2b2201435fad668b1b64611d9b565b6114d673d0a1e359811322d97991e03f863a0c30c2cf029c611d9b565b60006114f68473b6b09fbffba6a5c4631e5f7b2e3ee183ac259c0d611fb3565b90508173ffffffffffffffffffffffffffffffffffffffff1663095ea7b373b6b09fbffba6a5c4631e5f7b2e3ee183ac259c0d7fffffffffffffffffffffffffffffffffffffffffffffffffffffffffffffffff6040518363ffffffff1660e01b8152600401808373ffffffffffffffffffffffffffffffffffffffff1673ffffffffffffffffffffffffffffffffffffffff16815260200182815260200192505050602060405180830381600087803b1580156115b357600080fd5b505af11580156115c7573d6000803e3d6000fd5b505050506040513d60208110156115dd57600080fd5b8101908080519060200190929190505050508173ffffffffffffffffffffffffffffffffffffffff166323b872dd3330846040518463ffffffff1660e01b8152600401808473ffffffffffffffffffffffffffffffffffffffff1673ffffffffffffffffffffffffffffffffffffffff1681526020018373ffffffffffffffffffffffffffffffffffffffff1673ffffffffffffffffffffffffffffffffffffffff1681526020018281526020019350505050602060405180830381600087803b1580156116aa57600080fd5b505af11580156116be573d6000803e3d6000fd5b505050506040513d60208110156116d457600080fd5b81019080805190602001909291905050505060008273ffffffffffffffffffffffffffffffffffffffff1663852a12e3866040518263ffffffff1660e01b815260040180828152602001915050602060405180830381600087803b15801561173b57600080fd5b505af115801561174f573d6000803e3d6000fd5b505050506040513d602081101561176557600080fd5b8101908080519060200190929190505050146117e9576040517f08c379a000000000000000000000000000000000000000000000000000000000815260040180806020018281038252600d8152602001807f52656564656d204661696c65640000000000000000000000000000000000000081525060200191505060405180910390fd5b73863e41fe88288ebf3fcd91d8dbb679fb83fdfe1773ffffffffffffffffffffffffffffffffffffffff1663db8b0a58856040518263ffffffff1660e01b815260040180828152602001915050600060405180830381600087803b15801561185057600080fd5b505af1158015611864573d6000803e3d6000fd5b505050506000611875848787610b0d565b9050600061188b82611886886120eb565b611d63565b905060006118c373c4375b7de8af5a38a93548eb8453a498222c4ff273aaf64bfcc32d0f15873a02163e7e500671a4ffcd8486612230565b90506118cf8783612674565b965060006118dd878a61268e565b9050808811156119cb5773c4375b7de8af5a38a93548eb8453a498222c4ff273ffffffffffffffffffffffffffffffffffffffff1663a9059cbb336119228b85612674565b6040518363ffffffff1660e01b8152600401808373ffffffffffffffffffffffffffffffffffffffff1673ffffffffffffffffffffffffffffffffffffffff16815260200182815260200192505050602060405180830381600087803b15801561198b57600080fd5b505af115801561199f573d6000803e3d6000fd5b505050506040513d60208110156119b557600080fd5b8101908080519060200190929190505050508097505b8673ffffffffffffffffffffffffffffffffffffffff166373b381018a8a6040518363ffffffff1660e01b81526004018083815260200182815260200192505050600060405180830381600087803b158015611a2657600080fd5b505af1158015611a3a573d6000803e3d6000fd5b5050505073aaf64bfcc32d0f15873a02163e7e500671a4ffcd73ffffffffffffffffffffffffffffffffffffffff1663a9059cbb3373aaf64bfcc32d0f15873a02163e7e500671a4ffcd73ffffffffffffffffffffffffffffffffffffffff166370a08231306040518263ffffffff1660e01b8152600401808273ffffffffffffffffffffffffffffffffffffffff1673ffffffffffffffffffffffffffffffffffffffff16815260200191505060206040518083038186803b158015611b0057600080fd5b505afa158015611b14573d6000803e3d6000fd5b505050506040513d6020811015611b2a57600080fd5b81019080805190602001909291905050506040518363ffffffff1660e01b8152600401808373ffffffffffffffffffffffffffffffffffffffff1673ffffffffffffffffffffffffffffffffffffffff16815260200182815260200192505050602060405180830381600087803b158015611ba457600080fd5b505af1158015611bb8573d6000803e3d6000fd5b505050506040513d6020811015611bce57600080fd5b8101908080519060200190929190505050507332d0e18f988f952eb3524ace762042381a2c39e573ffffffffffffffffffffffffffffffffffffffff16632ddab6d73386856040518463ffffffff1660e01b815260040180806020018573ffffffffffffffffffffffffffffffffffffffff1673ffffffffffffffffffffffffffffffffffffffff1681526020018481526020018381526020018281038252600c8152602001807f7265706179434450446562740000000000000000000000000000000000000000815250602001945050505050600060405180830381600087803b158015611cbc57600080fd5b505af1158015611cd0573d6000803e3d6000fd5b50505050505050505050505050565b600081611d0b611cfb856b033b2e3c9fd0803ce800000061274e565b60028581611d0557fe5b0461277a565b81611d1257fe5b04905092915050565b60006b033b2e3c9fd0803ce8000000611d53611d37858561274e565b60026b033b2e3c9fd0803ce800000081611d4d57fe5b0461277a565b81611d5a57fe5b04905092915050565b600081611d8b611d7b85670de0b6b3a764000061274e565b60028581611d8557fe5b0461277a565b81611d9257fe5b04905092915050565b60027fffffffffffffffffffffffffffffffffffffffffffffffffffffffffffffffff81611dc557fe5b048173ffffffffffffffffffffffffffffffffffffffff1663dd62ed3e33846040518363ffffffff1660e01b8152600401808373ffffffffffffffffffffffffffffffffffffffff1673ffffffffffffffffffffffffffffffffffffffff1681526020018273ffffffffffffffffffffffffffffffffffffffff1673ffffffffffffffffffffffffffffffffffffffff1681526020019250505060206040518083038186803b158015611e7757600080fd5b505afa158015611e8b573d6000803e3d6000fd5b505050506040513d6020811015611ea157600080fd5b81019080805190602001909291905050501015611fb0578073ffffffffffffffffffffffffffffffffffffffff1663095ea7b373a71937147b55deb8a530c7229c442fd3f31b7db27fffffffffffffffffffffffffffffffffffffffffffffffffffffffffffffffff6040518363ffffffff1660e01b8152600401808373ffffffffffffffffffffffffffffffffffffffff1673ffffffffffffffffffffffffffffffffffffffff16815260200182815260200192505050602060405180830381600087803b158015611f7357600080fd5b505af1158015611f87573d6000803e3d6000fd5b505050506040513d6020811015611f9d57600080fd5b8101908080519060200190929190505050505b50565b6000806120508460405180602001604052808673ffffffffffffffffffffffffffffffffffffffff1663bd6d894d6040518163ffffffff1660e01b8152600401602060405180830381600087803b15801561200d57600080fd5b505af1158015612021573d6000803e3d6000fd5b505050506040513d602081101561203757600080fd5b8101908080519060200190929190505050815250612794565b80935081925050506000600381111561206557fe5b81600381111561207157fe5b146120e4576040517f08c379a000000000000000000000000000000000000000000000000000000000815260040180806020018281038252600a8152602001807f4d617468206572726f720000000000000000000000000000000000000000000081525060200191505060405180910390fd5b5092915050565b600073692f391bcc85cefce8c237c01e1f636bbd70ea4d73ffffffffffffffffffffffffffffffffffffffff1663809a9e5573c4375b7de8af5a38a93548eb8453a498222c4ff273aaf64bfcc32d0f15873a02163e7e500671a4ffcd856040518463ffffffff1660e01b8152600401808473ffffffffffffffffffffffffffffffffffffffff1673ffffffffffffffffffffffffffffffffffffffff1681526020018373ffffffffffffffffffffffffffffffffffffffff1673ffffffffffffffffffffffffffffffffffffffff1681526020018281526020019350505050604080518083038186803b1580156121e157600080fd5b505afa1580156121f5573d6000803e3d6000fd5b505050506040513d604081101561220b57600080fd5b8101908080519060200190929190805190602001909291905050505080915050919050565b60008073692f391bcc85cefce8c237c01e1f636bbd70ea4d905060008173ffffffffffffffffffffffffffffffffffffffff1663809a9e558888886040518463ffffffff1660e01b8152600401808473ffffffffffffffffffffffffffffffffffffffff1673ffffffffffffffffffffffffffffffffffffffff1681526020018373ffffffffffffffffffffffffffffffffffffffff1673ffffffffffffffffffffffffffffffffffffffff1681526020018281526020019350505050604080518083038186803b15801561230457600080fd5b505afa158015612318573d6000803e3d6000fd5b505050506040513d604081101561232e57600080fd5b8101908080519060200190929190805190602001909291905050509050809150508673ffffffffffffffffffffffffffffffffffffffff1663095ea7b38360006040518363ffffffff1660e01b8152600401808373ffffffffffffffffffffffffffffffffffffffff1673ffffffffffffffffffffffffffffffffffffffff16815260200182815260200192505050602060405180830381600087803b1580156123d757600080fd5b505af11580156123eb573d6000803e3d6000fd5b505050506040513d602081101561240157600080fd5b810190808051906020019092919050505061241b57600080fd5b8673ffffffffffffffffffffffffffffffffffffffff1663095ea7b383876040518363ffffffff1660e01b8152600401808373ffffffffffffffffffffffffffffffffffffffff1673ffffffffffffffffffffffffffffffffffffffff16815260200182815260200192505050602060405180830381600087803b1580156124a257600080fd5b505af11580156124b6573d6000803e3d6000fd5b505050506040513d60208110156124cc57600080fd5b81019080805190602001909291905050506124e657600080fd5b8173ffffffffffffffffffffffffffffffffffffffff1663cb3c28c78887893089877354b44c6b18fc0b4a1010b21d524c338d1f8065f66040518863ffffffff1660e01b8152600401808873ffffffffffffffffffffffffffffffffffffffff1673ffffffffffffffffffffffffffffffffffffffff1681526020018781526020018673ffffffffffffffffffffffffffffffffffffffff1673ffffffffffffffffffffffffffffffffffffffff1681526020018573ffffffffffffffffffffffffffffffffffffffff1673ffffffffffffffffffffffffffffffffffffffff1681526020018481526020018381526020018273ffffffffffffffffffffffffffffffffffffffff1673ffffffffffffffffffffffffffffffffffffffff168152602001975050505050505050602060405180830381600087803b15801561262d57600080fd5b505af1158015612641573d6000803e3d6000fd5b505050506040513d602081101561265757600080fd5b810190808051906020019092919050505092505050949350505050565b600082828403915081111561268857600080fd5b92915050565b60008273ffffffffffffffffffffffffffffffffffffffff1663fdac0025836040518263ffffffff1660e01b815260040180828152602001915050608060405180830381600087803b1580156126e357600080fd5b505af11580156126f7573d6000803e3d6000fd5b505050506040513d608081101561270d57600080fd5b810190808051906020019092919080519060200190929190805190602001909291908051906020019092919050505090919250909150508091505092915050565b60008082148061276b575082828385029250828161276857fe5b04145b61277457600080fd5b92915050565b600082828401915081101561278e57600080fd5b92915050565b60008060006127a16129ed565b6127ab86866127f7565b91509150600060038111156127bc57fe5b8260038111156127c857fe5b146127de578160008090509350935050506127f0565b60006127e982612873565b9350935050505b9250929050565b60006128016129ed565b600080612816670de0b6b3a764000087612892565b915091506000600381111561282757fe5b82600381111561283357fe5b1461285757816040518060200160405280600081525080905093509350505061286c565b6128658186600001516128e5565b9350935050505b9250929050565b6000670de0b6b3a764000082600001518161288a57fe5b049050919050565b60008060008414156128ad57600080809050915091506128de565b60008385029050838582816128be57fe5b04146128d5576002600080905092509250506128de565b60008192509250505b9250929050565b60006128ef6129ed565b60008061290486670de0b6b3a7640000612892565b915091506000600381111561291557fe5b82600381111561292157fe5b146129455781604051806020016040528060008152508090509350935050506129b2565b60008061295283886129b9565b915091506000600381111561296357fe5b82600381111561296f57fe5b1461299557816040518060200160405280600081525080905095509550505050506129b2565b600060405180602001604052808381525080905095509550505050505b9250929050565b60008060008314156129d55760016000809050915091506129e6565b60008385816129e057fe5b04915091505b9250929050565b604051806020016040528060008152509056fea165627a7a7230582023efcb0364d0fca309b4621340e11e930e32b6127234453a9321751e7ff2584f0029",
  "source": "pragma solidity ^0.5.0;\n\nimport \"../DS/DSMath.sol\";\nimport \"../interfaces/CTokenInterface.sol\";\nimport \"../interfaces/TubInterface.sol\";\nimport \"../interfaces/KyberNetworkProxyInterface.sol\";\nimport \"../ActionLogger.sol\";\nimport \"./Exponential.sol\";\nimport \"./StupidExchange.sol\";\nimport \"../constants/ConstantAddresses.sol\";\n\n/// @title CompoundProxy implements CDP and Compound direct interactions\ncontract CompoundProxy is DSMath, Exponential, ConstantAddresses {\n\n    /// @notice It will draw Dai from Compound and repay part of the CDP debt\n    /// @dev User has to approve DSProxy to pull CDai before calling this\n    /// @param _cup Cdp id\n    /// @param _amount Amount of Dai that will be taken from Compound and put into CDP\n    function repayCDPDebt(bytes32 _cup, uint _amount) public {\n        TubInterface tub = TubInterface(TUB_ADDRESS);\n        CTokenInterface cDaiContract = CTokenInterface(CDAI_ADDRESS);\n\n        approveTub(MAKER_DAI_ADDRESS);\n        approveTub(MKR_ADDRESS);\n        approveTub(PETH_ADDRESS);\n        approveTub(WETH_ADDRESS);\n\n        // Calculate how many cDai tokens we need to pull for the Dai _amount\n        uint cAmount = getCTokenAmount(_amount, CDAI_ADDRESS);\n\n        cDaiContract.approve(CDAI_ADDRESS, uint(-1));\n        cDaiContract.transferFrom(msg.sender, address(this), cAmount);\n\n        require(cDaiContract.redeemUnderlying(_amount) == 0, \"Reedem Failed\");\n\n        // REMOVE: USED ONLY ON KOVAN TO HANDLE DAI DIFFERENT TOKENS\n        StupidExchange(STUPID_EXCHANGE).getMakerDaiToken(_amount);\n\n        // Buy some Mkr to pay stability fee\n        uint mkrAmount = stabilityFeeInMkr(tub, _cup, _amount);\n        uint daiFee = wdiv(mkrAmount, estimatedDaiMkrPrice(_amount));\n        uint amountExchanged = exchangeToken(ERC20(MAKER_DAI_ADDRESS), ERC20(MKR_ADDRESS), daiFee, mkrAmount);\n\n        _amount = sub(_amount, daiFee);\n\n        uint daiDebt = getDebt(tub, _cup);\n\n        if (_amount > daiDebt) {\n            ERC20(MAKER_DAI_ADDRESS).transfer(msg.sender, sub(_amount, daiDebt));\n            _amount = daiDebt;\n        }\n\n        tub.wipe(_cup, _amount);\n\n        ERC20(MKR_ADDRESS).transfer(msg.sender, ERC20(MKR_ADDRESS).balanceOf(address(this)));\n        ActionLogger(LOGGER_ADDRESS).logEvent('repayCDPDebt', msg.sender, mkrAmount, amountExchanged);\n    }\n\n    /// @notice It will draw Dai from CDP and add it to Compound\n    /// @param _cup CDP id\n    /// @param _amount Amount of Dai drawn from the CDP and put into Compound\n    function cdpToCompound(bytes32 _cup, uint _amount) public {\n        TubInterface tub = TubInterface(TUB_ADDRESS);\n        CTokenInterface cDaiContract = CTokenInterface(CDAI_ADDRESS);\n\n        approveTub(WETH_ADDRESS);\n        approveTub(PETH_ADDRESS);\n        approveTub(MAKER_DAI_ADDRESS);\n\n        tub.draw(_cup, _amount);\n\n        StupidExchange(STUPID_EXCHANGE).getCompoundDaiToken(_amount);\n\n        //cDai will try and pull Dai tokens from DSProxy, so approve it\n        ERC20(COMPOUND_DAI_ADDRESS).approve(CDAI_ADDRESS, uint(-1));\n\n        require(cDaiContract.mint(_amount) == 0, \"Failed Mint\");\n\n        uint cDaiMinted = cDaiContract.balanceOf(address(this));\n\n        // transfer the cDai to the original sender\n        ERC20(CDAI_ADDRESS).transfer(msg.sender, cDaiMinted);\n\n        ActionLogger(LOGGER_ADDRESS).logEvent('cdpToCompound', msg.sender, _amount, cDaiMinted);\n\n    }\n\n    /// @notice Calculates how many cTokens you get for a _tokenAmount\n    function getCTokenAmount(uint _tokenAmount, address _tokeAddress) internal returns(uint cAmount) {\n        MathError error;\n        (error, cAmount) = divScalarByExpTruncate(_tokenAmount,\n             Exp({mantissa: CTokenInterface(_tokeAddress).exchangeRateCurrent()}));\n\n        require(error == MathError.NO_ERROR, \"Math error\");\n    }\n\n    /// @notice Stability fee amount in Mkr\n    /// @param _tub Tub interface\n    /// @param _cup Id of the CDP\n    /// @param _daiRepay Amount of dai we are repaying\n    function stabilityFeeInMkr(TubInterface _tub, bytes32 _cup, uint _daiRepay) public returns (uint) {\n        bytes32 mkrPrice;\n        bool ok;\n\n        uint feeInDai = rmul(_daiRepay, rdiv(_tub.rap(_cup), _tub.tab(_cup)));\n\n        (mkrPrice, ok) = _tub.pep().peek();\n\n        return wdiv(feeInDai, uint(mkrPrice));\n    }\n\n    /// @notice Returns expected rate for Dai -> Mkr conversion\n    /// @param _daiAmount Amount of Dai\n    function estimatedDaiMkrPrice(uint _daiAmount) internal returns (uint expectedRate) {\n        (expectedRate, ) = KyberNetworkProxyInterface(KYBER_INTERFACE).getExpectedRate(ERC20(MAKER_DAI_ADDRESS), ERC20(MKR_ADDRESS), _daiAmount);\n    }\n\n    /// @notice Approve a token if it's not already approved\n    /// @param _tokenAddress Address of the ERC20 token we want to approve\n    function approveTub(address _tokenAddress) internal {\n        if (ERC20(_tokenAddress).allowance(msg.sender, _tokenAddress) < (uint(-1) / 2)) {\n            ERC20(_tokenAddress).approve(TUB_ADDRESS, uint(-1));\n        }\n    }\n\n    /// @notice Returns current Dai debt of the CDP\n    /// @param _tub Tub interface\n    /// @param _cup Id of the CDP\n    function getDebt(TubInterface _tub, bytes32 _cup) internal returns (uint debt) {\n        ( , , debt, ) = _tub.cups(_cup);\n    }\n\n    /// @notice Exhcanged a token on kyber\n    function exchangeToken(ERC20 _sourceToken, ERC20 _destToken, uint _sourceAmount, uint _maxAmount) internal returns (uint destAmount) {\n        KyberNetworkProxyInterface _kyberNetworkProxy = KyberNetworkProxyInterface(KYBER_INTERFACE);\n\n        uint minRate;\n        (, minRate) = _kyberNetworkProxy.getExpectedRate(_sourceToken, _destToken, _sourceAmount);\n\n        require(_sourceToken.approve(address(_kyberNetworkProxy), 0));\n        require(_sourceToken.approve(address(_kyberNetworkProxy), _sourceAmount));\n\n        destAmount = _kyberNetworkProxy.trade(\n            _sourceToken,\n            _sourceAmount,\n            _destToken,\n            address(this),\n            _maxAmount,\n            minRate,\n            WALLET_ID\n        );\n    }\n}\n",
  "sourcePath": "/Users/nikolaklipa/Decenter/defisaver/cdpsaver-contracts/contracts/compound/CompoundProxy.sol",
  "compiler": {
    "name": "solc",
    "version": "0.5.7+commit.6da8b019.Emscripten.clang"
  },
  "schemaVersion": "3.0.11",
  "updatedAt": "2019-08-16T13:07:17.032Z",
  "devdoc": {
    "methods": {
      "cdpToCompound(bytes32,uint256)": {
        "params": {
          "_amount": "Amount of Dai drawn from the CDP and put into Compound",
          "_cup": "CDP id"
        }
      },
      "repayCDPDebt(bytes32,uint256)": {
        "details": "User has to approve DSProxy to pull CDai before calling this",
        "params": {
          "_amount": "Amount of Dai that will be taken from Compound and put into CDP",
          "_cup": "Cdp id"
        }
      },
      "stabilityFeeInMkr(address,bytes32,uint256)": {
        "params": {
          "_cup": "Id of the CDP",
          "_daiRepay": "Amount of dai we are repaying",
          "_tub": "Tub interface"
        }
      }
    },
    "title": "CompoundProxy implements CDP and Compound direct interactions"
  },
  "userdoc": {
    "methods": {
      "cdpToCompound(bytes32,uint256)": {
        "notice": "It will draw Dai from CDP and add it to Compound"
      },
      "repayCDPDebt(bytes32,uint256)": {
        "notice": "It will draw Dai from Compound and repay part of the CDP debt"
      },
      "stabilityFeeInMkr(address,bytes32,uint256)": {
        "notice": "Stability fee amount in Mkr"
      }
    }
  }
}