{
  "contractName": "CompoundSavingsProtocol",
  "abi": [
    {
      "constant": true,
      "inputs": [],
      "name": "WETH_ADDRESS",
      "outputs": [
        {
          "name": "",
          "type": "address"
        }
      ],
      "payable": false,
      "stateMutability": "view",
      "type": "function"
    },
    {
      "constant": true,
      "inputs": [],
      "name": "CDAI_ADDRESS",
      "outputs": [
        {
          "name": "",
          "type": "address"
        }
      ],
      "payable": false,
      "stateMutability": "view",
      "type": "function"
    },
    {
      "constant": false,
      "inputs": [
        {
          "name": "owner_",
          "type": "address"
        }
      ],
      "name": "setOwner",
      "outputs": [],
      "payable": false,
      "stateMutability": "nonpayable",
      "type": "function"
    },
    {
      "constant": true,
      "inputs": [],
      "name": "PIP_INTERFACE_ADDRESS",
      "outputs": [
        {
          "name": "",
          "type": "address"
        }
      ],
      "payable": false,
      "stateMutability": "view",
      "type": "function"
    },
    {
      "constant": true,
      "inputs": [],
      "name": "KYBER_ETH_ADDRESS",
      "outputs": [
        {
          "name": "",
          "type": "address"
        }
      ],
      "payable": false,
      "stateMutability": "view",
      "type": "function"
    },
    {
      "constant": true,
      "inputs": [],
      "name": "OTC_ADDRESS",
      "outputs": [
        {
          "name": "",
          "type": "address"
        }
      ],
      "payable": false,
      "stateMutability": "view",
      "type": "function"
    },
    {
      "constant": true,
      "inputs": [],
      "name": "IDAI_ADDRESS",
      "outputs": [
        {
          "name": "",
          "type": "address"
        }
      ],
      "payable": false,
      "stateMutability": "view",
      "type": "function"
    },
    {
      "constant": true,
      "inputs": [],
      "name": "GAS_TOKEN_INTERFACE_ADDRESS",
      "outputs": [
        {
          "name": "",
          "type": "address"
        }
      ],
      "payable": false,
      "stateMutability": "view",
      "type": "function"
    },
    {
      "constant": true,
      "inputs": [],
      "name": "VOX_ADDRESS",
      "outputs": [
        {
          "name": "",
          "type": "address"
        }
      ],
      "payable": false,
      "stateMutability": "view",
      "type": "function"
    },
    {
      "constant": true,
      "inputs": [],
      "name": "ETH2DAI_WRAPPER",
      "outputs": [
        {
          "name": "",
          "type": "address"
        }
      ],
      "payable": false,
      "stateMutability": "view",
      "type": "function"
    },
    {
      "constant": true,
      "inputs": [],
      "name": "STUPID_EXCHANGE",
      "outputs": [
        {
          "name": "",
          "type": "address"
        }
      ],
      "payable": false,
      "stateMutability": "view",
      "type": "function"
    },
    {
      "constant": true,
      "inputs": [],
      "name": "PROXY_REGISTRY_INTERFACE_ADDRESS",
      "outputs": [
        {
          "name": "",
          "type": "address"
        }
      ],
      "payable": false,
      "stateMutability": "view",
      "type": "function"
    },
    {
      "constant": false,
      "inputs": [
        {
          "name": "authority_",
          "type": "address"
        }
      ],
      "name": "setAuthority",
      "outputs": [],
      "payable": false,
      "stateMutability": "nonpayable",
      "type": "function"
    },
    {
      "constant": true,
      "inputs": [],
      "name": "MKR_ADDRESS",
      "outputs": [
        {
          "name": "",
          "type": "address"
        }
      ],
      "payable": false,
      "stateMutability": "view",
      "type": "function"
    },
    {
      "constant": true,
      "inputs": [],
      "name": "FACTORY_ADDRESS",
      "outputs": [
        {
          "name": "",
          "type": "address"
        }
      ],
      "payable": false,
      "stateMutability": "view",
      "type": "function"
    },
    {
      "constant": true,
      "inputs": [],
      "name": "owner",
      "outputs": [
        {
          "name": "",
          "type": "address"
        }
      ],
      "payable": false,
      "stateMutability": "view",
      "type": "function"
    },
    {
      "constant": true,
      "inputs": [],
      "name": "LOGGER_ADDRESS",
      "outputs": [
        {
          "name": "",
          "type": "address"
        }
      ],
      "payable": false,
      "stateMutability": "view",
      "type": "function"
    },
    {
      "constant": true,
      "inputs": [],
      "name": "MAKER_DAI_ADDRESS",
      "outputs": [
        {
          "name": "",
          "type": "address"
        }
      ],
      "payable": false,
      "stateMutability": "view",
      "type": "function"
    },
    {
      "constant": true,
      "inputs": [],
      "name": "savingsProxy",
      "outputs": [
        {
          "name": "",
          "type": "address"
        }
      ],
      "payable": false,
      "stateMutability": "view",
      "type": "function"
    },
    {
      "constant": true,
      "inputs": [],
      "name": "KYBER_WRAPPER",
      "outputs": [
        {
          "name": "",
          "type": "address"
        }
      ],
      "payable": false,
      "stateMutability": "view",
      "type": "function"
    },
    {
      "constant": true,
      "inputs": [],
      "name": "authority",
      "outputs": [
        {
          "name": "",
          "type": "address"
        }
      ],
      "payable": false,
      "stateMutability": "view",
      "type": "function"
    },
    {
      "constant": true,
      "inputs": [],
      "name": "COMPOUND_DAI_ADDRESS",
      "outputs": [
        {
          "name": "",
          "type": "address"
        }
      ],
      "payable": false,
      "stateMutability": "view",
      "type": "function"
    },
    {
      "constant": true,
      "inputs": [],
      "name": "UNISWAP_FACTORY",
      "outputs": [
        {
          "name": "",
          "type": "address"
        }
      ],
      "payable": false,
      "stateMutability": "view",
      "type": "function"
    },
    {
      "constant": true,
      "inputs": [],
      "name": "PETH_ADDRESS",
      "outputs": [
        {
          "name": "",
          "type": "address"
        }
      ],
      "payable": false,
      "stateMutability": "view",
      "type": "function"
    },
    {
      "constant": true,
      "inputs": [],
      "name": "KYBER_INTERFACE",
      "outputs": [
        {
          "name": "",
          "type": "address"
        }
      ],
      "payable": false,
      "stateMutability": "view",
      "type": "function"
    },
    {
      "constant": true,
      "inputs": [],
      "name": "WALLET_ID",
      "outputs": [
        {
          "name": "",
          "type": "address"
        }
      ],
      "payable": false,
      "stateMutability": "view",
      "type": "function"
    },
    {
      "constant": true,
      "inputs": [],
      "name": "SOLO_MARGIN_ADDRESS",
      "outputs": [
        {
          "name": "",
          "type": "address"
        }
      ],
      "payable": false,
      "stateMutability": "view",
      "type": "function"
    },
    {
      "constant": true,
      "inputs": [],
      "name": "UNISWAP_WRAPPER",
      "outputs": [
        {
          "name": "",
          "type": "address"
        }
      ],
      "payable": false,
      "stateMutability": "view",
      "type": "function"
    },
    {
      "constant": true,
      "inputs": [],
      "name": "cDaiContract",
      "outputs": [
        {
          "name": "",
          "type": "address"
        }
      ],
      "payable": false,
      "stateMutability": "view",
      "type": "function"
    },
    {
      "constant": true,
      "inputs": [],
      "name": "TUB_ADDRESS",
      "outputs": [
        {
          "name": "",
          "type": "address"
        }
      ],
      "payable": false,
      "stateMutability": "view",
      "type": "function"
    },
    {
      "inputs": [],
      "payable": false,
      "stateMutability": "nonpayable",
      "type": "constructor"
    },
    {
      "anonymous": false,
      "inputs": [
        {
          "indexed": true,
          "name": "authority",
          "type": "address"
        }
      ],
      "name": "LogSetAuthority",
      "type": "event"
    },
    {
      "anonymous": false,
      "inputs": [
        {
          "indexed": true,
          "name": "owner",
          "type": "address"
        }
      ],
      "name": "LogSetOwner",
      "type": "event"
    },
    {
      "constant": false,
      "inputs": [
        {
          "name": "_savingsProxy",
          "type": "address"
        }
      ],
      "name": "addSavingsProxy",
      "outputs": [],
      "payable": false,
      "stateMutability": "nonpayable",
      "type": "function"
    },
    {
      "constant": false,
      "inputs": [
        {
          "name": "_user",
          "type": "address"
        },
        {
          "name": "_amount",
          "type": "uint256"
        }
      ],
      "name": "deposit",
      "outputs": [],
      "payable": false,
      "stateMutability": "nonpayable",
      "type": "function"
    },
    {
      "constant": false,
      "inputs": [
        {
          "name": "_user",
          "type": "address"
        },
        {
          "name": "_amount",
          "type": "uint256"
        }
      ],
      "name": "withdraw",
      "outputs": [],
      "payable": false,
      "stateMutability": "nonpayable",
      "type": "function"
    }
  ],
  "bytecode": "0x608060405234801561001057600080fd5b5033600160006101000a81548173ffffffffffffffffffffffffffffffffffffffff021916908373ffffffffffffffffffffffffffffffffffffffff1602179055503373ffffffffffffffffffffffffffffffffffffffff167fce241d7ca1f669fee44b6fc00b8eba2df3bb514eed0f6f668f8f89096e81ed9460405160405180910390a273b6b09fbffba6a5c4631e5f7b2e3ee183ac259c0d600260006101000a81548173ffffffffffffffffffffffffffffffffffffffff021916908373ffffffffffffffffffffffffffffffffffffffff160217905550611c54806100f96000396000f3fe608060405234801561001057600080fd5b50600436106101fb5760003560e01c80638823151b1161011a578063c74c0fac116100ad578063d36b907d1161007c578063d36b907d14610540578063ddaa293c1461055e578063edb6bff41461057c578063f0d405e51461059a578063f3fef3a3146105b8576101fb565b8063c74c0fac146104c8578063c9fde270146104e6578063ce9bde1d14610504578063d3661fa514610522576101fb565b8063a683668c116100e9578063a683668c14610450578063b175afa11461046e578063bf7e214f1461048c578063c16921b7146104aa576101fb565b80638823151b146103d85780638da5cb5b146103f657806394bfbe74146104145780639da779e914610432576101fb565b806332ac5cd211610192578063502237d711610161578063502237d714610362578063728c0092146103805780637a9e5e4b1461039e578063825ffd92146103ba576101fb565b806332ac5cd2146102ec57806336e6da111461030a57806343fb75e81461032857806347e7ef2414610346576101fb565b80631dab52b0116101ce5780631dab52b01461027457806329f7fc9e146102925780632a441f05146102b05780632d5eeb3f146102ce576101fb565b8063040141e5146102005780630531b2ad1461021e5780630b6cd37e1461023c57806313af403514610258575b600080fd5b6102086105d4565b60405161021591906119bc565b60405180910390f35b6102266105ec565b60405161023391906119bc565b60405180910390f35b61025660048036036102519190810190611811565b610604565b005b610272600480360361026d9190810190611811565b61067f565b005b61027c61075f565b60405161028991906119bc565b60405180910390f35b61029a610777565b6040516102a791906119bc565b60405180910390f35b6102b861078f565b6040516102c591906119bc565b60405180910390f35b6102d66107a7565b6040516102e391906119bc565b60405180910390f35b6102f46107bf565b60405161030191906119bc565b60405180910390f35b6103126107d2565b60405161031f91906119bc565b60405180910390f35b6103306107ea565b60405161033d91906119bc565b60405180910390f35b610360600480360361035b919081019061183a565b610802565b005b61036a610d56565b60405161037791906119bc565b60405180910390f35b610388610d6e565b60405161039591906119bc565b60405180910390f35b6103b860048036036103b3919081019061189f565b610d86565b005b6103c2610e64565b6040516103cf91906119bc565b60405180910390f35b6103e0610e7c565b6040516103ed91906119bc565b60405180910390f35b6103fe610e94565b60405161040b91906119bc565b60405180910390f35b61041c610eba565b60405161042991906119bc565b60405180910390f35b61043a610ed2565b60405161044791906119bc565b60405180910390f35b610458610eea565b60405161046591906119bc565b60405180910390f35b610476610f10565b60405161048391906119bc565b60405180910390f35b610494610f28565b6040516104a19190611a89565b60405180910390f35b6104b2610f4d565b6040516104bf91906119bc565b60405180910390f35b6104d0610f65565b6040516104dd91906119bc565b60405180910390f35b6104ee610f7d565b6040516104fb91906119bc565b60405180910390f35b61050c610f95565b60405161051991906119bc565b60405180910390f35b61052a610fad565b60405161053791906119bc565b60405180910390f35b610548610fc5565b60405161055591906119bc565b60405180910390f35b610566610fdd565b60405161057391906119bc565b60405180910390f35b610584610ff5565b6040516105919190611a6e565b60405180910390f35b6105a261101b565b6040516105af91906119bc565b60405180910390f35b6105d260048036036105cd919081019061183a565b611033565b005b73d0a1e359811322d97991e03f863a0c30c2cf029c81565b73b6b09fbffba6a5c4631e5f7b2e3ee183ac259c0d81565b610632336000357fffffffff00000000000000000000000000000000000000000000000000000000166115f9565b61063b57600080fd5b80600360006101000a81548173ffffffffffffffffffffffffffffffffffffffff021916908373ffffffffffffffffffffffffffffffffffffffff16021790555050565b6106ad336000357fffffffff00000000000000000000000000000000000000000000000000000000166115f9565b6106b657600080fd5b80600160006101000a81548173ffffffffffffffffffffffffffffffffffffffff021916908373ffffffffffffffffffffffffffffffffffffffff160217905550600160009054906101000a900473ffffffffffffffffffffffffffffffffffffffff1673ffffffffffffffffffffffffffffffffffffffff167fce241d7ca1f669fee44b6fc00b8eba2df3bb514eed0f6f668f8f89096e81ed9460405160405180910390a250565b73a944bd4b25c9f186a846fd5668941aa3d3b8425f81565b73eeeeeeeeeeeeeeeeeeeeeeeeeeeeeeeeeeeeeeee81565b734a6bc4e803c62081ffebcc8d227b5a87a58f1f8f81565b73a1e58f3b1927743393b25f261471e1f2d3d9f0f681565b6e170ccc93903185be5a2094c870df6281565b73bb4339c0ab5b1d9f14bd6e3426444a1e9d86a1d981565b73823cde416973a19f98bb9c96d97f4fe6c9a7238b81565b8173ffffffffffffffffffffffffffffffffffffffff163373ffffffffffffffffffffffffffffffffffffffff161461083a57600080fd5b73c4375b7de8af5a38a93548eb8453a498222c4ff273ffffffffffffffffffffffffffffffffffffffff166323b872dd8330846040518463ffffffff1660e01b815260040161088b93929190611a0e565b602060405180830381600087803b1580156108a557600080fd5b505af11580156108b9573d6000803e3d6000fd5b505050506040513d601f19601f820116820180604052506108dd9190810190611876565b6108e657600080fd5b73863e41fe88288ebf3fcd91d8dbb679fb83fdfe1773ffffffffffffffffffffffffffffffffffffffff166369a90514826040518263ffffffff1660e01b81526004016109339190611ae4565b600060405180830381600087803b15801561094d57600080fd5b505af1158015610961573d6000803e3d6000fd5b505050507325a01a05c188dacbcf1d61af55d4a5b4021f7eed73ffffffffffffffffffffffffffffffffffffffff1663095ea7b373b6b09fbffba6a5c4631e5f7b2e3ee183ac259c0d7fffffffffffffffffffffffffffffffffffffffffffffffffffffffffffffffff6040518363ffffffff1660e01b81526004016109e8929190611a45565b602060405180830381600087803b158015610a0257600080fd5b505af1158015610a16573d6000803e3d6000fd5b505050506040513d601f19601f82011682018060405250610a3a9190810190611876565b5073c4375b7de8af5a38a93548eb8453a498222c4ff273ffffffffffffffffffffffffffffffffffffffff1663095ea7b373b6b09fbffba6a5c4631e5f7b2e3ee183ac259c0d7fffffffffffffffffffffffffffffffffffffffffffffffffffffffffffffffff6040518363ffffffff1660e01b8152600401610abe929190611a45565b602060405180830381600087803b158015610ad857600080fd5b505af1158015610aec573d6000803e3d6000fd5b505050506040513d601f19601f82011682018060405250610b109190810190611876565b506000600260009054906101000a900473ffffffffffffffffffffffffffffffffffffffff1673ffffffffffffffffffffffffffffffffffffffff1663a0712d68836040518263ffffffff1660e01b8152600401610b6e9190611ae4565b602060405180830381600087803b158015610b8857600080fd5b505af1158015610b9c573d6000803e3d6000fd5b505050506040513d601f19601f82011682018060405250610bc091908101906118c8565b14610c00576040517f08c379a0000000000000000000000000000000000000000000000000000000008152600401610bf790611aa4565b60405180910390fd5b6000600260009054906101000a900473ffffffffffffffffffffffffffffffffffffffff1673ffffffffffffffffffffffffffffffffffffffff166370a08231306040518263ffffffff1660e01b8152600401610c5d91906119bc565b60206040518083038186803b158015610c7557600080fd5b505afa158015610c89573d6000803e3d6000fd5b505050506040513d601f19601f82011682018060405250610cad91908101906118c8565b905073b6b09fbffba6a5c4631e5f7b2e3ee183ac259c0d73ffffffffffffffffffffffffffffffffffffffff1663a9059cbb84836040518363ffffffff1660e01b8152600401610cfe929190611a45565b602060405180830381600087803b158015610d1857600080fd5b505af1158015610d2c573d6000803e3d6000fd5b505050506040513d601f19601f82011682018060405250610d509190810190611876565b50505050565b73863e41fe88288ebf3fcd91d8dbb679fb83fdfe1781565b7364a436ae831c1672ae81f674cab8b6775df3475c81565b610db4336000357fffffffff00000000000000000000000000000000000000000000000000000000166115f9565b610dbd57600080fd5b806000806101000a81548173ffffffffffffffffffffffffffffffffffffffff021916908373ffffffffffffffffffffffffffffffffffffffff1602179055506000809054906101000a900473ffffffffffffffffffffffffffffffffffffffff1673ffffffffffffffffffffffffffffffffffffffff167f1abebea81bfa2637f28358c371278fb15ede7ea8dd28d2e03b112ff6d936ada460405160405180910390a250565b73aaf64bfcc32d0f15873a02163e7e500671a4ffcd81565b73c72e74e474682680a414b506699bbca44ab9a93081565b600160009054906101000a900473ffffffffffffffffffffffffffffffffffffffff1681565b7332d0e18f988f952eb3524ace762042381a2c39e581565b73c4375b7de8af5a38a93548eb8453a498222c4ff281565b600360009054906101000a900473ffffffffffffffffffffffffffffffffffffffff1681565b735595930d576aedf13945c83ce5aad827529a131081565b6000809054906101000a900473ffffffffffffffffffffffffffffffffffffffff1681565b7325a01a05c188dacbcf1d61af55d4a5b4021f7eed81565b73f5d915570bc477f9b8d6c0e980aa81757a3aac3681565b73f4d791139ce033ad35db2b2201435fad668b1b6481565b73692f391bcc85cefce8c237c01e1f636bbd70ea4d81565b7354b44c6b18fc0b4a1010b21d524c338d1f8065f681565b734ec3570cadaaee08ae384779b0f3a45ef85289de81565b735595930d576aedf13945c83ce5aad827529a131081565b600260009054906101000a900473ffffffffffffffffffffffffffffffffffffffff1681565b73a71937147b55deb8a530c7229c442fd3f31b7db281565b8173ffffffffffffffffffffffffffffffffffffffff163373ffffffffffffffffffffffffffffffffffffffff161461106b57600080fd5b73b6b09fbffba6a5c4631e5f7b2e3ee183ac259c0d73ffffffffffffffffffffffffffffffffffffffff166323b872dd833073b6b09fbffba6a5c4631e5f7b2e3ee183ac259c0d73ffffffffffffffffffffffffffffffffffffffff166370a08231876040518263ffffffff1660e01b81526004016110ea91906119bc565b60206040518083038186803b15801561110257600080fd5b505afa158015611116573d6000803e3d6000fd5b505050506040513d601f19601f8201168201806040525061113a91908101906118c8565b6040518463ffffffff1660e01b815260040161115893929190611a0e565b602060405180830381600087803b15801561117257600080fd5b505af1158015611186573d6000803e3d6000fd5b505050506040513d601f19601f820116820180604052506111aa9190810190611876565b6111b357600080fd5b73b6b09fbffba6a5c4631e5f7b2e3ee183ac259c0d73ffffffffffffffffffffffffffffffffffffffff1663095ea7b3600260009054906101000a900473ffffffffffffffffffffffffffffffffffffffff167fffffffffffffffffffffffffffffffffffffffffffffffffffffffffffffffff6040518363ffffffff1660e01b8152600401611244929190611a45565b602060405180830381600087803b15801561125e57600080fd5b505af1158015611272573d6000803e3d6000fd5b505050506040513d601f19601f820116820180604052506112969190810190611876565b506000600260009054906101000a900473ffffffffffffffffffffffffffffffffffffffff1673ffffffffffffffffffffffffffffffffffffffff1663852a12e3836040518263ffffffff1660e01b81526004016112f49190611ae4565b602060405180830381600087803b15801561130e57600080fd5b505af1158015611322573d6000803e3d6000fd5b505050506040513d601f19601f8201168201806040525061134691908101906118c8565b14611386576040517f08c379a000000000000000000000000000000000000000000000000000000000815260040161137d90611ac4565b60405180910390fd5b73863e41fe88288ebf3fcd91d8dbb679fb83fdfe1773ffffffffffffffffffffffffffffffffffffffff1663db8b0a58826040518263ffffffff1660e01b81526004016113d39190611ae4565b600060405180830381600087803b1580156113ed57600080fd5b505af1158015611401573d6000803e3d6000fd5b50505050600073b6b09fbffba6a5c4631e5f7b2e3ee183ac259c0d73ffffffffffffffffffffffffffffffffffffffff166370a08231306040518263ffffffff1660e01b815260040161145491906119bc565b60206040518083038186803b15801561146c57600080fd5b505afa158015611480573d6000803e3d6000fd5b505050506040513d601f19601f820116820180604052506114a491908101906118c8565b905060008111156115525773b6b09fbffba6a5c4631e5f7b2e3ee183ac259c0d73ffffffffffffffffffffffffffffffffffffffff1663a9059cbb84836040518363ffffffff1660e01b81526004016114fe929190611a45565b602060405180830381600087803b15801561151857600080fd5b505af115801561152c573d6000803e3d6000fd5b505050506040513d601f19601f820116820180604052506115509190810190611876565b505b73c4375b7de8af5a38a93548eb8453a498222c4ff273ffffffffffffffffffffffffffffffffffffffff1663a9059cbb84846040518363ffffffff1660e01b81526004016115a1929190611a45565b602060405180830381600087803b1580156115bb57600080fd5b505af11580156115cf573d6000803e3d6000fd5b505050506040513d601f19601f820116820180604052506115f39190810190611876565b50505050565b60003073ffffffffffffffffffffffffffffffffffffffff168373ffffffffffffffffffffffffffffffffffffffff16141561163857600190506117a7565b600160009054906101000a900473ffffffffffffffffffffffffffffffffffffffff1673ffffffffffffffffffffffffffffffffffffffff168373ffffffffffffffffffffffffffffffffffffffff16141561169757600190506117a7565b600073ffffffffffffffffffffffffffffffffffffffff166000809054906101000a900473ffffffffffffffffffffffffffffffffffffffff1673ffffffffffffffffffffffffffffffffffffffff1614156116f657600090506117a7565b6000809054906101000a900473ffffffffffffffffffffffffffffffffffffffff1673ffffffffffffffffffffffffffffffffffffffff1663b70096138430856040518463ffffffff1660e01b8152600401611754939291906119d7565b60206040518083038186803b15801561176c57600080fd5b505afa158015611780573d6000803e3d6000fd5b505050506040513d601f19601f820116820180604052506117a49190810190611876565b90505b92915050565b60006117b98235611b78565b905092915050565b60006117cd8251611b8a565b905092915050565b60006117e18235611b96565b905092915050565b60006117f58235611bc8565b905092915050565b60006118098251611bc8565b905092915050565b60006020828403121561182357600080fd5b6000611831848285016117ad565b91505092915050565b6000806040838503121561184d57600080fd5b600061185b858286016117ad565b925050602061186c858286016117e9565b9150509250929050565b60006020828403121561188857600080fd5b6000611896848285016117c1565b91505092915050565b6000602082840312156118b157600080fd5b60006118bf848285016117d5565b91505092915050565b6000602082840312156118da57600080fd5b60006118e8848285016117fd565b91505092915050565b6118fa81611b10565b82525050565b61190981611b22565b82525050565b61191881611bd2565b82525050565b61192781611bf6565b82525050565b600061193a600b83611aff565b91507f4661696c6564204d696e740000000000000000000000000000000000000000006000830152602082019050919050565b600061197a600d83611aff565b91507f52656564656d204661696c6564000000000000000000000000000000000000006000830152602082019050919050565b6119b681611b6e565b82525050565b60006020820190506119d160008301846118f1565b92915050565b60006060820190506119ec60008301866118f1565b6119f960208301856118f1565b611a066040830184611900565b949350505050565b6000606082019050611a2360008301866118f1565b611a3060208301856118f1565b611a3d60408301846119ad565b949350505050565b6000604082019050611a5a60008301856118f1565b611a6760208301846119ad565b9392505050565b6000602082019050611a83600083018461190f565b92915050565b6000602082019050611a9e600083018461191e565b92915050565b60006020820190508181036000830152611abd8161192d565b9050919050565b60006020820190508181036000830152611add8161196d565b9050919050565b6000602082019050611af960008301846119ad565b92915050565b600082825260208201905092915050565b6000611b1b82611b4e565b9050919050565b60007fffffffff0000000000000000000000000000000000000000000000000000000082169050919050565b600073ffffffffffffffffffffffffffffffffffffffff82169050919050565b6000819050919050565b6000611b8382611ba8565b9050919050565b60008115159050919050565b6000611ba182611b78565b9050919050565b600073ffffffffffffffffffffffffffffffffffffffff82169050919050565b6000819050919050565b6000611bdd82611be4565b9050919050565b6000611bef82611b4e565b9050919050565b6000611c0182611c08565b9050919050565b6000611c1382611b4e565b905091905056fea265627a7a723058207c5ee5f2b11c68eeb4eb73984b8943db68060edbc45c5bc23cb9d3898a1719476c6578706572696d656e74616cf50037",
  "source": "pragma solidity ^0.5.0;\npragma experimental ABIEncoderV2;\n\nimport \"../ProtocolInterface.sol\";\nimport \"../../interfaces/CTokenInterface.sol\";\nimport \"../../compound/Exponential.sol\";\nimport \"../../compound/StupidExchange.sol\";\nimport \"../../interfaces/ERC20.sol\";\nimport \"../../constants/ConstantAddresses.sol\";\nimport \"../../DS/DSAuth.sol\";\n\n\ncontract CompoundSavingsProtocol is ProtocolInterface, Exponential, ConstantAddresses, DSAuth {\n\n    CTokenInterface public cDaiContract;\n    address public savingsProxy;\n\n    constructor() public {\n        cDaiContract = CTokenInterface(CDAI_ADDRESS);\n    }\n\n    function addSavingsProxy(address _savingsProxy) public auth {\n\n        savingsProxy = _savingsProxy;\n    }\n\n    function deposit(address _user, uint _amount) public {\n        require(msg.sender == _user);\n        // get dai from user\n        require(ERC20(MAKER_DAI_ADDRESS).transferFrom(_user, address(this), _amount));\n\n        // REMOVE: USED ONLY ON KOVAN TO HANDLE DAI DIFFERENT TOKENS\n        StupidExchange(STUPID_EXCHANGE).getCompoundDaiToken(_amount);\n        // approve dai to compound\n        ERC20(COMPOUND_DAI_ADDRESS).approve(CDAI_ADDRESS, uint(-1));\n\n        // mainnet only\n        ERC20(MAKER_DAI_ADDRESS).approve(CDAI_ADDRESS, uint(-1));\n\n        // mint cDai\n        require(cDaiContract.mint(_amount) == 0, \"Failed Mint\");\n        // balance should be equal to cDai minted\n        uint cDaiMinted = cDaiContract.balanceOf(address(this));\n        // return cDai to user\n        ERC20(CDAI_ADDRESS).transfer(_user, cDaiMinted);\n    }\n\n    function withdraw(address _user, uint _amount) public {\n        require(msg.sender == _user);\n        // transfer all users balance to this contract\n        require(ERC20(CDAI_ADDRESS).transferFrom(_user, address(this), ERC20(CDAI_ADDRESS).balanceOf(_user)));\n        // approve cDai to compound contract\n        ERC20(CDAI_ADDRESS).approve(address(cDaiContract), uint(-1));\n        // get dai from cDai contract\n        require(cDaiContract.redeemUnderlying(_amount) == 0, \"Reedem Failed\");\n\n        // REMOVE: USED ONLY ON KOVAN TO HANDLE DAI DIFFERENT TOKENS\n        StupidExchange(STUPID_EXCHANGE).getMakerDaiToken(_amount);\n\n        // return to user balance we didn't spend\n        uint cDaiBalance = ERC20(CDAI_ADDRESS).balanceOf(address(this));\n        if (cDaiBalance > 0) {\n            ERC20(CDAI_ADDRESS).transfer(_user, cDaiBalance);\n        }\n        // return dai we have to user\n        ERC20(MAKER_DAI_ADDRESS).transfer(_user, _amount);\n    }\n}\n",
  "sourcePath": "/Users/nikolaklipa/Decenter/defisaver/cdpsaver-contracts/contracts/savings/compound/CompoundSavingsProtocol.sol",
  "compiler": {
    "name": "solc",
    "version": "0.5.7+commit.6da8b019.Emscripten.clang"
  },
  "schemaVersion": "3.0.9",
  "updatedAt": "2019-08-13T12:41:32.828Z",
  "devdoc": {
    "methods": {}
  },
  "userdoc": {
    "methods": {}
  }
}