{
  "contractName": "CompoundProxy",
  "abi": [
    {
      "constant": true,
      "inputs": [],
      "name": "WETH_ADDRESS",
      "outputs": [
        {
          "name": "",
          "type": "address"
        }
      ],
      "payable": false,
      "stateMutability": "view",
      "type": "function"
    },
    {
      "constant": true,
      "inputs": [],
      "name": "CDAI_ADDRESS",
      "outputs": [
        {
          "name": "",
          "type": "address"
        }
      ],
      "payable": false,
      "stateMutability": "view",
      "type": "function"
    },
    {
      "constant": true,
      "inputs": [],
      "name": "DAI_ADDRESS",
      "outputs": [
        {
          "name": "",
          "type": "address"
        }
      ],
      "payable": false,
      "stateMutability": "view",
      "type": "function"
    },
    {
      "constant": true,
      "inputs": [],
      "name": "STUPID_EXCHANGE",
      "outputs": [
        {
          "name": "",
          "type": "address"
        }
      ],
      "payable": false,
      "stateMutability": "view",
      "type": "function"
    },
    {
      "constant": true,
      "inputs": [],
      "name": "MKR_ADDRESS",
      "outputs": [
        {
          "name": "",
          "type": "address"
        }
      ],
      "payable": false,
      "stateMutability": "view",
      "type": "function"
    },
    {
      "constant": true,
      "inputs": [],
      "name": "LOGGER_ADDRESS",
      "outputs": [
        {
          "name": "",
          "type": "address"
        }
      ],
      "payable": false,
      "stateMutability": "view",
      "type": "function"
    },
    {
      "constant": true,
      "inputs": [],
      "name": "KYBER_WRAPPER",
      "outputs": [
        {
          "name": "",
          "type": "address"
        }
      ],
      "payable": false,
      "stateMutability": "view",
      "type": "function"
    },
    {
      "constant": true,
      "inputs": [],
      "name": "COMPOUND_DAI_ADDRESS",
      "outputs": [
        {
          "name": "",
          "type": "address"
        }
      ],
      "payable": false,
      "stateMutability": "view",
      "type": "function"
    },
    {
      "constant": true,
      "inputs": [],
      "name": "PETH_ADDRESS",
      "outputs": [
        {
          "name": "",
          "type": "address"
        }
      ],
      "payable": false,
      "stateMutability": "view",
      "type": "function"
    },
    {
      "constant": true,
      "inputs": [],
      "name": "KYBER_INTERFACE",
      "outputs": [
        {
          "name": "",
          "type": "address"
        }
      ],
      "payable": false,
      "stateMutability": "view",
      "type": "function"
    },
    {
      "constant": true,
      "inputs": [],
      "name": "ETHER_ADDRESS",
      "outputs": [
        {
          "name": "",
          "type": "address"
        }
      ],
      "payable": false,
      "stateMutability": "view",
      "type": "function"
    },
    {
      "constant": true,
      "inputs": [],
      "name": "WALLET_ID",
      "outputs": [
        {
          "name": "",
          "type": "address"
        }
      ],
      "payable": false,
      "stateMutability": "view",
      "type": "function"
    },
    {
      "constant": true,
      "inputs": [],
      "name": "TUB_ADDRESS",
      "outputs": [
        {
          "name": "",
          "type": "address"
        }
      ],
      "payable": false,
      "stateMutability": "view",
      "type": "function"
    },
    {
      "constant": false,
      "inputs": [
        {
          "name": "_cup",
          "type": "bytes32"
        },
        {
          "name": "_amount",
          "type": "uint256"
        }
      ],
      "name": "repayCDPDebt",
      "outputs": [],
      "payable": false,
      "stateMutability": "nonpayable",
      "type": "function"
    },
    {
      "constant": false,
      "inputs": [
        {
          "name": "_cup",
          "type": "bytes32"
        },
        {
          "name": "_amount",
          "type": "uint256"
        }
      ],
      "name": "cdpToCompound",
      "outputs": [],
      "payable": false,
      "stateMutability": "nonpayable",
      "type": "function"
    },
    {
      "constant": false,
      "inputs": [
        {
          "name": "_tub",
          "type": "address"
        },
        {
          "name": "_cup",
          "type": "bytes32"
        },
        {
          "name": "_daiRepay",
          "type": "uint256"
        }
      ],
      "name": "stabilityFeeInMkr",
      "outputs": [
        {
          "name": "",
          "type": "uint256"
        }
      ],
      "payable": false,
      "stateMutability": "nonpayable",
      "type": "function"
    }
  ],
  "bytecode": "0x608060405234801561001057600080fd5b50612556806100206000396000f3fe608060405234801561001057600080fd5b50600436106101005760003560e01c8063c387fd8611610097578063d3661fa511610066578063d3661fa51461049f578063f0d405e5146104e9578063f27eb59914610533578063fbf4a0131461056b57610100565b8063c387fd8614610355578063c9fde270146103c1578063ce9bde1d1461040b578063cf1d21c01461045557610100565b8063825ffd92116100d3578063825ffd921461022d57806394bfbe7414610277578063b175afa1146102c1578063c16921b71461030b57610100565b8063040141e5146101055780630531b2ad1461014f5780632a4c0a1a14610199578063502237d7146101e3575b600080fd5b61010d6105a3565b604051808273ffffffffffffffffffffffffffffffffffffffff1673ffffffffffffffffffffffffffffffffffffffff16815260200191505060405180910390f35b6101576105bb565b604051808273ffffffffffffffffffffffffffffffffffffffff1673ffffffffffffffffffffffffffffffffffffffff16815260200191505060405180910390f35b6101a16105d3565b604051808273ffffffffffffffffffffffffffffffffffffffff1673ffffffffffffffffffffffffffffffffffffffff16815260200191505060405180910390f35b6101eb6105eb565b604051808273ffffffffffffffffffffffffffffffffffffffff1673ffffffffffffffffffffffffffffffffffffffff16815260200191505060405180910390f35b610235610603565b604051808273ffffffffffffffffffffffffffffffffffffffff1673ffffffffffffffffffffffffffffffffffffffff16815260200191505060405180910390f35b61027f61061b565b604051808273ffffffffffffffffffffffffffffffffffffffff1673ffffffffffffffffffffffffffffffffffffffff16815260200191505060405180910390f35b6102c9610633565b604051808273ffffffffffffffffffffffffffffffffffffffff1673ffffffffffffffffffffffffffffffffffffffff16815260200191505060405180910390f35b61031361064b565b604051808273ffffffffffffffffffffffffffffffffffffffff1673ffffffffffffffffffffffffffffffffffffffff16815260200191505060405180910390f35b6103ab6004803603606081101561036b57600080fd5b81019080803573ffffffffffffffffffffffffffffffffffffffff1690602001909291908035906020019092919080359060200190929190505050610663565b6040518082815260200191505060405180910390f35b6103c96108c7565b604051808273ffffffffffffffffffffffffffffffffffffffff1673ffffffffffffffffffffffffffffffffffffffff16815260200191505060405180910390f35b6104136108df565b604051808273ffffffffffffffffffffffffffffffffffffffff1673ffffffffffffffffffffffffffffffffffffffff16815260200191505060405180910390f35b61045d6108f7565b604051808273ffffffffffffffffffffffffffffffffffffffff1673ffffffffffffffffffffffffffffffffffffffff16815260200191505060405180910390f35b6104a761090f565b604051808273ffffffffffffffffffffffffffffffffffffffff1673ffffffffffffffffffffffffffffffffffffffff16815260200191505060405180910390f35b6104f1610927565b604051808273ffffffffffffffffffffffffffffffffffffffff1673ffffffffffffffffffffffffffffffffffffffff16815260200191505060405180910390f35b6105696004803603604081101561054957600080fd5b81019080803590602001909291908035906020019092919050505061093f565b005b6105a16004803603604081101561058157600080fd5b810190808035906020019092919080359060200190929190505050610f56565b005b73d0a1e359811322d97991e03f863a0c30c2cf029c81565b73b6b09fbffba6a5c4631e5f7b2e3ee183ac259c0d81565b73c4375b7de8af5a38a93548eb8453a498222c4ff281565b73863e41fe88288ebf3fcd91d8dbb679fb83fdfe1781565b73aaf64bfcc32d0f15873a02163e7e500671a4ffcd81565b7370b742b84a75aff6482953f7883fd7e70d3dbbac81565b7382cd6436c58a65e2d4263259eca5843d3d7e0e6581565b7325a01a05c188dacbcf1d61af55d4a5b4021f7eed81565b600080600080610796856107918973ffffffffffffffffffffffffffffffffffffffff16636f78ee0d8a6040518263ffffffff1660e01b815260040180828152602001915050602060405180830381600087803b1580156106c357600080fd5b505af11580156106d7573d6000803e3d6000fd5b505050506040513d60208110156106ed57600080fd5b81019080805190602001909291905050508a73ffffffffffffffffffffffffffffffffffffffff1663f7c8d6348b6040518263ffffffff1660e01b815260040180828152602001915050602060405180830381600087803b15801561075157600080fd5b505af1158015610765573d6000803e3d6000fd5b505050506040513d602081101561077b57600080fd5b8101908080519060200190929190505050611805565b611841565b90508673ffffffffffffffffffffffffffffffffffffffff1663ace237f56040518163ffffffff1660e01b8152600401602060405180830381600087803b1580156107e057600080fd5b505af11580156107f4573d6000803e3d6000fd5b505050506040513d602081101561080a57600080fd5b810190808051906020019092919050505073ffffffffffffffffffffffffffffffffffffffff166359e02dd76040518163ffffffff1660e01b81526004016040805180830381600087803b15801561086157600080fd5b505af1158015610875573d6000803e3d6000fd5b505050506040513d604081101561088b57600080fd5b81019080805190602001909291908051906020019092919050505080935081945050506108bb818460001c611889565b93505050509392505050565b73f4d791139ce033ad35db2b2201435fad668b1b6481565b73692f391bcc85cefce8c237c01e1f636bbd70ea4d81565b73eeeeeeeeeeeeeeeeeeeeeeeeeeeeeeeeeeeeeeee81565b7354b44c6b18fc0b4a1010b21d524c338d1f8065f681565b73a71937147b55deb8a530c7229c442fd3f31b7db281565b600073a71937147b55deb8a530c7229c442fd3f31b7db29050600073b6b09fbffba6a5c4631e5f7b2e3ee183ac259c0d905061098e73d0a1e359811322d97991e03f863a0c30c2cf029c6118c1565b6109ab73f4d791139ce033ad35db2b2201435fad668b1b646118c1565b6109c873c4375b7de8af5a38a93548eb8453a498222c4ff26118c1565b8173ffffffffffffffffffffffffffffffffffffffff1663440f19ba85856040518363ffffffff1660e01b81526004018083815260200182815260200192505050600060405180830381600087803b158015610a2357600080fd5b505af1158015610a37573d6000803e3d6000fd5b5050505073863e41fe88288ebf3fcd91d8dbb679fb83fdfe1773ffffffffffffffffffffffffffffffffffffffff166369a90514846040518263ffffffff1660e01b815260040180828152602001915050600060405180830381600087803b158015610aa257600080fd5b505af1158015610ab6573d6000803e3d6000fd5b505050507325a01a05c188dacbcf1d61af55d4a5b4021f7eed73ffffffffffffffffffffffffffffffffffffffff1663095ea7b373b6b09fbffba6a5c4631e5f7b2e3ee183ac259c0d7fffffffffffffffffffffffffffffffffffffffffffffffffffffffffffffffff6040518363ffffffff1660e01b8152600401808373ffffffffffffffffffffffffffffffffffffffff1673ffffffffffffffffffffffffffffffffffffffff16815260200182815260200192505050602060405180830381600087803b158015610b8957600080fd5b505af1158015610b9d573d6000803e3d6000fd5b505050506040513d6020811015610bb357600080fd5b81019080805190602001909291905050505060008173ffffffffffffffffffffffffffffffffffffffff1663a0712d68856040518263ffffffff1660e01b815260040180828152602001915050602060405180830381600087803b158015610c1a57600080fd5b505af1158015610c2e573d6000803e3d6000fd5b505050506040513d6020811015610c4457600080fd5b810190808051906020019092919050505014610cc8576040517f08c379a000000000000000000000000000000000000000000000000000000000815260040180806020018281038252600b8152602001807f4661696c6564204d696e7400000000000000000000000000000000000000000081525060200191505060405180910390fd5b60008173ffffffffffffffffffffffffffffffffffffffff166370a08231306040518263ffffffff1660e01b8152600401808273ffffffffffffffffffffffffffffffffffffffff1673ffffffffffffffffffffffffffffffffffffffff16815260200191505060206040518083038186803b158015610d4757600080fd5b505afa158015610d5b573d6000803e3d6000fd5b505050506040513d6020811015610d7157600080fd5b8101908080519060200190929190505050905073b6b09fbffba6a5c4631e5f7b2e3ee183ac259c0d73ffffffffffffffffffffffffffffffffffffffff1663a9059cbb33836040518363ffffffff1660e01b8152600401808373ffffffffffffffffffffffffffffffffffffffff1673ffffffffffffffffffffffffffffffffffffffff16815260200182815260200192505050602060405180830381600087803b158015610e1f57600080fd5b505af1158015610e33573d6000803e3d6000fd5b505050506040513d6020811015610e4957600080fd5b8101908080519060200190929190505050507370b742b84a75aff6482953f7883fd7e70d3dbbac73ffffffffffffffffffffffffffffffffffffffff16632ddab6d73386846040518463ffffffff1660e01b815260040180806020018573ffffffffffffffffffffffffffffffffffffffff1673ffffffffffffffffffffffffffffffffffffffff1681526020018481526020018381526020018281038252600d8152602001807f636470546f436f6d706f756e6400000000000000000000000000000000000000815250602001945050505050600060405180830381600087803b158015610f3757600080fd5b505af1158015610f4b573d6000803e3d6000fd5b505050505050505050565b600073a71937147b55deb8a530c7229c442fd3f31b7db29050600073b6b09fbffba6a5c4631e5f7b2e3ee183ac259c0d9050610fa573c4375b7de8af5a38a93548eb8453a498222c4ff26118c1565b610fc273aaf64bfcc32d0f15873a02163e7e500671a4ffcd6118c1565b610fdf73f4d791139ce033ad35db2b2201435fad668b1b646118c1565b610ffc73d0a1e359811322d97991e03f863a0c30c2cf029c6118c1565b600061101c8473b6b09fbffba6a5c4631e5f7b2e3ee183ac259c0d611ad9565b90508173ffffffffffffffffffffffffffffffffffffffff1663095ea7b373b6b09fbffba6a5c4631e5f7b2e3ee183ac259c0d7fffffffffffffffffffffffffffffffffffffffffffffffffffffffffffffffff6040518363ffffffff1660e01b8152600401808373ffffffffffffffffffffffffffffffffffffffff1673ffffffffffffffffffffffffffffffffffffffff16815260200182815260200192505050602060405180830381600087803b1580156110d957600080fd5b505af11580156110ed573d6000803e3d6000fd5b505050506040513d602081101561110357600080fd5b8101908080519060200190929190505050508173ffffffffffffffffffffffffffffffffffffffff166323b872dd3330846040518463ffffffff1660e01b8152600401808473ffffffffffffffffffffffffffffffffffffffff1673ffffffffffffffffffffffffffffffffffffffff1681526020018373ffffffffffffffffffffffffffffffffffffffff1673ffffffffffffffffffffffffffffffffffffffff1681526020018281526020019350505050602060405180830381600087803b1580156111d057600080fd5b505af11580156111e4573d6000803e3d6000fd5b505050506040513d60208110156111fa57600080fd5b81019080805190602001909291905050505060008273ffffffffffffffffffffffffffffffffffffffff1663852a12e3866040518263ffffffff1660e01b815260040180828152602001915050602060405180830381600087803b15801561126157600080fd5b505af1158015611275573d6000803e3d6000fd5b505050506040513d602081101561128b57600080fd5b81019080805190602001909291905050501461130f576040517f08c379a000000000000000000000000000000000000000000000000000000000815260040180806020018281038252600d8152602001807f52656564656d204661696c65640000000000000000000000000000000000000081525060200191505060405180910390fd5b73863e41fe88288ebf3fcd91d8dbb679fb83fdfe1773ffffffffffffffffffffffffffffffffffffffff1663db8b0a58856040518263ffffffff1660e01b815260040180828152602001915050600060405180830381600087803b15801561137657600080fd5b505af115801561138a573d6000803e3d6000fd5b50505050600061139b848787610663565b905060006113b1826113ac88611c11565b611889565b905060006113e973c4375b7de8af5a38a93548eb8453a498222c4ff273aaf64bfcc32d0f15873a02163e7e500671a4ffcd8486611d58565b90506113f5878361219e565b96506000611403878a6121b8565b9050808811156114f15773c4375b7de8af5a38a93548eb8453a498222c4ff273ffffffffffffffffffffffffffffffffffffffff1663a9059cbb336114488b8561219e565b6040518363ffffffff1660e01b8152600401808373ffffffffffffffffffffffffffffffffffffffff1673ffffffffffffffffffffffffffffffffffffffff16815260200182815260200192505050602060405180830381600087803b1580156114b157600080fd5b505af11580156114c5573d6000803e3d6000fd5b505050506040513d60208110156114db57600080fd5b8101908080519060200190929190505050508097505b8673ffffffffffffffffffffffffffffffffffffffff166373b381018a8a6040518363ffffffff1660e01b81526004018083815260200182815260200192505050600060405180830381600087803b15801561154c57600080fd5b505af1158015611560573d6000803e3d6000fd5b5050505073aaf64bfcc32d0f15873a02163e7e500671a4ffcd73ffffffffffffffffffffffffffffffffffffffff1663a9059cbb3373aaf64bfcc32d0f15873a02163e7e500671a4ffcd73ffffffffffffffffffffffffffffffffffffffff166370a08231306040518263ffffffff1660e01b8152600401808273ffffffffffffffffffffffffffffffffffffffff1673ffffffffffffffffffffffffffffffffffffffff16815260200191505060206040518083038186803b15801561162657600080fd5b505afa15801561163a573d6000803e3d6000fd5b505050506040513d602081101561165057600080fd5b81019080805190602001909291905050506040518363ffffffff1660e01b8152600401808373ffffffffffffffffffffffffffffffffffffffff1673ffffffffffffffffffffffffffffffffffffffff16815260200182815260200192505050602060405180830381600087803b1580156116ca57600080fd5b505af11580156116de573d6000803e3d6000fd5b505050506040513d60208110156116f457600080fd5b8101908080519060200190929190505050507370b742b84a75aff6482953f7883fd7e70d3dbbac73ffffffffffffffffffffffffffffffffffffffff16632ddab6d73386856040518463ffffffff1660e01b815260040180806020018573ffffffffffffffffffffffffffffffffffffffff1673ffffffffffffffffffffffffffffffffffffffff1681526020018481526020018381526020018281038252600c8152602001807f7265706179434450446562740000000000000000000000000000000000000000815250602001945050505050600060405180830381600087803b1580156117e257600080fd5b505af11580156117f6573d6000803e3d6000fd5b50505050505050505050505050565b600081611831611821856b033b2e3c9fd0803ce8000000612278565b6002858161182b57fe5b046122a4565b8161183857fe5b04905092915050565b60006b033b2e3c9fd0803ce800000061187961185d8585612278565b60026b033b2e3c9fd0803ce80000008161187357fe5b046122a4565b8161188057fe5b04905092915050565b6000816118b16118a185670de0b6b3a7640000612278565b600285816118ab57fe5b046122a4565b816118b857fe5b04905092915050565b60027fffffffffffffffffffffffffffffffffffffffffffffffffffffffffffffffff816118eb57fe5b048173ffffffffffffffffffffffffffffffffffffffff1663dd62ed3e33846040518363ffffffff1660e01b8152600401808373ffffffffffffffffffffffffffffffffffffffff1673ffffffffffffffffffffffffffffffffffffffff1681526020018273ffffffffffffffffffffffffffffffffffffffff1673ffffffffffffffffffffffffffffffffffffffff1681526020019250505060206040518083038186803b15801561199d57600080fd5b505afa1580156119b1573d6000803e3d6000fd5b505050506040513d60208110156119c757600080fd5b81019080805190602001909291905050501015611ad6578073ffffffffffffffffffffffffffffffffffffffff1663095ea7b373a71937147b55deb8a530c7229c442fd3f31b7db27fffffffffffffffffffffffffffffffffffffffffffffffffffffffffffffffff6040518363ffffffff1660e01b8152600401808373ffffffffffffffffffffffffffffffffffffffff1673ffffffffffffffffffffffffffffffffffffffff16815260200182815260200192505050602060405180830381600087803b158015611a9957600080fd5b505af1158015611aad573d6000803e3d6000fd5b505050506040513d6020811015611ac357600080fd5b8101908080519060200190929190505050505b50565b600080611b768460405180602001604052808673ffffffffffffffffffffffffffffffffffffffff1663bd6d894d6040518163ffffffff1660e01b8152600401602060405180830381600087803b158015611b3357600080fd5b505af1158015611b47573d6000803e3d6000fd5b505050506040513d6020811015611b5d57600080fd5b81019080805190602001909291905050508152506122be565b809350819250505060006003811115611b8b57fe5b816003811115611b9757fe5b14611c0a576040517f08c379a000000000000000000000000000000000000000000000000000000000815260040180806020018281038252600a8152602001807f4d617468206572726f720000000000000000000000000000000000000000000081525060200191505060405180910390fd5b5092915050565b600073692f391bcc85cefce8c237c01e1f636bbd70ea4d73ffffffffffffffffffffffffffffffffffffffff1663809a9e5573c4375b7de8af5a38a93548eb8453a498222c4ff273aaf64bfcc32d0f15873a02163e7e500671a4ffcd856040518463ffffffff1660e01b8152600401808473ffffffffffffffffffffffffffffffffffffffff1673ffffffffffffffffffffffffffffffffffffffff1681526020018373ffffffffffffffffffffffffffffffffffffffff1673ffffffffffffffffffffffffffffffffffffffff16815260200182815260200193505050506040805180830381600087803b158015611d0957600080fd5b505af1158015611d1d573d6000803e3d6000fd5b505050506040513d6040811015611d3357600080fd5b8101908080519060200190929190805190602001909291905050505080915050919050565b60008073692f391bcc85cefce8c237c01e1f636bbd70ea4d905060008173ffffffffffffffffffffffffffffffffffffffff1663809a9e558888886040518463ffffffff1660e01b8152600401808473ffffffffffffffffffffffffffffffffffffffff1673ffffffffffffffffffffffffffffffffffffffff1681526020018373ffffffffffffffffffffffffffffffffffffffff1673ffffffffffffffffffffffffffffffffffffffff16815260200182815260200193505050506040805180830381600087803b158015611e2e57600080fd5b505af1158015611e42573d6000803e3d6000fd5b505050506040513d6040811015611e5857600080fd5b8101908080519060200190929190805190602001909291905050509050809150508673ffffffffffffffffffffffffffffffffffffffff1663095ea7b38360006040518363ffffffff1660e01b8152600401808373ffffffffffffffffffffffffffffffffffffffff1673ffffffffffffffffffffffffffffffffffffffff16815260200182815260200192505050602060405180830381600087803b158015611f0157600080fd5b505af1158015611f15573d6000803e3d6000fd5b505050506040513d6020811015611f2b57600080fd5b8101908080519060200190929190505050611f4557600080fd5b8673ffffffffffffffffffffffffffffffffffffffff1663095ea7b383876040518363ffffffff1660e01b8152600401808373ffffffffffffffffffffffffffffffffffffffff1673ffffffffffffffffffffffffffffffffffffffff16815260200182815260200192505050602060405180830381600087803b158015611fcc57600080fd5b505af1158015611fe0573d6000803e3d6000fd5b505050506040513d6020811015611ff657600080fd5b810190808051906020019092919050505061201057600080fd5b8173ffffffffffffffffffffffffffffffffffffffff1663cb3c28c78887893089877354b44c6b18fc0b4a1010b21d524c338d1f8065f66040518863ffffffff1660e01b8152600401808873ffffffffffffffffffffffffffffffffffffffff1673ffffffffffffffffffffffffffffffffffffffff1681526020018781526020018673ffffffffffffffffffffffffffffffffffffffff1673ffffffffffffffffffffffffffffffffffffffff1681526020018573ffffffffffffffffffffffffffffffffffffffff1673ffffffffffffffffffffffffffffffffffffffff1681526020018481526020018381526020018273ffffffffffffffffffffffffffffffffffffffff1673ffffffffffffffffffffffffffffffffffffffff168152602001975050505050505050602060405180830381600087803b15801561215757600080fd5b505af115801561216b573d6000803e3d6000fd5b505050506040513d602081101561218157600080fd5b810190808051906020019092919050505092505050949350505050565b60008282840391508111156121b257600080fd5b92915050565b60008273ffffffffffffffffffffffffffffffffffffffff1663fdac0025836040518263ffffffff1660e01b815260040180828152602001915050608060405180830381600087803b15801561220d57600080fd5b505af1158015612221573d6000803e3d6000fd5b505050506040513d608081101561223757600080fd5b810190808051906020019092919080519060200190929190805190602001909291908051906020019092919050505090919250909150508091505092915050565b600080821480612295575082828385029250828161229257fe5b04145b61229e57600080fd5b92915050565b60008282840191508110156122b857600080fd5b92915050565b60008060006122cb612517565b6122d58686612321565b91509150600060038111156122e657fe5b8260038111156122f257fe5b146123085781600080905093509350505061231a565b60006123138261239d565b9350935050505b9250929050565b600061232b612517565b600080612340670de0b6b3a7640000876123bc565b915091506000600381111561235157fe5b82600381111561235d57fe5b14612381578160405180602001604052806000815250809050935093505050612396565b61238f81866000015161240f565b9350935050505b9250929050565b6000670de0b6b3a76400008260000151816123b457fe5b049050919050565b60008060008414156123d75760008080905091509150612408565b60008385029050838582816123e857fe5b04146123ff57600260008090509250925050612408565b60008192509250505b9250929050565b6000612419612517565b60008061242e86670de0b6b3a76400006123bc565b915091506000600381111561243f57fe5b82600381111561244b57fe5b1461246f5781604051806020016040528060008152508090509350935050506124dc565b60008061247c83886124e3565b915091506000600381111561248d57fe5b82600381111561249957fe5b146124bf57816040518060200160405280600081525080905095509550505050506124dc565b600060405180602001604052808381525080905095509550505050505b9250929050565b60008060008314156124ff576001600080905091509150612510565b600083858161250a57fe5b04915091505b9250929050565b604051806020016040528060008152509056fea165627a7a723058202b810b51219b747f281ffb0bfcd7c5f9750e3dad340e16fc8e2023088ece6bc00029",
  "source": "pragma solidity ^0.5.0;\n\nimport \"../DS/DSMath.sol\";\nimport \"../interfaces/CTokenInterface.sol\";\nimport \"../interfaces/TubInterface.sol\";\nimport \"../interfaces/KyberNetworkProxyInterface.sol\";\nimport \"../ActionLogger.sol\";\nimport \"./Exponential.sol\";\nimport \"./StupidExchange.sol\";\n\n/// @title CompoundProxy implements CDP and Compound direct interactions\ncontract CompoundProxy is DSMath, Exponential {\n    \n    // Kovan addresses\n    address public constant TUB_ADDRESS = 0xa71937147b55Deb8a530C7229C442Fd3F31b7db2;\n    address public constant WETH_ADDRESS = 0xd0A1E359811322d97991E03f863a0C30C2cF029C;\n    address public constant DAI_ADDRESS = 0xC4375B7De8af5a38a93548eb8453a498222C4fF2;\n    address public constant MKR_ADDRESS = 0xAaF64BFCC32d0F15873a02163e7E500671a4ffcD;\n    address public constant PETH_ADDRESS = 0xf4d791139cE033Ad35DB2B2201435fAd668B1b64;\n    address public constant KYBER_WRAPPER = 0x82CD6436c58A65E2D4263259EcA5843d3d7e0e65;\n    address public constant ETHER_ADDRESS = 0xEeeeeEeeeEeEeeEeEeEeeEEEeeeeEeeeeeeeEEeE;\n    address public constant CDAI_ADDRESS = 0xb6b09fBffBa6A5C4631e5F7B2e3Ee183aC259c0d;\n    address public constant LOGGER_ADDRESS = 0x70b742b84a75aFF6482953f7883Fd7E70d3dBbac;\n    address public constant WALLET_ID = 0x54b44C6B18fc0b4A1010B21d524c338D1f8065F6;\n    address public constant KYBER_INTERFACE = 0x692f391bCc85cefCe8C237C01e1f636BbD70EA4D;\n    address public constant COMPOUND_DAI_ADDRESS = 0x25a01a05C188DaCBCf1D61Af55D4a5B4021F7eeD;\n    address public constant STUPID_EXCHANGE = 0x863E41FE88288ebf3fcd91d8Dbb679fb83fdfE17;\n    \n    /// @notice It will draw Dai from Compound and repay part of the CDP debt\n    /// @dev User has to approve DSProxy to pull CDai before calling this\n    /// @param _cup Cdp id\n    /// @param _amount Amount of Dai that will be taken from Compound and put into CDP\n    function repayCDPDebt(bytes32 _cup, uint _amount) public {\n        TubInterface tub = TubInterface(TUB_ADDRESS);\n        CTokenInterface cDaiContract = CTokenInterface(CDAI_ADDRESS);\n        \n        approveTub(DAI_ADDRESS);\n        approveTub(MKR_ADDRESS);\n        approveTub(PETH_ADDRESS);\n        approveTub(WETH_ADDRESS);\n\n        // Calculate how many cDai tokens we need to pull for the Dai _amount\n        uint cAmount = getCTokenAmount(_amount, CDAI_ADDRESS);     \n\n        cDaiContract.approve(CDAI_ADDRESS, uint(-1));\n        cDaiContract.transferFrom(msg.sender, address(this), cAmount);\n        \n        require(cDaiContract.redeemUnderlying(_amount) == 0, \"Reedem Failed\");\n        \n        // REMOVE: USED ONLY ON KOVAN TO HANDLE DAI DIFFERENT TOKENS\n        StupidExchange(STUPID_EXCHANGE).getMakerDaiToken(_amount);\n\n        // Buy some Mkr to pay stability fee\n        uint mkrAmount = stabilityFeeInMkr(tub, _cup, _amount);\n        uint daiFee = wdiv(mkrAmount, estimatedDaiMkrPrice(_amount));\n        uint amountExchanged = exchangeToken(ERC20(DAI_ADDRESS), ERC20(MKR_ADDRESS), daiFee, mkrAmount);\n\n        _amount = sub(_amount, daiFee);\n\n        uint daiDebt = getDebt(tub, _cup);\n\n        if (_amount > daiDebt) {\n            ERC20(DAI_ADDRESS).transfer(msg.sender, sub(_amount, daiDebt));\n            _amount = daiDebt;\n        }\n        \n        tub.wipe(_cup, _amount);\n\n        ERC20(MKR_ADDRESS).transfer(msg.sender, ERC20(MKR_ADDRESS).balanceOf(address(this)));\n        ActionLogger(LOGGER_ADDRESS).logEvent('repayCDPDebt', msg.sender, mkrAmount, amountExchanged);\n    }\n    \n    /// @notice It will draw Dai from CDP and add it to Compound\n    /// @param _cup CDP id\n    /// @param _amount Amount of Dai drawn from the CDP and put into Compound\n    function cdpToCompound(bytes32 _cup, uint _amount) public {\n        TubInterface tub = TubInterface(TUB_ADDRESS);\n        CTokenInterface cDaiContract = CTokenInterface(CDAI_ADDRESS);\n\n        approveTub(WETH_ADDRESS);\n        approveTub(PETH_ADDRESS);\n        approveTub(DAI_ADDRESS);\n\n        tub.draw(_cup, _amount);\n        \n        StupidExchange(STUPID_EXCHANGE).getCompoundDaiToken(_amount);\n        \n        //cDai will try and pull Dai tokens from DSProxy, so approve it\n        ERC20(COMPOUND_DAI_ADDRESS).approve(CDAI_ADDRESS, uint(-1));\n        \n        require(cDaiContract.mint(_amount) == 0, \"Failed Mint\");\n        \n        uint cDaiMinted = cDaiContract.balanceOf(address(this));\n        \n        // transfer the cDai to the original sender\n        ERC20(CDAI_ADDRESS).transfer(msg.sender, cDaiMinted);\n        \n        ActionLogger(LOGGER_ADDRESS).logEvent('cdpToCompound', msg.sender, _amount, cDaiMinted);\n        \n    }\n\n    /// @notice Calculates how many cTokens you get for a _tokenAmount\n    function getCTokenAmount(uint _tokenAmount, address _tokeAddress) internal returns(uint cAmount) {\n        MathError error;\n        (error, cAmount) = divScalarByExpTruncate(_tokenAmount,\n             Exp({mantissa: CTokenInterface(_tokeAddress).exchangeRateCurrent()}));\n\n        require(error == MathError.NO_ERROR, \"Math error\");\n    }\n    \n    /// @notice Stability fee amount in Mkr\n    /// @param _tub Tub interface\n    /// @param _cup Id of the CDP\n    /// @param _daiRepay Amount of dai we are repaying\n    function stabilityFeeInMkr(TubInterface _tub, bytes32 _cup, uint _daiRepay) public returns (uint) {\n        bytes32 mkrPrice;\n        bool ok;\n\n        uint feeInDai = rmul(_daiRepay, rdiv(_tub.rap(_cup), _tub.tab(_cup)));\n\n        (mkrPrice, ok) = _tub.pep().peek();\n\n        return wdiv(feeInDai, uint(mkrPrice));\n    }\n    \n    /// @notice Returns expected rate for Dai -> Mkr conversion\n    /// @param _daiAmount Amount of Dai\n    function estimatedDaiMkrPrice(uint _daiAmount) internal returns (uint expectedRate) {\n        (expectedRate, ) = KyberNetworkProxyInterface(KYBER_INTERFACE).getExpectedRate(ERC20(DAI_ADDRESS), ERC20(MKR_ADDRESS), _daiAmount);\n    }\n    \n    /// @notice Approve a token if it's not already approved\n    /// @param _tokenAddress Address of the ERC20 token we want to approve\n    function approveTub(address _tokenAddress) internal {\n        if (ERC20(_tokenAddress).allowance(msg.sender, _tokenAddress) < (uint(-1) / 2)) {\n            ERC20(_tokenAddress).approve(TUB_ADDRESS, uint(-1));\n        }\n    }\n\n    /// @notice Returns current Dai debt of the CDP\n    /// @param _tub Tub interface\n    /// @param _cup Id of the CDP\n    function getDebt(TubInterface _tub, bytes32 _cup) internal returns (uint debt) {\n        ( , , debt, ) = _tub.cups(_cup);\n    }\n\n    /// @notice Exhcanged a token on kyber\n    function exchangeToken(ERC20 _sourceToken, ERC20 _destToken, uint _sourceAmount, uint _maxAmount) internal returns (uint destAmount) {\n        KyberNetworkProxyInterface _kyberNetworkProxy = KyberNetworkProxyInterface(KYBER_INTERFACE);\n\n        uint minRate;\n        (, minRate) = _kyberNetworkProxy.getExpectedRate(_sourceToken, _destToken, _sourceAmount);\n\n        require(_sourceToken.approve(address(_kyberNetworkProxy), 0));\n        require(_sourceToken.approve(address(_kyberNetworkProxy), _sourceAmount));\n\n        destAmount = _kyberNetworkProxy.trade(\n            _sourceToken,\n            _sourceAmount,\n            _destToken,\n            address(this),\n            _maxAmount,\n            minRate,\n            WALLET_ID\n        );\n    }\n}",
  "sourcePath": "/Users/nikolaklipa/Decenter/defisaver/cdpsaver-contracts/contracts/compound/CompoundProxy.sol",
  "compiler": {
    "name": "solc",
    "version": "0.5.7+commit.6da8b019.Emscripten.clang"
  },
  "schemaVersion": "3.0.9",
  "updatedAt": "2019-08-08T17:51:31.821Z",
  "devdoc": {
    "methods": {
      "cdpToCompound(bytes32,uint256)": {
        "params": {
          "_amount": "Amount of Dai drawn from the CDP and put into Compound",
          "_cup": "CDP id"
        }
      },
      "repayCDPDebt(bytes32,uint256)": {
        "details": "User has to approve DSProxy to pull CDai before calling this",
        "params": {
          "_amount": "Amount of Dai that will be taken from Compound and put into CDP",
          "_cup": "Cdp id"
        }
      },
      "stabilityFeeInMkr(address,bytes32,uint256)": {
        "params": {
          "_cup": "Id of the CDP",
          "_daiRepay": "Amount of dai we are repaying",
          "_tub": "Tub interface"
        }
      }
    },
    "title": "CompoundProxy implements CDP and Compound direct interactions"
  },
  "userdoc": {
    "methods": {
      "cdpToCompound(bytes32,uint256)": {
        "notice": "It will draw Dai from CDP and add it to Compound"
      },
      "repayCDPDebt(bytes32,uint256)": {
        "notice": "It will draw Dai from Compound and repay part of the CDP debt"
      },
      "stabilityFeeInMkr(address,bytes32,uint256)": {
        "notice": "Stability fee amount in Mkr"
      }
    }
  }
}