{
  "contractName": "CompoundAdvanced",
  "abi": [
    {
      "constant": true,
      "inputs": [],
      "name": "WALLET_ID",
      "outputs": [
        {
          "name": "",
          "type": "address"
        }
      ],
      "payable": false,
      "stateMutability": "view",
      "type": "function"
    },
    {
      "constant": false,
      "inputs": [
        {
          "name": "_suppliedAsset",
          "type": "address"
        },
        {
          "name": "_borrowedAsset",
          "type": "address"
        },
        {
          "name": "_underlyingSupply",
          "type": "address"
        },
        {
          "name": "_underlyingBorrow",
          "type": "address"
        },
        {
          "name": "_amount",
          "type": "uint256"
        }
      ],
      "name": "repay",
      "outputs": [],
      "payable": false,
      "stateMutability": "nonpayable",
      "type": "function"
    }
  ],
  "bytecode": "0x608060405234801561001057600080fd5b50611080806100206000396000f3fe608060405234801561001057600080fd5b50600436106100365760003560e01c8063d3661fa51461003b578063ebc27b0814610085575b600080fd5b610043610133565b604051808273ffffffffffffffffffffffffffffffffffffffff1673ffffffffffffffffffffffffffffffffffffffff16815260200191505060405180910390f35b610131600480360360a081101561009b57600080fd5b81019080803573ffffffffffffffffffffffffffffffffffffffff169060200190929190803573ffffffffffffffffffffffffffffffffffffffff169060200190929190803573ffffffffffffffffffffffffffffffffffffffff169060200190929190803573ffffffffffffffffffffffffffffffffffffffff1690602001909291908035906020019092919050505061014b565b005b7354b44c6b18fc0b4a1010b21d524c338d1f8065f681565b60008590506000859050600061016184896106c0565b90508273ffffffffffffffffffffffffffffffffffffffff1663095ea7b389836040518363ffffffff1660e01b8152600401808373ffffffffffffffffffffffffffffffffffffffff1673ffffffffffffffffffffffffffffffffffffffff16815260200182815260200192505050602060405180830381600087803b1580156101ea57600080fd5b505af11580156101fe573d6000803e3d6000fd5b505050506040513d602081101561021457600080fd5b8101908080519060200190929190505050508273ffffffffffffffffffffffffffffffffffffffff166323b872dd3330846040518463ffffffff1660e01b8152600401808473ffffffffffffffffffffffffffffffffffffffff1673ffffffffffffffffffffffffffffffffffffffff1681526020018373ffffffffffffffffffffffffffffffffffffffff1673ffffffffffffffffffffffffffffffffffffffff1681526020018281526020019350505050602060405180830381600087803b1580156102e157600080fd5b505af11580156102f5573d6000803e3d6000fd5b505050506040513d602081101561030b57600080fd5b81019080805190602001909291905050505060008373ffffffffffffffffffffffffffffffffffffffff1663852a12e3866040518263ffffffff1660e01b815260040180828152602001915050602060405180830381600087803b15801561037257600080fd5b505af1158015610386573d6000803e3d6000fd5b505050506040513d602081101561039c57600080fd5b810190808051906020019092919050505014610420576040517f08c379a000000000000000000000000000000000000000000000000000000000815260040180806020018281038252600d8152602001807f52656564656d204661696c65640000000000000000000000000000000000000081525060200191505060405180910390fd5b60008273ffffffffffffffffffffffffffffffffffffffff166317bfdfbc336040518263ffffffff1660e01b8152600401808273ffffffffffffffffffffffffffffffffffffffff1673ffffffffffffffffffffffffffffffffffffffff168152602001915050602060405180830381600087803b1580156104a157600080fd5b505af11580156104b5573d6000803e3d6000fd5b505050506040513d60208110156104cb57600080fd5b8101908080519060200190929190505050905060006104f4826104ef8a8a8a6107f8565b610919565b9050600061050489898486610959565b90508281111561057c576040517f08c379a000000000000000000000000000000000000000000000000000000000815260040180806020018281038252601a8152602001807f436f6e76657273696f6e206d757374206265207072656369736500000000000081525060200191505060405180910390fd5b60008573ffffffffffffffffffffffffffffffffffffffff16632608f81833846040518363ffffffff1660e01b8152600401808373ffffffffffffffffffffffffffffffffffffffff1673ffffffffffffffffffffffffffffffffffffffff16815260200182815260200192505050602060405180830381600087803b15801561060557600080fd5b505af1158015610619573d6000803e3d6000fd5b505050506040513d602081101561062f57600080fd5b8101908080519060200190929190505050146106b3576040517f08c379a000000000000000000000000000000000000000000000000000000000815260040180806020018281038252600c8152602001807f5265706179204661696c6564000000000000000000000000000000000000000081525060200191505060405180910390fd5b5050505050505050505050565b60008061075d8460405180602001604052808673ffffffffffffffffffffffffffffffffffffffff1663bd6d894d6040518163ffffffff1660e01b8152600401602060405180830381600087803b15801561071a57600080fd5b505af115801561072e573d6000803e3d6000fd5b505050506040513d602081101561074457600080fd5b8101908080519060200190929190505050815250610da2565b80935081925050506000600381111561077257fe5b81600381111561077e57fe5b146107f1576040517f08c379a000000000000000000000000000000000000000000000000000000000815260040180806020018281038252600a8152602001807f4d617468206572726f720000000000000000000000000000000000000000000081525060200191505060405180910390fd5b5092915050565b600073692f391bcc85cefce8c237c01e1f636bbd70ea4d73ffffffffffffffffffffffffffffffffffffffff1663809a9e558585856040518463ffffffff1660e01b8152600401808473ffffffffffffffffffffffffffffffffffffffff1673ffffffffffffffffffffffffffffffffffffffff1681526020018373ffffffffffffffffffffffffffffffffffffffff1673ffffffffffffffffffffffffffffffffffffffff16815260200182815260200193505050506040805180830381600087803b1580156108c857600080fd5b505af11580156108dc573d6000803e3d6000fd5b505050506040513d60408110156108f257600080fd5b81019080805190602001909291908051906020019092919050505050809150509392505050565b6000670de0b6b3a76400006109496109318585610e05565b6002670de0b6b3a76400008161094357fe5b04610e31565b8161095057fe5b04905092915050565b60008073692f391bcc85cefce8c237c01e1f636bbd70ea4d905060008173ffffffffffffffffffffffffffffffffffffffff1663809a9e558888886040518463ffffffff1660e01b8152600401808473ffffffffffffffffffffffffffffffffffffffff1673ffffffffffffffffffffffffffffffffffffffff1681526020018373ffffffffffffffffffffffffffffffffffffffff1673ffffffffffffffffffffffffffffffffffffffff16815260200182815260200193505050506040805180830381600087803b158015610a2f57600080fd5b505af1158015610a43573d6000803e3d6000fd5b505050506040513d6040811015610a5957600080fd5b8101908080519060200190929190805190602001909291905050509050809150508673ffffffffffffffffffffffffffffffffffffffff1663095ea7b38360006040518363ffffffff1660e01b8152600401808373ffffffffffffffffffffffffffffffffffffffff1673ffffffffffffffffffffffffffffffffffffffff16815260200182815260200192505050602060405180830381600087803b158015610b0257600080fd5b505af1158015610b16573d6000803e3d6000fd5b505050506040513d6020811015610b2c57600080fd5b8101908080519060200190929190505050610b4657600080fd5b8673ffffffffffffffffffffffffffffffffffffffff1663095ea7b383876040518363ffffffff1660e01b8152600401808373ffffffffffffffffffffffffffffffffffffffff1673ffffffffffffffffffffffffffffffffffffffff16815260200182815260200192505050602060405180830381600087803b158015610bcd57600080fd5b505af1158015610be1573d6000803e3d6000fd5b505050506040513d6020811015610bf757600080fd5b8101908080519060200190929190505050610c1157600080fd5b8173ffffffffffffffffffffffffffffffffffffffff1663cb3c28c78887893389877354b44c6b18fc0b4a1010b21d524c338d1f8065f66040518863ffffffff1660e01b8152600401808873ffffffffffffffffffffffffffffffffffffffff1673ffffffffffffffffffffffffffffffffffffffff1681526020018781526020018673ffffffffffffffffffffffffffffffffffffffff1673ffffffffffffffffffffffffffffffffffffffff1681526020018573ffffffffffffffffffffffffffffffffffffffff1673ffffffffffffffffffffffffffffffffffffffff1681526020018481526020018381526020018273ffffffffffffffffffffffffffffffffffffffff1673ffffffffffffffffffffffffffffffffffffffff168152602001975050505050505050602060405180830381600087803b158015610d5857600080fd5b505af1158015610d6c573d6000803e3d6000fd5b505050506040513d6020811015610d8257600080fd5b810190808051906020019092919050505092508292505050949350505050565b6000806000610daf611041565b610db98686610e4b565b9150915060006003811115610dca57fe5b826003811115610dd657fe5b14610dec57816000809050935093505050610dfe565b6000610df782610ec7565b9350935050505b9250929050565b600080821480610e225750828283850292508281610e1f57fe5b04145b610e2b57600080fd5b92915050565b6000828284019150811015610e4557600080fd5b92915050565b6000610e55611041565b600080610e6a670de0b6b3a764000087610ee6565b9150915060006003811115610e7b57fe5b826003811115610e8757fe5b14610eab578160405180602001604052806000815250809050935093505050610ec0565b610eb9818660000151610f39565b9350935050505b9250929050565b6000670de0b6b3a7640000826000015181610ede57fe5b049050919050565b6000806000841415610f015760008080905091509150610f32565b6000838502905083858281610f1257fe5b0414610f2957600260008090509250925050610f32565b60008192509250505b9250929050565b6000610f43611041565b600080610f5886670de0b6b3a7640000610ee6565b9150915060006003811115610f6957fe5b826003811115610f7557fe5b14610f99578160405180602001604052806000815250809050935093505050611006565b600080610fa6838861100d565b9150915060006003811115610fb757fe5b826003811115610fc357fe5b14610fe95781604051806020016040528060008152508090509550955050505050611006565b600060405180602001604052808381525080905095509550505050505b9250929050565b600080600083141561102957600160008090509150915061103a565b600083858161103457fe5b04915091505b9250929050565b604051806020016040528060008152509056fea165627a7a723058209ca3b8ae6690cdf23677ee674b7f98b0d685a068d3ba0a8de999205993e984590029",
  "source": "pragma solidity ^0.5.0;\n\nimport \"../interfaces/CTokenInterface.sol\";\nimport \"../interfaces/KyberNetworkProxyInterface.sol\";\nimport \"./Exponential.sol\";\nimport \"../DS/DSMath.sol\";\n\ncontract CompoundAdvanced is Exponential, DSMath {\n\n    address public constant WALLET_ID = 0x54b44C6B18fc0b4A1010B21d524c338D1f8065F6;\n    address constant KYBER_INTERFACE = 0x692f391bCc85cefCe8C237C01e1f636BbD70EA4D;\n\n\n    /// @notice Takes out an asset which a user supplies, converts and pays the debt\n    function repay(address _suppliedAsset, address _borrowedAsset, address _underlyingSupply, address _underlyingBorrow, uint _amount) public {\n        CTokenInterface cSuppliedContract = CTokenInterface(_suppliedAsset);\n        CTokenInterface cBorrowedContract = CTokenInterface(_borrowedAsset);\n\n        uint cAmount = getCTokenAmount(_amount, _suppliedAsset);   \n\n        cSuppliedContract.approve(_suppliedAsset, cAmount);\n        cSuppliedContract.transferFrom(msg.sender, address(this), cAmount);\n\n        //TODO: how much can we reedem\n        require(cSuppliedContract.redeemUnderlying(_amount) == 0, \"Reedem Failed\");\n\n        uint borrowAmount = cBorrowedContract.borrowBalanceCurrent(msg.sender);\n\n        //TODO : check this\n        uint debtInSupplyToken = wmul(borrowAmount, estimatedSourceTokenPrice(_underlyingSupply, _underlyingBorrow, _amount));\n\n        uint amountExchanged = exchangeToken(ERC20(_underlyingSupply), ERC20(_underlyingBorrow), debtInSupplyToken, borrowAmount);\n\n        require(amountExchanged <= borrowAmount, \"Conversion must be precise\");\n\n        require(cBorrowedContract.repayBorrowBehalf(msg.sender, amountExchanged) == 0, \"Repay Failed\");\n    }\n\n    function exchangeToken(ERC20 _sourceToken, ERC20 _destToken, uint _sourceAmount, uint _maxAmount) internal returns (uint destAmount) {\n        KyberNetworkProxyInterface _kyberNetworkProxy = KyberNetworkProxyInterface(KYBER_INTERFACE);\n\n        uint minRate;\n        (, minRate) = _kyberNetworkProxy.getExpectedRate(_sourceToken, _destToken, _sourceAmount);\n\n        require(_sourceToken.approve(address(_kyberNetworkProxy), 0));\n        require(_sourceToken.approve(address(_kyberNetworkProxy), _sourceAmount));\n\n        destAmount = _kyberNetworkProxy.trade(\n            _sourceToken,\n            _sourceAmount,\n            _destToken,\n            msg.sender,\n            _maxAmount,\n            minRate,\n            WALLET_ID\n        );\n\n        return destAmount;\n    }\n\n    /// @notice Returns expected rate for Eth -> Dai conversion\n    /// @param _amount Amount of Ether\n    function estimatedSourceTokenPrice(address _source, address _dest, uint _amount) internal returns (uint expectedRate) {\n        (expectedRate, ) = KyberNetworkProxyInterface(KYBER_INTERFACE).getExpectedRate(ERC20(_source), ERC20(_dest), _amount);\n    }\n\n    /// @notice Calculates how many cTokens you get for a _tokenAmount\n    function getCTokenAmount(uint _tokenAmount, address _tokeAddress) internal returns(uint cAmount) {\n        MathError error;\n        (error, cAmount) = divScalarByExpTruncate(_tokenAmount,\n             Exp({mantissa: CTokenInterface(_tokeAddress).exchangeRateCurrent()}));\n\n        require(error == MathError.NO_ERROR, \"Math error\");\n    }\n}",
  "sourcePath": "/Users/nikolaklipa/Decenter/defisaver/cdpsaver-contracts/contracts/compound/CompoundAdvanced.sol",
  "compiler": {
    "name": "solc",
    "version": "0.5.7+commit.6da8b019.Emscripten.clang"
  },
  "schemaVersion": "3.0.9",
  "updatedAt": "2019-08-08T17:51:31.815Z",
  "devdoc": {
    "methods": {}
  },
  "userdoc": {
    "methods": {
      "repay(address,address,address,address,uint256)": {
        "notice": "Takes out an asset which a user supplies, converts and pays the debt"
      }
    }
  }
}