{
  "contractName": "CompoundSavingsProtocol",
  "abi": [
    {
      "constant": true,
      "inputs": [],
      "name": "CDAI_ADDRESS",
      "outputs": [
        {
          "name": "",
          "type": "address"
        }
      ],
      "payable": false,
      "stateMutability": "view",
      "type": "function"
    },
    {
      "constant": true,
      "inputs": [],
      "name": "MAKER_DAI_ADDRESS",
      "outputs": [
        {
          "name": "",
          "type": "address"
        }
      ],
      "payable": false,
      "stateMutability": "view",
      "type": "function"
    },
    {
      "constant": true,
      "inputs": [],
      "name": "savingsProxy",
      "outputs": [
        {
          "name": "",
          "type": "address"
        }
      ],
      "payable": false,
      "stateMutability": "view",
      "type": "function"
    },
    {
      "constant": true,
      "inputs": [],
      "name": "cDaiContract",
      "outputs": [
        {
          "name": "",
          "type": "address"
        }
      ],
      "payable": false,
      "stateMutability": "view",
      "type": "function"
    },
    {
      "inputs": [
        {
          "name": "_savingsProxy",
          "type": "address"
        }
      ],
      "payable": false,
      "stateMutability": "nonpayable",
      "type": "constructor"
    },
    {
      "constant": false,
      "inputs": [
        {
          "name": "_user",
          "type": "address"
        },
        {
          "name": "_amount",
          "type": "uint256"
        }
      ],
      "name": "deposit",
      "outputs": [],
      "payable": false,
      "stateMutability": "nonpayable",
      "type": "function"
    },
    {
      "constant": false,
      "inputs": [
        {
          "name": "_user",
          "type": "address"
        },
        {
          "name": "_amount",
          "type": "uint256"
        }
      ],
      "name": "withdraw",
      "outputs": [],
      "payable": false,
      "stateMutability": "nonpayable",
      "type": "function"
    }
  ],
  "bytecode": "0x608060405234801561001057600080fd5b50604051602080610fcf833981018060405261002f91908101906100de565b73f5dce57282a584d2746faf1593d3121fcac444dc6000806101000a81548173ffffffffffffffffffffffffffffffffffffffff021916908373ffffffffffffffffffffffffffffffffffffffff16021790555080600160006101000a81548173ffffffffffffffffffffffffffffffffffffffff021916908373ffffffffffffffffffffffffffffffffffffffff16021790555050610139565b60006100d68251610107565b905092915050565b6000602082840312156100f057600080fd5b60006100fe848285016100ca565b91505092915050565b600061011282610119565b9050919050565b600073ffffffffffffffffffffffffffffffffffffffff82169050919050565b610e87806101486000396000f3fe608060405234801561001057600080fd5b50600436106100625760003560e01c80630531b2ad1461006757806347e7ef24146100855780639da779e9146100a1578063a683668c146100bf578063edb6bff4146100dd578063f3fef3a3146100fb575b600080fd5b61006f610117565b60405161007c9190610ca3565b60405180910390f35b61009f600480360361009a9190810190610b68565b61012f565b005b6100a961054e565b6040516100b69190610ca3565b60405180910390f35b6100c7610566565b6040516100d49190610ca3565b60405180910390f35b6100e561058c565b6040516100f29190610d1e565b60405180910390f35b61011560048036036101109190810190610b68565b6105b1565b005b73f5dce57282a584d2746faf1593d3121fcac444dc81565b600160009054906101000a900473ffffffffffffffffffffffffffffffffffffffff1673ffffffffffffffffffffffffffffffffffffffff163373ffffffffffffffffffffffffffffffffffffffff161461018957600080fd5b7389d24a6b4ccb1b6faa2625fe562bdd9a2326035973ffffffffffffffffffffffffffffffffffffffff166323b872dd8330846040518463ffffffff1660e01b81526004016101da93929190610cbe565b602060405180830381600087803b1580156101f457600080fd5b505af1158015610208573d6000803e3d6000fd5b505050506040513d601f19601f8201168201806040525061022c9190810190610ba4565b61023557600080fd5b7389d24a6b4ccb1b6faa2625fe562bdd9a2326035973ffffffffffffffffffffffffffffffffffffffff1663095ea7b373f5dce57282a584d2746faf1593d3121fcac444dc7fffffffffffffffffffffffffffffffffffffffffffffffffffffffffffffffff6040518363ffffffff1660e01b81526004016102b8929190610cf5565b602060405180830381600087803b1580156102d257600080fd5b505af11580156102e6573d6000803e3d6000fd5b505050506040513d601f19601f8201168201806040525061030a9190810190610ba4565b5060008060009054906101000a900473ffffffffffffffffffffffffffffffffffffffff1673ffffffffffffffffffffffffffffffffffffffff1663a0712d68836040518263ffffffff1660e01b81526004016103679190610d79565b602060405180830381600087803b15801561038157600080fd5b505af1158015610395573d6000803e3d6000fd5b505050506040513d601f19601f820116820180604052506103b99190810190610bcd565b146103f9576040517f08c379a00000000000000000000000000000000000000000000000000000000081526004016103f090610d39565b60405180910390fd5b60008060009054906101000a900473ffffffffffffffffffffffffffffffffffffffff1673ffffffffffffffffffffffffffffffffffffffff166370a08231306040518263ffffffff1660e01b81526004016104559190610ca3565b60206040518083038186803b15801561046d57600080fd5b505afa158015610481573d6000803e3d6000fd5b505050506040513d601f19601f820116820180604052506104a59190810190610bcd565b905073f5dce57282a584d2746faf1593d3121fcac444dc73ffffffffffffffffffffffffffffffffffffffff1663a9059cbb84836040518363ffffffff1660e01b81526004016104f6929190610cf5565b602060405180830381600087803b15801561051057600080fd5b505af1158015610524573d6000803e3d6000fd5b505050506040513d601f19601f820116820180604052506105489190810190610ba4565b50505050565b7389d24a6b4ccb1b6faa2625fe562bdd9a2326035981565b600160009054906101000a900473ffffffffffffffffffffffffffffffffffffffff1681565b6000809054906101000a900473ffffffffffffffffffffffffffffffffffffffff1681565b600160009054906101000a900473ffffffffffffffffffffffffffffffffffffffff1673ffffffffffffffffffffffffffffffffffffffff163373ffffffffffffffffffffffffffffffffffffffff161461060b57600080fd5b73f5dce57282a584d2746faf1593d3121fcac444dc73ffffffffffffffffffffffffffffffffffffffff166323b872dd833073f5dce57282a584d2746faf1593d3121fcac444dc73ffffffffffffffffffffffffffffffffffffffff166370a08231876040518263ffffffff1660e01b815260040161068a9190610ca3565b60206040518083038186803b1580156106a257600080fd5b505afa1580156106b6573d6000803e3d6000fd5b505050506040513d601f19601f820116820180604052506106da9190810190610bcd565b6040518463ffffffff1660e01b81526004016106f893929190610cbe565b602060405180830381600087803b15801561071257600080fd5b505af1158015610726573d6000803e3d6000fd5b505050506040513d601f19601f8201168201806040525061074a9190810190610ba4565b61075357600080fd5b73f5dce57282a584d2746faf1593d3121fcac444dc73ffffffffffffffffffffffffffffffffffffffff1663095ea7b36000809054906101000a900473ffffffffffffffffffffffffffffffffffffffff167fffffffffffffffffffffffffffffffffffffffffffffffffffffffffffffffff6040518363ffffffff1660e01b81526004016107e3929190610cf5565b602060405180830381600087803b1580156107fd57600080fd5b505af1158015610811573d6000803e3d6000fd5b505050506040513d601f19601f820116820180604052506108359190810190610ba4565b5060008060009054906101000a900473ffffffffffffffffffffffffffffffffffffffff1673ffffffffffffffffffffffffffffffffffffffff1663852a12e3836040518263ffffffff1660e01b81526004016108929190610d79565b602060405180830381600087803b1580156108ac57600080fd5b505af11580156108c0573d6000803e3d6000fd5b505050506040513d601f19601f820116820180604052506108e49190810190610bcd565b14610924576040517f08c379a000000000000000000000000000000000000000000000000000000000815260040161091b90610d59565b60405180910390fd5b600073f5dce57282a584d2746faf1593d3121fcac444dc73ffffffffffffffffffffffffffffffffffffffff166370a08231306040518263ffffffff1660e01b81526004016109739190610ca3565b60206040518083038186803b15801561098b57600080fd5b505afa15801561099f573d6000803e3d6000fd5b505050506040513d601f19601f820116820180604052506109c39190810190610bcd565b90506000811115610a715773f5dce57282a584d2746faf1593d3121fcac444dc73ffffffffffffffffffffffffffffffffffffffff1663a9059cbb84836040518363ffffffff1660e01b8152600401610a1d929190610cf5565b602060405180830381600087803b158015610a3757600080fd5b505af1158015610a4b573d6000803e3d6000fd5b505050506040513d601f19601f82011682018060405250610a6f9190810190610ba4565b505b7389d24a6b4ccb1b6faa2625fe562bdd9a2326035973ffffffffffffffffffffffffffffffffffffffff1663a9059cbb84846040518363ffffffff1660e01b8152600401610ac0929190610cf5565b602060405180830381600087803b158015610ada57600080fd5b505af1158015610aee573d6000803e3d6000fd5b505050506040513d601f19601f82011682018060405250610b129190810190610ba4565b50505050565b6000610b248235610de1565b905092915050565b6000610b388251610df3565b905092915050565b6000610b4c8235610e1f565b905092915050565b6000610b608251610e1f565b905092915050565b60008060408385031215610b7b57600080fd5b6000610b8985828601610b18565b9250506020610b9a85828601610b40565b9150509250929050565b600060208284031215610bb657600080fd5b6000610bc484828501610b2c565b91505092915050565b600060208284031215610bdf57600080fd5b6000610bed84828501610b54565b91505092915050565b610bff81610da5565b82525050565b610c0e81610e29565b82525050565b6000610c21600b83610d94565b91507f4661696c6564204d696e740000000000000000000000000000000000000000006000830152602082019050919050565b6000610c61600d83610d94565b91507f52656564656d204661696c6564000000000000000000000000000000000000006000830152602082019050919050565b610c9d81610dd7565b82525050565b6000602082019050610cb86000830184610bf6565b92915050565b6000606082019050610cd36000830186610bf6565b610ce06020830185610bf6565b610ced6040830184610c94565b949350505050565b6000604082019050610d0a6000830185610bf6565b610d176020830184610c94565b9392505050565b6000602082019050610d336000830184610c05565b92915050565b60006020820190508181036000830152610d5281610c14565b9050919050565b60006020820190508181036000830152610d7281610c54565b9050919050565b6000602082019050610d8e6000830184610c94565b92915050565b600082825260208201905092915050565b6000610db082610db7565b9050919050565b600073ffffffffffffffffffffffffffffffffffffffff82169050919050565b6000819050919050565b6000610dec82610dff565b9050919050565b60008115159050919050565b600073ffffffffffffffffffffffffffffffffffffffff82169050919050565b6000819050919050565b6000610e3482610e3b565b9050919050565b6000610e4682610db7565b905091905056fea265627a7a72305820a3de6476d2e2afb8094f38f19363b212eed92c2bc2a2416f208c6a67f0fc02e36c6578706572696d656e74616cf50037",
  "source": "pragma solidity ^0.5.0;\npragma experimental ABIEncoderV2;\n\nimport \"../ProtocolInterface.sol\";\nimport \"../../interfaces/CTokenInterface.sol\";\nimport \"../../compound/Exponential.sol\";\nimport \"../../compound/StupidExchange.sol\";\nimport \"../../interfaces/ERC20.sol\";\n\ncontract CompoundSavingsProtocol is ProtocolInterface, Exponential {\n\n    // kovan\n    // address public constant MAKER_DAI_ADDRESS = 0xC4375B7De8af5a38a93548eb8453a498222C4fF2;\n    // address public constant CDAI_ADDRESS = 0xb6b09fBffBa6A5C4631e5F7B2e3Ee183aC259c0d;\n    // address public constant COMPOUND_DAI_ADDRESS = 0x25a01a05C188DaCBCf1D61Af55D4a5B4021F7eeD;\n    // address public constant STUPID_EXCHANGE = 0x863E41FE88288ebf3fcd91d8Dbb679fb83fdfE17;\n\n    // mainnet\n    address public constant MAKER_DAI_ADDRESS = 0x89d24A6b4CcB1B6fAA2625fE562bDD9a23260359;\n    address public constant CDAI_ADDRESS = 0xF5DCe57282A584D2746FaF1593d3121Fcac444dC;\n\n\n    CTokenInterface public cDaiContract;\n    address public savingsProxy;\n\n    constructor(address _savingsProxy) public {\n        cDaiContract = CTokenInterface(CDAI_ADDRESS);\n        savingsProxy = _savingsProxy;\n    }\n\n    function deposit(address _user, uint _amount) public {\n        require(msg.sender == savingsProxy);\n        // get dai from user\n        require(ERC20(MAKER_DAI_ADDRESS).transferFrom(_user, address(this), _amount));\n\n        // // REMOVE: USED ONLY ON KOVAN TO HANDLE DAI DIFFERENT TOKENS\n        // StupidExchange(STUPID_EXCHANGE).getCompoundDaiToken(_amount);\n        // // approve dai to compound\n        // ERC20(COMPOUND_DAI_ADDRESS).approve(CDAI_ADDRESS, uint(-1));\n\n        // mainnet only\n        ERC20(MAKER_DAI_ADDRESS).approve(CDAI_ADDRESS, uint(-1));\n\n        // mint cDai\n        require(cDaiContract.mint(_amount) == 0, \"Failed Mint\");\n        // balance should be equal to cDai minted\n        uint cDaiMinted = cDaiContract.balanceOf(address(this));\n        // return cDai to user\n        ERC20(CDAI_ADDRESS).transfer(_user, cDaiMinted);\n    }\n\n    function withdraw(address _user, uint _amount) public {\n        require(msg.sender == savingsProxy);\n        // transfer all users balance to this contract\n        require(ERC20(CDAI_ADDRESS).transferFrom(_user, address(this), ERC20(CDAI_ADDRESS).balanceOf(_user)));\n        // approve cDai to compound contract\n        ERC20(CDAI_ADDRESS).approve(address(cDaiContract), uint(-1));\n        // get dai from cDai contract\n        require(cDaiContract.redeemUnderlying(_amount) == 0, \"Reedem Failed\");\n\n        // REMOVE: USED ONLY ON KOVAN TO HANDLE DAI DIFFERENT TOKENS\n        // StupidExchange(STUPID_EXCHANGE).getMakerDaiToken(_amount);\n\n        // return to user balance we didn't spend\n        uint cDaiBalance = ERC20(CDAI_ADDRESS).balanceOf(address(this));\n        if (cDaiBalance > 0) {\n            ERC20(CDAI_ADDRESS).transfer(_user, cDaiBalance);\n        }\n        // return dai we have to user\n        ERC20(MAKER_DAI_ADDRESS).transfer(_user, _amount);\n    }\n}\n",
  "sourcePath": "/Users/nikolaklipa/Decenter/defisaver/cdpsaver-contracts/contracts/savings/compound/CompoundSavingsProtocol.sol",
  "compiler": {
    "name": "solc",
    "version": "0.5.7+commit.6da8b019.Emscripten.clang"
  },
  "schemaVersion": "3.0.9",
  "updatedAt": "2019-08-08T19:13:24.732Z",
  "devdoc": {
    "methods": {}
  },
  "userdoc": {
    "methods": {}
  }
}