{
  "contractName": "CompoundSavingsProtocol",
  "abi": [
    {
      "constant": true,
      "inputs": [],
      "name": "WETH_ADDRESS",
      "outputs": [
        {
          "name": "",
          "type": "address"
        }
      ],
      "payable": false,
      "stateMutability": "view",
      "type": "function"
    },
    {
      "constant": true,
      "inputs": [],
      "name": "CDAI_ADDRESS",
      "outputs": [
        {
          "name": "",
          "type": "address"
        }
      ],
      "payable": false,
      "stateMutability": "view",
      "type": "function"
    },
    {
      "constant": false,
      "inputs": [
        {
          "name": "owner_",
          "type": "address"
        }
      ],
      "name": "setOwner",
      "outputs": [],
      "payable": false,
      "stateMutability": "nonpayable",
      "type": "function"
    },
    {
      "constant": true,
      "inputs": [],
      "name": "PIP_INTERFACE_ADDRESS",
      "outputs": [
        {
          "name": "",
          "type": "address"
        }
      ],
      "payable": false,
      "stateMutability": "view",
      "type": "function"
    },
    {
      "constant": true,
      "inputs": [],
      "name": "KYBER_ETH_ADDRESS",
      "outputs": [
        {
          "name": "",
          "type": "address"
        }
      ],
      "payable": false,
      "stateMutability": "view",
      "type": "function"
    },
    {
      "constant": true,
      "inputs": [],
      "name": "OTC_ADDRESS",
      "outputs": [
        {
          "name": "",
          "type": "address"
        }
      ],
      "payable": false,
      "stateMutability": "view",
      "type": "function"
    },
    {
      "constant": true,
      "inputs": [],
      "name": "IDAI_ADDRESS",
      "outputs": [
        {
          "name": "",
          "type": "address"
        }
      ],
      "payable": false,
      "stateMutability": "view",
      "type": "function"
    },
    {
      "constant": true,
      "inputs": [],
      "name": "GAS_TOKEN_INTERFACE_ADDRESS",
      "outputs": [
        {
          "name": "",
          "type": "address"
        }
      ],
      "payable": false,
      "stateMutability": "view",
      "type": "function"
    },
    {
      "constant": true,
      "inputs": [],
      "name": "VOX_ADDRESS",
      "outputs": [
        {
          "name": "",
          "type": "address"
        }
      ],
      "payable": false,
      "stateMutability": "view",
      "type": "function"
    },
    {
      "constant": true,
      "inputs": [],
      "name": "ETH2DAI_WRAPPER",
      "outputs": [
        {
          "name": "",
          "type": "address"
        }
      ],
      "payable": false,
      "stateMutability": "view",
      "type": "function"
    },
    {
      "constant": true,
      "inputs": [],
      "name": "STUPID_EXCHANGE",
      "outputs": [
        {
          "name": "",
          "type": "address"
        }
      ],
      "payable": false,
      "stateMutability": "view",
      "type": "function"
    },
    {
      "constant": true,
      "inputs": [],
      "name": "PROXY_REGISTRY_INTERFACE_ADDRESS",
      "outputs": [
        {
          "name": "",
          "type": "address"
        }
      ],
      "payable": false,
      "stateMutability": "view",
      "type": "function"
    },
    {
      "constant": false,
      "inputs": [
        {
          "name": "authority_",
          "type": "address"
        }
      ],
      "name": "setAuthority",
      "outputs": [],
      "payable": false,
      "stateMutability": "nonpayable",
      "type": "function"
    },
    {
      "constant": true,
      "inputs": [],
      "name": "MKR_ADDRESS",
      "outputs": [
        {
          "name": "",
          "type": "address"
        }
      ],
      "payable": false,
      "stateMutability": "view",
      "type": "function"
    },
    {
      "constant": true,
      "inputs": [],
      "name": "FACTORY_ADDRESS",
      "outputs": [
        {
          "name": "",
          "type": "address"
        }
      ],
      "payable": false,
      "stateMutability": "view",
      "type": "function"
    },
    {
      "constant": true,
      "inputs": [],
      "name": "owner",
      "outputs": [
        {
          "name": "",
          "type": "address"
        }
      ],
      "payable": false,
      "stateMutability": "view",
      "type": "function"
    },
    {
      "constant": true,
      "inputs": [],
      "name": "LOGGER_ADDRESS",
      "outputs": [
        {
          "name": "",
          "type": "address"
        }
      ],
      "payable": false,
      "stateMutability": "view",
      "type": "function"
    },
    {
      "constant": true,
      "inputs": [],
      "name": "MAKER_DAI_ADDRESS",
      "outputs": [
        {
          "name": "",
          "type": "address"
        }
      ],
      "payable": false,
      "stateMutability": "view",
      "type": "function"
    },
    {
      "constant": true,
      "inputs": [],
      "name": "savingsProxy",
      "outputs": [
        {
          "name": "",
          "type": "address"
        }
      ],
      "payable": false,
      "stateMutability": "view",
      "type": "function"
    },
    {
      "constant": true,
      "inputs": [],
      "name": "KYBER_WRAPPER",
      "outputs": [
        {
          "name": "",
          "type": "address"
        }
      ],
      "payable": false,
      "stateMutability": "view",
      "type": "function"
    },
    {
      "constant": true,
      "inputs": [],
      "name": "authority",
      "outputs": [
        {
          "name": "",
          "type": "address"
        }
      ],
      "payable": false,
      "stateMutability": "view",
      "type": "function"
    },
    {
      "constant": true,
      "inputs": [],
      "name": "COMPOUND_DAI_ADDRESS",
      "outputs": [
        {
          "name": "",
          "type": "address"
        }
      ],
      "payable": false,
      "stateMutability": "view",
      "type": "function"
    },
    {
      "constant": true,
      "inputs": [],
      "name": "UNISWAP_FACTORY",
      "outputs": [
        {
          "name": "",
          "type": "address"
        }
      ],
      "payable": false,
      "stateMutability": "view",
      "type": "function"
    },
    {
      "constant": true,
      "inputs": [],
      "name": "PETH_ADDRESS",
      "outputs": [
        {
          "name": "",
          "type": "address"
        }
      ],
      "payable": false,
      "stateMutability": "view",
      "type": "function"
    },
    {
      "constant": true,
      "inputs": [],
      "name": "KYBER_INTERFACE",
      "outputs": [
        {
          "name": "",
          "type": "address"
        }
      ],
      "payable": false,
      "stateMutability": "view",
      "type": "function"
    },
    {
      "constant": true,
      "inputs": [],
      "name": "WALLET_ID",
      "outputs": [
        {
          "name": "",
          "type": "address"
        }
      ],
      "payable": false,
      "stateMutability": "view",
      "type": "function"
    },
    {
      "constant": true,
      "inputs": [],
      "name": "SOLO_MARGIN_ADDRESS",
      "outputs": [
        {
          "name": "",
          "type": "address"
        }
      ],
      "payable": false,
      "stateMutability": "view",
      "type": "function"
    },
    {
      "constant": true,
      "inputs": [],
      "name": "UNISWAP_WRAPPER",
      "outputs": [
        {
          "name": "",
          "type": "address"
        }
      ],
      "payable": false,
      "stateMutability": "view",
      "type": "function"
    },
    {
      "constant": true,
      "inputs": [],
      "name": "cDaiContract",
      "outputs": [
        {
          "name": "",
          "type": "address"
        }
      ],
      "payable": false,
      "stateMutability": "view",
      "type": "function"
    },
    {
      "constant": true,
      "inputs": [],
      "name": "TUB_ADDRESS",
      "outputs": [
        {
          "name": "",
          "type": "address"
        }
      ],
      "payable": false,
      "stateMutability": "view",
      "type": "function"
    },
    {
      "inputs": [],
      "payable": false,
      "stateMutability": "nonpayable",
      "type": "constructor"
    },
    {
      "anonymous": false,
      "inputs": [
        {
          "indexed": true,
          "name": "authority",
          "type": "address"
        }
      ],
      "name": "LogSetAuthority",
      "type": "event"
    },
    {
      "anonymous": false,
      "inputs": [
        {
          "indexed": true,
          "name": "owner",
          "type": "address"
        }
      ],
      "name": "LogSetOwner",
      "type": "event"
    },
    {
      "constant": false,
      "inputs": [
        {
          "name": "_savingsProxy",
          "type": "address"
        }
      ],
      "name": "addSavingsProxy",
      "outputs": [],
      "payable": false,
      "stateMutability": "nonpayable",
      "type": "function"
    },
    {
      "constant": false,
      "inputs": [
        {
          "name": "_user",
          "type": "address"
        },
        {
          "name": "_amount",
          "type": "uint256"
        }
      ],
      "name": "deposit",
      "outputs": [],
      "payable": false,
      "stateMutability": "nonpayable",
      "type": "function"
    },
    {
      "constant": false,
      "inputs": [
        {
          "name": "_user",
          "type": "address"
        },
        {
          "name": "_amount",
          "type": "uint256"
        }
      ],
      "name": "withdraw",
      "outputs": [],
      "payable": false,
      "stateMutability": "nonpayable",
      "type": "function"
    }
  ],
  "bytecode": "0x608060405234801561001057600080fd5b5033600160006101000a81548173ffffffffffffffffffffffffffffffffffffffff021916908373ffffffffffffffffffffffffffffffffffffffff1602179055503373ffffffffffffffffffffffffffffffffffffffff167fce241d7ca1f669fee44b6fc00b8eba2df3bb514eed0f6f668f8f89096e81ed9460405160405180910390a273b6b09fbffba6a5c4631e5f7b2e3ee183ac259c0d600260006101000a81548173ffffffffffffffffffffffffffffffffffffffff021916908373ffffffffffffffffffffffffffffffffffffffff160217905550611e31806100f96000396000f3fe608060405234801561001057600080fd5b5060043610610218576000357c0100000000000000000000000000000000000000000000000000000000900480638823151b11610137578063c74c0fac116100ca578063d36b907d11610099578063d36b907d1461055d578063ddaa293c1461057b578063edb6bff414610599578063f0d405e5146105b7578063f3fef3a3146105d557610218565b8063c74c0fac146104e5578063c9fde27014610503578063ce9bde1d14610521578063d3661fa51461053f57610218565b8063a683668c11610106578063a683668c1461046d578063b175afa11461048b578063bf7e214f146104a9578063c16921b7146104c757610218565b80638823151b146103f55780638da5cb5b1461041357806394bfbe74146104315780639da779e91461044f57610218565b806332ac5cd2116101af578063502237d71161017e578063502237d71461037f578063728c00921461039d5780637a9e5e4b146103bb578063825ffd92146103d757610218565b806332ac5cd21461030957806336e6da111461032757806343fb75e81461034557806347e7ef241461036357610218565b80631dab52b0116101eb5780631dab52b01461029157806329f7fc9e146102af5780632a441f05146102cd5780632d5eeb3f146102eb57610218565b8063040141e51461021d5780630531b2ad1461023b5780630b6cd37e1461025957806313af403514610275575b600080fd5b6102256105f1565b6040516102329190611b99565b60405180910390f35b610243610609565b6040516102509190611b99565b60405180910390f35b610273600480360361026e91908101906119ee565b610621565b005b61028f600480360361028a91908101906119ee565b61069c565b005b61029961077c565b6040516102a69190611b99565b60405180910390f35b6102b7610794565b6040516102c49190611b99565b60405180910390f35b6102d56107ac565b6040516102e29190611b99565b60405180910390f35b6102f36107c4565b6040516103009190611b99565b60405180910390f35b6103116107dc565b60405161031e9190611b99565b60405180910390f35b61032f6107ef565b60405161033c9190611b99565b60405180910390f35b61034d610807565b60405161035a9190611b99565b60405180910390f35b61037d60048036036103789190810190611a17565b61081f565b005b610387610e37565b6040516103949190611b99565b60405180910390f35b6103a5610e4f565b6040516103b29190611b99565b60405180910390f35b6103d560048036036103d09190810190611a7c565b610e67565b005b6103df610f45565b6040516103ec9190611b99565b60405180910390f35b6103fd610f5d565b60405161040a9190611b99565b60405180910390f35b61041b610f75565b6040516104289190611b99565b60405180910390f35b610439610f9b565b6040516104469190611b99565b60405180910390f35b610457610fb3565b6040516104649190611b99565b60405180910390f35b610475610fcb565b6040516104829190611b99565b60405180910390f35b610493610ff1565b6040516104a09190611b99565b60405180910390f35b6104b1611009565b6040516104be9190611c66565b60405180910390f35b6104cf61102e565b6040516104dc9190611b99565b60405180910390f35b6104ed611046565b6040516104fa9190611b99565b60405180910390f35b61050b61105e565b6040516105189190611b99565b60405180910390f35b610529611076565b6040516105369190611b99565b60405180910390f35b61054761108e565b6040516105549190611b99565b60405180910390f35b6105656110a6565b6040516105729190611b99565b60405180910390f35b6105836110be565b6040516105909190611b99565b60405180910390f35b6105a16110d6565b6040516105ae9190611c4b565b60405180910390f35b6105bf6110fc565b6040516105cc9190611b99565b60405180910390f35b6105ef60048036036105ea9190810190611a17565b611114565b005b73d0a1e359811322d97991e03f863a0c30c2cf029c81565b73b6b09fbffba6a5c4631e5f7b2e3ee183ac259c0d81565b61064f336000357fffffffff00000000000000000000000000000000000000000000000000000000166117ba565b61065857600080fd5b80600360006101000a81548173ffffffffffffffffffffffffffffffffffffffff021916908373ffffffffffffffffffffffffffffffffffffffff16021790555050565b6106ca336000357fffffffff00000000000000000000000000000000000000000000000000000000166117ba565b6106d357600080fd5b80600160006101000a81548173ffffffffffffffffffffffffffffffffffffffff021916908373ffffffffffffffffffffffffffffffffffffffff160217905550600160009054906101000a900473ffffffffffffffffffffffffffffffffffffffff1673ffffffffffffffffffffffffffffffffffffffff167fce241d7ca1f669fee44b6fc00b8eba2df3bb514eed0f6f668f8f89096e81ed9460405160405180910390a250565b73a944bd4b25c9f186a846fd5668941aa3d3b8425f81565b73eeeeeeeeeeeeeeeeeeeeeeeeeeeeeeeeeeeeeeee81565b734a6bc4e803c62081ffebcc8d227b5a87a58f1f8f81565b73a1e58f3b1927743393b25f261471e1f2d3d9f0f681565b6e170ccc93903185be5a2094c870df6281565b73bb4339c0ab5b1d9f14bd6e3426444a1e9d86a1d981565b73823cde416973a19f98bb9c96d97f4fe6c9a7238b81565b8173ffffffffffffffffffffffffffffffffffffffff163373ffffffffffffffffffffffffffffffffffffffff161461085757600080fd5b73c4375b7de8af5a38a93548eb8453a498222c4ff273ffffffffffffffffffffffffffffffffffffffff166323b872dd8330846040518463ffffffff167c01000000000000000000000000000000000000000000000000000000000281526004016108c493929190611beb565b602060405180830381600087803b1580156108de57600080fd5b505af11580156108f2573d6000803e3d6000fd5b505050506040513d601f19601f820116820180604052506109169190810190611a53565b61091f57600080fd5b73863e41fe88288ebf3fcd91d8dbb679fb83fdfe1773ffffffffffffffffffffffffffffffffffffffff166369a90514826040518263ffffffff167c01000000000000000000000000000000000000000000000000000000000281526004016109889190611cc1565b600060405180830381600087803b1580156109a257600080fd5b505af11580156109b6573d6000803e3d6000fd5b505050507325a01a05c188dacbcf1d61af55d4a5b4021f7eed73ffffffffffffffffffffffffffffffffffffffff1663095ea7b373b6b09fbffba6a5c4631e5f7b2e3ee183ac259c0d7fffffffffffffffffffffffffffffffffffffffffffffffffffffffffffffffff6040518363ffffffff167c0100000000000000000000000000000000000000000000000000000000028152600401610a59929190611c22565b602060405180830381600087803b158015610a7357600080fd5b505af1158015610a87573d6000803e3d6000fd5b505050506040513d601f19601f82011682018060405250610aab9190810190611a53565b5073c4375b7de8af5a38a93548eb8453a498222c4ff273ffffffffffffffffffffffffffffffffffffffff1663095ea7b373b6b09fbffba6a5c4631e5f7b2e3ee183ac259c0d7fffffffffffffffffffffffffffffffffffffffffffffffffffffffffffffffff6040518363ffffffff167c0100000000000000000000000000000000000000000000000000000000028152600401610b4b929190611c22565b602060405180830381600087803b158015610b6557600080fd5b505af1158015610b79573d6000803e3d6000fd5b505050506040513d601f19601f82011682018060405250610b9d9190810190611a53565b506000600260009054906101000a900473ffffffffffffffffffffffffffffffffffffffff1673ffffffffffffffffffffffffffffffffffffffff1663a0712d68836040518263ffffffff167c0100000000000000000000000000000000000000000000000000000000028152600401610c179190611cc1565b602060405180830381600087803b158015610c3157600080fd5b505af1158015610c45573d6000803e3d6000fd5b505050506040513d601f19601f82011682018060405250610c699190810190611aa5565b14610ca9576040517f08c379a0000000000000000000000000000000000000000000000000000000008152600401610ca090611c81565b60405180910390fd5b6000600260009054906101000a900473ffffffffffffffffffffffffffffffffffffffff1673ffffffffffffffffffffffffffffffffffffffff166370a08231306040518263ffffffff167c0100000000000000000000000000000000000000000000000000000000028152600401610d229190611b99565b60206040518083038186803b158015610d3a57600080fd5b505afa158015610d4e573d6000803e3d6000fd5b505050506040513d601f19601f82011682018060405250610d729190810190611aa5565b905073b6b09fbffba6a5c4631e5f7b2e3ee183ac259c0d73ffffffffffffffffffffffffffffffffffffffff1663a9059cbb84836040518363ffffffff167c0100000000000000000000000000000000000000000000000000000000028152600401610ddf929190611c22565b602060405180830381600087803b158015610df957600080fd5b505af1158015610e0d573d6000803e3d6000fd5b505050506040513d601f19601f82011682018060405250610e319190810190611a53565b50505050565b73863e41fe88288ebf3fcd91d8dbb679fb83fdfe1781565b7364a436ae831c1672ae81f674cab8b6775df3475c81565b610e95336000357fffffffff00000000000000000000000000000000000000000000000000000000166117ba565b610e9e57600080fd5b806000806101000a81548173ffffffffffffffffffffffffffffffffffffffff021916908373ffffffffffffffffffffffffffffffffffffffff1602179055506000809054906101000a900473ffffffffffffffffffffffffffffffffffffffff1673ffffffffffffffffffffffffffffffffffffffff167f1abebea81bfa2637f28358c371278fb15ede7ea8dd28d2e03b112ff6d936ada460405160405180910390a250565b73aaf64bfcc32d0f15873a02163e7e500671a4ffcd81565b73c72e74e474682680a414b506699bbca44ab9a93081565b600160009054906101000a900473ffffffffffffffffffffffffffffffffffffffff1681565b7332d0e18f988f952eb3524ace762042381a2c39e581565b73c4375b7de8af5a38a93548eb8453a498222c4ff281565b600360009054906101000a900473ffffffffffffffffffffffffffffffffffffffff1681565b735595930d576aedf13945c83ce5aad827529a131081565b6000809054906101000a900473ffffffffffffffffffffffffffffffffffffffff1681565b7325a01a05c188dacbcf1d61af55d4a5b4021f7eed81565b73f5d915570bc477f9b8d6c0e980aa81757a3aac3681565b73f4d791139ce033ad35db2b2201435fad668b1b6481565b73692f391bcc85cefce8c237c01e1f636bbd70ea4d81565b7354b44c6b18fc0b4a1010b21d524c338d1f8065f681565b734ec3570cadaaee08ae384779b0f3a45ef85289de81565b735595930d576aedf13945c83ce5aad827529a131081565b600260009054906101000a900473ffffffffffffffffffffffffffffffffffffffff1681565b73a71937147b55deb8a530c7229c442fd3f31b7db281565b8173ffffffffffffffffffffffffffffffffffffffff163373ffffffffffffffffffffffffffffffffffffffff161461114c57600080fd5b73b6b09fbffba6a5c4631e5f7b2e3ee183ac259c0d73ffffffffffffffffffffffffffffffffffffffff166323b872dd833073b6b09fbffba6a5c4631e5f7b2e3ee183ac259c0d73ffffffffffffffffffffffffffffffffffffffff166370a08231876040518263ffffffff167c01000000000000000000000000000000000000000000000000000000000281526004016111e79190611b99565b60206040518083038186803b1580156111ff57600080fd5b505afa158015611213573d6000803e3d6000fd5b505050506040513d601f19601f820116820180604052506112379190810190611aa5565b6040518463ffffffff167c010000000000000000000000000000000000000000000000000000000002815260040161127193929190611beb565b602060405180830381600087803b15801561128b57600080fd5b505af115801561129f573d6000803e3d6000fd5b505050506040513d601f19601f820116820180604052506112c39190810190611a53565b6112cc57600080fd5b73b6b09fbffba6a5c4631e5f7b2e3ee183ac259c0d73ffffffffffffffffffffffffffffffffffffffff1663095ea7b3600260009054906101000a900473ffffffffffffffffffffffffffffffffffffffff167fffffffffffffffffffffffffffffffffffffffffffffffffffffffffffffffff6040518363ffffffff167c0100000000000000000000000000000000000000000000000000000000028152600401611379929190611c22565b602060405180830381600087803b15801561139357600080fd5b505af11580156113a7573d6000803e3d6000fd5b505050506040513d601f19601f820116820180604052506113cb9190810190611a53565b506000600260009054906101000a900473ffffffffffffffffffffffffffffffffffffffff1673ffffffffffffffffffffffffffffffffffffffff1663852a12e3836040518263ffffffff167c01000000000000000000000000000000000000000000000000000000000281526004016114459190611cc1565b602060405180830381600087803b15801561145f57600080fd5b505af1158015611473573d6000803e3d6000fd5b505050506040513d601f19601f820116820180604052506114979190810190611aa5565b146114d7576040517f08c379a00000000000000000000000000000000000000000000000000000000081526004016114ce90611ca1565b60405180910390fd5b73863e41fe88288ebf3fcd91d8dbb679fb83fdfe1773ffffffffffffffffffffffffffffffffffffffff1663db8b0a58826040518263ffffffff167c01000000000000000000000000000000000000000000000000000000000281526004016115409190611cc1565b600060405180830381600087803b15801561155a57600080fd5b505af115801561156e573d6000803e3d6000fd5b50505050600073b6b09fbffba6a5c4631e5f7b2e3ee183ac259c0d73ffffffffffffffffffffffffffffffffffffffff166370a08231306040518263ffffffff167c01000000000000000000000000000000000000000000000000000000000281526004016115dd9190611b99565b60206040518083038186803b1580156115f557600080fd5b505afa158015611609573d6000803e3d6000fd5b505050506040513d601f19601f8201168201806040525061162d9190810190611aa5565b905060008111156116f75773b6b09fbffba6a5c4631e5f7b2e3ee183ac259c0d73ffffffffffffffffffffffffffffffffffffffff1663a9059cbb84836040518363ffffffff167c01000000000000000000000000000000000000000000000000000000000281526004016116a3929190611c22565b602060405180830381600087803b1580156116bd57600080fd5b505af11580156116d1573d6000803e3d6000fd5b505050506040513d601f19601f820116820180604052506116f59190810190611a53565b505b73c4375b7de8af5a38a93548eb8453a498222c4ff273ffffffffffffffffffffffffffffffffffffffff1663a9059cbb84846040518363ffffffff167c0100000000000000000000000000000000000000000000000000000000028152600401611762929190611c22565b602060405180830381600087803b15801561177c57600080fd5b505af1158015611790573d6000803e3d6000fd5b505050506040513d601f19601f820116820180604052506117b49190810190611a53565b50505050565b60003073ffffffffffffffffffffffffffffffffffffffff168373ffffffffffffffffffffffffffffffffffffffff1614156117f95760019050611984565b600160009054906101000a900473ffffffffffffffffffffffffffffffffffffffff1673ffffffffffffffffffffffffffffffffffffffff168373ffffffffffffffffffffffffffffffffffffffff1614156118585760019050611984565b600073ffffffffffffffffffffffffffffffffffffffff166000809054906101000a900473ffffffffffffffffffffffffffffffffffffffff1673ffffffffffffffffffffffffffffffffffffffff1614156118b75760009050611984565b6000809054906101000a900473ffffffffffffffffffffffffffffffffffffffff1673ffffffffffffffffffffffffffffffffffffffff1663b70096138430856040518463ffffffff167c010000000000000000000000000000000000000000000000000000000002815260040161193193929190611bb4565b60206040518083038186803b15801561194957600080fd5b505afa15801561195d573d6000803e3d6000fd5b505050506040513d601f19601f820116820180604052506119819190810190611a53565b90505b92915050565b60006119968235611d55565b905092915050565b60006119aa8251611d67565b905092915050565b60006119be8235611d73565b905092915050565b60006119d28235611da5565b905092915050565b60006119e68251611da5565b905092915050565b600060208284031215611a0057600080fd5b6000611a0e8482850161198a565b91505092915050565b60008060408385031215611a2a57600080fd5b6000611a388582860161198a565b9250506020611a49858286016119c6565b9150509250929050565b600060208284031215611a6557600080fd5b6000611a738482850161199e565b91505092915050565b600060208284031215611a8e57600080fd5b6000611a9c848285016119b2565b91505092915050565b600060208284031215611ab757600080fd5b6000611ac5848285016119da565b91505092915050565b611ad781611ced565b82525050565b611ae681611cff565b82525050565b611af581611daf565b82525050565b611b0481611dd3565b82525050565b6000611b17600b83611cdc565b91507f4661696c6564204d696e740000000000000000000000000000000000000000006000830152602082019050919050565b6000611b57600d83611cdc565b91507f52656564656d204661696c6564000000000000000000000000000000000000006000830152602082019050919050565b611b9381611d4b565b82525050565b6000602082019050611bae6000830184611ace565b92915050565b6000606082019050611bc96000830186611ace565b611bd66020830185611ace565b611be36040830184611add565b949350505050565b6000606082019050611c006000830186611ace565b611c0d6020830185611ace565b611c1a6040830184611b8a565b949350505050565b6000604082019050611c376000830185611ace565b611c446020830184611b8a565b9392505050565b6000602082019050611c606000830184611aec565b92915050565b6000602082019050611c7b6000830184611afb565b92915050565b60006020820190508181036000830152611c9a81611b0a565b9050919050565b60006020820190508181036000830152611cba81611b4a565b9050919050565b6000602082019050611cd66000830184611b8a565b92915050565b600082825260208201905092915050565b6000611cf882611d2b565b9050919050565b60007fffffffff0000000000000000000000000000000000000000000000000000000082169050919050565b600073ffffffffffffffffffffffffffffffffffffffff82169050919050565b6000819050919050565b6000611d6082611d85565b9050919050565b60008115159050919050565b6000611d7e82611d55565b9050919050565b600073ffffffffffffffffffffffffffffffffffffffff82169050919050565b6000819050919050565b6000611dba82611dc1565b9050919050565b6000611dcc82611d2b565b9050919050565b6000611dde82611de5565b9050919050565b6000611df082611d2b565b905091905056fea265627a7a723058201401eeb9fe8a8857dd316d82b2b6c1514da9bd8e5e6cbad359ac146d143679306c6578706572696d656e74616cf50037",
  "source": "pragma solidity ^0.5.0;\npragma experimental ABIEncoderV2;\n\nimport \"../ProtocolInterface.sol\";\nimport \"../../interfaces/CTokenInterface.sol\";\nimport \"../../compound/Exponential.sol\";\nimport \"../../compound/StupidExchange.sol\";\nimport \"../../interfaces/ERC20.sol\";\nimport \"../../constants/ConstantAddresses.sol\";\nimport \"../../DS/DSAuth.sol\";\n\n\ncontract CompoundSavingsProtocol is ProtocolInterface, Exponential, ConstantAddresses, DSAuth {\n\n    CTokenInterface public cDaiContract;\n    address public savingsProxy;\n\n    constructor() public {\n        cDaiContract = CTokenInterface(CDAI_ADDRESS);\n    }\n\n    function addSavingsProxy(address _savingsProxy) public auth {\n\n        savingsProxy = _savingsProxy;\n    }\n\n    function deposit(address _user, uint _amount) public {\n        require(msg.sender == _user);\n        // get dai from user\n        require(ERC20(MAKER_DAI_ADDRESS).transferFrom(_user, address(this), _amount));\n\n        // REMOVE: USED ONLY ON KOVAN TO HANDLE DAI DIFFERENT TOKENS\n        StupidExchange(STUPID_EXCHANGE).getCompoundDaiToken(_amount);\n        // approve dai to compound\n        ERC20(COMPOUND_DAI_ADDRESS).approve(CDAI_ADDRESS, uint(-1));\n\n        // mainnet only\n        ERC20(MAKER_DAI_ADDRESS).approve(CDAI_ADDRESS, uint(-1));\n\n        // mint cDai\n        require(cDaiContract.mint(_amount) == 0, \"Failed Mint\");\n        // balance should be equal to cDai minted\n        uint cDaiMinted = cDaiContract.balanceOf(address(this));\n        // return cDai to user\n        ERC20(CDAI_ADDRESS).transfer(_user, cDaiMinted);\n    }\n\n    function withdraw(address _user, uint _amount) public {\n        require(msg.sender == _user);\n        // transfer all users balance to this contract\n        require(ERC20(CDAI_ADDRESS).transferFrom(_user, address(this), ERC20(CDAI_ADDRESS).balanceOf(_user)));\n        // approve cDai to compound contract\n        ERC20(CDAI_ADDRESS).approve(address(cDaiContract), uint(-1));\n        // get dai from cDai contract\n        require(cDaiContract.redeemUnderlying(_amount) == 0, \"Reedem Failed\");\n\n        // REMOVE: USED ONLY ON KOVAN TO HANDLE DAI DIFFERENT TOKENS\n        StupidExchange(STUPID_EXCHANGE).getMakerDaiToken(_amount);\n\n        // return to user balance we didn't spend\n        uint cDaiBalance = ERC20(CDAI_ADDRESS).balanceOf(address(this));\n        if (cDaiBalance > 0) {\n            ERC20(CDAI_ADDRESS).transfer(_user, cDaiBalance);\n        }\n        // return dai we have to user\n        ERC20(MAKER_DAI_ADDRESS).transfer(_user, _amount);\n    }\n}\n",
  "sourcePath": "/Users/nenadpalinkasevic/Desktop/blockchain/cdpsaver-contracts/contracts/savings/compound/CompoundSavingsProtocol.sol",
  "compiler": {
    "name": "solc",
    "version": "0.5.7+commit.6da8b019.Emscripten.clang"
  },
  "schemaVersion": "3.0.0",
  "updatedAt": "2019-08-17T15:16:30.368Z",
  "devdoc": {
    "methods": {}
  },
  "userdoc": {
    "methods": {}
  }
}