{
  "contractName": "CompoundSavingsProtocol",
  "abi": [
    {
      "constant": true,
      "inputs": [],
      "name": "CDAI_ADDRESS",
      "outputs": [
        {
          "name": "",
          "type": "address"
        }
      ],
      "payable": false,
      "stateMutability": "view",
      "type": "function"
    },
    {
      "constant": true,
      "inputs": [],
      "name": "STUPID_EXCHANGE",
      "outputs": [
        {
          "name": "",
          "type": "address"
        }
      ],
      "payable": false,
      "stateMutability": "view",
      "type": "function"
    },
    {
      "constant": true,
      "inputs": [],
      "name": "MAKER_DAI_ADDRESS",
      "outputs": [
        {
          "name": "",
          "type": "address"
        }
      ],
      "payable": false,
      "stateMutability": "view",
      "type": "function"
    },
    {
      "constant": true,
      "inputs": [],
      "name": "COMPOUND_DAI_ADDRESS",
      "outputs": [
        {
          "name": "",
          "type": "address"
        }
      ],
      "payable": false,
      "stateMutability": "view",
      "type": "function"
    },
    {
      "constant": true,
      "inputs": [],
      "name": "cDaiContract",
      "outputs": [
        {
          "name": "",
          "type": "address"
        }
      ],
      "payable": false,
      "stateMutability": "view",
      "type": "function"
    },
    {
      "inputs": [],
      "payable": false,
      "stateMutability": "nonpayable",
      "type": "constructor"
    },
    {
      "constant": false,
      "inputs": [
        {
          "name": "_user",
          "type": "address"
        },
        {
          "name": "_amount",
          "type": "uint256"
        }
      ],
      "name": "deposit",
      "outputs": [],
      "payable": false,
      "stateMutability": "nonpayable",
      "type": "function"
    },
    {
      "constant": false,
      "inputs": [
        {
          "name": "_user",
          "type": "address"
        },
        {
          "name": "_amount",
          "type": "uint256"
        }
      ],
      "name": "withdraw",
      "outputs": [],
      "payable": false,
      "stateMutability": "nonpayable",
      "type": "function"
    }
  ],
  "bytecode": "0x608060405234801561001057600080fd5b5073b6b09fbffba6a5c4631e5f7b2e3ee183ac259c0d6000806101000a81548173ffffffffffffffffffffffffffffffffffffffff021916908373ffffffffffffffffffffffffffffffffffffffff160217905550611189806100746000396000f3fe608060405234801561001057600080fd5b506004361061007d5760003560e01c80639da779e91161005b5780639da779e9146100da578063c16921b7146100f8578063edb6bff414610116578063f3fef3a3146101345761007d565b80630531b2ad1461008257806347e7ef24146100a0578063502237d7146100bc575b600080fd5b61008a610150565b6040516100979190610f26565b60405180910390f35b6100ba60048036036100b59190810190610d9c565b610168565b005b6100c46105ac565b6040516100d19190610f26565b60405180910390f35b6100e26105c4565b6040516100ef9190610f26565b60405180910390f35b6101006105dc565b60405161010d9190610f26565b60405180910390f35b61011e6105f4565b60405161012b9190610fca565b60405180910390f35b61014e60048036036101499190810190610d9c565b610619565b005b73b6b09fbffba6a5c4631e5f7b2e3ee183ac259c0d81565b73c4375b7de8af5a38a93548eb8453a498222c4ff273ffffffffffffffffffffffffffffffffffffffff166323b872dd8330846040518463ffffffff1660e01b81526004016101b993929190610f6a565b602060405180830381600087803b1580156101d357600080fd5b505af11580156101e7573d6000803e3d6000fd5b505050506040513d601f19601f8201168201806040525061020b9190810190610dd8565b61021457600080fd5b73863e41fe88288ebf3fcd91d8dbb679fb83fdfe1773ffffffffffffffffffffffffffffffffffffffff166369a90514826040518263ffffffff1660e01b81526004016102619190611045565b600060405180830381600087803b15801561027b57600080fd5b505af115801561028f573d6000803e3d6000fd5b505050507325a01a05c188dacbcf1d61af55d4a5b4021f7eed73ffffffffffffffffffffffffffffffffffffffff1663095ea7b373b6b09fbffba6a5c4631e5f7b2e3ee183ac259c0d7fffffffffffffffffffffffffffffffffffffffffffffffffffffffffffffffff6040518363ffffffff1660e01b8152600401610316929190610fa1565b602060405180830381600087803b15801561033057600080fd5b505af1158015610344573d6000803e3d6000fd5b505050506040513d601f19601f820116820180604052506103689190810190610dd8565b5060008060009054906101000a900473ffffffffffffffffffffffffffffffffffffffff1673ffffffffffffffffffffffffffffffffffffffff1663a0712d68836040518263ffffffff1660e01b81526004016103c59190611045565b602060405180830381600087803b1580156103df57600080fd5b505af11580156103f3573d6000803e3d6000fd5b505050506040513d601f19601f820116820180604052506104179190810190610e01565b14610457576040517f08c379a000000000000000000000000000000000000000000000000000000000815260040161044e90610fe5565b60405180910390fd5b60008060009054906101000a900473ffffffffffffffffffffffffffffffffffffffff1673ffffffffffffffffffffffffffffffffffffffff166370a08231306040518263ffffffff1660e01b81526004016104b39190610f26565b60206040518083038186803b1580156104cb57600080fd5b505afa1580156104df573d6000803e3d6000fd5b505050506040513d601f19601f820116820180604052506105039190810190610e01565b905073b6b09fbffba6a5c4631e5f7b2e3ee183ac259c0d73ffffffffffffffffffffffffffffffffffffffff1663a9059cbb33836040518363ffffffff1660e01b8152600401610554929190610f41565b602060405180830381600087803b15801561056e57600080fd5b505af1158015610582573d6000803e3d6000fd5b505050506040513d601f19601f820116820180604052506105a69190810190610dd8565b50505050565b73863e41fe88288ebf3fcd91d8dbb679fb83fdfe1781565b73c4375b7de8af5a38a93548eb8453a498222c4ff281565b7325a01a05c188dacbcf1d61af55d4a5b4021f7eed81565b6000809054906101000a900473ffffffffffffffffffffffffffffffffffffffff1681565b60006106398273b6b09fbffba6a5c4631e5f7b2e3ee183ac259c0d6109de565b905073b6b09fbffba6a5c4631e5f7b2e3ee183ac259c0d73ffffffffffffffffffffffffffffffffffffffff166323b872dd8430846040518463ffffffff1660e01b815260040161068c93929190610f6a565b602060405180830381600087803b1580156106a657600080fd5b505af11580156106ba573d6000803e3d6000fd5b505050506040513d601f19601f820116820180604052506106de9190810190610dd8565b6106e757600080fd5b73b6b09fbffba6a5c4631e5f7b2e3ee183ac259c0d73ffffffffffffffffffffffffffffffffffffffff1663095ea7b36000809054906101000a900473ffffffffffffffffffffffffffffffffffffffff167fffffffffffffffffffffffffffffffffffffffffffffffffffffffffffffffff6040518363ffffffff1660e01b8152600401610777929190610fa1565b602060405180830381600087803b15801561079157600080fd5b505af11580156107a5573d6000803e3d6000fd5b505050506040513d601f19601f820116820180604052506107c99190810190610dd8565b5060008060009054906101000a900473ffffffffffffffffffffffffffffffffffffffff1673ffffffffffffffffffffffffffffffffffffffff1663852a12e3846040518263ffffffff1660e01b81526004016108269190611045565b602060405180830381600087803b15801561084057600080fd5b505af1158015610854573d6000803e3d6000fd5b505050506040513d601f19601f820116820180604052506108789190810190610e01565b146108b8576040517f08c379a00000000000000000000000000000000000000000000000000000000081526004016108af90611005565b60405180910390fd5b73863e41fe88288ebf3fcd91d8dbb679fb83fdfe1773ffffffffffffffffffffffffffffffffffffffff1663db8b0a58836040518263ffffffff1660e01b81526004016109059190611045565b600060405180830381600087803b15801561091f57600080fd5b505af1158015610933573d6000803e3d6000fd5b5050505073c4375b7de8af5a38a93548eb8453a498222c4ff273ffffffffffffffffffffffffffffffffffffffff1663a9059cbb33846040518363ffffffff1660e01b8152600401610986929190610f41565b602060405180830381600087803b1580156109a057600080fd5b505af11580156109b4573d6000803e3d6000fd5b505050506040513d601f19601f820116820180604052506109d89190810190610dd8565b50505050565b600080610a788460405180602001604052808673ffffffffffffffffffffffffffffffffffffffff1663bd6d894d6040518163ffffffff1660e01b8152600401602060405180830381600087803b158015610a3857600080fd5b505af1158015610a4c573d6000803e3d6000fd5b505050506040513d601f19601f82011682018060405250610a709190810190610e01565b815250610ae0565b809350819250505060006003811115610a8d57fe5b816003811115610a9957fe5b14610ad9576040517f08c379a0000000000000000000000000000000000000000000000000000000008152600401610ad090611025565b60405180910390fd5b5092915050565b6000806000610aed610d39565b610af78686610b43565b9150915060006003811115610b0857fe5b826003811115610b1457fe5b14610b2a57816000809050935093505050610b3c565b6000610b3582610bbf565b9350935050505b9250929050565b6000610b4d610d39565b600080610b62670de0b6b3a764000087610bde565b9150915060006003811115610b7357fe5b826003811115610b7f57fe5b14610ba3578160405180602001604052806000815250809050935093505050610bb8565b610bb1818660000151610c31565b9350935050505b9250929050565b6000670de0b6b3a7640000826000015181610bd657fe5b049050919050565b6000806000841415610bf95760008080905091509150610c2a565b6000838502905083858281610c0a57fe5b0414610c2157600260008090509250925050610c2a565b60008192509250505b9250929050565b6000610c3b610d39565b600080610c5086670de0b6b3a7640000610bde565b9150915060006003811115610c6157fe5b826003811115610c6d57fe5b14610c91578160405180602001604052806000815250809050935093505050610cfe565b600080610c9e8388610d05565b9150915060006003811115610caf57fe5b826003811115610cbb57fe5b14610ce15781604051806020016040528060008152508090509550955050505050610cfe565b600060405180602001604052808381525080905095509550505050505b9250929050565b6000806000831415610d21576001600080905091509150610d32565b6000838581610d2c57fe5b04915091505b9250929050565b6040518060200160405280600081525090565b6000610d5882356110ad565b905092915050565b6000610d6c82516110bf565b905092915050565b6000610d8082356110eb565b905092915050565b6000610d9482516110eb565b905092915050565b60008060408385031215610daf57600080fd5b6000610dbd85828601610d4c565b9250506020610dce85828601610d74565b9150509250929050565b600060208284031215610dea57600080fd5b6000610df884828501610d60565b91505092915050565b600060208284031215610e1357600080fd5b6000610e2184828501610d88565b91505092915050565b610e33816110f5565b82525050565b610e4281611071565b82525050565b610e5181611107565b82525050565b6000610e64600b83611060565b91507f4661696c6564204d696e740000000000000000000000000000000000000000006000830152602082019050919050565b6000610ea4600d83611060565b91507f52656564656d204661696c6564000000000000000000000000000000000000006000830152602082019050919050565b6000610ee4600a83611060565b91507f4d617468206572726f72000000000000000000000000000000000000000000006000830152602082019050919050565b610f20816110a3565b82525050565b6000602082019050610f3b6000830184610e39565b92915050565b6000604082019050610f566000830185610e2a565b610f636020830184610f17565b9392505050565b6000606082019050610f7f6000830186610e39565b610f8c6020830185610e39565b610f996040830184610f17565b949350505050565b6000604082019050610fb66000830185610e39565b610fc36020830184610f17565b9392505050565b6000602082019050610fdf6000830184610e48565b92915050565b60006020820190508181036000830152610ffe81610e57565b9050919050565b6000602082019050818103600083015261101e81610e97565b9050919050565b6000602082019050818103600083015261103e81610ed7565b9050919050565b600060208201905061105a6000830184610f17565b92915050565b600082825260208201905092915050565b600061107c82611083565b9050919050565b600073ffffffffffffffffffffffffffffffffffffffff82169050919050565b6000819050919050565b60006110b8826110cb565b9050919050565b60008115159050919050565b600073ffffffffffffffffffffffffffffffffffffffff82169050919050565b6000819050919050565b60006111008261112b565b9050919050565b600061111282611119565b9050919050565b600061112482611083565b9050919050565b60006111368261113d565b9050919050565b600061114882611083565b905091905056fea265627a7a723058200d8fcb1182386fb95060b524e3e58a28db91105b01b2e72411f6eb47c9e948456c6578706572696d656e74616cf50037",
  "source": "pragma solidity ^0.5.0;\npragma experimental ABIEncoderV2;\n\nimport \"../ProtocolInterface.sol\";\nimport \"../../interfaces/CTokenInterface.sol\";\nimport \"../../compound/Exponential.sol\";\nimport \"../../compound/StupidExchange.sol\";\nimport \"../../interfaces/ERC20.sol\";\n\ncontract CompoundSavingsProtocol is ProtocolInterface, Exponential {\n\n    // kovan\n    address public constant MAKER_DAI_ADDRESS = 0xC4375B7De8af5a38a93548eb8453a498222C4fF2;\n    address public constant CDAI_ADDRESS = 0xb6b09fBffBa6A5C4631e5F7B2e3Ee183aC259c0d;\n    address public constant COMPOUND_DAI_ADDRESS = 0x25a01a05C188DaCBCf1D61Af55D4a5B4021F7eeD;\n    address public constant STUPID_EXCHANGE = 0x863E41FE88288ebf3fcd91d8Dbb679fb83fdfE17;\n\n    CTokenInterface public cDaiContract;\n\n    constructor() public {\n        cDaiContract = CTokenInterface(CDAI_ADDRESS);\n    }\n\n    function deposit(address _user, uint _amount) public {\n        // get dai from user\n        require(ERC20(MAKER_DAI_ADDRESS).transferFrom(_user, address(this), _amount));\n\n        // REMOVE: USED ONLY ON KOVAN TO HANDLE DAI DIFFERENT TOKENS\n        StupidExchange(STUPID_EXCHANGE).getCompoundDaiToken(_amount);\n\n        // approve dai to compound\n        ERC20(COMPOUND_DAI_ADDRESS).approve(CDAI_ADDRESS, uint(-1));\n\n        // mint cDai\n        require(cDaiContract.mint(_amount) == 0, \"Failed Mint\");\n        // balance should be equal to cDai minted\n        uint cDaiMinted = cDaiContract.balanceOf(address(this));\n        // return cDai to user\n        ERC20(CDAI_ADDRESS).transfer(msg.sender, cDaiMinted);\n    }\n\n    function withdraw(address _user, uint _amount) public {\n        // check how many cDai we need for that amount of dai\n        uint cDaiAmount = getCTokenAmount(_amount, CDAI_ADDRESS);\n        // transfer same amount fo cDai from user\n        require(ERC20(CDAI_ADDRESS).transferFrom(_user, address(this), cDaiAmount));\n        // approve cDai to compound contract\n        ERC20(CDAI_ADDRESS).approve(address(cDaiContract), uint(-1));\n        // get dai from cDai contract\n        require(cDaiContract.redeemUnderlying(_amount) == 0, \"Reedem Failed\");\n\n        // REMOVE: USED ONLY ON KOVAN TO HANDLE DAI DIFFERENT TOKENS\n        StupidExchange(STUPID_EXCHANGE).getMakerDaiToken(_amount);\n\n        // return dai we have to user\n        ERC20(MAKER_DAI_ADDRESS).transfer(msg.sender, _amount);\n    }\n\n    /// @notice Calculates how many cTokens you get for a _tokenAmount\n    function getCTokenAmount(uint _tokenAmount, address _tokenAddress) internal returns(uint cAmount) {\n        MathError error;\n        (error, cAmount) = divScalarByExpTruncate(_tokenAmount,\n             Exp({mantissa: CTokenInterface(_tokenAddress).exchangeRateCurrent()}));\n\n        require(error == MathError.NO_ERROR, \"Math error\");\n    }\n}\n",
  "sourcePath": "/Users/nikolaklipa/Decenter/defisaver/cdpsaver-contracts/contracts/savings/compound/CompoundSavingsProtocol.sol",
  "compiler": {
    "name": "solc",
    "version": "0.5.7+commit.6da8b019.Emscripten.clang"
  },
  "schemaVersion": "3.0.9",
  "updatedAt": "2019-08-06T16:28:47.336Z",
  "devdoc": {
    "methods": {}
  },
  "userdoc": {
    "methods": {}
  }
}