{
  "contractName": "CompoundSavingsProtocol",
  "abi": [
    {
      "constant": true,
      "inputs": [],
      "name": "WETH_ADDRESS",
      "outputs": [
        {
          "name": "",
          "type": "address"
        }
      ],
      "payable": false,
      "stateMutability": "view",
      "type": "function"
    },
    {
      "constant": true,
      "inputs": [],
      "name": "CDAI_ADDRESS",
      "outputs": [
        {
          "name": "",
          "type": "address"
        }
      ],
      "payable": false,
      "stateMutability": "view",
      "type": "function"
    },
    {
      "constant": true,
      "inputs": [],
      "name": "PIP_INTERFACE_ADDRESS",
      "outputs": [
        {
          "name": "",
          "type": "address"
        }
      ],
      "payable": false,
      "stateMutability": "view",
      "type": "function"
    },
    {
      "constant": true,
      "inputs": [],
      "name": "KYBER_ETH_ADDRESS",
      "outputs": [
        {
          "name": "",
          "type": "address"
        }
      ],
      "payable": false,
      "stateMutability": "view",
      "type": "function"
    },
    {
      "inputs": [
        {
          "name": "_savingsProxy",
          "type": "address"
        }
      ],
      "payable": false,
      "stateMutability": "view",
      "type": "function",
      "constant": true,
      "name": "OTC_ADDRESS",
      "outputs": [
        {
          "name": "",
          "type": "address"
        }
      ]
    },
    {
      "constant": true,
      "inputs": [
        {
          "name": "_user",
          "type": "address"
        },
        {
          "name": "_amount",
          "type": "uint256"
        }
      ],
      "name": "IDAI_ADDRESS",
      "outputs": [
        {
          "name": "",
          "type": "address"
        }
      ],
      "payable": false,
      "stateMutability": "view",
      "type": "function"
    },
    {
      "constant": true,
      "inputs": [
        {
          "name": "_user",
          "type": "address"
        },
        {
          "name": "_amount",
          "type": "uint256"
        }
      ],
      "name": "GAS_TOKEN_INTERFACE_ADDRESS",
      "outputs": [
        {
          "name": "",
          "type": "address"
        }
      ],
      "payable": false,
      "stateMutability": "view",
      "type": "function"
    },
    {
      "constant": true,
      "inputs": [],
      "name": "VOX_ADDRESS",
      "outputs": [
        {
          "name": "",
          "type": "address"
        }
      ],
      "payable": false,
      "stateMutability": "view",
      "type": "function"
    },
    {
      "constant": true,
      "inputs": [],
      "name": "ETH2DAI_WRAPPER",
      "outputs": [
        {
          "name": "",
          "type": "address"
        }
      ],
      "payable": false,
      "stateMutability": "view",
      "type": "function"
    },
    {
      "constant": true,
      "inputs": [],
      "name": "STUPID_EXCHANGE",
      "outputs": [
        {
          "name": "",
          "type": "address"
        }
      ],
      "payable": false,
      "stateMutability": "view",
      "type": "function"
    },
    {
      "constant": true,
      "inputs": [],
      "name": "PROXY_REGISTRY_INTERFACE_ADDRESS",
      "outputs": [
        {
          "name": "",
          "type": "address"
        }
      ],
      "payable": false,
      "stateMutability": "view",
      "type": "function"
    },
    {
      "constant": true,
      "inputs": [],
      "name": "MKR_ADDRESS",
      "outputs": [
        {
          "name": "",
          "type": "address"
        }
      ],
      "payable": false,
      "stateMutability": "view",
      "type": "function"
    },
    {
      "constant": true,
      "inputs": [],
      "name": "FACTORY_ADDRESS",
      "outputs": [
        {
          "name": "",
          "type": "address"
        }
      ],
      "payable": false,
      "stateMutability": "view",
      "type": "function"
    },
    {
      "constant": true,
      "inputs": [],
      "name": "LOGGER_ADDRESS",
      "outputs": [
        {
          "name": "",
          "type": "address"
        }
      ],
      "payable": false,
      "stateMutability": "view",
      "type": "function"
    },
    {
      "constant": true,
      "inputs": [],
      "name": "MAKER_DAI_ADDRESS",
      "outputs": [
        {
          "name": "",
          "type": "address"
        }
      ],
      "payable": false,
      "stateMutability": "view",
      "type": "function"
    },
    {
      "constant": true,
      "inputs": [],
      "name": "savingsProxy",
      "outputs": [
        {
          "name": "",
          "type": "address"
        }
      ],
      "payable": false,
      "stateMutability": "view",
      "type": "function"
    },
    {
      "constant": true,
      "inputs": [],
      "name": "KYBER_WRAPPER",
      "outputs": [
        {
          "name": "",
          "type": "address"
        }
      ],
      "payable": false,
      "stateMutability": "view",
      "type": "function"
    },
    {
      "constant": true,
      "inputs": [],
      "name": "COMPOUND_DAI_ADDRESS",
      "outputs": [
        {
          "name": "",
          "type": "address"
        }
      ],
      "payable": false,
      "stateMutability": "view",
      "type": "function"
    },
    {
      "constant": true,
      "inputs": [],
      "name": "UNISWAP_FACTORY",
      "outputs": [
        {
          "name": "",
          "type": "address"
        }
      ],
      "payable": false,
      "stateMutability": "view",
      "type": "function"
    },
    {
      "constant": true,
      "inputs": [],
      "name": "PETH_ADDRESS",
      "outputs": [
        {
          "name": "",
          "type": "address"
        }
      ],
      "payable": false,
      "stateMutability": "view",
      "type": "function"
    },
    {
      "constant": true,
      "inputs": [],
      "name": "KYBER_INTERFACE",
      "outputs": [
        {
          "name": "",
          "type": "address"
        }
      ],
      "payable": false,
      "stateMutability": "view",
      "type": "function"
    },
    {
      "constant": true,
      "inputs": [],
      "name": "WALLET_ID",
      "outputs": [
        {
          "name": "",
          "type": "address"
        }
      ],
      "payable": false,
      "stateMutability": "view",
      "type": "function"
    },
    {
      "constant": true,
      "inputs": [],
      "name": "SOLO_MARGIN_ADDRESS",
      "outputs": [
        {
          "name": "",
          "type": "address"
        }
      ],
      "payable": false,
      "stateMutability": "view",
      "type": "function"
    },
    {
      "constant": true,
      "inputs": [],
      "name": "UNISWAP_WRAPPER",
      "outputs": [
        {
          "name": "",
          "type": "address"
        }
      ],
      "payable": false,
      "stateMutability": "view",
      "type": "function"
    },
    {
      "constant": true,
      "inputs": [],
      "name": "cDaiContract",
      "outputs": [
        {
          "name": "",
          "type": "address"
        }
      ],
      "payable": false,
      "stateMutability": "view",
      "type": "function"
    },
    {
      "constant": true,
      "inputs": [],
      "name": "TUB_ADDRESS",
      "outputs": [
        {
          "name": "",
          "type": "address"
        }
      ],
      "payable": false,
      "stateMutability": "view",
      "type": "function"
    },
    {
      "constant": true,
      "inputs": [
        {
          "name": "_savingsProxy",
          "type": "address"
        }
      ],
      "name": "CTOKEN_INTERFACE",
      "outputs": [
        {
          "name": "",
          "type": "address"
        }
      ],
      "payable": false,
      "stateMutability": "nonpayable",
      "type": "constructor"
    },
    {
      "inputs": [
        {
          "name": "_user",
          "type": "address"
        },
        {
          "name": "_amount",
          "type": "uint256"
        }
      ],
      "payable": false,
      "stateMutability": "nonpayable",
      "type": "function",
      "constant": false,
      "name": "deposit",
      "outputs": []
    },
    {
      "constant": false,
      "inputs": [
        {
          "name": "_user",
          "type": "address"
        },
        {
          "name": "_amount",
          "type": "uint256"
        }
      ],
      "name": "withdraw",
      "outputs": [],
      "payable": false,
      "stateMutability": "nonpayable",
      "type": "function"
    },
    {
      "constant": false,
      "inputs": [
        {
          "name": "_user",
          "type": "address"
        },
        {
          "name": "_amount",
          "type": "uint256"
        }
      ],
      "name": "withdraw",
      "outputs": [],
      "payable": false,
      "stateMutability": "nonpayable",
      "type": "function"
    }
  ],
  "bytecode": "0x608060405234801561001057600080fd5b50604051602080620015d2833981018060405261003091908101906100df565b73b6b09fbffba6a5c4631e5f7b2e3ee183ac259c0d6000806101000a81548173ffffffffffffffffffffffffffffffffffffffff021916908373ffffffffffffffffffffffffffffffffffffffff16021790555080600160006101000a81548173ffffffffffffffffffffffffffffffffffffffff021916908373ffffffffffffffffffffffffffffffffffffffff1602179055505061013a565b60006100d78251610108565b905092915050565b6000602082840312156100f157600080fd5b60006100ff848285016100cb565b91505092915050565b60006101138261011a565b9050919050565b600073ffffffffffffffffffffffffffffffffffffffff82169050919050565b611488806200014a6000396000f3fe608060405234801561001057600080fd5b50600436106101c45760003560e01c806394bfbe74116100f9578063ce9bde1d11610097578063ddaa293c11610071578063ddaa293c14610497578063edb6bff4146104b5578063f0d405e5146104d3578063f3fef3a3146104f1576101c4565b8063ce9bde1d1461043d578063d3661fa51461045b578063d36b907d14610479576101c4565b8063b175afa1116100d3578063b175afa1146103c5578063c16921b7146103e3578063c74c0fac14610401578063c9fde2701461041f576101c4565b806394bfbe741461036b5780639da779e914610389578063a683668c146103a7576101c4565b806336e6da1111610166578063502237d711610140578063502237d7146102f3578063728c009214610311578063825ffd921461032f5780638823151b1461034d576101c4565b806336e6da111461029b57806343fb75e8146102b957806347e7ef24146102d7576101c4565b806329f7fc9e116101a257806329f7fc9e146102235780632a441f05146102415780632d5eeb3f1461025f57806332ac5cd21461027d576101c4565b8063040141e5146101c95780630531b2ad146101e75780631dab52b014610205575b600080fd5b6101d161050d565b6040516101de91906112a4565b60405180910390f35b6101ef610525565b6040516101fc91906112a4565b60405180910390f35b61020d61053d565b60405161021a91906112a4565b60405180910390f35b61022b610555565b60405161023891906112a4565b60405180910390f35b61024961056d565b60405161025691906112a4565b60405180910390f35b610267610585565b60405161027491906112a4565b60405180910390f35b61028561059d565b60405161029291906112a4565b60405180910390f35b6102a36105b0565b6040516102b091906112a4565b60405180910390f35b6102c16105c8565b6040516102ce91906112a4565b60405180910390f35b6102f160048036036102ec9190810190611169565b6105e0565b005b6102fb6109ff565b60405161030891906112a4565b60405180910390f35b610319610a17565b60405161032691906112a4565b60405180910390f35b610337610a2f565b60405161034491906112a4565b60405180910390f35b610355610a47565b60405161036291906112a4565b60405180910390f35b610373610a5f565b60405161038091906112a4565b60405180910390f35b610391610a77565b60405161039e91906112a4565b60405180910390f35b6103af610a8f565b6040516103bc91906112a4565b60405180910390f35b6103cd610ab5565b6040516103da91906112a4565b60405180910390f35b6103eb610acd565b6040516103f891906112a4565b60405180910390f35b610409610ae5565b60405161041691906112a4565b60405180910390f35b610427610afd565b60405161043491906112a4565b60405180910390f35b610445610b15565b60405161045291906112a4565b60405180910390f35b610463610b2d565b60405161047091906112a4565b60405180910390f35b610481610b45565b60405161048e91906112a4565b60405180910390f35b61049f610b5d565b6040516104ac91906112a4565b60405180910390f35b6104bd610b75565b6040516104ca919061131f565b60405180910390f35b6104db610b9a565b6040516104e891906112a4565b60405180910390f35b61050b60048036036105069190810190611169565b610bb2565b005b73d0a1e359811322d97991e03f863a0c30c2cf029c81565b73b6b09fbffba6a5c4631e5f7b2e3ee183ac259c0d81565b73a944bd4b25c9f186a846fd5668941aa3d3b8425f81565b73eeeeeeeeeeeeeeeeeeeeeeeeeeeeeeeeeeeeeeee81565b734a6bc4e803c62081ffebcc8d227b5a87a58f1f8f81565b73b6b09fbffba6a5c4631e5f7b2e3ee183ac259c0d81565b6e170ccc93903185be5a2094c870df6281565b73bb4339c0ab5b1d9f14bd6e3426444a1e9d86a1d981565b73823cde416973a19f98bb9c96d97f4fe6c9a7238b81565b600160009054906101000a900473ffffffffffffffffffffffffffffffffffffffff1673ffffffffffffffffffffffffffffffffffffffff163373ffffffffffffffffffffffffffffffffffffffff161461063a57600080fd5b73c4375b7de8af5a38a93548eb8453a498222c4ff273ffffffffffffffffffffffffffffffffffffffff166323b872dd8330846040518463ffffffff1660e01b815260040161068b939291906112bf565b602060405180830381600087803b1580156106a557600080fd5b505af11580156106b9573d6000803e3d6000fd5b505050506040513d601f19601f820116820180604052506106dd91908101906111a5565b6106e657600080fd5b73c4375b7de8af5a38a93548eb8453a498222c4ff273ffffffffffffffffffffffffffffffffffffffff1663095ea7b373b6b09fbffba6a5c4631e5f7b2e3ee183ac259c0d7fffffffffffffffffffffffffffffffffffffffffffffffffffffffffffffffff6040518363ffffffff1660e01b81526004016107699291906112f6565b602060405180830381600087803b15801561078357600080fd5b505af1158015610797573d6000803e3d6000fd5b505050506040513d601f19601f820116820180604052506107bb91908101906111a5565b5060008060009054906101000a900473ffffffffffffffffffffffffffffffffffffffff1673ffffffffffffffffffffffffffffffffffffffff1663a0712d68836040518263ffffffff1660e01b8152600401610818919061137a565b602060405180830381600087803b15801561083257600080fd5b505af1158015610846573d6000803e3d6000fd5b505050506040513d601f19601f8201168201806040525061086a91908101906111ce565b146108aa576040517f08c379a00000000000000000000000000000000000000000000000000000000081526004016108a19061133a565b60405180910390fd5b60008060009054906101000a900473ffffffffffffffffffffffffffffffffffffffff1673ffffffffffffffffffffffffffffffffffffffff166370a08231306040518263ffffffff1660e01b815260040161090691906112a4565b60206040518083038186803b15801561091e57600080fd5b505afa158015610932573d6000803e3d6000fd5b505050506040513d601f19601f8201168201806040525061095691908101906111ce565b905073b6b09fbffba6a5c4631e5f7b2e3ee183ac259c0d73ffffffffffffffffffffffffffffffffffffffff1663a9059cbb84836040518363ffffffff1660e01b81526004016109a79291906112f6565b602060405180830381600087803b1580156109c157600080fd5b505af11580156109d5573d6000803e3d6000fd5b505050506040513d601f19601f820116820180604052506109f991908101906111a5565b50505050565b73863e41fe88288ebf3fcd91d8dbb679fb83fdfe1781565b7364a436ae831c1672ae81f674cab8b6775df3475c81565b73aaf64bfcc32d0f15873a02163e7e500671a4ffcd81565b73c72e74e474682680a414b506699bbca44ab9a93081565b7332d0e18f988f952eb3524ace762042381a2c39e581565b73c4375b7de8af5a38a93548eb8453a498222c4ff281565b600160009054906101000a900473ffffffffffffffffffffffffffffffffffffffff1681565b735595930d576aedf13945c83ce5aad827529a131081565b7325a01a05c188dacbcf1d61af55d4a5b4021f7eed81565b73f5d915570bc477f9b8d6c0e980aa81757a3aac3681565b73f4d791139ce033ad35db2b2201435fad668b1b6481565b73692f391bcc85cefce8c237c01e1f636bbd70ea4d81565b7354b44c6b18fc0b4a1010b21d524c338d1f8065f681565b734ec3570cadaaee08ae384779b0f3a45ef85289de81565b735595930d576aedf13945c83ce5aad827529a131081565b6000809054906101000a900473ffffffffffffffffffffffffffffffffffffffff1681565b73a71937147b55deb8a530c7229c442fd3f31b7db281565b600160009054906101000a900473ffffffffffffffffffffffffffffffffffffffff1673ffffffffffffffffffffffffffffffffffffffff163373ffffffffffffffffffffffffffffffffffffffff1614610c0c57600080fd5b73b6b09fbffba6a5c4631e5f7b2e3ee183ac259c0d73ffffffffffffffffffffffffffffffffffffffff166323b872dd833073b6b09fbffba6a5c4631e5f7b2e3ee183ac259c0d73ffffffffffffffffffffffffffffffffffffffff166370a08231876040518263ffffffff1660e01b8152600401610c8b91906112a4565b60206040518083038186803b158015610ca357600080fd5b505afa158015610cb7573d6000803e3d6000fd5b505050506040513d601f19601f82011682018060405250610cdb91908101906111ce565b6040518463ffffffff1660e01b8152600401610cf9939291906112bf565b602060405180830381600087803b158015610d1357600080fd5b505af1158015610d27573d6000803e3d6000fd5b505050506040513d601f19601f82011682018060405250610d4b91908101906111a5565b610d5457600080fd5b73b6b09fbffba6a5c4631e5f7b2e3ee183ac259c0d73ffffffffffffffffffffffffffffffffffffffff1663095ea7b36000809054906101000a900473ffffffffffffffffffffffffffffffffffffffff167fffffffffffffffffffffffffffffffffffffffffffffffffffffffffffffffff6040518363ffffffff1660e01b8152600401610de49291906112f6565b602060405180830381600087803b158015610dfe57600080fd5b505af1158015610e12573d6000803e3d6000fd5b505050506040513d601f19601f82011682018060405250610e3691908101906111a5565b5060008060009054906101000a900473ffffffffffffffffffffffffffffffffffffffff1673ffffffffffffffffffffffffffffffffffffffff1663852a12e3836040518263ffffffff1660e01b8152600401610e93919061137a565b602060405180830381600087803b158015610ead57600080fd5b505af1158015610ec1573d6000803e3d6000fd5b505050506040513d601f19601f82011682018060405250610ee591908101906111ce565b14610f25576040517f08c379a0000000000000000000000000000000000000000000000000000000008152600401610f1c9061135a565b60405180910390fd5b600073b6b09fbffba6a5c4631e5f7b2e3ee183ac259c0d73ffffffffffffffffffffffffffffffffffffffff166370a08231306040518263ffffffff1660e01b8152600401610f7491906112a4565b60206040518083038186803b158015610f8c57600080fd5b505afa158015610fa0573d6000803e3d6000fd5b505050506040513d601f19601f82011682018060405250610fc491908101906111ce565b905060008111156110725773b6b09fbffba6a5c4631e5f7b2e3ee183ac259c0d73ffffffffffffffffffffffffffffffffffffffff1663a9059cbb84836040518363ffffffff1660e01b815260040161101e9291906112f6565b602060405180830381600087803b15801561103857600080fd5b505af115801561104c573d6000803e3d6000fd5b505050506040513d601f19601f8201168201806040525061107091908101906111a5565b505b73c4375b7de8af5a38a93548eb8453a498222c4ff273ffffffffffffffffffffffffffffffffffffffff1663a9059cbb84846040518363ffffffff1660e01b81526004016110c19291906112f6565b602060405180830381600087803b1580156110db57600080fd5b505af11580156110ef573d6000803e3d6000fd5b505050506040513d601f19601f8201168201806040525061111391908101906111a5565b50505050565b600061112582356113e2565b905092915050565b600061113982516113f4565b905092915050565b600061114d8235611420565b905092915050565b60006111618251611420565b905092915050565b6000806040838503121561117c57600080fd5b600061118a85828601611119565b925050602061119b85828601611141565b9150509250929050565b6000602082840312156111b757600080fd5b60006111c58482850161112d565b91505092915050565b6000602082840312156111e057600080fd5b60006111ee84828501611155565b91505092915050565b611200816113a6565b82525050565b61120f8161142a565b82525050565b6000611222600b83611395565b91507f4661696c6564204d696e740000000000000000000000000000000000000000006000830152602082019050919050565b6000611262600d83611395565b91507f52656564656d204661696c6564000000000000000000000000000000000000006000830152602082019050919050565b61129e816113d8565b82525050565b60006020820190506112b960008301846111f7565b92915050565b60006060820190506112d460008301866111f7565b6112e160208301856111f7565b6112ee6040830184611295565b949350505050565b600060408201905061130b60008301856111f7565b6113186020830184611295565b9392505050565b60006020820190506113346000830184611206565b92915050565b6000602082019050818103600083015261135381611215565b9050919050565b6000602082019050818103600083015261137381611255565b9050919050565b600060208201905061138f6000830184611295565b92915050565b600082825260208201905092915050565b60006113b1826113b8565b9050919050565b600073ffffffffffffffffffffffffffffffffffffffff82169050919050565b6000819050919050565b60006113ed82611400565b9050919050565b60008115159050919050565b600073ffffffffffffffffffffffffffffffffffffffff82169050919050565b6000819050919050565b60006114358261143c565b9050919050565b6000611447826113b8565b905091905056fea265627a7a723058207a347d2477936f6c55136934766fd91d89459a5fe2fb03efd8bd366972a286346c6578706572696d656e74616cf50037",
  "source": "pragma solidity ^0.5.0;\npragma experimental ABIEncoderV2;\n\nimport \"../ProtocolInterface.sol\";\nimport \"../../interfaces/CTokenInterface.sol\";\nimport \"../../compound/Exponential.sol\";\nimport \"../../compound/StupidExchange.sol\";\nimport \"../../interfaces/ERC20.sol\";\nimport \"../../constants/ConstantAddresses.sol\";\n\n\ncontract CompoundSavingsProtocol is ProtocolInterface, Exponential, ConstantAddresses {\n\n    CTokenInterface public cDaiContract;\n    address public savingsProxy;\n\n    constructor(address _savingsProxy) public {\n        cDaiContract = CTokenInterface(CDAI_ADDRESS);\n        savingsProxy = _savingsProxy;\n    }\n\n    function deposit(address _user, uint _amount) public {\n        require(msg.sender == savingsProxy);\n        // get dai from user\n        require(ERC20(MAKER_DAI_ADDRESS).transferFrom(_user, address(this), _amount));\n\n        // // REMOVE: USED ONLY ON KOVAN TO HANDLE DAI DIFFERENT TOKENS\n        // StupidExchange(STUPID_EXCHANGE).getCompoundDaiToken(_amount);\n        // // approve dai to compound\n        // ERC20(COMPOUND_DAI_ADDRESS).approve(CDAI_ADDRESS, uint(-1));\n\n        // mainnet only\n        ERC20(MAKER_DAI_ADDRESS).approve(CDAI_ADDRESS, uint(-1));\n\n        // mint cDai\n        require(cDaiContract.mint(_amount) == 0, \"Failed Mint\");\n        // balance should be equal to cDai minted\n        uint cDaiMinted = cDaiContract.balanceOf(address(this));\n        // return cDai to user\n        ERC20(CDAI_ADDRESS).transfer(_user, cDaiMinted);\n    }\n\n    function withdraw(address _user, uint _amount) public {\n        require(msg.sender == savingsProxy);\n        // transfer all users balance to this contract\n        require(ERC20(CDAI_ADDRESS).transferFrom(_user, address(this), ERC20(CDAI_ADDRESS).balanceOf(_user)));\n        // approve cDai to compound contract\n        ERC20(CDAI_ADDRESS).approve(address(cDaiContract), uint(-1));\n        // get dai from cDai contract\n        require(cDaiContract.redeemUnderlying(_amount) == 0, \"Reedem Failed\");\n\n        // REMOVE: USED ONLY ON KOVAN TO HANDLE DAI DIFFERENT TOKENS\n        // StupidExchange(STUPID_EXCHANGE).getMakerDaiToken(_amount);\n\n        // return to user balance we didn't spend\n        uint cDaiBalance = ERC20(CDAI_ADDRESS).balanceOf(address(this));\n        if (cDaiBalance > 0) {\n            ERC20(CDAI_ADDRESS).transfer(_user, cDaiBalance);\n        }\n        // return dai we have to user\n        ERC20(MAKER_DAI_ADDRESS).transfer(_user, _amount);\n    }\n}\n",
  "sourcePath": "/Users/nikolaklipa/Decenter/defisaver/cdpsaver-contracts/contracts/savings/compound/CompoundSavingsProtocol.sol",
  "compiler": {
    "name": "solc",
    "version": "0.5.7+commit.6da8b019.Emscripten.clang"
  },
  "schemaVersion": "3.0.9",
  "updatedAt": "2019-08-12T14:29:47.328Z",
  "devdoc": {
    "methods": {}
  },
  "userdoc": {
    "methods": {}
  }
}