{
  "contractName": "CompoundSavingsProtocol",
  "abi": [
    {
      "constant": true,
      "inputs": [],
      "name": "CDAI_ADDRESS",
      "outputs": [
        {
          "name": "",
          "type": "address"
        }
      ],
      "payable": false,
      "stateMutability": "view",
      "type": "function"
    },
    {
      "constant": true,
      "inputs": [],
      "name": "MAKER_DAI_ADDRESS",
      "outputs": [
        {
          "name": "",
          "type": "address"
        }
      ],
      "payable": false,
      "stateMutability": "view",
      "type": "function"
    },
    {
      "constant": true,
      "inputs": [],
      "name": "cDaiContract",
      "outputs": [
        {
          "name": "",
          "type": "address"
        }
      ],
      "payable": false,
      "stateMutability": "view",
      "type": "function"
    },
    {
      "inputs": [],
      "payable": false,
      "stateMutability": "nonpayable",
      "type": "constructor"
    },
    {
      "constant": false,
      "inputs": [
        {
          "name": "_user",
          "type": "address"
        },
        {
          "name": "_amount",
          "type": "uint256"
        }
      ],
      "name": "deposit",
      "outputs": [],
      "payable": false,
      "stateMutability": "nonpayable",
      "type": "function"
    },
    {
      "constant": false,
      "inputs": [
        {
          "name": "_user",
          "type": "address"
        },
        {
          "name": "_amount",
          "type": "uint256"
        }
      ],
      "name": "withdraw",
      "outputs": [],
      "payable": false,
      "stateMutability": "nonpayable",
      "type": "function"
    }
  ],
  "bytecode": "0x608060405234801561001057600080fd5b5073f5dce57282a584d2746faf1593d3121fcac444dc6000806101000a81548173ffffffffffffffffffffffffffffffffffffffff021916908373ffffffffffffffffffffffffffffffffffffffff160217905550610d84806100746000396000f3fe608060405234801561001057600080fd5b50600436106100575760003560e01c80630531b2ad1461005c57806347e7ef241461007a5780639da779e914610096578063edb6bff4146100b4578063f3fef3a3146100d2575b600080fd5b6100646100ee565b6040516100719190610ba0565b60405180910390f35b610094600480360361008f9190810190610a65565b610106565b005b61009e6104cb565b6040516100ab9190610ba0565b60405180910390f35b6100bc6104e3565b6040516100c99190610c1b565b60405180910390f35b6100ec60048036036100e79190810190610a65565b610508565b005b73f5dce57282a584d2746faf1593d3121fcac444dc81565b7389d24a6b4ccb1b6faa2625fe562bdd9a2326035973ffffffffffffffffffffffffffffffffffffffff166323b872dd8330846040518463ffffffff1660e01b815260040161015793929190610bbb565b602060405180830381600087803b15801561017157600080fd5b505af1158015610185573d6000803e3d6000fd5b505050506040513d601f19601f820116820180604052506101a99190810190610aa1565b6101b257600080fd5b7389d24a6b4ccb1b6faa2625fe562bdd9a2326035973ffffffffffffffffffffffffffffffffffffffff1663095ea7b373f5dce57282a584d2746faf1593d3121fcac444dc7fffffffffffffffffffffffffffffffffffffffffffffffffffffffffffffffff6040518363ffffffff1660e01b8152600401610235929190610bf2565b602060405180830381600087803b15801561024f57600080fd5b505af1158015610263573d6000803e3d6000fd5b505050506040513d601f19601f820116820180604052506102879190810190610aa1565b5060008060009054906101000a900473ffffffffffffffffffffffffffffffffffffffff1673ffffffffffffffffffffffffffffffffffffffff1663a0712d68836040518263ffffffff1660e01b81526004016102e49190610c76565b602060405180830381600087803b1580156102fe57600080fd5b505af1158015610312573d6000803e3d6000fd5b505050506040513d601f19601f820116820180604052506103369190810190610aca565b14610376576040517f08c379a000000000000000000000000000000000000000000000000000000000815260040161036d90610c36565b60405180910390fd5b60008060009054906101000a900473ffffffffffffffffffffffffffffffffffffffff1673ffffffffffffffffffffffffffffffffffffffff166370a08231306040518263ffffffff1660e01b81526004016103d29190610ba0565b60206040518083038186803b1580156103ea57600080fd5b505afa1580156103fe573d6000803e3d6000fd5b505050506040513d601f19601f820116820180604052506104229190810190610aca565b905073f5dce57282a584d2746faf1593d3121fcac444dc73ffffffffffffffffffffffffffffffffffffffff1663a9059cbb84836040518363ffffffff1660e01b8152600401610473929190610bf2565b602060405180830381600087803b15801561048d57600080fd5b505af11580156104a1573d6000803e3d6000fd5b505050506040513d601f19601f820116820180604052506104c59190810190610aa1565b50505050565b7389d24a6b4ccb1b6faa2625fe562bdd9a2326035981565b6000809054906101000a900473ffffffffffffffffffffffffffffffffffffffff1681565b73f5dce57282a584d2746faf1593d3121fcac444dc73ffffffffffffffffffffffffffffffffffffffff166323b872dd833073f5dce57282a584d2746faf1593d3121fcac444dc73ffffffffffffffffffffffffffffffffffffffff166370a08231876040518263ffffffff1660e01b81526004016105879190610ba0565b60206040518083038186803b15801561059f57600080fd5b505afa1580156105b3573d6000803e3d6000fd5b505050506040513d601f19601f820116820180604052506105d79190810190610aca565b6040518463ffffffff1660e01b81526004016105f593929190610bbb565b602060405180830381600087803b15801561060f57600080fd5b505af1158015610623573d6000803e3d6000fd5b505050506040513d601f19601f820116820180604052506106479190810190610aa1565b61065057600080fd5b73f5dce57282a584d2746faf1593d3121fcac444dc73ffffffffffffffffffffffffffffffffffffffff1663095ea7b36000809054906101000a900473ffffffffffffffffffffffffffffffffffffffff167fffffffffffffffffffffffffffffffffffffffffffffffffffffffffffffffff6040518363ffffffff1660e01b81526004016106e0929190610bf2565b602060405180830381600087803b1580156106fa57600080fd5b505af115801561070e573d6000803e3d6000fd5b505050506040513d601f19601f820116820180604052506107329190810190610aa1565b5060008060009054906101000a900473ffffffffffffffffffffffffffffffffffffffff1673ffffffffffffffffffffffffffffffffffffffff1663852a12e3836040518263ffffffff1660e01b815260040161078f9190610c76565b602060405180830381600087803b1580156107a957600080fd5b505af11580156107bd573d6000803e3d6000fd5b505050506040513d601f19601f820116820180604052506107e19190810190610aca565b14610821576040517f08c379a000000000000000000000000000000000000000000000000000000000815260040161081890610c56565b60405180910390fd5b600073f5dce57282a584d2746faf1593d3121fcac444dc73ffffffffffffffffffffffffffffffffffffffff166370a08231306040518263ffffffff1660e01b81526004016108709190610ba0565b60206040518083038186803b15801561088857600080fd5b505afa15801561089c573d6000803e3d6000fd5b505050506040513d601f19601f820116820180604052506108c09190810190610aca565b9050600081111561096e5773f5dce57282a584d2746faf1593d3121fcac444dc73ffffffffffffffffffffffffffffffffffffffff1663a9059cbb84836040518363ffffffff1660e01b815260040161091a929190610bf2565b602060405180830381600087803b15801561093457600080fd5b505af1158015610948573d6000803e3d6000fd5b505050506040513d601f19601f8201168201806040525061096c9190810190610aa1565b505b7389d24a6b4ccb1b6faa2625fe562bdd9a2326035973ffffffffffffffffffffffffffffffffffffffff1663a9059cbb84846040518363ffffffff1660e01b81526004016109bd929190610bf2565b602060405180830381600087803b1580156109d757600080fd5b505af11580156109eb573d6000803e3d6000fd5b505050506040513d601f19601f82011682018060405250610a0f9190810190610aa1565b50505050565b6000610a218235610cde565b905092915050565b6000610a358251610cf0565b905092915050565b6000610a498235610d1c565b905092915050565b6000610a5d8251610d1c565b905092915050565b60008060408385031215610a7857600080fd5b6000610a8685828601610a15565b9250506020610a9785828601610a3d565b9150509250929050565b600060208284031215610ab357600080fd5b6000610ac184828501610a29565b91505092915050565b600060208284031215610adc57600080fd5b6000610aea84828501610a51565b91505092915050565b610afc81610ca2565b82525050565b610b0b81610d26565b82525050565b6000610b1e600b83610c91565b91507f4661696c6564204d696e740000000000000000000000000000000000000000006000830152602082019050919050565b6000610b5e600d83610c91565b91507f52656564656d204661696c6564000000000000000000000000000000000000006000830152602082019050919050565b610b9a81610cd4565b82525050565b6000602082019050610bb56000830184610af3565b92915050565b6000606082019050610bd06000830186610af3565b610bdd6020830185610af3565b610bea6040830184610b91565b949350505050565b6000604082019050610c076000830185610af3565b610c146020830184610b91565b9392505050565b6000602082019050610c306000830184610b02565b92915050565b60006020820190508181036000830152610c4f81610b11565b9050919050565b60006020820190508181036000830152610c6f81610b51565b9050919050565b6000602082019050610c8b6000830184610b91565b92915050565b600082825260208201905092915050565b6000610cad82610cb4565b9050919050565b600073ffffffffffffffffffffffffffffffffffffffff82169050919050565b6000819050919050565b6000610ce982610cfc565b9050919050565b60008115159050919050565b600073ffffffffffffffffffffffffffffffffffffffff82169050919050565b6000819050919050565b6000610d3182610d38565b9050919050565b6000610d4382610cb4565b905091905056fea265627a7a72305820d7d6b3c2a559b1f4022bdc28604c01e929213a94f76aa174cedc17064f63cebf6c6578706572696d656e74616cf50037",
  "source": "pragma solidity ^0.5.0;\npragma experimental ABIEncoderV2;\n\nimport \"../ProtocolInterface.sol\";\nimport \"../../interfaces/CTokenInterface.sol\";\nimport \"../../compound/Exponential.sol\";\nimport \"../../compound/StupidExchange.sol\";\nimport \"../../interfaces/ERC20.sol\";\n\ncontract CompoundSavingsProtocol is ProtocolInterface, Exponential {\n\n    // kovan\n    // address public constant MAKER_DAI_ADDRESS = 0xC4375B7De8af5a38a93548eb8453a498222C4fF2;\n    // address public constant CDAI_ADDRESS = 0xb6b09fBffBa6A5C4631e5F7B2e3Ee183aC259c0d;\n    // address public constant COMPOUND_DAI_ADDRESS = 0x25a01a05C188DaCBCf1D61Af55D4a5B4021F7eeD;\n    // address public constant STUPID_EXCHANGE = 0x863E41FE88288ebf3fcd91d8Dbb679fb83fdfE17;\n\n    // mainnet\n    address public constant MAKER_DAI_ADDRESS = 0x89d24A6b4CcB1B6fAA2625fE562bDD9a23260359;\n    address public constant CDAI_ADDRESS = 0xF5DCe57282A584D2746FaF1593d3121Fcac444dC;\n\n\n    CTokenInterface public cDaiContract;\n\n    constructor() public {\n        cDaiContract = CTokenInterface(CDAI_ADDRESS);\n    }\n\n    function deposit(address _user, uint _amount) public {\n        // get dai from user\n        require(ERC20(MAKER_DAI_ADDRESS).transferFrom(_user, address(this), _amount));\n\n        // // REMOVE: USED ONLY ON KOVAN TO HANDLE DAI DIFFERENT TOKENS\n        // StupidExchange(STUPID_EXCHANGE).getCompoundDaiToken(_amount);\n        // // approve dai to compound\n        // ERC20(COMPOUND_DAI_ADDRESS).approve(CDAI_ADDRESS, uint(-1));\n\n        // mainnet only\n        ERC20(MAKER_DAI_ADDRESS).approve(CDAI_ADDRESS, uint(-1));\n\n        // mint cDai\n        require(cDaiContract.mint(_amount) == 0, \"Failed Mint\");\n        // balance should be equal to cDai minted\n        uint cDaiMinted = cDaiContract.balanceOf(address(this));\n        // return cDai to user\n        ERC20(CDAI_ADDRESS).transfer(_user, cDaiMinted);\n    }\n\n    function withdraw(address _user, uint _amount) public {\n        // transfer all users balance to this contract\n        require(ERC20(CDAI_ADDRESS).transferFrom(_user, address(this), ERC20(CDAI_ADDRESS).balanceOf(_user)));\n        // approve cDai to compound contract\n        ERC20(CDAI_ADDRESS).approve(address(cDaiContract), uint(-1));\n        // get dai from cDai contract\n        require(cDaiContract.redeemUnderlying(_amount) == 0, \"Reedem Failed\");\n\n        // REMOVE: USED ONLY ON KOVAN TO HANDLE DAI DIFFERENT TOKENS\n        // StupidExchange(STUPID_EXCHANGE).getMakerDaiToken(_amount);\n\n        // return to user balance we didn't spend\n        uint cDaiBalance = ERC20(CDAI_ADDRESS).balanceOf(address(this));\n        if (cDaiBalance > 0) {\n            ERC20(CDAI_ADDRESS).transfer(_user, cDaiBalance);\n        }\n        // return dai we have to user\n        ERC20(MAKER_DAI_ADDRESS).transfer(_user, _amount);\n    }\n}\n",
  "sourcePath": "/Users/nikolaklipa/Decenter/defisaver/cdpsaver-contracts/contracts/savings/compound/CompoundSavingsProtocol.sol",
  "compiler": {
    "name": "solc",
    "version": "0.5.7+commit.6da8b019.Emscripten.clang"
  },
  "schemaVersion": "3.0.9",
  "updatedAt": "2019-08-08T17:51:31.852Z",
  "devdoc": {
    "methods": {}
  },
  "userdoc": {
    "methods": {}
  }
}