{
  "contractName": "CompoundSavingsProtocol",
  "abi": [
    {
      "constant": true,
      "inputs": [],
      "name": "WETH_ADDRESS",
      "outputs": [
        {
          "name": "",
          "type": "address"
        }
      ],
      "payable": false,
      "stateMutability": "view",
      "type": "function"
    },
    {
      "constant": true,
      "inputs": [],
      "name": "CDAI_ADDRESS",
      "outputs": [
        {
          "name": "",
          "type": "address"
        }
      ],
      "payable": false,
      "stateMutability": "view",
      "type": "function"
    },
    {
      "constant": false,
      "inputs": [
        {
          "name": "owner_",
          "type": "address"
        }
      ],
      "name": "setOwner",
      "outputs": [
        {
          "name": "",
          "type": "address"
        }
      ],
      "payable": false,
      "stateMutability": "nonpayable",
      "type": "function"
    },
    {
      "constant": true,
      "inputs": [],
      "name": "PIP_INTERFACE_ADDRESS",
      "outputs": [
        {
          "name": "",
          "type": "address"
        }
      ],
      "payable": false,
      "stateMutability": "view",
      "type": "function"
    },
    {
      "inputs": [
        {
          "name": "_savingsProxy",
          "type": "address"
        }
      ],
      "payable": false,
      "stateMutability": "view",
      "type": "function",
      "constant": true,
      "name": "KYBER_ETH_ADDRESS",
      "outputs": [
        {
          "name": "",
          "type": "address"
        }
      ]
    },
    {
      "constant": true,
      "inputs": [
        {
          "name": "_user",
          "type": "address"
        },
        {
          "name": "_amount",
          "type": "uint256"
        }
      ],
      "name": "OTC_ADDRESS",
      "outputs": [
        {
          "name": "",
          "type": "address"
        }
      ],
      "payable": false,
      "stateMutability": "view",
      "type": "function"
    },
    {
      "constant": true,
      "inputs": [
        {
          "name": "_user",
          "type": "address"
        },
        {
          "name": "_amount",
          "type": "uint256"
        }
      ],
      "name": "IDAI_ADDRESS",
      "outputs": [
        {
          "name": "",
          "type": "address"
        }
      ],
      "payable": false,
      "stateMutability": "view",
      "type": "function"
    },
    {
      "constant": true,
      "inputs": [],
      "name": "GAS_TOKEN_INTERFACE_ADDRESS",
      "outputs": [
        {
          "name": "",
          "type": "address"
        }
      ],
      "payable": false,
      "stateMutability": "view",
      "type": "function"
    },
    {
      "constant": true,
      "inputs": [],
      "name": "VOX_ADDRESS",
      "outputs": [
        {
          "name": "",
          "type": "address"
        }
      ],
      "payable": false,
      "stateMutability": "view",
      "type": "function"
    },
    {
      "constant": true,
      "inputs": [],
      "name": "ETH2DAI_WRAPPER",
      "outputs": [
        {
          "name": "",
          "type": "address"
        }
      ],
      "payable": false,
      "stateMutability": "view",
      "type": "function"
    },
    {
      "constant": true,
      "inputs": [],
      "name": "STUPID_EXCHANGE",
      "outputs": [
        {
          "name": "",
          "type": "address"
        }
      ],
      "payable": false,
      "stateMutability": "view",
      "type": "function"
    },
    {
      "constant": true,
      "inputs": [],
      "name": "PROXY_REGISTRY_INTERFACE_ADDRESS",
      "outputs": [
        {
          "name": "",
          "type": "address"
        }
      ],
      "payable": false,
      "stateMutability": "view",
      "type": "function"
    },
    {
      "constant": false,
      "inputs": [
        {
          "name": "authority_",
          "type": "address"
        }
      ],
      "name": "setAuthority",
      "outputs": [
        {
          "name": "",
          "type": "address"
        }
      ],
      "payable": false,
      "stateMutability": "nonpayable",
      "type": "function"
    },
    {
      "constant": true,
      "inputs": [],
      "name": "MKR_ADDRESS",
      "outputs": [
        {
          "name": "",
          "type": "address"
        }
      ],
      "payable": false,
      "stateMutability": "view",
      "type": "function"
    },
    {
      "constant": true,
      "inputs": [],
      "name": "FACTORY_ADDRESS",
      "outputs": [
        {
          "name": "",
          "type": "address"
        }
      ],
      "payable": false,
      "stateMutability": "view",
      "type": "function"
    },
    {
      "constant": true,
      "inputs": [],
      "name": "owner",
      "outputs": [
        {
          "name": "",
          "type": "address"
        }
      ],
      "payable": false,
      "stateMutability": "view",
      "type": "function"
    },
    {
      "constant": true,
      "inputs": [],
      "name": "LOGGER_ADDRESS",
      "outputs": [
        {
          "name": "",
          "type": "address"
        }
      ],
      "payable": false,
      "stateMutability": "view",
      "type": "function"
    },
    {
      "constant": true,
      "inputs": [],
      "name": "MAKER_DAI_ADDRESS",
      "outputs": [
        {
          "name": "",
          "type": "address"
        }
      ],
      "payable": false,
      "stateMutability": "view",
      "type": "function"
    },
    {
      "constant": true,
      "inputs": [],
      "name": "savingsProxy",
      "outputs": [
        {
          "name": "",
          "type": "address"
        }
      ],
      "payable": false,
      "stateMutability": "view",
      "type": "function"
    },
    {
      "constant": true,
      "inputs": [],
      "name": "KYBER_WRAPPER",
      "outputs": [
        {
          "name": "",
          "type": "address"
        }
      ],
      "payable": false,
      "stateMutability": "view",
      "type": "function"
    },
    {
      "constant": true,
      "inputs": [],
      "name": "authority",
      "outputs": [
        {
          "name": "",
          "type": "address"
        }
      ],
      "payable": false,
      "stateMutability": "view",
      "type": "function"
    },
    {
      "constant": true,
      "inputs": [],
      "name": "COMPOUND_DAI_ADDRESS",
      "outputs": [
        {
          "name": "",
          "type": "address"
        }
      ],
      "payable": false,
      "stateMutability": "view",
      "type": "function"
    },
    {
      "constant": true,
      "inputs": [],
      "name": "UNISWAP_FACTORY",
      "outputs": [
        {
          "name": "",
          "type": "address"
        }
      ],
      "payable": false,
      "stateMutability": "view",
      "type": "function"
    },
    {
      "constant": true,
      "inputs": [],
      "name": "PETH_ADDRESS",
      "outputs": [
        {
          "name": "",
          "type": "address"
        }
      ],
      "payable": false,
      "stateMutability": "view",
      "type": "function"
    },
    {
      "constant": true,
      "inputs": [],
      "name": "KYBER_INTERFACE",
      "outputs": [
        {
          "name": "",
          "type": "address"
        }
      ],
      "payable": false,
      "stateMutability": "view",
      "type": "function"
    },
    {
      "constant": true,
      "inputs": [],
      "name": "WALLET_ID",
      "outputs": [
        {
          "name": "",
          "type": "address"
        }
      ],
      "payable": false,
      "stateMutability": "view",
      "type": "function"
    },
    {
      "constant": true,
      "inputs": [
        {
          "name": "_savingsProxy",
          "type": "address"
        }
      ],
      "name": "SOLO_MARGIN_ADDRESS",
      "outputs": [
        {
          "name": "",
          "type": "address"
        }
      ],
      "payable": false,
      "stateMutability": "view",
      "type": "function"
    },
    {
      "inputs": [
        {
          "name": "_user",
          "type": "address"
        },
        {
          "name": "_amount",
          "type": "uint256"
        }
      ],
      "payable": false,
      "stateMutability": "view",
      "type": "function",
      "constant": true,
      "name": "UNISWAP_WRAPPER",
      "outputs": [
        {
          "name": "",
          "type": "address"
        }
      ]
    },
    {
      "constant": true,
      "inputs": [
        {
          "name": "_user",
          "type": "address"
        },
        {
          "name": "_amount",
          "type": "uint256"
        }
      ],
      "name": "cDaiContract",
      "outputs": [
        {
          "name": "",
          "type": "address"
        }
      ],
      "payable": false,
      "stateMutability": "view",
      "type": "function"
    },
    {
      "constant": true,
      "inputs": [
        {
          "name": "_user",
          "type": "address"
        },
        {
          "name": "_amount",
          "type": "uint256"
        }
      ],
      "name": "TUB_ADDRESS",
      "outputs": [
        {
          "name": "",
          "type": "address"
        }
      ],
      "payable": false,
      "stateMutability": "view",
      "type": "function"
    },
    {
      "inputs": [],
      "payable": false,
      "stateMutability": "nonpayable",
      "type": "constructor"
    },
    {
      "anonymous": false,
      "inputs": [
        {
          "indexed": true,
          "name": "authority",
          "type": "address"
        }
      ],
      "name": "LogSetAuthority",
      "type": "event"
    },
    {
      "anonymous": false,
      "inputs": [
        {
          "indexed": true,
          "name": "owner",
          "type": "address"
        }
      ],
      "name": "LogSetOwner",
      "type": "event"
    },
    {
      "constant": false,
      "inputs": [
        {
          "name": "_savingsProxy",
          "type": "address"
        }
      ],
      "name": "addSavingsProxy",
      "outputs": [],
      "payable": false,
      "stateMutability": "nonpayable",
      "type": "function"
    },
    {
      "constant": false,
      "inputs": [
        {
          "name": "_user",
          "type": "address"
        },
        {
          "name": "_amount",
          "type": "uint256"
        }
      ],
      "name": "deposit",
      "outputs": [],
      "payable": false,
      "stateMutability": "nonpayable",
      "type": "function"
    },
    {
      "constant": false,
      "inputs": [
        {
          "name": "_user",
          "type": "address"
        },
        {
          "name": "_amount",
          "type": "uint256"
        }
      ],
      "name": "withdraw",
      "outputs": [],
      "payable": false,
      "stateMutability": "nonpayable",
      "type": "function"
    }
  ],
  "bytecode": "0x608060405234801561001057600080fd5b5033600160006101000a81548173ffffffffffffffffffffffffffffffffffffffff021916908373ffffffffffffffffffffffffffffffffffffffff1602179055503373ffffffffffffffffffffffffffffffffffffffff167fce241d7ca1f669fee44b6fc00b8eba2df3bb514eed0f6f668f8f89096e81ed9460405160405180910390a273b6b09fbffba6a5c4631e5f7b2e3ee183ac259c0d600260006101000a81548173ffffffffffffffffffffffffffffffffffffffff021916908373ffffffffffffffffffffffffffffffffffffffff160217905550611ac4806100f96000396000f3fe608060405234801561001057600080fd5b50600436106101fb5760003560e01c80638823151b1161011a578063c74c0fac116100ad578063d36b907d1161007c578063d36b907d14610540578063ddaa293c1461055e578063edb6bff41461057c578063f0d405e51461059a578063f3fef3a3146105b8576101fb565b8063c74c0fac146104c8578063c9fde270146104e6578063ce9bde1d14610504578063d3661fa514610522576101fb565b8063a683668c116100e9578063a683668c14610450578063b175afa11461046e578063bf7e214f1461048c578063c16921b7146104aa576101fb565b80638823151b146103d85780638da5cb5b146103f657806394bfbe74146104145780639da779e914610432576101fb565b806332ac5cd211610192578063502237d711610161578063502237d714610362578063728c0092146103805780637a9e5e4b1461039e578063825ffd92146103ba576101fb565b806332ac5cd2146102ec57806336e6da111461030a57806343fb75e81461032857806347e7ef2414610346576101fb565b80631dab52b0116101ce5780631dab52b01461027457806329f7fc9e146102925780632a441f05146102b05780632d5eeb3f146102ce576101fb565b8063040141e5146102005780630531b2ad1461021e5780630b6cd37e1461023c57806313af403514610258575b600080fd5b6102086105d4565b604051610215919061182c565b60405180910390f35b6102266105ec565b604051610233919061182c565b60405180910390f35b61025660048036036102519190810190611681565b610604565b005b610272600480360361026d9190810190611681565b61067f565b005b61027c61075f565b604051610289919061182c565b60405180910390f35b61029a610777565b6040516102a7919061182c565b60405180910390f35b6102b861078f565b6040516102c5919061182c565b60405180910390f35b6102d66107a7565b6040516102e3919061182c565b60405180910390f35b6102f46107bf565b604051610301919061182c565b60405180910390f35b6103126107d2565b60405161031f919061182c565b60405180910390f35b6103306107ea565b60405161033d919061182c565b60405180910390f35b610360600480360361035b91908101906116aa565b610802565b005b61036a610c23565b604051610377919061182c565b60405180910390f35b610388610c3b565b604051610395919061182c565b60405180910390f35b6103b860048036036103b3919081019061170f565b610c53565b005b6103c2610d31565b6040516103cf919061182c565b60405180910390f35b6103e0610d49565b6040516103ed919061182c565b60405180910390f35b6103fe610d61565b60405161040b919061182c565b60405180910390f35b61041c610d87565b604051610429919061182c565b60405180910390f35b61043a610d9f565b604051610447919061182c565b60405180910390f35b610458610db7565b604051610465919061182c565b60405180910390f35b610476610ddd565b604051610483919061182c565b60405180910390f35b610494610df5565b6040516104a191906118f9565b60405180910390f35b6104b2610e1a565b6040516104bf919061182c565b60405180910390f35b6104d0610e32565b6040516104dd919061182c565b60405180910390f35b6104ee610e4a565b6040516104fb919061182c565b60405180910390f35b61050c610e62565b604051610519919061182c565b60405180910390f35b61052a610e7a565b604051610537919061182c565b60405180910390f35b610548610e92565b604051610555919061182c565b60405180910390f35b610566610eaa565b604051610573919061182c565b60405180910390f35b610584610ec2565b60405161059191906118de565b60405180910390f35b6105a2610ee8565b6040516105af919061182c565b60405180910390f35b6105d260048036036105cd91908101906116aa565b610f00565b005b73d0a1e359811322d97991e03f863a0c30c2cf029c81565b73b6b09fbffba6a5c4631e5f7b2e3ee183ac259c0d81565b610632336000357fffffffff0000000000000000000000000000000000000000000000000000000016611469565b61063b57600080fd5b80600360006101000a81548173ffffffffffffffffffffffffffffffffffffffff021916908373ffffffffffffffffffffffffffffffffffffffff16021790555050565b6106ad336000357fffffffff0000000000000000000000000000000000000000000000000000000016611469565b6106b657600080fd5b80600160006101000a81548173ffffffffffffffffffffffffffffffffffffffff021916908373ffffffffffffffffffffffffffffffffffffffff160217905550600160009054906101000a900473ffffffffffffffffffffffffffffffffffffffff1673ffffffffffffffffffffffffffffffffffffffff167fce241d7ca1f669fee44b6fc00b8eba2df3bb514eed0f6f668f8f89096e81ed9460405160405180910390a250565b73a944bd4b25c9f186a846fd5668941aa3d3b8425f81565b73eeeeeeeeeeeeeeeeeeeeeeeeeeeeeeeeeeeeeeee81565b734a6bc4e803c62081ffebcc8d227b5a87a58f1f8f81565b73b6b09fbffba6a5c4631e5f7b2e3ee183ac259c0d81565b6e170ccc93903185be5a2094c870df6281565b73bb4339c0ab5b1d9f14bd6e3426444a1e9d86a1d981565b73823cde416973a19f98bb9c96d97f4fe6c9a7238b81565b600360009054906101000a900473ffffffffffffffffffffffffffffffffffffffff1673ffffffffffffffffffffffffffffffffffffffff163373ffffffffffffffffffffffffffffffffffffffff161461085c57600080fd5b73c4375b7de8af5a38a93548eb8453a498222c4ff273ffffffffffffffffffffffffffffffffffffffff166323b872dd8330846040518463ffffffff1660e01b81526004016108ad9392919061187e565b602060405180830381600087803b1580156108c757600080fd5b505af11580156108db573d6000803e3d6000fd5b505050506040513d601f19601f820116820180604052506108ff91908101906116e6565b61090857600080fd5b73c4375b7de8af5a38a93548eb8453a498222c4ff273ffffffffffffffffffffffffffffffffffffffff1663095ea7b373b6b09fbffba6a5c4631e5f7b2e3ee183ac259c0d7fffffffffffffffffffffffffffffffffffffffffffffffffffffffffffffffff6040518363ffffffff1660e01b815260040161098b9291906118b5565b602060405180830381600087803b1580156109a557600080fd5b505af11580156109b9573d6000803e3d6000fd5b505050506040513d601f19601f820116820180604052506109dd91908101906116e6565b506000600260009054906101000a900473ffffffffffffffffffffffffffffffffffffffff1673ffffffffffffffffffffffffffffffffffffffff1663a0712d68836040518263ffffffff1660e01b8152600401610a3b9190611954565b602060405180830381600087803b158015610a5557600080fd5b505af1158015610a69573d6000803e3d6000fd5b505050506040513d601f19601f82011682018060405250610a8d9190810190611738565b14610acd576040517f08c379a0000000000000000000000000000000000000000000000000000000008152600401610ac490611914565b60405180910390fd5b6000600260009054906101000a900473ffffffffffffffffffffffffffffffffffffffff1673ffffffffffffffffffffffffffffffffffffffff166370a08231306040518263ffffffff1660e01b8152600401610b2a919061182c565b60206040518083038186803b158015610b4257600080fd5b505afa158015610b56573d6000803e3d6000fd5b505050506040513d601f19601f82011682018060405250610b7a9190810190611738565b905073b6b09fbffba6a5c4631e5f7b2e3ee183ac259c0d73ffffffffffffffffffffffffffffffffffffffff1663a9059cbb84836040518363ffffffff1660e01b8152600401610bcb9291906118b5565b602060405180830381600087803b158015610be557600080fd5b505af1158015610bf9573d6000803e3d6000fd5b505050506040513d601f19601f82011682018060405250610c1d91908101906116e6565b50505050565b73863e41fe88288ebf3fcd91d8dbb679fb83fdfe1781565b7364a436ae831c1672ae81f674cab8b6775df3475c81565b610c81336000357fffffffff0000000000000000000000000000000000000000000000000000000016611469565b610c8a57600080fd5b806000806101000a81548173ffffffffffffffffffffffffffffffffffffffff021916908373ffffffffffffffffffffffffffffffffffffffff1602179055506000809054906101000a900473ffffffffffffffffffffffffffffffffffffffff1673ffffffffffffffffffffffffffffffffffffffff167f1abebea81bfa2637f28358c371278fb15ede7ea8dd28d2e03b112ff6d936ada460405160405180910390a250565b73aaf64bfcc32d0f15873a02163e7e500671a4ffcd81565b73c72e74e474682680a414b506699bbca44ab9a93081565b600160009054906101000a900473ffffffffffffffffffffffffffffffffffffffff1681565b7332d0e18f988f952eb3524ace762042381a2c39e581565b73c4375b7de8af5a38a93548eb8453a498222c4ff281565b600360009054906101000a900473ffffffffffffffffffffffffffffffffffffffff1681565b735595930d576aedf13945c83ce5aad827529a131081565b6000809054906101000a900473ffffffffffffffffffffffffffffffffffffffff1681565b7325a01a05c188dacbcf1d61af55d4a5b4021f7eed81565b73f5d915570bc477f9b8d6c0e980aa81757a3aac3681565b73f4d791139ce033ad35db2b2201435fad668b1b6481565b73692f391bcc85cefce8c237c01e1f636bbd70ea4d81565b7354b44c6b18fc0b4a1010b21d524c338d1f8065f681565b734ec3570cadaaee08ae384779b0f3a45ef85289de81565b735595930d576aedf13945c83ce5aad827529a131081565b600260009054906101000a900473ffffffffffffffffffffffffffffffffffffffff1681565b73a71937147b55deb8a530c7229c442fd3f31b7db281565b600360009054906101000a900473ffffffffffffffffffffffffffffffffffffffff1673ffffffffffffffffffffffffffffffffffffffff163373ffffffffffffffffffffffffffffffffffffffff1614610f5a57600080fd5b73b6b09fbffba6a5c4631e5f7b2e3ee183ac259c0d73ffffffffffffffffffffffffffffffffffffffff166323b872dd833073b6b09fbffba6a5c4631e5f7b2e3ee183ac259c0d73ffffffffffffffffffffffffffffffffffffffff166370a08231876040518263ffffffff1660e01b8152600401610fd9919061182c565b60206040518083038186803b158015610ff157600080fd5b505afa158015611005573d6000803e3d6000fd5b505050506040513d601f19601f820116820180604052506110299190810190611738565b6040518463ffffffff1660e01b81526004016110479392919061187e565b602060405180830381600087803b15801561106157600080fd5b505af1158015611075573d6000803e3d6000fd5b505050506040513d601f19601f8201168201806040525061109991908101906116e6565b6110a257600080fd5b73b6b09fbffba6a5c4631e5f7b2e3ee183ac259c0d73ffffffffffffffffffffffffffffffffffffffff1663095ea7b3600260009054906101000a900473ffffffffffffffffffffffffffffffffffffffff167fffffffffffffffffffffffffffffffffffffffffffffffffffffffffffffffff6040518363ffffffff1660e01b81526004016111339291906118b5565b602060405180830381600087803b15801561114d57600080fd5b505af1158015611161573d6000803e3d6000fd5b505050506040513d601f19601f8201168201806040525061118591908101906116e6565b506000600260009054906101000a900473ffffffffffffffffffffffffffffffffffffffff1673ffffffffffffffffffffffffffffffffffffffff1663852a12e3836040518263ffffffff1660e01b81526004016111e39190611954565b602060405180830381600087803b1580156111fd57600080fd5b505af1158015611211573d6000803e3d6000fd5b505050506040513d601f19601f820116820180604052506112359190810190611738565b14611275576040517f08c379a000000000000000000000000000000000000000000000000000000000815260040161126c90611934565b60405180910390fd5b600073b6b09fbffba6a5c4631e5f7b2e3ee183ac259c0d73ffffffffffffffffffffffffffffffffffffffff166370a08231306040518263ffffffff1660e01b81526004016112c4919061182c565b60206040518083038186803b1580156112dc57600080fd5b505afa1580156112f0573d6000803e3d6000fd5b505050506040513d601f19601f820116820180604052506113149190810190611738565b905060008111156113c25773b6b09fbffba6a5c4631e5f7b2e3ee183ac259c0d73ffffffffffffffffffffffffffffffffffffffff1663a9059cbb84836040518363ffffffff1660e01b815260040161136e9291906118b5565b602060405180830381600087803b15801561138857600080fd5b505af115801561139c573d6000803e3d6000fd5b505050506040513d601f19601f820116820180604052506113c091908101906116e6565b505b73c4375b7de8af5a38a93548eb8453a498222c4ff273ffffffffffffffffffffffffffffffffffffffff1663a9059cbb84846040518363ffffffff1660e01b81526004016114119291906118b5565b602060405180830381600087803b15801561142b57600080fd5b505af115801561143f573d6000803e3d6000fd5b505050506040513d601f19601f8201168201806040525061146391908101906116e6565b50505050565b60003073ffffffffffffffffffffffffffffffffffffffff168373ffffffffffffffffffffffffffffffffffffffff1614156114a85760019050611617565b600160009054906101000a900473ffffffffffffffffffffffffffffffffffffffff1673ffffffffffffffffffffffffffffffffffffffff168373ffffffffffffffffffffffffffffffffffffffff1614156115075760019050611617565b600073ffffffffffffffffffffffffffffffffffffffff166000809054906101000a900473ffffffffffffffffffffffffffffffffffffffff1673ffffffffffffffffffffffffffffffffffffffff1614156115665760009050611617565b6000809054906101000a900473ffffffffffffffffffffffffffffffffffffffff1673ffffffffffffffffffffffffffffffffffffffff1663b70096138430856040518463ffffffff1660e01b81526004016115c493929190611847565b60206040518083038186803b1580156115dc57600080fd5b505afa1580156115f0573d6000803e3d6000fd5b505050506040513d601f19601f8201168201806040525061161491908101906116e6565b90505b92915050565b600061162982356119e8565b905092915050565b600061163d82516119fa565b905092915050565b60006116518235611a06565b905092915050565b60006116658235611a38565b905092915050565b60006116798251611a38565b905092915050565b60006020828403121561169357600080fd5b60006116a18482850161161d565b91505092915050565b600080604083850312156116bd57600080fd5b60006116cb8582860161161d565b92505060206116dc85828601611659565b9150509250929050565b6000602082840312156116f857600080fd5b600061170684828501611631565b91505092915050565b60006020828403121561172157600080fd5b600061172f84828501611645565b91505092915050565b60006020828403121561174a57600080fd5b60006117588482850161166d565b91505092915050565b61176a81611980565b82525050565b61177981611992565b82525050565b61178881611a42565b82525050565b61179781611a66565b82525050565b60006117aa600b8361196f565b91507f4661696c6564204d696e740000000000000000000000000000000000000000006000830152602082019050919050565b60006117ea600d8361196f565b91507f52656564656d204661696c6564000000000000000000000000000000000000006000830152602082019050919050565b611826816119de565b82525050565b60006020820190506118416000830184611761565b92915050565b600060608201905061185c6000830186611761565b6118696020830185611761565b6118766040830184611770565b949350505050565b60006060820190506118936000830186611761565b6118a06020830185611761565b6118ad604083018461181d565b949350505050565b60006040820190506118ca6000830185611761565b6118d7602083018461181d565b9392505050565b60006020820190506118f3600083018461177f565b92915050565b600060208201905061190e600083018461178e565b92915050565b6000602082019050818103600083015261192d8161179d565b9050919050565b6000602082019050818103600083015261194d816117dd565b9050919050565b6000602082019050611969600083018461181d565b92915050565b600082825260208201905092915050565b600061198b826119be565b9050919050565b60007fffffffff0000000000000000000000000000000000000000000000000000000082169050919050565b600073ffffffffffffffffffffffffffffffffffffffff82169050919050565b6000819050919050565b60006119f382611a18565b9050919050565b60008115159050919050565b6000611a11826119e8565b9050919050565b600073ffffffffffffffffffffffffffffffffffffffff82169050919050565b6000819050919050565b6000611a4d82611a54565b9050919050565b6000611a5f826119be565b9050919050565b6000611a7182611a78565b9050919050565b6000611a83826119be565b905091905056fea265627a7a7230582081a876692e7037d91c4335d139c0d24890d4b66ac7c67c2d6455927cac7979d06c6578706572696d656e74616cf50037",
  "source": "pragma solidity ^0.5.0;\npragma experimental ABIEncoderV2;\n\nimport \"../ProtocolInterface.sol\";\nimport \"../../interfaces/CTokenInterface.sol\";\nimport \"../../compound/Exponential.sol\";\nimport \"../../compound/StupidExchange.sol\";\nimport \"../../interfaces/ERC20.sol\";\nimport \"../../constants/ConstantAddresses.sol\";\nimport \"../../DS/DSAuth.sol\";\n\n\ncontract CompoundSavingsProtocol is ProtocolInterface, Exponential, ConstantAddresses, DSAuth {\n\n    CTokenInterface public cDaiContract;\n    address public savingsProxy;\n\n    constructor() public {\n        cDaiContract = CTokenInterface(CDAI_ADDRESS);\n    }\n\n    function addSavingsProxy(address _savingsProxy) public auth {\n\n        savingsProxy = _savingsProxy;\n    }\n\n    function deposit(address _user, uint _amount) public {\n        require(msg.sender == savingsProxy);\n        // get dai from user\n        require(ERC20(MAKER_DAI_ADDRESS).transferFrom(_user, address(this), _amount));\n\n        // // REMOVE: USED ONLY ON KOVAN TO HANDLE DAI DIFFERENT TOKENS\n        // StupidExchange(STUPID_EXCHANGE).getCompoundDaiToken(_amount);\n        // // approve dai to compound\n        // ERC20(COMPOUND_DAI_ADDRESS).approve(CDAI_ADDRESS, uint(-1));\n\n        // mainnet only\n        ERC20(MAKER_DAI_ADDRESS).approve(CDAI_ADDRESS, uint(-1));\n\n        // mint cDai\n        require(cDaiContract.mint(_amount) == 0, \"Failed Mint\");\n        // balance should be equal to cDai minted\n        uint cDaiMinted = cDaiContract.balanceOf(address(this));\n        // return cDai to user\n        ERC20(CDAI_ADDRESS).transfer(_user, cDaiMinted);\n    }\n\n    function withdraw(address _user, uint _amount) public {\n        require(msg.sender == savingsProxy);\n        // transfer all users balance to this contract\n        require(ERC20(CDAI_ADDRESS).transferFrom(_user, address(this), ERC20(CDAI_ADDRESS).balanceOf(_user)));\n        // approve cDai to compound contract\n        ERC20(CDAI_ADDRESS).approve(address(cDaiContract), uint(-1));\n        // get dai from cDai contract\n        require(cDaiContract.redeemUnderlying(_amount) == 0, \"Reedem Failed\");\n\n        // REMOVE: USED ONLY ON KOVAN TO HANDLE DAI DIFFERENT TOKENS\n        // StupidExchange(STUPID_EXCHANGE).getMakerDaiToken(_amount);\n\n        // return to user balance we didn't spend\n        uint cDaiBalance = ERC20(CDAI_ADDRESS).balanceOf(address(this));\n        if (cDaiBalance > 0) {\n            ERC20(CDAI_ADDRESS).transfer(_user, cDaiBalance);\n        }\n        // return dai we have to user\n        ERC20(MAKER_DAI_ADDRESS).transfer(_user, _amount);\n    }\n}\n",
  "sourcePath": "/Users/nikolaklipa/Decenter/defisaver/cdpsaver-contracts/contracts/savings/compound/CompoundSavingsProtocol.sol",
  "compiler": {
    "name": "solc",
    "version": "0.5.7+commit.6da8b019.Emscripten.clang"
  },
  "schemaVersion": "3.0.9",
  "updatedAt": "2019-08-12T15:19:05.770Z",
  "devdoc": {
    "methods": {}
  },
  "userdoc": {
    "methods": {}
  }
}