{
  "contractName": "CompoundProxy",
  "abi": [
    {
      "constant": true,
      "inputs": [],
      "name": "WETH_ADDRESS",
      "outputs": [
        {
          "name": "",
          "type": "address"
        }
      ],
      "payable": false,
      "stateMutability": "view",
      "type": "function"
    },
    {
      "constant": true,
      "inputs": [],
      "name": "CDAI_ADDRESS",
      "outputs": [
        {
          "name": "",
          "type": "address"
        }
      ],
      "payable": false,
      "stateMutability": "view",
      "type": "function"
    },
    {
      "constant": true,
      "inputs": [],
      "name": "PIP_INTERFACE_ADDRESS",
      "outputs": [
        {
          "name": "",
          "type": "address"
        }
      ],
      "payable": false,
      "stateMutability": "view",
      "type": "function"
    },
    {
      "constant": true,
      "inputs": [],
      "name": "KYBER_ETH_ADDRESS",
      "outputs": [
        {
          "name": "",
          "type": "address"
        }
      ],
      "payable": false,
      "stateMutability": "view",
      "type": "function"
    },
    {
      "constant": true,
      "inputs": [],
      "name": "OTC_ADDRESS",
      "outputs": [
        {
          "name": "",
          "type": "address"
        }
      ],
      "payable": false,
      "stateMutability": "view",
      "type": "function"
    },
    {
      "constant": true,
      "inputs": [],
      "name": "IDAI_ADDRESS",
      "outputs": [
        {
          "name": "",
          "type": "address"
        }
      ],
      "payable": false,
      "stateMutability": "view",
      "type": "function"
    },
    {
      "constant": true,
      "inputs": [],
      "name": "GAS_TOKEN_INTERFACE_ADDRESS",
      "outputs": [
        {
          "name": "",
          "type": "address"
        }
      ],
      "payable": false,
      "stateMutability": "view",
      "type": "function"
    },
    {
      "constant": true,
      "inputs": [],
      "name": "VOX_ADDRESS",
      "outputs": [
        {
          "name": "",
          "type": "address"
        }
      ],
      "payable": false,
      "stateMutability": "view",
      "type": "function"
    },
    {
      "constant": true,
      "inputs": [],
      "name": "ETH2DAI_WRAPPER",
      "outputs": [
        {
          "name": "",
          "type": "address"
        }
      ],
      "payable": false,
      "stateMutability": "view",
      "type": "function"
    },
    {
      "constant": true,
      "inputs": [],
      "name": "STUPID_EXCHANGE",
      "outputs": [
        {
          "name": "",
          "type": "address"
        }
      ],
      "payable": false,
      "stateMutability": "view",
      "type": "function"
    },
    {
      "constant": true,
      "inputs": [],
      "name": "PROXY_REGISTRY_INTERFACE_ADDRESS",
      "outputs": [
        {
          "name": "",
          "type": "address"
        }
      ],
      "payable": false,
      "stateMutability": "view",
      "type": "function"
    },
    {
      "constant": true,
      "inputs": [],
      "name": "MKR_ADDRESS",
      "outputs": [
        {
          "name": "",
          "type": "address"
        }
      ],
      "payable": false,
      "stateMutability": "view",
      "type": "function"
    },
    {
      "constant": true,
      "inputs": [],
      "name": "FACTORY_ADDRESS",
      "outputs": [
        {
          "name": "",
          "type": "address"
        }
      ],
      "payable": false,
      "stateMutability": "view",
      "type": "function"
    },
    {
      "constant": true,
      "inputs": [
        {
          "name": "_cup",
          "type": "bytes32"
        },
        {
          "name": "_amount",
          "type": "uint256"
        }
      ],
      "name": "LOGGER_ADDRESS",
      "outputs": [
        {
          "name": "",
          "type": "address"
        }
      ],
      "payable": false,
      "stateMutability": "view",
      "type": "function"
    },
    {
      "constant": true,
      "inputs": [
        {
          "name": "_cup",
          "type": "bytes32"
        },
        {
          "name": "_amount",
          "type": "uint256"
        }
      ],
      "name": "MAKER_DAI_ADDRESS",
      "outputs": [
        {
          "name": "",
          "type": "address"
        }
      ],
      "payable": false,
      "stateMutability": "view",
      "type": "function"
    },
    {
      "constant": true,
      "inputs": [
        {
          "name": "_tub",
          "type": "address"
        },
        {
          "name": "_cup",
          "type": "bytes32"
        },
        {
          "name": "_daiRepay",
          "type": "uint256"
        }
      ],
      "name": "KYBER_WRAPPER",
      "outputs": [
        {
          "name": "",
          "type": "address"
        }
      ],
      "payable": false,
      "stateMutability": "view",
      "type": "function"
    },
    {
      "constant": true,
      "inputs": [],
      "name": "COMPOUND_DAI_ADDRESS",
      "outputs": [
        {
          "name": "",
          "type": "address"
        }
      ],
      "payable": false,
      "stateMutability": "view",
      "type": "function"
    },
    {
      "constant": true,
      "inputs": [],
      "name": "UNISWAP_FACTORY",
      "outputs": [
        {
          "name": "",
          "type": "address"
        }
      ],
      "payable": false,
      "stateMutability": "view",
      "type": "function"
    },
    {
      "constant": true,
      "inputs": [],
      "name": "PETH_ADDRESS",
      "outputs": [
        {
          "name": "",
          "type": "address"
        }
      ],
      "payable": false,
      "stateMutability": "view",
      "type": "function"
    },
    {
      "constant": true,
      "inputs": [],
      "name": "KYBER_INTERFACE",
      "outputs": [
        {
          "name": "",
          "type": "address"
        }
      ],
      "payable": false,
      "stateMutability": "view",
      "type": "function"
    },
    {
      "constant": true,
      "inputs": [],
      "name": "WALLET_ID",
      "outputs": [
        {
          "name": "",
          "type": "address"
        }
      ],
      "payable": false,
      "stateMutability": "view",
      "type": "function"
    },
    {
      "constant": true,
      "inputs": [],
      "name": "SOLO_MARGIN_ADDRESS",
      "outputs": [
        {
          "name": "",
          "type": "address"
        }
      ],
      "payable": false,
      "stateMutability": "view",
      "type": "function"
    },
    {
      "constant": true,
      "inputs": [],
      "name": "UNISWAP_WRAPPER",
      "outputs": [
        {
          "name": "",
          "type": "address"
        }
      ],
      "payable": false,
      "stateMutability": "view",
      "type": "function"
    },
    {
      "constant": true,
      "inputs": [],
      "name": "TUB_ADDRESS",
      "outputs": [
        {
          "name": "",
          "type": "address"
        }
      ],
      "payable": false,
      "stateMutability": "view",
      "type": "function"
    },
    {
      "constant": true,
      "inputs": [],
      "name": "CTOKEN_INTERFACE",
      "outputs": [
        {
          "name": "",
          "type": "address"
        }
      ],
      "payable": false,
      "stateMutability": "view",
      "type": "function"
    },
    {
      "constant": false,
      "inputs": [
        {
          "name": "_cup",
          "type": "bytes32"
        },
        {
          "name": "_amount",
          "type": "uint256"
        }
      ],
      "name": "repayCDPDebt",
      "outputs": [],
      "payable": false,
      "stateMutability": "nonpayable",
      "type": "function"
    },
    {
      "constant": false,
      "inputs": [
        {
          "name": "_cup",
          "type": "bytes32"
        },
        {
          "name": "_amount",
          "type": "uint256"
        }
      ],
      "name": "cdpToCompound",
      "outputs": [],
      "payable": false,
      "stateMutability": "nonpayable",
      "type": "function"
    },
    {
      "constant": false,
      "inputs": [
        {
          "name": "_tub",
          "type": "address"
        },
        {
          "name": "_cup",
          "type": "bytes32"
        },
        {
          "name": "_daiRepay",
          "type": "uint256"
        }
      ],
      "name": "stabilityFeeInMkr",
      "outputs": [
        {
          "name": "",
          "type": "uint256"
        }
      ],
      "payable": false,
      "stateMutability": "nonpayable",
      "type": "function"
    }
  ],
  "bytecode": "0x608060405234801561001057600080fd5b50612aa9806100206000396000f3fe608060405234801561001057600080fd5b50600436106101c45760003560e01c80639da779e9116100f9578063d3661fa511610097578063f0d405e511610071578063f0d405e5146108db578063f27eb59914610925578063f2f239d41461095d578063fbf4a013146109a7576101c4565b8063d3661fa5146107fd578063d36b907d14610847578063ddaa293c14610891576101c4565b8063c387fd86116100d3578063c387fd86146106b3578063c74c0fac1461071f578063c9fde27014610769578063ce9bde1d146107b3576101c4565b80639da779e9146105d5578063b175afa11461061f578063c16921b714610669576101c4565b806336e6da1111610166578063728c009211610140578063728c0092146104ad578063825ffd92146104f75780638823151b1461054157806394bfbe741461058b576101c4565b806336e6da11146103cf57806343fb75e814610419578063502237d714610463576101c4565b806329f7fc9e116101a257806329f7fc9e146102a75780632a441f05146102f15780632d5eeb3f1461033b57806332ac5cd214610385576101c4565b8063040141e5146101c95780630531b2ad146102135780631dab52b01461025d575b600080fd5b6101d16109df565b604051808273ffffffffffffffffffffffffffffffffffffffff1673ffffffffffffffffffffffffffffffffffffffff16815260200191505060405180910390f35b61021b6109f7565b604051808273ffffffffffffffffffffffffffffffffffffffff1673ffffffffffffffffffffffffffffffffffffffff16815260200191505060405180910390f35b610265610a0f565b604051808273ffffffffffffffffffffffffffffffffffffffff1673ffffffffffffffffffffffffffffffffffffffff16815260200191505060405180910390f35b6102af610a27565b604051808273ffffffffffffffffffffffffffffffffffffffff1673ffffffffffffffffffffffffffffffffffffffff16815260200191505060405180910390f35b6102f9610a3f565b604051808273ffffffffffffffffffffffffffffffffffffffff1673ffffffffffffffffffffffffffffffffffffffff16815260200191505060405180910390f35b610343610a57565b604051808273ffffffffffffffffffffffffffffffffffffffff1673ffffffffffffffffffffffffffffffffffffffff16815260200191505060405180910390f35b61038d610a6f565b604051808273ffffffffffffffffffffffffffffffffffffffff1673ffffffffffffffffffffffffffffffffffffffff16815260200191505060405180910390f35b6103d7610a82565b604051808273ffffffffffffffffffffffffffffffffffffffff1673ffffffffffffffffffffffffffffffffffffffff16815260200191505060405180910390f35b610421610a9a565b604051808273ffffffffffffffffffffffffffffffffffffffff1673ffffffffffffffffffffffffffffffffffffffff16815260200191505060405180910390f35b61046b610ab2565b604051808273ffffffffffffffffffffffffffffffffffffffff1673ffffffffffffffffffffffffffffffffffffffff16815260200191505060405180910390f35b6104b5610aca565b604051808273ffffffffffffffffffffffffffffffffffffffff1673ffffffffffffffffffffffffffffffffffffffff16815260200191505060405180910390f35b6104ff610ae2565b604051808273ffffffffffffffffffffffffffffffffffffffff1673ffffffffffffffffffffffffffffffffffffffff16815260200191505060405180910390f35b610549610afa565b604051808273ffffffffffffffffffffffffffffffffffffffff1673ffffffffffffffffffffffffffffffffffffffff16815260200191505060405180910390f35b610593610b12565b604051808273ffffffffffffffffffffffffffffffffffffffff1673ffffffffffffffffffffffffffffffffffffffff16815260200191505060405180910390f35b6105dd610b2a565b604051808273ffffffffffffffffffffffffffffffffffffffff1673ffffffffffffffffffffffffffffffffffffffff16815260200191505060405180910390f35b610627610b42565b604051808273ffffffffffffffffffffffffffffffffffffffff1673ffffffffffffffffffffffffffffffffffffffff16815260200191505060405180910390f35b610671610b5a565b604051808273ffffffffffffffffffffffffffffffffffffffff1673ffffffffffffffffffffffffffffffffffffffff16815260200191505060405180910390f35b610709600480360360608110156106c957600080fd5b81019080803573ffffffffffffffffffffffffffffffffffffffff1690602001909291908035906020019092919080359060200190929190505050610b72565b6040518082815260200191505060405180910390f35b610727610dd6565b604051808273ffffffffffffffffffffffffffffffffffffffff1673ffffffffffffffffffffffffffffffffffffffff16815260200191505060405180910390f35b610771610dee565b604051808273ffffffffffffffffffffffffffffffffffffffff1673ffffffffffffffffffffffffffffffffffffffff16815260200191505060405180910390f35b6107bb610e06565b604051808273ffffffffffffffffffffffffffffffffffffffff1673ffffffffffffffffffffffffffffffffffffffff16815260200191505060405180910390f35b610805610e1e565b604051808273ffffffffffffffffffffffffffffffffffffffff1673ffffffffffffffffffffffffffffffffffffffff16815260200191505060405180910390f35b61084f610e36565b604051808273ffffffffffffffffffffffffffffffffffffffff1673ffffffffffffffffffffffffffffffffffffffff16815260200191505060405180910390f35b610899610e4e565b604051808273ffffffffffffffffffffffffffffffffffffffff1673ffffffffffffffffffffffffffffffffffffffff16815260200191505060405180910390f35b6108e3610e66565b604051808273ffffffffffffffffffffffffffffffffffffffff1673ffffffffffffffffffffffffffffffffffffffff16815260200191505060405180910390f35b61095b6004803603604081101561093b57600080fd5b810190808035906020019092919080359060200190929190505050610e7e565b005b610965611495565b604051808273ffffffffffffffffffffffffffffffffffffffff1673ffffffffffffffffffffffffffffffffffffffff16815260200191505060405180910390f35b6109dd600480360360408110156109bd57600080fd5b8101908080359060200190929190803590602001909291905050506114ad565b005b73d0a1e359811322d97991e03f863a0c30c2cf029c81565b73b6b09fbffba6a5c4631e5f7b2e3ee183ac259c0d81565b73a944bd4b25c9f186a846fd5668941aa3d3b8425f81565b73eeeeeeeeeeeeeeeeeeeeeeeeeeeeeeeeeeeeeeee81565b734a6bc4e803c62081ffebcc8d227b5a87a58f1f8f81565b73b6b09fbffba6a5c4631e5f7b2e3ee183ac259c0d81565b6e170ccc93903185be5a2094c870df6281565b73bb4339c0ab5b1d9f14bd6e3426444a1e9d86a1d981565b73823cde416973a19f98bb9c96d97f4fe6c9a7238b81565b73863e41fe88288ebf3fcd91d8dbb679fb83fdfe1781565b7364a436ae831c1672ae81f674cab8b6775df3475c81565b73aaf64bfcc32d0f15873a02163e7e500671a4ffcd81565b73c72e74e474682680a414b506699bbca44ab9a93081565b7332d0e18f988f952eb3524ace762042381a2c39e581565b73c4375b7de8af5a38a93548eb8453a498222c4ff281565b735595930d576aedf13945c83ce5aad827529a131081565b7325a01a05c188dacbcf1d61af55d4a5b4021f7eed81565b600080600080610ca585610ca08973ffffffffffffffffffffffffffffffffffffffff16636f78ee0d8a6040518263ffffffff1660e01b815260040180828152602001915050602060405180830381600087803b158015610bd257600080fd5b505af1158015610be6573d6000803e3d6000fd5b505050506040513d6020811015610bfc57600080fd5b81019080805190602001909291905050508a73ffffffffffffffffffffffffffffffffffffffff1663f7c8d6348b6040518263ffffffff1660e01b815260040180828152602001915050602060405180830381600087803b158015610c6057600080fd5b505af1158015610c74573d6000803e3d6000fd5b505050506040513d6020811015610c8a57600080fd5b8101908080519060200190929190505050611d5c565b611d98565b90508673ffffffffffffffffffffffffffffffffffffffff1663ace237f56040518163ffffffff1660e01b8152600401602060405180830381600087803b158015610cef57600080fd5b505af1158015610d03573d6000803e3d6000fd5b505050506040513d6020811015610d1957600080fd5b810190808051906020019092919050505073ffffffffffffffffffffffffffffffffffffffff166359e02dd76040518163ffffffff1660e01b81526004016040805180830381600087803b158015610d7057600080fd5b505af1158015610d84573d6000803e3d6000fd5b505050506040513d6040811015610d9a57600080fd5b8101908080519060200190929190805190602001909291905050508093508194505050610dca818460001c611de0565b93505050509392505050565b73f5d915570bc477f9b8d6c0e980aa81757a3aac3681565b73f4d791139ce033ad35db2b2201435fad668b1b6481565b73692f391bcc85cefce8c237c01e1f636bbd70ea4d81565b7354b44c6b18fc0b4a1010b21d524c338d1f8065f681565b734ec3570cadaaee08ae384779b0f3a45ef85289de81565b735595930d576aedf13945c83ce5aad827529a131081565b73a71937147b55deb8a530c7229c442fd3f31b7db281565b600073a71937147b55deb8a530c7229c442fd3f31b7db29050600073b6b09fbffba6a5c4631e5f7b2e3ee183ac259c0d9050610ecd73d0a1e359811322d97991e03f863a0c30c2cf029c611e18565b610eea73f4d791139ce033ad35db2b2201435fad668b1b64611e18565b610f0773c4375b7de8af5a38a93548eb8453a498222c4ff2611e18565b8173ffffffffffffffffffffffffffffffffffffffff1663440f19ba85856040518363ffffffff1660e01b81526004018083815260200182815260200192505050600060405180830381600087803b158015610f6257600080fd5b505af1158015610f76573d6000803e3d6000fd5b5050505073863e41fe88288ebf3fcd91d8dbb679fb83fdfe1773ffffffffffffffffffffffffffffffffffffffff166369a90514846040518263ffffffff1660e01b815260040180828152602001915050600060405180830381600087803b158015610fe157600080fd5b505af1158015610ff5573d6000803e3d6000fd5b505050507325a01a05c188dacbcf1d61af55d4a5b4021f7eed73ffffffffffffffffffffffffffffffffffffffff1663095ea7b373b6b09fbffba6a5c4631e5f7b2e3ee183ac259c0d7fffffffffffffffffffffffffffffffffffffffffffffffffffffffffffffffff6040518363ffffffff1660e01b8152600401808373ffffffffffffffffffffffffffffffffffffffff1673ffffffffffffffffffffffffffffffffffffffff16815260200182815260200192505050602060405180830381600087803b1580156110c857600080fd5b505af11580156110dc573d6000803e3d6000fd5b505050506040513d60208110156110f257600080fd5b81019080805190602001909291905050505060008173ffffffffffffffffffffffffffffffffffffffff1663a0712d68856040518263ffffffff1660e01b815260040180828152602001915050602060405180830381600087803b15801561115957600080fd5b505af115801561116d573d6000803e3d6000fd5b505050506040513d602081101561118357600080fd5b810190808051906020019092919050505014611207576040517f08c379a000000000000000000000000000000000000000000000000000000000815260040180806020018281038252600b8152602001807f4661696c6564204d696e7400000000000000000000000000000000000000000081525060200191505060405180910390fd5b60008173ffffffffffffffffffffffffffffffffffffffff166370a08231306040518263ffffffff1660e01b8152600401808273ffffffffffffffffffffffffffffffffffffffff1673ffffffffffffffffffffffffffffffffffffffff16815260200191505060206040518083038186803b15801561128657600080fd5b505afa15801561129a573d6000803e3d6000fd5b505050506040513d60208110156112b057600080fd5b8101908080519060200190929190505050905073b6b09fbffba6a5c4631e5f7b2e3ee183ac259c0d73ffffffffffffffffffffffffffffffffffffffff1663a9059cbb33836040518363ffffffff1660e01b8152600401808373ffffffffffffffffffffffffffffffffffffffff1673ffffffffffffffffffffffffffffffffffffffff16815260200182815260200192505050602060405180830381600087803b15801561135e57600080fd5b505af1158015611372573d6000803e3d6000fd5b505050506040513d602081101561138857600080fd5b8101908080519060200190929190505050507332d0e18f988f952eb3524ace762042381a2c39e573ffffffffffffffffffffffffffffffffffffffff16632ddab6d73386846040518463ffffffff1660e01b815260040180806020018573ffffffffffffffffffffffffffffffffffffffff1673ffffffffffffffffffffffffffffffffffffffff1681526020018481526020018381526020018281038252600d8152602001807f636470546f436f6d706f756e6400000000000000000000000000000000000000815250602001945050505050600060405180830381600087803b15801561147657600080fd5b505af115801561148a573d6000803e3d6000fd5b505050505050505050565b73b6b09fbffba6a5c4631e5f7b2e3ee183ac259c0d81565b600073a71937147b55deb8a530c7229c442fd3f31b7db29050600073b6b09fbffba6a5c4631e5f7b2e3ee183ac259c0d90506114fc73c4375b7de8af5a38a93548eb8453a498222c4ff2611e18565b61151973aaf64bfcc32d0f15873a02163e7e500671a4ffcd611e18565b61153673f4d791139ce033ad35db2b2201435fad668b1b64611e18565b61155373d0a1e359811322d97991e03f863a0c30c2cf029c611e18565b60006115738473b6b09fbffba6a5c4631e5f7b2e3ee183ac259c0d612030565b90508173ffffffffffffffffffffffffffffffffffffffff1663095ea7b373b6b09fbffba6a5c4631e5f7b2e3ee183ac259c0d7fffffffffffffffffffffffffffffffffffffffffffffffffffffffffffffffff6040518363ffffffff1660e01b8152600401808373ffffffffffffffffffffffffffffffffffffffff1673ffffffffffffffffffffffffffffffffffffffff16815260200182815260200192505050602060405180830381600087803b15801561163057600080fd5b505af1158015611644573d6000803e3d6000fd5b505050506040513d602081101561165a57600080fd5b8101908080519060200190929190505050508173ffffffffffffffffffffffffffffffffffffffff166323b872dd3330846040518463ffffffff1660e01b8152600401808473ffffffffffffffffffffffffffffffffffffffff1673ffffffffffffffffffffffffffffffffffffffff1681526020018373ffffffffffffffffffffffffffffffffffffffff1673ffffffffffffffffffffffffffffffffffffffff1681526020018281526020019350505050602060405180830381600087803b15801561172757600080fd5b505af115801561173b573d6000803e3d6000fd5b505050506040513d602081101561175157600080fd5b81019080805190602001909291905050505060008273ffffffffffffffffffffffffffffffffffffffff1663852a12e3866040518263ffffffff1660e01b815260040180828152602001915050602060405180830381600087803b1580156117b857600080fd5b505af11580156117cc573d6000803e3d6000fd5b505050506040513d60208110156117e257600080fd5b810190808051906020019092919050505014611866576040517f08c379a000000000000000000000000000000000000000000000000000000000815260040180806020018281038252600d8152602001807f52656564656d204661696c65640000000000000000000000000000000000000081525060200191505060405180910390fd5b73863e41fe88288ebf3fcd91d8dbb679fb83fdfe1773ffffffffffffffffffffffffffffffffffffffff1663db8b0a58856040518263ffffffff1660e01b815260040180828152602001915050600060405180830381600087803b1580156118cd57600080fd5b505af11580156118e1573d6000803e3d6000fd5b5050505060006118f2848787610b72565b905060006119088261190388612168565b611de0565b9050600061194073c4375b7de8af5a38a93548eb8453a498222c4ff273aaf64bfcc32d0f15873a02163e7e500671a4ffcd84866122ad565b905061194c87836126f1565b9650600061195a878a61270b565b905080881115611a485773c4375b7de8af5a38a93548eb8453a498222c4ff273ffffffffffffffffffffffffffffffffffffffff1663a9059cbb3361199f8b856126f1565b6040518363ffffffff1660e01b8152600401808373ffffffffffffffffffffffffffffffffffffffff1673ffffffffffffffffffffffffffffffffffffffff16815260200182815260200192505050602060405180830381600087803b158015611a0857600080fd5b505af1158015611a1c573d6000803e3d6000fd5b505050506040513d6020811015611a3257600080fd5b8101908080519060200190929190505050508097505b8673ffffffffffffffffffffffffffffffffffffffff166373b381018a8a6040518363ffffffff1660e01b81526004018083815260200182815260200192505050600060405180830381600087803b158015611aa357600080fd5b505af1158015611ab7573d6000803e3d6000fd5b5050505073aaf64bfcc32d0f15873a02163e7e500671a4ffcd73ffffffffffffffffffffffffffffffffffffffff1663a9059cbb3373aaf64bfcc32d0f15873a02163e7e500671a4ffcd73ffffffffffffffffffffffffffffffffffffffff166370a08231306040518263ffffffff1660e01b8152600401808273ffffffffffffffffffffffffffffffffffffffff1673ffffffffffffffffffffffffffffffffffffffff16815260200191505060206040518083038186803b158015611b7d57600080fd5b505afa158015611b91573d6000803e3d6000fd5b505050506040513d6020811015611ba757600080fd5b81019080805190602001909291905050506040518363ffffffff1660e01b8152600401808373ffffffffffffffffffffffffffffffffffffffff1673ffffffffffffffffffffffffffffffffffffffff16815260200182815260200192505050602060405180830381600087803b158015611c2157600080fd5b505af1158015611c35573d6000803e3d6000fd5b505050506040513d6020811015611c4b57600080fd5b8101908080519060200190929190505050507332d0e18f988f952eb3524ace762042381a2c39e573ffffffffffffffffffffffffffffffffffffffff16632ddab6d73386856040518463ffffffff1660e01b815260040180806020018573ffffffffffffffffffffffffffffffffffffffff1673ffffffffffffffffffffffffffffffffffffffff1681526020018481526020018381526020018281038252600c8152602001807f7265706179434450446562740000000000000000000000000000000000000000815250602001945050505050600060405180830381600087803b158015611d3957600080fd5b505af1158015611d4d573d6000803e3d6000fd5b50505050505050505050505050565b600081611d88611d78856b033b2e3c9fd0803ce80000006127cb565b60028581611d8257fe5b046127f7565b81611d8f57fe5b04905092915050565b60006b033b2e3c9fd0803ce8000000611dd0611db485856127cb565b60026b033b2e3c9fd0803ce800000081611dca57fe5b046127f7565b81611dd757fe5b04905092915050565b600081611e08611df885670de0b6b3a76400006127cb565b60028581611e0257fe5b046127f7565b81611e0f57fe5b04905092915050565b60027fffffffffffffffffffffffffffffffffffffffffffffffffffffffffffffffff81611e4257fe5b048173ffffffffffffffffffffffffffffffffffffffff1663dd62ed3e33846040518363ffffffff1660e01b8152600401808373ffffffffffffffffffffffffffffffffffffffff1673ffffffffffffffffffffffffffffffffffffffff1681526020018273ffffffffffffffffffffffffffffffffffffffff1673ffffffffffffffffffffffffffffffffffffffff1681526020019250505060206040518083038186803b158015611ef457600080fd5b505afa158015611f08573d6000803e3d6000fd5b505050506040513d6020811015611f1e57600080fd5b8101908080519060200190929190505050101561202d578073ffffffffffffffffffffffffffffffffffffffff1663095ea7b373a71937147b55deb8a530c7229c442fd3f31b7db27fffffffffffffffffffffffffffffffffffffffffffffffffffffffffffffffff6040518363ffffffff1660e01b8152600401808373ffffffffffffffffffffffffffffffffffffffff1673ffffffffffffffffffffffffffffffffffffffff16815260200182815260200192505050602060405180830381600087803b158015611ff057600080fd5b505af1158015612004573d6000803e3d6000fd5b505050506040513d602081101561201a57600080fd5b8101908080519060200190929190505050505b50565b6000806120cd8460405180602001604052808673ffffffffffffffffffffffffffffffffffffffff1663bd6d894d6040518163ffffffff1660e01b8152600401602060405180830381600087803b15801561208a57600080fd5b505af115801561209e573d6000803e3d6000fd5b505050506040513d60208110156120b457600080fd5b8101908080519060200190929190505050815250612811565b8093508192505050600060038111156120e257fe5b8160038111156120ee57fe5b14612161576040517f08c379a000000000000000000000000000000000000000000000000000000000815260040180806020018281038252600a8152602001807f4d617468206572726f720000000000000000000000000000000000000000000081525060200191505060405180910390fd5b5092915050565b600073692f391bcc85cefce8c237c01e1f636bbd70ea4d73ffffffffffffffffffffffffffffffffffffffff1663809a9e5573c4375b7de8af5a38a93548eb8453a498222c4ff273aaf64bfcc32d0f15873a02163e7e500671a4ffcd856040518463ffffffff1660e01b8152600401808473ffffffffffffffffffffffffffffffffffffffff1673ffffffffffffffffffffffffffffffffffffffff1681526020018373ffffffffffffffffffffffffffffffffffffffff1673ffffffffffffffffffffffffffffffffffffffff1681526020018281526020019350505050604080518083038186803b15801561225e57600080fd5b505afa158015612272573d6000803e3d6000fd5b505050506040513d604081101561228857600080fd5b8101908080519060200190929190805190602001909291905050505080915050919050565b60008073692f391bcc85cefce8c237c01e1f636bbd70ea4d905060008173ffffffffffffffffffffffffffffffffffffffff1663809a9e558888886040518463ffffffff1660e01b8152600401808473ffffffffffffffffffffffffffffffffffffffff1673ffffffffffffffffffffffffffffffffffffffff1681526020018373ffffffffffffffffffffffffffffffffffffffff1673ffffffffffffffffffffffffffffffffffffffff1681526020018281526020019350505050604080518083038186803b15801561238157600080fd5b505afa158015612395573d6000803e3d6000fd5b505050506040513d60408110156123ab57600080fd5b8101908080519060200190929190805190602001909291905050509050809150508673ffffffffffffffffffffffffffffffffffffffff1663095ea7b38360006040518363ffffffff1660e01b8152600401808373ffffffffffffffffffffffffffffffffffffffff1673ffffffffffffffffffffffffffffffffffffffff16815260200182815260200192505050602060405180830381600087803b15801561245457600080fd5b505af1158015612468573d6000803e3d6000fd5b505050506040513d602081101561247e57600080fd5b810190808051906020019092919050505061249857600080fd5b8673ffffffffffffffffffffffffffffffffffffffff1663095ea7b383876040518363ffffffff1660e01b8152600401808373ffffffffffffffffffffffffffffffffffffffff1673ffffffffffffffffffffffffffffffffffffffff16815260200182815260200192505050602060405180830381600087803b15801561251f57600080fd5b505af1158015612533573d6000803e3d6000fd5b505050506040513d602081101561254957600080fd5b810190808051906020019092919050505061256357600080fd5b8173ffffffffffffffffffffffffffffffffffffffff1663cb3c28c78887893089877354b44c6b18fc0b4a1010b21d524c338d1f8065f66040518863ffffffff1660e01b8152600401808873ffffffffffffffffffffffffffffffffffffffff1673ffffffffffffffffffffffffffffffffffffffff1681526020018781526020018673ffffffffffffffffffffffffffffffffffffffff1673ffffffffffffffffffffffffffffffffffffffff1681526020018573ffffffffffffffffffffffffffffffffffffffff1673ffffffffffffffffffffffffffffffffffffffff1681526020018481526020018381526020018273ffffffffffffffffffffffffffffffffffffffff1673ffffffffffffffffffffffffffffffffffffffff168152602001975050505050505050602060405180830381600087803b1580156126aa57600080fd5b505af11580156126be573d6000803e3d6000fd5b505050506040513d60208110156126d457600080fd5b810190808051906020019092919050505092505050949350505050565b600082828403915081111561270557600080fd5b92915050565b60008273ffffffffffffffffffffffffffffffffffffffff1663fdac0025836040518263ffffffff1660e01b815260040180828152602001915050608060405180830381600087803b15801561276057600080fd5b505af1158015612774573d6000803e3d6000fd5b505050506040513d608081101561278a57600080fd5b810190808051906020019092919080519060200190929190805190602001909291908051906020019092919050505090919250909150508091505092915050565b6000808214806127e857508282838502925082816127e557fe5b04145b6127f157600080fd5b92915050565b600082828401915081101561280b57600080fd5b92915050565b600080600061281e612a6a565b6128288686612874565b915091506000600381111561283957fe5b82600381111561284557fe5b1461285b5781600080905093509350505061286d565b6000612866826128f0565b9350935050505b9250929050565b600061287e612a6a565b600080612893670de0b6b3a76400008761290f565b91509150600060038111156128a457fe5b8260038111156128b057fe5b146128d45781604051806020016040528060008152508090509350935050506128e9565b6128e2818660000151612962565b9350935050505b9250929050565b6000670de0b6b3a764000082600001518161290757fe5b049050919050565b600080600084141561292a576000808090509150915061295b565b600083850290508385828161293b57fe5b04146129525760026000809050925092505061295b565b60008192509250505b9250929050565b600061296c612a6a565b60008061298186670de0b6b3a764000061290f565b915091506000600381111561299257fe5b82600381111561299e57fe5b146129c2578160405180602001604052806000815250809050935093505050612a2f565b6000806129cf8388612a36565b91509150600060038111156129e057fe5b8260038111156129ec57fe5b14612a125781604051806020016040528060008152508090509550955050505050612a2f565b600060405180602001604052808381525080905095509550505050505b9250929050565b6000806000831415612a52576001600080905091509150612a63565b6000838581612a5d57fe5b04915091505b9250929050565b604051806020016040528060008152509056fea165627a7a72305820fa75197dc1c39bde788f9adba0b9d8d589b9eab2ab686e19572878c6941e924f0029",
  "source": "pragma solidity ^0.5.0;\n\nimport \"../DS/DSMath.sol\";\nimport \"../interfaces/CTokenInterface.sol\";\nimport \"../interfaces/TubInterface.sol\";\nimport \"../interfaces/KyberNetworkProxyInterface.sol\";\nimport \"../ActionLogger.sol\";\nimport \"./Exponential.sol\";\nimport \"./StupidExchange.sol\";\nimport \"../constants/ConstantAddresses.sol\";\n\n/// @title CompoundProxy implements CDP and Compound direct interactions\ncontract CompoundProxy is DSMath, Exponential, ConstantAddresses {\n\n    /// @notice It will draw Dai from Compound and repay part of the CDP debt\n    /// @dev User has to approve DSProxy to pull CDai before calling this\n    /// @param _cup Cdp id\n    /// @param _amount Amount of Dai that will be taken from Compound and put into CDP\n    function repayCDPDebt(bytes32 _cup, uint _amount) public {\n        TubInterface tub = TubInterface(TUB_ADDRESS);\n        CTokenInterface cDaiContract = CTokenInterface(CDAI_ADDRESS);\n\n        approveTub(MAKER_DAI_ADDRESS);\n        approveTub(MKR_ADDRESS);\n        approveTub(PETH_ADDRESS);\n        approveTub(WETH_ADDRESS);\n\n        // Calculate how many cDai tokens we need to pull for the Dai _amount\n        uint cAmount = getCTokenAmount(_amount, CDAI_ADDRESS);\n\n        cDaiContract.approve(CDAI_ADDRESS, uint(-1));\n        cDaiContract.transferFrom(msg.sender, address(this), cAmount);\n\n        require(cDaiContract.redeemUnderlying(_amount) == 0, \"Reedem Failed\");\n\n        // REMOVE: USED ONLY ON KOVAN TO HANDLE DAI DIFFERENT TOKENS\n        StupidExchange(STUPID_EXCHANGE).getMakerDaiToken(_amount);\n\n        // Buy some Mkr to pay stability fee\n        uint mkrAmount = stabilityFeeInMkr(tub, _cup, _amount);\n        uint daiFee = wdiv(mkrAmount, estimatedDaiMkrPrice(_amount));\n        uint amountExchanged = exchangeToken(ERC20(MAKER_DAI_ADDRESS), ERC20(MKR_ADDRESS), daiFee, mkrAmount);\n\n        _amount = sub(_amount, daiFee);\n\n        uint daiDebt = getDebt(tub, _cup);\n\n        if (_amount > daiDebt) {\n            ERC20(MAKER_DAI_ADDRESS).transfer(msg.sender, sub(_amount, daiDebt));\n            _amount = daiDebt;\n        }\n\n        tub.wipe(_cup, _amount);\n\n        ERC20(MKR_ADDRESS).transfer(msg.sender, ERC20(MKR_ADDRESS).balanceOf(address(this)));\n        ActionLogger(LOGGER_ADDRESS).logEvent('repayCDPDebt', msg.sender, mkrAmount, amountExchanged);\n    }\n\n    /// @notice It will draw Dai from CDP and add it to Compound\n    /// @param _cup CDP id\n    /// @param _amount Amount of Dai drawn from the CDP and put into Compound\n    function cdpToCompound(bytes32 _cup, uint _amount) public {\n        TubInterface tub = TubInterface(TUB_ADDRESS);\n        CTokenInterface cDaiContract = CTokenInterface(CDAI_ADDRESS);\n\n        approveTub(WETH_ADDRESS);\n        approveTub(PETH_ADDRESS);\n        approveTub(MAKER_DAI_ADDRESS);\n\n        tub.draw(_cup, _amount);\n\n        StupidExchange(STUPID_EXCHANGE).getCompoundDaiToken(_amount);\n\n        //cDai will try and pull Dai tokens from DSProxy, so approve it\n        ERC20(COMPOUND_DAI_ADDRESS).approve(CDAI_ADDRESS, uint(-1));\n\n        require(cDaiContract.mint(_amount) == 0, \"Failed Mint\");\n\n        uint cDaiMinted = cDaiContract.balanceOf(address(this));\n\n        // transfer the cDai to the original sender\n        ERC20(CDAI_ADDRESS).transfer(msg.sender, cDaiMinted);\n\n        ActionLogger(LOGGER_ADDRESS).logEvent('cdpToCompound', msg.sender, _amount, cDaiMinted);\n\n    }\n\n    /// @notice Calculates how many cTokens you get for a _tokenAmount\n    function getCTokenAmount(uint _tokenAmount, address _tokeAddress) internal returns(uint cAmount) {\n        MathError error;\n        (error, cAmount) = divScalarByExpTruncate(_tokenAmount,\n             Exp({mantissa: CTokenInterface(_tokeAddress).exchangeRateCurrent()}));\n\n        require(error == MathError.NO_ERROR, \"Math error\");\n    }\n\n    /// @notice Stability fee amount in Mkr\n    /// @param _tub Tub interface\n    /// @param _cup Id of the CDP\n    /// @param _daiRepay Amount of dai we are repaying\n    function stabilityFeeInMkr(TubInterface _tub, bytes32 _cup, uint _daiRepay) public returns (uint) {\n        bytes32 mkrPrice;\n        bool ok;\n\n        uint feeInDai = rmul(_daiRepay, rdiv(_tub.rap(_cup), _tub.tab(_cup)));\n\n        (mkrPrice, ok) = _tub.pep().peek();\n\n        return wdiv(feeInDai, uint(mkrPrice));\n    }\n\n    /// @notice Returns expected rate for Dai -> Mkr conversion\n    /// @param _daiAmount Amount of Dai\n    function estimatedDaiMkrPrice(uint _daiAmount) internal returns (uint expectedRate) {\n        (expectedRate, ) = KyberNetworkProxyInterface(KYBER_INTERFACE).getExpectedRate(ERC20(MAKER_DAI_ADDRESS), ERC20(MKR_ADDRESS), _daiAmount);\n    }\n\n    /// @notice Approve a token if it's not already approved\n    /// @param _tokenAddress Address of the ERC20 token we want to approve\n    function approveTub(address _tokenAddress) internal {\n        if (ERC20(_tokenAddress).allowance(msg.sender, _tokenAddress) < (uint(-1) / 2)) {\n            ERC20(_tokenAddress).approve(TUB_ADDRESS, uint(-1));\n        }\n    }\n\n    /// @notice Returns current Dai debt of the CDP\n    /// @param _tub Tub interface\n    /// @param _cup Id of the CDP\n    function getDebt(TubInterface _tub, bytes32 _cup) internal returns (uint debt) {\n        ( , , debt, ) = _tub.cups(_cup);\n    }\n\n    /// @notice Exhcanged a token on kyber\n    function exchangeToken(ERC20 _sourceToken, ERC20 _destToken, uint _sourceAmount, uint _maxAmount) internal returns (uint destAmount) {\n        KyberNetworkProxyInterface _kyberNetworkProxy = KyberNetworkProxyInterface(KYBER_INTERFACE);\n\n        uint minRate;\n        (, minRate) = _kyberNetworkProxy.getExpectedRate(_sourceToken, _destToken, _sourceAmount);\n\n        require(_sourceToken.approve(address(_kyberNetworkProxy), 0));\n        require(_sourceToken.approve(address(_kyberNetworkProxy), _sourceAmount));\n\n        destAmount = _kyberNetworkProxy.trade(\n            _sourceToken,\n            _sourceAmount,\n            _destToken,\n            address(this),\n            _maxAmount,\n            minRate,\n            WALLET_ID\n        );\n    }\n}\n",
  "sourcePath": "/Users/nikolaklipa/Decenter/defisaver/cdpsaver-contracts/contracts/compound/CompoundProxy.sol",
  "compiler": {
    "name": "solc",
    "version": "0.5.7+commit.6da8b019.Emscripten.clang"
  },
  "schemaVersion": "3.0.9",
  "updatedAt": "2019-08-12T10:52:18.360Z",
  "devdoc": {
    "methods": {
      "cdpToCompound(bytes32,uint256)": {
        "params": {
          "_amount": "Amount of Dai drawn from the CDP and put into Compound",
          "_cup": "CDP id"
        }
      },
      "repayCDPDebt(bytes32,uint256)": {
        "details": "User has to approve DSProxy to pull CDai before calling this",
        "params": {
          "_amount": "Amount of Dai that will be taken from Compound and put into CDP",
          "_cup": "Cdp id"
        }
      },
      "stabilityFeeInMkr(address,bytes32,uint256)": {
        "params": {
          "_cup": "Id of the CDP",
          "_daiRepay": "Amount of dai we are repaying",
          "_tub": "Tub interface"
        }
      }
    },
    "title": "CompoundProxy implements CDP and Compound direct interactions"
  },
  "userdoc": {
    "methods": {
      "cdpToCompound(bytes32,uint256)": {
        "notice": "It will draw Dai from CDP and add it to Compound"
      },
      "repayCDPDebt(bytes32,uint256)": {
        "notice": "It will draw Dai from Compound and repay part of the CDP debt"
      },
      "stabilityFeeInMkr(address,bytes32,uint256)": {
        "notice": "Stability fee amount in Mkr"
      }
    }
  }
}