{
  "contractName": "CompoundAdvanced",
  "abi": [
    {
      "constant": true,
      "inputs": [],
      "name": "WETH_ADDRESS",
      "outputs": [
        {
          "name": "",
          "type": "address"
        }
      ],
      "payable": false,
      "stateMutability": "view",
      "type": "function"
    },
    {
      "constant": true,
      "inputs": [],
      "name": "CDAI_ADDRESS",
      "outputs": [
        {
          "name": "",
          "type": "address"
        }
      ],
      "payable": false,
      "stateMutability": "view",
      "type": "function"
    },
    {
      "constant": true,
      "inputs": [],
      "name": "PIP_INTERFACE_ADDRESS",
      "outputs": [
        {
          "name": "",
          "type": "address"
        }
      ],
      "payable": false,
      "stateMutability": "view",
      "type": "function"
    },
    {
      "constant": true,
      "inputs": [],
      "name": "KYBER_ETH_ADDRESS",
      "outputs": [
        {
          "name": "",
          "type": "address"
        }
      ],
      "payable": false,
      "stateMutability": "view",
      "type": "function"
    },
    {
      "constant": true,
      "inputs": [],
      "name": "OTC_ADDRESS",
      "outputs": [
        {
          "name": "",
          "type": "address"
        }
      ],
      "payable": false,
      "stateMutability": "view",
      "type": "function"
    },
    {
      "constant": true,
      "inputs": [],
      "name": "IDAI_ADDRESS",
      "outputs": [
        {
          "name": "",
          "type": "address"
        }
      ],
      "payable": false,
      "stateMutability": "view",
      "type": "function"
    },
    {
      "constant": true,
      "inputs": [],
      "name": "GAS_TOKEN_INTERFACE_ADDRESS",
      "outputs": [
        {
          "name": "",
          "type": "address"
        }
      ],
      "payable": false,
      "stateMutability": "view",
      "type": "function"
    },
    {
      "constant": true,
      "inputs": [],
      "name": "VOX_ADDRESS",
      "outputs": [
        {
          "name": "",
          "type": "address"
        }
      ],
      "payable": false,
      "stateMutability": "view",
      "type": "function"
    },
    {
      "constant": true,
      "inputs": [],
      "name": "ETH2DAI_WRAPPER",
      "outputs": [
        {
          "name": "",
          "type": "address"
        }
      ],
      "payable": false,
      "stateMutability": "view",
      "type": "function"
    },
    {
      "constant": true,
      "inputs": [],
      "name": "STUPID_EXCHANGE",
      "outputs": [
        {
          "name": "",
          "type": "address"
        }
      ],
      "payable": false,
      "stateMutability": "view",
      "type": "function"
    },
    {
      "constant": true,
      "inputs": [],
      "name": "PROXY_REGISTRY_INTERFACE_ADDRESS",
      "outputs": [
        {
          "name": "",
          "type": "address"
        }
      ],
      "payable": false,
      "stateMutability": "view",
      "type": "function"
    },
    {
      "constant": true,
      "inputs": [],
      "name": "MKR_ADDRESS",
      "outputs": [
        {
          "name": "",
          "type": "address"
        }
      ],
      "payable": false,
      "stateMutability": "view",
      "type": "function"
    },
    {
      "constant": true,
      "inputs": [],
      "name": "FACTORY_ADDRESS",
      "outputs": [
        {
          "name": "",
          "type": "address"
        }
      ],
      "payable": false,
      "stateMutability": "view",
      "type": "function"
    },
    {
      "constant": true,
      "inputs": [],
      "name": "LOGGER_ADDRESS",
      "outputs": [
        {
          "name": "",
          "type": "address"
        }
      ],
      "payable": false,
      "stateMutability": "view",
      "type": "function"
    },
    {
      "constant": true,
      "inputs": [],
      "name": "MAKER_DAI_ADDRESS",
      "outputs": [
        {
          "name": "",
          "type": "address"
        }
      ],
      "payable": false,
      "stateMutability": "view",
      "type": "function"
    },
    {
      "constant": true,
      "inputs": [],
      "name": "KYBER_WRAPPER",
      "outputs": [
        {
          "name": "",
          "type": "address"
        }
      ],
      "payable": false,
      "stateMutability": "view",
      "type": "function"
    },
    {
      "constant": true,
      "inputs": [],
      "name": "COMPOUND_DAI_ADDRESS",
      "outputs": [
        {
          "name": "",
          "type": "address"
        }
      ],
      "payable": false,
      "stateMutability": "view",
      "type": "function"
    },
    {
      "constant": true,
      "inputs": [],
      "name": "UNISWAP_FACTORY",
      "outputs": [
        {
          "name": "",
          "type": "address"
        }
      ],
      "payable": false,
      "stateMutability": "view",
      "type": "function"
    },
    {
      "constant": true,
      "inputs": [],
      "name": "PETH_ADDRESS",
      "outputs": [
        {
          "name": "",
          "type": "address"
        }
      ],
      "payable": false,
      "stateMutability": "view",
      "type": "function"
    },
    {
      "constant": true,
      "inputs": [],
      "name": "KYBER_INTERFACE",
      "outputs": [
        {
          "name": "",
          "type": "address"
        }
      ],
      "payable": false,
      "stateMutability": "view",
      "type": "function"
    },
    {
      "constant": true,
      "inputs": [],
      "name": "WALLET_ID",
      "outputs": [
        {
          "name": "",
          "type": "address"
        }
      ],
      "payable": false,
      "stateMutability": "view",
      "type": "function"
    },
    {
      "constant": true,
      "inputs": [],
      "name": "SOLO_MARGIN_ADDRESS",
      "outputs": [
        {
          "name": "",
          "type": "address"
        }
      ],
      "payable": false,
      "stateMutability": "view",
      "type": "function"
    },
    {
      "constant": true,
      "inputs": [],
      "name": "UNISWAP_WRAPPER",
      "outputs": [
        {
          "name": "",
          "type": "address"
        }
      ],
      "payable": false,
      "stateMutability": "view",
      "type": "function"
    },
    {
      "constant": true,
      "inputs": [],
      "name": "TUB_ADDRESS",
      "outputs": [
        {
          "name": "",
          "type": "address"
        }
      ],
      "payable": false,
      "stateMutability": "view",
      "type": "function"
    },
    {
      "constant": false,
      "inputs": [
        {
          "name": "_suppliedAsset",
          "type": "address"
        },
        {
          "name": "_borrowedAsset",
          "type": "address"
        },
        {
          "name": "_underlyingSupply",
          "type": "address"
        },
        {
          "name": "_underlyingBorrow",
          "type": "address"
        },
        {
          "name": "_amount",
          "type": "uint256"
        }
      ],
      "name": "repay",
      "outputs": [],
      "payable": false,
      "stateMutability": "nonpayable",
      "type": "function"
    }
  ],
  "bytecode": "0x608060405234801561001057600080fd5b50611bd3806100206000396000f3fe608060405234801561001057600080fd5b5060043610610190576000357c0100000000000000000000000000000000000000000000000000000000900480638823151b116100fb578063c9fde270116100b4578063d36b907d1161008e578063d36b907d146107a7578063ddaa293c146107f1578063ebc27b081461083b578063f0d405e5146108e957610190565b8063c9fde270146106c9578063ce9bde1d14610713578063d3661fa51461075d57610190565b80638823151b1461050d57806394bfbe74146105575780639da779e9146105a1578063b175afa1146105eb578063c16921b714610635578063c74c0fac1461067f57610190565b806332ac5cd21161014d57806332ac5cd21461035157806336e6da111461039b57806343fb75e8146103e5578063502237d71461042f578063728c009214610479578063825ffd92146104c357610190565b8063040141e5146101955780630531b2ad146101df5780631dab52b01461022957806329f7fc9e146102735780632a441f05146102bd5780632d5eeb3f14610307575b600080fd5b61019d610933565b604051808273ffffffffffffffffffffffffffffffffffffffff1673ffffffffffffffffffffffffffffffffffffffff16815260200191505060405180910390f35b6101e761094b565b604051808273ffffffffffffffffffffffffffffffffffffffff1673ffffffffffffffffffffffffffffffffffffffff16815260200191505060405180910390f35b610231610963565b604051808273ffffffffffffffffffffffffffffffffffffffff1673ffffffffffffffffffffffffffffffffffffffff16815260200191505060405180910390f35b61027b61097b565b604051808273ffffffffffffffffffffffffffffffffffffffff1673ffffffffffffffffffffffffffffffffffffffff16815260200191505060405180910390f35b6102c5610993565b604051808273ffffffffffffffffffffffffffffffffffffffff1673ffffffffffffffffffffffffffffffffffffffff16815260200191505060405180910390f35b61030f6109ab565b604051808273ffffffffffffffffffffffffffffffffffffffff1673ffffffffffffffffffffffffffffffffffffffff16815260200191505060405180910390f35b6103596109c3565b604051808273ffffffffffffffffffffffffffffffffffffffff1673ffffffffffffffffffffffffffffffffffffffff16815260200191505060405180910390f35b6103a36109d6565b604051808273ffffffffffffffffffffffffffffffffffffffff1673ffffffffffffffffffffffffffffffffffffffff16815260200191505060405180910390f35b6103ed6109ee565b604051808273ffffffffffffffffffffffffffffffffffffffff1673ffffffffffffffffffffffffffffffffffffffff16815260200191505060405180910390f35b610437610a06565b604051808273ffffffffffffffffffffffffffffffffffffffff1673ffffffffffffffffffffffffffffffffffffffff16815260200191505060405180910390f35b610481610a1e565b604051808273ffffffffffffffffffffffffffffffffffffffff1673ffffffffffffffffffffffffffffffffffffffff16815260200191505060405180910390f35b6104cb610a36565b604051808273ffffffffffffffffffffffffffffffffffffffff1673ffffffffffffffffffffffffffffffffffffffff16815260200191505060405180910390f35b610515610a4e565b604051808273ffffffffffffffffffffffffffffffffffffffff1673ffffffffffffffffffffffffffffffffffffffff16815260200191505060405180910390f35b61055f610a66565b604051808273ffffffffffffffffffffffffffffffffffffffff1673ffffffffffffffffffffffffffffffffffffffff16815260200191505060405180910390f35b6105a9610a7e565b604051808273ffffffffffffffffffffffffffffffffffffffff1673ffffffffffffffffffffffffffffffffffffffff16815260200191505060405180910390f35b6105f3610a96565b604051808273ffffffffffffffffffffffffffffffffffffffff1673ffffffffffffffffffffffffffffffffffffffff16815260200191505060405180910390f35b61063d610aae565b604051808273ffffffffffffffffffffffffffffffffffffffff1673ffffffffffffffffffffffffffffffffffffffff16815260200191505060405180910390f35b610687610ac6565b604051808273ffffffffffffffffffffffffffffffffffffffff1673ffffffffffffffffffffffffffffffffffffffff16815260200191505060405180910390f35b6106d1610ade565b604051808273ffffffffffffffffffffffffffffffffffffffff1673ffffffffffffffffffffffffffffffffffffffff16815260200191505060405180910390f35b61071b610af6565b604051808273ffffffffffffffffffffffffffffffffffffffff1673ffffffffffffffffffffffffffffffffffffffff16815260200191505060405180910390f35b610765610b0e565b604051808273ffffffffffffffffffffffffffffffffffffffff1673ffffffffffffffffffffffffffffffffffffffff16815260200191505060405180910390f35b6107af610b26565b604051808273ffffffffffffffffffffffffffffffffffffffff1673ffffffffffffffffffffffffffffffffffffffff16815260200191505060405180910390f35b6107f9610b3e565b604051808273ffffffffffffffffffffffffffffffffffffffff1673ffffffffffffffffffffffffffffffffffffffff16815260200191505060405180910390f35b6108e7600480360360a081101561085157600080fd5b81019080803573ffffffffffffffffffffffffffffffffffffffff169060200190929190803573ffffffffffffffffffffffffffffffffffffffff169060200190929190803573ffffffffffffffffffffffffffffffffffffffff169060200190929190803573ffffffffffffffffffffffffffffffffffffffff16906020019092919080359060200190929190505050610b56565b005b6108f1611157565b604051808273ffffffffffffffffffffffffffffffffffffffff1673ffffffffffffffffffffffffffffffffffffffff16815260200191505060405180910390f35b73d0a1e359811322d97991e03f863a0c30c2cf029c81565b73b6b09fbffba6a5c4631e5f7b2e3ee183ac259c0d81565b73a944bd4b25c9f186a846fd5668941aa3d3b8425f81565b73eeeeeeeeeeeeeeeeeeeeeeeeeeeeeeeeeeeeeeee81565b734a6bc4e803c62081ffebcc8d227b5a87a58f1f8f81565b73a1e58f3b1927743393b25f261471e1f2d3d9f0f681565b6e170ccc93903185be5a2094c870df6281565b73bb4339c0ab5b1d9f14bd6e3426444a1e9d86a1d981565b73823cde416973a19f98bb9c96d97f4fe6c9a7238b81565b73863e41fe88288ebf3fcd91d8dbb679fb83fdfe1781565b7364a436ae831c1672ae81f674cab8b6775df3475c81565b73aaf64bfcc32d0f15873a02163e7e500671a4ffcd81565b73c72e74e474682680a414b506699bbca44ab9a93081565b7332d0e18f988f952eb3524ace762042381a2c39e581565b73c4375b7de8af5a38a93548eb8453a498222c4ff281565b735595930d576aedf13945c83ce5aad827529a131081565b7325a01a05c188dacbcf1d61af55d4a5b4021f7eed81565b73f5d915570bc477f9b8d6c0e980aa81757a3aac3681565b73f4d791139ce033ad35db2b2201435fad668b1b6481565b73692f391bcc85cefce8c237c01e1f636bbd70ea4d81565b7354b44c6b18fc0b4a1010b21d524c338d1f8065f681565b734ec3570cadaaee08ae384779b0f3a45ef85289de81565b735595930d576aedf13945c83ce5aad827529a131081565b600085905060008590506000610b6c848961116f565b90508273ffffffffffffffffffffffffffffffffffffffff1663095ea7b389836040518363ffffffff167c0100000000000000000000000000000000000000000000000000000000028152600401808373ffffffffffffffffffffffffffffffffffffffff1673ffffffffffffffffffffffffffffffffffffffff16815260200182815260200192505050602060405180830381600087803b158015610c1157600080fd5b505af1158015610c25573d6000803e3d6000fd5b505050506040513d6020811015610c3b57600080fd5b8101908080519060200190929190505050508273ffffffffffffffffffffffffffffffffffffffff166323b872dd3330846040518463ffffffff167c0100000000000000000000000000000000000000000000000000000000028152600401808473ffffffffffffffffffffffffffffffffffffffff1673ffffffffffffffffffffffffffffffffffffffff1681526020018373ffffffffffffffffffffffffffffffffffffffff1673ffffffffffffffffffffffffffffffffffffffff1681526020018281526020019350505050602060405180830381600087803b158015610d2457600080fd5b505af1158015610d38573d6000803e3d6000fd5b505050506040513d6020811015610d4e57600080fd5b81019080805190602001909291905050505060008373ffffffffffffffffffffffffffffffffffffffff1663852a12e3866040518263ffffffff167c010000000000000000000000000000000000000000000000000000000002815260040180828152602001915050602060405180830381600087803b158015610dd157600080fd5b505af1158015610de5573d6000803e3d6000fd5b505050506040513d6020811015610dfb57600080fd5b810190808051906020019092919050505014610e7f576040517f08c379a000000000000000000000000000000000000000000000000000000000815260040180806020018281038252600d8152602001807f52656564656d204661696c65640000000000000000000000000000000000000081525060200191505060405180910390fd5b60008273ffffffffffffffffffffffffffffffffffffffff166317bfdfbc336040518263ffffffff167c0100000000000000000000000000000000000000000000000000000000028152600401808273ffffffffffffffffffffffffffffffffffffffff1673ffffffffffffffffffffffffffffffffffffffff168152602001915050602060405180830381600087803b158015610f1c57600080fd5b505af1158015610f30573d6000803e3d6000fd5b505050506040513d6020811015610f4657600080fd5b810190808051906020019092919050505090506000610f6f82610f6a8a8a8a6112c3565b6113fe565b90506000610f7f8989848661143e565b905082811115610ff7576040517f08c379a000000000000000000000000000000000000000000000000000000000815260040180806020018281038252601a8152602001807f436f6e76657273696f6e206d757374206265207072656369736500000000000081525060200191505060405180910390fd5b60008573ffffffffffffffffffffffffffffffffffffffff16632608f81833846040518363ffffffff167c0100000000000000000000000000000000000000000000000000000000028152600401808373ffffffffffffffffffffffffffffffffffffffff1673ffffffffffffffffffffffffffffffffffffffff16815260200182815260200192505050602060405180830381600087803b15801561109c57600080fd5b505af11580156110b0573d6000803e3d6000fd5b505050506040513d60208110156110c657600080fd5b81019080805190602001909291905050501461114a576040517f08c379a000000000000000000000000000000000000000000000000000000000815260040180806020018281038252600c8152602001807f5265706179204661696c6564000000000000000000000000000000000000000081525060200191505060405180910390fd5b5050505050505050505050565b73a71937147b55deb8a530c7229c442fd3f31b7db281565b6000806112288460405180602001604052808673ffffffffffffffffffffffffffffffffffffffff1663bd6d894d6040518163ffffffff167c0100000000000000000000000000000000000000000000000000000000028152600401602060405180830381600087803b1580156111e557600080fd5b505af11580156111f9573d6000803e3d6000fd5b505050506040513d602081101561120f57600080fd5b81019080805190602001909291905050508152506118f5565b80935081925050506000600381111561123d57fe5b81600381111561124957fe5b146112bc576040517f08c379a000000000000000000000000000000000000000000000000000000000815260040180806020018281038252600a8152602001807f4d617468206572726f720000000000000000000000000000000000000000000081525060200191505060405180910390fd5b5092915050565b600073692f391bcc85cefce8c237c01e1f636bbd70ea4d73ffffffffffffffffffffffffffffffffffffffff1663809a9e558585856040518463ffffffff167c0100000000000000000000000000000000000000000000000000000000028152600401808473ffffffffffffffffffffffffffffffffffffffff1673ffffffffffffffffffffffffffffffffffffffff1681526020018373ffffffffffffffffffffffffffffffffffffffff1673ffffffffffffffffffffffffffffffffffffffff1681526020018281526020019350505050604080518083038186803b1580156113ad57600080fd5b505afa1580156113c1573d6000803e3d6000fd5b505050506040513d60408110156113d757600080fd5b81019080805190602001909291908051906020019092919050505050809150509392505050565b6000670de0b6b3a764000061142e6114168585611958565b6002670de0b6b3a76400008161142857fe5b04611984565b8161143557fe5b04905092915050565b60008073692f391bcc85cefce8c237c01e1f636bbd70ea4d905060008173ffffffffffffffffffffffffffffffffffffffff1663809a9e558888886040518463ffffffff167c0100000000000000000000000000000000000000000000000000000000028152600401808473ffffffffffffffffffffffffffffffffffffffff1673ffffffffffffffffffffffffffffffffffffffff1681526020018373ffffffffffffffffffffffffffffffffffffffff1673ffffffffffffffffffffffffffffffffffffffff1681526020018281526020019350505050604080518083038186803b15801561152e57600080fd5b505afa158015611542573d6000803e3d6000fd5b505050506040513d604081101561155857600080fd5b8101908080519060200190929190805190602001909291905050509050809150508673ffffffffffffffffffffffffffffffffffffffff1663095ea7b38360006040518363ffffffff167c0100000000000000000000000000000000000000000000000000000000028152600401808373ffffffffffffffffffffffffffffffffffffffff1673ffffffffffffffffffffffffffffffffffffffff16815260200182815260200192505050602060405180830381600087803b15801561161d57600080fd5b505af1158015611631573d6000803e3d6000fd5b505050506040513d602081101561164757600080fd5b810190808051906020019092919050505061166157600080fd5b8673ffffffffffffffffffffffffffffffffffffffff1663095ea7b383876040518363ffffffff167c0100000000000000000000000000000000000000000000000000000000028152600401808373ffffffffffffffffffffffffffffffffffffffff1673ffffffffffffffffffffffffffffffffffffffff16815260200182815260200192505050602060405180830381600087803b15801561170457600080fd5b505af1158015611718573d6000803e3d6000fd5b505050506040513d602081101561172e57600080fd5b810190808051906020019092919050505061174857600080fd5b8173ffffffffffffffffffffffffffffffffffffffff1663cb3c28c78887893389877354b44c6b18fc0b4a1010b21d524c338d1f8065f66040518863ffffffff167c0100000000000000000000000000000000000000000000000000000000028152600401808873ffffffffffffffffffffffffffffffffffffffff1673ffffffffffffffffffffffffffffffffffffffff1681526020018781526020018673ffffffffffffffffffffffffffffffffffffffff1673ffffffffffffffffffffffffffffffffffffffff1681526020018573ffffffffffffffffffffffffffffffffffffffff1673ffffffffffffffffffffffffffffffffffffffff1681526020018481526020018381526020018273ffffffffffffffffffffffffffffffffffffffff1673ffffffffffffffffffffffffffffffffffffffff168152602001975050505050505050602060405180830381600087803b1580156118ab57600080fd5b505af11580156118bf573d6000803e3d6000fd5b505050506040513d60208110156118d557600080fd5b810190808051906020019092919050505092508292505050949350505050565b6000806000611902611b94565b61190c868661199e565b915091506000600381111561191d57fe5b82600381111561192957fe5b1461193f57816000809050935093505050611951565b600061194a82611a1a565b9350935050505b9250929050565b600080821480611975575082828385029250828161197257fe5b04145b61197e57600080fd5b92915050565b600082828401915081101561199857600080fd5b92915050565b60006119a8611b94565b6000806119bd670de0b6b3a764000087611a39565b91509150600060038111156119ce57fe5b8260038111156119da57fe5b146119fe578160405180602001604052806000815250809050935093505050611a13565b611a0c818660000151611a8c565b9350935050505b9250929050565b6000670de0b6b3a7640000826000015181611a3157fe5b049050919050565b6000806000841415611a545760008080905091509150611a85565b6000838502905083858281611a6557fe5b0414611a7c57600260008090509250925050611a85565b60008192509250505b9250929050565b6000611a96611b94565b600080611aab86670de0b6b3a7640000611a39565b9150915060006003811115611abc57fe5b826003811115611ac857fe5b14611aec578160405180602001604052806000815250809050935093505050611b59565b600080611af98388611b60565b9150915060006003811115611b0a57fe5b826003811115611b1657fe5b14611b3c5781604051806020016040528060008152508090509550955050505050611b59565b600060405180602001604052808381525080905095509550505050505b9250929050565b6000806000831415611b7c576001600080905091509150611b8d565b6000838581611b8757fe5b04915091505b9250929050565b604051806020016040528060008152509056fea165627a7a7230582028f12f62518c9fcfa35ffaf995277cf7295d9c6695b8d8aaa1608d4bcd56ec030029",
  "source": "pragma solidity ^0.5.0;\n\nimport \"../interfaces/CTokenInterface.sol\";\nimport \"../interfaces/KyberNetworkProxyInterface.sol\";\nimport \"./Exponential.sol\";\nimport \"../DS/DSMath.sol\";\nimport \"../constants/ConstantAddresses.sol\";\n\ncontract CompoundAdvanced is Exponential, DSMath, ConstantAddresses {\n\n    /// @notice Takes out an asset which a user supplies, converts and pays the debt\n    function repay(address _suppliedAsset, address _borrowedAsset, address _underlyingSupply, address _underlyingBorrow, uint _amount) public {\n        CTokenInterface cSuppliedContract = CTokenInterface(_suppliedAsset);\n        CTokenInterface cBorrowedContract = CTokenInterface(_borrowedAsset);\n\n        uint cAmount = getCTokenAmount(_amount, _suppliedAsset);\n\n        cSuppliedContract.approve(_suppliedAsset, cAmount);\n        cSuppliedContract.transferFrom(msg.sender, address(this), cAmount);\n\n        //TODO: how much can we reedem\n        require(cSuppliedContract.redeemUnderlying(_amount) == 0, \"Reedem Failed\");\n\n        uint borrowAmount = cBorrowedContract.borrowBalanceCurrent(msg.sender);\n\n        //TODO : check this\n        uint debtInSupplyToken = wmul(borrowAmount, estimatedSourceTokenPrice(_underlyingSupply, _underlyingBorrow, _amount));\n\n        uint amountExchanged = exchangeToken(ERC20(_underlyingSupply), ERC20(_underlyingBorrow), debtInSupplyToken, borrowAmount);\n\n        require(amountExchanged <= borrowAmount, \"Conversion must be precise\");\n\n        require(cBorrowedContract.repayBorrowBehalf(msg.sender, amountExchanged) == 0, \"Repay Failed\");\n    }\n\n    function exchangeToken(ERC20 _sourceToken, ERC20 _destToken, uint _sourceAmount, uint _maxAmount) internal returns (uint destAmount) {\n        KyberNetworkProxyInterface _kyberNetworkProxy = KyberNetworkProxyInterface(KYBER_INTERFACE);\n\n        uint minRate;\n        (, minRate) = _kyberNetworkProxy.getExpectedRate(_sourceToken, _destToken, _sourceAmount);\n\n        require(_sourceToken.approve(address(_kyberNetworkProxy), 0));\n        require(_sourceToken.approve(address(_kyberNetworkProxy), _sourceAmount));\n\n        destAmount = _kyberNetworkProxy.trade(\n            _sourceToken,\n            _sourceAmount,\n            _destToken,\n            msg.sender,\n            _maxAmount,\n            minRate,\n            WALLET_ID\n        );\n\n        return destAmount;\n    }\n\n    /// @notice Returns expected rate for Eth -> Dai conversion\n    /// @param _amount Amount of Ether\n    function estimatedSourceTokenPrice(address _source, address _dest, uint _amount) internal returns (uint expectedRate) {\n        (expectedRate, ) = KyberNetworkProxyInterface(KYBER_INTERFACE).getExpectedRate(ERC20(_source), ERC20(_dest), _amount);\n    }\n\n    /// @notice Calculates how many cTokens you get for a _tokenAmount\n    function getCTokenAmount(uint _tokenAmount, address _tokeAddress) internal returns(uint cAmount) {\n        MathError error;\n        (error, cAmount) = divScalarByExpTruncate(_tokenAmount,\n             Exp({mantissa: CTokenInterface(_tokeAddress).exchangeRateCurrent()}));\n\n        require(error == MathError.NO_ERROR, \"Math error\");\n    }\n}\n",
  "sourcePath": "/Users/nenadpalinkasevic/Desktop/blockchain/cdpsaver-contracts/contracts/compound/CompoundAdvanced.sol",
  "compiler": {
    "name": "solc",
    "version": "0.5.7+commit.6da8b019.Emscripten.clang"
  },
  "schemaVersion": "3.0.0",
  "updatedAt": "2019-08-17T15:16:25.173Z",
  "devdoc": {
    "methods": {}
  },
  "userdoc": {
    "methods": {
      "repay(address,address,address,address,uint256)": {
        "notice": "Takes out an asset which a user supplies, converts and pays the debt"
      }
    }
  }
}