{
  "contractName": "ConstantAddressesMainnet",
  "abi": [
    {
      "constant": true,
      "inputs": [],
      "name": "WETH_ADDRESS",
      "outputs": [
        {
          "name": "",
          "type": "address"
        }
      ],
      "payable": false,
      "stateMutability": "view",
      "type": "function"
    },
    {
      "constant": true,
      "inputs": [],
      "name": "CDAI_ADDRESS",
      "outputs": [
        {
          "name": "",
          "type": "address"
        }
      ],
      "payable": false,
      "stateMutability": "view",
      "type": "function"
    },
    {
      "constant": true,
      "inputs": [],
      "name": "PIP_INTERFACE_ADDRESS",
      "outputs": [
        {
          "name": "",
          "type": "address"
        }
      ],
      "payable": false,
      "stateMutability": "view",
      "type": "function"
    },
    {
      "constant": true,
      "inputs": [],
      "name": "KYBER_ETH_ADDRESS",
      "outputs": [
        {
          "name": "",
          "type": "address"
        }
      ],
      "payable": false,
      "stateMutability": "view",
      "type": "function"
    },
    {
      "constant": true,
      "inputs": [],
      "name": "OTC_ADDRESS",
      "outputs": [
        {
          "name": "",
          "type": "address"
        }
      ],
      "payable": false,
      "stateMutability": "view",
      "type": "function"
    },
    {
      "constant": true,
      "inputs": [],
      "name": "IDAI_ADDRESS",
      "outputs": [
        {
          "name": "",
          "type": "address"
        }
      ],
      "payable": false,
      "stateMutability": "view",
      "type": "function"
    },
    {
      "constant": true,
      "inputs": [],
      "name": "GAS_TOKEN_INTERFACE_ADDRESS",
      "outputs": [
        {
          "name": "",
          "type": "address"
        }
      ],
      "payable": false,
      "stateMutability": "view",
      "type": "function"
    },
    {
      "constant": true,
      "inputs": [],
      "name": "VOX_ADDRESS",
      "outputs": [
        {
          "name": "",
          "type": "address"
        }
      ],
      "payable": false,
      "stateMutability": "view",
      "type": "function"
    },
    {
      "constant": true,
      "inputs": [],
      "name": "ETH2DAI_WRAPPER",
      "outputs": [
        {
          "name": "",
          "type": "address"
        }
      ],
      "payable": false,
      "stateMutability": "view",
      "type": "function"
    },
    {
      "constant": true,
      "inputs": [],
      "name": "STUPID_EXCHANGE",
      "outputs": [
        {
          "name": "",
          "type": "address"
        }
      ],
      "payable": false,
      "stateMutability": "view",
      "type": "function"
    },
    {
      "constant": true,
      "inputs": [],
      "name": "PROXY_REGISTRY_INTERFACE_ADDRESS",
      "outputs": [
        {
          "name": "",
          "type": "address"
        }
      ],
      "payable": false,
      "stateMutability": "view",
      "type": "function"
    },
    {
      "constant": true,
      "inputs": [],
      "name": "MKR_ADDRESS",
      "outputs": [
        {
          "name": "",
          "type": "address"
        }
      ],
      "payable": false,
      "stateMutability": "view",
      "type": "function"
    },
    {
      "constant": true,
      "inputs": [],
      "name": "FACTORY_ADDRESS",
      "outputs": [
        {
          "name": "",
          "type": "address"
        }
      ],
      "payable": false,
      "stateMutability": "view",
      "type": "function"
    },
    {
      "constant": true,
      "inputs": [],
      "name": "LOGGER_ADDRESS",
      "outputs": [
        {
          "name": "",
          "type": "address"
        }
      ],
      "payable": false,
      "stateMutability": "view",
      "type": "function"
    },
    {
      "constant": true,
      "inputs": [],
      "name": "MAKER_DAI_ADDRESS",
      "outputs": [
        {
          "name": "",
          "type": "address"
        }
      ],
      "payable": false,
      "stateMutability": "view",
      "type": "function"
    },
    {
      "constant": true,
      "inputs": [],
      "name": "KYBER_WRAPPER",
      "outputs": [
        {
          "name": "",
          "type": "address"
        }
      ],
      "payable": false,
      "stateMutability": "view",
      "type": "function"
    },
    {
      "constant": true,
      "inputs": [],
      "name": "COMPOUND_DAI_ADDRESS",
      "outputs": [
        {
          "name": "",
          "type": "address"
        }
      ],
      "payable": false,
      "stateMutability": "view",
      "type": "function"
    },
    {
      "constant": true,
      "inputs": [],
      "name": "UNISWAP_FACTORY",
      "outputs": [
        {
          "name": "",
          "type": "address"
        }
      ],
      "payable": false,
      "stateMutability": "view",
      "type": "function"
    },
    {
      "constant": true,
      "inputs": [],
      "name": "PETH_ADDRESS",
      "outputs": [
        {
          "name": "",
          "type": "address"
        }
      ],
      "payable": false,
      "stateMutability": "view",
      "type": "function"
    },
    {
      "constant": true,
      "inputs": [],
      "name": "KYBER_INTERFACE",
      "outputs": [
        {
          "name": "",
          "type": "address"
        }
      ],
      "payable": false,
      "stateMutability": "view",
      "type": "function"
    },
    {
      "constant": true,
      "inputs": [],
      "name": "WALLET_ID",
      "outputs": [
        {
          "name": "",
          "type": "address"
        }
      ],
      "payable": false,
      "stateMutability": "view",
      "type": "function"
    },
    {
      "constant": true,
      "inputs": [],
      "name": "SOLO_MARGIN_ADDRESS",
      "outputs": [
        {
          "name": "",
          "type": "address"
        }
      ],
      "payable": false,
      "stateMutability": "view",
      "type": "function"
    },
    {
      "constant": true,
      "inputs": [],
      "name": "UNISWAP_WRAPPER",
      "outputs": [
        {
          "name": "",
          "type": "address"
        }
      ],
      "payable": false,
      "stateMutability": "view",
      "type": "function"
    },
    {
      "constant": true,
      "inputs": [],
      "name": "TUB_ADDRESS",
      "outputs": [
        {
          "name": "",
          "type": "address"
        }
      ],
      "payable": false,
      "stateMutability": "view",
      "type": "function"
    }
  ],
  "bytecode": "0x608060405234801561001057600080fd5b50610ab4806100206000396000f3fe608060405234801561001057600080fd5b50600436106101585760003560e01c80638823151b116100c3578063c9fde2701161007c578063c9fde27014610691578063ce9bde1d146106db578063d3661fa514610725578063d36b907d1461076f578063ddaa293c146107b9578063f0d405e51461080357610158565b80638823151b146104d557806394bfbe741461051f5780639da779e914610569578063b175afa1146105b3578063c16921b7146105fd578063c74c0fac1461064757610158565b806332ac5cd21161011557806332ac5cd21461031957806336e6da111461036357806343fb75e8146103ad578063502237d7146103f7578063728c009214610441578063825ffd921461048b57610158565b8063040141e51461015d5780630531b2ad146101a75780631dab52b0146101f157806329f7fc9e1461023b5780632a441f05146102855780632d5eeb3f146102cf575b600080fd5b61016561084d565b604051808273ffffffffffffffffffffffffffffffffffffffff1673ffffffffffffffffffffffffffffffffffffffff16815260200191505060405180910390f35b6101af610865565b604051808273ffffffffffffffffffffffffffffffffffffffff1673ffffffffffffffffffffffffffffffffffffffff16815260200191505060405180910390f35b6101f961087d565b604051808273ffffffffffffffffffffffffffffffffffffffff1673ffffffffffffffffffffffffffffffffffffffff16815260200191505060405180910390f35b610243610895565b604051808273ffffffffffffffffffffffffffffffffffffffff1673ffffffffffffffffffffffffffffffffffffffff16815260200191505060405180910390f35b61028d6108ad565b604051808273ffffffffffffffffffffffffffffffffffffffff1673ffffffffffffffffffffffffffffffffffffffff16815260200191505060405180910390f35b6102d76108c5565b604051808273ffffffffffffffffffffffffffffffffffffffff1673ffffffffffffffffffffffffffffffffffffffff16815260200191505060405180910390f35b6103216108dd565b604051808273ffffffffffffffffffffffffffffffffffffffff1673ffffffffffffffffffffffffffffffffffffffff16815260200191505060405180910390f35b61036b6108f0565b604051808273ffffffffffffffffffffffffffffffffffffffff1673ffffffffffffffffffffffffffffffffffffffff16815260200191505060405180910390f35b6103b5610908565b604051808273ffffffffffffffffffffffffffffffffffffffff1673ffffffffffffffffffffffffffffffffffffffff16815260200191505060405180910390f35b6103ff610920565b604051808273ffffffffffffffffffffffffffffffffffffffff1673ffffffffffffffffffffffffffffffffffffffff16815260200191505060405180910390f35b610449610938565b604051808273ffffffffffffffffffffffffffffffffffffffff1673ffffffffffffffffffffffffffffffffffffffff16815260200191505060405180910390f35b610493610950565b604051808273ffffffffffffffffffffffffffffffffffffffff1673ffffffffffffffffffffffffffffffffffffffff16815260200191505060405180910390f35b6104dd610968565b604051808273ffffffffffffffffffffffffffffffffffffffff1673ffffffffffffffffffffffffffffffffffffffff16815260200191505060405180910390f35b610527610980565b604051808273ffffffffffffffffffffffffffffffffffffffff1673ffffffffffffffffffffffffffffffffffffffff16815260200191505060405180910390f35b610571610998565b604051808273ffffffffffffffffffffffffffffffffffffffff1673ffffffffffffffffffffffffffffffffffffffff16815260200191505060405180910390f35b6105bb6109b0565b604051808273ffffffffffffffffffffffffffffffffffffffff1673ffffffffffffffffffffffffffffffffffffffff16815260200191505060405180910390f35b6106056109c8565b604051808273ffffffffffffffffffffffffffffffffffffffff1673ffffffffffffffffffffffffffffffffffffffff16815260200191505060405180910390f35b61064f6109e0565b604051808273ffffffffffffffffffffffffffffffffffffffff1673ffffffffffffffffffffffffffffffffffffffff16815260200191505060405180910390f35b6106996109f8565b604051808273ffffffffffffffffffffffffffffffffffffffff1673ffffffffffffffffffffffffffffffffffffffff16815260200191505060405180910390f35b6106e3610a10565b604051808273ffffffffffffffffffffffffffffffffffffffff1673ffffffffffffffffffffffffffffffffffffffff16815260200191505060405180910390f35b61072d610a28565b604051808273ffffffffffffffffffffffffffffffffffffffff1673ffffffffffffffffffffffffffffffffffffffff16815260200191505060405180910390f35b610777610a40565b604051808273ffffffffffffffffffffffffffffffffffffffff1673ffffffffffffffffffffffffffffffffffffffff16815260200191505060405180910390f35b6107c1610a58565b604051808273ffffffffffffffffffffffffffffffffffffffff1673ffffffffffffffffffffffffffffffffffffffff16815260200191505060405180910390f35b61080b610a70565b604051808273ffffffffffffffffffffffffffffffffffffffff1673ffffffffffffffffffffffffffffffffffffffff16815260200191505060405180910390f35b73c02aaa39b223fe8d0a0e5c4f27ead9083c756cc281565b73f5dce57282a584d2746faf1593d3121fcac444dc81565b73729d19f657bd0614b4985cf1d82531c67569197b81565b73eeeeeeeeeeeeeeeeeeeeeeeeeeeeeeeeeeeeeeee81565b7339755357759ce0d7f32dc8dc45414cca409ae24e81565b7314094949152eddbfcd073717200da82fed8dc96081565b6e170ccc93903185be5a2094c870df6281565b739b0f70df76165442ca6092939132bbaea77f2d7a81565b73d7bbb1777e13b6f535dec414f575b858ed300baf81565b73863e41fe88288ebf3fcd91d8dbb679fb83fdfe1781565b7364a436ae831c1672ae81f674cab8b6775df3475c81565b739f8f72aa9304c8b593d555f12ef6589cc3a579a281565b735a15566417e6c1c9546523066500bddbc53f88c781565b73ecf88e1cec2d2894a0295db3d86fe7ce4991e6df81565b7389d24a6b4ccb1b6faa2625fe562bdd9a2326035981565b73aae7ba823679889b12f71d1f18beecbc69e6223781565b7325a01a05c188dacbcf1d61af55d4a5b4021f7eed81565b73c0a47dfe034b400b47bdad5fecda2621de6c4d9581565b73f53ad2c6851052a81b42133467480961b2321c0981565b73818e6fecd516ecc3849daf6845e3ec868087b75581565b73322d58b9e75a6918f7e7849aee0ff09369977e0881565b731e0447b19bb6ecfdae1e4ae1694b0c3659614e4e81565b730aa70981311d60a9521c99cecfdd68c3e5a83b8381565b73448a5065aebb8e423f0896e6c5d525c040f59af38156fea165627a7a723058207a6d905a255026884830031bb368ebd9158812a6d433dfd79e62623a082ab5460029",
  "source": "pragma solidity ^0.5.0;\n\n\ncontract ConstantAddressesMainnet {\n    address public constant MAKER_DAI_ADDRESS = 0x89d24A6b4CcB1B6fAA2625fE562bDD9a23260359;\n    address public constant IDAI_ADDRESS = 0x14094949152EDDBFcd073717200DA82fEd8dC960;\n    address public constant SOLO_MARGIN_ADDRESS = 0x1E0447b19BB6EcFdAe1e4AE1694b0C3659614e4e;\n    address public constant CDAI_ADDRESS = 0xF5DCe57282A584D2746FaF1593d3121Fcac444dC;\n    address public constant KYBER_ETH_ADDRESS = 0xEeeeeEeeeEeEeeEeEeEeeEEEeeeeEeeeeeeeEEeE;\n    address public constant MKR_ADDRESS = 0x9f8F72aA9304c8B593d555F12eF6589cC3A579A2;\n    address public constant WETH_ADDRESS = 0xC02aaA39b223FE8D0A0e5C4F27eAD9083C756Cc2;\n    address public constant VOX_ADDRESS = 0x9B0F70Df76165442ca6092939132bBAEA77f2d7A;\n    address public constant PETH_ADDRESS = 0xf53AD2c6851052A81B42133467480961B2321C09;\n    address public constant TUB_ADDRESS = 0x448a5065aeBB8E423F0896E6c5D525C040f59af3;\n    address public constant WALLET_ID = 0x322d58b9E75a6918f7e7849AEe0fF09369977e08;\n    address public constant LOGGER_ADDRESS = 0xeCf88e1ceC2D2894A0295DB3D86Fe7CE4991E6dF;\n    address public constant OTC_ADDRESS = 0x39755357759cE0d7f32dC8dC45414CCa409AE24e;\n\n    address public constant KYBER_WRAPPER = 0xAae7ba823679889b12f71D1f18BEeCBc69E62237;\n    address public constant UNISWAP_WRAPPER = 0x0aa70981311D60a9521C99cecFDD68C3E5a83B83;\n    address public constant ETH2DAI_WRAPPER = 0xd7BBB1777E13b6F535Dec414f575b858ed300baF;\n\n    address public constant KYBER_INTERFACE = 0x818E6FECD516Ecc3849DAf6845e3EC868087B755;\n    address public constant UNISWAP_FACTORY = 0xc0a47dFe034B400B47bDaD5FecDa2621de6c4d95;\n    address public constant FACTORY_ADDRESS = 0x5a15566417e6C1c9546523066500bDDBc53F88C7;\n    address public constant PIP_INTERFACE_ADDRESS = 0x729D19f657BD0614b4985Cf1D82531c67569197B;\n\n    // Kovan addresses, don't have mainnet\n    address public constant PROXY_REGISTRY_INTERFACE_ADDRESS = 0x64A436ae831C1672AE81F674CAb8B6775df3475C;\n    address public constant GAS_TOKEN_INTERFACE_ADDRESS = 0x0000000000170CcC93903185bE5A2094C870Df62;\n\n    // Kovan addresses, not used on mainnet\n    address public constant COMPOUND_DAI_ADDRESS = 0x25a01a05C188DaCBCf1D61Af55D4a5B4021F7eeD;\n    address public constant STUPID_EXCHANGE = 0x863E41FE88288ebf3fcd91d8Dbb679fb83fdfE17;\n}\n",
  "sourcePath": "/Users/nikolaklipa/Decenter/defisaver/cdpsaver-contracts/contracts/constants/ConstantAddressesMainnet.sol",
  "compiler": {
    "name": "solc",
    "version": "0.5.7+commit.6da8b019.Emscripten.clang"
  },
  "schemaVersion": "3.0.9",
  "updatedAt": "2019-08-13T11:10:46.974Z",
  "devdoc": {
    "methods": {}
  },
  "userdoc": {
    "methods": {}
  }
}