{
  "contractName": "ConstantAddressesMainnet",
  "abi": [
    {
      "constant": true,
      "inputs": [],
      "name": "CDAI_ADDRESS",
      "outputs": [
        {
          "name": "",
          "type": "address"
        }
      ],
      "payable": false,
      "stateMutability": "view",
      "type": "function"
    },
    {
      "constant": true,
      "inputs": [],
      "name": "IDAI_ADDRESS",
      "outputs": [
        {
          "name": "",
          "type": "address"
        }
      ],
      "payable": false,
      "stateMutability": "view",
      "type": "function"
    },
    {
      "constant": true,
      "inputs": [],
      "name": "MAKER_DAI_ADDRESS",
      "outputs": [
        {
          "name": "",
          "type": "address"
        }
      ],
      "payable": false,
      "stateMutability": "view",
      "type": "function"
    },
    {
      "constant": true,
      "inputs": [],
      "name": "SOLO_MARGIN_ADDRESS",
      "outputs": [
        {
          "name": "",
          "type": "address"
        }
      ],
      "payable": false,
      "stateMutability": "view",
      "type": "function"
    }
  ],
  "bytecode": "0x608060405234801561001057600080fd5b50610205806100206000396000f3fe608060405234801561001057600080fd5b506004361061004c5760003560e01c80630531b2ad146100515780632d5eeb3f1461009b5780639da779e9146100e5578063d36b907d1461012f575b600080fd5b610059610179565b604051808273ffffffffffffffffffffffffffffffffffffffff1673ffffffffffffffffffffffffffffffffffffffff16815260200191505060405180910390f35b6100a3610191565b604051808273ffffffffffffffffffffffffffffffffffffffff1673ffffffffffffffffffffffffffffffffffffffff16815260200191505060405180910390f35b6100ed6101a9565b604051808273ffffffffffffffffffffffffffffffffffffffff1673ffffffffffffffffffffffffffffffffffffffff16815260200191505060405180910390f35b6101376101c1565b604051808273ffffffffffffffffffffffffffffffffffffffff1673ffffffffffffffffffffffffffffffffffffffff16815260200191505060405180910390f35b73f5dce57282a584d2746faf1593d3121fcac444dc81565b7314094949152eddbfcd073717200da82fed8dc96081565b7389d24a6b4ccb1b6faa2625fe562bdd9a2326035981565b731e0447b19bb6ecfdae1e4ae1694b0c3659614e4e8156fea165627a7a723058204361bce4b6db9f66f61caf5fa9a17f5f9a0854807db5b360a368e301aa1cc81e0029",
  "source": "pragma solidity ^0.5.0;\n\n\ncontract ConstantAddressesMainnet {\n    address public constant MAKER_DAI_ADDRESS = 0x89d24A6b4CcB1B6fAA2625fE562bDD9a23260359;\n    address public constant IDAI_ADDRESS = 0x14094949152EDDBFcd073717200DA82fEd8dC960;\n    address public constant SOLO_MARGIN_ADDRESS = 0x1E0447b19BB6EcFdAe1e4AE1694b0C3659614e4e;\n    address public constant CDAI_ADDRESS = 0xF5DCe57282A584D2746FaF1593d3121Fcac444dC;\n}\n",
  "sourcePath": "/Users/nikolaklipa/Decenter/defisaver/cdpsaver-contracts/contracts/ConstantAddressesMainnet.sol",
  "compiler": {
    "name": "solc",
    "version": "0.5.7+commit.6da8b019.Emscripten.clang"
  },
  "schemaVersion": "3.0.9",
  "updatedAt": "2019-08-08T22:57:46.832Z",
  "devdoc": {
    "methods": {}
  },
  "userdoc": {
    "methods": {}
  }
}