{
  "contractName": "DydxSavingsProtocol",
  "abi": [
    {
      "constant": true,
      "inputs": [],
      "name": "soloMargin",
      "outputs": [
        {
          "name": "",
          "type": "address"
        }
      ],
      "payable": false,
      "stateMutability": "view",
      "type": "function"
    },
    {
      "constant": true,
      "inputs": [],
      "name": "MAKER_DAI_ADDRESS",
      "outputs": [
        {
          "name": "",
          "type": "address"
        }
      ],
      "payable": false,
      "stateMutability": "view",
      "type": "function"
    },
    {
      "constant": true,
      "inputs": [],
      "name": "savingsProxy",
      "outputs": [
        {
          "name": "",
          "type": "address"
        }
      ],
      "payable": false,
      "stateMutability": "view",
      "type": "function"
    },
    {
      "constant": true,
      "inputs": [],
      "name": "SOLO_MARGIN_ADDRESS",
      "outputs": [
        {
          "name": "",
          "type": "address"
        }
      ],
      "payable": false,
      "stateMutability": "view",
      "type": "function"
    },
    {
      "constant": true,
      "inputs": [],
      "name": "dai",
      "outputs": [
        {
          "name": "",
          "type": "address"
        }
      ],
      "payable": false,
      "stateMutability": "view",
      "type": "function"
    },
    {
      "inputs": [
        {
          "name": "_savingsProxy",
          "type": "address"
        }
      ],
      "payable": false,
      "stateMutability": "nonpayable",
      "type": "constructor"
    },
    {
      "constant": false,
      "inputs": [
        {
          "name": "_user",
          "type": "address"
        },
        {
          "name": "_amount",
          "type": "uint256"
        }
      ],
      "name": "deposit",
      "outputs": [],
      "payable": false,
      "stateMutability": "nonpayable",
      "type": "function"
    },
    {
      "constant": false,
      "inputs": [
        {
          "name": "_user",
          "type": "address"
        },
        {
          "name": "_amount",
          "type": "uint256"
        }
      ],
      "name": "withdraw",
      "outputs": [],
      "payable": false,
      "stateMutability": "nonpayable",
      "type": "function"
    },
    {
      "constant": true,
      "inputs": [
        {
          "name": "_user",
          "type": "address"
        },
        {
          "name": "_index",
          "type": "uint256"
        }
      ],
      "name": "getWeiBalance",
      "outputs": [
        {
          "components": [
            {
              "name": "sign",
              "type": "bool"
            },
            {
              "name": "value",
              "type": "uint256"
            }
          ],
          "name": "",
          "type": "tuple"
        }
      ],
      "payable": false,
      "stateMutability": "view",
      "type": "function"
    },
    {
      "constant": true,
      "inputs": [
        {
          "name": "_user",
          "type": "address"
        },
        {
          "name": "_index",
          "type": "uint256"
        }
      ],
      "name": "getParBalance",
      "outputs": [
        {
          "components": [
            {
              "name": "sign",
              "type": "bool"
            },
            {
              "name": "value",
              "type": "uint128"
            }
          ],
          "name": "",
          "type": "tuple"
        }
      ],
      "payable": false,
      "stateMutability": "view",
      "type": "function"
    },
    {
      "constant": true,
      "inputs": [
        {
          "name": "_user",
          "type": "address"
        },
        {
          "name": "_index",
          "type": "uint256"
        }
      ],
      "name": "getAccount",
      "outputs": [
        {
          "components": [
            {
              "name": "owner",
              "type": "address"
            },
            {
              "name": "number",
              "type": "uint256"
            }
          ],
          "name": "",
          "type": "tuple"
        }
      ],
      "payable": false,
      "stateMutability": "view",
      "type": "function"
    }
  ],
  "bytecode": "0x608060405260016003553480156200001657600080fd5b50604051602080620017bd83398101806040526200003891908101906200013f565b731e0447b19bb6ecfdae1e4ae1694b0c3659614e4e6000806101000a81548173ffffffffffffffffffffffffffffffffffffffff021916908373ffffffffffffffffffffffffffffffffffffffff1602179055507389d24a6b4ccb1b6faa2625fe562bdd9a23260359600160006101000a81548173ffffffffffffffffffffffffffffffffffffffff021916908373ffffffffffffffffffffffffffffffffffffffff16021790555080600260006101000a81548173ffffffffffffffffffffffffffffffffffffffff021916908373ffffffffffffffffffffffffffffffffffffffff160217905550506200019f565b60006200013782516200016b565b905092915050565b6000602082840312156200015257600080fd5b6000620001628482850162000129565b91505092915050565b600062000178826200017f565b9050919050565b600073ffffffffffffffffffffffffffffffffffffffff82169050919050565b61160e80620001af6000396000f3fe608060405234801561001057600080fd5b506004361061009e5760003560e01c8063a683668c11610066578063a683668c1461015b578063d36b907d14610179578063eef1bbda14610197578063f3fef3a3146101c7578063f4b9fa75146101e35761009e565b8063134f6d3a146100a357806347e7ef24146100c1578063670079eb146100dd5780637800a0f61461010d5780639da779e91461013d575b600080fd5b6100ab610201565b6040516100b89190611275565b60405180910390f35b6100db60048036036100d69190810190610dab565b610226565b005b6100f760048036036100f29190810190610dab565b610486565b6040516101049190611290565b60405180910390f35b61012760048036036101229190810190610dab565b6104cd565b60405161013491906112ab565b60405180910390f35b6101456105b6565b6040516101529190611208565b60405180910390f35b6101636105ce565b6040516101709190611208565b60405180910390f35b6101816105f4565b60405161018e9190611208565b60405180910390f35b6101b160048036036101ac9190810190610dab565b61060c565b6040516101be91906112c6565b60405180910390f35b6101e160048036036101dc9190810190610dab565b6106f6565b005b6101eb610956565b6040516101f8919061125a565b60405180910390f35b6000809054906101000a900473ffffffffffffffffffffffffffffffffffffffff1681565b600260009054906101000a900473ffffffffffffffffffffffffffffffffffffffff1673ffffffffffffffffffffffffffffffffffffffff163373ffffffffffffffffffffffffffffffffffffffff161461028057600080fd5b606060016040519080825280602002602001820160405280156102bd57816020015b6102aa61097c565b8152602001906001900390816102a25790505b5090506102cb836000610486565b816000815181106102d857fe5b60200260200101819052506060600160405190808252806020026020018201604052801561032057816020015b61030d6109ac565b8152602001906001900390816103055790505b50905061032b610a18565b60405180608001604052806001151581526020016000600181111561034c57fe5b81526020016000600181111561035e57fe5b81526020018581525090506040518061010001604052806000600881111561038257fe5b8152602001600081526020018281526020016003548152602001600081526020018673ffffffffffffffffffffffffffffffffffffffff1681526020016000815260200160405180602001604052806000815250815250826000815181106103e657fe5b60200260200101819052506000809054906101000a900473ffffffffffffffffffffffffffffffffffffffff1673ffffffffffffffffffffffffffffffffffffffff1663a67a6a4584846040518363ffffffff1660e01b815260040161044d929190611223565b600060405180830381600087803b15801561046757600080fd5b505af115801561047b573d6000803e3d6000fd5b505050505050505050565b61048e610a58565b610496610a58565b60405180604001604052808573ffffffffffffffffffffffffffffffffffffffff1681526020018481525090508091505092915050565b6104d5610a88565b60606000809054906101000a900473ffffffffffffffffffffffffffffffffffffffff1673ffffffffffffffffffffffffffffffffffffffff16636a8194e761051e8686610486565b6040518263ffffffff1660e01b815260040161053a9190611290565b60006040518083038186803b15801561055257600080fd5b505afa158015610566573d6000803e3d6000fd5b505050506040513d6000823e3d601f19601f8201168201806040525061058f9190810190610de7565b909150508091505080600354815181106105a557fe5b602002602001015191505092915050565b7389d24a6b4ccb1b6faa2625fe562bdd9a2326035981565b600260009054906101000a900473ffffffffffffffffffffffffffffffffffffffff1681565b731e0447b19bb6ecfdae1e4ae1694b0c3659614e4e81565b610614610ab6565b60606000809054906101000a900473ffffffffffffffffffffffffffffffffffffffff1673ffffffffffffffffffffffffffffffffffffffff16636a8194e761065d8686610486565b6040518263ffffffff1660e01b81526004016106799190611290565b60006040518083038186803b15801561069157600080fd5b505afa1580156106a5573d6000803e3d6000fd5b505050506040513d6000823e3d601f19601f820116820180604052506106ce9190810190610de7565b90915090508091505080600354815181106106e557fe5b602002602001015191505092915050565b600260009054906101000a900473ffffffffffffffffffffffffffffffffffffffff1673ffffffffffffffffffffffffffffffffffffffff163373ffffffffffffffffffffffffffffffffffffffff161461075057600080fd5b6060600160405190808252806020026020018201604052801561078d57816020015b61077a61097c565b8152602001906001900390816107725790505b50905061079b836000610486565b816000815181106107a857fe5b6020026020010181905250606060016040519080825280602002602001820160405280156107f057816020015b6107dd6109ac565b8152602001906001900390816107d55790505b5090506107fb610a18565b60405180608001604052806000151581526020016000600181111561081c57fe5b81526020016000600181111561082e57fe5b81526020018581525090506040518061010001604052806001600881111561085257fe5b8152602001600081526020018281526020016003548152602001600081526020018673ffffffffffffffffffffffffffffffffffffffff1681526020016000815260200160405180602001604052806000815250815250826000815181106108b657fe5b60200260200101819052506000809054906101000a900473ffffffffffffffffffffffffffffffffffffffff1673ffffffffffffffffffffffffffffffffffffffff1663a67a6a4584846040518363ffffffff1660e01b815260040161091d929190611223565b600060405180830381600087803b15801561093757600080fd5b505af115801561094b573d6000803e3d6000fd5b505050505050505050565b600160009054906101000a900473ffffffffffffffffffffffffffffffffffffffff1681565b6040518060400160405280600073ffffffffffffffffffffffffffffffffffffffff168152602001600081525090565b604051806101600160405280600060088111156109c557fe5b8152602001600081526020016109d9610ad2565b81526020016000815260200160008152602001600073ffffffffffffffffffffffffffffffffffffffff16815260200160008152602001606081525090565b604051806080016040528060001515815260200160006001811115610a3957fe5b815260200160006001811115610a4b57fe5b8152602001600081525090565b6040518060400160405280600073ffffffffffffffffffffffffffffffffffffffff168152602001600081525090565b604051806040016040528060001515815260200160006fffffffffffffffffffffffffffffffff1681525090565b6040518060400160405280600015158152602001600081525090565b604051806080016040528060001515815260200160006001811115610af357fe5b815260200160006001811115610b0557fe5b8152602001600081525090565b6000610b1e82356114ae565b905092915050565b6000610b3282516114ae565b905092915050565b600082601f830112610b4b57600080fd5b8151610b5e610b598261130e565b6112e1565b91508181835260208401935060208101905083856020840282011115610b8357600080fd5b60005b83811015610bb35781610b998882610b26565b845260208401935060208301925050600181019050610b86565b5050505092915050565b600082601f830112610bce57600080fd5b8151610be1610bdc82611336565b6112e1565b91508181835260208401935060208101905083856040840282011115610c0657600080fd5b60005b83811015610c365781610c1c8882610cd7565b845260208401935060408301925050600181019050610c09565b5050505092915050565b600082601f830112610c5157600080fd5b8151610c64610c5f8261135e565b6112e1565b91508181835260208401935060208101905083856040840282011115610c8957600080fd5b60005b83811015610cb95781610c9f8882610d23565b845260208401935060408301925050600181019050610c8c565b5050505092915050565b6000610ccf82516114c0565b905092915050565b600060408284031215610ce957600080fd5b610cf360406112e1565b90506000610d0384828501610cc3565b6000830152506020610d1784828501610d6f565b60208301525092915050565b600060408284031215610d3557600080fd5b610d3f60406112e1565b90506000610d4f84828501610cc3565b6000830152506020610d6384828501610d97565b60208301525092915050565b6000610d7b82516114cc565b905092915050565b6000610d8f8235611508565b905092915050565b6000610da38251611508565b905092915050565b60008060408385031215610dbe57600080fd5b6000610dcc85828601610b12565b9250506020610ddd85828601610d83565b9150509250929050565b600080600060608486031215610dfc57600080fd5b600084015167ffffffffffffffff811115610e1657600080fd5b610e2286828701610b3a565b935050602084015167ffffffffffffffff811115610e3f57600080fd5b610e4b86828701610bbd565b925050604084015167ffffffffffffffff811115610e6857600080fd5b610e7486828701610c40565b9150509250925092565b6000610e8a8383611026565b905092915050565b6000610e9e838361115d565b60408301905092915050565b610eb38161140e565b82525050565b610ec28161140e565b82525050565b6000610ed3826113a0565b610edd81856113db565b935083602082028501610eef85611386565b60005b84811015610f28578383038852610f0a838351610e7e565b9250610f15826113c1565b9150602088019750600181019050610ef2565b508196508694505050505092915050565b6000610f44826113ab565b610f4e81856113ec565b9350610f5983611393565b60005b82811015610f8757610f6f868351610e92565b9550610f7a826113ce565b9150600181019050610f5c565b50849250505092915050565b610f9c81611420565b82525050565b6000610fad826113b6565b610fb781856113fd565b9350610fc7818560208601611590565b610fd0816115c3565b840191505092915050565b610fe481611512565b82525050565b610ff381611536565b82525050565b6110028161155a565b82525050565b6110118161156c565b82525050565b6110208161157e565b82525050565b60006101608301600083015161103f6000860182610ff9565b50602083015161105260208601826111f9565b50604083015161106560408601826110d9565b50606083015161107860c08601826111f9565b50608083015161108b60e08601826111f9565b5060a083015161109f610100860182610eaa565b5060c08301516110b36101208601826111f9565b5060e08301518482036101408601526110cc8282610fa2565b9150508091505092915050565b6080820160008201516110ef6000850182610f93565b5060208201516111026020850182611008565b5060408201516111156040850182611017565b50606082015161112860608501826111f9565b50505050565b6040820160008201516111446000850182610eaa565b50602082015161115760208501826111f9565b50505050565b6040820160008201516111736000850182610eaa565b50602082015161118660208501826111f9565b50505050565b6040820160008201516111a26000850182610f93565b5060208201516111b560208501826111ea565b50505050565b6040820160008201516111d16000850182610f93565b5060208201516111e460208501826111f9565b50505050565b6111f381611468565b82525050565b611202816114a4565b82525050565b600060208201905061121d6000830184610eb9565b92915050565b6000604082019050818103600083015261123d8185610f39565b905081810360208301526112518184610ec8565b90509392505050565b600060208201905061126f6000830184610fdb565b92915050565b600060208201905061128a6000830184610fea565b92915050565b60006040820190506112a5600083018461112e565b92915050565b60006040820190506112c0600083018461118c565b92915050565b60006040820190506112db60008301846111bb565b92915050565b6000604051905081810181811067ffffffffffffffff8211171561130457600080fd5b8060405250919050565b600067ffffffffffffffff82111561132557600080fd5b602082029050602081019050919050565b600067ffffffffffffffff82111561134d57600080fd5b602082029050602081019050919050565b600067ffffffffffffffff82111561137557600080fd5b602082029050602081019050919050565b6000602082019050919050565b6000602082019050919050565b600081519050919050565b600081519050919050565b600081519050919050565b6000602082019050919050565b6000602082019050919050565b600082825260208201905092915050565b600082825260208201905092915050565b600082825260208201905092915050565b600061141982611484565b9050919050565b60008115159050919050565b60006009821061143857fe5b819050919050565b60006002821061144c57fe5b819050919050565b60006002821061146057fe5b819050919050565b60006fffffffffffffffffffffffffffffffff82169050919050565b600073ffffffffffffffffffffffffffffffffffffffff82169050919050565b6000819050919050565b60006114b9826114e8565b9050919050565b60008115159050919050565b60006fffffffffffffffffffffffffffffffff82169050919050565b600073ffffffffffffffffffffffffffffffffffffffff82169050919050565b6000819050919050565b600061151d82611524565b9050919050565b600061152f82611484565b9050919050565b600061154182611548565b9050919050565b600061155382611484565b9050919050565b60006115658261142c565b9050919050565b600061157782611440565b9050919050565b600061158982611454565b9050919050565b60005b838110156115ae578082015181840152602081019050611593565b838111156115bd576000848401525b50505050565b6000601f19601f830116905091905056fea265627a7a72305820e6acb41acabf554b6d1df8a6c01074ecf44bea8b5892a8ea38603fffea8c86846c6578706572696d656e74616cf50037",
  "source": "pragma solidity ^0.5.0;\npragma experimental ABIEncoderV2;\n\nimport \"../ProtocolInterface.sol\";\nimport \"./lib/Actions.sol\";\nimport \"./lib/Account.sol\";\nimport \"./lib/Types.sol\";\nimport \"../../interfaces/ERC20.sol\";\n\ncontract ISoloMargin {\n    function operate(\n        Account.Info[] memory accounts,\n        Actions.ActionArgs[] memory actions\n    ) public;\n\n    function getAccountBalances(\n        Account.Info memory account\n    )\n        public\n        view\n        returns (\n            address[] memory,\n            Types.Par[] memory,\n            Types.Wei[] memory\n        );\n}\n\ncontract DydxSavingsProtocol is ProtocolInterface {\n\n    // kovan\n    // address public constant SOLO_MARGIN_ADDRESS = 0x4EC3570cADaAEE08Ae384779B0f3A45EF85289DE;\n    // address public constant MAKER_DAI_ADDRESS = 0xC4375B7De8af5a38a93548eb8453a498222C4fF2;\n\n    // mainnet\n    address public constant SOLO_MARGIN_ADDRESS = 0x1E0447b19BB6EcFdAe1e4AE1694b0C3659614e4e;\n    address public constant MAKER_DAI_ADDRESS = 0x89d24A6b4CcB1B6fAA2625fE562bDD9a23260359;\n\n    ISoloMargin public soloMargin;\n    ERC20 public dai;\n    address public savingsProxy;\n\n    uint daiMarketId = 1;\n\n    constructor(address _savingsProxy) public {\n        soloMargin = ISoloMargin(SOLO_MARGIN_ADDRESS);\n        dai = ERC20(MAKER_DAI_ADDRESS);\n        savingsProxy = _savingsProxy;\n    }\n\n    function deposit(address _user, uint _amount) public {\n        require(msg.sender == savingsProxy);\n\n        Account.Info[] memory accounts = new Account.Info[](1);\n        accounts[0] = getAccount(_user, 0);\n\n        Actions.ActionArgs[] memory actions = new Actions.ActionArgs[](1);\n        Types.AssetAmount memory amount = Types.AssetAmount({\n            sign: true,\n            denomination: Types.AssetDenomination.Wei,\n            ref: Types.AssetReference.Delta,\n            value: _amount\n        });\n\n        actions[0] = Actions.ActionArgs({\n            actionType: Actions.ActionType.Deposit,\n            accountId: 0,\n            amount: amount,\n            primaryMarketId: daiMarketId,\n            otherAddress: _user,\n            secondaryMarketId: 0, //not used\n            otherAccountId: 0, //not used\n            data: \"\" //not used\n        });\n\n        soloMargin.operate(accounts, actions);\n    }\n\n    function withdraw(address _user, uint _amount) public {\n        require(msg.sender == savingsProxy);\n\n        Account.Info[] memory accounts = new Account.Info[](1);\n        accounts[0] = getAccount(_user, 0);\n\n        Actions.ActionArgs[] memory actions = new Actions.ActionArgs[](1);\n        Types.AssetAmount memory amount = Types.AssetAmount({\n            sign: false,\n            denomination: Types.AssetDenomination.Wei,\n            ref: Types.AssetReference.Delta,\n            value: _amount\n        });\n\n        actions[0] = Actions.ActionArgs({\n            actionType: Actions.ActionType.Withdraw,\n            accountId: 0,\n            amount: amount,\n            primaryMarketId: daiMarketId,\n            otherAddress: _user,\n            secondaryMarketId: 0, //not used\n            otherAccountId: 0, //not used\n            data: \"\" //not used\n        });\n\n        soloMargin.operate(accounts, actions);\n    }\n\n    function getWeiBalance(address _user, uint _index) public view returns(Types.Wei memory) {\n\n        Types.Wei[] memory weiBalances;\n        (,,weiBalances) = soloMargin.getAccountBalances(getAccount(_user, _index));\n\n        return weiBalances[daiMarketId];\n    }\n\n    function getParBalance(address _user, uint _index) public view returns(Types.Par memory) {\n        Types.Par[] memory parBalances;\n        (,parBalances,) = soloMargin.getAccountBalances(getAccount(_user, _index));\n\n        return parBalances[daiMarketId];\n    }\n\n    function getAccount(address _user, uint _index) public view returns(Account.Info memory) {\n        Account.Info memory account = Account.Info({\n            owner: _user,\n            number: _index\n        });\n\n        return account;\n    }\n}\n",
  "sourcePath": "/Users/nikolaklipa/Decenter/defisaver/cdpsaver-contracts/contracts/savings/dydx/DydxSavingsProtocol.sol",
  "compiler": {
    "name": "solc",
    "version": "0.5.7+commit.6da8b019.Emscripten.clang"
  },
  "schemaVersion": "3.0.9",
  "updatedAt": "2019-08-08T18:14:25.219Z",
  "devdoc": {
    "methods": {}
  },
  "userdoc": {
    "methods": {}
  }
}