{
  "contractName": "DydxProtocol",
  "abi": [
    {
      "constant": true,
      "inputs": [
        {
          "name": "_user",
          "type": "address"
        },
        {
          "name": "_amount",
          "type": "uint256"
        }
      ],
      "name": "soloMargin",
      "outputs": [
        {
          "name": "",
          "type": "address"
        }
      ],
      "payable": false,
      "stateMutability": "view",
      "type": "function"
    },
    {
      "constant": true,
      "inputs": [
        {
          "name": "_user",
          "type": "address"
        },
        {
          "name": "_amount",
          "type": "uint256"
        }
      ],
      "name": "dai",
      "outputs": [
        {
          "name": "",
          "type": "address"
        }
      ],
      "payable": false,
      "stateMutability": "view",
      "type": "function"
    },
    {
      "inputs": [
        {
          "name": "_soloMargin",
          "type": "address"
        },
        {
          "name": "_daiAddress",
          "type": "address"
        }
      ],
      "payable": false,
      "stateMutability": "nonpayable",
      "type": "constructor"
    },
    {
      "constant": false,
      "inputs": [
        {
          "name": "_user",
          "type": "address"
        },
        {
          "name": "_amount",
          "type": "uint256"
        }
      ],
      "name": "deposit",
      "outputs": [],
      "payable": false,
      "stateMutability": "nonpayable",
      "type": "function"
    },
    {
      "constant": false,
      "inputs": [
        {
          "name": "_user",
          "type": "address"
        },
        {
          "name": "_amount",
          "type": "uint256"
        }
      ],
      "name": "withdraw",
      "outputs": [],
      "payable": false,
      "stateMutability": "nonpayable",
      "type": "function"
    },
    {
      "constant": true,
      "inputs": [
        {
          "name": "_user",
          "type": "address"
        },
        {
          "name": "_index",
          "type": "uint256"
        }
      ],
      "name": "getWeiBalance",
      "outputs": [
        {
          "components": [
            {
              "name": "sign",
              "type": "bool"
            },
            {
              "name": "value",
              "type": "uint256"
            }
          ],
          "name": "",
          "type": "tuple"
        }
      ],
      "payable": false,
      "stateMutability": "view",
      "type": "function"
    },
    {
      "constant": true,
      "inputs": [
        {
          "name": "_user",
          "type": "address"
        },
        {
          "name": "_index",
          "type": "uint256"
        }
      ],
      "name": "getParBalance",
      "outputs": [
        {
          "components": [
            {
              "name": "sign",
              "type": "bool"
            },
            {
              "name": "value",
              "type": "uint128"
            }
          ],
          "name": "",
          "type": "tuple"
        }
      ],
      "payable": false,
      "stateMutability": "view",
      "type": "function"
    },
    {
      "constant": true,
      "inputs": [
        {
          "name": "_user",
          "type": "address"
        },
        {
          "name": "_index",
          "type": "uint256"
        }
      ],
      "name": "getAccount",
      "outputs": [
        {
          "components": [
            {
              "name": "owner",
              "type": "address"
            },
            {
              "name": "number",
              "type": "uint256"
            }
          ],
          "name": "",
          "type": "tuple"
        }
      ],
      "payable": false,
      "stateMutability": "view",
      "type": "function"
    }
  ],
  "bytecode": "0x608060405260016002553480156200001657600080fd5b50604051604080620015bb8339810180604052620000389190810190620000d7565b816000806101000a81548173ffffffffffffffffffffffffffffffffffffffff021916908373ffffffffffffffffffffffffffffffffffffffff16021790555080600160006101000a81548173ffffffffffffffffffffffffffffffffffffffff021916908373ffffffffffffffffffffffffffffffffffffffff16021790555050506200014c565b6000620000cf825162000118565b905092915050565b60008060408385031215620000eb57600080fd5b6000620000fb85828601620000c1565b92505060206200010e85828601620000c1565b9150509250929050565b600062000125826200012c565b9050919050565b600073ffffffffffffffffffffffffffffffffffffffff82169050919050565b61145f806200015c6000396000f3fe608060405234801561001057600080fd5b506004361061007d5760003560e01c80637800a0f61161005b5780637800a0f6146100ec578063eef1bbda1461011c578063f3fef3a31461014c578063f4b9fa75146101685761007d565b8063134f6d3a1461008257806347e7ef24146100a0578063670079eb146100bc575b600080fd5b61008a610186565b60405161009791906110c6565b60405180910390f35b6100ba60048036036100b59190810190610c26565b6101ab565b005b6100d660048036036100d19190810190610c26565b6103b1565b6040516100e391906110e1565b60405180910390f35b61010660048036036101019190810190610c26565b6103f8565b60405161011391906110fc565b60405180910390f35b61013660048036036101319190810190610c26565b6104e1565b6040516101439190611117565b60405180910390f35b61016660048036036101619190810190610c26565b6105cb565b005b6101706107d1565b60405161017d91906110ab565b60405180910390f35b6000809054906101000a900473ffffffffffffffffffffffffffffffffffffffff1681565b606060016040519080825280602002602001820160405280156101e857816020015b6101d56107f7565b8152602001906001900390816101cd5790505b5090506101f68360006103b1565b8160008151811061020357fe5b60200260200101819052506060600160405190808252806020026020018201604052801561024b57816020015b610238610827565b8152602001906001900390816102305790505b509050610256610893565b60405180608001604052806001151581526020016000600181111561027757fe5b81526020016000600181111561028957fe5b8152602001858152509050604051806101000160405280600060088111156102ad57fe5b8152602001600081526020018281526020016002548152602001600081526020018673ffffffffffffffffffffffffffffffffffffffff16815260200160008152602001604051806020016040528060008152508152508260008151811061031157fe5b60200260200101819052506000809054906101000a900473ffffffffffffffffffffffffffffffffffffffff1673ffffffffffffffffffffffffffffffffffffffff1663a67a6a4584846040518363ffffffff1660e01b8152600401610378929190611074565b600060405180830381600087803b15801561039257600080fd5b505af11580156103a6573d6000803e3d6000fd5b505050505050505050565b6103b96108d3565b6103c16108d3565b60405180604001604052808573ffffffffffffffffffffffffffffffffffffffff1681526020018481525090508091505092915050565b610400610903565b60606000809054906101000a900473ffffffffffffffffffffffffffffffffffffffff1673ffffffffffffffffffffffffffffffffffffffff16636a8194e761044986866103b1565b6040518263ffffffff1660e01b815260040161046591906110e1565b60006040518083038186803b15801561047d57600080fd5b505afa158015610491573d6000803e3d6000fd5b505050506040513d6000823e3d601f19601f820116820180604052506104ba9190810190610c62565b909150508091505080600254815181106104d057fe5b602002602001015191505092915050565b6104e9610931565b60606000809054906101000a900473ffffffffffffffffffffffffffffffffffffffff1673ffffffffffffffffffffffffffffffffffffffff16636a8194e761053286866103b1565b6040518263ffffffff1660e01b815260040161054e91906110e1565b60006040518083038186803b15801561056657600080fd5b505afa15801561057a573d6000803e3d6000fd5b505050506040513d6000823e3d601f19601f820116820180604052506105a39190810190610c62565b90915090508091505080600254815181106105ba57fe5b602002602001015191505092915050565b6060600160405190808252806020026020018201604052801561060857816020015b6105f56107f7565b8152602001906001900390816105ed5790505b5090506106168360006103b1565b8160008151811061062357fe5b60200260200101819052506060600160405190808252806020026020018201604052801561066b57816020015b610658610827565b8152602001906001900390816106505790505b509050610676610893565b60405180608001604052806000151581526020016000600181111561069757fe5b8152602001600060018111156106a957fe5b8152602001858152509050604051806101000160405280600160088111156106cd57fe5b8152602001600081526020018281526020016002548152602001600081526020018673ffffffffffffffffffffffffffffffffffffffff16815260200160008152602001604051806020016040528060008152508152508260008151811061073157fe5b60200260200101819052506000809054906101000a900473ffffffffffffffffffffffffffffffffffffffff1673ffffffffffffffffffffffffffffffffffffffff1663a67a6a4584846040518363ffffffff1660e01b8152600401610798929190611074565b600060405180830381600087803b1580156107b257600080fd5b505af11580156107c6573d6000803e3d6000fd5b505050505050505050565b600160009054906101000a900473ffffffffffffffffffffffffffffffffffffffff1681565b6040518060400160405280600073ffffffffffffffffffffffffffffffffffffffff168152602001600081525090565b6040518061016001604052806000600881111561084057fe5b81526020016000815260200161085461094d565b81526020016000815260200160008152602001600073ffffffffffffffffffffffffffffffffffffffff16815260200160008152602001606081525090565b6040518060800160405280600015158152602001600060018111156108b457fe5b8152602001600060018111156108c657fe5b8152602001600081525090565b6040518060400160405280600073ffffffffffffffffffffffffffffffffffffffff168152602001600081525090565b604051806040016040528060001515815260200160006fffffffffffffffffffffffffffffffff1681525090565b6040518060400160405280600015158152602001600081525090565b60405180608001604052806000151581526020016000600181111561096e57fe5b81526020016000600181111561098057fe5b8152602001600081525090565b600061099982356112ff565b905092915050565b60006109ad82516112ff565b905092915050565b600082601f8301126109c657600080fd5b81516109d96109d48261115f565b611132565b915081818352602084019350602081019050838560208402820111156109fe57600080fd5b60005b83811015610a2e5781610a1488826109a1565b845260208401935060208301925050600181019050610a01565b5050505092915050565b600082601f830112610a4957600080fd5b8151610a5c610a5782611187565b611132565b91508181835260208401935060208101905083856040840282011115610a8157600080fd5b60005b83811015610ab15781610a978882610b52565b845260208401935060408301925050600181019050610a84565b5050505092915050565b600082601f830112610acc57600080fd5b8151610adf610ada826111af565b611132565b91508181835260208401935060208101905083856040840282011115610b0457600080fd5b60005b83811015610b345781610b1a8882610b9e565b845260208401935060408301925050600181019050610b07565b5050505092915050565b6000610b4a8251611311565b905092915050565b600060408284031215610b6457600080fd5b610b6e6040611132565b90506000610b7e84828501610b3e565b6000830152506020610b9284828501610bea565b60208301525092915050565b600060408284031215610bb057600080fd5b610bba6040611132565b90506000610bca84828501610b3e565b6000830152506020610bde84828501610c12565b60208301525092915050565b6000610bf6825161131d565b905092915050565b6000610c0a8235611359565b905092915050565b6000610c1e8251611359565b905092915050565b60008060408385031215610c3957600080fd5b6000610c478582860161098d565b9250506020610c5885828601610bfe565b9150509250929050565b600080600060608486031215610c7757600080fd5b600084015167ffffffffffffffff811115610c9157600080fd5b610c9d868287016109b5565b935050602084015167ffffffffffffffff811115610cba57600080fd5b610cc686828701610a38565b925050604084015167ffffffffffffffff811115610ce357600080fd5b610cef86828701610abb565b9150509250925092565b6000610d058383610e92565b905092915050565b6000610d198383610fc9565b60408301905092915050565b610d2e8161125f565b82525050565b6000610d3f826111f1565b610d49818561122c565b935083602082028501610d5b856111d7565b60005b84811015610d94578383038852610d76838351610cf9565b9250610d8182611212565b9150602088019750600181019050610d5e565b508196508694505050505092915050565b6000610db0826111fc565b610dba818561123d565b9350610dc5836111e4565b60005b82811015610df357610ddb868351610d0d565b9550610de68261121f565b9150600181019050610dc8565b50849250505092915050565b610e0881611271565b82525050565b6000610e1982611207565b610e23818561124e565b9350610e338185602086016113e1565b610e3c81611414565b840191505092915050565b610e5081611363565b82525050565b610e5f81611387565b82525050565b610e6e816113ab565b82525050565b610e7d816113bd565b82525050565b610e8c816113cf565b82525050565b600061016083016000830151610eab6000860182610e65565b506020830151610ebe6020860182611065565b506040830151610ed16040860182610f45565b506060830151610ee460c0860182611065565b506080830151610ef760e0860182611065565b5060a0830151610f0b610100860182610d25565b5060c0830151610f1f610120860182611065565b5060e0830151848203610140860152610f388282610e0e565b9150508091505092915050565b608082016000820151610f5b6000850182610dff565b506020820151610f6e6020850182610e74565b506040820151610f816040850182610e83565b506060820151610f946060850182611065565b50505050565b604082016000820151610fb06000850182610d25565b506020820151610fc36020850182611065565b50505050565b604082016000820151610fdf6000850182610d25565b506020820151610ff26020850182611065565b50505050565b60408201600082015161100e6000850182610dff565b5060208201516110216020850182611056565b50505050565b60408201600082015161103d6000850182610dff565b5060208201516110506020850182611065565b50505050565b61105f816112b9565b82525050565b61106e816112f5565b82525050565b6000604082019050818103600083015261108e8185610da5565b905081810360208301526110a28184610d34565b90509392505050565b60006020820190506110c06000830184610e47565b92915050565b60006020820190506110db6000830184610e56565b92915050565b60006040820190506110f66000830184610f9a565b92915050565b60006040820190506111116000830184610ff8565b92915050565b600060408201905061112c6000830184611027565b92915050565b6000604051905081810181811067ffffffffffffffff8211171561115557600080fd5b8060405250919050565b600067ffffffffffffffff82111561117657600080fd5b602082029050602081019050919050565b600067ffffffffffffffff82111561119e57600080fd5b602082029050602081019050919050565b600067ffffffffffffffff8211156111c657600080fd5b602082029050602081019050919050565b6000602082019050919050565b6000602082019050919050565b600081519050919050565b600081519050919050565b600081519050919050565b6000602082019050919050565b6000602082019050919050565b600082825260208201905092915050565b600082825260208201905092915050565b600082825260208201905092915050565b600061126a826112d5565b9050919050565b60008115159050919050565b60006009821061128957fe5b819050919050565b60006002821061129d57fe5b819050919050565b6000600282106112b157fe5b819050919050565b60006fffffffffffffffffffffffffffffffff82169050919050565b600073ffffffffffffffffffffffffffffffffffffffff82169050919050565b6000819050919050565b600061130a82611339565b9050919050565b60008115159050919050565b60006fffffffffffffffffffffffffffffffff82169050919050565b600073ffffffffffffffffffffffffffffffffffffffff82169050919050565b6000819050919050565b600061136e82611375565b9050919050565b6000611380826112d5565b9050919050565b600061139282611399565b9050919050565b60006113a4826112d5565b9050919050565b60006113b68261127d565b9050919050565b60006113c882611291565b9050919050565b60006113da826112a5565b9050919050565b60005b838110156113ff5780820151818401526020810190506113e4565b8381111561140e576000848401525b50505050565b6000601f19601f830116905091905056fea265627a7a7230582096395c83dba18b02a0800422bd5518c407c4a86cd5e6a311150c7223095fed126c6578706572696d656e74616cf50037",
  "source": "pragma solidity ^0.5.0;\npragma experimental ABIEncoderV2;\n\nimport \"../ProtocolInterface.sol\";\nimport \"./lib/Actions.sol\";\nimport \"./lib/Account.sol\";\nimport \"./lib/Types.sol\";\nimport \"../../interfaces/ERC20.sol\";\n\ncontract ISoloMargin {\n    function operate(\n        Account.Info[] memory accounts,\n        Actions.ActionArgs[] memory actions\n    ) public;\n\n    function getAccountBalances(\n        Account.Info memory account\n    )\n        public\n        view\n        returns (\n            address[] memory,\n            Types.Par[] memory,\n            Types.Wei[] memory\n        );\n}\n\ncontract DydxProtocol is ProtocolInterface {\n\n    ISoloMargin public soloMargin;\n    ERC20 public dai;\n\n    uint daiMarketId = 1;\n\n    constructor(address _soloMargin, address _daiAddress) public {\n        soloMargin = ISoloMargin(_soloMargin);\n        dai = ERC20(_daiAddress);\n        // dai.approve(address(soloMargin), uint(-1));\n    }\n\n    function deposit(address _user, uint _amount) public {\n        Account.Info[] memory accounts = new Account.Info[](1);\n        accounts[0] = getAccount(_user, 0);\n\n        Actions.ActionArgs[] memory actions = new Actions.ActionArgs[](1);\n        Types.AssetAmount memory amount = Types.AssetAmount({\n            sign: true,\n            denomination: Types.AssetDenomination.Wei,\n            ref: Types.AssetReference.Delta,\n            value: _amount\n        });\n\n        actions[0] = Actions.ActionArgs({\n            actionType: Actions.ActionType.Deposit,\n            accountId: 0,\n            amount: amount,\n            primaryMarketId: daiMarketId,\n            otherAddress: _user,\n            secondaryMarketId: 0, //not used\n            otherAccountId: 0, //not used\n            data: \"\" //not used\n        });\n\n        soloMargin.operate(accounts, actions);\n    }\n\n    function withdraw(address _user, uint _amount) public {\n        Account.Info[] memory accounts = new Account.Info[](1);\n        accounts[0] = getAccount(_user, 0);\n\n        Actions.ActionArgs[] memory actions = new Actions.ActionArgs[](1);\n        Types.AssetAmount memory amount = Types.AssetAmount({\n            sign: false,\n            denomination: Types.AssetDenomination.Wei,\n            ref: Types.AssetReference.Delta,\n            value: _amount\n        });\n\n        actions[0] = Actions.ActionArgs({\n            actionType: Actions.ActionType.Withdraw,\n            accountId: 0,\n            amount: amount,\n            primaryMarketId: daiMarketId,\n            otherAddress: _user,\n            secondaryMarketId: 0, //not used\n            otherAccountId: 0, //not used\n            data: \"\" //not used\n        });\n\n        soloMargin.operate(accounts, actions);\n    }\n\n    function getWeiBalance(address _user, uint _index) public view returns(Types.Wei memory) {\n\n        Types.Wei[] memory weiBalances;\n        (,,weiBalances) = soloMargin.getAccountBalances(getAccount(_user, _index));\n\n        return weiBalances[daiMarketId];\n    }\n\n    function getParBalance(address _user, uint _index) public view returns(Types.Par memory) {\n        Types.Par[] memory parBalances;\n        (,parBalances,) = soloMargin.getAccountBalances(getAccount(_user, _index));\n\n        return parBalances[daiMarketId];\n    }\n\n    function getAccount(address _user, uint _index) public view returns(Account.Info memory) {\n        Account.Info memory account = Account.Info({\n            owner: _user,\n            number: _index\n        });\n\n        return account;\n    }\n}\n",
  "sourcePath": "/Users/nikolaklipa/Decenter/defisaver/cdpsaver-contracts/contracts/savings/dydx/DydxProtocol.sol",
  "compiler": {
    "name": "solc",
    "version": "0.5.7+commit.6da8b019.Emscripten.clang"
  },
  "schemaVersion": "3.0.9",
  "updatedAt": "2019-08-05T12:11:49.672Z",
  "devdoc": {
    "methods": {}
  },
  "userdoc": {
    "methods": {}
  }
}