{
  "contractName": "DydxProtocol",
  "abi": [
    {
      "constant": false,
      "inputs": [
        {
          "name": "_user",
          "type": "address"
        },
        {
          "name": "_amount",
          "type": "uint256"
        }
      ],
      "name": "deposit",
      "outputs": [],
      "payable": false,
      "stateMutability": "nonpayable",
      "type": "function"
    },
    {
      "constant": false,
      "inputs": [
        {
          "name": "_user",
          "type": "address"
        },
        {
          "name": "_amount",
          "type": "uint256"
        }
      ],
      "name": "withdraw",
      "outputs": [],
      "payable": false,
      "stateMutability": "nonpayable",
      "type": "function"
    }
  ],
  "bytecode": "0x608060405234801561001057600080fd5b50610101806100206000396000f3fe6080604052348015600f57600080fd5b506004361060325760003560e01c806347e7ef24146037578063f3fef3a3146082575b600080fd5b608060048036036040811015604b57600080fd5b81019080803573ffffffffffffffffffffffffffffffffffffffff1690602001909291908035906020019092919050505060cd565b005b60cb60048036036040811015609657600080fd5b81019080803573ffffffffffffffffffffffffffffffffffffffff1690602001909291908035906020019092919050505060d1565b005b5050565b505056fea165627a7a72305820de438b6cdb349baa85770b89b50acf39add0cea43c24e27af49780d06d2e81df0029",
  "source": "pragma solidity ^0.5.0;\n\nimport \"../ProtocolInterface.sol\";\nimport \"./lib/Actions.sol\";\n\ncontract DydxProtocol is ProtocolInterface {\n\n    function deposit(address _user, uint _amount) public {\n\n    }\n\n    function withdraw(address _user, uint _amount) public {\n\n    }\n}\n",
  "sourcePath": "/Users/nikolaklipa/Decenter/defisaver/cdpsaver-contracts/contracts/savings/dydx/DydxProtocol.sol",
  "compiler": {
    "name": "solc",
    "version": "0.5.7+commit.6da8b019.Emscripten.clang"
  },
  "schemaVersion": "3.0.9",
  "updatedAt": "2019-08-01T13:30:59.861Z",
  "devdoc": {
    "methods": {}
  },
  "userdoc": {
    "methods": {}
  }
}