{
  "contractName": "DydxSavingsProtocol",
  "abi": [
    {
      "constant": true,
      "inputs": [],
      "name": "WETH_ADDRESS",
      "outputs": [
        {
          "name": "",
          "type": "address"
        }
      ],
      "payable": false,
      "stateMutability": "view",
      "type": "function"
    },
    {
      "constant": true,
      "inputs": [],
      "name": "CDAI_ADDRESS",
      "outputs": [
        {
          "name": "",
          "type": "address"
        }
      ],
      "payable": false,
      "stateMutability": "view",
      "type": "function"
    },
    {
      "constant": true,
      "inputs": [],
      "name": "soloMargin",
      "outputs": [
        {
          "name": "",
          "type": "address"
        }
      ],
      "payable": false,
      "stateMutability": "view",
      "type": "function"
    },
    {
      "constant": true,
      "inputs": [],
      "name": "PIP_INTERFACE_ADDRESS",
      "outputs": [
        {
          "name": "",
          "type": "address"
        }
      ],
      "payable": false,
      "stateMutability": "view",
      "type": "function"
    },
    {
      "constant": true,
      "inputs": [],
      "name": "KYBER_ETH_ADDRESS",
      "outputs": [
        {
          "name": "",
          "type": "address"
        }
      ],
      "payable": false,
      "stateMutability": "view",
      "type": "function"
    },
    {
      "inputs": [
        {
          "name": "_savingsProxy",
          "type": "address"
        }
      ],
      "payable": false,
      "stateMutability": "view",
      "type": "function",
      "constant": true,
      "name": "OTC_ADDRESS",
      "outputs": [
        {
          "name": "",
          "type": "address"
        }
      ]
    },
    {
      "constant": true,
      "inputs": [
        {
          "name": "_user",
          "type": "address"
        },
        {
          "name": "_amount",
          "type": "uint256"
        }
      ],
      "name": "IDAI_ADDRESS",
      "outputs": [
        {
          "name": "",
          "type": "address"
        }
      ],
      "payable": false,
      "stateMutability": "view",
      "type": "function"
    },
    {
      "constant": true,
      "inputs": [
        {
          "name": "_user",
          "type": "address"
        },
        {
          "name": "_amount",
          "type": "uint256"
        }
      ],
      "name": "GAS_TOKEN_INTERFACE_ADDRESS",
      "outputs": [
        {
          "name": "",
          "type": "address"
        }
      ],
      "payable": false,
      "stateMutability": "view",
      "type": "function"
    },
    {
      "constant": true,
      "inputs": [
        {
          "name": "_user",
          "type": "address"
        },
        {
          "name": "_index",
          "type": "uint256"
        }
      ],
      "name": "VOX_ADDRESS",
      "outputs": [
        {
          "components": [
            {
              "name": "sign",
              "type": "bool"
            },
            {
              "name": "value",
              "type": "uint256"
            }
          ],
          "name": "",
          "type": "address"
        }
      ],
      "payable": false,
      "stateMutability": "view",
      "type": "function"
    },
    {
      "constant": true,
      "inputs": [
        {
          "name": "_user",
          "type": "address"
        },
        {
          "name": "_index",
          "type": "uint256"
        }
      ],
      "name": "ETH2DAI_WRAPPER",
      "outputs": [
        {
          "components": [
            {
              "name": "sign",
              "type": "bool"
            },
            {
              "name": "value",
              "type": "uint128"
            }
          ],
          "name": "",
          "type": "address"
        }
      ],
      "payable": false,
      "stateMutability": "view",
      "type": "function"
    },
    {
      "constant": true,
      "inputs": [
        {
          "name": "_user",
          "type": "address"
        },
        {
          "name": "_index",
          "type": "uint256"
        }
      ],
      "name": "STUPID_EXCHANGE",
      "outputs": [
        {
          "components": [
            {
              "name": "owner",
              "type": "address"
            },
            {
              "name": "number",
              "type": "uint256"
            }
          ],
          "name": "",
          "type": "address"
        }
      ],
      "payable": false,
      "stateMutability": "view",
      "type": "function"
    },
    {
      "constant": true,
      "inputs": [],
      "name": "PROXY_REGISTRY_INTERFACE_ADDRESS",
      "outputs": [
        {
          "name": "",
          "type": "address"
        }
      ],
      "payable": false,
      "stateMutability": "view",
      "type": "function"
    },
    {
      "constant": true,
      "inputs": [],
      "name": "MKR_ADDRESS",
      "outputs": [
        {
          "name": "",
          "type": "address"
        }
      ],
      "payable": false,
      "stateMutability": "view",
      "type": "function"
    },
    {
      "constant": true,
      "inputs": [],
      "name": "FACTORY_ADDRESS",
      "outputs": [
        {
          "name": "",
          "type": "address"
        }
      ],
      "payable": false,
      "stateMutability": "view",
      "type": "function"
    },
    {
      "constant": true,
      "inputs": [],
      "name": "LOGGER_ADDRESS",
      "outputs": [
        {
          "name": "",
          "type": "address"
        }
      ],
      "payable": false,
      "stateMutability": "view",
      "type": "function"
    },
    {
      "constant": true,
      "inputs": [],
      "name": "MAKER_DAI_ADDRESS",
      "outputs": [
        {
          "name": "",
          "type": "address"
        }
      ],
      "payable": false,
      "stateMutability": "view",
      "type": "function"
    },
    {
      "constant": true,
      "inputs": [],
      "name": "savingsProxy",
      "outputs": [
        {
          "name": "",
          "type": "address"
        }
      ],
      "payable": false,
      "stateMutability": "view",
      "type": "function"
    },
    {
      "constant": true,
      "inputs": [],
      "name": "KYBER_WRAPPER",
      "outputs": [
        {
          "name": "",
          "type": "address"
        }
      ],
      "payable": false,
      "stateMutability": "view",
      "type": "function"
    },
    {
      "constant": true,
      "inputs": [],
      "name": "COMPOUND_DAI_ADDRESS",
      "outputs": [
        {
          "name": "",
          "type": "address"
        }
      ],
      "payable": false,
      "stateMutability": "view",
      "type": "function"
    },
    {
      "constant": true,
      "inputs": [],
      "name": "UNISWAP_FACTORY",
      "outputs": [
        {
          "name": "",
          "type": "address"
        }
      ],
      "payable": false,
      "stateMutability": "view",
      "type": "function"
    },
    {
      "constant": true,
      "inputs": [],
      "name": "PETH_ADDRESS",
      "outputs": [
        {
          "name": "",
          "type": "address"
        }
      ],
      "payable": false,
      "stateMutability": "view",
      "type": "function"
    },
    {
      "constant": true,
      "inputs": [],
      "name": "KYBER_INTERFACE",
      "outputs": [
        {
          "name": "",
          "type": "address"
        }
      ],
      "payable": false,
      "stateMutability": "view",
      "type": "function"
    },
    {
      "constant": true,
      "inputs": [],
      "name": "WALLET_ID",
      "outputs": [
        {
          "name": "",
          "type": "address"
        }
      ],
      "payable": false,
      "stateMutability": "view",
      "type": "function"
    },
    {
      "constant": true,
      "inputs": [],
      "name": "SOLO_MARGIN_ADDRESS",
      "outputs": [
        {
          "name": "",
          "type": "address"
        }
      ],
      "payable": false,
      "stateMutability": "view",
      "type": "function"
    },
    {
      "constant": true,
      "inputs": [],
      "name": "UNISWAP_WRAPPER",
      "outputs": [
        {
          "name": "",
          "type": "address"
        }
      ],
      "payable": false,
      "stateMutability": "view",
      "type": "function"
    },
    {
      "constant": true,
      "inputs": [],
      "name": "TUB_ADDRESS",
      "outputs": [
        {
          "name": "",
          "type": "address"
        }
      ],
      "payable": false,
      "stateMutability": "view",
      "type": "function"
    },
    {
      "constant": true,
      "inputs": [],
      "name": "CTOKEN_INTERFACE",
      "outputs": [
        {
          "name": "",
          "type": "address"
        }
      ],
      "payable": false,
      "stateMutability": "view",
      "type": "function"
    },
    {
      "constant": true,
      "inputs": [],
      "name": "dai",
      "outputs": [
        {
          "name": "",
          "type": "address"
        }
      ],
      "payable": false,
      "stateMutability": "view",
      "type": "function"
    },
    {
      "inputs": [
        {
          "name": "_savingsProxy",
          "type": "address"
        }
      ],
      "payable": false,
      "stateMutability": "nonpayable",
      "type": "constructor"
    },
    {
      "constant": false,
      "inputs": [
        {
          "name": "_user",
          "type": "address"
        },
        {
          "name": "_amount",
          "type": "uint256"
        }
      ],
      "name": "deposit",
      "outputs": [],
      "payable": false,
      "stateMutability": "nonpayable",
      "type": "function"
    },
    {
      "constant": false,
      "inputs": [
        {
          "name": "_user",
          "type": "address"
        },
        {
          "name": "_amount",
          "type": "uint256"
        }
      ],
      "name": "withdraw",
      "outputs": [],
      "payable": false,
      "stateMutability": "nonpayable",
      "type": "function"
    },
    {
      "constant": true,
      "inputs": [
        {
          "name": "_user",
          "type": "address"
        },
        {
          "name": "_index",
          "type": "uint256"
        }
      ],
      "name": "getWeiBalance",
      "outputs": [
        {
          "components": [
            {
              "name": "sign",
              "type": "bool"
            },
            {
              "name": "value",
              "type": "uint256"
            }
          ],
          "name": "",
          "type": "tuple"
        }
      ],
      "payable": false,
      "stateMutability": "view",
      "type": "function"
    },
    {
      "constant": true,
      "inputs": [
        {
          "name": "_user",
          "type": "address"
        },
        {
          "name": "_index",
          "type": "uint256"
        }
      ],
      "name": "getParBalance",
      "outputs": [
        {
          "components": [
            {
              "name": "sign",
              "type": "bool"
            },
            {
              "name": "value",
              "type": "uint128"
            }
          ],
          "name": "",
          "type": "tuple"
        }
      ],
      "payable": false,
      "stateMutability": "view",
      "type": "function"
    },
    {
      "constant": true,
      "inputs": [
        {
          "name": "_user",
          "type": "address"
        },
        {
          "name": "_index",
          "type": "uint256"
        }
      ],
      "name": "getAccount",
      "outputs": [
        {
          "components": [
            {
              "name": "owner",
              "type": "address"
            },
            {
              "name": "number",
              "type": "uint256"
            }
          ],
          "name": "",
          "type": "tuple"
        }
      ],
      "payable": false,
      "stateMutability": "view",
      "type": "function"
    }
  ],
  "bytecode": "0x608060405260016003553480156200001657600080fd5b5060405160208062001def83398101806040526200003891908101906200013f565b734ec3570cadaaee08ae384779b0f3a45ef85289de6000806101000a81548173ffffffffffffffffffffffffffffffffffffffff021916908373ffffffffffffffffffffffffffffffffffffffff16021790555073c4375b7de8af5a38a93548eb8453a498222c4ff2600160006101000a81548173ffffffffffffffffffffffffffffffffffffffff021916908373ffffffffffffffffffffffffffffffffffffffff16021790555080600260006101000a81548173ffffffffffffffffffffffffffffffffffffffff021916908373ffffffffffffffffffffffffffffffffffffffff160217905550506200019f565b60006200013782516200016b565b905092915050565b6000602082840312156200015257600080fd5b6000620001628482850162000129565b91505092915050565b600062000178826200017f565b9050919050565b600073ffffffffffffffffffffffffffffffffffffffff82169050919050565b611c4080620001af6000396000f3fe608060405234801561001057600080fd5b50600436106101fb5760003560e01c80638823151b1161011a578063ce9bde1d116100ad578063eef1bbda1161007c578063eef1bbda1461056a578063f0d405e51461059a578063f2f239d4146105b8578063f3fef3a3146105d6578063f4b9fa75146105f2576101fb565b8063ce9bde1d146104f2578063d3661fa514610510578063d36b907d1461052e578063ddaa293c1461054c576101fb565b8063b175afa1116100e9578063b175afa11461047a578063c16921b714610498578063c74c0fac146104b6578063c9fde270146104d4576101fb565b80638823151b1461040257806394bfbe74146104205780639da779e91461043e578063a683668c1461045c576101fb565b806336e6da1111610192578063670079eb11610161578063670079eb14610366578063728c0092146103965780637800a0f6146103b4578063825ffd92146103e4576101fb565b806336e6da11146102f057806343fb75e81461030e57806347e7ef241461032c578063502237d714610348576101fb565b806329f7fc9e116101ce57806329f7fc9e146102785780632a441f05146102965780632d5eeb3f146102b457806332ac5cd2146102d2576101fb565b8063040141e5146102005780630531b2ad1461021e578063134f6d3a1461023c5780631dab52b01461025a575b600080fd5b610208610610565b604051610215919061183a565b60405180910390f35b610226610628565b604051610233919061183a565b60405180910390f35b610244610640565b60405161025191906118a7565b60405180910390f35b610262610665565b60405161026f919061183a565b60405180910390f35b61028061067d565b60405161028d919061183a565b60405180910390f35b61029e610695565b6040516102ab919061183a565b60405180910390f35b6102bc6106ad565b6040516102c9919061183a565b60405180910390f35b6102da6106c5565b6040516102e7919061183a565b60405180910390f35b6102f86106d8565b604051610305919061183a565b60405180910390f35b6103166106f0565b604051610323919061183a565b60405180910390f35b610346600480360361034191908101906113dd565b610708565b005b610350610968565b60405161035d919061183a565b60405180910390f35b610380600480360361037b91908101906113dd565b610980565b60405161038d91906118c2565b60405180910390f35b61039e6109c7565b6040516103ab919061183a565b60405180910390f35b6103ce60048036036103c991908101906113dd565b6109df565b6040516103db91906118dd565b60405180910390f35b6103ec610ac8565b6040516103f9919061183a565b60405180910390f35b61040a610ae0565b604051610417919061183a565b60405180910390f35b610428610af8565b604051610435919061183a565b60405180910390f35b610446610b10565b604051610453919061183a565b60405180910390f35b610464610b28565b604051610471919061183a565b60405180910390f35b610482610b4e565b60405161048f919061183a565b60405180910390f35b6104a0610b66565b6040516104ad919061183a565b60405180910390f35b6104be610b7e565b6040516104cb919061183a565b60405180910390f35b6104dc610b96565b6040516104e9919061183a565b60405180910390f35b6104fa610bae565b604051610507919061183a565b60405180910390f35b610518610bc6565b604051610525919061183a565b60405180910390f35b610536610bde565b604051610543919061183a565b60405180910390f35b610554610bf6565b604051610561919061183a565b60405180910390f35b610584600480360361057f91908101906113dd565b610c0e565b60405161059191906118f8565b60405180910390f35b6105a2610cf8565b6040516105af919061183a565b60405180910390f35b6105c0610d10565b6040516105cd919061183a565b60405180910390f35b6105f060048036036105eb91908101906113dd565b610d28565b005b6105fa610f88565b604051610607919061188c565b60405180910390f35b73d0a1e359811322d97991e03f863a0c30c2cf029c81565b73b6b09fbffba6a5c4631e5f7b2e3ee183ac259c0d81565b6000809054906101000a900473ffffffffffffffffffffffffffffffffffffffff1681565b73a944bd4b25c9f186a846fd5668941aa3d3b8425f81565b73eeeeeeeeeeeeeeeeeeeeeeeeeeeeeeeeeeeeeeee81565b734a6bc4e803c62081ffebcc8d227b5a87a58f1f8f81565b73b6b09fbffba6a5c4631e5f7b2e3ee183ac259c0d81565b6e170ccc93903185be5a2094c870df6281565b73bb4339c0ab5b1d9f14bd6e3426444a1e9d86a1d981565b73823cde416973a19f98bb9c96d97f4fe6c9a7238b81565b600260009054906101000a900473ffffffffffffffffffffffffffffffffffffffff1673ffffffffffffffffffffffffffffffffffffffff163373ffffffffffffffffffffffffffffffffffffffff161461076257600080fd5b6060600160405190808252806020026020018201604052801561079f57816020015b61078c610fae565b8152602001906001900390816107845790505b5090506107ad836000610980565b816000815181106107ba57fe5b60200260200101819052506060600160405190808252806020026020018201604052801561080257816020015b6107ef610fde565b8152602001906001900390816107e75790505b50905061080d61104a565b60405180608001604052806001151581526020016000600181111561082e57fe5b81526020016000600181111561084057fe5b81526020018581525090506040518061010001604052806000600881111561086457fe5b8152602001600081526020018281526020016003548152602001600081526020018673ffffffffffffffffffffffffffffffffffffffff1681526020016000815260200160405180602001604052806000815250815250826000815181106108c857fe5b60200260200101819052506000809054906101000a900473ffffffffffffffffffffffffffffffffffffffff1673ffffffffffffffffffffffffffffffffffffffff1663a67a6a4584846040518363ffffffff1660e01b815260040161092f929190611855565b600060405180830381600087803b15801561094957600080fd5b505af115801561095d573d6000803e3d6000fd5b505050505050505050565b73863e41fe88288ebf3fcd91d8dbb679fb83fdfe1781565b61098861108a565b61099061108a565b60405180604001604052808573ffffffffffffffffffffffffffffffffffffffff1681526020018481525090508091505092915050565b7364a436ae831c1672ae81f674cab8b6775df3475c81565b6109e76110ba565b60606000809054906101000a900473ffffffffffffffffffffffffffffffffffffffff1673ffffffffffffffffffffffffffffffffffffffff16636a8194e7610a308686610980565b6040518263ffffffff1660e01b8152600401610a4c91906118c2565b60006040518083038186803b158015610a6457600080fd5b505afa158015610a78573d6000803e3d6000fd5b505050506040513d6000823e3d601f19601f82011682018060405250610aa19190810190611419565b90915050809150508060035481518110610ab757fe5b602002602001015191505092915050565b73aaf64bfcc32d0f15873a02163e7e500671a4ffcd81565b73c72e74e474682680a414b506699bbca44ab9a93081565b7332d0e18f988f952eb3524ace762042381a2c39e581565b73c4375b7de8af5a38a93548eb8453a498222c4ff281565b600260009054906101000a900473ffffffffffffffffffffffffffffffffffffffff1681565b735595930d576aedf13945c83ce5aad827529a131081565b7325a01a05c188dacbcf1d61af55d4a5b4021f7eed81565b73f5d915570bc477f9b8d6c0e980aa81757a3aac3681565b73f4d791139ce033ad35db2b2201435fad668b1b6481565b73692f391bcc85cefce8c237c01e1f636bbd70ea4d81565b7354b44c6b18fc0b4a1010b21d524c338d1f8065f681565b734ec3570cadaaee08ae384779b0f3a45ef85289de81565b735595930d576aedf13945c83ce5aad827529a131081565b610c166110e8565b60606000809054906101000a900473ffffffffffffffffffffffffffffffffffffffff1673ffffffffffffffffffffffffffffffffffffffff16636a8194e7610c5f8686610980565b6040518263ffffffff1660e01b8152600401610c7b91906118c2565b60006040518083038186803b158015610c9357600080fd5b505afa158015610ca7573d6000803e3d6000fd5b505050506040513d6000823e3d601f19601f82011682018060405250610cd09190810190611419565b9091509050809150508060035481518110610ce757fe5b602002602001015191505092915050565b73a71937147b55deb8a530c7229c442fd3f31b7db281565b73b6b09fbffba6a5c4631e5f7b2e3ee183ac259c0d81565b600260009054906101000a900473ffffffffffffffffffffffffffffffffffffffff1673ffffffffffffffffffffffffffffffffffffffff163373ffffffffffffffffffffffffffffffffffffffff1614610d8257600080fd5b60606001604051908082528060200260200182016040528015610dbf57816020015b610dac610fae565b815260200190600190039081610da45790505b509050610dcd836000610980565b81600081518110610dda57fe5b602002602001018190525060606001604051908082528060200260200182016040528015610e2257816020015b610e0f610fde565b815260200190600190039081610e075790505b509050610e2d61104a565b604051806080016040528060001515815260200160006001811115610e4e57fe5b815260200160006001811115610e6057fe5b815260200185815250905060405180610100016040528060016008811115610e8457fe5b8152602001600081526020018281526020016003548152602001600081526020018673ffffffffffffffffffffffffffffffffffffffff168152602001600081526020016040518060200160405280600081525081525082600081518110610ee857fe5b60200260200101819052506000809054906101000a900473ffffffffffffffffffffffffffffffffffffffff1673ffffffffffffffffffffffffffffffffffffffff1663a67a6a4584846040518363ffffffff1660e01b8152600401610f4f929190611855565b600060405180830381600087803b158015610f6957600080fd5b505af1158015610f7d573d6000803e3d6000fd5b505050505050505050565b600160009054906101000a900473ffffffffffffffffffffffffffffffffffffffff1681565b6040518060400160405280600073ffffffffffffffffffffffffffffffffffffffff168152602001600081525090565b60405180610160016040528060006008811115610ff757fe5b81526020016000815260200161100b611104565b81526020016000815260200160008152602001600073ffffffffffffffffffffffffffffffffffffffff16815260200160008152602001606081525090565b60405180608001604052806000151581526020016000600181111561106b57fe5b81526020016000600181111561107d57fe5b8152602001600081525090565b6040518060400160405280600073ffffffffffffffffffffffffffffffffffffffff168152602001600081525090565b604051806040016040528060001515815260200160006fffffffffffffffffffffffffffffffff1681525090565b6040518060400160405280600015158152602001600081525090565b60405180608001604052806000151581526020016000600181111561112557fe5b81526020016000600181111561113757fe5b8152602001600081525090565b60006111508235611ae0565b905092915050565b60006111648251611ae0565b905092915050565b600082601f83011261117d57600080fd5b815161119061118b82611940565b611913565b915081818352602084019350602081019050838560208402820111156111b557600080fd5b60005b838110156111e557816111cb8882611158565b8452602084019350602083019250506001810190506111b8565b5050505092915050565b600082601f83011261120057600080fd5b815161121361120e82611968565b611913565b9150818183526020840193506020810190508385604084028201111561123857600080fd5b60005b83811015611268578161124e8882611309565b84526020840193506040830192505060018101905061123b565b5050505092915050565b600082601f83011261128357600080fd5b815161129661129182611990565b611913565b915081818352602084019350602081019050838560408402820111156112bb57600080fd5b60005b838110156112eb57816112d18882611355565b8452602084019350604083019250506001810190506112be565b5050505092915050565b60006113018251611af2565b905092915050565b60006040828403121561131b57600080fd5b6113256040611913565b90506000611335848285016112f5565b6000830152506020611349848285016113a1565b60208301525092915050565b60006040828403121561136757600080fd5b6113716040611913565b90506000611381848285016112f5565b6000830152506020611395848285016113c9565b60208301525092915050565b60006113ad8251611afe565b905092915050565b60006113c18235611b3a565b905092915050565b60006113d58251611b3a565b905092915050565b600080604083850312156113f057600080fd5b60006113fe85828601611144565b925050602061140f858286016113b5565b9150509250929050565b60008060006060848603121561142e57600080fd5b600084015167ffffffffffffffff81111561144857600080fd5b6114548682870161116c565b935050602084015167ffffffffffffffff81111561147157600080fd5b61147d868287016111ef565b925050604084015167ffffffffffffffff81111561149a57600080fd5b6114a686828701611272565b9150509250925092565b60006114bc8383611658565b905092915050565b60006114d0838361178f565b60408301905092915050565b6114e581611a40565b82525050565b6114f481611a40565b82525050565b6000611505826119d2565b61150f8185611a0d565b935083602082028501611521856119b8565b60005b8481101561155a57838303885261153c8383516114b0565b9250611547826119f3565b9150602088019750600181019050611524565b508196508694505050505092915050565b6000611576826119dd565b6115808185611a1e565b935061158b836119c5565b60005b828110156115b9576115a18683516114c4565b95506115ac82611a00565b915060018101905061158e565b50849250505092915050565b6115ce81611a52565b82525050565b60006115df826119e8565b6115e98185611a2f565b93506115f9818560208601611bc2565b61160281611bf5565b840191505092915050565b61161681611b44565b82525050565b61162581611b68565b82525050565b61163481611b8c565b82525050565b61164381611b9e565b82525050565b61165281611bb0565b82525050565b600061016083016000830151611671600086018261162b565b506020830151611684602086018261182b565b506040830151611697604086018261170b565b5060608301516116aa60c086018261182b565b5060808301516116bd60e086018261182b565b5060a08301516116d16101008601826114dc565b5060c08301516116e561012086018261182b565b5060e08301518482036101408601526116fe82826115d4565b9150508091505092915050565b60808201600082015161172160008501826115c5565b506020820151611734602085018261163a565b5060408201516117476040850182611649565b50606082015161175a606085018261182b565b50505050565b60408201600082015161177660008501826114dc565b506020820151611789602085018261182b565b50505050565b6040820160008201516117a560008501826114dc565b5060208201516117b8602085018261182b565b50505050565b6040820160008201516117d460008501826115c5565b5060208201516117e7602085018261181c565b50505050565b60408201600082015161180360008501826115c5565b506020820151611816602085018261182b565b50505050565b61182581611a9a565b82525050565b61183481611ad6565b82525050565b600060208201905061184f60008301846114eb565b92915050565b6000604082019050818103600083015261186f818561156b565b9050818103602083015261188381846114fa565b90509392505050565b60006020820190506118a1600083018461160d565b92915050565b60006020820190506118bc600083018461161c565b92915050565b60006040820190506118d76000830184611760565b92915050565b60006040820190506118f260008301846117be565b92915050565b600060408201905061190d60008301846117ed565b92915050565b6000604051905081810181811067ffffffffffffffff8211171561193657600080fd5b8060405250919050565b600067ffffffffffffffff82111561195757600080fd5b602082029050602081019050919050565b600067ffffffffffffffff82111561197f57600080fd5b602082029050602081019050919050565b600067ffffffffffffffff8211156119a757600080fd5b602082029050602081019050919050565b6000602082019050919050565b6000602082019050919050565b600081519050919050565b600081519050919050565b600081519050919050565b6000602082019050919050565b6000602082019050919050565b600082825260208201905092915050565b600082825260208201905092915050565b600082825260208201905092915050565b6000611a4b82611ab6565b9050919050565b60008115159050919050565b600060098210611a6a57fe5b819050919050565b600060028210611a7e57fe5b819050919050565b600060028210611a9257fe5b819050919050565b60006fffffffffffffffffffffffffffffffff82169050919050565b600073ffffffffffffffffffffffffffffffffffffffff82169050919050565b6000819050919050565b6000611aeb82611b1a565b9050919050565b60008115159050919050565b60006fffffffffffffffffffffffffffffffff82169050919050565b600073ffffffffffffffffffffffffffffffffffffffff82169050919050565b6000819050919050565b6000611b4f82611b56565b9050919050565b6000611b6182611ab6565b9050919050565b6000611b7382611b7a565b9050919050565b6000611b8582611ab6565b9050919050565b6000611b9782611a5e565b9050919050565b6000611ba982611a72565b9050919050565b6000611bbb82611a86565b9050919050565b60005b83811015611be0578082015181840152602081019050611bc5565b83811115611bef576000848401525b50505050565b6000601f19601f830116905091905056fea265627a7a72305820c3be0efc283af8bc2a187068ab5223f1d20166b2eeffa26d05c21d1a6976ae8a6c6578706572696d656e74616cf50037",
  "source": "pragma solidity ^0.5.0;\npragma experimental ABIEncoderV2;\n\nimport \"../ProtocolInterface.sol\";\nimport \"./lib/Actions.sol\";\nimport \"./lib/Account.sol\";\nimport \"./lib/Types.sol\";\nimport \"../../interfaces/ERC20.sol\";\nimport \"../../ConstantAddresses.sol\";\n\ncontract ISoloMargin {\n    function operate(\n        Account.Info[] memory accounts,\n        Actions.ActionArgs[] memory actions\n    ) public;\n\n    function getAccountBalances(\n        Account.Info memory account\n    )\n        public\n        view\n        returns (\n            address[] memory,\n            Types.Par[] memory,\n            Types.Wei[] memory\n        );\n}\n\ncontract DydxSavingsProtocol is ProtocolInterface, ConstantAddresses {\n\n\n    ISoloMargin public soloMargin;\n    ERC20 public dai;\n    address public savingsProxy;\n\n    uint daiMarketId = 1;\n\n    constructor(address _savingsProxy) public {\n        soloMargin = ISoloMargin(SOLO_MARGIN_ADDRESS);\n        dai = ERC20(MAKER_DAI_ADDRESS);\n        savingsProxy = _savingsProxy;\n    }\n\n    function deposit(address _user, uint _amount) public {\n        require(msg.sender == savingsProxy);\n\n        Account.Info[] memory accounts = new Account.Info[](1);\n        accounts[0] = getAccount(_user, 0);\n\n        Actions.ActionArgs[] memory actions = new Actions.ActionArgs[](1);\n        Types.AssetAmount memory amount = Types.AssetAmount({\n            sign: true,\n            denomination: Types.AssetDenomination.Wei,\n            ref: Types.AssetReference.Delta,\n            value: _amount\n        });\n\n        actions[0] = Actions.ActionArgs({\n            actionType: Actions.ActionType.Deposit,\n            accountId: 0,\n            amount: amount,\n            primaryMarketId: daiMarketId,\n            otherAddress: _user,\n            secondaryMarketId: 0, //not used\n            otherAccountId: 0, //not used\n            data: \"\" //not used\n        });\n\n        soloMargin.operate(accounts, actions);\n    }\n\n    function withdraw(address _user, uint _amount) public {\n        require(msg.sender == savingsProxy);\n\n        Account.Info[] memory accounts = new Account.Info[](1);\n        accounts[0] = getAccount(_user, 0);\n\n        Actions.ActionArgs[] memory actions = new Actions.ActionArgs[](1);\n        Types.AssetAmount memory amount = Types.AssetAmount({\n            sign: false,\n            denomination: Types.AssetDenomination.Wei,\n            ref: Types.AssetReference.Delta,\n            value: _amount\n        });\n\n        actions[0] = Actions.ActionArgs({\n            actionType: Actions.ActionType.Withdraw,\n            accountId: 0,\n            amount: amount,\n            primaryMarketId: daiMarketId,\n            otherAddress: _user,\n            secondaryMarketId: 0, //not used\n            otherAccountId: 0, //not used\n            data: \"\" //not used\n        });\n\n        soloMargin.operate(accounts, actions);\n    }\n\n    function getWeiBalance(address _user, uint _index) public view returns(Types.Wei memory) {\n\n        Types.Wei[] memory weiBalances;\n        (,,weiBalances) = soloMargin.getAccountBalances(getAccount(_user, _index));\n\n        return weiBalances[daiMarketId];\n    }\n\n    function getParBalance(address _user, uint _index) public view returns(Types.Par memory) {\n        Types.Par[] memory parBalances;\n        (,parBalances,) = soloMargin.getAccountBalances(getAccount(_user, _index));\n\n        return parBalances[daiMarketId];\n    }\n\n    function getAccount(address _user, uint _index) public view returns(Account.Info memory) {\n        Account.Info memory account = Account.Info({\n            owner: _user,\n            number: _index\n        });\n\n        return account;\n    }\n}\n",
  "sourcePath": "/Users/nikolaklipa/Decenter/defisaver/cdpsaver-contracts/contracts/savings/dydx/DydxSavingsProtocol.sol",
  "compiler": {
    "name": "solc",
    "version": "0.5.7+commit.6da8b019.Emscripten.clang"
  },
  "schemaVersion": "3.0.9",
  "updatedAt": "2019-08-12T10:13:19.759Z",
  "devdoc": {
    "methods": {}
  },
  "userdoc": {
    "methods": {}
  }
}