{
  "contractName": "DydxSavingsProtocol",
  "abi": [
    {
      "constant": true,
      "inputs": [],
      "name": "soloMargin",
      "outputs": [
        {
          "name": "",
          "type": "address"
        }
      ],
      "payable": false,
      "stateMutability": "view",
      "type": "function"
    },
    {
      "constant": true,
      "inputs": [],
      "name": "MAKER_DAI_ADDRESS",
      "outputs": [
        {
          "name": "",
          "type": "address"
        }
      ],
      "payable": false,
      "stateMutability": "view",
      "type": "function"
    },
    {
      "constant": true,
      "inputs": [],
      "name": "SOLO_MARGIN_ADDRESS",
      "outputs": [
        {
          "name": "",
          "type": "address"
        }
      ],
      "payable": false,
      "stateMutability": "view",
      "type": "function"
    },
    {
      "constant": true,
      "inputs": [],
      "name": "dai",
      "outputs": [
        {
          "name": "",
          "type": "address"
        }
      ],
      "payable": false,
      "stateMutability": "view",
      "type": "function"
    },
    {
      "inputs": [],
      "payable": false,
      "stateMutability": "nonpayable",
      "type": "constructor"
    },
    {
      "constant": false,
      "inputs": [
        {
          "name": "_user",
          "type": "address"
        },
        {
          "name": "_amount",
          "type": "uint256"
        }
      ],
      "name": "deposit",
      "outputs": [],
      "payable": false,
      "stateMutability": "nonpayable",
      "type": "function"
    },
    {
      "constant": false,
      "inputs": [
        {
          "name": "_user",
          "type": "address"
        },
        {
          "name": "_amount",
          "type": "uint256"
        }
      ],
      "name": "withdraw",
      "outputs": [],
      "payable": false,
      "stateMutability": "nonpayable",
      "type": "function"
    },
    {
      "constant": true,
      "inputs": [
        {
          "name": "_user",
          "type": "address"
        },
        {
          "name": "_index",
          "type": "uint256"
        }
      ],
      "name": "getWeiBalance",
      "outputs": [
        {
          "components": [
            {
              "name": "sign",
              "type": "bool"
            },
            {
              "name": "value",
              "type": "uint256"
            }
          ],
          "name": "",
          "type": "tuple"
        }
      ],
      "payable": false,
      "stateMutability": "view",
      "type": "function"
    },
    {
      "constant": true,
      "inputs": [
        {
          "name": "_user",
          "type": "address"
        },
        {
          "name": "_index",
          "type": "uint256"
        }
      ],
      "name": "getParBalance",
      "outputs": [
        {
          "components": [
            {
              "name": "sign",
              "type": "bool"
            },
            {
              "name": "value",
              "type": "uint128"
            }
          ],
          "name": "",
          "type": "tuple"
        }
      ],
      "payable": false,
      "stateMutability": "view",
      "type": "function"
    },
    {
      "constant": true,
      "inputs": [
        {
          "name": "_user",
          "type": "address"
        },
        {
          "name": "_index",
          "type": "uint256"
        }
      ],
      "name": "getAccount",
      "outputs": [
        {
          "components": [
            {
              "name": "owner",
              "type": "address"
            },
            {
              "name": "number",
              "type": "uint256"
            }
          ],
          "name": "",
          "type": "tuple"
        }
      ],
      "payable": false,
      "stateMutability": "view",
      "type": "function"
    }
  ],
  "bytecode": "0x6080604052600160025534801561001557600080fd5b50734ec3570cadaaee08ae384779b0f3a45ef85289de6000806101000a81548173ffffffffffffffffffffffffffffffffffffffff021916908373ffffffffffffffffffffffffffffffffffffffff16021790555073c4375b7de8af5a38a93548eb8453a498222c4ff2600160006101000a81548173ffffffffffffffffffffffffffffffffffffffff021916908373ffffffffffffffffffffffffffffffffffffffff16021790555061150b806100ce6000396000f3fe608060405234801561001057600080fd5b50600436106100935760003560e01c80639da779e9116100665780639da779e914610132578063d36b907d14610150578063eef1bbda1461016e578063f3fef3a31461019e578063f4b9fa75146101ba57610093565b8063134f6d3a1461009857806347e7ef24146100b6578063670079eb146100d25780637800a0f614610102575b600080fd5b6100a06101d8565b6040516100ad9190611172565b60405180910390f35b6100d060048036036100cb9190810190610ca8565b6101fd565b005b6100ec60048036036100e79190810190610ca8565b610403565b6040516100f9919061118d565b60405180910390f35b61011c60048036036101179190810190610ca8565b61044a565b60405161012991906111a8565b60405180910390f35b61013a610533565b6040516101479190611105565b60405180910390f35b61015861054b565b6040516101659190611105565b60405180910390f35b61018860048036036101839190810190610ca8565b610563565b60405161019591906111c3565b60405180910390f35b6101b860048036036101b39190810190610ca8565b61064d565b005b6101c2610853565b6040516101cf9190611157565b60405180910390f35b6000809054906101000a900473ffffffffffffffffffffffffffffffffffffffff1681565b6060600160405190808252806020026020018201604052801561023a57816020015b610227610879565b81526020019060019003908161021f5790505b509050610248836000610403565b8160008151811061025557fe5b60200260200101819052506060600160405190808252806020026020018201604052801561029d57816020015b61028a6108a9565b8152602001906001900390816102825790505b5090506102a8610915565b6040518060800160405280600115158152602001600060018111156102c957fe5b8152602001600060018111156102db57fe5b8152602001858152509050604051806101000160405280600060088111156102ff57fe5b8152602001600081526020018281526020016002548152602001600081526020018673ffffffffffffffffffffffffffffffffffffffff16815260200160008152602001604051806020016040528060008152508152508260008151811061036357fe5b60200260200101819052506000809054906101000a900473ffffffffffffffffffffffffffffffffffffffff1673ffffffffffffffffffffffffffffffffffffffff1663a67a6a4584846040518363ffffffff1660e01b81526004016103ca929190611120565b600060405180830381600087803b1580156103e457600080fd5b505af11580156103f8573d6000803e3d6000fd5b505050505050505050565b61040b610955565b610413610955565b60405180604001604052808573ffffffffffffffffffffffffffffffffffffffff1681526020018481525090508091505092915050565b610452610985565b60606000809054906101000a900473ffffffffffffffffffffffffffffffffffffffff1673ffffffffffffffffffffffffffffffffffffffff16636a8194e761049b8686610403565b6040518263ffffffff1660e01b81526004016104b7919061118d565b60006040518083038186803b1580156104cf57600080fd5b505afa1580156104e3573d6000803e3d6000fd5b505050506040513d6000823e3d601f19601f8201168201806040525061050c9190810190610ce4565b9091505080915050806002548151811061052257fe5b602002602001015191505092915050565b73c4375b7de8af5a38a93548eb8453a498222c4ff281565b734ec3570cadaaee08ae384779b0f3a45ef85289de81565b61056b6109b3565b60606000809054906101000a900473ffffffffffffffffffffffffffffffffffffffff1673ffffffffffffffffffffffffffffffffffffffff16636a8194e76105b48686610403565b6040518263ffffffff1660e01b81526004016105d0919061118d565b60006040518083038186803b1580156105e857600080fd5b505afa1580156105fc573d6000803e3d6000fd5b505050506040513d6000823e3d601f19601f820116820180604052506106259190810190610ce4565b909150905080915050806002548151811061063c57fe5b602002602001015191505092915050565b6060600160405190808252806020026020018201604052801561068a57816020015b610677610879565b81526020019060019003908161066f5790505b509050610698836000610403565b816000815181106106a557fe5b6020026020010181905250606060016040519080825280602002602001820160405280156106ed57816020015b6106da6108a9565b8152602001906001900390816106d25790505b5090506106f8610915565b60405180608001604052806000151581526020016000600181111561071957fe5b81526020016000600181111561072b57fe5b81526020018581525090506040518061010001604052806001600881111561074f57fe5b8152602001600081526020018281526020016002548152602001600081526020018673ffffffffffffffffffffffffffffffffffffffff1681526020016000815260200160405180602001604052806000815250815250826000815181106107b357fe5b60200260200101819052506000809054906101000a900473ffffffffffffffffffffffffffffffffffffffff1673ffffffffffffffffffffffffffffffffffffffff1663a67a6a4584846040518363ffffffff1660e01b815260040161081a929190611120565b600060405180830381600087803b15801561083457600080fd5b505af1158015610848573d6000803e3d6000fd5b505050505050505050565b600160009054906101000a900473ffffffffffffffffffffffffffffffffffffffff1681565b6040518060400160405280600073ffffffffffffffffffffffffffffffffffffffff168152602001600081525090565b604051806101600160405280600060088111156108c257fe5b8152602001600081526020016108d66109cf565b81526020016000815260200160008152602001600073ffffffffffffffffffffffffffffffffffffffff16815260200160008152602001606081525090565b60405180608001604052806000151581526020016000600181111561093657fe5b81526020016000600181111561094857fe5b8152602001600081525090565b6040518060400160405280600073ffffffffffffffffffffffffffffffffffffffff168152602001600081525090565b604051806040016040528060001515815260200160006fffffffffffffffffffffffffffffffff1681525090565b6040518060400160405280600015158152602001600081525090565b6040518060800160405280600015158152602001600060018111156109f057fe5b815260200160006001811115610a0257fe5b8152602001600081525090565b6000610a1b82356113ab565b905092915050565b6000610a2f82516113ab565b905092915050565b600082601f830112610a4857600080fd5b8151610a5b610a568261120b565b6111de565b91508181835260208401935060208101905083856020840282011115610a8057600080fd5b60005b83811015610ab05781610a968882610a23565b845260208401935060208301925050600181019050610a83565b5050505092915050565b600082601f830112610acb57600080fd5b8151610ade610ad982611233565b6111de565b91508181835260208401935060208101905083856040840282011115610b0357600080fd5b60005b83811015610b335781610b198882610bd4565b845260208401935060408301925050600181019050610b06565b5050505092915050565b600082601f830112610b4e57600080fd5b8151610b61610b5c8261125b565b6111de565b91508181835260208401935060208101905083856040840282011115610b8657600080fd5b60005b83811015610bb65781610b9c8882610c20565b845260208401935060408301925050600181019050610b89565b5050505092915050565b6000610bcc82516113bd565b905092915050565b600060408284031215610be657600080fd5b610bf060406111de565b90506000610c0084828501610bc0565b6000830152506020610c1484828501610c6c565b60208301525092915050565b600060408284031215610c3257600080fd5b610c3c60406111de565b90506000610c4c84828501610bc0565b6000830152506020610c6084828501610c94565b60208301525092915050565b6000610c7882516113c9565b905092915050565b6000610c8c8235611405565b905092915050565b6000610ca08251611405565b905092915050565b60008060408385031215610cbb57600080fd5b6000610cc985828601610a0f565b9250506020610cda85828601610c80565b9150509250929050565b600080600060608486031215610cf957600080fd5b600084015167ffffffffffffffff811115610d1357600080fd5b610d1f86828701610a37565b935050602084015167ffffffffffffffff811115610d3c57600080fd5b610d4886828701610aba565b925050604084015167ffffffffffffffff811115610d6557600080fd5b610d7186828701610b3d565b9150509250925092565b6000610d878383610f23565b905092915050565b6000610d9b838361105a565b60408301905092915050565b610db08161130b565b82525050565b610dbf8161130b565b82525050565b6000610dd08261129d565b610dda81856112d8565b935083602082028501610dec85611283565b60005b84811015610e25578383038852610e07838351610d7b565b9250610e12826112be565b9150602088019750600181019050610def565b508196508694505050505092915050565b6000610e41826112a8565b610e4b81856112e9565b9350610e5683611290565b60005b82811015610e8457610e6c868351610d8f565b9550610e77826112cb565b9150600181019050610e59565b50849250505092915050565b610e998161131d565b82525050565b6000610eaa826112b3565b610eb481856112fa565b9350610ec481856020860161148d565b610ecd816114c0565b840191505092915050565b610ee18161140f565b82525050565b610ef081611433565b82525050565b610eff81611457565b82525050565b610f0e81611469565b82525050565b610f1d8161147b565b82525050565b600061016083016000830151610f3c6000860182610ef6565b506020830151610f4f60208601826110f6565b506040830151610f626040860182610fd6565b506060830151610f7560c08601826110f6565b506080830151610f8860e08601826110f6565b5060a0830151610f9c610100860182610da7565b5060c0830151610fb06101208601826110f6565b5060e0830151848203610140860152610fc98282610e9f565b9150508091505092915050565b608082016000820151610fec6000850182610e90565b506020820151610fff6020850182610f05565b5060408201516110126040850182610f14565b50606082015161102560608501826110f6565b50505050565b6040820160008201516110416000850182610da7565b50602082015161105460208501826110f6565b50505050565b6040820160008201516110706000850182610da7565b50602082015161108360208501826110f6565b50505050565b60408201600082015161109f6000850182610e90565b5060208201516110b260208501826110e7565b50505050565b6040820160008201516110ce6000850182610e90565b5060208201516110e160208501826110f6565b50505050565b6110f081611365565b82525050565b6110ff816113a1565b82525050565b600060208201905061111a6000830184610db6565b92915050565b6000604082019050818103600083015261113a8185610e36565b9050818103602083015261114e8184610dc5565b90509392505050565b600060208201905061116c6000830184610ed8565b92915050565b60006020820190506111876000830184610ee7565b92915050565b60006040820190506111a2600083018461102b565b92915050565b60006040820190506111bd6000830184611089565b92915050565b60006040820190506111d860008301846110b8565b92915050565b6000604051905081810181811067ffffffffffffffff8211171561120157600080fd5b8060405250919050565b600067ffffffffffffffff82111561122257600080fd5b602082029050602081019050919050565b600067ffffffffffffffff82111561124a57600080fd5b602082029050602081019050919050565b600067ffffffffffffffff82111561127257600080fd5b602082029050602081019050919050565b6000602082019050919050565b6000602082019050919050565b600081519050919050565b600081519050919050565b600081519050919050565b6000602082019050919050565b6000602082019050919050565b600082825260208201905092915050565b600082825260208201905092915050565b600082825260208201905092915050565b600061131682611381565b9050919050565b60008115159050919050565b60006009821061133557fe5b819050919050565b60006002821061134957fe5b819050919050565b60006002821061135d57fe5b819050919050565b60006fffffffffffffffffffffffffffffffff82169050919050565b600073ffffffffffffffffffffffffffffffffffffffff82169050919050565b6000819050919050565b60006113b6826113e5565b9050919050565b60008115159050919050565b60006fffffffffffffffffffffffffffffffff82169050919050565b600073ffffffffffffffffffffffffffffffffffffffff82169050919050565b6000819050919050565b600061141a82611421565b9050919050565b600061142c82611381565b9050919050565b600061143e82611445565b9050919050565b600061145082611381565b9050919050565b600061146282611329565b9050919050565b60006114748261133d565b9050919050565b600061148682611351565b9050919050565b60005b838110156114ab578082015181840152602081019050611490565b838111156114ba576000848401525b50505050565b6000601f19601f830116905091905056fea265627a7a723058209acb890e390dc3f8492a591445544f57bc7093fbdae7d59a72ee510b6d9b4c3a6c6578706572696d656e74616cf50037",
  "source": "pragma solidity ^0.5.0;\npragma experimental ABIEncoderV2;\n\nimport \"../ProtocolInterface.sol\";\nimport \"./lib/Actions.sol\";\nimport \"./lib/Account.sol\";\nimport \"./lib/Types.sol\";\nimport \"../../interfaces/ERC20.sol\";\n\ncontract ISoloMargin {\n    function operate(\n        Account.Info[] memory accounts,\n        Actions.ActionArgs[] memory actions\n    ) public;\n\n    function getAccountBalances(\n        Account.Info memory account\n    )\n        public\n        view\n        returns (\n            address[] memory,\n            Types.Par[] memory,\n            Types.Wei[] memory\n        );\n}\n\ncontract DydxSavingsProtocol is ProtocolInterface {\n\n    // kovan\n    address public constant SOLO_MARGIN_ADDRESS = 0x4EC3570cADaAEE08Ae384779B0f3A45EF85289DE;\n    address public constant MAKER_DAI_ADDRESS = 0xC4375B7De8af5a38a93548eb8453a498222C4fF2;\n\n    ISoloMargin public soloMargin;\n    ERC20 public dai;\n\n    uint daiMarketId = 1;\n\n    constructor() public {\n        soloMargin = ISoloMargin(SOLO_MARGIN_ADDRESS);\n        dai = ERC20(MAKER_DAI_ADDRESS);\n    }\n\n    function deposit(address _user, uint _amount) public {\n        Account.Info[] memory accounts = new Account.Info[](1);\n        accounts[0] = getAccount(_user, 0);\n\n        Actions.ActionArgs[] memory actions = new Actions.ActionArgs[](1);\n        Types.AssetAmount memory amount = Types.AssetAmount({\n            sign: true,\n            denomination: Types.AssetDenomination.Wei,\n            ref: Types.AssetReference.Delta,\n            value: _amount\n        });\n\n        actions[0] = Actions.ActionArgs({\n            actionType: Actions.ActionType.Deposit,\n            accountId: 0,\n            amount: amount,\n            primaryMarketId: daiMarketId,\n            otherAddress: _user,\n            secondaryMarketId: 0, //not used\n            otherAccountId: 0, //not used\n            data: \"\" //not used\n        });\n\n        soloMargin.operate(accounts, actions);\n    }\n\n    function withdraw(address _user, uint _amount) public {\n        Account.Info[] memory accounts = new Account.Info[](1);\n        accounts[0] = getAccount(_user, 0);\n\n        Actions.ActionArgs[] memory actions = new Actions.ActionArgs[](1);\n        Types.AssetAmount memory amount = Types.AssetAmount({\n            sign: false,\n            denomination: Types.AssetDenomination.Wei,\n            ref: Types.AssetReference.Delta,\n            value: _amount\n        });\n\n        actions[0] = Actions.ActionArgs({\n            actionType: Actions.ActionType.Withdraw,\n            accountId: 0,\n            amount: amount,\n            primaryMarketId: daiMarketId,\n            otherAddress: _user,\n            secondaryMarketId: 0, //not used\n            otherAccountId: 0, //not used\n            data: \"\" //not used\n        });\n\n        soloMargin.operate(accounts, actions);\n    }\n\n    function getWeiBalance(address _user, uint _index) public view returns(Types.Wei memory) {\n\n        Types.Wei[] memory weiBalances;\n        (,,weiBalances) = soloMargin.getAccountBalances(getAccount(_user, _index));\n\n        return weiBalances[daiMarketId];\n    }\n\n    function getParBalance(address _user, uint _index) public view returns(Types.Par memory) {\n        Types.Par[] memory parBalances;\n        (,parBalances,) = soloMargin.getAccountBalances(getAccount(_user, _index));\n\n        return parBalances[daiMarketId];\n    }\n\n    function getAccount(address _user, uint _index) public view returns(Account.Info memory) {\n        Account.Info memory account = Account.Info({\n            owner: _user,\n            number: _index\n        });\n\n        return account;\n    }\n}\n",
  "sourcePath": "/Users/nikolaklipa/Decenter/defisaver/cdpsaver-contracts/contracts/savings/dydx/DydxSavingsProtocol.sol",
  "compiler": {
    "name": "solc",
    "version": "0.5.7+commit.6da8b019.Emscripten.clang"
  },
  "schemaVersion": "3.0.9",
  "updatedAt": "2019-08-05T13:02:29.185Z",
  "devdoc": {
    "methods": {}
  },
  "userdoc": {
    "methods": {}
  }
}