{
  "contractName": "DydxSavingsProtocol",
  "abi": [
    {
      "constant": true,
      "inputs": [],
      "name": "WETH_ADDRESS",
      "outputs": [
        {
          "name": "",
          "type": "address"
        }
      ],
      "payable": false,
      "stateMutability": "view",
      "type": "function"
    },
    {
      "constant": true,
      "inputs": [],
      "name": "CDAI_ADDRESS",
      "outputs": [
        {
          "name": "",
          "type": "address"
        }
      ],
      "payable": false,
      "stateMutability": "view",
      "type": "function"
    },
    {
      "constant": true,
      "inputs": [],
      "name": "soloMargin",
      "outputs": [
        {
          "name": "",
          "type": "address"
        }
      ],
      "payable": false,
      "stateMutability": "view",
      "type": "function"
    },
    {
      "constant": false,
      "inputs": [
        {
          "name": "owner_",
          "type": "address"
        }
      ],
      "name": "setOwner",
      "outputs": [
        {
          "name": "",
          "type": "address"
        }
      ],
      "payable": false,
      "stateMutability": "nonpayable",
      "type": "function"
    },
    {
      "constant": true,
      "inputs": [],
      "name": "PIP_INTERFACE_ADDRESS",
      "outputs": [
        {
          "name": "",
          "type": "address"
        }
      ],
      "payable": false,
      "stateMutability": "view",
      "type": "function"
    },
    {
      "inputs": [
        {
          "name": "_savingsProxy",
          "type": "address"
        }
      ],
      "payable": false,
      "stateMutability": "view",
      "type": "function",
      "constant": true,
      "name": "KYBER_ETH_ADDRESS",
      "outputs": [
        {
          "name": "",
          "type": "address"
        }
      ]
    },
    {
      "constant": true,
      "inputs": [
        {
          "name": "_user",
          "type": "address"
        },
        {
          "name": "_amount",
          "type": "uint256"
        }
      ],
      "name": "OTC_ADDRESS",
      "outputs": [
        {
          "name": "",
          "type": "address"
        }
      ],
      "payable": false,
      "stateMutability": "view",
      "type": "function"
    },
    {
      "constant": true,
      "inputs": [
        {
          "name": "_user",
          "type": "address"
        },
        {
          "name": "_amount",
          "type": "uint256"
        }
      ],
      "name": "IDAI_ADDRESS",
      "outputs": [
        {
          "name": "",
          "type": "address"
        }
      ],
      "payable": false,
      "stateMutability": "view",
      "type": "function"
    },
    {
      "constant": true,
      "inputs": [
        {
          "name": "_user",
          "type": "address"
        },
        {
          "name": "_index",
          "type": "uint256"
        }
      ],
      "name": "GAS_TOKEN_INTERFACE_ADDRESS",
      "outputs": [
        {
          "components": [
            {
              "name": "sign",
              "type": "bool"
            },
            {
              "name": "value",
              "type": "uint256"
            }
          ],
          "name": "",
          "type": "address"
        }
      ],
      "payable": false,
      "stateMutability": "view",
      "type": "function"
    },
    {
      "constant": true,
      "inputs": [
        {
          "name": "_user",
          "type": "address"
        },
        {
          "name": "_index",
          "type": "uint256"
        }
      ],
      "name": "VOX_ADDRESS",
      "outputs": [
        {
          "components": [
            {
              "name": "sign",
              "type": "bool"
            },
            {
              "name": "value",
              "type": "uint128"
            }
          ],
          "name": "",
          "type": "address"
        }
      ],
      "payable": false,
      "stateMutability": "view",
      "type": "function"
    },
    {
      "constant": true,
      "inputs": [
        {
          "name": "_user",
          "type": "address"
        },
        {
          "name": "_index",
          "type": "uint256"
        }
      ],
      "name": "ETH2DAI_WRAPPER",
      "outputs": [
        {
          "components": [
            {
              "name": "owner",
              "type": "address"
            },
            {
              "name": "number",
              "type": "uint256"
            }
          ],
          "name": "",
          "type": "address"
        }
      ],
      "payable": false,
      "stateMutability": "view",
      "type": "function"
    },
    {
      "constant": true,
      "inputs": [],
      "name": "STUPID_EXCHANGE",
      "outputs": [
        {
          "name": "",
          "type": "address"
        }
      ],
      "payable": false,
      "stateMutability": "view",
      "type": "function"
    },
    {
      "constant": true,
      "inputs": [],
      "name": "PROXY_REGISTRY_INTERFACE_ADDRESS",
      "outputs": [
        {
          "name": "",
          "type": "address"
        }
      ],
      "payable": false,
      "stateMutability": "view",
      "type": "function"
    },
    {
      "constant": false,
      "inputs": [
        {
          "name": "authority_",
          "type": "address"
        }
      ],
      "name": "setAuthority",
      "outputs": [
        {
          "name": "",
          "type": "address"
        }
      ],
      "payable": false,
      "stateMutability": "nonpayable",
      "type": "function"
    },
    {
      "constant": true,
      "inputs": [],
      "name": "MKR_ADDRESS",
      "outputs": [
        {
          "name": "",
          "type": "address"
        }
      ],
      "payable": false,
      "stateMutability": "view",
      "type": "function"
    },
    {
      "constant": true,
      "inputs": [],
      "name": "FACTORY_ADDRESS",
      "outputs": [
        {
          "name": "",
          "type": "address"
        }
      ],
      "payable": false,
      "stateMutability": "view",
      "type": "function"
    },
    {
      "constant": true,
      "inputs": [],
      "name": "owner",
      "outputs": [
        {
          "name": "",
          "type": "address"
        }
      ],
      "payable": false,
      "stateMutability": "view",
      "type": "function"
    },
    {
      "constant": true,
      "inputs": [],
      "name": "LOGGER_ADDRESS",
      "outputs": [
        {
          "name": "",
          "type": "address"
        }
      ],
      "payable": false,
      "stateMutability": "view",
      "type": "function"
    },
    {
      "constant": true,
      "inputs": [],
      "name": "MAKER_DAI_ADDRESS",
      "outputs": [
        {
          "name": "",
          "type": "address"
        }
      ],
      "payable": false,
      "stateMutability": "view",
      "type": "function"
    },
    {
      "constant": true,
      "inputs": [],
      "name": "savingsProxy",
      "outputs": [
        {
          "name": "",
          "type": "address"
        }
      ],
      "payable": false,
      "stateMutability": "view",
      "type": "function"
    },
    {
      "constant": true,
      "inputs": [],
      "name": "KYBER_WRAPPER",
      "outputs": [
        {
          "name": "",
          "type": "address"
        }
      ],
      "payable": false,
      "stateMutability": "view",
      "type": "function"
    },
    {
      "constant": true,
      "inputs": [],
      "name": "authority",
      "outputs": [
        {
          "name": "",
          "type": "address"
        }
      ],
      "payable": false,
      "stateMutability": "view",
      "type": "function"
    },
    {
      "constant": true,
      "inputs": [],
      "name": "COMPOUND_DAI_ADDRESS",
      "outputs": [
        {
          "name": "",
          "type": "address"
        }
      ],
      "payable": false,
      "stateMutability": "view",
      "type": "function"
    },
    {
      "constant": true,
      "inputs": [],
      "name": "UNISWAP_FACTORY",
      "outputs": [
        {
          "name": "",
          "type": "address"
        }
      ],
      "payable": false,
      "stateMutability": "view",
      "type": "function"
    },
    {
      "constant": true,
      "inputs": [],
      "name": "PETH_ADDRESS",
      "outputs": [
        {
          "name": "",
          "type": "address"
        }
      ],
      "payable": false,
      "stateMutability": "view",
      "type": "function"
    },
    {
      "constant": true,
      "inputs": [],
      "name": "KYBER_INTERFACE",
      "outputs": [
        {
          "name": "",
          "type": "address"
        }
      ],
      "payable": false,
      "stateMutability": "view",
      "type": "function"
    },
    {
      "constant": true,
      "inputs": [],
      "name": "WALLET_ID",
      "outputs": [
        {
          "name": "",
          "type": "address"
        }
      ],
      "payable": false,
      "stateMutability": "view",
      "type": "function"
    },
    {
      "constant": true,
      "inputs": [
        {
          "name": "_savingsProxy",
          "type": "address"
        }
      ],
      "name": "SOLO_MARGIN_ADDRESS",
      "outputs": [
        {
          "name": "",
          "type": "address"
        }
      ],
      "payable": false,
      "stateMutability": "view",
      "type": "function"
    },
    {
      "inputs": [
        {
          "name": "_user",
          "type": "address"
        },
        {
          "name": "_amount",
          "type": "uint256"
        }
      ],
      "payable": false,
      "stateMutability": "view",
      "type": "function",
      "constant": true,
      "name": "UNISWAP_WRAPPER",
      "outputs": [
        {
          "name": "",
          "type": "address"
        }
      ]
    },
    {
      "constant": true,
      "inputs": [
        {
          "name": "_user",
          "type": "address"
        },
        {
          "name": "_amount",
          "type": "uint256"
        }
      ],
      "name": "TUB_ADDRESS",
      "outputs": [
        {
          "name": "",
          "type": "address"
        }
      ],
      "payable": false,
      "stateMutability": "view",
      "type": "function"
    },
    {
      "constant": true,
      "inputs": [
        {
          "name": "_user",
          "type": "address"
        },
        {
          "name": "_index",
          "type": "uint256"
        }
      ],
      "name": "dai",
      "outputs": [
        {
          "components": [
            {
              "name": "sign",
              "type": "bool"
            },
            {
              "name": "value",
              "type": "uint256"
            }
          ],
          "name": "",
          "type": "address"
        }
      ],
      "payable": false,
      "stateMutability": "view",
      "type": "function"
    },
    {
      "constant": true,
      "inputs": [
        {
          "name": "_user",
          "type": "address"
        },
        {
          "name": "_index",
          "type": "uint256"
        }
      ],
      "name": "getParBalance",
      "outputs": [
        {
          "components": [
            {
              "name": "sign",
              "type": "bool"
            },
            {
              "name": "value",
              "type": "uint128"
            }
          ],
          "name": "",
          "type": "tuple"
        }
      ],
      "payable": false,
      "stateMutability": "nonpayable",
      "type": "constructor"
    },
    {
      "constant": true,
      "inputs": [
        {
          "name": "authority",
          "type": "address",
          "indexed": true
        },
        {
          "name": "_index",
          "type": "uint256"
        }
      ],
      "name": "LogSetAuthority",
      "outputs": [
        {
          "components": [
            {
              "name": "owner",
              "type": "address"
            },
            {
              "name": "number",
              "type": "uint256"
            }
          ],
          "name": "",
          "type": "tuple"
        }
      ],
      "payable": false,
      "stateMutability": "view",
      "type": "event",
      "anonymous": false
    },
    {
      "constant": true,
      "inputs": [
        {
          "name": "owner",
          "type": "address",
          "indexed": true
        },
        {
          "name": "_index",
          "type": "uint256"
        }
      ],
      "name": "LogSetOwner",
      "outputs": [
        {
          "components": [
            {
              "name": "owner",
              "type": "address"
            },
            {
              "name": "number",
              "type": "uint256"
            }
          ],
          "name": "",
          "type": "tuple"
        }
      ],
      "payable": false,
      "stateMutability": "view",
      "type": "event",
      "anonymous": false
    },
    {
      "constant": false,
      "inputs": [
        {
          "name": "_savingsProxy",
          "type": "address"
        }
      ],
      "name": "addSavingsProxy",
      "outputs": [],
      "payable": false,
      "stateMutability": "nonpayable",
      "type": "function"
    },
    {
      "constant": false,
      "inputs": [
        {
          "name": "_user",
          "type": "address"
        },
        {
          "name": "_amount",
          "type": "uint256"
        }
      ],
      "name": "deposit",
      "outputs": [],
      "payable": false,
      "stateMutability": "nonpayable",
      "type": "function"
    },
    {
      "constant": false,
      "inputs": [
        {
          "name": "_user",
          "type": "address"
        },
        {
          "name": "_amount",
          "type": "uint256"
        }
      ],
      "name": "withdraw",
      "outputs": [],
      "payable": false,
      "stateMutability": "nonpayable",
      "type": "function"
    },
    {
      "constant": true,
      "inputs": [
        {
          "name": "_user",
          "type": "address"
        },
        {
          "name": "_index",
          "type": "uint256"
        }
      ],
      "name": "getWeiBalance",
      "outputs": [
        {
          "components": [
            {
              "name": "sign",
              "type": "bool"
            },
            {
              "name": "value",
              "type": "uint256"
            }
          ],
          "name": "",
          "type": "tuple"
        }
      ],
      "payable": false,
      "stateMutability": "view",
      "type": "function"
    },
    {
      "constant": true,
      "inputs": [
        {
          "name": "_user",
          "type": "address"
        },
        {
          "name": "_index",
          "type": "uint256"
        }
      ],
      "name": "getParBalance",
      "outputs": [
        {
          "components": [
            {
              "name": "sign",
              "type": "bool"
            },
            {
              "name": "value",
              "type": "uint128"
            }
          ],
          "name": "",
          "type": "tuple"
        }
      ],
      "payable": false,
      "stateMutability": "view",
      "type": "function"
    },
    {
      "constant": true,
      "inputs": [
        {
          "name": "_user",
          "type": "address"
        },
        {
          "name": "_index",
          "type": "uint256"
        }
      ],
      "name": "getAccount",
      "outputs": [
        {
          "components": [
            {
              "name": "owner",
              "type": "address"
            },
            {
              "name": "number",
              "type": "uint256"
            }
          ],
          "name": "",
          "type": "tuple"
        }
      ],
      "payable": false,
      "stateMutability": "view",
      "type": "function"
    }
  ],
  "bytecode": "0x6080604052600160055534801561001557600080fd5b5033600160006101000a81548173ffffffffffffffffffffffffffffffffffffffff021916908373ffffffffffffffffffffffffffffffffffffffff1602179055503373ffffffffffffffffffffffffffffffffffffffff167fce241d7ca1f669fee44b6fc00b8eba2df3bb514eed0f6f668f8f89096e81ed9460405160405180910390a2734ec3570cadaaee08ae384779b0f3a45ef85289de600260006101000a81548173ffffffffffffffffffffffffffffffffffffffff021916908373ffffffffffffffffffffffffffffffffffffffff16021790555073c4375b7de8af5a38a93548eb8453a498222c4ff2600360006101000a81548173ffffffffffffffffffffffffffffffffffffffff021916908373ffffffffffffffffffffffffffffffffffffffff160217905550612264806101536000396000f3fe608060405234801561001057600080fd5b50600436106102275760003560e01c8063825ffd9211610130578063c74c0fac116100b8578063ddaa293c1161007c578063ddaa293c14610608578063eef1bbda14610626578063f0d405e514610656578063f3fef3a314610674578063f4b9fa751461069057610227565b8063c74c0fac14610572578063c9fde27014610590578063ce9bde1d146105ae578063d3661fa5146105cc578063d36b907d146105ea57610227565b80639da779e9116100ff5780639da779e9146104dc578063a683668c146104fa578063b175afa114610518578063bf7e214f14610536578063c16921b71461055457610227565b8063825ffd92146104645780638823151b146104825780638da5cb5b146104a057806394bfbe74146104be57610227565b806332ac5cd2116101b3578063502237d711610182578063502237d7146103ac578063670079eb146103ca578063728c0092146103fa5780637800a0f6146104185780637a9e5e4b1461044857610227565b806332ac5cd21461033657806336e6da111461035457806343fb75e81461037257806347e7ef241461039057610227565b806313af4035116101fa57806313af4035146102a25780631dab52b0146102be57806329f7fc9e146102dc5780632a441f05146102fa5780632d5eeb3f1461031857610227565b8063040141e51461022c5780630531b2ad1461024a5780630b6cd37e14610268578063134f6d3a14610284575b600080fd5b6102346106ae565b6040516102419190611daa565b60405180910390f35b6102526106c6565b60405161025f9190611daa565b60405180910390f35b610282600480360361027d91908101906118b4565b6106de565b005b61028c610759565b6040516102999190611e69565b60405180910390f35b6102bc60048036036102b791908101906118b4565b61077f565b005b6102c661085f565b6040516102d39190611daa565b60405180910390f35b6102e4610877565b6040516102f19190611daa565b60405180910390f35b61030261088f565b60405161030f9190611daa565b60405180910390f35b6103206108a7565b60405161032d9190611daa565b60405180910390f35b61033e6108bf565b60405161034b9190611daa565b60405180910390f35b61035c6108d2565b6040516103699190611daa565b60405180910390f35b61037a6108ea565b6040516103879190611daa565b60405180910390f35b6103aa60048036036103a591908101906118dd565b610902565b005b6103b4610b63565b6040516103c19190611daa565b60405180910390f35b6103e460048036036103df91908101906118dd565b610b7b565b6040516103f19190611e84565b60405180910390f35b610402610bc2565b60405161040f9190611daa565b60405180910390f35b610432600480360361042d91908101906118dd565b610bda565b60405161043f9190611e9f565b60405180910390f35b610462600480360361045d91908101906119d9565b610cc4565b005b61046c610da2565b6040516104799190611daa565b60405180910390f35b61048a610dba565b6040516104979190611daa565b60405180910390f35b6104a8610dd2565b6040516104b59190611daa565b60405180910390f35b6104c6610df8565b6040516104d39190611daa565b60405180910390f35b6104e4610e10565b6040516104f19190611daa565b60405180910390f35b610502610e28565b60405161050f9190611daa565b60405180910390f35b610520610e4e565b60405161052d9190611daa565b60405180910390f35b61053e610e66565b60405161054b9190611e33565b60405180910390f35b61055c610e8b565b6040516105699190611daa565b60405180910390f35b61057a610ea3565b6040516105879190611daa565b60405180910390f35b610598610ebb565b6040516105a59190611daa565b60405180910390f35b6105b6610ed3565b6040516105c39190611daa565b60405180910390f35b6105d4610eeb565b6040516105e19190611daa565b60405180910390f35b6105f2610f03565b6040516105ff9190611daa565b60405180910390f35b610610610f1b565b60405161061d9190611daa565b60405180910390f35b610640600480360361063b91908101906118dd565b610f33565b60405161064d9190611eba565b60405180910390f35b61065e61101e565b60405161066b9190611daa565b60405180910390f35b61068e600480360361068991908101906118dd565b611036565b005b610698611297565b6040516106a59190611e4e565b60405180910390f35b73d0a1e359811322d97991e03f863a0c30c2cf029c81565b73b6b09fbffba6a5c4631e5f7b2e3ee183ac259c0d81565b61070c336000357fffffffff00000000000000000000000000000000000000000000000000000000166112bd565b61071557600080fd5b80600460006101000a81548173ffffffffffffffffffffffffffffffffffffffff021916908373ffffffffffffffffffffffffffffffffffffffff16021790555050565b600260009054906101000a900473ffffffffffffffffffffffffffffffffffffffff1681565b6107ad336000357fffffffff00000000000000000000000000000000000000000000000000000000166112bd565b6107b657600080fd5b80600160006101000a81548173ffffffffffffffffffffffffffffffffffffffff021916908373ffffffffffffffffffffffffffffffffffffffff160217905550600160009054906101000a900473ffffffffffffffffffffffffffffffffffffffff1673ffffffffffffffffffffffffffffffffffffffff167fce241d7ca1f669fee44b6fc00b8eba2df3bb514eed0f6f668f8f89096e81ed9460405160405180910390a250565b73a944bd4b25c9f186a846fd5668941aa3d3b8425f81565b73eeeeeeeeeeeeeeeeeeeeeeeeeeeeeeeeeeeeeeee81565b734a6bc4e803c62081ffebcc8d227b5a87a58f1f8f81565b73b6b09fbffba6a5c4631e5f7b2e3ee183ac259c0d81565b6e170ccc93903185be5a2094c870df6281565b73bb4339c0ab5b1d9f14bd6e3426444a1e9d86a1d981565b73823cde416973a19f98bb9c96d97f4fe6c9a7238b81565b600460009054906101000a900473ffffffffffffffffffffffffffffffffffffffff1673ffffffffffffffffffffffffffffffffffffffff163373ffffffffffffffffffffffffffffffffffffffff161461095c57600080fd5b6060600160405190808252806020026020018201604052801561099957816020015b610986611471565b81526020019060019003908161097e5790505b5090506109a7836000610b7b565b816000815181106109b457fe5b6020026020010181905250606060016040519080825280602002602001820160405280156109fc57816020015b6109e96114a1565b8152602001906001900390816109e15790505b509050610a0761150d565b604051806080016040528060011515815260200160006001811115610a2857fe5b815260200160006001811115610a3a57fe5b815260200185815250905060405180610100016040528060006008811115610a5e57fe5b8152602001600081526020018281526020016005548152602001600081526020018673ffffffffffffffffffffffffffffffffffffffff168152602001600081526020016040518060200160405280600081525081525082600081518110610ac257fe5b6020026020010181905250600260009054906101000a900473ffffffffffffffffffffffffffffffffffffffff1673ffffffffffffffffffffffffffffffffffffffff1663a67a6a4584846040518363ffffffff1660e01b8152600401610b2a929190611dfc565b600060405180830381600087803b158015610b4457600080fd5b505af1158015610b58573d6000803e3d6000fd5b505050505050505050565b73863e41fe88288ebf3fcd91d8dbb679fb83fdfe1781565b610b8361154d565b610b8b61154d565b60405180604001604052808573ffffffffffffffffffffffffffffffffffffffff1681526020018481525090508091505092915050565b7364a436ae831c1672ae81f674cab8b6775df3475c81565b610be261157d565b6060600260009054906101000a900473ffffffffffffffffffffffffffffffffffffffff1673ffffffffffffffffffffffffffffffffffffffff16636a8194e7610c2c8686610b7b565b6040518263ffffffff1660e01b8152600401610c489190611e84565b60006040518083038186803b158015610c6057600080fd5b505afa158015610c74573d6000803e3d6000fd5b505050506040513d6000823e3d601f19601f82011682018060405250610c9d9190810190611919565b90915050809150508060055481518110610cb357fe5b602002602001015191505092915050565b610cf2336000357fffffffff00000000000000000000000000000000000000000000000000000000166112bd565b610cfb57600080fd5b806000806101000a81548173ffffffffffffffffffffffffffffffffffffffff021916908373ffffffffffffffffffffffffffffffffffffffff1602179055506000809054906101000a900473ffffffffffffffffffffffffffffffffffffffff1673ffffffffffffffffffffffffffffffffffffffff167f1abebea81bfa2637f28358c371278fb15ede7ea8dd28d2e03b112ff6d936ada460405160405180910390a250565b73aaf64bfcc32d0f15873a02163e7e500671a4ffcd81565b73c72e74e474682680a414b506699bbca44ab9a93081565b600160009054906101000a900473ffffffffffffffffffffffffffffffffffffffff1681565b7332d0e18f988f952eb3524ace762042381a2c39e581565b73c4375b7de8af5a38a93548eb8453a498222c4ff281565b600460009054906101000a900473ffffffffffffffffffffffffffffffffffffffff1681565b735595930d576aedf13945c83ce5aad827529a131081565b6000809054906101000a900473ffffffffffffffffffffffffffffffffffffffff1681565b7325a01a05c188dacbcf1d61af55d4a5b4021f7eed81565b73f5d915570bc477f9b8d6c0e980aa81757a3aac3681565b73f4d791139ce033ad35db2b2201435fad668b1b6481565b73692f391bcc85cefce8c237c01e1f636bbd70ea4d81565b7354b44c6b18fc0b4a1010b21d524c338d1f8065f681565b734ec3570cadaaee08ae384779b0f3a45ef85289de81565b735595930d576aedf13945c83ce5aad827529a131081565b610f3b6115ab565b6060600260009054906101000a900473ffffffffffffffffffffffffffffffffffffffff1673ffffffffffffffffffffffffffffffffffffffff16636a8194e7610f858686610b7b565b6040518263ffffffff1660e01b8152600401610fa19190611e84565b60006040518083038186803b158015610fb957600080fd5b505afa158015610fcd573d6000803e3d6000fd5b505050506040513d6000823e3d601f19601f82011682018060405250610ff69190810190611919565b909150905080915050806005548151811061100d57fe5b602002602001015191505092915050565b73a71937147b55deb8a530c7229c442fd3f31b7db281565b600460009054906101000a900473ffffffffffffffffffffffffffffffffffffffff1673ffffffffffffffffffffffffffffffffffffffff163373ffffffffffffffffffffffffffffffffffffffff161461109057600080fd5b606060016040519080825280602002602001820160405280156110cd57816020015b6110ba611471565b8152602001906001900390816110b25790505b5090506110db836000610b7b565b816000815181106110e857fe5b60200260200101819052506060600160405190808252806020026020018201604052801561113057816020015b61111d6114a1565b8152602001906001900390816111155790505b50905061113b61150d565b60405180608001604052806000151581526020016000600181111561115c57fe5b81526020016000600181111561116e57fe5b81526020018581525090506040518061010001604052806001600881111561119257fe5b8152602001600081526020018281526020016005548152602001600081526020018673ffffffffffffffffffffffffffffffffffffffff1681526020016000815260200160405180602001604052806000815250815250826000815181106111f657fe5b6020026020010181905250600260009054906101000a900473ffffffffffffffffffffffffffffffffffffffff1673ffffffffffffffffffffffffffffffffffffffff1663a67a6a4584846040518363ffffffff1660e01b815260040161125e929190611dfc565b600060405180830381600087803b15801561127857600080fd5b505af115801561128c573d6000803e3d6000fd5b505050505050505050565b600360009054906101000a900473ffffffffffffffffffffffffffffffffffffffff1681565b60003073ffffffffffffffffffffffffffffffffffffffff168373ffffffffffffffffffffffffffffffffffffffff1614156112fc576001905061146b565b600160009054906101000a900473ffffffffffffffffffffffffffffffffffffffff1673ffffffffffffffffffffffffffffffffffffffff168373ffffffffffffffffffffffffffffffffffffffff16141561135b576001905061146b565b600073ffffffffffffffffffffffffffffffffffffffff166000809054906101000a900473ffffffffffffffffffffffffffffffffffffffff1673ffffffffffffffffffffffffffffffffffffffff1614156113ba576000905061146b565b6000809054906101000a900473ffffffffffffffffffffffffffffffffffffffff1673ffffffffffffffffffffffffffffffffffffffff1663b70096138430856040518463ffffffff1660e01b815260040161141893929190611dc5565b60206040518083038186803b15801561143057600080fd5b505afa158015611444573d6000803e3d6000fd5b505050506040513d601f19601f8201168201806040525061146891908101906119b0565b90505b92915050565b6040518060400160405280600073ffffffffffffffffffffffffffffffffffffffff168152602001600081525090565b604051806101600160405280600060088111156114ba57fe5b8152602001600081526020016114ce6115c7565b81526020016000815260200160008152602001600073ffffffffffffffffffffffffffffffffffffffff16815260200160008152602001606081525090565b60405180608001604052806000151581526020016000600181111561152e57fe5b81526020016000600181111561154057fe5b8152602001600081525090565b6040518060400160405280600073ffffffffffffffffffffffffffffffffffffffff168152602001600081525090565b604051806040016040528060001515815260200160006fffffffffffffffffffffffffffffffff1681525090565b6040518060400160405280600015158152602001600081525090565b6040518060800160405280600015158152602001600060018111156115e857fe5b8152602001600060018111156115fa57fe5b8152602001600081525090565b600061161382356120ce565b905092915050565b600061162782516120ce565b905092915050565b600082601f83011261164057600080fd5b815161165361164e82611f02565b611ed5565b9150818183526020840193506020810190508385602084028201111561167857600080fd5b60005b838110156116a8578161168e888261161b565b84526020840193506020830192505060018101905061167b565b5050505092915050565b600082601f8301126116c357600080fd5b81516116d66116d182611f2a565b611ed5565b915081818352602084019350602081019050838560408402820111156116fb57600080fd5b60005b8381101561172b578161171188826117e0565b8452602084019350604083019250506001810190506116fe565b5050505092915050565b600082601f83011261174657600080fd5b815161175961175482611f52565b611ed5565b9150818183526020840193506020810190508385604084028201111561177e57600080fd5b60005b838110156117ae5781611794888261182c565b845260208401935060408301925050600181019050611781565b5050505092915050565b60006117c482516120e0565b905092915050565b60006117d882356120ec565b905092915050565b6000604082840312156117f257600080fd5b6117fc6040611ed5565b9050600061180c848285016117b8565b600083015250602061182084828501611878565b60208301525092915050565b60006040828403121561183e57600080fd5b6118486040611ed5565b90506000611858848285016117b8565b600083015250602061186c848285016118a0565b60208301525092915050565b600061188482516120fe565b905092915050565b6000611898823561213a565b905092915050565b60006118ac825161213a565b905092915050565b6000602082840312156118c657600080fd5b60006118d484828501611607565b91505092915050565b600080604083850312156118f057600080fd5b60006118fe85828601611607565b925050602061190f8582860161188c565b9150509250929050565b60008060006060848603121561192e57600080fd5b600084015167ffffffffffffffff81111561194857600080fd5b6119548682870161162f565b935050602084015167ffffffffffffffff81111561197157600080fd5b61197d868287016116b2565b925050604084015167ffffffffffffffff81111561199a57600080fd5b6119a686828701611735565b9150509250925092565b6000602082840312156119c257600080fd5b60006119d0848285016117b8565b91505092915050565b6000602082840312156119eb57600080fd5b60006119f9848285016117cc565b91505092915050565b6000611a0e8383611bc8565b905092915050565b6000611a228383611cff565b60408301905092915050565b611a3781612002565b82525050565b611a4681612002565b82525050565b6000611a5782611f94565b611a618185611fcf565b935083602082028501611a7385611f7a565b60005b84811015611aac578383038852611a8e838351611a02565b9250611a9982611fb5565b9150602088019750600181019050611a76565b508196508694505050505092915050565b6000611ac882611f9f565b611ad28185611fe0565b9350611add83611f87565b60005b82811015611b0b57611af3868351611a16565b9550611afe82611fc2565b9150600181019050611ae0565b50849250505092915050565b611b2081612014565b82525050565b611b2f81612020565b82525050565b6000611b4082611faa565b611b4a8185611ff1565b9350611b5a8185602086016121e6565b611b6381612219565b840191505092915050565b611b7781612144565b82525050565b611b8681612168565b82525050565b611b958161218c565b82525050565b611ba4816121b0565b82525050565b611bb3816121c2565b82525050565b611bc2816121d4565b82525050565b600061016083016000830151611be16000860182611b9b565b506020830151611bf46020860182611d9b565b506040830151611c076040860182611c7b565b506060830151611c1a60c0860182611d9b565b506080830151611c2d60e0860182611d9b565b5060a0830151611c41610100860182611a2e565b5060c0830151611c55610120860182611d9b565b5060e0830151848203610140860152611c6e8282611b35565b9150508091505092915050565b608082016000820151611c916000850182611b17565b506020820151611ca46020850182611baa565b506040820151611cb76040850182611bb9565b506060820151611cca6060850182611d9b565b50505050565b604082016000820151611ce66000850182611a2e565b506020820151611cf96020850182611d9b565b50505050565b604082016000820151611d156000850182611a2e565b506020820151611d286020850182611d9b565b50505050565b604082016000820151611d446000850182611b17565b506020820151611d576020850182611d8c565b50505050565b604082016000820151611d736000850182611b17565b506020820151611d866020850182611d9b565b50505050565b611d9581612088565b82525050565b611da4816120c4565b82525050565b6000602082019050611dbf6000830184611a3d565b92915050565b6000606082019050611dda6000830186611a3d565b611de76020830185611a3d565b611df46040830184611b26565b949350505050565b60006040820190508181036000830152611e168185611abd565b90508181036020830152611e2a8184611a4c565b90509392505050565b6000602082019050611e486000830184611b6e565b92915050565b6000602082019050611e636000830184611b7d565b92915050565b6000602082019050611e7e6000830184611b8c565b92915050565b6000604082019050611e996000830184611cd0565b92915050565b6000604082019050611eb46000830184611d2e565b92915050565b6000604082019050611ecf6000830184611d5d565b92915050565b6000604051905081810181811067ffffffffffffffff82111715611ef857600080fd5b8060405250919050565b600067ffffffffffffffff821115611f1957600080fd5b602082029050602081019050919050565b600067ffffffffffffffff821115611f4157600080fd5b602082029050602081019050919050565b600067ffffffffffffffff821115611f6957600080fd5b602082029050602081019050919050565b6000602082019050919050565b6000602082019050919050565b600081519050919050565b600081519050919050565b600081519050919050565b6000602082019050919050565b6000602082019050919050565b600082825260208201905092915050565b600082825260208201905092915050565b600082825260208201905092915050565b600061200d826120a4565b9050919050565b60008115159050919050565b60007fffffffff0000000000000000000000000000000000000000000000000000000082169050919050565b60006009821061205857fe5b819050919050565b60006002821061206c57fe5b819050919050565b60006002821061208057fe5b819050919050565b60006fffffffffffffffffffffffffffffffff82169050919050565b600073ffffffffffffffffffffffffffffffffffffffff82169050919050565b6000819050919050565b60006120d98261211a565b9050919050565b60008115159050919050565b60006120f7826120ce565b9050919050565b60006fffffffffffffffffffffffffffffffff82169050919050565b600073ffffffffffffffffffffffffffffffffffffffff82169050919050565b6000819050919050565b600061214f82612156565b9050919050565b6000612161826120a4565b9050919050565b60006121738261217a565b9050919050565b6000612185826120a4565b9050919050565b60006121978261219e565b9050919050565b60006121a9826120a4565b9050919050565b60006121bb8261204c565b9050919050565b60006121cd82612060565b9050919050565b60006121df82612074565b9050919050565b60005b838110156122045780820151818401526020810190506121e9565b83811115612213576000848401525b50505050565b6000601f19601f830116905091905056fea265627a7a72305820ca801f3a02500dffec28ac1c6a6fbc785f68a8dc8632dd279d2f86e01a445df46c6578706572696d656e74616cf50037",
  "source": "pragma solidity ^0.5.0;\npragma experimental ABIEncoderV2;\n\nimport \"../ProtocolInterface.sol\";\nimport \"./ISoloMargin.sol\";\nimport \"../../interfaces/ERC20.sol\";\nimport \"../../constants/ConstantAddresses.sol\";\nimport \"../../DS/DSAuth.sol\";\n\ncontract DydxSavingsProtocol is ProtocolInterface, ConstantAddresses, DSAuth {\n\n\n    ISoloMargin public soloMargin;\n    ERC20 public dai;\n    address public savingsProxy;\n\n    uint daiMarketId = 1;\n\n    constructor() public {\n        soloMargin = ISoloMargin(SOLO_MARGIN_ADDRESS);\n        dai = ERC20(MAKER_DAI_ADDRESS);\n    }\n\n    function addSavingsProxy(address _savingsProxy) public auth {\n        savingsProxy = _savingsProxy;\n    }\n\n    function deposit(address _user, uint _amount) public {\n        require(msg.sender == savingsProxy);\n\n        Account.Info[] memory accounts = new Account.Info[](1);\n        accounts[0] = getAccount(_user, 0);\n\n        Actions.ActionArgs[] memory actions = new Actions.ActionArgs[](1);\n        Types.AssetAmount memory amount = Types.AssetAmount({\n            sign: true,\n            denomination: Types.AssetDenomination.Wei,\n            ref: Types.AssetReference.Delta,\n            value: _amount\n        });\n\n        actions[0] = Actions.ActionArgs({\n            actionType: Actions.ActionType.Deposit,\n            accountId: 0,\n            amount: amount,\n            primaryMarketId: daiMarketId,\n            otherAddress: _user,\n            secondaryMarketId: 0, //not used\n            otherAccountId: 0, //not used\n            data: \"\" //not used\n        });\n\n        soloMargin.operate(accounts, actions);\n    }\n\n    function withdraw(address _user, uint _amount) public {\n        require(msg.sender == savingsProxy);\n\n        Account.Info[] memory accounts = new Account.Info[](1);\n        accounts[0] = getAccount(_user, 0);\n\n        Actions.ActionArgs[] memory actions = new Actions.ActionArgs[](1);\n        Types.AssetAmount memory amount = Types.AssetAmount({\n            sign: false,\n            denomination: Types.AssetDenomination.Wei,\n            ref: Types.AssetReference.Delta,\n            value: _amount\n        });\n\n        actions[0] = Actions.ActionArgs({\n            actionType: Actions.ActionType.Withdraw,\n            accountId: 0,\n            amount: amount,\n            primaryMarketId: daiMarketId,\n            otherAddress: _user,\n            secondaryMarketId: 0, //not used\n            otherAccountId: 0, //not used\n            data: \"\" //not used\n        });\n\n        soloMargin.operate(accounts, actions);\n    }\n\n    function getWeiBalance(address _user, uint _index) public view returns(Types.Wei memory) {\n\n        Types.Wei[] memory weiBalances;\n        (,,weiBalances) = soloMargin.getAccountBalances(getAccount(_user, _index));\n\n        return weiBalances[daiMarketId];\n    }\n\n    function getParBalance(address _user, uint _index) public view returns(Types.Par memory) {\n        Types.Par[] memory parBalances;\n        (,parBalances,) = soloMargin.getAccountBalances(getAccount(_user, _index));\n\n        return parBalances[daiMarketId];\n    }\n\n    function getAccount(address _user, uint _index) public view returns(Account.Info memory) {\n        Account.Info memory account = Account.Info({\n            owner: _user,\n            number: _index\n        });\n\n        return account;\n    }\n}\n",
  "sourcePath": "/Users/nikolaklipa/Decenter/defisaver/cdpsaver-contracts/contracts/savings/dydx/DydxSavingsProtocol.sol",
  "compiler": {
    "name": "solc",
    "version": "0.5.7+commit.6da8b019.Emscripten.clang"
  },
  "schemaVersion": "3.0.9",
  "updatedAt": "2019-08-12T15:19:05.799Z",
  "devdoc": {
    "methods": {}
  },
  "userdoc": {
    "methods": {}
  }
}