{
  "contractName": "DydxSavingsProtocol",
  "abi": [
    {
      "constant": true,
      "inputs": [],
      "name": "WETH_ADDRESS",
      "outputs": [
        {
          "name": "",
          "type": "address"
        }
      ],
      "payable": false,
      "stateMutability": "view",
      "type": "function"
    },
    {
      "constant": true,
      "inputs": [],
      "name": "CDAI_ADDRESS",
      "outputs": [
        {
          "name": "",
          "type": "address"
        }
      ],
      "payable": false,
      "stateMutability": "view",
      "type": "function"
    },
    {
      "constant": true,
      "inputs": [],
      "name": "soloMargin",
      "outputs": [
        {
          "name": "",
          "type": "address"
        }
      ],
      "payable": false,
      "stateMutability": "view",
      "type": "function"
    },
    {
      "constant": false,
      "inputs": [
        {
          "name": "owner_",
          "type": "address"
        }
      ],
      "name": "setOwner",
      "outputs": [],
      "payable": false,
      "stateMutability": "nonpayable",
      "type": "function"
    },
    {
      "constant": true,
      "inputs": [],
      "name": "PIP_INTERFACE_ADDRESS",
      "outputs": [
        {
          "name": "",
          "type": "address"
        }
      ],
      "payable": false,
      "stateMutability": "view",
      "type": "function"
    },
    {
      "constant": true,
      "inputs": [],
      "name": "KYBER_ETH_ADDRESS",
      "outputs": [
        {
          "name": "",
          "type": "address"
        }
      ],
      "payable": false,
      "stateMutability": "view",
      "type": "function"
    },
    {
      "constant": true,
      "inputs": [],
      "name": "OTC_ADDRESS",
      "outputs": [
        {
          "name": "",
          "type": "address"
        }
      ],
      "payable": false,
      "stateMutability": "view",
      "type": "function"
    },
    {
      "constant": true,
      "inputs": [],
      "name": "IDAI_ADDRESS",
      "outputs": [
        {
          "name": "",
          "type": "address"
        }
      ],
      "payable": false,
      "stateMutability": "view",
      "type": "function"
    },
    {
      "constant": true,
      "inputs": [],
      "name": "GAS_TOKEN_INTERFACE_ADDRESS",
      "outputs": [
        {
          "name": "",
          "type": "address"
        }
      ],
      "payable": false,
      "stateMutability": "view",
      "type": "function"
    },
    {
      "constant": true,
      "inputs": [],
      "name": "VOX_ADDRESS",
      "outputs": [
        {
          "name": "",
          "type": "address"
        }
      ],
      "payable": false,
      "stateMutability": "view",
      "type": "function"
    },
    {
      "constant": true,
      "inputs": [],
      "name": "ETH2DAI_WRAPPER",
      "outputs": [
        {
          "name": "",
          "type": "address"
        }
      ],
      "payable": false,
      "stateMutability": "view",
      "type": "function"
    },
    {
      "constant": true,
      "inputs": [],
      "name": "STUPID_EXCHANGE",
      "outputs": [
        {
          "name": "",
          "type": "address"
        }
      ],
      "payable": false,
      "stateMutability": "view",
      "type": "function"
    },
    {
      "constant": true,
      "inputs": [],
      "name": "PROXY_REGISTRY_INTERFACE_ADDRESS",
      "outputs": [
        {
          "name": "",
          "type": "address"
        }
      ],
      "payable": false,
      "stateMutability": "view",
      "type": "function"
    },
    {
      "constant": false,
      "inputs": [
        {
          "name": "authority_",
          "type": "address"
        }
      ],
      "name": "setAuthority",
      "outputs": [],
      "payable": false,
      "stateMutability": "nonpayable",
      "type": "function"
    },
    {
      "constant": true,
      "inputs": [],
      "name": "MKR_ADDRESS",
      "outputs": [
        {
          "name": "",
          "type": "address"
        }
      ],
      "payable": false,
      "stateMutability": "view",
      "type": "function"
    },
    {
      "constant": true,
      "inputs": [],
      "name": "FACTORY_ADDRESS",
      "outputs": [
        {
          "name": "",
          "type": "address"
        }
      ],
      "payable": false,
      "stateMutability": "view",
      "type": "function"
    },
    {
      "constant": true,
      "inputs": [],
      "name": "owner",
      "outputs": [
        {
          "name": "",
          "type": "address"
        }
      ],
      "payable": false,
      "stateMutability": "view",
      "type": "function"
    },
    {
      "constant": true,
      "inputs": [],
      "name": "LOGGER_ADDRESS",
      "outputs": [
        {
          "name": "",
          "type": "address"
        }
      ],
      "payable": false,
      "stateMutability": "view",
      "type": "function"
    },
    {
      "constant": true,
      "inputs": [],
      "name": "MAKER_DAI_ADDRESS",
      "outputs": [
        {
          "name": "",
          "type": "address"
        }
      ],
      "payable": false,
      "stateMutability": "view",
      "type": "function"
    },
    {
      "constant": true,
      "inputs": [],
      "name": "savingsProxy",
      "outputs": [
        {
          "name": "",
          "type": "address"
        }
      ],
      "payable": false,
      "stateMutability": "view",
      "type": "function"
    },
    {
      "constant": true,
      "inputs": [],
      "name": "KYBER_WRAPPER",
      "outputs": [
        {
          "name": "",
          "type": "address"
        }
      ],
      "payable": false,
      "stateMutability": "view",
      "type": "function"
    },
    {
      "constant": true,
      "inputs": [],
      "name": "authority",
      "outputs": [
        {
          "name": "",
          "type": "address"
        }
      ],
      "payable": false,
      "stateMutability": "view",
      "type": "function"
    },
    {
      "constant": true,
      "inputs": [],
      "name": "COMPOUND_DAI_ADDRESS",
      "outputs": [
        {
          "name": "",
          "type": "address"
        }
      ],
      "payable": false,
      "stateMutability": "view",
      "type": "function"
    },
    {
      "constant": true,
      "inputs": [],
      "name": "UNISWAP_FACTORY",
      "outputs": [
        {
          "name": "",
          "type": "address"
        }
      ],
      "payable": false,
      "stateMutability": "view",
      "type": "function"
    },
    {
      "constant": true,
      "inputs": [],
      "name": "PETH_ADDRESS",
      "outputs": [
        {
          "name": "",
          "type": "address"
        }
      ],
      "payable": false,
      "stateMutability": "view",
      "type": "function"
    },
    {
      "constant": true,
      "inputs": [],
      "name": "KYBER_INTERFACE",
      "outputs": [
        {
          "name": "",
          "type": "address"
        }
      ],
      "payable": false,
      "stateMutability": "view",
      "type": "function"
    },
    {
      "constant": true,
      "inputs": [],
      "name": "WALLET_ID",
      "outputs": [
        {
          "name": "",
          "type": "address"
        }
      ],
      "payable": false,
      "stateMutability": "view",
      "type": "function"
    },
    {
      "constant": true,
      "inputs": [],
      "name": "SOLO_MARGIN_ADDRESS",
      "outputs": [
        {
          "name": "",
          "type": "address"
        }
      ],
      "payable": false,
      "stateMutability": "view",
      "type": "function"
    },
    {
      "constant": true,
      "inputs": [],
      "name": "UNISWAP_WRAPPER",
      "outputs": [
        {
          "name": "",
          "type": "address"
        }
      ],
      "payable": false,
      "stateMutability": "view",
      "type": "function"
    },
    {
      "constant": true,
      "inputs": [],
      "name": "TUB_ADDRESS",
      "outputs": [
        {
          "name": "",
          "type": "address"
        }
      ],
      "payable": false,
      "stateMutability": "view",
      "type": "function"
    },
    {
      "constant": true,
      "inputs": [],
      "name": "dai",
      "outputs": [
        {
          "name": "",
          "type": "address"
        }
      ],
      "payable": false,
      "stateMutability": "view",
      "type": "function"
    },
    {
      "inputs": [],
      "payable": false,
      "stateMutability": "nonpayable",
      "type": "constructor"
    },
    {
      "anonymous": false,
      "inputs": [
        {
          "indexed": true,
          "name": "authority",
          "type": "address"
        }
      ],
      "name": "LogSetAuthority",
      "type": "event"
    },
    {
      "anonymous": false,
      "inputs": [
        {
          "indexed": true,
          "name": "owner",
          "type": "address"
        }
      ],
      "name": "LogSetOwner",
      "type": "event"
    },
    {
      "constant": false,
      "inputs": [
        {
          "name": "_savingsProxy",
          "type": "address"
        }
      ],
      "name": "addSavingsProxy",
      "outputs": [],
      "payable": false,
      "stateMutability": "nonpayable",
      "type": "function"
    },
    {
      "constant": false,
      "inputs": [
        {
          "name": "_user",
          "type": "address"
        },
        {
          "name": "_amount",
          "type": "uint256"
        }
      ],
      "name": "deposit",
      "outputs": [],
      "payable": false,
      "stateMutability": "nonpayable",
      "type": "function"
    },
    {
      "constant": false,
      "inputs": [
        {
          "name": "_user",
          "type": "address"
        },
        {
          "name": "_amount",
          "type": "uint256"
        }
      ],
      "name": "withdraw",
      "outputs": [],
      "payable": false,
      "stateMutability": "nonpayable",
      "type": "function"
    },
    {
      "constant": true,
      "inputs": [
        {
          "name": "_user",
          "type": "address"
        },
        {
          "name": "_index",
          "type": "uint256"
        }
      ],
      "name": "getWeiBalance",
      "outputs": [
        {
          "components": [
            {
              "name": "sign",
              "type": "bool"
            },
            {
              "name": "value",
              "type": "uint256"
            }
          ],
          "name": "",
          "type": "tuple"
        }
      ],
      "payable": false,
      "stateMutability": "view",
      "type": "function"
    },
    {
      "constant": true,
      "inputs": [
        {
          "name": "_user",
          "type": "address"
        },
        {
          "name": "_index",
          "type": "uint256"
        }
      ],
      "name": "getParBalance",
      "outputs": [
        {
          "components": [
            {
              "name": "sign",
              "type": "bool"
            },
            {
              "name": "value",
              "type": "uint128"
            }
          ],
          "name": "",
          "type": "tuple"
        }
      ],
      "payable": false,
      "stateMutability": "view",
      "type": "function"
    },
    {
      "constant": true,
      "inputs": [
        {
          "name": "_user",
          "type": "address"
        },
        {
          "name": "_index",
          "type": "uint256"
        }
      ],
      "name": "getAccount",
      "outputs": [
        {
          "components": [
            {
              "name": "owner",
              "type": "address"
            },
            {
              "name": "number",
              "type": "uint256"
            }
          ],
          "name": "",
          "type": "tuple"
        }
      ],
      "payable": false,
      "stateMutability": "view",
      "type": "function"
    }
  ],
  "bytecode": "0x6080604052600160055534801561001557600080fd5b5033600160006101000a81548173ffffffffffffffffffffffffffffffffffffffff021916908373ffffffffffffffffffffffffffffffffffffffff1602179055503373ffffffffffffffffffffffffffffffffffffffff167fce241d7ca1f669fee44b6fc00b8eba2df3bb514eed0f6f668f8f89096e81ed9460405160405180910390a2734ec3570cadaaee08ae384779b0f3a45ef85289de600260006101000a81548173ffffffffffffffffffffffffffffffffffffffff021916908373ffffffffffffffffffffffffffffffffffffffff16021790555073c4375b7de8af5a38a93548eb8453a498222c4ff2600360006101000a81548173ffffffffffffffffffffffffffffffffffffffff021916908373ffffffffffffffffffffffffffffffffffffffff160217905550612220806101536000396000f3fe608060405234801561001057600080fd5b50600436106102275760003560e01c8063825ffd9211610130578063c74c0fac116100b8578063ddaa293c1161007c578063ddaa293c14610608578063eef1bbda14610626578063f0d405e514610656578063f3fef3a314610674578063f4b9fa751461069057610227565b8063c74c0fac14610572578063c9fde27014610590578063ce9bde1d146105ae578063d3661fa5146105cc578063d36b907d146105ea57610227565b80639da779e9116100ff5780639da779e9146104dc578063a683668c146104fa578063b175afa114610518578063bf7e214f14610536578063c16921b71461055457610227565b8063825ffd92146104645780638823151b146104825780638da5cb5b146104a057806394bfbe74146104be57610227565b806332ac5cd2116101b3578063502237d711610182578063502237d7146103ac578063670079eb146103ca578063728c0092146103fa5780637800a0f6146104185780637a9e5e4b1461044857610227565b806332ac5cd21461033657806336e6da111461035457806343fb75e81461037257806347e7ef241461039057610227565b806313af4035116101fa57806313af4035146102a25780631dab52b0146102be57806329f7fc9e146102dc5780632a441f05146102fa5780632d5eeb3f1461031857610227565b8063040141e51461022c5780630531b2ad1461024a5780630b6cd37e14610268578063134f6d3a14610284575b600080fd5b6102346106ae565b6040516102419190611d66565b60405180910390f35b6102526106c6565b60405161025f9190611d66565b60405180910390f35b610282600480360361027d9190810190611870565b6106de565b005b61028c610759565b6040516102999190611e25565b60405180910390f35b6102bc60048036036102b79190810190611870565b61077f565b005b6102c661085f565b6040516102d39190611d66565b60405180910390f35b6102e4610877565b6040516102f19190611d66565b60405180910390f35b61030261088f565b60405161030f9190611d66565b60405180910390f35b6103206108a7565b60405161032d9190611d66565b60405180910390f35b61033e6108bf565b60405161034b9190611d66565b60405180910390f35b61035c6108d2565b6040516103699190611d66565b60405180910390f35b61037a6108ea565b6040516103879190611d66565b60405180910390f35b6103aa60048036036103a59190810190611899565b610902565b005b6103b4610b41565b6040516103c19190611d66565b60405180910390f35b6103e460048036036103df9190810190611899565b610b59565b6040516103f19190611e40565b60405180910390f35b610402610ba0565b60405161040f9190611d66565b60405180910390f35b610432600480360361042d9190810190611899565b610bb8565b60405161043f9190611e5b565b60405180910390f35b610462600480360361045d9190810190611995565b610ca2565b005b61046c610d80565b6040516104799190611d66565b60405180910390f35b61048a610d98565b6040516104979190611d66565b60405180910390f35b6104a8610db0565b6040516104b59190611d66565b60405180910390f35b6104c6610dd6565b6040516104d39190611d66565b60405180910390f35b6104e4610dee565b6040516104f19190611d66565b60405180910390f35b610502610e06565b60405161050f9190611d66565b60405180910390f35b610520610e2c565b60405161052d9190611d66565b60405180910390f35b61053e610e44565b60405161054b9190611def565b60405180910390f35b61055c610e69565b6040516105699190611d66565b60405180910390f35b61057a610e81565b6040516105879190611d66565b60405180910390f35b610598610e99565b6040516105a59190611d66565b60405180910390f35b6105b6610eb1565b6040516105c39190611d66565b60405180910390f35b6105d4610ec9565b6040516105e19190611d66565b60405180910390f35b6105f2610ee1565b6040516105ff9190611d66565b60405180910390f35b610610610ef9565b60405161061d9190611d66565b60405180910390f35b610640600480360361063b9190810190611899565b610f11565b60405161064d9190611e76565b60405180910390f35b61065e610ffc565b60405161066b9190611d66565b60405180910390f35b61068e60048036036106899190810190611899565b611014565b005b610698611253565b6040516106a59190611e0a565b60405180910390f35b73d0a1e359811322d97991e03f863a0c30c2cf029c81565b73b6b09fbffba6a5c4631e5f7b2e3ee183ac259c0d81565b61070c336000357fffffffff0000000000000000000000000000000000000000000000000000000016611279565b61071557600080fd5b80600460006101000a81548173ffffffffffffffffffffffffffffffffffffffff021916908373ffffffffffffffffffffffffffffffffffffffff16021790555050565b600260009054906101000a900473ffffffffffffffffffffffffffffffffffffffff1681565b6107ad336000357fffffffff0000000000000000000000000000000000000000000000000000000016611279565b6107b657600080fd5b80600160006101000a81548173ffffffffffffffffffffffffffffffffffffffff021916908373ffffffffffffffffffffffffffffffffffffffff160217905550600160009054906101000a900473ffffffffffffffffffffffffffffffffffffffff1673ffffffffffffffffffffffffffffffffffffffff167fce241d7ca1f669fee44b6fc00b8eba2df3bb514eed0f6f668f8f89096e81ed9460405160405180910390a250565b73a944bd4b25c9f186a846fd5668941aa3d3b8425f81565b73eeeeeeeeeeeeeeeeeeeeeeeeeeeeeeeeeeeeeeee81565b734a6bc4e803c62081ffebcc8d227b5a87a58f1f8f81565b73a1e58f3b1927743393b25f261471e1f2d3d9f0f681565b6e170ccc93903185be5a2094c870df6281565b73bb4339c0ab5b1d9f14bd6e3426444a1e9d86a1d981565b73823cde416973a19f98bb9c96d97f4fe6c9a7238b81565b8173ffffffffffffffffffffffffffffffffffffffff163373ffffffffffffffffffffffffffffffffffffffff161461093a57600080fd5b6060600160405190808252806020026020018201604052801561097757816020015b61096461142d565b81526020019060019003908161095c5790505b509050610985836000610b59565b8160008151811061099257fe5b6020026020010181905250606060016040519080825280602002602001820160405280156109da57816020015b6109c761145d565b8152602001906001900390816109bf5790505b5090506109e56114c9565b604051806080016040528060011515815260200160006001811115610a0657fe5b815260200160006001811115610a1857fe5b815260200185815250905060405180610100016040528060006008811115610a3c57fe5b8152602001600081526020018281526020016005548152602001600081526020018673ffffffffffffffffffffffffffffffffffffffff168152602001600081526020016040518060200160405280600081525081525082600081518110610aa057fe5b6020026020010181905250600260009054906101000a900473ffffffffffffffffffffffffffffffffffffffff1673ffffffffffffffffffffffffffffffffffffffff1663a67a6a4584846040518363ffffffff1660e01b8152600401610b08929190611db8565b600060405180830381600087803b158015610b2257600080fd5b505af1158015610b36573d6000803e3d6000fd5b505050505050505050565b73863e41fe88288ebf3fcd91d8dbb679fb83fdfe1781565b610b61611509565b610b69611509565b60405180604001604052808573ffffffffffffffffffffffffffffffffffffffff1681526020018481525090508091505092915050565b7364a436ae831c1672ae81f674cab8b6775df3475c81565b610bc0611539565b6060600260009054906101000a900473ffffffffffffffffffffffffffffffffffffffff1673ffffffffffffffffffffffffffffffffffffffff16636a8194e7610c0a8686610b59565b6040518263ffffffff1660e01b8152600401610c269190611e40565b60006040518083038186803b158015610c3e57600080fd5b505afa158015610c52573d6000803e3d6000fd5b505050506040513d6000823e3d601f19601f82011682018060405250610c7b91908101906118d5565b90915050809150508060055481518110610c9157fe5b602002602001015191505092915050565b610cd0336000357fffffffff0000000000000000000000000000000000000000000000000000000016611279565b610cd957600080fd5b806000806101000a81548173ffffffffffffffffffffffffffffffffffffffff021916908373ffffffffffffffffffffffffffffffffffffffff1602179055506000809054906101000a900473ffffffffffffffffffffffffffffffffffffffff1673ffffffffffffffffffffffffffffffffffffffff167f1abebea81bfa2637f28358c371278fb15ede7ea8dd28d2e03b112ff6d936ada460405160405180910390a250565b73aaf64bfcc32d0f15873a02163e7e500671a4ffcd81565b73c72e74e474682680a414b506699bbca44ab9a93081565b600160009054906101000a900473ffffffffffffffffffffffffffffffffffffffff1681565b7332d0e18f988f952eb3524ace762042381a2c39e581565b73c4375b7de8af5a38a93548eb8453a498222c4ff281565b600460009054906101000a900473ffffffffffffffffffffffffffffffffffffffff1681565b735595930d576aedf13945c83ce5aad827529a131081565b6000809054906101000a900473ffffffffffffffffffffffffffffffffffffffff1681565b7325a01a05c188dacbcf1d61af55d4a5b4021f7eed81565b73f5d915570bc477f9b8d6c0e980aa81757a3aac3681565b73f4d791139ce033ad35db2b2201435fad668b1b6481565b73692f391bcc85cefce8c237c01e1f636bbd70ea4d81565b7354b44c6b18fc0b4a1010b21d524c338d1f8065f681565b734ec3570cadaaee08ae384779b0f3a45ef85289de81565b735595930d576aedf13945c83ce5aad827529a131081565b610f19611567565b6060600260009054906101000a900473ffffffffffffffffffffffffffffffffffffffff1673ffffffffffffffffffffffffffffffffffffffff16636a8194e7610f638686610b59565b6040518263ffffffff1660e01b8152600401610f7f9190611e40565b60006040518083038186803b158015610f9757600080fd5b505afa158015610fab573d6000803e3d6000fd5b505050506040513d6000823e3d601f19601f82011682018060405250610fd491908101906118d5565b9091509050809150508060055481518110610feb57fe5b602002602001015191505092915050565b73a71937147b55deb8a530c7229c442fd3f31b7db281565b8173ffffffffffffffffffffffffffffffffffffffff163373ffffffffffffffffffffffffffffffffffffffff161461104c57600080fd5b6060600160405190808252806020026020018201604052801561108957816020015b61107661142d565b81526020019060019003908161106e5790505b509050611097836000610b59565b816000815181106110a457fe5b6020026020010181905250606060016040519080825280602002602001820160405280156110ec57816020015b6110d961145d565b8152602001906001900390816110d15790505b5090506110f76114c9565b60405180608001604052806000151581526020016000600181111561111857fe5b81526020016000600181111561112a57fe5b81526020018581525090506040518061010001604052806001600881111561114e57fe5b8152602001600081526020018281526020016005548152602001600081526020018673ffffffffffffffffffffffffffffffffffffffff1681526020016000815260200160405180602001604052806000815250815250826000815181106111b257fe5b6020026020010181905250600260009054906101000a900473ffffffffffffffffffffffffffffffffffffffff1673ffffffffffffffffffffffffffffffffffffffff1663a67a6a4584846040518363ffffffff1660e01b815260040161121a929190611db8565b600060405180830381600087803b15801561123457600080fd5b505af1158015611248573d6000803e3d6000fd5b505050505050505050565b600360009054906101000a900473ffffffffffffffffffffffffffffffffffffffff1681565b60003073ffffffffffffffffffffffffffffffffffffffff168373ffffffffffffffffffffffffffffffffffffffff1614156112b85760019050611427565b600160009054906101000a900473ffffffffffffffffffffffffffffffffffffffff1673ffffffffffffffffffffffffffffffffffffffff168373ffffffffffffffffffffffffffffffffffffffff1614156113175760019050611427565b600073ffffffffffffffffffffffffffffffffffffffff166000809054906101000a900473ffffffffffffffffffffffffffffffffffffffff1673ffffffffffffffffffffffffffffffffffffffff1614156113765760009050611427565b6000809054906101000a900473ffffffffffffffffffffffffffffffffffffffff1673ffffffffffffffffffffffffffffffffffffffff1663b70096138430856040518463ffffffff1660e01b81526004016113d493929190611d81565b60206040518083038186803b1580156113ec57600080fd5b505afa158015611400573d6000803e3d6000fd5b505050506040513d601f19601f82011682018060405250611424919081019061196c565b90505b92915050565b6040518060400160405280600073ffffffffffffffffffffffffffffffffffffffff168152602001600081525090565b6040518061016001604052806000600881111561147657fe5b81526020016000815260200161148a611583565b81526020016000815260200160008152602001600073ffffffffffffffffffffffffffffffffffffffff16815260200160008152602001606081525090565b6040518060800160405280600015158152602001600060018111156114ea57fe5b8152602001600060018111156114fc57fe5b8152602001600081525090565b6040518060400160405280600073ffffffffffffffffffffffffffffffffffffffff168152602001600081525090565b604051806040016040528060001515815260200160006fffffffffffffffffffffffffffffffff1681525090565b6040518060400160405280600015158152602001600081525090565b6040518060800160405280600015158152602001600060018111156115a457fe5b8152602001600060018111156115b657fe5b8152602001600081525090565b60006115cf823561208a565b905092915050565b60006115e3825161208a565b905092915050565b600082601f8301126115fc57600080fd5b815161160f61160a82611ebe565b611e91565b9150818183526020840193506020810190508385602084028201111561163457600080fd5b60005b83811015611664578161164a88826115d7565b845260208401935060208301925050600181019050611637565b5050505092915050565b600082601f83011261167f57600080fd5b815161169261168d82611ee6565b611e91565b915081818352602084019350602081019050838560408402820111156116b757600080fd5b60005b838110156116e757816116cd888261179c565b8452602084019350604083019250506001810190506116ba565b5050505092915050565b600082601f83011261170257600080fd5b815161171561171082611f0e565b611e91565b9150818183526020840193506020810190508385604084028201111561173a57600080fd5b60005b8381101561176a578161175088826117e8565b84526020840193506040830192505060018101905061173d565b5050505092915050565b6000611780825161209c565b905092915050565b600061179482356120a8565b905092915050565b6000604082840312156117ae57600080fd5b6117b86040611e91565b905060006117c884828501611774565b60008301525060206117dc84828501611834565b60208301525092915050565b6000604082840312156117fa57600080fd5b6118046040611e91565b9050600061181484828501611774565b60008301525060206118288482850161185c565b60208301525092915050565b600061184082516120ba565b905092915050565b600061185482356120f6565b905092915050565b600061186882516120f6565b905092915050565b60006020828403121561188257600080fd5b6000611890848285016115c3565b91505092915050565b600080604083850312156118ac57600080fd5b60006118ba858286016115c3565b92505060206118cb85828601611848565b9150509250929050565b6000806000606084860312156118ea57600080fd5b600084015167ffffffffffffffff81111561190457600080fd5b611910868287016115eb565b935050602084015167ffffffffffffffff81111561192d57600080fd5b6119398682870161166e565b925050604084015167ffffffffffffffff81111561195657600080fd5b611962868287016116f1565b9150509250925092565b60006020828403121561197e57600080fd5b600061198c84828501611774565b91505092915050565b6000602082840312156119a757600080fd5b60006119b584828501611788565b91505092915050565b60006119ca8383611b84565b905092915050565b60006119de8383611cbb565b60408301905092915050565b6119f381611fbe565b82525050565b611a0281611fbe565b82525050565b6000611a1382611f50565b611a1d8185611f8b565b935083602082028501611a2f85611f36565b60005b84811015611a68578383038852611a4a8383516119be565b9250611a5582611f71565b9150602088019750600181019050611a32565b508196508694505050505092915050565b6000611a8482611f5b565b611a8e8185611f9c565b9350611a9983611f43565b60005b82811015611ac757611aaf8683516119d2565b9550611aba82611f7e565b9150600181019050611a9c565b50849250505092915050565b611adc81611fd0565b82525050565b611aeb81611fdc565b82525050565b6000611afc82611f66565b611b068185611fad565b9350611b168185602086016121a2565b611b1f816121d5565b840191505092915050565b611b3381612100565b82525050565b611b4281612124565b82525050565b611b5181612148565b82525050565b611b608161216c565b82525050565b611b6f8161217e565b82525050565b611b7e81612190565b82525050565b600061016083016000830151611b9d6000860182611b57565b506020830151611bb06020860182611d57565b506040830151611bc36040860182611c37565b506060830151611bd660c0860182611d57565b506080830151611be960e0860182611d57565b5060a0830151611bfd6101008601826119ea565b5060c0830151611c11610120860182611d57565b5060e0830151848203610140860152611c2a8282611af1565b9150508091505092915050565b608082016000820151611c4d6000850182611ad3565b506020820151611c606020850182611b66565b506040820151611c736040850182611b75565b506060820151611c866060850182611d57565b50505050565b604082016000820151611ca260008501826119ea565b506020820151611cb56020850182611d57565b50505050565b604082016000820151611cd160008501826119ea565b506020820151611ce46020850182611d57565b50505050565b604082016000820151611d006000850182611ad3565b506020820151611d136020850182611d48565b50505050565b604082016000820151611d2f6000850182611ad3565b506020820151611d426020850182611d57565b50505050565b611d5181612044565b82525050565b611d6081612080565b82525050565b6000602082019050611d7b60008301846119f9565b92915050565b6000606082019050611d9660008301866119f9565b611da360208301856119f9565b611db06040830184611ae2565b949350505050565b60006040820190508181036000830152611dd28185611a79565b90508181036020830152611de68184611a08565b90509392505050565b6000602082019050611e046000830184611b2a565b92915050565b6000602082019050611e1f6000830184611b39565b92915050565b6000602082019050611e3a6000830184611b48565b92915050565b6000604082019050611e556000830184611c8c565b92915050565b6000604082019050611e706000830184611cea565b92915050565b6000604082019050611e8b6000830184611d19565b92915050565b6000604051905081810181811067ffffffffffffffff82111715611eb457600080fd5b8060405250919050565b600067ffffffffffffffff821115611ed557600080fd5b602082029050602081019050919050565b600067ffffffffffffffff821115611efd57600080fd5b602082029050602081019050919050565b600067ffffffffffffffff821115611f2557600080fd5b602082029050602081019050919050565b6000602082019050919050565b6000602082019050919050565b600081519050919050565b600081519050919050565b600081519050919050565b6000602082019050919050565b6000602082019050919050565b600082825260208201905092915050565b600082825260208201905092915050565b600082825260208201905092915050565b6000611fc982612060565b9050919050565b60008115159050919050565b60007fffffffff0000000000000000000000000000000000000000000000000000000082169050919050565b60006009821061201457fe5b819050919050565b60006002821061202857fe5b819050919050565b60006002821061203c57fe5b819050919050565b60006fffffffffffffffffffffffffffffffff82169050919050565b600073ffffffffffffffffffffffffffffffffffffffff82169050919050565b6000819050919050565b6000612095826120d6565b9050919050565b60008115159050919050565b60006120b38261208a565b9050919050565b60006fffffffffffffffffffffffffffffffff82169050919050565b600073ffffffffffffffffffffffffffffffffffffffff82169050919050565b6000819050919050565b600061210b82612112565b9050919050565b600061211d82612060565b9050919050565b600061212f82612136565b9050919050565b600061214182612060565b9050919050565b60006121538261215a565b9050919050565b600061216582612060565b9050919050565b600061217782612008565b9050919050565b60006121898261201c565b9050919050565b600061219b82612030565b9050919050565b60005b838110156121c05780820151818401526020810190506121a5565b838111156121cf576000848401525b50505050565b6000601f19601f830116905091905056fea265627a7a723058202d8ff17fa721769f60f574183e2fe8273bd529afe0f1f1a9b08eb924bde163cb6c6578706572696d656e74616cf50037",
  "source": "pragma solidity ^0.5.0;\npragma experimental ABIEncoderV2;\n\nimport \"../ProtocolInterface.sol\";\nimport \"./ISoloMargin.sol\";\nimport \"../../interfaces/ERC20.sol\";\nimport \"../../constants/ConstantAddresses.sol\";\nimport \"../../DS/DSAuth.sol\";\n\ncontract DydxSavingsProtocol is ProtocolInterface, ConstantAddresses, DSAuth {\n\n\n    ISoloMargin public soloMargin;\n    ERC20 public dai;\n    address public savingsProxy;\n\n    uint daiMarketId = 1;\n\n    constructor() public {\n        soloMargin = ISoloMargin(SOLO_MARGIN_ADDRESS);\n        dai = ERC20(MAKER_DAI_ADDRESS);\n    }\n\n    function addSavingsProxy(address _savingsProxy) public auth {\n        savingsProxy = _savingsProxy;\n    }\n\n    function deposit(address _user, uint _amount) public {\n        require(msg.sender == _user);\n\n        Account.Info[] memory accounts = new Account.Info[](1);\n        accounts[0] = getAccount(_user, 0);\n\n        Actions.ActionArgs[] memory actions = new Actions.ActionArgs[](1);\n        Types.AssetAmount memory amount = Types.AssetAmount({\n            sign: true,\n            denomination: Types.AssetDenomination.Wei,\n            ref: Types.AssetReference.Delta,\n            value: _amount\n        });\n\n        actions[0] = Actions.ActionArgs({\n            actionType: Actions.ActionType.Deposit,\n            accountId: 0,\n            amount: amount,\n            primaryMarketId: daiMarketId,\n            otherAddress: _user,\n            secondaryMarketId: 0, //not used\n            otherAccountId: 0, //not used\n            data: \"\" //not used\n        });\n\n        soloMargin.operate(accounts, actions);\n    }\n\n    function withdraw(address _user, uint _amount) public {\n        require(msg.sender == _user);\n\n        Account.Info[] memory accounts = new Account.Info[](1);\n        accounts[0] = getAccount(_user, 0);\n\n        Actions.ActionArgs[] memory actions = new Actions.ActionArgs[](1);\n        Types.AssetAmount memory amount = Types.AssetAmount({\n            sign: false,\n            denomination: Types.AssetDenomination.Wei,\n            ref: Types.AssetReference.Delta,\n            value: _amount\n        });\n\n        actions[0] = Actions.ActionArgs({\n            actionType: Actions.ActionType.Withdraw,\n            accountId: 0,\n            amount: amount,\n            primaryMarketId: daiMarketId,\n            otherAddress: _user,\n            secondaryMarketId: 0, //not used\n            otherAccountId: 0, //not used\n            data: \"\" //not used\n        });\n\n        soloMargin.operate(accounts, actions);\n    }\n\n    function getWeiBalance(address _user, uint _index) public view returns(Types.Wei memory) {\n\n        Types.Wei[] memory weiBalances;\n        (,,weiBalances) = soloMargin.getAccountBalances(getAccount(_user, _index));\n\n        return weiBalances[daiMarketId];\n    }\n\n    function getParBalance(address _user, uint _index) public view returns(Types.Par memory) {\n        Types.Par[] memory parBalances;\n        (,parBalances,) = soloMargin.getAccountBalances(getAccount(_user, _index));\n\n        return parBalances[daiMarketId];\n    }\n\n    function getAccount(address _user, uint _index) public view returns(Account.Info memory) {\n        Account.Info memory account = Account.Info({\n            owner: _user,\n            number: _index\n        });\n\n        return account;\n    }\n}\n",
  "sourcePath": "/Users/nikolaklipa/Decenter/defisaver/cdpsaver-contracts/contracts/savings/dydx/DydxSavingsProtocol.sol",
  "compiler": {
    "name": "solc",
    "version": "0.5.7+commit.6da8b019.Emscripten.clang"
  },
  "schemaVersion": "3.0.9",
  "updatedAt": "2019-08-13T12:41:32.816Z",
  "devdoc": {
    "methods": {}
  },
  "userdoc": {
    "methods": {}
  }
}