{
  "contractName": "DydxSavingsProtocol",
  "abi": [
    {
      "constant": true,
      "inputs": [],
      "name": "WETH_ADDRESS",
      "outputs": [
        {
          "name": "",
          "type": "address"
        }
      ],
      "payable": false,
      "stateMutability": "view",
      "type": "function"
    },
    {
      "constant": true,
      "inputs": [],
      "name": "CDAI_ADDRESS",
      "outputs": [
        {
          "name": "",
          "type": "address"
        }
      ],
      "payable": false,
      "stateMutability": "view",
      "type": "function"
    },
    {
      "constant": true,
      "inputs": [],
      "name": "soloMargin",
      "outputs": [
        {
          "name": "",
          "type": "address"
        }
      ],
      "payable": false,
      "stateMutability": "view",
      "type": "function"
    },
    {
      "constant": false,
      "inputs": [
        {
          "name": "owner_",
          "type": "address"
        }
      ],
      "name": "setOwner",
      "outputs": [],
      "payable": false,
      "stateMutability": "nonpayable",
      "type": "function"
    },
    {
      "constant": true,
      "inputs": [],
      "name": "PIP_INTERFACE_ADDRESS",
      "outputs": [
        {
          "name": "",
          "type": "address"
        }
      ],
      "payable": false,
      "stateMutability": "view",
      "type": "function"
    },
    {
      "constant": true,
      "inputs": [],
      "name": "KYBER_ETH_ADDRESS",
      "outputs": [
        {
          "name": "",
          "type": "address"
        }
      ],
      "payable": false,
      "stateMutability": "view",
      "type": "function"
    },
    {
      "constant": true,
      "inputs": [],
      "name": "OTC_ADDRESS",
      "outputs": [
        {
          "name": "",
          "type": "address"
        }
      ],
      "payable": false,
      "stateMutability": "view",
      "type": "function"
    },
    {
      "constant": true,
      "inputs": [],
      "name": "IDAI_ADDRESS",
      "outputs": [
        {
          "name": "",
          "type": "address"
        }
      ],
      "payable": false,
      "stateMutability": "view",
      "type": "function"
    },
    {
      "constant": true,
      "inputs": [],
      "name": "GAS_TOKEN_INTERFACE_ADDRESS",
      "outputs": [
        {
          "name": "",
          "type": "address"
        }
      ],
      "payable": false,
      "stateMutability": "view",
      "type": "function"
    },
    {
      "constant": true,
      "inputs": [],
      "name": "VOX_ADDRESS",
      "outputs": [
        {
          "name": "",
          "type": "address"
        }
      ],
      "payable": false,
      "stateMutability": "view",
      "type": "function"
    },
    {
      "constant": true,
      "inputs": [],
      "name": "ETH2DAI_WRAPPER",
      "outputs": [
        {
          "name": "",
          "type": "address"
        }
      ],
      "payable": false,
      "stateMutability": "view",
      "type": "function"
    },
    {
      "constant": true,
      "inputs": [],
      "name": "STUPID_EXCHANGE",
      "outputs": [
        {
          "name": "",
          "type": "address"
        }
      ],
      "payable": false,
      "stateMutability": "view",
      "type": "function"
    },
    {
      "constant": true,
      "inputs": [],
      "name": "PROXY_REGISTRY_INTERFACE_ADDRESS",
      "outputs": [
        {
          "name": "",
          "type": "address"
        }
      ],
      "payable": false,
      "stateMutability": "view",
      "type": "function"
    },
    {
      "constant": false,
      "inputs": [
        {
          "name": "authority_",
          "type": "address"
        }
      ],
      "name": "setAuthority",
      "outputs": [],
      "payable": false,
      "stateMutability": "nonpayable",
      "type": "function"
    },
    {
      "constant": true,
      "inputs": [],
      "name": "MKR_ADDRESS",
      "outputs": [
        {
          "name": "",
          "type": "address"
        }
      ],
      "payable": false,
      "stateMutability": "view",
      "type": "function"
    },
    {
      "constant": true,
      "inputs": [],
      "name": "FACTORY_ADDRESS",
      "outputs": [
        {
          "name": "",
          "type": "address"
        }
      ],
      "payable": false,
      "stateMutability": "view",
      "type": "function"
    },
    {
      "constant": true,
      "inputs": [],
      "name": "owner",
      "outputs": [
        {
          "name": "",
          "type": "address"
        }
      ],
      "payable": false,
      "stateMutability": "view",
      "type": "function"
    },
    {
      "constant": true,
      "inputs": [],
      "name": "LOGGER_ADDRESS",
      "outputs": [
        {
          "name": "",
          "type": "address"
        }
      ],
      "payable": false,
      "stateMutability": "view",
      "type": "function"
    },
    {
      "constant": true,
      "inputs": [],
      "name": "MAKER_DAI_ADDRESS",
      "outputs": [
        {
          "name": "",
          "type": "address"
        }
      ],
      "payable": false,
      "stateMutability": "view",
      "type": "function"
    },
    {
      "constant": true,
      "inputs": [],
      "name": "savingsProxy",
      "outputs": [
        {
          "name": "",
          "type": "address"
        }
      ],
      "payable": false,
      "stateMutability": "view",
      "type": "function"
    },
    {
      "constant": true,
      "inputs": [],
      "name": "KYBER_WRAPPER",
      "outputs": [
        {
          "name": "",
          "type": "address"
        }
      ],
      "payable": false,
      "stateMutability": "view",
      "type": "function"
    },
    {
      "constant": true,
      "inputs": [],
      "name": "authority",
      "outputs": [
        {
          "name": "",
          "type": "address"
        }
      ],
      "payable": false,
      "stateMutability": "view",
      "type": "function"
    },
    {
      "constant": true,
      "inputs": [],
      "name": "COMPOUND_DAI_ADDRESS",
      "outputs": [
        {
          "name": "",
          "type": "address"
        }
      ],
      "payable": false,
      "stateMutability": "view",
      "type": "function"
    },
    {
      "constant": true,
      "inputs": [],
      "name": "UNISWAP_FACTORY",
      "outputs": [
        {
          "name": "",
          "type": "address"
        }
      ],
      "payable": false,
      "stateMutability": "view",
      "type": "function"
    },
    {
      "constant": true,
      "inputs": [],
      "name": "PETH_ADDRESS",
      "outputs": [
        {
          "name": "",
          "type": "address"
        }
      ],
      "payable": false,
      "stateMutability": "view",
      "type": "function"
    },
    {
      "constant": true,
      "inputs": [],
      "name": "KYBER_INTERFACE",
      "outputs": [
        {
          "name": "",
          "type": "address"
        }
      ],
      "payable": false,
      "stateMutability": "view",
      "type": "function"
    },
    {
      "constant": true,
      "inputs": [],
      "name": "WALLET_ID",
      "outputs": [
        {
          "name": "",
          "type": "address"
        }
      ],
      "payable": false,
      "stateMutability": "view",
      "type": "function"
    },
    {
      "constant": true,
      "inputs": [],
      "name": "SOLO_MARGIN_ADDRESS",
      "outputs": [
        {
          "name": "",
          "type": "address"
        }
      ],
      "payable": false,
      "stateMutability": "view",
      "type": "function"
    },
    {
      "constant": true,
      "inputs": [],
      "name": "UNISWAP_WRAPPER",
      "outputs": [
        {
          "name": "",
          "type": "address"
        }
      ],
      "payable": false,
      "stateMutability": "view",
      "type": "function"
    },
    {
      "constant": true,
      "inputs": [],
      "name": "TUB_ADDRESS",
      "outputs": [
        {
          "name": "",
          "type": "address"
        }
      ],
      "payable": false,
      "stateMutability": "view",
      "type": "function"
    },
    {
      "constant": true,
      "inputs": [],
      "name": "dai",
      "outputs": [
        {
          "name": "",
          "type": "address"
        }
      ],
      "payable": false,
      "stateMutability": "view",
      "type": "function"
    },
    {
      "inputs": [],
      "payable": false,
      "stateMutability": "nonpayable",
      "type": "constructor"
    },
    {
      "anonymous": false,
      "inputs": [
        {
          "indexed": true,
          "name": "authority",
          "type": "address"
        }
      ],
      "name": "LogSetAuthority",
      "type": "event"
    },
    {
      "anonymous": false,
      "inputs": [
        {
          "indexed": true,
          "name": "owner",
          "type": "address"
        }
      ],
      "name": "LogSetOwner",
      "type": "event"
    },
    {
      "constant": false,
      "inputs": [
        {
          "name": "_savingsProxy",
          "type": "address"
        }
      ],
      "name": "addSavingsProxy",
      "outputs": [],
      "payable": false,
      "stateMutability": "nonpayable",
      "type": "function"
    },
    {
      "constant": false,
      "inputs": [
        {
          "name": "_user",
          "type": "address"
        },
        {
          "name": "_amount",
          "type": "uint256"
        }
      ],
      "name": "deposit",
      "outputs": [],
      "payable": false,
      "stateMutability": "nonpayable",
      "type": "function"
    },
    {
      "constant": false,
      "inputs": [
        {
          "name": "_user",
          "type": "address"
        },
        {
          "name": "_amount",
          "type": "uint256"
        }
      ],
      "name": "withdraw",
      "outputs": [],
      "payable": false,
      "stateMutability": "nonpayable",
      "type": "function"
    },
    {
      "constant": true,
      "inputs": [
        {
          "name": "_user",
          "type": "address"
        },
        {
          "name": "_index",
          "type": "uint256"
        }
      ],
      "name": "getWeiBalance",
      "outputs": [
        {
          "components": [
            {
              "name": "sign",
              "type": "bool"
            },
            {
              "name": "value",
              "type": "uint256"
            }
          ],
          "name": "",
          "type": "tuple"
        }
      ],
      "payable": false,
      "stateMutability": "view",
      "type": "function"
    },
    {
      "constant": true,
      "inputs": [
        {
          "name": "_user",
          "type": "address"
        },
        {
          "name": "_index",
          "type": "uint256"
        }
      ],
      "name": "getParBalance",
      "outputs": [
        {
          "components": [
            {
              "name": "sign",
              "type": "bool"
            },
            {
              "name": "value",
              "type": "uint128"
            }
          ],
          "name": "",
          "type": "tuple"
        }
      ],
      "payable": false,
      "stateMutability": "view",
      "type": "function"
    },
    {
      "constant": true,
      "inputs": [
        {
          "name": "_user",
          "type": "address"
        },
        {
          "name": "_index",
          "type": "uint256"
        }
      ],
      "name": "getAccount",
      "outputs": [
        {
          "components": [
            {
              "name": "owner",
              "type": "address"
            },
            {
              "name": "number",
              "type": "uint256"
            }
          ],
          "name": "",
          "type": "tuple"
        }
      ],
      "payable": false,
      "stateMutability": "view",
      "type": "function"
    }
  ],
  "bytecode": "0x6080604052600160055534801561001557600080fd5b5033600160006101000a81548173ffffffffffffffffffffffffffffffffffffffff021916908373ffffffffffffffffffffffffffffffffffffffff1602179055503373ffffffffffffffffffffffffffffffffffffffff167fce241d7ca1f669fee44b6fc00b8eba2df3bb514eed0f6f668f8f89096e81ed9460405160405180910390a2734ec3570cadaaee08ae384779b0f3a45ef85289de600260006101000a81548173ffffffffffffffffffffffffffffffffffffffff021916908373ffffffffffffffffffffffffffffffffffffffff16021790555073c4375b7de8af5a38a93548eb8453a498222c4ff2600360006101000a81548173ffffffffffffffffffffffffffffffffffffffff021916908373ffffffffffffffffffffffffffffffffffffffff1602179055506122c9806101536000396000f3fe608060405234801561001057600080fd5b5060043610610244576000357c010000000000000000000000000000000000000000000000000000000090048063825ffd921161014d578063c74c0fac116100d5578063ddaa293c11610099578063ddaa293c14610625578063eef1bbda14610643578063f0d405e514610673578063f3fef3a314610691578063f4b9fa75146106ad57610244565b8063c74c0fac1461058f578063c9fde270146105ad578063ce9bde1d146105cb578063d3661fa5146105e9578063d36b907d1461060757610244565b80639da779e91161011c5780639da779e9146104f9578063a683668c14610517578063b175afa114610535578063bf7e214f14610553578063c16921b71461057157610244565b8063825ffd92146104815780638823151b1461049f5780638da5cb5b146104bd57806394bfbe74146104db57610244565b806332ac5cd2116101d0578063502237d71161019f578063502237d7146103c9578063670079eb146103e7578063728c0092146104175780637800a0f6146104355780637a9e5e4b1461046557610244565b806332ac5cd21461035357806336e6da111461037157806343fb75e81461038f57806347e7ef24146103ad57610244565b806313af40351161021757806313af4035146102bf5780631dab52b0146102db57806329f7fc9e146102f95780632a441f05146103175780632d5eeb3f1461033557610244565b8063040141e5146102495780630531b2ad146102675780630b6cd37e14610285578063134f6d3a146102a1575b600080fd5b6102516106cb565b60405161025e9190611e0f565b60405180910390f35b61026f6106e3565b60405161027c9190611e0f565b60405180910390f35b61029f600480360361029a9190810190611919565b6106fb565b005b6102a9610776565b6040516102b69190611ece565b60405180910390f35b6102d960048036036102d49190810190611919565b61079c565b005b6102e361087c565b6040516102f09190611e0f565b60405180910390f35b610301610894565b60405161030e9190611e0f565b60405180910390f35b61031f6108ac565b60405161032c9190611e0f565b60405180910390f35b61033d6108c4565b60405161034a9190611e0f565b60405180910390f35b61035b6108dc565b6040516103689190611e0f565b60405180910390f35b6103796108ef565b6040516103869190611e0f565b60405180910390f35b610397610907565b6040516103a49190611e0f565b60405180910390f35b6103c760048036036103c29190810190611942565b61091f565b005b6103d1610b7a565b6040516103de9190611e0f565b60405180910390f35b61040160048036036103fc9190810190611942565b610b92565b60405161040e9190611ee9565b60405180910390f35b61041f610bd9565b60405161042c9190611e0f565b60405180910390f35b61044f600480360361044a9190810190611942565b610bf1565b60405161045c9190611f04565b60405180910390f35b61047f600480360361047a9190810190611a3e565b610cf7565b005b610489610dd5565b6040516104969190611e0f565b60405180910390f35b6104a7610ded565b6040516104b49190611e0f565b60405180910390f35b6104c5610e05565b6040516104d29190611e0f565b60405180910390f35b6104e3610e2b565b6040516104f09190611e0f565b60405180910390f35b610501610e43565b60405161050e9190611e0f565b60405180910390f35b61051f610e5b565b60405161052c9190611e0f565b60405180910390f35b61053d610e81565b60405161054a9190611e0f565b60405180910390f35b61055b610e99565b6040516105689190611e98565b60405180910390f35b610579610ebe565b6040516105869190611e0f565b60405180910390f35b610597610ed6565b6040516105a49190611e0f565b60405180910390f35b6105b5610eee565b6040516105c29190611e0f565b60405180910390f35b6105d3610f06565b6040516105e09190611e0f565b60405180910390f35b6105f1610f1e565b6040516105fe9190611e0f565b60405180910390f35b61060f610f36565b60405161061c9190611e0f565b60405180910390f35b61062d610f4e565b60405161063a9190611e0f565b60405180910390f35b61065d60048036036106589190810190611942565b610f66565b60405161066a9190611f1f565b60405180910390f35b61067b61106d565b6040516106889190611e0f565b60405180910390f35b6106ab60048036036106a69190810190611942565b611085565b005b6106b56112e0565b6040516106c29190611eb3565b60405180910390f35b73d0a1e359811322d97991e03f863a0c30c2cf029c81565b73b6b09fbffba6a5c4631e5f7b2e3ee183ac259c0d81565b610729336000357fffffffff0000000000000000000000000000000000000000000000000000000016611306565b61073257600080fd5b80600460006101000a81548173ffffffffffffffffffffffffffffffffffffffff021916908373ffffffffffffffffffffffffffffffffffffffff16021790555050565b600260009054906101000a900473ffffffffffffffffffffffffffffffffffffffff1681565b6107ca336000357fffffffff0000000000000000000000000000000000000000000000000000000016611306565b6107d357600080fd5b80600160006101000a81548173ffffffffffffffffffffffffffffffffffffffff021916908373ffffffffffffffffffffffffffffffffffffffff160217905550600160009054906101000a900473ffffffffffffffffffffffffffffffffffffffff1673ffffffffffffffffffffffffffffffffffffffff167fce241d7ca1f669fee44b6fc00b8eba2df3bb514eed0f6f668f8f89096e81ed9460405160405180910390a250565b73a944bd4b25c9f186a846fd5668941aa3d3b8425f81565b73eeeeeeeeeeeeeeeeeeeeeeeeeeeeeeeeeeeeeeee81565b734a6bc4e803c62081ffebcc8d227b5a87a58f1f8f81565b73a1e58f3b1927743393b25f261471e1f2d3d9f0f681565b6e170ccc93903185be5a2094c870df6281565b73bb4339c0ab5b1d9f14bd6e3426444a1e9d86a1d981565b73823cde416973a19f98bb9c96d97f4fe6c9a7238b81565b8173ffffffffffffffffffffffffffffffffffffffff163373ffffffffffffffffffffffffffffffffffffffff161461095757600080fd5b6060600160405190808252806020026020018201604052801561099457816020015b6109816114d6565b8152602001906001900390816109795790505b5090506109a2836000610b92565b816000815181106109af57fe5b6020026020010181905250606060016040519080825280602002602001820160405280156109f757816020015b6109e4611506565b8152602001906001900390816109dc5790505b509050610a02611572565b604051806080016040528060011515815260200160006001811115610a2357fe5b815260200160006001811115610a3557fe5b815260200185815250905060405180610100016040528060006008811115610a5957fe5b8152602001600081526020018281526020016005548152602001600081526020018673ffffffffffffffffffffffffffffffffffffffff168152602001600081526020016040518060200160405280600081525081525082600081518110610abd57fe5b6020026020010181905250600260009054906101000a900473ffffffffffffffffffffffffffffffffffffffff1673ffffffffffffffffffffffffffffffffffffffff1663a67a6a4584846040518363ffffffff167c0100000000000000000000000000000000000000000000000000000000028152600401610b41929190611e61565b600060405180830381600087803b158015610b5b57600080fd5b505af1158015610b6f573d6000803e3d6000fd5b505050505050505050565b73863e41fe88288ebf3fcd91d8dbb679fb83fdfe1781565b610b9a6115b2565b610ba26115b2565b60405180604001604052808573ffffffffffffffffffffffffffffffffffffffff1681526020018481525090508091505092915050565b7364a436ae831c1672ae81f674cab8b6775df3475c81565b610bf96115e2565b6060600260009054906101000a900473ffffffffffffffffffffffffffffffffffffffff1673ffffffffffffffffffffffffffffffffffffffff16636a8194e7610c438686610b92565b6040518263ffffffff167c0100000000000000000000000000000000000000000000000000000000028152600401610c7b9190611ee9565b60006040518083038186803b158015610c9357600080fd5b505afa158015610ca7573d6000803e3d6000fd5b505050506040513d6000823e3d601f19601f82011682018060405250610cd0919081019061197e565b90915050809150508060055481518110610ce657fe5b602002602001015191505092915050565b610d25336000357fffffffff0000000000000000000000000000000000000000000000000000000016611306565b610d2e57600080fd5b806000806101000a81548173ffffffffffffffffffffffffffffffffffffffff021916908373ffffffffffffffffffffffffffffffffffffffff1602179055506000809054906101000a900473ffffffffffffffffffffffffffffffffffffffff1673ffffffffffffffffffffffffffffffffffffffff167f1abebea81bfa2637f28358c371278fb15ede7ea8dd28d2e03b112ff6d936ada460405160405180910390a250565b73aaf64bfcc32d0f15873a02163e7e500671a4ffcd81565b73c72e74e474682680a414b506699bbca44ab9a93081565b600160009054906101000a900473ffffffffffffffffffffffffffffffffffffffff1681565b7332d0e18f988f952eb3524ace762042381a2c39e581565b73c4375b7de8af5a38a93548eb8453a498222c4ff281565b600460009054906101000a900473ffffffffffffffffffffffffffffffffffffffff1681565b735595930d576aedf13945c83ce5aad827529a131081565b6000809054906101000a900473ffffffffffffffffffffffffffffffffffffffff1681565b7325a01a05c188dacbcf1d61af55d4a5b4021f7eed81565b73f5d915570bc477f9b8d6c0e980aa81757a3aac3681565b73f4d791139ce033ad35db2b2201435fad668b1b6481565b73692f391bcc85cefce8c237c01e1f636bbd70ea4d81565b7354b44c6b18fc0b4a1010b21d524c338d1f8065f681565b734ec3570cadaaee08ae384779b0f3a45ef85289de81565b735595930d576aedf13945c83ce5aad827529a131081565b610f6e611610565b6060600260009054906101000a900473ffffffffffffffffffffffffffffffffffffffff1673ffffffffffffffffffffffffffffffffffffffff16636a8194e7610fb88686610b92565b6040518263ffffffff167c0100000000000000000000000000000000000000000000000000000000028152600401610ff09190611ee9565b60006040518083038186803b15801561100857600080fd5b505afa15801561101c573d6000803e3d6000fd5b505050506040513d6000823e3d601f19601f82011682018060405250611045919081019061197e565b909150905080915050806005548151811061105c57fe5b602002602001015191505092915050565b73a71937147b55deb8a530c7229c442fd3f31b7db281565b8173ffffffffffffffffffffffffffffffffffffffff163373ffffffffffffffffffffffffffffffffffffffff16146110bd57600080fd5b606060016040519080825280602002602001820160405280156110fa57816020015b6110e76114d6565b8152602001906001900390816110df5790505b509050611108836000610b92565b8160008151811061111557fe5b60200260200101819052506060600160405190808252806020026020018201604052801561115d57816020015b61114a611506565b8152602001906001900390816111425790505b509050611168611572565b60405180608001604052806000151581526020016000600181111561118957fe5b81526020016000600181111561119b57fe5b8152602001858152509050604051806101000160405280600160088111156111bf57fe5b8152602001600081526020018281526020016005548152602001600081526020018673ffffffffffffffffffffffffffffffffffffffff16815260200160008152602001604051806020016040528060008152508152508260008151811061122357fe5b6020026020010181905250600260009054906101000a900473ffffffffffffffffffffffffffffffffffffffff1673ffffffffffffffffffffffffffffffffffffffff1663a67a6a4584846040518363ffffffff167c01000000000000000000000000000000000000000000000000000000000281526004016112a7929190611e61565b600060405180830381600087803b1580156112c157600080fd5b505af11580156112d5573d6000803e3d6000fd5b505050505050505050565b600360009054906101000a900473ffffffffffffffffffffffffffffffffffffffff1681565b60003073ffffffffffffffffffffffffffffffffffffffff168373ffffffffffffffffffffffffffffffffffffffff16141561134557600190506114d0565b600160009054906101000a900473ffffffffffffffffffffffffffffffffffffffff1673ffffffffffffffffffffffffffffffffffffffff168373ffffffffffffffffffffffffffffffffffffffff1614156113a457600190506114d0565b600073ffffffffffffffffffffffffffffffffffffffff166000809054906101000a900473ffffffffffffffffffffffffffffffffffffffff1673ffffffffffffffffffffffffffffffffffffffff16141561140357600090506114d0565b6000809054906101000a900473ffffffffffffffffffffffffffffffffffffffff1673ffffffffffffffffffffffffffffffffffffffff1663b70096138430856040518463ffffffff167c010000000000000000000000000000000000000000000000000000000002815260040161147d93929190611e2a565b60206040518083038186803b15801561149557600080fd5b505afa1580156114a9573d6000803e3d6000fd5b505050506040513d601f19601f820116820180604052506114cd9190810190611a15565b90505b92915050565b6040518060400160405280600073ffffffffffffffffffffffffffffffffffffffff168152602001600081525090565b6040518061016001604052806000600881111561151f57fe5b81526020016000815260200161153361162c565b81526020016000815260200160008152602001600073ffffffffffffffffffffffffffffffffffffffff16815260200160008152602001606081525090565b60405180608001604052806000151581526020016000600181111561159357fe5b8152602001600060018111156115a557fe5b8152602001600081525090565b6040518060400160405280600073ffffffffffffffffffffffffffffffffffffffff168152602001600081525090565b604051806040016040528060001515815260200160006fffffffffffffffffffffffffffffffff1681525090565b6040518060400160405280600015158152602001600081525090565b60405180608001604052806000151581526020016000600181111561164d57fe5b81526020016000600181111561165f57fe5b8152602001600081525090565b60006116788235612133565b905092915050565b600061168c8251612133565b905092915050565b600082601f8301126116a557600080fd5b81516116b86116b382611f67565b611f3a565b915081818352602084019350602081019050838560208402820111156116dd57600080fd5b60005b8381101561170d57816116f38882611680565b8452602084019350602083019250506001810190506116e0565b5050505092915050565b600082601f83011261172857600080fd5b815161173b61173682611f8f565b611f3a565b9150818183526020840193506020810190508385604084028201111561176057600080fd5b60005b8381101561179057816117768882611845565b845260208401935060408301925050600181019050611763565b5050505092915050565b600082601f8301126117ab57600080fd5b81516117be6117b982611fb7565b611f3a565b915081818352602084019350602081019050838560408402820111156117e357600080fd5b60005b8381101561181357816117f98882611891565b8452602084019350604083019250506001810190506117e6565b5050505092915050565b60006118298251612145565b905092915050565b600061183d8235612151565b905092915050565b60006040828403121561185757600080fd5b6118616040611f3a565b905060006118718482850161181d565b6000830152506020611885848285016118dd565b60208301525092915050565b6000604082840312156118a357600080fd5b6118ad6040611f3a565b905060006118bd8482850161181d565b60008301525060206118d184828501611905565b60208301525092915050565b60006118e98251612163565b905092915050565b60006118fd823561219f565b905092915050565b6000611911825161219f565b905092915050565b60006020828403121561192b57600080fd5b60006119398482850161166c565b91505092915050565b6000806040838503121561195557600080fd5b60006119638582860161166c565b9250506020611974858286016118f1565b9150509250929050565b60008060006060848603121561199357600080fd5b600084015167ffffffffffffffff8111156119ad57600080fd5b6119b986828701611694565b935050602084015167ffffffffffffffff8111156119d657600080fd5b6119e286828701611717565b925050604084015167ffffffffffffffff8111156119ff57600080fd5b611a0b8682870161179a565b9150509250925092565b600060208284031215611a2757600080fd5b6000611a358482850161181d565b91505092915050565b600060208284031215611a5057600080fd5b6000611a5e84828501611831565b91505092915050565b6000611a738383611c2d565b905092915050565b6000611a878383611d64565b60408301905092915050565b611a9c81612067565b82525050565b611aab81612067565b82525050565b6000611abc82611ff9565b611ac68185612034565b935083602082028501611ad885611fdf565b60005b84811015611b11578383038852611af3838351611a67565b9250611afe8261201a565b9150602088019750600181019050611adb565b508196508694505050505092915050565b6000611b2d82612004565b611b378185612045565b9350611b4283611fec565b60005b82811015611b7057611b58868351611a7b565b9550611b6382612027565b9150600181019050611b45565b50849250505092915050565b611b8581612079565b82525050565b611b9481612085565b82525050565b6000611ba58261200f565b611baf8185612056565b9350611bbf81856020860161224b565b611bc88161227e565b840191505092915050565b611bdc816121a9565b82525050565b611beb816121cd565b82525050565b611bfa816121f1565b82525050565b611c0981612215565b82525050565b611c1881612227565b82525050565b611c2781612239565b82525050565b600061016083016000830151611c466000860182611c00565b506020830151611c596020860182611e00565b506040830151611c6c6040860182611ce0565b506060830151611c7f60c0860182611e00565b506080830151611c9260e0860182611e00565b5060a0830151611ca6610100860182611a93565b5060c0830151611cba610120860182611e00565b5060e0830151848203610140860152611cd38282611b9a565b9150508091505092915050565b608082016000820151611cf66000850182611b7c565b506020820151611d096020850182611c0f565b506040820151611d1c6040850182611c1e565b506060820151611d2f6060850182611e00565b50505050565b604082016000820151611d4b6000850182611a93565b506020820151611d5e6020850182611e00565b50505050565b604082016000820151611d7a6000850182611a93565b506020820151611d8d6020850182611e00565b50505050565b604082016000820151611da96000850182611b7c565b506020820151611dbc6020850182611df1565b50505050565b604082016000820151611dd86000850182611b7c565b506020820151611deb6020850182611e00565b50505050565b611dfa816120ed565b82525050565b611e0981612129565b82525050565b6000602082019050611e246000830184611aa2565b92915050565b6000606082019050611e3f6000830186611aa2565b611e4c6020830185611aa2565b611e596040830184611b8b565b949350505050565b60006040820190508181036000830152611e7b8185611b22565b90508181036020830152611e8f8184611ab1565b90509392505050565b6000602082019050611ead6000830184611bd3565b92915050565b6000602082019050611ec86000830184611be2565b92915050565b6000602082019050611ee36000830184611bf1565b92915050565b6000604082019050611efe6000830184611d35565b92915050565b6000604082019050611f196000830184611d93565b92915050565b6000604082019050611f346000830184611dc2565b92915050565b6000604051905081810181811067ffffffffffffffff82111715611f5d57600080fd5b8060405250919050565b600067ffffffffffffffff821115611f7e57600080fd5b602082029050602081019050919050565b600067ffffffffffffffff821115611fa657600080fd5b602082029050602081019050919050565b600067ffffffffffffffff821115611fce57600080fd5b602082029050602081019050919050565b6000602082019050919050565b6000602082019050919050565b600081519050919050565b600081519050919050565b600081519050919050565b6000602082019050919050565b6000602082019050919050565b600082825260208201905092915050565b600082825260208201905092915050565b600082825260208201905092915050565b600061207282612109565b9050919050565b60008115159050919050565b60007fffffffff0000000000000000000000000000000000000000000000000000000082169050919050565b6000600982106120bd57fe5b819050919050565b6000600282106120d157fe5b819050919050565b6000600282106120e557fe5b819050919050565b60006fffffffffffffffffffffffffffffffff82169050919050565b600073ffffffffffffffffffffffffffffffffffffffff82169050919050565b6000819050919050565b600061213e8261217f565b9050919050565b60008115159050919050565b600061215c82612133565b9050919050565b60006fffffffffffffffffffffffffffffffff82169050919050565b600073ffffffffffffffffffffffffffffffffffffffff82169050919050565b6000819050919050565b60006121b4826121bb565b9050919050565b60006121c682612109565b9050919050565b60006121d8826121df565b9050919050565b60006121ea82612109565b9050919050565b60006121fc82612203565b9050919050565b600061220e82612109565b9050919050565b6000612220826120b1565b9050919050565b6000612232826120c5565b9050919050565b6000612244826120d9565b9050919050565b60005b8381101561226957808201518184015260208101905061224e565b83811115612278576000848401525b50505050565b6000601f19601f830116905091905056fea265627a7a7230582015037990721e04e5f2a09d1f112cbd2721f7e82ff430b55a85b8f0c78d319b336c6578706572696d656e74616cf50037",
  "source": "pragma solidity ^0.5.0;\npragma experimental ABIEncoderV2;\n\nimport \"../ProtocolInterface.sol\";\nimport \"./ISoloMargin.sol\";\nimport \"../../interfaces/ERC20.sol\";\nimport \"../../constants/ConstantAddresses.sol\";\nimport \"../../DS/DSAuth.sol\";\n\ncontract DydxSavingsProtocol is ProtocolInterface, ConstantAddresses, DSAuth {\n\n\n    ISoloMargin public soloMargin;\n    ERC20 public dai;\n    address public savingsProxy;\n\n    uint daiMarketId = 1;\n\n    constructor() public {\n        soloMargin = ISoloMargin(SOLO_MARGIN_ADDRESS);\n        dai = ERC20(MAKER_DAI_ADDRESS);\n    }\n\n    function addSavingsProxy(address _savingsProxy) public auth {\n        savingsProxy = _savingsProxy;\n    }\n\n    function deposit(address _user, uint _amount) public {\n        require(msg.sender == _user);\n\n        Account.Info[] memory accounts = new Account.Info[](1);\n        accounts[0] = getAccount(_user, 0);\n\n        Actions.ActionArgs[] memory actions = new Actions.ActionArgs[](1);\n        Types.AssetAmount memory amount = Types.AssetAmount({\n            sign: true,\n            denomination: Types.AssetDenomination.Wei,\n            ref: Types.AssetReference.Delta,\n            value: _amount\n        });\n\n        actions[0] = Actions.ActionArgs({\n            actionType: Actions.ActionType.Deposit,\n            accountId: 0,\n            amount: amount,\n            primaryMarketId: daiMarketId,\n            otherAddress: _user,\n            secondaryMarketId: 0, //not used\n            otherAccountId: 0, //not used\n            data: \"\" //not used\n        });\n\n        soloMargin.operate(accounts, actions);\n    }\n\n    function withdraw(address _user, uint _amount) public {\n        require(msg.sender == _user);\n\n        Account.Info[] memory accounts = new Account.Info[](1);\n        accounts[0] = getAccount(_user, 0);\n\n        Actions.ActionArgs[] memory actions = new Actions.ActionArgs[](1);\n        Types.AssetAmount memory amount = Types.AssetAmount({\n            sign: false,\n            denomination: Types.AssetDenomination.Wei,\n            ref: Types.AssetReference.Delta,\n            value: _amount\n        });\n\n        actions[0] = Actions.ActionArgs({\n            actionType: Actions.ActionType.Withdraw,\n            accountId: 0,\n            amount: amount,\n            primaryMarketId: daiMarketId,\n            otherAddress: _user,\n            secondaryMarketId: 0, //not used\n            otherAccountId: 0, //not used\n            data: \"\" //not used\n        });\n\n        soloMargin.operate(accounts, actions);\n    }\n\n    function getWeiBalance(address _user, uint _index) public view returns(Types.Wei memory) {\n\n        Types.Wei[] memory weiBalances;\n        (,,weiBalances) = soloMargin.getAccountBalances(getAccount(_user, _index));\n\n        return weiBalances[daiMarketId];\n    }\n\n    function getParBalance(address _user, uint _index) public view returns(Types.Par memory) {\n        Types.Par[] memory parBalances;\n        (,parBalances,) = soloMargin.getAccountBalances(getAccount(_user, _index));\n\n        return parBalances[daiMarketId];\n    }\n\n    function getAccount(address _user, uint _index) public view returns(Account.Info memory) {\n        Account.Info memory account = Account.Info({\n            owner: _user,\n            number: _index\n        });\n\n        return account;\n    }\n}\n",
  "sourcePath": "/Users/nenadpalinkasevic/Desktop/blockchain/cdpsaver-contracts/contracts/savings/dydx/DydxSavingsProtocol.sol",
  "compiler": {
    "name": "solc",
    "version": "0.5.7+commit.6da8b019.Emscripten.clang"
  },
  "schemaVersion": "3.0.0",
  "updatedAt": "2019-08-17T15:16:30.378Z",
  "devdoc": {
    "methods": {}
  },
  "userdoc": {
    "methods": {}
  }
}