{
  "contractName": "DydxProtocol",
  "abi": [
    {
      "constant": true,
      "inputs": [
        {
          "name": "_user",
          "type": "address"
        },
        {
          "name": "_amount",
          "type": "uint256"
        }
      ],
      "name": "soloMargin",
      "outputs": [
        {
          "name": "",
          "type": "address"
        }
      ],
      "payable": false,
      "stateMutability": "view",
      "type": "function"
    },
    {
      "constant": true,
      "inputs": [
        {
          "name": "_user",
          "type": "address"
        },
        {
          "name": "_amount",
          "type": "uint256"
        }
      ],
      "name": "dai",
      "outputs": [
        {
          "name": "",
          "type": "address"
        }
      ],
      "payable": false,
      "stateMutability": "view",
      "type": "function"
    },
    {
      "inputs": [
        {
          "name": "_soloMargin",
          "type": "address"
        },
        {
          "name": "_daiAddress",
          "type": "address"
        }
      ],
      "payable": false,
      "stateMutability": "nonpayable",
      "type": "constructor"
    },
    {
      "constant": false,
      "inputs": [
        {
          "name": "_user",
          "type": "address"
        },
        {
          "name": "_amount",
          "type": "uint256"
        }
      ],
      "name": "deposit",
      "outputs": [],
      "payable": false,
      "stateMutability": "nonpayable",
      "type": "function"
    },
    {
      "constant": false,
      "inputs": [
        {
          "name": "_user",
          "type": "address"
        },
        {
          "name": "_amount",
          "type": "uint256"
        }
      ],
      "name": "withdraw",
      "outputs": [],
      "payable": false,
      "stateMutability": "nonpayable",
      "type": "function"
    },
    {
      "constant": true,
      "inputs": [
        {
          "name": "_user",
          "type": "address"
        },
        {
          "name": "_index",
          "type": "uint256"
        }
      ],
      "name": "getWeiBalance",
      "outputs": [
        {
          "components": [
            {
              "name": "sign",
              "type": "bool"
            },
            {
              "name": "value",
              "type": "uint256"
            }
          ],
          "name": "",
          "type": "tuple"
        }
      ],
      "payable": false,
      "stateMutability": "view",
      "type": "function"
    },
    {
      "constant": true,
      "inputs": [
        {
          "name": "_user",
          "type": "address"
        },
        {
          "name": "_index",
          "type": "uint256"
        }
      ],
      "name": "getParBalance",
      "outputs": [
        {
          "components": [
            {
              "name": "sign",
              "type": "bool"
            },
            {
              "name": "value",
              "type": "uint128"
            }
          ],
          "name": "",
          "type": "tuple"
        }
      ],
      "payable": false,
      "stateMutability": "view",
      "type": "function"
    },
    {
      "constant": true,
      "inputs": [
        {
          "name": "_user",
          "type": "address"
        },
        {
          "name": "_index",
          "type": "uint256"
        }
      ],
      "name": "getAccount",
      "outputs": [
        {
          "components": [
            {
              "name": "owner",
              "type": "address"
            },
            {
              "name": "number",
              "type": "uint256"
            }
          ],
          "name": "",
          "type": "tuple"
        }
      ],
      "payable": false,
      "stateMutability": "view",
      "type": "function"
    }
  ],
  "bytecode": "0x608060405260016002553480156200001657600080fd5b50604051604080620016c38339810180604052620000389190810190620001e4565b816000806101000a81548173ffffffffffffffffffffffffffffffffffffffff021916908373ffffffffffffffffffffffffffffffffffffffff16021790555080600160006101000a81548173ffffffffffffffffffffffffffffffffffffffff021916908373ffffffffffffffffffffffffffffffffffffffff160217905550600160009054906101000a900473ffffffffffffffffffffffffffffffffffffffff1673ffffffffffffffffffffffffffffffffffffffff1663095ea7b36000809054906101000a900473ffffffffffffffffffffffffffffffffffffffff167fffffffffffffffffffffffffffffffffffffffffffffffffffffffffffffffff6040518363ffffffff1660e01b81526004016200015992919062000273565b602060405180830381600087803b1580156200017457600080fd5b505af115801562000189573d6000803e3d6000fd5b505050506040513d601f19601f82011682018060405250620001af919081019062000225565b5050506200031e565b6000620001c68251620002de565b905092915050565b6000620001dc8251620002f2565b905092915050565b60008060408385031215620001f857600080fd5b60006200020885828601620001b8565b92505060206200021b85828601620001b8565b9150509250929050565b6000602082840312156200023857600080fd5b60006200024884828501620001ce565b91505092915050565b6200025c81620002a0565b82525050565b6200026d81620002d4565b82525050565b60006040820190506200028a600083018562000251565b62000299602083018462000262565b9392505050565b6000620002ad82620002b4565b9050919050565b600073ffffffffffffffffffffffffffffffffffffffff82169050919050565b6000819050919050565b6000620002eb82620002fe565b9050919050565b60008115159050919050565b600073ffffffffffffffffffffffffffffffffffffffff82169050919050565b611395806200032e6000396000f3fe608060405234801561001057600080fd5b506004361061007d5760003560e01c80637800a0f61161005b5780637800a0f6146100ec578063eef1bbda1461011c578063f3fef3a31461014c578063f4b9fa75146101685761007d565b8063134f6d3a1461008257806347e7ef24146100a0578063670079eb146100bc575b600080fd5b61008a610186565b6040516100979190610ffc565b60405180910390f35b6100ba60048036036100b59190810190610ade565b6101ab565b005b6100d660048036036100d19190810190610ade565b61046b565b6040516100e39190611017565b60405180910390f35b61010660048036036101019190810190610ade565b6104b2565b6040516101139190611032565b60405180910390f35b61013660048036036101319190810190610ade565b61059b565b604051610143919061104d565b60405180910390f35b61016660048036036101619190810190610ade565b610685565b005b610170610689565b60405161017d9190610fe1565b60405180910390f35b6000809054906101000a900473ffffffffffffffffffffffffffffffffffffffff1681565b600160009054906101000a900473ffffffffffffffffffffffffffffffffffffffff1673ffffffffffffffffffffffffffffffffffffffff166323b872dd8330846040518463ffffffff1660e01b815260040161020a93929190610f73565b602060405180830381600087803b15801561022457600080fd5b505af1158015610238573d6000803e3d6000fd5b505050506040513d601f19601f8201168201806040525061025c9190810190610bb1565b61026557600080fd5b606060016040519080825280602002602001820160405280156102a257816020015b61028f6106af565b8152602001906001900390816102875790505b5090506102b030600061046b565b816000815181106102bd57fe5b60200260200101819052506060600160405190808252806020026020018201604052801561030557816020015b6102f26106df565b8152602001906001900390816102ea5790505b50905061031061074b565b60405180608001604052806001151581526020016000600181111561033157fe5b81526020016000600181111561034357fe5b81526020018581525090506040518061010001604052806000600881111561036757fe5b8152602001600081526020018281526020016002548152602001600081526020013073ffffffffffffffffffffffffffffffffffffffff1681526020016000815260200160405180602001604052806000815250815250826000815181106103cb57fe5b60200260200101819052506000809054906101000a900473ffffffffffffffffffffffffffffffffffffffff1673ffffffffffffffffffffffffffffffffffffffff1663a67a6a4584846040518363ffffffff1660e01b8152600401610432929190610faa565b600060405180830381600087803b15801561044c57600080fd5b505af1158015610460573d6000803e3d6000fd5b505050505050505050565b61047361078b565b61047b61078b565b60405180604001604052808573ffffffffffffffffffffffffffffffffffffffff1681526020018481525090508091505092915050565b6104ba6107bb565b60606000809054906101000a900473ffffffffffffffffffffffffffffffffffffffff1673ffffffffffffffffffffffffffffffffffffffff16636a8194e7610503868661046b565b6040518263ffffffff1660e01b815260040161051f9190611017565b60006040518083038186803b15801561053757600080fd5b505afa15801561054b573d6000803e3d6000fd5b505050506040513d6000823e3d601f19601f820116820180604052506105749190810190610b1a565b9091505080915050806002548151811061058a57fe5b602002602001015191505092915050565b6105a36107e9565b60606000809054906101000a900473ffffffffffffffffffffffffffffffffffffffff1673ffffffffffffffffffffffffffffffffffffffff16636a8194e76105ec868661046b565b6040518263ffffffff1660e01b81526004016106089190611017565b60006040518083038186803b15801561062057600080fd5b505afa158015610634573d6000803e3d6000fd5b505050506040513d6000823e3d601f19601f8201168201806040525061065d9190810190610b1a565b909150905080915050806002548151811061067457fe5b602002602001015191505092915050565b5050565b600160009054906101000a900473ffffffffffffffffffffffffffffffffffffffff1681565b6040518060400160405280600073ffffffffffffffffffffffffffffffffffffffff168152602001600081525090565b604051806101600160405280600060088111156106f857fe5b81526020016000815260200161070c610805565b81526020016000815260200160008152602001600073ffffffffffffffffffffffffffffffffffffffff16815260200160008152602001606081525090565b60405180608001604052806000151581526020016000600181111561076c57fe5b81526020016000600181111561077e57fe5b8152602001600081525090565b6040518060400160405280600073ffffffffffffffffffffffffffffffffffffffff168152602001600081525090565b604051806040016040528060001515815260200160006fffffffffffffffffffffffffffffffff1681525090565b6040518060400160405280600015158152602001600081525090565b60405180608001604052806000151581526020016000600181111561082657fe5b81526020016000600181111561083857fe5b8152602001600081525090565b60006108518235611235565b905092915050565b60006108658251611235565b905092915050565b600082601f83011261087e57600080fd5b815161089161088c82611095565b611068565b915081818352602084019350602081019050838560208402820111156108b657600080fd5b60005b838110156108e657816108cc8882610859565b8452602084019350602083019250506001810190506108b9565b5050505092915050565b600082601f83011261090157600080fd5b815161091461090f826110bd565b611068565b9150818183526020840193506020810190508385604084028201111561093957600080fd5b60005b83811015610969578161094f8882610a0a565b84526020840193506040830192505060018101905061093c565b5050505092915050565b600082601f83011261098457600080fd5b8151610997610992826110e5565b611068565b915081818352602084019350602081019050838560408402820111156109bc57600080fd5b60005b838110156109ec57816109d28882610a56565b8452602084019350604083019250506001810190506109bf565b5050505092915050565b6000610a028251611247565b905092915050565b600060408284031215610a1c57600080fd5b610a266040611068565b90506000610a36848285016109f6565b6000830152506020610a4a84828501610aa2565b60208301525092915050565b600060408284031215610a6857600080fd5b610a726040611068565b90506000610a82848285016109f6565b6000830152506020610a9684828501610aca565b60208301525092915050565b6000610aae8251611253565b905092915050565b6000610ac2823561128f565b905092915050565b6000610ad6825161128f565b905092915050565b60008060408385031215610af157600080fd5b6000610aff85828601610845565b9250506020610b1085828601610ab6565b9150509250929050565b600080600060608486031215610b2f57600080fd5b600084015167ffffffffffffffff811115610b4957600080fd5b610b558682870161086d565b935050602084015167ffffffffffffffff811115610b7257600080fd5b610b7e868287016108f0565b925050604084015167ffffffffffffffff811115610b9b57600080fd5b610ba786828701610973565b9150509250925092565b600060208284031215610bc357600080fd5b6000610bd1848285016109f6565b91505092915050565b6000610be68383610d82565b905092915050565b6000610bfa8383610eb9565b60408301905092915050565b610c0f81611195565b82525050565b610c1e81611195565b82525050565b6000610c2f82611127565b610c398185611162565b935083602082028501610c4b8561110d565b60005b84811015610c84578383038852610c66838351610bda565b9250610c7182611148565b9150602088019750600181019050610c4e565b508196508694505050505092915050565b6000610ca082611132565b610caa8185611173565b9350610cb58361111a565b60005b82811015610ce357610ccb868351610bee565b9550610cd682611155565b9150600181019050610cb8565b50849250505092915050565b610cf8816111a7565b82525050565b6000610d098261113d565b610d138185611184565b9350610d23818560208601611317565b610d2c8161134a565b840191505092915050565b610d4081611299565b82525050565b610d4f816112bd565b82525050565b610d5e816112e1565b82525050565b610d6d816112f3565b82525050565b610d7c81611305565b82525050565b600061016083016000830151610d9b6000860182610d55565b506020830151610dae6020860182610f55565b506040830151610dc16040860182610e35565b506060830151610dd460c0860182610f55565b506080830151610de760e0860182610f55565b5060a0830151610dfb610100860182610c06565b5060c0830151610e0f610120860182610f55565b5060e0830151848203610140860152610e288282610cfe565b9150508091505092915050565b608082016000820151610e4b6000850182610cef565b506020820151610e5e6020850182610d64565b506040820151610e716040850182610d73565b506060820151610e846060850182610f55565b50505050565b604082016000820151610ea06000850182610c06565b506020820151610eb36020850182610f55565b50505050565b604082016000820151610ecf6000850182610c06565b506020820151610ee26020850182610f55565b50505050565b604082016000820151610efe6000850182610cef565b506020820151610f116020850182610f46565b50505050565b604082016000820151610f2d6000850182610cef565b506020820151610f406020850182610f55565b50505050565b610f4f816111ef565b82525050565b610f5e8161122b565b82525050565b610f6d8161122b565b82525050565b6000606082019050610f886000830186610c15565b610f956020830185610c15565b610fa26040830184610f64565b949350505050565b60006040820190508181036000830152610fc48185610c95565b90508181036020830152610fd88184610c24565b90509392505050565b6000602082019050610ff66000830184610d37565b92915050565b60006020820190506110116000830184610d46565b92915050565b600060408201905061102c6000830184610e8a565b92915050565b60006040820190506110476000830184610ee8565b92915050565b60006040820190506110626000830184610f17565b92915050565b6000604051905081810181811067ffffffffffffffff8211171561108b57600080fd5b8060405250919050565b600067ffffffffffffffff8211156110ac57600080fd5b602082029050602081019050919050565b600067ffffffffffffffff8211156110d457600080fd5b602082029050602081019050919050565b600067ffffffffffffffff8211156110fc57600080fd5b602082029050602081019050919050565b6000602082019050919050565b6000602082019050919050565b600081519050919050565b600081519050919050565b600081519050919050565b6000602082019050919050565b6000602082019050919050565b600082825260208201905092915050565b600082825260208201905092915050565b600082825260208201905092915050565b60006111a08261120b565b9050919050565b60008115159050919050565b6000600982106111bf57fe5b819050919050565b6000600282106111d357fe5b819050919050565b6000600282106111e757fe5b819050919050565b60006fffffffffffffffffffffffffffffffff82169050919050565b600073ffffffffffffffffffffffffffffffffffffffff82169050919050565b6000819050919050565b60006112408261126f565b9050919050565b60008115159050919050565b60006fffffffffffffffffffffffffffffffff82169050919050565b600073ffffffffffffffffffffffffffffffffffffffff82169050919050565b6000819050919050565b60006112a4826112ab565b9050919050565b60006112b68261120b565b9050919050565b60006112c8826112cf565b9050919050565b60006112da8261120b565b9050919050565b60006112ec826111b3565b9050919050565b60006112fe826111c7565b9050919050565b6000611310826111db565b9050919050565b60005b8381101561133557808201518184015260208101905061131a565b83811115611344576000848401525b50505050565b6000601f19601f830116905091905056fea265627a7a723058205fcdc43e605ff4de92a93d06ec9bdb55bcb904734fbd06146727ca6baec41c2d6c6578706572696d656e74616cf50037",
  "source": "pragma solidity ^0.5.0;\npragma experimental ABIEncoderV2;\n\nimport \"../ProtocolInterface.sol\";\nimport \"./lib/Actions.sol\";\nimport \"./lib/Account.sol\";\nimport \"./lib/Types.sol\";\nimport \"../../interfaces/ERC20.sol\";\n\ncontract ISoloMargin {\n    function operate(\n        Account.Info[] memory accounts,\n        Actions.ActionArgs[] memory actions\n    ) public;\n\n    function getAccountBalances(\n        Account.Info memory account\n    )\n        public\n        view\n        returns (\n            address[] memory,\n            Types.Par[] memory,\n            Types.Wei[] memory\n        );\n}\n\ncontract DydxProtocol is ProtocolInterface {\n\n    ISoloMargin public soloMargin;\n    ERC20 public dai;\n\n    uint daiMarketId = 1;\n\n    constructor(address _soloMargin, address _daiAddress) public {\n        soloMargin = ISoloMargin(_soloMargin);\n        dai = ERC20(_daiAddress);\n        dai.approve(address(soloMargin), uint(-1));\n    }\n\n    function deposit(address _user, uint _amount) public {\n        require(dai.transferFrom(_user, address(this), _amount));\n\n        Account.Info[] memory accounts = new Account.Info[](1);\n        accounts[0] = getAccount(address(this), 0);\n\n        Actions.ActionArgs[] memory actions = new Actions.ActionArgs[](1);\n        Types.AssetAmount memory amount = Types.AssetAmount({\n            sign: true,\n            denomination: Types.AssetDenomination.Wei,\n            ref: Types.AssetReference.Delta,\n            value: _amount\n        });\n\n        actions[0] = Actions.ActionArgs({\n            actionType: Actions.ActionType.Deposit,\n            accountId: 0,\n            amount: amount,\n            primaryMarketId: daiMarketId,\n            otherAddress: address(this),\n            secondaryMarketId: 0, //not used\n            otherAccountId: 0, //not used\n            data: \"\" //not used\n        });\n\n        soloMargin.operate(accounts, actions);\n    }\n\n    function withdraw(address _user, uint _amount) public {\n\n    }\n\n    function getWeiBalance(address _user, uint _index) public view returns(Types.Wei memory) {\n\n        Types.Wei[] memory weiBalances;\n        (,,weiBalances) = soloMargin.getAccountBalances(getAccount(_user, _index));\n\n        return weiBalances[daiMarketId];\n    }\n\n    function getParBalance(address _user, uint _index) public view returns(Types.Par memory) {\n        Types.Par[] memory parBalances;\n        (,parBalances,) = soloMargin.getAccountBalances(getAccount(_user, _index));\n\n        return parBalances[daiMarketId];\n    }\n\n    function getAccount(address _user, uint _index) public view returns(Account.Info memory) {\n        Account.Info memory account = Account.Info({\n            owner: _user,\n            number: _index\n        });\n\n        return account;\n    }\n}\n",
  "sourcePath": "/Users/nikolaklipa/Decenter/defisaver/cdpsaver-contracts/contracts/savings/dydx/DydxProtocol.sol",
  "compiler": {
    "name": "solc",
    "version": "0.5.7+commit.6da8b019.Emscripten.clang"
  },
  "schemaVersion": "3.0.9",
  "updatedAt": "2019-08-05T11:25:37.352Z",
  "devdoc": {
    "methods": {}
  },
  "userdoc": {
    "methods": {}
  }
}