{
  "contractName": "Eth2DaiWrapper",
  "abi": [
    {
      "constant": true,
      "inputs": [],
      "name": "WETH_ADDRESS",
      "outputs": [
        {
          "name": "",
          "type": "address"
        }
      ],
      "payable": false,
      "stateMutability": "view",
      "type": "function"
    },
    {
      "constant": true,
      "inputs": [],
      "name": "KYBER_ETH_ADDRESS",
      "outputs": [
        {
          "name": "",
          "type": "address"
        }
      ],
      "payable": false,
      "stateMutability": "view",
      "type": "function"
    },
    {
      "constant": true,
      "inputs": [],
      "name": "OTC_ADDRESS",
      "outputs": [
        {
          "name": "",
          "type": "address"
        }
      ],
      "payable": false,
      "stateMutability": "view",
      "type": "function"
    },
    {
      "payable": true,
      "stateMutability": "payable",
      "type": "fallback"
    },
    {
      "constant": false,
      "inputs": [
        {
          "name": "_ethAmount",
          "type": "uint256"
        },
        {
          "name": "_tokenAddress",
          "type": "address"
        },
        {
          "name": "_maxAmount",
          "type": "uint256"
        }
      ],
      "name": "swapEtherToToken",
      "outputs": [
        {
          "name": "",
          "type": "uint256"
        },
        {
          "name": "",
          "type": "uint256"
        }
      ],
      "payable": true,
      "stateMutability": "payable",
      "type": "function"
    },
    {
      "constant": false,
      "inputs": [
        {
          "name": "_tokenAddress",
          "type": "address"
        },
        {
          "name": "_amount",
          "type": "uint256"
        },
        {
          "name": "_maxAmount",
          "type": "uint256"
        }
      ],
      "name": "swapTokenToEther",
      "outputs": [
        {
          "name": "",
          "type": "uint256"
        }
      ],
      "payable": false,
      "stateMutability": "nonpayable",
      "type": "function"
    },
    {
      "constant": false,
      "inputs": [
        {
          "name": "_src",
          "type": "address"
        },
        {
          "name": "_dest",
          "type": "address"
        },
        {
          "name": "_srcQty",
          "type": "uint256"
        }
      ],
      "name": "getExpectedRate",
      "outputs": [
        {
          "name": "",
          "type": "uint256"
        },
        {
          "name": "",
          "type": "uint256"
        }
      ],
      "payable": false,
      "stateMutability": "nonpayable",
      "type": "function"
    }
  ],
  "bytecode": "0x608060405234801561001057600080fd5b50610d1b806100206000396000f3fe6080604052600436106100555760003560e01c8063040141e51461005757806329f7fc9e146100ae5780632a441f05146101055780633bba21dc1461015c57806343ac1dc6146101d5578063809a9e5514610248575b005b34801561006357600080fd5b5061006c6102de565b604051808273ffffffffffffffffffffffffffffffffffffffff1673ffffffffffffffffffffffffffffffffffffffff16815260200191505060405180910390f35b3480156100ba57600080fd5b506100c36102f6565b604051808273ffffffffffffffffffffffffffffffffffffffff1673ffffffffffffffffffffffffffffffffffffffff16815260200191505060405180910390f35b34801561011157600080fd5b5061011a61030e565b604051808273ffffffffffffffffffffffffffffffffffffffff1673ffffffffffffffffffffffffffffffffffffffff16815260200191505060405180910390f35b34801561016857600080fd5b506101bf6004803603606081101561017f57600080fd5b81019080803573ffffffffffffffffffffffffffffffffffffffff1690602001909291908035906020019092919080359060200190929190505050610326565b6040518082815260200191505060405180910390f35b61022b600480360360608110156101eb57600080fd5b8101908080359060200190929190803573ffffffffffffffffffffffffffffffffffffffff16906020019092919080359060200190929190505050610603565b604051808381526020018281526020019250505060405180910390f35b34801561025457600080fd5b506102c16004803603606081101561026b57600080fd5b81019080803573ffffffffffffffffffffffffffffffffffffffff169060200190929190803573ffffffffffffffffffffffffffffffffffffffff1690602001909291908035906020019092919050505061096f565b604051808381526020018281526020019250505060405180910390f35b73d0a1e359811322d97991e03f863a0c30c2cf029c81565b73eeeeeeeeeeeeeeeeeeeeeeeeeeeeeeeeeeeeeeee81565b734a6bc4e803c62081ffebcc8d227b5a87a58f1f8f81565b60008373ffffffffffffffffffffffffffffffffffffffff1663095ea7b3734a6bc4e803c62081ffebcc8d227b5a87a58f1f8f856040518363ffffffff1660e01b8152600401808373ffffffffffffffffffffffffffffffffffffffff1673ffffffffffffffffffffffffffffffffffffffff16815260200182815260200192505050602060405180830381600087803b1580156103c357600080fd5b505af11580156103d7573d6000803e3d6000fd5b505050506040513d60208110156103ed57600080fd5b810190808051906020019092919050505061040757600080fd5b6000734a6bc4e803c62081ffebcc8d227b5a87a58f1f8f73ffffffffffffffffffffffffffffffffffffffff16630621b4f6868673d0a1e359811322d97991e03f863a0c30c2cf029c60006040518563ffffffff1660e01b8152600401808573ffffffffffffffffffffffffffffffffffffffff1673ffffffffffffffffffffffffffffffffffffffff1681526020018481526020018373ffffffffffffffffffffffffffffffffffffffff1673ffffffffffffffffffffffffffffffffffffffff168152602001828152602001945050505050602060405180830381600087803b1580156104f557600080fd5b505af1158015610509573d6000803e3d6000fd5b505050506040513d602081101561051f57600080fd5b8101908080519060200190929190505050905073d0a1e359811322d97991e03f863a0c30c2cf029c73ffffffffffffffffffffffffffffffffffffffff16632e1a7d4d826040518263ffffffff1660e01b815260040180828152602001915050600060405180830381600087803b15801561059957600080fd5b505af11580156105ad573d6000803e3d6000fd5b505050503373ffffffffffffffffffffffffffffffffffffffff166108fc829081150290604051600060405180830381858888f193505050501580156105f7573d6000803e3d6000fd5b50809150509392505050565b60008073d0a1e359811322d97991e03f863a0c30c2cf029c73ffffffffffffffffffffffffffffffffffffffff1663095ea7b3734a6bc4e803c62081ffebcc8d227b5a87a58f1f8f876040518363ffffffff1660e01b8152600401808373ffffffffffffffffffffffffffffffffffffffff1673ffffffffffffffffffffffffffffffffffffffff16815260200182815260200192505050602060405180830381600087803b1580156106b557600080fd5b505af11580156106c9573d6000803e3d6000fd5b505050506040513d60208110156106df57600080fd5b81019080805190602001909291905050506106f957600080fd5b73d0a1e359811322d97991e03f863a0c30c2cf029c73ffffffffffffffffffffffffffffffffffffffff1663d0e30db0866040518263ffffffff1660e01b81526004016000604051808303818588803b15801561075557600080fd5b505af1158015610769573d6000803e3d6000fd5b50505050506000734a6bc4e803c62081ffebcc8d227b5a87a58f1f8f73ffffffffffffffffffffffffffffffffffffffff16630621b4f673d0a1e359811322d97991e03f863a0c30c2cf029c888860006040518563ffffffff1660e01b8152600401808573ffffffffffffffffffffffffffffffffffffffff1673ffffffffffffffffffffffffffffffffffffffff1681526020018481526020018373ffffffffffffffffffffffffffffffffffffffff1673ffffffffffffffffffffffffffffffffffffffff168152602001828152602001945050505050602060405180830381600087803b15801561085c57600080fd5b505af1158015610870573d6000803e3d6000fd5b505050506040513d602081101561088657600080fd5b810190808051906020019092919050505090508473ffffffffffffffffffffffffffffffffffffffff1663a9059cbb33836040518363ffffffff1660e01b8152600401808373ffffffffffffffffffffffffffffffffffffffff1673ffffffffffffffffffffffffffffffffffffffff16815260200182815260200192505050602060405180830381600087803b15801561092057600080fd5b505af1158015610934573d6000803e3d6000fd5b505050506040513d602081101561094a57600080fd5b8101908080519060200190929190505050508060008090509250925050935093915050565b60008073eeeeeeeeeeeeeeeeeeeeeeeeeeeeeeeeeeeeeeee73ffffffffffffffffffffffffffffffffffffffff168573ffffffffffffffffffffffffffffffffffffffff161415610aed57610adf734a6bc4e803c62081ffebcc8d227b5a87a58f1f8f73ffffffffffffffffffffffffffffffffffffffff1663144a27528673d0a1e359811322d97991e03f863a0c30c2cf029c876040518463ffffffff1660e01b8152600401808473ffffffffffffffffffffffffffffffffffffffff1673ffffffffffffffffffffffffffffffffffffffff1681526020018373ffffffffffffffffffffffffffffffffffffffff1673ffffffffffffffffffffffffffffffffffffffff168152602001828152602001935050505060206040518083038186803b158015610a9e57600080fd5b505afa158015610ab2573d6000803e3d6000fd5b505050506040513d6020811015610ac857600080fd5b810190808051906020019092919050505084610c71565b600080905091509150610c69565b73eeeeeeeeeeeeeeeeeeeeeeeeeeeeeeeeeeeeeeee73ffffffffffffffffffffffffffffffffffffffff168473ffffffffffffffffffffffffffffffffffffffff161415610c6857610c5a734a6bc4e803c62081ffebcc8d227b5a87a58f1f8f73ffffffffffffffffffffffffffffffffffffffff1663144a275273d0a1e359811322d97991e03f863a0c30c2cf029c88876040518463ffffffff1660e01b8152600401808473ffffffffffffffffffffffffffffffffffffffff1673ffffffffffffffffffffffffffffffffffffffff1681526020018373ffffffffffffffffffffffffffffffffffffffff1673ffffffffffffffffffffffffffffffffffffffff168152602001828152602001935050505060206040518083038186803b158015610c1957600080fd5b505afa158015610c2d573d6000803e3d6000fd5b505050506040513d6020811015610c4357600080fd5b810190808051906020019092919050505084610c71565b600080905091509150610c69565b5b935093915050565b600081610c99610c8985670de0b6b3a7640000610ca9565b60028581610c9357fe5b04610cd5565b81610ca057fe5b04905092915050565b600080821480610cc65750828283850292508281610cc357fe5b04145b610ccf57600080fd5b92915050565b6000828284019150811015610ce957600080fd5b9291505056fea165627a7a72305820dc017ba10d4d2a620429514275e2991de34474201ec6637ed4945cf9116c42e10029",
  "source": "pragma solidity ^0.5.0;\n\nimport \"./interfaces/ERC20.sol\";\nimport \"./interfaces/KyberNetworkProxyInterface.sol\";\nimport \"./interfaces/ExchangeInterface.sol\";\nimport \"./interfaces/Eth2DaiInterface.sol\";\nimport \"./interfaces/TokenInterface.sol\";\nimport \"./DS/DSMath.sol\";\n\ncontract Eth2DaiWrapper is ExchangeInterface, DSMath {\n\n    address public constant KYBER_ETH_ADDRESS = 0xEeeeeEeeeEeEeeEeEeEeeEEEeeeeEeeeeeeeEEeE;\n\n    // Kovan\n    address public constant OTC_ADDRESS = 0x4A6bC4e803c62081ffEbCc8d227B5a87a58f1F8F;\n    address public constant WETH_ADDRESS = 0xd0A1E359811322d97991E03f863a0C30C2cF029C;\n\n    function swapEtherToToken (uint _ethAmount, address _tokenAddress, uint _maxAmount) external payable returns(uint, uint) {\n        require(ERC20(WETH_ADDRESS).approve(OTC_ADDRESS, _ethAmount));\n        TokenInterface(WETH_ADDRESS).deposit.value(_ethAmount)();\n\n        uint daiBought = Eth2DaiInterface(OTC_ADDRESS).sellAllAmount(ERC20(WETH_ADDRESS), _ethAmount,\n                 ERC20(_tokenAddress), 0);\n\n        ERC20(_tokenAddress).transfer(msg.sender, daiBought);\n\n        return (daiBought, 0);\n    }\n    \n    function swapTokenToEther (address _tokenAddress, uint _amount, uint _maxAmount) external returns(uint) {\n        require(ERC20(_tokenAddress).approve(OTC_ADDRESS, _amount));\n\n        uint ethBought = Eth2DaiInterface(OTC_ADDRESS).sellAllAmount(ERC20(_tokenAddress), _amount,\n         ERC20(WETH_ADDRESS), 0);\n\n        TokenInterface(WETH_ADDRESS).withdraw(ethBought);\n\n        msg.sender.transfer(ethBought);\n\n        return ethBought;\n    }\n\n    function getExpectedRate(address _src, address _dest, uint _srcQty) public returns (uint, uint) {\n        if(_src == KYBER_ETH_ADDRESS) {\n            return (wdiv(Eth2DaiInterface(OTC_ADDRESS).getBuyAmount(ERC20(_dest), ERC20(WETH_ADDRESS), _srcQty), _srcQty), 0);\n        } else if (_dest == KYBER_ETH_ADDRESS) {\n            return (wdiv(Eth2DaiInterface(OTC_ADDRESS).getBuyAmount(ERC20(WETH_ADDRESS), ERC20(_src), _srcQty), _srcQty), 0);\n        }\n    }\n\n    function() payable external {\n    }\n}",
  "sourcePath": "/Users/nikolaklipa/Decenter/defisaver/cdpsaver-contracts/contracts/Eth2DaiWrapper.sol",
  "compiler": {
    "name": "solc",
    "version": "0.5.7+commit.6da8b019.Emscripten.clang"
  },
  "schemaVersion": "3.0.9",
  "updatedAt": "2019-08-05T12:11:49.597Z",
  "devdoc": {
    "methods": {}
  },
  "userdoc": {
    "methods": {}
  }
}