{
  "contractName": "Eth2DaiWrapper",
  "abi": [
    {
      "constant": true,
      "inputs": [],
      "name": "WETH_ADDRESS",
      "outputs": [
        {
          "name": "",
          "type": "address"
        }
      ],
      "payable": false,
      "stateMutability": "view",
      "type": "function"
    },
    {
      "constant": true,
      "inputs": [],
      "name": "CDAI_ADDRESS",
      "outputs": [
        {
          "name": "",
          "type": "address"
        }
      ],
      "payable": false,
      "stateMutability": "view",
      "type": "function"
    },
    {
      "constant": true,
      "inputs": [],
      "name": "PIP_INTERFACE_ADDRESS",
      "outputs": [
        {
          "name": "",
          "type": "address"
        }
      ],
      "payable": false,
      "stateMutability": "view",
      "type": "function"
    },
    {
      "payable": false,
      "stateMutability": "view",
      "type": "function",
      "constant": true,
      "inputs": [],
      "name": "KYBER_ETH_ADDRESS",
      "outputs": [
        {
          "name": "",
          "type": "address"
        }
      ]
    },
    {
      "constant": true,
      "inputs": [
        {
          "name": "_ethAmount",
          "type": "uint256"
        },
        {
          "name": "_tokenAddress",
          "type": "address"
        },
        {
          "name": "_maxAmount",
          "type": "uint256"
        }
      ],
      "name": "OTC_ADDRESS",
      "outputs": [
        {
          "name": "",
          "type": "address"
        },
        {
          "name": "",
          "type": "uint256"
        }
      ],
      "payable": false,
      "stateMutability": "view",
      "type": "function"
    },
    {
      "constant": true,
      "inputs": [
        {
          "name": "_tokenAddress",
          "type": "address"
        },
        {
          "name": "_amount",
          "type": "uint256"
        },
        {
          "name": "_maxAmount",
          "type": "uint256"
        }
      ],
      "name": "IDAI_ADDRESS",
      "outputs": [
        {
          "name": "",
          "type": "address"
        }
      ],
      "payable": false,
      "stateMutability": "view",
      "type": "function"
    },
    {
      "constant": true,
      "inputs": [
        {
          "name": "_src",
          "type": "address"
        },
        {
          "name": "_dest",
          "type": "address"
        },
        {
          "name": "_srcQty",
          "type": "uint256"
        }
      ],
      "name": "GAS_TOKEN_INTERFACE_ADDRESS",
      "outputs": [
        {
          "name": "",
          "type": "address"
        },
        {
          "name": "",
          "type": "uint256"
        }
      ],
      "payable": false,
      "stateMutability": "view",
      "type": "function"
    },
    {
      "constant": true,
      "inputs": [],
      "name": "VOX_ADDRESS",
      "outputs": [
        {
          "name": "",
          "type": "address"
        }
      ],
      "payable": false,
      "stateMutability": "view",
      "type": "function"
    },
    {
      "constant": true,
      "inputs": [],
      "name": "ETH2DAI_WRAPPER",
      "outputs": [
        {
          "name": "",
          "type": "address"
        }
      ],
      "payable": false,
      "stateMutability": "view",
      "type": "function"
    },
    {
      "constant": true,
      "inputs": [],
      "name": "STUPID_EXCHANGE",
      "outputs": [
        {
          "name": "",
          "type": "address"
        }
      ],
      "payable": false,
      "stateMutability": "view",
      "type": "function"
    },
    {
      "constant": true,
      "inputs": [],
      "name": "PROXY_REGISTRY_INTERFACE_ADDRESS",
      "outputs": [
        {
          "name": "",
          "type": "address"
        }
      ],
      "payable": false,
      "stateMutability": "view",
      "type": "function"
    },
    {
      "constant": true,
      "inputs": [],
      "name": "MKR_ADDRESS",
      "outputs": [
        {
          "name": "",
          "type": "address"
        }
      ],
      "payable": false,
      "stateMutability": "view",
      "type": "function"
    },
    {
      "constant": true,
      "inputs": [],
      "name": "FACTORY_ADDRESS",
      "outputs": [
        {
          "name": "",
          "type": "address"
        }
      ],
      "payable": false,
      "stateMutability": "view",
      "type": "function"
    },
    {
      "constant": true,
      "inputs": [],
      "name": "LOGGER_ADDRESS",
      "outputs": [
        {
          "name": "",
          "type": "address"
        }
      ],
      "payable": false,
      "stateMutability": "view",
      "type": "function"
    },
    {
      "constant": true,
      "inputs": [],
      "name": "MAKER_DAI_ADDRESS",
      "outputs": [
        {
          "name": "",
          "type": "address"
        }
      ],
      "payable": false,
      "stateMutability": "view",
      "type": "function"
    },
    {
      "constant": true,
      "inputs": [],
      "name": "KYBER_WRAPPER",
      "outputs": [
        {
          "name": "",
          "type": "address"
        }
      ],
      "payable": false,
      "stateMutability": "view",
      "type": "function"
    },
    {
      "constant": true,
      "inputs": [],
      "name": "COMPOUND_DAI_ADDRESS",
      "outputs": [
        {
          "name": "",
          "type": "address"
        }
      ],
      "payable": false,
      "stateMutability": "view",
      "type": "function"
    },
    {
      "constant": true,
      "inputs": [],
      "name": "UNISWAP_FACTORY",
      "outputs": [
        {
          "name": "",
          "type": "address"
        }
      ],
      "payable": false,
      "stateMutability": "view",
      "type": "function"
    },
    {
      "constant": true,
      "inputs": [],
      "name": "PETH_ADDRESS",
      "outputs": [
        {
          "name": "",
          "type": "address"
        }
      ],
      "payable": false,
      "stateMutability": "view",
      "type": "function"
    },
    {
      "constant": true,
      "inputs": [],
      "name": "KYBER_INTERFACE",
      "outputs": [
        {
          "name": "",
          "type": "address"
        }
      ],
      "payable": false,
      "stateMutability": "view",
      "type": "function"
    },
    {
      "constant": true,
      "inputs": [],
      "name": "WALLET_ID",
      "outputs": [
        {
          "name": "",
          "type": "address"
        }
      ],
      "payable": false,
      "stateMutability": "view",
      "type": "function"
    },
    {
      "constant": true,
      "inputs": [],
      "name": "SOLO_MARGIN_ADDRESS",
      "outputs": [
        {
          "name": "",
          "type": "address"
        }
      ],
      "payable": false,
      "stateMutability": "view",
      "type": "function"
    },
    {
      "constant": true,
      "inputs": [],
      "name": "UNISWAP_WRAPPER",
      "outputs": [
        {
          "name": "",
          "type": "address"
        }
      ],
      "payable": false,
      "stateMutability": "view",
      "type": "function"
    },
    {
      "constant": true,
      "inputs": [],
      "name": "TUB_ADDRESS",
      "outputs": [
        {
          "name": "",
          "type": "address"
        }
      ],
      "payable": false,
      "stateMutability": "view",
      "type": "function"
    },
    {
      "constant": true,
      "inputs": [],
      "name": "CTOKEN_INTERFACE",
      "outputs": [
        {
          "name": "",
          "type": "address"
        }
      ],
      "payable": false,
      "stateMutability": "view",
      "type": "function"
    },
    {
      "payable": true,
      "stateMutability": "payable",
      "type": "fallback"
    },
    {
      "constant": false,
      "inputs": [
        {
          "name": "_ethAmount",
          "type": "uint256"
        },
        {
          "name": "_tokenAddress",
          "type": "address"
        },
        {
          "name": "_maxAmount",
          "type": "uint256"
        }
      ],
      "name": "swapEtherToToken",
      "outputs": [
        {
          "name": "",
          "type": "uint256"
        },
        {
          "name": "",
          "type": "uint256"
        }
      ],
      "payable": true,
      "stateMutability": "payable",
      "type": "function"
    },
    {
      "constant": false,
      "inputs": [
        {
          "name": "_tokenAddress",
          "type": "address"
        },
        {
          "name": "_amount",
          "type": "uint256"
        },
        {
          "name": "_maxAmount",
          "type": "uint256"
        }
      ],
      "name": "swapTokenToEther",
      "outputs": [
        {
          "name": "",
          "type": "uint256"
        }
      ],
      "payable": false,
      "stateMutability": "nonpayable",
      "type": "function"
    },
    {
      "constant": true,
      "inputs": [
        {
          "name": "_src",
          "type": "address"
        },
        {
          "name": "_dest",
          "type": "address"
        },
        {
          "name": "_srcQty",
          "type": "uint256"
        }
      ],
      "name": "getExpectedRate",
      "outputs": [
        {
          "name": "",
          "type": "uint256"
        },
        {
          "name": "",
          "type": "uint256"
        }
      ],
      "payable": false,
      "stateMutability": "view",
      "type": "function"
    }
  ],
  "bytecode": "0x608060405234801561001057600080fd5b50611802806100206000396000f3fe6080604052600436106101b75760003560e01c8063825ffd92116100ec578063c9fde2701161008a578063d36b907d11610064578063d36b907d14610a5e578063ddaa293c14610ab5578063f0d405e514610b0c578063f2f239d414610b63576101b7565b8063c9fde27014610959578063ce9bde1d146109b0578063d3661fa514610a07576101b7565b80639da779e9116100c65780639da779e9146107fd578063b175afa114610854578063c16921b7146108ab578063c74c0fac14610902576101b7565b8063825ffd92146106f85780638823151b1461074f57806394bfbe74146107a6576101b7565b806336e6da111161015957806343fb75e81161013357806343fb75e81461055d578063502237d7146105b4578063728c00921461060b578063809a9e5514610662576101b7565b806336e6da111461041a5780633bba21dc1461047157806343ac1dc6146104ea576101b7565b806329f7fc9e1161019557806329f7fc9e146102be5780632a441f05146103155780632d5eeb3f1461036c57806332ac5cd2146103c3576101b7565b8063040141e5146101b95780630531b2ad146102105780631dab52b014610267575b005b3480156101c557600080fd5b506101ce610bba565b604051808273ffffffffffffffffffffffffffffffffffffffff1673ffffffffffffffffffffffffffffffffffffffff16815260200191505060405180910390f35b34801561021c57600080fd5b50610225610bd2565b604051808273ffffffffffffffffffffffffffffffffffffffff1673ffffffffffffffffffffffffffffffffffffffff16815260200191505060405180910390f35b34801561027357600080fd5b5061027c610bea565b604051808273ffffffffffffffffffffffffffffffffffffffff1673ffffffffffffffffffffffffffffffffffffffff16815260200191505060405180910390f35b3480156102ca57600080fd5b506102d3610c02565b604051808273ffffffffffffffffffffffffffffffffffffffff1673ffffffffffffffffffffffffffffffffffffffff16815260200191505060405180910390f35b34801561032157600080fd5b5061032a610c1a565b604051808273ffffffffffffffffffffffffffffffffffffffff1673ffffffffffffffffffffffffffffffffffffffff16815260200191505060405180910390f35b34801561037857600080fd5b50610381610c32565b604051808273ffffffffffffffffffffffffffffffffffffffff1673ffffffffffffffffffffffffffffffffffffffff16815260200191505060405180910390f35b3480156103cf57600080fd5b506103d8610c4a565b604051808273ffffffffffffffffffffffffffffffffffffffff1673ffffffffffffffffffffffffffffffffffffffff16815260200191505060405180910390f35b34801561042657600080fd5b5061042f610c5d565b604051808273ffffffffffffffffffffffffffffffffffffffff1673ffffffffffffffffffffffffffffffffffffffff16815260200191505060405180910390f35b34801561047d57600080fd5b506104d46004803603606081101561049457600080fd5b81019080803573ffffffffffffffffffffffffffffffffffffffff1690602001909291908035906020019092919080359060200190929190505050610c75565b6040518082815260200191505060405180910390f35b6105406004803603606081101561050057600080fd5b8101908080359060200190929190803573ffffffffffffffffffffffffffffffffffffffff16906020019092919080359060200190929190505050610f52565b604051808381526020018281526020019250505060405180910390f35b34801561056957600080fd5b506105726112be565b604051808273ffffffffffffffffffffffffffffffffffffffff1673ffffffffffffffffffffffffffffffffffffffff16815260200191505060405180910390f35b3480156105c057600080fd5b506105c96112d6565b604051808273ffffffffffffffffffffffffffffffffffffffff1673ffffffffffffffffffffffffffffffffffffffff16815260200191505060405180910390f35b34801561061757600080fd5b506106206112ee565b604051808273ffffffffffffffffffffffffffffffffffffffff1673ffffffffffffffffffffffffffffffffffffffff16815260200191505060405180910390f35b34801561066e57600080fd5b506106db6004803603606081101561068557600080fd5b81019080803573ffffffffffffffffffffffffffffffffffffffff169060200190929190803573ffffffffffffffffffffffffffffffffffffffff16906020019092919080359060200190929190505050611306565b604051808381526020018281526020019250505060405180910390f35b34801561070457600080fd5b5061070d611608565b604051808273ffffffffffffffffffffffffffffffffffffffff1673ffffffffffffffffffffffffffffffffffffffff16815260200191505060405180910390f35b34801561075b57600080fd5b50610764611620565b604051808273ffffffffffffffffffffffffffffffffffffffff1673ffffffffffffffffffffffffffffffffffffffff16815260200191505060405180910390f35b3480156107b257600080fd5b506107bb611638565b604051808273ffffffffffffffffffffffffffffffffffffffff1673ffffffffffffffffffffffffffffffffffffffff16815260200191505060405180910390f35b34801561080957600080fd5b50610812611650565b604051808273ffffffffffffffffffffffffffffffffffffffff1673ffffffffffffffffffffffffffffffffffffffff16815260200191505060405180910390f35b34801561086057600080fd5b50610869611668565b604051808273ffffffffffffffffffffffffffffffffffffffff1673ffffffffffffffffffffffffffffffffffffffff16815260200191505060405180910390f35b3480156108b757600080fd5b506108c0611680565b604051808273ffffffffffffffffffffffffffffffffffffffff1673ffffffffffffffffffffffffffffffffffffffff16815260200191505060405180910390f35b34801561090e57600080fd5b50610917611698565b604051808273ffffffffffffffffffffffffffffffffffffffff1673ffffffffffffffffffffffffffffffffffffffff16815260200191505060405180910390f35b34801561096557600080fd5b5061096e6116b0565b604051808273ffffffffffffffffffffffffffffffffffffffff1673ffffffffffffffffffffffffffffffffffffffff16815260200191505060405180910390f35b3480156109bc57600080fd5b506109c56116c8565b604051808273ffffffffffffffffffffffffffffffffffffffff1673ffffffffffffffffffffffffffffffffffffffff16815260200191505060405180910390f35b348015610a1357600080fd5b50610a1c6116e0565b604051808273ffffffffffffffffffffffffffffffffffffffff1673ffffffffffffffffffffffffffffffffffffffff16815260200191505060405180910390f35b348015610a6a57600080fd5b50610a736116f8565b604051808273ffffffffffffffffffffffffffffffffffffffff1673ffffffffffffffffffffffffffffffffffffffff16815260200191505060405180910390f35b348015610ac157600080fd5b50610aca611710565b604051808273ffffffffffffffffffffffffffffffffffffffff1673ffffffffffffffffffffffffffffffffffffffff16815260200191505060405180910390f35b348015610b1857600080fd5b50610b21611728565b604051808273ffffffffffffffffffffffffffffffffffffffff1673ffffffffffffffffffffffffffffffffffffffff16815260200191505060405180910390f35b348015610b6f57600080fd5b50610b78611740565b604051808273ffffffffffffffffffffffffffffffffffffffff1673ffffffffffffffffffffffffffffffffffffffff16815260200191505060405180910390f35b73d0a1e359811322d97991e03f863a0c30c2cf029c81565b73b6b09fbffba6a5c4631e5f7b2e3ee183ac259c0d81565b73a944bd4b25c9f186a846fd5668941aa3d3b8425f81565b73eeeeeeeeeeeeeeeeeeeeeeeeeeeeeeeeeeeeeeee81565b734a6bc4e803c62081ffebcc8d227b5a87a58f1f8f81565b73b6b09fbffba6a5c4631e5f7b2e3ee183ac259c0d81565b6e170ccc93903185be5a2094c870df6281565b73bb4339c0ab5b1d9f14bd6e3426444a1e9d86a1d981565b60008373ffffffffffffffffffffffffffffffffffffffff1663095ea7b3734a6bc4e803c62081ffebcc8d227b5a87a58f1f8f856040518363ffffffff1660e01b8152600401808373ffffffffffffffffffffffffffffffffffffffff1673ffffffffffffffffffffffffffffffffffffffff16815260200182815260200192505050602060405180830381600087803b158015610d1257600080fd5b505af1158015610d26573d6000803e3d6000fd5b505050506040513d6020811015610d3c57600080fd5b8101908080519060200190929190505050610d5657600080fd5b6000734a6bc4e803c62081ffebcc8d227b5a87a58f1f8f73ffffffffffffffffffffffffffffffffffffffff16630621b4f6868673d0a1e359811322d97991e03f863a0c30c2cf029c60006040518563ffffffff1660e01b8152600401808573ffffffffffffffffffffffffffffffffffffffff1673ffffffffffffffffffffffffffffffffffffffff1681526020018481526020018373ffffffffffffffffffffffffffffffffffffffff1673ffffffffffffffffffffffffffffffffffffffff168152602001828152602001945050505050602060405180830381600087803b158015610e4457600080fd5b505af1158015610e58573d6000803e3d6000fd5b505050506040513d6020811015610e6e57600080fd5b8101908080519060200190929190505050905073d0a1e359811322d97991e03f863a0c30c2cf029c73ffffffffffffffffffffffffffffffffffffffff16632e1a7d4d826040518263ffffffff1660e01b815260040180828152602001915050600060405180830381600087803b158015610ee857600080fd5b505af1158015610efc573d6000803e3d6000fd5b505050503373ffffffffffffffffffffffffffffffffffffffff166108fc829081150290604051600060405180830381858888f19350505050158015610f46573d6000803e3d6000fd5b50809150509392505050565b60008073d0a1e359811322d97991e03f863a0c30c2cf029c73ffffffffffffffffffffffffffffffffffffffff1663095ea7b3734a6bc4e803c62081ffebcc8d227b5a87a58f1f8f876040518363ffffffff1660e01b8152600401808373ffffffffffffffffffffffffffffffffffffffff1673ffffffffffffffffffffffffffffffffffffffff16815260200182815260200192505050602060405180830381600087803b15801561100457600080fd5b505af1158015611018573d6000803e3d6000fd5b505050506040513d602081101561102e57600080fd5b810190808051906020019092919050505061104857600080fd5b73d0a1e359811322d97991e03f863a0c30c2cf029c73ffffffffffffffffffffffffffffffffffffffff1663d0e30db0866040518263ffffffff1660e01b81526004016000604051808303818588803b1580156110a457600080fd5b505af11580156110b8573d6000803e3d6000fd5b50505050506000734a6bc4e803c62081ffebcc8d227b5a87a58f1f8f73ffffffffffffffffffffffffffffffffffffffff16630621b4f673d0a1e359811322d97991e03f863a0c30c2cf029c888860006040518563ffffffff1660e01b8152600401808573ffffffffffffffffffffffffffffffffffffffff1673ffffffffffffffffffffffffffffffffffffffff1681526020018481526020018373ffffffffffffffffffffffffffffffffffffffff1673ffffffffffffffffffffffffffffffffffffffff168152602001828152602001945050505050602060405180830381600087803b1580156111ab57600080fd5b505af11580156111bf573d6000803e3d6000fd5b505050506040513d60208110156111d557600080fd5b810190808051906020019092919050505090508473ffffffffffffffffffffffffffffffffffffffff1663a9059cbb33836040518363ffffffff1660e01b8152600401808373ffffffffffffffffffffffffffffffffffffffff1673ffffffffffffffffffffffffffffffffffffffff16815260200182815260200192505050602060405180830381600087803b15801561126f57600080fd5b505af1158015611283573d6000803e3d6000fd5b505050506040513d602081101561129957600080fd5b8101908080519060200190929190505050508060008090509250925050935093915050565b73823cde416973a19f98bb9c96d97f4fe6c9a7238b81565b73863e41fe88288ebf3fcd91d8dbb679fb83fdfe1781565b7364a436ae831c1672ae81f674cab8b6775df3475c81565b60008073eeeeeeeeeeeeeeeeeeeeeeeeeeeeeeeeeeeeeeee73ffffffffffffffffffffffffffffffffffffffff168573ffffffffffffffffffffffffffffffffffffffff16141561148457611476734a6bc4e803c62081ffebcc8d227b5a87a58f1f8f73ffffffffffffffffffffffffffffffffffffffff1663144a27528673d0a1e359811322d97991e03f863a0c30c2cf029c876040518463ffffffff1660e01b8152600401808473ffffffffffffffffffffffffffffffffffffffff1673ffffffffffffffffffffffffffffffffffffffff1681526020018373ffffffffffffffffffffffffffffffffffffffff1673ffffffffffffffffffffffffffffffffffffffff168152602001828152602001935050505060206040518083038186803b15801561143557600080fd5b505afa158015611449573d6000803e3d6000fd5b505050506040513d602081101561145f57600080fd5b810190808051906020019092919050505084611758565b600080905091509150611600565b73eeeeeeeeeeeeeeeeeeeeeeeeeeeeeeeeeeeeeeee73ffffffffffffffffffffffffffffffffffffffff168473ffffffffffffffffffffffffffffffffffffffff1614156115ff576115f1734a6bc4e803c62081ffebcc8d227b5a87a58f1f8f73ffffffffffffffffffffffffffffffffffffffff1663144a275273d0a1e359811322d97991e03f863a0c30c2cf029c88876040518463ffffffff1660e01b8152600401808473ffffffffffffffffffffffffffffffffffffffff1673ffffffffffffffffffffffffffffffffffffffff1681526020018373ffffffffffffffffffffffffffffffffffffffff1673ffffffffffffffffffffffffffffffffffffffff168152602001828152602001935050505060206040518083038186803b1580156115b057600080fd5b505afa1580156115c4573d6000803e3d6000fd5b505050506040513d60208110156115da57600080fd5b810190808051906020019092919050505084611758565b600080905091509150611600565b5b935093915050565b73aaf64bfcc32d0f15873a02163e7e500671a4ffcd81565b73c72e74e474682680a414b506699bbca44ab9a93081565b7332d0e18f988f952eb3524ace762042381a2c39e581565b73c4375b7de8af5a38a93548eb8453a498222c4ff281565b735595930d576aedf13945c83ce5aad827529a131081565b7325a01a05c188dacbcf1d61af55d4a5b4021f7eed81565b73f5d915570bc477f9b8d6c0e980aa81757a3aac3681565b73f4d791139ce033ad35db2b2201435fad668b1b6481565b73692f391bcc85cefce8c237c01e1f636bbd70ea4d81565b7354b44c6b18fc0b4a1010b21d524c338d1f8065f681565b734ec3570cadaaee08ae384779b0f3a45ef85289de81565b735595930d576aedf13945c83ce5aad827529a131081565b73a71937147b55deb8a530c7229c442fd3f31b7db281565b73b6b09fbffba6a5c4631e5f7b2e3ee183ac259c0d81565b60008161178061177085670de0b6b3a7640000611790565b6002858161177a57fe5b046117bc565b8161178757fe5b04905092915050565b6000808214806117ad57508282838502925082816117aa57fe5b04145b6117b657600080fd5b92915050565b60008282840191508110156117d057600080fd5b9291505056fea165627a7a723058207f99c5df52315599e1460c4cd06857b9e660d87dbe6efbaa42d4489f6fcc52520029",
  "source": "pragma solidity ^0.5.0;\n\nimport \"./interfaces/ERC20.sol\";\nimport \"./interfaces/KyberNetworkProxyInterface.sol\";\nimport \"./interfaces/ExchangeInterface.sol\";\nimport \"./interfaces/Eth2DaiInterface.sol\";\nimport \"./interfaces/TokenInterface.sol\";\nimport \"./DS/DSMath.sol\";\nimport \"./constants/ConstantAddresses.sol\";\n\ncontract Eth2DaiWrapper is ExchangeInterface, DSMath, ConstantAddresses {\n\n\n    function swapEtherToToken (uint _ethAmount, address _tokenAddress, uint _maxAmount) external payable returns(uint, uint) {\n        require(ERC20(WETH_ADDRESS).approve(OTC_ADDRESS, _ethAmount));\n        TokenInterface(WETH_ADDRESS).deposit.value(_ethAmount)();\n\n        uint daiBought = Eth2DaiInterface(OTC_ADDRESS).sellAllAmount(ERC20(WETH_ADDRESS), _ethAmount,\n                 ERC20(_tokenAddress), 0);\n\n        ERC20(_tokenAddress).transfer(msg.sender, daiBought);\n\n        return (daiBought, 0);\n    }\n\n    function swapTokenToEther (address _tokenAddress, uint _amount, uint _maxAmount) external returns(uint) {\n        require(ERC20(_tokenAddress).approve(OTC_ADDRESS, _amount));\n\n        uint ethBought = Eth2DaiInterface(OTC_ADDRESS).sellAllAmount(ERC20(_tokenAddress), _amount,\n         ERC20(WETH_ADDRESS), 0);\n\n        TokenInterface(WETH_ADDRESS).withdraw(ethBought);\n\n        msg.sender.transfer(ethBought);\n\n        return ethBought;\n    }\n\n    function getExpectedRate(address _src, address _dest, uint _srcQty) public view returns (uint, uint) {\n        if(_src == KYBER_ETH_ADDRESS) {\n            return (wdiv(Eth2DaiInterface(OTC_ADDRESS).getBuyAmount(ERC20(_dest), ERC20(WETH_ADDRESS), _srcQty), _srcQty), 0);\n        } else if (_dest == KYBER_ETH_ADDRESS) {\n            return (wdiv(Eth2DaiInterface(OTC_ADDRESS).getBuyAmount(ERC20(WETH_ADDRESS), ERC20(_src), _srcQty), _srcQty), 0);\n        }\n    }\n\n    function() payable external {\n    }\n}\n",
  "sourcePath": "/Users/nikolaklipa/Decenter/defisaver/cdpsaver-contracts/contracts/Eth2DaiWrapper.sol",
  "compiler": {
    "name": "solc",
    "version": "0.5.7+commit.6da8b019.Emscripten.clang"
  },
  "schemaVersion": "3.0.9",
  "updatedAt": "2019-08-12T10:52:18.154Z",
  "devdoc": {
    "methods": {}
  },
  "userdoc": {
    "methods": {}
  }
}