{
  "contractName": "FulcrumSavingsProtocol",
  "abi": [
    {
      "constant": true,
      "inputs": [],
      "name": "WETH_ADDRESS",
      "outputs": [
        {
          "name": "",
          "type": "address"
        }
      ],
      "payable": false,
      "stateMutability": "view",
      "type": "function"
    },
    {
      "constant": true,
      "inputs": [],
      "name": "CDAI_ADDRESS",
      "outputs": [
        {
          "name": "",
          "type": "address"
        }
      ],
      "payable": false,
      "stateMutability": "view",
      "type": "function"
    },
    {
      "constant": false,
      "inputs": [
        {
          "name": "owner_",
          "type": "address"
        }
      ],
      "name": "setOwner",
      "outputs": [],
      "payable": false,
      "stateMutability": "nonpayable",
      "type": "function"
    },
    {
      "constant": true,
      "inputs": [],
      "name": "PIP_INTERFACE_ADDRESS",
      "outputs": [
        {
          "name": "",
          "type": "address"
        }
      ],
      "payable": false,
      "stateMutability": "view",
      "type": "function"
    },
    {
      "constant": true,
      "inputs": [],
      "name": "KYBER_ETH_ADDRESS",
      "outputs": [
        {
          "name": "",
          "type": "address"
        }
      ],
      "payable": false,
      "stateMutability": "view",
      "type": "function"
    },
    {
      "constant": true,
      "inputs": [],
      "name": "OTC_ADDRESS",
      "outputs": [
        {
          "name": "",
          "type": "address"
        }
      ],
      "payable": false,
      "stateMutability": "view",
      "type": "function"
    },
    {
      "constant": true,
      "inputs": [],
      "name": "IDAI_ADDRESS",
      "outputs": [
        {
          "name": "",
          "type": "address"
        }
      ],
      "payable": false,
      "stateMutability": "view",
      "type": "function"
    },
    {
      "constant": true,
      "inputs": [],
      "name": "GAS_TOKEN_INTERFACE_ADDRESS",
      "outputs": [
        {
          "name": "",
          "type": "address"
        }
      ],
      "payable": false,
      "stateMutability": "view",
      "type": "function"
    },
    {
      "constant": true,
      "inputs": [],
      "name": "VOX_ADDRESS",
      "outputs": [
        {
          "name": "",
          "type": "address"
        }
      ],
      "payable": false,
      "stateMutability": "view",
      "type": "function"
    },
    {
      "constant": true,
      "inputs": [],
      "name": "ETH2DAI_WRAPPER",
      "outputs": [
        {
          "name": "",
          "type": "address"
        }
      ],
      "payable": false,
      "stateMutability": "view",
      "type": "function"
    },
    {
      "constant": true,
      "inputs": [],
      "name": "STUPID_EXCHANGE",
      "outputs": [
        {
          "name": "",
          "type": "address"
        }
      ],
      "payable": false,
      "stateMutability": "view",
      "type": "function"
    },
    {
      "constant": true,
      "inputs": [],
      "name": "PROXY_REGISTRY_INTERFACE_ADDRESS",
      "outputs": [
        {
          "name": "",
          "type": "address"
        }
      ],
      "payable": false,
      "stateMutability": "view",
      "type": "function"
    },
    {
      "constant": false,
      "inputs": [
        {
          "name": "authority_",
          "type": "address"
        }
      ],
      "name": "setAuthority",
      "outputs": [],
      "payable": false,
      "stateMutability": "nonpayable",
      "type": "function"
    },
    {
      "constant": true,
      "inputs": [],
      "name": "MKR_ADDRESS",
      "outputs": [
        {
          "name": "",
          "type": "address"
        }
      ],
      "payable": false,
      "stateMutability": "view",
      "type": "function"
    },
    {
      "constant": true,
      "inputs": [],
      "name": "FACTORY_ADDRESS",
      "outputs": [
        {
          "name": "",
          "type": "address"
        }
      ],
      "payable": false,
      "stateMutability": "view",
      "type": "function"
    },
    {
      "constant": true,
      "inputs": [],
      "name": "owner",
      "outputs": [
        {
          "name": "",
          "type": "address"
        }
      ],
      "payable": false,
      "stateMutability": "view",
      "type": "function"
    },
    {
      "constant": true,
      "inputs": [],
      "name": "LOGGER_ADDRESS",
      "outputs": [
        {
          "name": "",
          "type": "address"
        }
      ],
      "payable": false,
      "stateMutability": "view",
      "type": "function"
    },
    {
      "constant": true,
      "inputs": [],
      "name": "MAKER_DAI_ADDRESS",
      "outputs": [
        {
          "name": "",
          "type": "address"
        }
      ],
      "payable": false,
      "stateMutability": "view",
      "type": "function"
    },
    {
      "constant": true,
      "inputs": [],
      "name": "savingsProxy",
      "outputs": [
        {
          "name": "",
          "type": "address"
        }
      ],
      "payable": false,
      "stateMutability": "view",
      "type": "function"
    },
    {
      "constant": true,
      "inputs": [],
      "name": "KYBER_WRAPPER",
      "outputs": [
        {
          "name": "",
          "type": "address"
        }
      ],
      "payable": false,
      "stateMutability": "view",
      "type": "function"
    },
    {
      "constant": true,
      "inputs": [],
      "name": "authority",
      "outputs": [
        {
          "name": "",
          "type": "address"
        }
      ],
      "payable": false,
      "stateMutability": "view",
      "type": "function"
    },
    {
      "constant": true,
      "inputs": [],
      "name": "COMPOUND_DAI_ADDRESS",
      "outputs": [
        {
          "name": "",
          "type": "address"
        }
      ],
      "payable": false,
      "stateMutability": "view",
      "type": "function"
    },
    {
      "constant": true,
      "inputs": [],
      "name": "UNISWAP_FACTORY",
      "outputs": [
        {
          "name": "",
          "type": "address"
        }
      ],
      "payable": false,
      "stateMutability": "view",
      "type": "function"
    },
    {
      "constant": true,
      "inputs": [],
      "name": "PETH_ADDRESS",
      "outputs": [
        {
          "name": "",
          "type": "address"
        }
      ],
      "payable": false,
      "stateMutability": "view",
      "type": "function"
    },
    {
      "constant": true,
      "inputs": [],
      "name": "KYBER_INTERFACE",
      "outputs": [
        {
          "name": "",
          "type": "address"
        }
      ],
      "payable": false,
      "stateMutability": "view",
      "type": "function"
    },
    {
      "constant": true,
      "inputs": [],
      "name": "WALLET_ID",
      "outputs": [
        {
          "name": "",
          "type": "address"
        }
      ],
      "payable": false,
      "stateMutability": "view",
      "type": "function"
    },
    {
      "constant": true,
      "inputs": [],
      "name": "SOLO_MARGIN_ADDRESS",
      "outputs": [
        {
          "name": "",
          "type": "address"
        }
      ],
      "payable": false,
      "stateMutability": "view",
      "type": "function"
    },
    {
      "constant": true,
      "inputs": [],
      "name": "UNISWAP_WRAPPER",
      "outputs": [
        {
          "name": "",
          "type": "address"
        }
      ],
      "payable": false,
      "stateMutability": "view",
      "type": "function"
    },
    {
      "constant": true,
      "inputs": [],
      "name": "TUB_ADDRESS",
      "outputs": [
        {
          "name": "",
          "type": "address"
        }
      ],
      "payable": false,
      "stateMutability": "view",
      "type": "function"
    },
    {
      "anonymous": false,
      "inputs": [
        {
          "indexed": true,
          "name": "authority",
          "type": "address"
        }
      ],
      "name": "LogSetAuthority",
      "type": "event"
    },
    {
      "anonymous": false,
      "inputs": [
        {
          "indexed": true,
          "name": "owner",
          "type": "address"
        }
      ],
      "name": "LogSetOwner",
      "type": "event"
    },
    {
      "constant": false,
      "inputs": [
        {
          "name": "_savingsProxy",
          "type": "address"
        }
      ],
      "name": "addSavingsProxy",
      "outputs": [],
      "payable": false,
      "stateMutability": "nonpayable",
      "type": "function"
    },
    {
      "constant": false,
      "inputs": [
        {
          "name": "_user",
          "type": "address"
        },
        {
          "name": "_amount",
          "type": "uint256"
        }
      ],
      "name": "deposit",
      "outputs": [],
      "payable": false,
      "stateMutability": "nonpayable",
      "type": "function"
    },
    {
      "constant": false,
      "inputs": [
        {
          "name": "_user",
          "type": "address"
        },
        {
          "name": "_amount",
          "type": "uint256"
        }
      ],
      "name": "withdraw",
      "outputs": [],
      "payable": false,
      "stateMutability": "nonpayable",
      "type": "function"
    }
  ],
  "bytecode": "0x608060405233600160006101000a81548173ffffffffffffffffffffffffffffffffffffffff021916908373ffffffffffffffffffffffffffffffffffffffff1602179055503373ffffffffffffffffffffffffffffffffffffffff167fce241d7ca1f669fee44b6fc00b8eba2df3bb514eed0f6f668f8f89096e81ed9460405160405180910390a2611653806100976000396000f3fe608060405234801561001057600080fd5b50600436106101f05760003560e01c80638823151b1161010f578063c74c0fac116100a2578063d36b907d11610071578063d36b907d14610535578063ddaa293c14610553578063f0d405e514610571578063f3fef3a31461058f576101f0565b8063c74c0fac146104bd578063c9fde270146104db578063ce9bde1d146104f9578063d3661fa514610517576101f0565b8063a683668c116100de578063a683668c14610445578063b175afa114610463578063bf7e214f14610481578063c16921b71461049f576101f0565b80638823151b146103cd5780638da5cb5b146103eb57806394bfbe74146104095780639da779e914610427576101f0565b806332ac5cd211610187578063502237d711610156578063502237d714610357578063728c0092146103755780637a9e5e4b14610393578063825ffd92146103af576101f0565b806332ac5cd2146102e157806336e6da11146102ff57806343fb75e81461031d57806347e7ef241461033b576101f0565b80631dab52b0116101c35780631dab52b01461026957806329f7fc9e146102875780632a441f05146102a55780632d5eeb3f146102c3576101f0565b8063040141e5146101f55780630531b2ad146102135780630b6cd37e1461023157806313af40351461024d575b600080fd5b6101fd6105ab565b60405161020a9190611466565b60405180910390f35b61021b6105c3565b6040516102289190611466565b60405180910390f35b61024b6004803603610246919081019061134a565b6105db565b005b6102676004803603610262919081019061134a565b610656565b005b610271610736565b60405161027e9190611466565b60405180910390f35b61028f61074e565b60405161029c9190611466565b60405180910390f35b6102ad610766565b6040516102ba9190611466565b60405180910390f35b6102cb61077e565b6040516102d89190611466565b60405180910390f35b6102e9610796565b6040516102f69190611466565b60405180910390f35b6103076107a9565b6040516103149190611466565b60405180910390f35b6103256107c1565b6040516103329190611466565b60405180910390f35b61035560048036036103509190810190611373565b6107d9565b005b61035f610a39565b60405161036c9190611466565b60405180910390f35b61037d610a51565b60405161038a9190611466565b60405180910390f35b6103ad60048036036103a891908101906113d8565b610a69565b005b6103b7610b47565b6040516103c49190611466565b60405180910390f35b6103d5610b5f565b6040516103e29190611466565b60405180910390f35b6103f3610b77565b6040516104009190611466565b60405180910390f35b610411610b9d565b60405161041e9190611466565b60405180910390f35b61042f610bb5565b60405161043c9190611466565b60405180910390f35b61044d610bcd565b60405161045a9190611466565b60405180910390f35b61046b610bf3565b6040516104789190611466565b60405180910390f35b610489610c0b565b6040516104969190611518565b60405180910390f35b6104a7610c30565b6040516104b49190611466565b60405180910390f35b6104c5610c48565b6040516104d29190611466565b60405180910390f35b6104e3610c60565b6040516104f09190611466565b60405180910390f35b610501610c78565b60405161050e9190611466565b60405180910390f35b61051f610c90565b60405161052c9190611466565b60405180910390f35b61053d610ca8565b60405161054a9190611466565b60405180910390f35b61055b610cc0565b6040516105689190611466565b60405180910390f35b610579610cd8565b6040516105869190611466565b60405180910390f35b6105a960048036036105a49190810190611373565b610cf0565b005b73d0a1e359811322d97991e03f863a0c30c2cf029c81565b73b6b09fbffba6a5c4631e5f7b2e3ee183ac259c0d81565b610609336000357fffffffff0000000000000000000000000000000000000000000000000000000016611132565b61061257600080fd5b80600260006101000a81548173ffffffffffffffffffffffffffffffffffffffff021916908373ffffffffffffffffffffffffffffffffffffffff16021790555050565b610684336000357fffffffff0000000000000000000000000000000000000000000000000000000016611132565b61068d57600080fd5b80600160006101000a81548173ffffffffffffffffffffffffffffffffffffffff021916908373ffffffffffffffffffffffffffffffffffffffff160217905550600160009054906101000a900473ffffffffffffffffffffffffffffffffffffffff1673ffffffffffffffffffffffffffffffffffffffff167fce241d7ca1f669fee44b6fc00b8eba2df3bb514eed0f6f668f8f89096e81ed9460405160405180910390a250565b73a944bd4b25c9f186a846fd5668941aa3d3b8425f81565b73eeeeeeeeeeeeeeeeeeeeeeeeeeeeeeeeeeeeeeee81565b734a6bc4e803c62081ffebcc8d227b5a87a58f1f8f81565b73a1e58f3b1927743393b25f261471e1f2d3d9f0f681565b6e170ccc93903185be5a2094c870df6281565b73bb4339c0ab5b1d9f14bd6e3426444a1e9d86a1d981565b73823cde416973a19f98bb9c96d97f4fe6c9a7238b81565b8173ffffffffffffffffffffffffffffffffffffffff163373ffffffffffffffffffffffffffffffffffffffff161461081157600080fd5b73c4375b7de8af5a38a93548eb8453a498222c4ff273ffffffffffffffffffffffffffffffffffffffff166323b872dd8330846040518463ffffffff1660e01b8152600401610862939291906114b8565b602060405180830381600087803b15801561087c57600080fd5b505af1158015610890573d6000803e3d6000fd5b505050506040513d601f19601f820116820180604052506108b491908101906113af565b6108bd57600080fd5b73c4375b7de8af5a38a93548eb8453a498222c4ff273ffffffffffffffffffffffffffffffffffffffff1663095ea7b373a1e58f3b1927743393b25f261471e1f2d3d9f0f67fffffffffffffffffffffffffffffffffffffffffffffffffffffffffffffffff6040518363ffffffff1660e01b81526004016109409291906114ef565b602060405180830381600087803b15801561095a57600080fd5b505af115801561096e573d6000803e3d6000fd5b505050506040513d601f19601f8201168201806040525061099291908101906113af565b5073a1e58f3b1927743393b25f261471e1f2d3d9f0f673ffffffffffffffffffffffffffffffffffffffff166340c10f1983836040518363ffffffff1660e01b81526004016109e29291906114ef565b602060405180830381600087803b1580156109fc57600080fd5b505af1158015610a10573d6000803e3d6000fd5b505050506040513d601f19601f82011682018060405250610a349190810190611401565b505050565b73863e41fe88288ebf3fcd91d8dbb679fb83fdfe1781565b7364a436ae831c1672ae81f674cab8b6775df3475c81565b610a97336000357fffffffff0000000000000000000000000000000000000000000000000000000016611132565b610aa057600080fd5b806000806101000a81548173ffffffffffffffffffffffffffffffffffffffff021916908373ffffffffffffffffffffffffffffffffffffffff1602179055506000809054906101000a900473ffffffffffffffffffffffffffffffffffffffff1673ffffffffffffffffffffffffffffffffffffffff167f1abebea81bfa2637f28358c371278fb15ede7ea8dd28d2e03b112ff6d936ada460405160405180910390a250565b73aaf64bfcc32d0f15873a02163e7e500671a4ffcd81565b73c72e74e474682680a414b506699bbca44ab9a93081565b600160009054906101000a900473ffffffffffffffffffffffffffffffffffffffff1681565b7332d0e18f988f952eb3524ace762042381a2c39e581565b73c4375b7de8af5a38a93548eb8453a498222c4ff281565b600260009054906101000a900473ffffffffffffffffffffffffffffffffffffffff1681565b735595930d576aedf13945c83ce5aad827529a131081565b6000809054906101000a900473ffffffffffffffffffffffffffffffffffffffff1681565b7325a01a05c188dacbcf1d61af55d4a5b4021f7eed81565b73f5d915570bc477f9b8d6c0e980aa81757a3aac3681565b73f4d791139ce033ad35db2b2201435fad668b1b6481565b73692f391bcc85cefce8c237c01e1f636bbd70ea4d81565b7354b44c6b18fc0b4a1010b21d524c338d1f8065f681565b734ec3570cadaaee08ae384779b0f3a45ef85289de81565b735595930d576aedf13945c83ce5aad827529a131081565b73a71937147b55deb8a530c7229c442fd3f31b7db281565b8173ffffffffffffffffffffffffffffffffffffffff163373ffffffffffffffffffffffffffffffffffffffff1614610d2857600080fd5b73a1e58f3b1927743393b25f261471e1f2d3d9f0f673ffffffffffffffffffffffffffffffffffffffff166323b872dd833073a1e58f3b1927743393b25f261471e1f2d3d9f0f673ffffffffffffffffffffffffffffffffffffffff166370a08231876040518263ffffffff1660e01b8152600401610da79190611466565b60206040518083038186803b158015610dbf57600080fd5b505afa158015610dd3573d6000803e3d6000fd5b505050506040513d601f19601f82011682018060405250610df79190810190611401565b6040518463ffffffff1660e01b8152600401610e15939291906114b8565b602060405180830381600087803b158015610e2f57600080fd5b505af1158015610e43573d6000803e3d6000fd5b505050506040513d601f19601f82011682018060405250610e6791908101906113af565b610e7057600080fd5b73a1e58f3b1927743393b25f261471e1f2d3d9f0f673ffffffffffffffffffffffffffffffffffffffff1663095ea7b373a1e58f3b1927743393b25f261471e1f2d3d9f0f67fffffffffffffffffffffffffffffffffffffffffffffffffffffffffffffffff6040518363ffffffff1660e01b8152600401610ef39291906114ef565b602060405180830381600087803b158015610f0d57600080fd5b505af1158015610f21573d6000803e3d6000fd5b505050506040513d601f19601f82011682018060405250610f4591908101906113af565b5073a1e58f3b1927743393b25f261471e1f2d3d9f0f673ffffffffffffffffffffffffffffffffffffffff16639dc29fac83836040518363ffffffff1660e01b8152600401610f959291906114ef565b602060405180830381600087803b158015610faf57600080fd5b505af1158015610fc3573d6000803e3d6000fd5b505050506040513d601f19601f82011682018060405250610fe79190810190611401565b5073a1e58f3b1927743393b25f261471e1f2d3d9f0f673ffffffffffffffffffffffffffffffffffffffff1663a9059cbb8373a1e58f3b1927743393b25f261471e1f2d3d9f0f673ffffffffffffffffffffffffffffffffffffffff166370a08231306040518263ffffffff1660e01b81526004016110669190611466565b60206040518083038186803b15801561107e57600080fd5b505afa158015611092573d6000803e3d6000fd5b505050506040513d601f19601f820116820180604052506110b69190810190611401565b6040518363ffffffff1660e01b81526004016110d39291906114ef565b602060405180830381600087803b1580156110ed57600080fd5b505af1158015611101573d6000803e3d6000fd5b505050506040513d601f19601f8201168201806040525061112591908101906113af565b61112e57600080fd5b5050565b60003073ffffffffffffffffffffffffffffffffffffffff168373ffffffffffffffffffffffffffffffffffffffff16141561117157600190506112e0565b600160009054906101000a900473ffffffffffffffffffffffffffffffffffffffff1673ffffffffffffffffffffffffffffffffffffffff168373ffffffffffffffffffffffffffffffffffffffff1614156111d057600190506112e0565b600073ffffffffffffffffffffffffffffffffffffffff166000809054906101000a900473ffffffffffffffffffffffffffffffffffffffff1673ffffffffffffffffffffffffffffffffffffffff16141561122f57600090506112e0565b6000809054906101000a900473ffffffffffffffffffffffffffffffffffffffff1673ffffffffffffffffffffffffffffffffffffffff1663b70096138430856040518463ffffffff1660e01b815260040161128d93929190611481565b60206040518083038186803b1580156112a557600080fd5b505afa1580156112b9573d6000803e3d6000fd5b505050506040513d601f19601f820116820180604052506112dd91908101906113af565b90505b92915050565b60006112f2823561159b565b905092915050565b600061130682516115ad565b905092915050565b600061131a82356115b9565b905092915050565b600061132e82356115eb565b905092915050565b600061134282516115eb565b905092915050565b60006020828403121561135c57600080fd5b600061136a848285016112e6565b91505092915050565b6000806040838503121561138657600080fd5b6000611394858286016112e6565b92505060206113a585828601611322565b9150509250929050565b6000602082840312156113c157600080fd5b60006113cf848285016112fa565b91505092915050565b6000602082840312156113ea57600080fd5b60006113f88482850161130e565b91505092915050565b60006020828403121561141357600080fd5b600061142184828501611336565b91505092915050565b61143381611533565b82525050565b61144281611545565b82525050565b611451816115f5565b82525050565b61146081611591565b82525050565b600060208201905061147b600083018461142a565b92915050565b6000606082019050611496600083018661142a565b6114a3602083018561142a565b6114b06040830184611439565b949350505050565b60006060820190506114cd600083018661142a565b6114da602083018561142a565b6114e76040830184611457565b949350505050565b6000604082019050611504600083018561142a565b6115116020830184611457565b9392505050565b600060208201905061152d6000830184611448565b92915050565b600061153e82611571565b9050919050565b60007fffffffff0000000000000000000000000000000000000000000000000000000082169050919050565b600073ffffffffffffffffffffffffffffffffffffffff82169050919050565b6000819050919050565b60006115a6826115cb565b9050919050565b60008115159050919050565b60006115c48261159b565b9050919050565b600073ffffffffffffffffffffffffffffffffffffffff82169050919050565b6000819050919050565b600061160082611607565b9050919050565b600061161282611571565b905091905056fea265627a7a72305820a21798ce437d454fd4e479597556404ccd09f443df45dc09bbb115980c89c8186c6578706572696d656e74616cf50037",
  "source": "pragma solidity ^0.5.0;\npragma experimental ABIEncoderV2;\n\nimport \"../ProtocolInterface.sol\";\nimport \"../../interfaces/ERC20.sol\";\nimport \"../../interfaces/ITokenInterface.sol\";\nimport \"../../constants/ConstantAddresses.sol\";\nimport \"../../DS/DSAuth.sol\";\n\ncontract FulcrumSavingsProtocol is ProtocolInterface, ConstantAddresses, DSAuth {\n\n    address public savingsProxy;\n\n    function addSavingsProxy(address _savingsProxy) public auth {\n        savingsProxy = _savingsProxy;\n    }\n\n    function deposit(address _user, uint _amount) public {\n        require(msg.sender == _user);\n\n        // get dai from user\n        require(ERC20(MAKER_DAI_ADDRESS).transferFrom(_user, address(this), _amount));\n\n        // approve dai to Fulcrum\n        ERC20(MAKER_DAI_ADDRESS).approve(IDAI_ADDRESS, uint(-1));\n\n        // mint iDai\n        ITokenInterface(IDAI_ADDRESS).mint(_user, _amount);\n    }\n\n    function withdraw(address _user, uint _amount) public {\n        require(msg.sender == _user);\n\n        // transfer all users tokens to our contract\n        require(ERC20(IDAI_ADDRESS).transferFrom(_user, address(this), ITokenInterface(IDAI_ADDRESS).balanceOf(_user)));\n\n        // approve iDai to that contract\n        ERC20(IDAI_ADDRESS).approve(IDAI_ADDRESS, uint(-1));\n\n        // get dai from iDai contract\n        ITokenInterface(IDAI_ADDRESS).burn(_user, _amount);\n\n        // return all remaining tokens back to user\n        require(ERC20(IDAI_ADDRESS).transfer(_user, ITokenInterface(IDAI_ADDRESS).balanceOf(address(this))));\n    }\n}\n",
  "sourcePath": "/Users/nikolaklipa/Decenter/defisaver/cdpsaver-contracts/contracts/savings/fulcrum/FulcrumSavingsProtocol.sol",
  "compiler": {
    "name": "solc",
    "version": "0.5.7+commit.6da8b019.Emscripten.clang"
  },
  "schemaVersion": "3.0.11",
  "updatedAt": "2019-08-16T13:11:37.591Z",
  "devdoc": {
    "methods": {}
  },
  "userdoc": {
    "methods": {}
  }
}