{
  "contractName": "FulcrumSavingsProtocol",
  "abi": [
    {
      "constant": true,
      "inputs": [],
      "name": "IDAI_ADDRESS",
      "outputs": [
        {
          "name": "",
          "type": "address"
        }
      ],
      "payable": false,
      "stateMutability": "view",
      "type": "function"
    },
    {
      "constant": true,
      "inputs": [],
      "name": "MAKER_DAI_ADDRESS",
      "outputs": [
        {
          "name": "",
          "type": "address"
        }
      ],
      "payable": false,
      "stateMutability": "view",
      "type": "function"
    },
    {
      "constant": true,
      "inputs": [],
      "name": "savingsProxy",
      "outputs": [
        {
          "name": "",
          "type": "address"
        }
      ],
      "payable": false,
      "stateMutability": "view",
      "type": "function"
    },
    {
      "inputs": [
        {
          "name": "_savingsProxy",
          "type": "address"
        }
      ],
      "payable": false,
      "stateMutability": "nonpayable",
      "type": "constructor"
    },
    {
      "constant": false,
      "inputs": [
        {
          "name": "_user",
          "type": "address"
        },
        {
          "name": "_amount",
          "type": "uint256"
        }
      ],
      "name": "deposit",
      "outputs": [],
      "payable": false,
      "stateMutability": "nonpayable",
      "type": "function"
    },
    {
      "constant": false,
      "inputs": [
        {
          "name": "_user",
          "type": "address"
        },
        {
          "name": "_amount",
          "type": "uint256"
        }
      ],
      "name": "withdraw",
      "outputs": [],
      "payable": false,
      "stateMutability": "nonpayable",
      "type": "function"
    }
  ],
  "bytecode": "0x608060405234801561001057600080fd5b50604051602080610b4f833981018060405261002f9190810190610089565b806000806101000a81548173ffffffffffffffffffffffffffffffffffffffff021916908373ffffffffffffffffffffffffffffffffffffffff160217905550506100e4565b600061008182516100b2565b905092915050565b60006020828403121561009b57600080fd5b60006100a984828501610075565b91505092915050565b60006100bd826100c4565b9050919050565b600073ffffffffffffffffffffffffffffffffffffffff82169050919050565b610a5c806100f36000396000f3fe608060405234801561001057600080fd5b50600436106100575760003560e01c80632d5eeb3f1461005c57806347e7ef241461007a5780639da779e914610096578063a683668c146100b4578063f3fef3a3146100d2575b600080fd5b6100646100ee565b6040516100719190610923565b60405180910390f35b610094600480360361008f9190810190610877565b610106565b005b61009e610387565b6040516100ab9190610923565b60405180910390f35b6100bc61039f565b6040516100c99190610923565b60405180910390f35b6100ec60048036036100e79190810190610877565b6103c4565b005b7314094949152eddbfcd073717200da82fed8dc96081565b6000809054906101000a900473ffffffffffffffffffffffffffffffffffffffff1673ffffffffffffffffffffffffffffffffffffffff163373ffffffffffffffffffffffffffffffffffffffff161461015f57600080fd5b7389d24a6b4ccb1b6faa2625fe562bdd9a2326035973ffffffffffffffffffffffffffffffffffffffff166323b872dd8330846040518463ffffffff1660e01b81526004016101b09392919061093e565b602060405180830381600087803b1580156101ca57600080fd5b505af11580156101de573d6000803e3d6000fd5b505050506040513d601f19601f8201168201806040525061020291908101906108b3565b61020b57600080fd5b7389d24a6b4ccb1b6faa2625fe562bdd9a2326035973ffffffffffffffffffffffffffffffffffffffff1663095ea7b37314094949152eddbfcd073717200da82fed8dc9607fffffffffffffffffffffffffffffffffffffffffffffffffffffffffffffffff6040518363ffffffff1660e01b815260040161028e929190610975565b602060405180830381600087803b1580156102a857600080fd5b505af11580156102bc573d6000803e3d6000fd5b505050506040513d601f19601f820116820180604052506102e091908101906108b3565b507314094949152eddbfcd073717200da82fed8dc96073ffffffffffffffffffffffffffffffffffffffff166340c10f1983836040518363ffffffff1660e01b8152600401610330929190610975565b602060405180830381600087803b15801561034a57600080fd5b505af115801561035e573d6000803e3d6000fd5b505050506040513d601f19601f8201168201806040525061038291908101906108dc565b505050565b7389d24a6b4ccb1b6faa2625fe562bdd9a2326035981565b6000809054906101000a900473ffffffffffffffffffffffffffffffffffffffff1681565b6000809054906101000a900473ffffffffffffffffffffffffffffffffffffffff1673ffffffffffffffffffffffffffffffffffffffff163373ffffffffffffffffffffffffffffffffffffffff161461041d57600080fd5b7314094949152eddbfcd073717200da82fed8dc96073ffffffffffffffffffffffffffffffffffffffff166323b872dd83307314094949152eddbfcd073717200da82fed8dc96073ffffffffffffffffffffffffffffffffffffffff166370a08231876040518263ffffffff1660e01b815260040161049c9190610923565b60206040518083038186803b1580156104b457600080fd5b505afa1580156104c8573d6000803e3d6000fd5b505050506040513d601f19601f820116820180604052506104ec91908101906108dc565b6040518463ffffffff1660e01b815260040161050a9392919061093e565b602060405180830381600087803b15801561052457600080fd5b505af1158015610538573d6000803e3d6000fd5b505050506040513d601f19601f8201168201806040525061055c91908101906108b3565b61056557600080fd5b7314094949152eddbfcd073717200da82fed8dc96073ffffffffffffffffffffffffffffffffffffffff1663095ea7b37314094949152eddbfcd073717200da82fed8dc9607fffffffffffffffffffffffffffffffffffffffffffffffffffffffffffffffff6040518363ffffffff1660e01b81526004016105e8929190610975565b602060405180830381600087803b15801561060257600080fd5b505af1158015610616573d6000803e3d6000fd5b505050506040513d601f19601f8201168201806040525061063a91908101906108b3565b507314094949152eddbfcd073717200da82fed8dc96073ffffffffffffffffffffffffffffffffffffffff16639dc29fac83836040518363ffffffff1660e01b815260040161068a929190610975565b602060405180830381600087803b1580156106a457600080fd5b505af11580156106b8573d6000803e3d6000fd5b505050506040513d601f19601f820116820180604052506106dc91908101906108dc565b507314094949152eddbfcd073717200da82fed8dc96073ffffffffffffffffffffffffffffffffffffffff1663a9059cbb837314094949152eddbfcd073717200da82fed8dc96073ffffffffffffffffffffffffffffffffffffffff166370a08231306040518263ffffffff1660e01b815260040161075b9190610923565b60206040518083038186803b15801561077357600080fd5b505afa158015610787573d6000803e3d6000fd5b505050506040513d601f19601f820116820180604052506107ab91908101906108dc565b6040518363ffffffff1660e01b81526004016107c8929190610975565b602060405180830381600087803b1580156107e257600080fd5b505af11580156107f6573d6000803e3d6000fd5b505050506040513d601f19601f8201168201806040525061081a91908101906108b3565b61082357600080fd5b5050565b600061083382356109da565b905092915050565b600061084782516109ec565b905092915050565b600061085b8235610a18565b905092915050565b600061086f8251610a18565b905092915050565b6000806040838503121561088a57600080fd5b600061089885828601610827565b92505060206108a98582860161084f565b9150509250929050565b6000602082840312156108c557600080fd5b60006108d38482850161083b565b91505092915050565b6000602082840312156108ee57600080fd5b60006108fc84828501610863565b91505092915050565b61090e8161099e565b82525050565b61091d816109d0565b82525050565b60006020820190506109386000830184610905565b92915050565b60006060820190506109536000830186610905565b6109606020830185610905565b61096d6040830184610914565b949350505050565b600060408201905061098a6000830185610905565b6109976020830184610914565b9392505050565b60006109a9826109b0565b9050919050565b600073ffffffffffffffffffffffffffffffffffffffff82169050919050565b6000819050919050565b60006109e5826109f8565b9050919050565b60008115159050919050565b600073ffffffffffffffffffffffffffffffffffffffff82169050919050565b600081905091905056fea265627a7a723058207f55855a7161152a1949f31f4728fbe71f3373ad7662572fa4ac430c2119dcec6c6578706572696d656e74616cf50037",
  "source": "pragma solidity ^0.5.0;\npragma experimental ABIEncoderV2;\n\nimport \"../ProtocolInterface.sol\";\nimport \"../../interfaces/ERC20.sol\";\n\ncontract ITokenInterface {\n    function mint(address receiver, uint256 depositAmount) external returns(uint256 mintAmount);\n    function burn(address receiver, uint256 burnAmount) external returns(uint256 loanAmountPaid);\n    function balanceOf(address _owner) external view returns (uint balance);\n}\n\ncontract FulcrumSavingsProtocol is ProtocolInterface {\n\n    // kovan\n    // address public constant MAKER_DAI_ADDRESS = 0xC4375B7De8af5a38a93548eb8453a498222C4fF2;\n    // address public constant IDAI_ADDRESS = 0xb6b09fBffBa6A5C4631e5F7B2e3Ee183aC259c0d;\n\n    // mainnet\n    address public constant MAKER_DAI_ADDRESS = 0x89d24A6b4CcB1B6fAA2625fE562bDD9a23260359;\n    address public constant IDAI_ADDRESS = 0x14094949152EDDBFcd073717200DA82fEd8dC960;\n\n    address public savingsProxy;\n\n    constructor(address _savingsProxy) public {\n        savingsProxy = _savingsProxy;\n    }\n\n    function deposit(address _user, uint _amount) public {\n        require(msg.sender == savingsProxy);\n\n        // get dai from user\n        require(ERC20(MAKER_DAI_ADDRESS).transferFrom(_user, address(this), _amount));\n\n        // approve dai to Fulcrum\n        ERC20(MAKER_DAI_ADDRESS).approve(IDAI_ADDRESS, uint(-1));\n\n        // mint iDai\n        ITokenInterface(IDAI_ADDRESS).mint(_user, _amount);\n    }\n\n    function withdraw(address _user, uint _amount) public {\n        require(msg.sender == savingsProxy);\n\n        // transfer all users tokens to our contract\n        require(ERC20(IDAI_ADDRESS).transferFrom(_user, address(this), ITokenInterface(IDAI_ADDRESS).balanceOf(_user)));\n\n        // approve iDai to that contract\n        ERC20(IDAI_ADDRESS).approve(IDAI_ADDRESS, uint(-1));\n\n        // get dai from iDai contract\n        ITokenInterface(IDAI_ADDRESS).burn(_user, _amount);\n\n        // return all remaining tokens back to user\n        require(ERC20(IDAI_ADDRESS).transfer(_user, ITokenInterface(IDAI_ADDRESS).balanceOf(address(this))));\n    }\n}\n",
  "sourcePath": "/Users/nikolaklipa/Decenter/defisaver/cdpsaver-contracts/contracts/savings/fulcrum/FulcrumSavingsProtocol.sol",
  "compiler": {
    "name": "solc",
    "version": "0.5.7+commit.6da8b019.Emscripten.clang"
  },
  "schemaVersion": "3.0.9",
  "updatedAt": "2019-08-08T19:13:24.768Z",
  "devdoc": {
    "methods": {}
  },
  "userdoc": {
    "methods": {}
  }
}