{
  "contractName": "FulcrumSavingsProtocol",
  "abi": [
    {
      "constant": true,
      "inputs": [],
      "name": "IDAI_ADDRESS",
      "outputs": [
        {
          "name": "",
          "type": "address"
        }
      ],
      "payable": false,
      "stateMutability": "view",
      "type": "function"
    },
    {
      "constant": true,
      "inputs": [],
      "name": "MAKER_DAI_ADDRESS",
      "outputs": [
        {
          "name": "",
          "type": "address"
        }
      ],
      "payable": false,
      "stateMutability": "view",
      "type": "function"
    },
    {
      "constant": false,
      "inputs": [
        {
          "name": "_user",
          "type": "address"
        },
        {
          "name": "_amount",
          "type": "uint256"
        }
      ],
      "name": "deposit",
      "outputs": [],
      "payable": false,
      "stateMutability": "nonpayable",
      "type": "function"
    },
    {
      "constant": false,
      "inputs": [
        {
          "name": "_user",
          "type": "address"
        },
        {
          "name": "_amount",
          "type": "uint256"
        }
      ],
      "name": "withdraw",
      "outputs": [],
      "payable": false,
      "stateMutability": "nonpayable",
      "type": "function"
    }
  ],
  "bytecode": "0x608060405234801561001057600080fd5b5061095c806100206000396000f3fe608060405234801561001057600080fd5b506004361061004c5760003560e01c80632d5eeb3f1461005157806347e7ef241461006f5780639da779e91461008b578063f3fef3a3146100a9575b600080fd5b6100596100c5565b6040516100669190610823565b60405180910390f35b61008960048036036100849190810190610777565b6100dd565b005b610093610305565b6040516100a09190610823565b60405180910390f35b6100c360048036036100be9190810190610777565b61031d565b005b7314094949152eddbfcd073717200da82fed8dc96081565b7389d24a6b4ccb1b6faa2625fe562bdd9a2326035973ffffffffffffffffffffffffffffffffffffffff166323b872dd8330846040518463ffffffff1660e01b815260040161012e9392919061083e565b602060405180830381600087803b15801561014857600080fd5b505af115801561015c573d6000803e3d6000fd5b505050506040513d601f19601f8201168201806040525061018091908101906107b3565b61018957600080fd5b7389d24a6b4ccb1b6faa2625fe562bdd9a2326035973ffffffffffffffffffffffffffffffffffffffff1663095ea7b37314094949152eddbfcd073717200da82fed8dc9607fffffffffffffffffffffffffffffffffffffffffffffffffffffffffffffffff6040518363ffffffff1660e01b815260040161020c929190610875565b602060405180830381600087803b15801561022657600080fd5b505af115801561023a573d6000803e3d6000fd5b505050506040513d601f19601f8201168201806040525061025e91908101906107b3565b507314094949152eddbfcd073717200da82fed8dc96073ffffffffffffffffffffffffffffffffffffffff166340c10f1983836040518363ffffffff1660e01b81526004016102ae929190610875565b602060405180830381600087803b1580156102c857600080fd5b505af11580156102dc573d6000803e3d6000fd5b505050506040513d601f19601f8201168201806040525061030091908101906107dc565b505050565b7389d24a6b4ccb1b6faa2625fe562bdd9a2326035981565b7314094949152eddbfcd073717200da82fed8dc96073ffffffffffffffffffffffffffffffffffffffff166323b872dd83307314094949152eddbfcd073717200da82fed8dc96073ffffffffffffffffffffffffffffffffffffffff166370a08231876040518263ffffffff1660e01b815260040161039c9190610823565b60206040518083038186803b1580156103b457600080fd5b505afa1580156103c8573d6000803e3d6000fd5b505050506040513d601f19601f820116820180604052506103ec91908101906107dc565b6040518463ffffffff1660e01b815260040161040a9392919061083e565b602060405180830381600087803b15801561042457600080fd5b505af1158015610438573d6000803e3d6000fd5b505050506040513d601f19601f8201168201806040525061045c91908101906107b3565b61046557600080fd5b7314094949152eddbfcd073717200da82fed8dc96073ffffffffffffffffffffffffffffffffffffffff1663095ea7b37314094949152eddbfcd073717200da82fed8dc9607fffffffffffffffffffffffffffffffffffffffffffffffffffffffffffffffff6040518363ffffffff1660e01b81526004016104e8929190610875565b602060405180830381600087803b15801561050257600080fd5b505af1158015610516573d6000803e3d6000fd5b505050506040513d601f19601f8201168201806040525061053a91908101906107b3565b507314094949152eddbfcd073717200da82fed8dc96073ffffffffffffffffffffffffffffffffffffffff16639dc29fac83836040518363ffffffff1660e01b815260040161058a929190610875565b602060405180830381600087803b1580156105a457600080fd5b505af11580156105b8573d6000803e3d6000fd5b505050506040513d601f19601f820116820180604052506105dc91908101906107dc565b507314094949152eddbfcd073717200da82fed8dc96073ffffffffffffffffffffffffffffffffffffffff1663a9059cbb837314094949152eddbfcd073717200da82fed8dc96073ffffffffffffffffffffffffffffffffffffffff166370a08231306040518263ffffffff1660e01b815260040161065b9190610823565b60206040518083038186803b15801561067357600080fd5b505afa158015610687573d6000803e3d6000fd5b505050506040513d601f19601f820116820180604052506106ab91908101906107dc565b6040518363ffffffff1660e01b81526004016106c8929190610875565b602060405180830381600087803b1580156106e257600080fd5b505af11580156106f6573d6000803e3d6000fd5b505050506040513d601f19601f8201168201806040525061071a91908101906107b3565b61072357600080fd5b5050565b600061073382356108da565b905092915050565b600061074782516108ec565b905092915050565b600061075b8235610918565b905092915050565b600061076f8251610918565b905092915050565b6000806040838503121561078a57600080fd5b600061079885828601610727565b92505060206107a98582860161074f565b9150509250929050565b6000602082840312156107c557600080fd5b60006107d38482850161073b565b91505092915050565b6000602082840312156107ee57600080fd5b60006107fc84828501610763565b91505092915050565b61080e8161089e565b82525050565b61081d816108d0565b82525050565b60006020820190506108386000830184610805565b92915050565b60006060820190506108536000830186610805565b6108606020830185610805565b61086d6040830184610814565b949350505050565b600060408201905061088a6000830185610805565b6108976020830184610814565b9392505050565b60006108a9826108b0565b9050919050565b600073ffffffffffffffffffffffffffffffffffffffff82169050919050565b6000819050919050565b60006108e5826108f8565b9050919050565b60008115159050919050565b600073ffffffffffffffffffffffffffffffffffffffff82169050919050565b600081905091905056fea265627a7a723058206a35fff3a289eecd672ce385b58c62fbab636fe9d752feebbcf55e0476c661c86c6578706572696d656e74616cf50037",
  "source": "pragma solidity ^0.5.0;\npragma experimental ABIEncoderV2;\n\nimport \"../ProtocolInterface.sol\";\nimport \"../../interfaces/ERC20.sol\";\n\ncontract ITokenInterface {\n    function mint(address receiver, uint256 depositAmount) external returns(uint256 mintAmount);\n    function burn(address receiver, uint256 burnAmount) external returns(uint256 loanAmountPaid);\n    function balanceOf(address _owner) external view returns (uint balance);\n}\n\ncontract FulcrumSavingsProtocol is ProtocolInterface {\n\n    // kovan\n    // address public constant MAKER_DAI_ADDRESS = 0xC4375B7De8af5a38a93548eb8453a498222C4fF2;\n    // address public constant IDAI_ADDRESS = 0xb6b09fBffBa6A5C4631e5F7B2e3Ee183aC259c0d;\n\n    // mainnet\n    address public constant MAKER_DAI_ADDRESS = 0x89d24A6b4CcB1B6fAA2625fE562bDD9a23260359;\n    address public constant IDAI_ADDRESS = 0x14094949152EDDBFcd073717200DA82fEd8dC960;\n\n    function deposit(address _user, uint _amount) public {\n        // get dai from user\n        require(ERC20(MAKER_DAI_ADDRESS).transferFrom(_user, address(this), _amount));\n\n        // approve dai to Fulcrum\n        ERC20(MAKER_DAI_ADDRESS).approve(IDAI_ADDRESS, uint(-1));\n\n        // mint iDai\n        ITokenInterface(IDAI_ADDRESS).mint(_user, _amount);\n    }\n\n    function withdraw(address _user, uint _amount) public {\n        // transfer all users tokens to our contract\n        require(ERC20(IDAI_ADDRESS).transferFrom(_user, address(this), ITokenInterface(IDAI_ADDRESS).balanceOf(_user)));\n\n        // approve iDai to that contract\n        ERC20(IDAI_ADDRESS).approve(IDAI_ADDRESS, uint(-1));\n\n        // get dai from iDai contract\n        ITokenInterface(IDAI_ADDRESS).burn(_user, _amount);\n\n        // return all remaining tokens back to user\n        require(ERC20(IDAI_ADDRESS).transfer(_user, ITokenInterface(IDAI_ADDRESS).balanceOf(address(this))));\n    }\n}\n",
  "sourcePath": "/Users/nikolaklipa/Decenter/defisaver/cdpsaver-contracts/contracts/savings/fulcrum/FulcrumSavingsProtocol.sol",
  "compiler": {
    "name": "solc",
    "version": "0.5.7+commit.6da8b019.Emscripten.clang"
  },
  "schemaVersion": "3.0.9",
  "updatedAt": "2019-08-08T17:51:31.885Z",
  "devdoc": {
    "methods": {}
  },
  "userdoc": {
    "methods": {}
  }
}