{
  "contractName": "KyberWrapper",
  "abi": [
    {
      "payable": true,
      "stateMutability": "payable",
      "type": "fallback"
    },
    {
      "constant": false,
      "inputs": [
        {
          "name": "_ethAmount",
          "type": "uint256"
        },
        {
          "name": "_tokenAddress",
          "type": "address"
        },
        {
          "name": "_maxAmount",
          "type": "uint256"
        }
      ],
      "name": "swapEtherToToken",
      "outputs": [
        {
          "name": "",
          "type": "uint256"
        },
        {
          "name": "",
          "type": "uint256"
        }
      ],
      "payable": true,
      "stateMutability": "payable",
      "type": "function"
    },
    {
      "constant": false,
      "inputs": [
        {
          "name": "_tokenAddress",
          "type": "address"
        },
        {
          "name": "_amount",
          "type": "uint256"
        },
        {
          "name": "_maxAmount",
          "type": "uint256"
        }
      ],
      "name": "swapTokenToEther",
      "outputs": [
        {
          "name": "",
          "type": "uint256"
        }
      ],
      "payable": false,
      "stateMutability": "nonpayable",
      "type": "function"
    },
    {
      "constant": true,
      "inputs": [
        {
          "name": "_src",
          "type": "address"
        },
        {
          "name": "_dest",
          "type": "address"
        },
        {
          "name": "_srcQty",
          "type": "uint256"
        }
      ],
      "name": "getExpectedRate",
      "outputs": [
        {
          "name": "",
          "type": "uint256"
        },
        {
          "name": "",
          "type": "uint256"
        }
      ],
      "payable": false,
      "stateMutability": "view",
      "type": "function"
    }
  ],
  "bytecode": "0x608060405234801561001057600080fd5b50610aa1806100206000396000f3fe6080604052600436106100345760003560e01c80633bba21dc1461003657806343ac1dc6146100af578063809a9e5514610122575b005b34801561004257600080fd5b506100996004803603606081101561005957600080fd5b81019080803573ffffffffffffffffffffffffffffffffffffffff16906020019092919080359060200190929190803590602001909291905050506101b8565b6040518082815260200191505060405180910390f35b610105600480360360608110156100c557600080fd5b8101908080359060200190929190803573ffffffffffffffffffffffffffffffffffffffff16906020019092919080359060200190929190505050610619565b604051808381526020018281526020019250505060405180910390f35b34801561012e57600080fd5b5061019b6004803603606081101561014557600080fd5b81019080803573ffffffffffffffffffffffffffffffffffffffff169060200190929190803573ffffffffffffffffffffffffffffffffffffffff16906020019092919080359060200190929190505050610955565b604051808381526020018281526020019250505060405180910390f35b600080600073eeeeeeeeeeeeeeeeeeeeeeeeeeeeeeeeeeeeeeee90506000869050600073692f391bcc85cefce8c237c01e1f636bbd70ea4d90508073ffffffffffffffffffffffffffffffffffffffff1663809a9e5583858a6040518463ffffffff1660e01b8152600401808473ffffffffffffffffffffffffffffffffffffffff1673ffffffffffffffffffffffffffffffffffffffff1681526020018373ffffffffffffffffffffffffffffffffffffffff1673ffffffffffffffffffffffffffffffffffffffff1681526020018281526020019350505050604080518083038186803b1580156102aa57600080fd5b505afa1580156102be573d6000803e3d6000fd5b505050506040513d60408110156102d457600080fd5b8101908080519060200190929190805190602001909291905050509050809450508173ffffffffffffffffffffffffffffffffffffffff1663095ea7b38260006040518363ffffffff1660e01b8152600401808373ffffffffffffffffffffffffffffffffffffffff1673ffffffffffffffffffffffffffffffffffffffff16815260200182815260200192505050602060405180830381600087803b15801561037d57600080fd5b505af1158015610391573d6000803e3d6000fd5b505050506040513d60208110156103a757600080fd5b81019080805190602001909291905050506103c157600080fd5b8173ffffffffffffffffffffffffffffffffffffffff1663095ea7b382896040518363ffffffff1660e01b8152600401808373ffffffffffffffffffffffffffffffffffffffff1673ffffffffffffffffffffffffffffffffffffffff16815260200182815260200192505050602060405180830381600087803b15801561044857600080fd5b505af115801561045c573d6000803e3d6000fd5b505050506040513d602081101561047257600080fd5b81019080805190602001909291905050505060008173ffffffffffffffffffffffffffffffffffffffff1663cb3c28c7848a87338c8b7354b44c6b18fc0b4a1010b21d524c338d1f8065f66040518863ffffffff1660e01b8152600401808873ffffffffffffffffffffffffffffffffffffffff1673ffffffffffffffffffffffffffffffffffffffff1681526020018781526020018673ffffffffffffffffffffffffffffffffffffffff1673ffffffffffffffffffffffffffffffffffffffff1681526020018573ffffffffffffffffffffffffffffffffffffffff1673ffffffffffffffffffffffffffffffffffffffff1681526020018481526020018381526020018273ffffffffffffffffffffffffffffffffffffffff1673ffffffffffffffffffffffffffffffffffffffff168152602001975050505050505050602060405180830381600087803b1580156105cd57600080fd5b505af11580156105e1573d6000803e3d6000fd5b505050506040513d60208110156105f757600080fd5b8101908080519060200190929190505050905080955050505050509392505050565b60008060008073eeeeeeeeeeeeeeeeeeeeeeeeeeeeeeeeeeeeeeee90506000869050600073692f391bcc85cefce8c237c01e1f636bbd70ea4d90508073ffffffffffffffffffffffffffffffffffffffff1663809a9e5584848c6040518463ffffffff1660e01b8152600401808473ffffffffffffffffffffffffffffffffffffffff1673ffffffffffffffffffffffffffffffffffffffff1681526020018373ffffffffffffffffffffffffffffffffffffffff1673ffffffffffffffffffffffffffffffffffffffff1681526020018281526020019350505050604080518083038186803b15801561070c57600080fd5b505afa158015610720573d6000803e3d6000fd5b505050506040513d604081101561073657600080fd5b81019080805190602001909291908051906020019092919050505090508094505060008173ffffffffffffffffffffffffffffffffffffffff1663cb3c28c78b868d87338e8c7354b44c6b18fc0b4a1010b21d524c338d1f8065f66040518963ffffffff1660e01b8152600401808873ffffffffffffffffffffffffffffffffffffffff1673ffffffffffffffffffffffffffffffffffffffff1681526020018781526020018673ffffffffffffffffffffffffffffffffffffffff1673ffffffffffffffffffffffffffffffffffffffff1681526020018573ffffffffffffffffffffffffffffffffffffffff1673ffffffffffffffffffffffffffffffffffffffff1681526020018481526020018381526020018273ffffffffffffffffffffffffffffffffffffffff1673ffffffffffffffffffffffffffffffffffffffff1681526020019750505050505050506020604051808303818588803b1580156108a057600080fd5b505af11580156108b4573d6000803e3d6000fd5b50505050506040513d60208110156108cb57600080fd5b8101908080519060200190929190505050905060003073ffffffffffffffffffffffffffffffffffffffff163190503373ffffffffffffffffffffffffffffffffffffffff166108fc829081150290604051600060405180830381858888f19350505050158015610940573d6000803e3d6000fd5b50818197509750505050505050935093915050565b60008073692f391bcc85cefce8c237c01e1f636bbd70ea4d73ffffffffffffffffffffffffffffffffffffffff1663809a9e558686866040518463ffffffff1660e01b8152600401808473ffffffffffffffffffffffffffffffffffffffff1673ffffffffffffffffffffffffffffffffffffffff1681526020018373ffffffffffffffffffffffffffffffffffffffff1673ffffffffffffffffffffffffffffffffffffffff1681526020018281526020019350505050604080518083038186803b158015610a2457600080fd5b505afa158015610a38573d6000803e3d6000fd5b505050506040513d6040811015610a4e57600080fd5b8101908080519060200190929190805190602001909291905050509150915093509391505056fea165627a7a7230582010746ae69b3345eab927421a0ac85ba3948fa8007b6d81a821d2c10dc0a211fe0029",
  "source": "pragma solidity ^0.5.0;\n\nimport \"./interfaces/ERC20.sol\";\nimport \"./interfaces/KyberNetworkProxyInterface.sol\";\nimport \"./interfaces/ExchangeInterface.sol\";\n\ncontract KyberWrapper is ExchangeInterface {\n\n    // Kovan\n    address constant KYBER_INTERFACE = 0x692f391bCc85cefCe8C237C01e1f636BbD70EA4D;\n    address constant ETHER_ADDRESS = 0xEeeeeEeeeEeEeeEeEeEeeEEEeeeeEeeeeeeeEEeE;\n\n    address constant WALLET_ID = 0x54b44C6B18fc0b4A1010B21d524c338D1f8065F6;\n\n    function swapEtherToToken(uint _ethAmount, address _tokenAddress, uint _maxAmount) external payable returns(uint, uint) {\n        uint minRate;\n        ERC20 ETH_TOKEN_ADDRESS = ERC20(ETHER_ADDRESS);\n        ERC20 token = ERC20(_tokenAddress);\n\n        KyberNetworkProxyInterface _kyberNetworkProxy = KyberNetworkProxyInterface(KYBER_INTERFACE);\n\n        (, minRate) = _kyberNetworkProxy.getExpectedRate(ETH_TOKEN_ADDRESS, token, _ethAmount);\n\n        uint destAmount = _kyberNetworkProxy.trade.value(_ethAmount)(\n            ETH_TOKEN_ADDRESS,\n            _ethAmount,\n            token,\n            msg.sender,\n            _maxAmount,\n            minRate,\n            WALLET_ID\n        );\n\n        uint balance = address(this).balance;\n\n        msg.sender.transfer(balance);\n\n        return (destAmount, balance);\n    }\n\n    function swapTokenToEther(address _tokenAddress, uint _amount, uint _maxAmount) external returns(uint) {\n        uint minRate;\n        ERC20 ETH_TOKEN_ADDRESS = ERC20(ETHER_ADDRESS);\n        ERC20 token = ERC20(_tokenAddress);\n\n        KyberNetworkProxyInterface _kyberNetworkProxy = KyberNetworkProxyInterface(KYBER_INTERFACE);\n\n        (, minRate) = _kyberNetworkProxy.getExpectedRate(token, ETH_TOKEN_ADDRESS, _amount);\n\n        // Mitigate ERC20 Approve front-running attack, by initially setting, allowance to 0\n        require(token.approve(address(_kyberNetworkProxy), 0));\n\n        // Approve tokens so network can take them during the swap\n        token.approve(address(_kyberNetworkProxy), _amount);\n\n        uint destAmount = _kyberNetworkProxy.trade(\n            token,\n            _amount,\n            ETH_TOKEN_ADDRESS,\n            msg.sender,\n            _maxAmount,\n            minRate,\n            WALLET_ID\n        );\n\n        return destAmount;\n    }\n\n    function getExpectedRate(address _src, address _dest, uint _srcQty) public view returns (uint, uint) {\n        return KyberNetworkProxyInterface(KYBER_INTERFACE).getExpectedRate(ERC20(_src), ERC20(_dest), _srcQty);\n    }\n\n    function() payable external {\n    }\n}\n",
  "sourcePath": "/Users/nikolaklipa/Decenter/defisaver/cdpsaver-contracts/contracts/KyberWrapper.sol",
  "compiler": {
    "name": "solc",
    "version": "0.5.7+commit.6da8b019.Emscripten.clang"
  },
  "schemaVersion": "3.0.9",
  "updatedAt": "2019-08-08T19:13:24.661Z",
  "devdoc": {
    "methods": {}
  },
  "userdoc": {
    "methods": {}
  }
}