{
  "contractName": "MarketplaceProxy",
  "abi": [
    {
      "constant": true,
      "inputs": [],
      "name": "WETH_ADDRESS",
      "outputs": [
        {
          "name": "",
          "type": "address"
        }
      ],
      "payable": false,
      "stateMutability": "view",
      "type": "function"
    },
    {
      "constant": true,
      "inputs": [],
      "name": "CDAI_ADDRESS",
      "outputs": [
        {
          "name": "",
          "type": "address"
        }
      ],
      "payable": false,
      "stateMutability": "view",
      "type": "function"
    },
    {
      "constant": true,
      "inputs": [],
      "name": "PIP_INTERFACE_ADDRESS",
      "outputs": [
        {
          "name": "",
          "type": "address"
        }
      ],
      "payable": false,
      "stateMutability": "view",
      "type": "function"
    },
    {
      "constant": true,
      "inputs": [],
      "name": "KYBER_ETH_ADDRESS",
      "outputs": [
        {
          "name": "",
          "type": "address"
        }
      ],
      "payable": false,
      "stateMutability": "view",
      "type": "function"
    },
    {
      "constant": true,
      "inputs": [],
      "name": "OTC_ADDRESS",
      "outputs": [
        {
          "name": "",
          "type": "address"
        }
      ],
      "payable": false,
      "stateMutability": "view",
      "type": "function"
    },
    {
      "constant": true,
      "inputs": [],
      "name": "IDAI_ADDRESS",
      "outputs": [
        {
          "name": "",
          "type": "address"
        }
      ],
      "payable": false,
      "stateMutability": "view",
      "type": "function"
    },
    {
      "constant": true,
      "inputs": [],
      "name": "GAS_TOKEN_INTERFACE_ADDRESS",
      "outputs": [
        {
          "name": "",
          "type": "address"
        }
      ],
      "payable": false,
      "stateMutability": "view",
      "type": "function"
    },
    {
      "constant": true,
      "inputs": [],
      "name": "VOX_ADDRESS",
      "outputs": [
        {
          "name": "",
          "type": "address"
        }
      ],
      "payable": false,
      "stateMutability": "view",
      "type": "function"
    },
    {
      "constant": true,
      "inputs": [],
      "name": "ETH2DAI_WRAPPER",
      "outputs": [
        {
          "name": "",
          "type": "address"
        }
      ],
      "payable": false,
      "stateMutability": "view",
      "type": "function"
    },
    {
      "constant": true,
      "inputs": [],
      "name": "STUPID_EXCHANGE",
      "outputs": [
        {
          "name": "",
          "type": "address"
        }
      ],
      "payable": false,
      "stateMutability": "view",
      "type": "function"
    },
    {
      "constant": true,
      "inputs": [],
      "name": "PROXY_REGISTRY_INTERFACE_ADDRESS",
      "outputs": [
        {
          "name": "",
          "type": "address"
        }
      ],
      "payable": false,
      "stateMutability": "view",
      "type": "function"
    },
    {
      "constant": true,
      "inputs": [],
      "name": "MKR_ADDRESS",
      "outputs": [
        {
          "name": "",
          "type": "address"
        }
      ],
      "payable": false,
      "stateMutability": "view",
      "type": "function"
    },
    {
      "constant": true,
      "inputs": [],
      "name": "FACTORY_ADDRESS",
      "outputs": [
        {
          "name": "",
          "type": "address"
        }
      ],
      "payable": false,
      "stateMutability": "view",
      "type": "function"
    },
    {
      "constant": true,
      "inputs": [],
      "name": "LOGGER_ADDRESS",
      "outputs": [
        {
          "name": "",
          "type": "address"
        }
      ],
      "payable": false,
      "stateMutability": "view",
      "type": "function"
    },
    {
      "constant": true,
      "inputs": [],
      "name": "MAKER_DAI_ADDRESS",
      "outputs": [
        {
          "name": "",
          "type": "address"
        }
      ],
      "payable": false,
      "stateMutability": "view",
      "type": "function"
    },
    {
      "constant": true,
      "inputs": [],
      "name": "KYBER_WRAPPER",
      "outputs": [
        {
          "name": "",
          "type": "address"
        }
      ],
      "payable": false,
      "stateMutability": "view",
      "type": "function"
    },
    {
      "constant": true,
      "inputs": [],
      "name": "COMPOUND_DAI_ADDRESS",
      "outputs": [
        {
          "name": "",
          "type": "address"
        }
      ],
      "payable": false,
      "stateMutability": "view",
      "type": "function"
    },
    {
      "constant": true,
      "inputs": [],
      "name": "UNISWAP_FACTORY",
      "outputs": [
        {
          "name": "",
          "type": "address"
        }
      ],
      "payable": false,
      "stateMutability": "view",
      "type": "function"
    },
    {
      "constant": true,
      "inputs": [],
      "name": "PETH_ADDRESS",
      "outputs": [
        {
          "name": "",
          "type": "address"
        }
      ],
      "payable": false,
      "stateMutability": "view",
      "type": "function"
    },
    {
      "constant": true,
      "inputs": [],
      "name": "KYBER_INTERFACE",
      "outputs": [
        {
          "name": "",
          "type": "address"
        }
      ],
      "payable": false,
      "stateMutability": "view",
      "type": "function"
    },
    {
      "constant": true,
      "inputs": [],
      "name": "WALLET_ID",
      "outputs": [
        {
          "name": "",
          "type": "address"
        }
      ],
      "payable": false,
      "stateMutability": "view",
      "type": "function"
    },
    {
      "constant": true,
      "inputs": [],
      "name": "SOLO_MARGIN_ADDRESS",
      "outputs": [
        {
          "name": "",
          "type": "address"
        }
      ],
      "payable": false,
      "stateMutability": "view",
      "type": "function"
    },
    {
      "constant": true,
      "inputs": [],
      "name": "UNISWAP_WRAPPER",
      "outputs": [
        {
          "name": "",
          "type": "address"
        }
      ],
      "payable": false,
      "stateMutability": "view",
      "type": "function"
    },
    {
      "constant": true,
      "inputs": [],
      "name": "TUB_ADDRESS",
      "outputs": [
        {
          "name": "",
          "type": "address"
        }
      ],
      "payable": false,
      "stateMutability": "view",
      "type": "function"
    },
    {
      "constant": false,
      "inputs": [
        {
          "name": "_cup",
          "type": "bytes32"
        },
        {
          "name": "_newOwner",
          "type": "address"
        }
      ],
      "name": "give",
      "outputs": [],
      "payable": false,
      "stateMutability": "nonpayable",
      "type": "function"
    },
    {
      "constant": false,
      "inputs": [
        {
          "name": "_cup",
          "type": "bytes32"
        },
        {
          "name": "_discount",
          "type": "uint256"
        },
        {
          "name": "_marketplace",
          "type": "address"
        },
        {
          "name": "_proxy",
          "type": "address"
        }
      ],
      "name": "createAuthorizeAndSell",
      "outputs": [],
      "payable": false,
      "stateMutability": "nonpayable",
      "type": "function"
    },
    {
      "constant": false,
      "inputs": [
        {
          "name": "_cup",
          "type": "bytes32"
        },
        {
          "name": "_discount",
          "type": "uint256"
        },
        {
          "name": "_marketplace",
          "type": "address"
        },
        {
          "name": "_proxy",
          "type": "address"
        }
      ],
      "name": "authorizeAndSell",
      "outputs": [],
      "payable": false,
      "stateMutability": "nonpayable",
      "type": "function"
    },
    {
      "constant": false,
      "inputs": [
        {
          "name": "_cup",
          "type": "bytes32"
        },
        {
          "name": "_discount",
          "type": "uint256"
        },
        {
          "name": "_marketplace",
          "type": "address"
        }
      ],
      "name": "sell",
      "outputs": [],
      "payable": false,
      "stateMutability": "nonpayable",
      "type": "function"
    },
    {
      "constant": false,
      "inputs": [
        {
          "name": "_cup",
          "type": "bytes32"
        },
        {
          "name": "_marketplace",
          "type": "address"
        }
      ],
      "name": "cancel",
      "outputs": [],
      "payable": false,
      "stateMutability": "nonpayable",
      "type": "function"
    }
  ],
  "bytecode": "0x608060405234801561001057600080fd5b506114e1806100206000396000f3fe608060405234801561001057600080fd5b50600436106101ec576000357c0100000000000000000000000000000000000000000000000000000000900480638823151b11610121578063c74c0fac116100bf578063d36b907d1161008e578063d36b907d1461096f578063d3ee6581146109b9578063ddaa293c14610a31578063f0d405e514610a7b576101ec565b8063c74c0fac14610847578063c9fde27014610891578063ce9bde1d146108db578063d3661fa514610925576101ec565b80639da779e9116100fb5780639da779e91461071b578063b175afa114610765578063baa8529c146107af578063c16921b7146107fd576101ec565b80638823151b1461062f57806390423e441461067957806394bfbe74146106d1576101ec565b80632d5eeb3f1161018e57806343fb75e81161016857806343fb75e814610507578063502237d714610551578063728c00921461059b578063825ffd92146105e5576101ec565b80632d5eeb3f1461042957806332ac5cd21461047357806336e6da11146104bd576101ec565b80631dab52b0116101ca5780631dab52b0146102fd57806322cae9a21461034757806329f7fc9e146103955780632a441f05146103df576101ec565b8063040141e5146101f15780630531b2ad1461023b57806318c6926e14610285575b600080fd5b6101f9610ac5565b604051808273ffffffffffffffffffffffffffffffffffffffff1673ffffffffffffffffffffffffffffffffffffffff16815260200191505060405180910390f35b610243610add565b604051808273ffffffffffffffffffffffffffffffffffffffff1673ffffffffffffffffffffffffffffffffffffffff16815260200191505060405180910390f35b6102fb6004803603608081101561029b57600080fd5b810190808035906020019092919080359060200190929190803573ffffffffffffffffffffffffffffffffffffffff169060200190929190803573ffffffffffffffffffffffffffffffffffffffff169060200190929190505050610af5565b005b610305610d6f565b604051808273ffffffffffffffffffffffffffffffffffffffff1673ffffffffffffffffffffffffffffffffffffffff16815260200191505060405180910390f35b6103936004803603604081101561035d57600080fd5b8101908080359060200190929190803573ffffffffffffffffffffffffffffffffffffffff169060200190929190505050610d87565b005b61039d610e12565b604051808273ffffffffffffffffffffffffffffffffffffffff1673ffffffffffffffffffffffffffffffffffffffff16815260200191505060405180910390f35b6103e7610e2a565b604051808273ffffffffffffffffffffffffffffffffffffffff1673ffffffffffffffffffffffffffffffffffffffff16815260200191505060405180910390f35b610431610e42565b604051808273ffffffffffffffffffffffffffffffffffffffff1673ffffffffffffffffffffffffffffffffffffffff16815260200191505060405180910390f35b61047b610e5a565b604051808273ffffffffffffffffffffffffffffffffffffffff1673ffffffffffffffffffffffffffffffffffffffff16815260200191505060405180910390f35b6104c5610e6d565b604051808273ffffffffffffffffffffffffffffffffffffffff1673ffffffffffffffffffffffffffffffffffffffff16815260200191505060405180910390f35b61050f610e85565b604051808273ffffffffffffffffffffffffffffffffffffffff1673ffffffffffffffffffffffffffffffffffffffff16815260200191505060405180910390f35b610559610e9d565b604051808273ffffffffffffffffffffffffffffffffffffffff1673ffffffffffffffffffffffffffffffffffffffff16815260200191505060405180910390f35b6105a3610eb5565b604051808273ffffffffffffffffffffffffffffffffffffffff1673ffffffffffffffffffffffffffffffffffffffff16815260200191505060405180910390f35b6105ed610ecd565b604051808273ffffffffffffffffffffffffffffffffffffffff1673ffffffffffffffffffffffffffffffffffffffff16815260200191505060405180910390f35b610637610ee5565b604051808273ffffffffffffffffffffffffffffffffffffffff1673ffffffffffffffffffffffffffffffffffffffff16815260200191505060405180910390f35b6106cf6004803603606081101561068f57600080fd5b810190808035906020019092919080359060200190929190803573ffffffffffffffffffffffffffffffffffffffff169060200190929190505050610efd565b005b6106d9610f91565b604051808273ffffffffffffffffffffffffffffffffffffffff1673ffffffffffffffffffffffffffffffffffffffff16815260200191505060405180910390f35b610723610fa9565b604051808273ffffffffffffffffffffffffffffffffffffffff1673ffffffffffffffffffffffffffffffffffffffff16815260200191505060405180910390f35b61076d610fc1565b604051808273ffffffffffffffffffffffffffffffffffffffff1673ffffffffffffffffffffffffffffffffffffffff16815260200191505060405180910390f35b6107fb600480360360408110156107c557600080fd5b8101908080359060200190929190803573ffffffffffffffffffffffffffffffffffffffff169060200190929190505050610fd9565b005b6108056110b2565b604051808273ffffffffffffffffffffffffffffffffffffffff1673ffffffffffffffffffffffffffffffffffffffff16815260200191505060405180910390f35b61084f6110ca565b604051808273ffffffffffffffffffffffffffffffffffffffff1673ffffffffffffffffffffffffffffffffffffffff16815260200191505060405180910390f35b6108996110e2565b604051808273ffffffffffffffffffffffffffffffffffffffff1673ffffffffffffffffffffffffffffffffffffffff16815260200191505060405180910390f35b6108e36110fa565b604051808273ffffffffffffffffffffffffffffffffffffffff1673ffffffffffffffffffffffffffffffffffffffff16815260200191505060405180910390f35b61092d611112565b604051808273ffffffffffffffffffffffffffffffffffffffff1673ffffffffffffffffffffffffffffffffffffffff16815260200191505060405180910390f35b61097761112a565b604051808273ffffffffffffffffffffffffffffffffffffffff1673ffffffffffffffffffffffffffffffffffffffff16815260200191505060405180910390f35b610a2f600480360360808110156109cf57600080fd5b810190808035906020019092919080359060200190929190803573ffffffffffffffffffffffffffffffffffffffff169060200190929190803573ffffffffffffffffffffffffffffffffffffffff169060200190929190505050611142565b005b610a39611485565b604051808273ffffffffffffffffffffffffffffffffffffffff1673ffffffffffffffffffffffffffffffffffffffff16815260200191505060405180910390f35b610a8361149d565b604051808273ffffffffffffffffffffffffffffffffffffffff1673ffffffffffffffffffffffffffffffffffffffff16815260200191505060405180910390f35b73d0a1e359811322d97991e03f863a0c30c2cf029c81565b73b6b09fbffba6a5c4631e5f7b2e3ee183ac259c0d81565b60008173ffffffffffffffffffffffffffffffffffffffff1663bf7e214f6040518163ffffffff167c010000000000000000000000000000000000000000000000000000000002815260040160206040518083038186803b158015610b5957600080fd5b505afa158015610b6d573d6000803e3d6000fd5b505050506040513d6020811015610b8357600080fd5b810190808051906020019092919050505090508073ffffffffffffffffffffffffffffffffffffffff1663cbeea68c848460405180807f6578656375746528616464726573732c62797465732900000000000000000000815250601601905060405180910390206040518463ffffffff167c0100000000000000000000000000000000000000000000000000000000028152600401808473ffffffffffffffffffffffffffffffffffffffff1673ffffffffffffffffffffffffffffffffffffffff1681526020018373ffffffffffffffffffffffffffffffffffffffff1673ffffffffffffffffffffffffffffffffffffffff168152602001827bffffffffffffffffffffffffffffffffffffffffffffffffffffffff191681526020019350505050600060405180830381600087803b158015610cc157600080fd5b505af1158015610cd5573d6000803e3d6000fd5b505050508273ffffffffffffffffffffffffffffffffffffffff16634db4f98186866040518363ffffffff167c01000000000000000000000000000000000000000000000000000000000281526004018083815260200182815260200192505050600060405180830381600087803b158015610d5057600080fd5b505af1158015610d64573d6000803e3d6000fd5b505050505050505050565b73a944bd4b25c9f186a846fd5668941aa3d3b8425f81565b8073ffffffffffffffffffffffffffffffffffffffff1663c4d252f5836040518263ffffffff167c010000000000000000000000000000000000000000000000000000000002815260040180828152602001915050600060405180830381600087803b158015610df657600080fd5b505af1158015610e0a573d6000803e3d6000fd5b505050505050565b73eeeeeeeeeeeeeeeeeeeeeeeeeeeeeeeeeeeeeeee81565b734a6bc4e803c62081ffebcc8d227b5a87a58f1f8f81565b73a1e58f3b1927743393b25f261471e1f2d3d9f0f681565b6e170ccc93903185be5a2094c870df6281565b73bb4339c0ab5b1d9f14bd6e3426444a1e9d86a1d981565b73823cde416973a19f98bb9c96d97f4fe6c9a7238b81565b73863e41fe88288ebf3fcd91d8dbb679fb83fdfe1781565b7364a436ae831c1672ae81f674cab8b6775df3475c81565b73aaf64bfcc32d0f15873a02163e7e500671a4ffcd81565b73c72e74e474682680a414b506699bbca44ab9a93081565b8073ffffffffffffffffffffffffffffffffffffffff16634db4f98184846040518363ffffffff167c01000000000000000000000000000000000000000000000000000000000281526004018083815260200182815260200192505050600060405180830381600087803b158015610f7457600080fd5b505af1158015610f88573d6000803e3d6000fd5b50505050505050565b7332d0e18f988f952eb3524ace762042381a2c39e581565b73c4375b7de8af5a38a93548eb8453a498222c4ff281565b735595930d576aedf13945c83ce5aad827529a131081565b600073a71937147b55deb8a530c7229c442fd3f31b7db290508073ffffffffffffffffffffffffffffffffffffffff1663baa8529c84846040518363ffffffff167c0100000000000000000000000000000000000000000000000000000000028152600401808381526020018273ffffffffffffffffffffffffffffffffffffffff1673ffffffffffffffffffffffffffffffffffffffff16815260200192505050600060405180830381600087803b15801561109557600080fd5b505af11580156110a9573d6000803e3d6000fd5b50505050505050565b7325a01a05c188dacbcf1d61af55d4a5b4021f7eed81565b73f5d915570bc477f9b8d6c0e980aa81757a3aac3681565b73f4d791139ce033ad35db2b2201435fad668b1b6481565b73692f391bcc85cefce8c237c01e1f636bbd70ea4d81565b7354b44c6b18fc0b4a1010b21d524c338d1f8065f681565b734ec3570cadaaee08ae384779b0f3a45ef85289de81565b600073c72e74e474682680a414b506699bbca44ab9a93073ffffffffffffffffffffffffffffffffffffffff166365688cc96040518163ffffffff167c0100000000000000000000000000000000000000000000000000000000028152600401602060405180830381600087803b1580156111bc57600080fd5b505af11580156111d0573d6000803e3d6000fd5b505050506040513d60208110156111e657600080fd5b810190808051906020019092919050505090508173ffffffffffffffffffffffffffffffffffffffff16637a9e5e4b826040518263ffffffff167c0100000000000000000000000000000000000000000000000000000000028152600401808273ffffffffffffffffffffffffffffffffffffffff1673ffffffffffffffffffffffffffffffffffffffff168152602001915050600060405180830381600087803b15801561129457600080fd5b505af11580156112a8573d6000803e3d6000fd5b505050508073ffffffffffffffffffffffffffffffffffffffff1663cbeea68c848460405180807f6578656375746528616464726573732c62797465732900000000000000000000815250601601905060405180910390206040518463ffffffff167c0100000000000000000000000000000000000000000000000000000000028152600401808473ffffffffffffffffffffffffffffffffffffffff1673ffffffffffffffffffffffffffffffffffffffff1681526020018373ffffffffffffffffffffffffffffffffffffffff1673ffffffffffffffffffffffffffffffffffffffff168152602001827bffffffffffffffffffffffffffffffffffffffffffffffffffffffff191681526020019350505050600060405180830381600087803b1580156113d757600080fd5b505af11580156113eb573d6000803e3d6000fd5b505050508273ffffffffffffffffffffffffffffffffffffffff16634db4f98186866040518363ffffffff167c01000000000000000000000000000000000000000000000000000000000281526004018083815260200182815260200192505050600060405180830381600087803b15801561146657600080fd5b505af115801561147a573d6000803e3d6000fd5b505050505050505050565b735595930d576aedf13945c83ce5aad827529a131081565b73a71937147b55deb8a530c7229c442fd3f31b7db28156fea165627a7a72305820c3e4db9f1061092615eac346d39b2611bece9cf2cd42c291be2a1ad716ff169c0029",
  "source": "pragma solidity ^0.5.0;\n\nimport \"./interfaces/TubInterface.sol\";\nimport \"./DS/DSGuard.sol\";\nimport \"./Marketplace.sol\";\nimport \"./constants/ConstantAddresses.sol\";\n\n/// @title MarketplaceProxy handles authorization and interaction with the Marketplace contract\ncontract MarketplaceProxy is ConstantAddresses {\n\n    ///@dev Called by the Marketplace contract, will give CDP only if you're authorized or CDP owner\n    ///@param _cup CDP Id\n    ///@param _newOwner Transfer the CDP to this address\n    function give(bytes32 _cup, address _newOwner) public {\n        TubInterface tub = TubInterface(TUB_ADDRESS);\n\n        tub.give(_cup, _newOwner);\n    }\n\n    ///@dev Creates a new DSGuard for the user, authorizes the marketplace contract and puts on sale the cdp\n    ///@param _cup CDP Id\n    ///@param _discount 4 digit number representing a discount of CDP value (0-9999)\n    ///@param _marketplace Address of the marketplace contract\n    function createAuthorizeAndSell(bytes32 _cup, uint _discount, address _marketplace, address _proxy) public {\n        DSGuard guard = DSGuardFactory(FACTORY_ADDRESS).newGuard();\n        DSAuth(_proxy).setAuthority(DSAuthority(address(guard)));\n\n        guard.permit(_marketplace, _proxy, bytes4(keccak256(\"execute(address,bytes)\")));\n\n        Marketplace(_marketplace).putOnSale(_cup, _discount);\n    }\n\n    ///@dev If the user already own a DSGuard but isn't authorized, authorizes the marketplace contract and sell\n    ///@param _cup CDP Id\n    ///@param _discount 4 digit number representing a discount of CDP value (0-9999)\n    ///@param _marketplace Address of the marketplace contract\n    function authorizeAndSell(bytes32 _cup, uint _discount, address _marketplace, address _proxy) public {\n        DSGuard guard = DSGuard(address(DSAuth(_proxy).authority()));\n        guard.permit(_marketplace, _proxy, bytes4(keccak256(\"execute(address,bytes)\")));\n\n        Marketplace(_marketplace).putOnSale(_cup, _discount);\n    }\n\n    ///@dev Put a cdp on sale, if the user already has a DSGuard and authorized it\n    ///@param _cup CDP Id\n    ///@param _discount 4 digit number representing a discount of CDP value (0-9999)\n    ///@param _marketplace Address of the marketplace contract\n    function sell(bytes32 _cup, uint _discount, address _marketplace) public {\n        Marketplace(_marketplace).putOnSale(_cup, _discount);\n    }\n\n    ///@dev Cancel a CDP on sale\n    ///@param _cup CDP Id\n    ///@param _marketplace Address of the marketplace contract\n    function cancel(bytes32 _cup, address _marketplace) public {\n        Marketplace(_marketplace).cancel(_cup);\n    }\n}\n",
  "sourcePath": "/Users/nenadpalinkasevic/Desktop/blockchain/cdpsaver-contracts/contracts/MarketplaceProxy.sol",
  "compiler": {
    "name": "solc",
    "version": "0.5.7+commit.6da8b019.Emscripten.clang"
  },
  "schemaVersion": "3.0.0",
  "updatedAt": "2019-08-17T15:16:29.195Z",
  "devdoc": {
    "methods": {
      "authorizeAndSell(bytes32,uint256,address,address)": {
        "details": "If the user already own a DSGuard but isn't authorized, authorizes the marketplace contract and sell",
        "params": {
          "_cup": "CDP Id",
          "_discount": "4 digit number representing a discount of CDP value (0-9999)",
          "_marketplace": "Address of the marketplace contract"
        }
      },
      "cancel(bytes32,address)": {
        "details": "Cancel a CDP on sale",
        "params": {
          "_cup": "CDP Id",
          "_marketplace": "Address of the marketplace contract"
        }
      },
      "createAuthorizeAndSell(bytes32,uint256,address,address)": {
        "details": "Creates a new DSGuard for the user, authorizes the marketplace contract and puts on sale the cdp",
        "params": {
          "_cup": "CDP Id",
          "_discount": "4 digit number representing a discount of CDP value (0-9999)",
          "_marketplace": "Address of the marketplace contract"
        }
      },
      "give(bytes32,address)": {
        "details": "Called by the Marketplace contract, will give CDP only if you're authorized or CDP owner",
        "params": {
          "_cup": "CDP Id",
          "_newOwner": "Transfer the CDP to this address"
        }
      },
      "sell(bytes32,uint256,address)": {
        "details": "Put a cdp on sale, if the user already has a DSGuard and authorized it",
        "params": {
          "_cup": "CDP Id",
          "_discount": "4 digit number representing a discount of CDP value (0-9999)",
          "_marketplace": "Address of the marketplace contract"
        }
      }
    },
    "title": "MarketplaceProxy handles authorization and interaction with the Marketplace contract"
  },
  "userdoc": {
    "methods": {}
  }
}