{
  "contractName": "Marketplace",
  "abi": [
    {
      "constant": false,
      "inputs": [
        {
          "name": "owner_",
          "type": "address"
        }
      ],
      "name": "setOwner",
      "outputs": [],
      "payable": false,
      "stateMutability": "nonpayable",
      "type": "function"
    },
    {
      "constant": true,
      "inputs": [
        {
          "name": "",
          "type": "uint256"
        }
      ],
      "name": "itemsArr",
      "outputs": [
        {
          "name": "",
          "type": "bytes32"
        }
      ],
      "payable": false,
      "stateMutability": "view",
      "type": "function"
    },
    {
      "constant": true,
      "inputs": [],
      "name": "tub",
      "outputs": [
        {
          "name": "",
          "type": "address"
        }
      ],
      "payable": false,
      "stateMutability": "view",
      "type": "function"
    },
    {
      "constant": true,
      "inputs": [
        {
          "name": "",
          "type": "bytes32"
        }
      ],
      "name": "items",
      "outputs": [
        {
          "name": "owner",
          "type": "address"
        },
        {
          "name": "proxy",
          "type": "address"
        },
        {
          "name": "discount",
          "type": "uint256"
        },
        {
          "name": "active",
          "type": "bool"
        }
      ],
      "payable": false,
      "stateMutability": "view",
      "type": "function"
    },
    {
      "constant": false,
      "inputs": [
        {
          "name": "authority_",
          "type": "address"
        }
      ],
      "name": "setAuthority",
      "outputs": [],
      "payable": false,
      "stateMutability": "nonpayable",
      "type": "function"
    },
    {
      "constant": true,
      "inputs": [],
      "name": "registry",
      "outputs": [
        {
          "name": "",
          "type": "address"
        }
      ],
      "payable": false,
      "stateMutability": "view",
      "type": "function"
    },
    {
      "constant": true,
      "inputs": [],
      "name": "owner",
      "outputs": [
        {
          "name": "",
          "type": "address"
        }
      ],
      "payable": false,
      "stateMutability": "view",
      "type": "function"
    },
    {
      "constant": true,
      "inputs": [],
      "name": "marketplaceProxy",
      "outputs": [
        {
          "name": "",
          "type": "address"
        }
      ],
      "payable": false,
      "stateMutability": "view",
      "type": "function"
    },
    {
      "constant": true,
      "inputs": [],
      "name": "authority",
      "outputs": [
        {
          "name": "",
          "type": "address"
        }
      ],
      "payable": false,
      "stateMutability": "view",
      "type": "function"
    },
    {
      "constant": true,
      "inputs": [],
      "name": "fee",
      "outputs": [
        {
          "name": "",
          "type": "uint256"
        }
      ],
      "payable": false,
      "stateMutability": "view",
      "type": "function"
    },
    {
      "constant": true,
      "inputs": [
        {
          "name": "",
          "type": "bytes32"
        }
      ],
      "name": "itemPos",
      "outputs": [
        {
          "name": "",
          "type": "uint256"
        }
      ],
      "payable": false,
      "stateMutability": "view",
      "type": "function"
    },
    {
      "inputs": [
        {
          "name": "_marketplaceProxy",
          "type": "address"
        }
      ],
      "payable": false,
      "stateMutability": "nonpayable",
      "type": "constructor"
    },
    {
      "anonymous": false,
      "inputs": [
        {
          "indexed": true,
          "name": "cup",
          "type": "bytes32"
        },
        {
          "indexed": true,
          "name": "proxy",
          "type": "address"
        },
        {
          "indexed": false,
          "name": "owner",
          "type": "address"
        },
        {
          "indexed": false,
          "name": "discount",
          "type": "uint256"
        }
      ],
      "name": "OnSale",
      "type": "event"
    },
    {
      "anonymous": false,
      "inputs": [
        {
          "indexed": true,
          "name": "cup",
          "type": "bytes32"
        },
        {
          "indexed": true,
          "name": "newLad",
          "type": "address"
        },
        {
          "indexed": true,
          "name": "oldProxy",
          "type": "address"
        },
        {
          "indexed": false,
          "name": "oldOwner",
          "type": "address"
        },
        {
          "indexed": false,
          "name": "discount",
          "type": "uint256"
        }
      ],
      "name": "Bought",
      "type": "event"
    },
    {
      "anonymous": false,
      "inputs": [
        {
          "indexed": true,
          "name": "authority",
          "type": "address"
        }
      ],
      "name": "LogSetAuthority",
      "type": "event"
    },
    {
      "anonymous": false,
      "inputs": [
        {
          "indexed": true,
          "name": "owner",
          "type": "address"
        }
      ],
      "name": "LogSetOwner",
      "type": "event"
    },
    {
      "constant": false,
      "inputs": [
        {
          "name": "_cup",
          "type": "bytes32"
        },
        {
          "name": "_discount",
          "type": "uint256"
        }
      ],
      "name": "putOnSale",
      "outputs": [],
      "payable": false,
      "stateMutability": "nonpayable",
      "type": "function"
    },
    {
      "constant": false,
      "inputs": [
        {
          "name": "_cup",
          "type": "bytes32"
        },
        {
          "name": "_newOwner",
          "type": "address"
        }
      ],
      "name": "buy",
      "outputs": [],
      "payable": true,
      "stateMutability": "payable",
      "type": "function"
    },
    {
      "constant": false,
      "inputs": [
        {
          "name": "_cup",
          "type": "bytes32"
        }
      ],
      "name": "cancel",
      "outputs": [],
      "payable": false,
      "stateMutability": "nonpayable",
      "type": "function"
    },
    {
      "constant": false,
      "inputs": [],
      "name": "withdraw",
      "outputs": [],
      "payable": false,
      "stateMutability": "nonpayable",
      "type": "function"
    },
    {
      "constant": false,
      "inputs": [
        {
          "name": "_cup",
          "type": "bytes32"
        }
      ],
      "name": "getCdpPrice",
      "outputs": [
        {
          "name": "",
          "type": "uint256"
        },
        {
          "name": "",
          "type": "uint256"
        }
      ],
      "payable": false,
      "stateMutability": "nonpayable",
      "type": "function"
    },
    {
      "constant": true,
      "inputs": [],
      "name": "getItemsOnSale",
      "outputs": [
        {
          "name": "arr",
          "type": "bytes32[]"
        }
      ],
      "payable": false,
      "stateMutability": "view",
      "type": "function"
    },
    {
      "constant": true,
      "inputs": [
        {
          "name": "_cup",
          "type": "bytes32"
        }
      ],
      "name": "isOnSale",
      "outputs": [
        {
          "name": "",
          "type": "bool"
        }
      ],
      "payable": false,
      "stateMutability": "view",
      "type": "function"
    }
  ],
  "bytecode": "0x608060405260646006557364a436ae831c1672ae81f674cab8b6775df3475c600760006101000a81548173ffffffffffffffffffffffffffffffffffffffff021916908373ffffffffffffffffffffffffffffffffffffffff16021790555073a71937147b55deb8a530c7229c442fd3f31b7db2600860006101000a81548173ffffffffffffffffffffffffffffffffffffffff021916908373ffffffffffffffffffffffffffffffffffffffff1602179055503480156100bf57600080fd5b50604051602080612aa8833981018060405260208110156100df57600080fd5b810190808051906020019092919050505033600160006101000a81548173ffffffffffffffffffffffffffffffffffffffff021916908373ffffffffffffffffffffffffffffffffffffffff1602179055503373ffffffffffffffffffffffffffffffffffffffff167fce241d7ca1f669fee44b6fc00b8eba2df3bb514eed0f6f668f8f89096e81ed9460405160405180910390a280600560006101000a81548173ffffffffffffffffffffffffffffffffffffffff021916908373ffffffffffffffffffffffffffffffffffffffff160217905550506128e3806101c56000396000f3fe6080604052600436106101095760003560e01c80638da5cb5b11610095578063bf7e214f11610064578063bf7e214f1461058c578063c049604a146105e3578063c4d252f514610631578063ddca3f431461066c578063f97f5ba11461069757610109565b80638da5cb5b1461041c578063a06c9be214610473578063ac5e7f73146104c9578063bbcbc2e71461052057610109565b80633ccfd60b116100dc5780633ccfd60b1461025857806348f343f31461026f5780634db4f9811461032f5780637a9e5e4b146103745780637b103999146103c557610109565b806313af40351461010e5780631c19eb231461015f57806334e70cc2146101ae5780633661ab5c14610205575b600080fd5b34801561011a57600080fd5b5061015d6004803603602081101561013157600080fd5b81019080803573ffffffffffffffffffffffffffffffffffffffff1690602001909291905050506106e6565b005b34801561016b57600080fd5b506101986004803603602081101561018257600080fd5b81019080803590602001909291905050506107c6565b6040518082815260200191505060405180910390f35b3480156101ba57600080fd5b506101c36107e7565b604051808273ffffffffffffffffffffffffffffffffffffffff1673ffffffffffffffffffffffffffffffffffffffff16815260200191505060405180910390f35b34801561021157600080fd5b5061023e6004803603602081101561022857600080fd5b810190808035906020019092919050505061080d565b604051808215151515815260200191505060405180910390f35b34801561026457600080fd5b5061026d61083a565b005b34801561027b57600080fd5b506102a86004803603602081101561029257600080fd5b81019080803590602001909291905050506108d1565b604051808573ffffffffffffffffffffffffffffffffffffffff1673ffffffffffffffffffffffffffffffffffffffff1681526020018473ffffffffffffffffffffffffffffffffffffffff1673ffffffffffffffffffffffffffffffffffffffff1681526020018381526020018215151515815260200194505050505060405180910390f35b34801561033b57600080fd5b506103726004803603604081101561035257600080fd5b81019080803590602001909291908035906020019092919050505061094e565b005b34801561038057600080fd5b506103c36004803603602081101561039757600080fd5b81019080803573ffffffffffffffffffffffffffffffffffffffff169060200190929190505050610ecb565b005b3480156103d157600080fd5b506103da610fa9565b604051808273ffffffffffffffffffffffffffffffffffffffff1673ffffffffffffffffffffffffffffffffffffffff16815260200191505060405180910390f35b34801561042857600080fd5b50610431610fcf565b604051808273ffffffffffffffffffffffffffffffffffffffff1673ffffffffffffffffffffffffffffffffffffffff16815260200191505060405180910390f35b34801561047f57600080fd5b506104ac6004803603602081101561049657600080fd5b8101908080359060200190929190505050610ff5565b604051808381526020018281526020019250505060405180910390f35b3480156104d557600080fd5b506104de61182c565b604051808273ffffffffffffffffffffffffffffffffffffffff1673ffffffffffffffffffffffffffffffffffffffff16815260200191505060405180910390f35b34801561052c57600080fd5b50610535611852565b6040518080602001828103825283818151815260200191508051906020019060200280838360005b8381101561057857808201518184015260208101905061055d565b505050509050019250505060405180910390f35b34801561059857600080fd5b506105a16119e4565b604051808273ffffffffffffffffffffffffffffffffffffffff1673ffffffffffffffffffffffffffffffffffffffff16815260200191505060405180910390f35b61062f600480360360408110156105f957600080fd5b8101908080359060200190929190803573ffffffffffffffffffffffffffffffffffffffff169060200190929190505050611a09565b005b34801561063d57600080fd5b5061066a6004803603602081101561065457600080fd5b8101908080359060200190929190505050612090565b005b34801561067857600080fd5b50610681612159565b6040518082815260200191505060405180910390f35b3480156106a357600080fd5b506106d0600480360360208110156106ba57600080fd5b810190808035906020019092919050505061215f565b6040518082815260200191505060405180910390f35b610714336000357fffffffff0000000000000000000000000000000000000000000000000000000016612177565b61071d57600080fd5b80600160006101000a81548173ffffffffffffffffffffffffffffffffffffffff021916908373ffffffffffffffffffffffffffffffffffffffff160217905550600160009054906101000a900473ffffffffffffffffffffffffffffffffffffffff1673ffffffffffffffffffffffffffffffffffffffff167fce241d7ca1f669fee44b6fc00b8eba2df3bb514eed0f6f668f8f89096e81ed9460405160405180910390a250565b600481815481106107d357fe5b906000526020600020016000915090505481565b600860009054906101000a900473ffffffffffffffffffffffffffffffffffffffff1681565b60006002600083815260200190815260200160002060030160009054906101000a900460ff169050919050565b610868336000357fffffffff0000000000000000000000000000000000000000000000000000000016612177565b61087157600080fd5b3373ffffffffffffffffffffffffffffffffffffffff166108fc3073ffffffffffffffffffffffffffffffffffffffff16319081150290604051600060405180830381858888f193505050501580156108ce573d6000803e3d6000fd5b50565b60026020528060005260406000206000915090508060000160009054906101000a900473ffffffffffffffffffffffffffffffffffffffff16908060010160009054906101000a900473ffffffffffffffffffffffffffffffffffffffff16908060020154908060030160009054906101000a900460ff16905084565b61095833836123d0565b6109ad576040517f08c379a000000000000000000000000000000000000000000000000000000000815260040180806020018281038252602b815260200180612861602b913960400191505060405180910390fd5b612710811080156109be5750606481115b610a13576040517f08c379a000000000000000000000000000000000000000000000000000000000815260040180806020018281038252602c81526020018061288c602c913960400191505060405180910390fd5b6000600860009054906101000a900473ffffffffffffffffffffffffffffffffffffffff1673ffffffffffffffffffffffffffffffffffffffff16631f3634ed846040518263ffffffff1660e01b815260040180828152602001915050602060405180830381600087803b158015610a8a57600080fd5b505af1158015610a9e573d6000803e3d6000fd5b505050506040513d6020811015610ab457600080fd5b8101908080519060200190929190505050118015610b8157506000600860009054906101000a900473ffffffffffffffffffffffffffffffffffffffff1673ffffffffffffffffffffffffffffffffffffffff1663f7c8d634846040518263ffffffff1660e01b815260040180828152602001915050602060405180830381600087803b158015610b4457600080fd5b505af1158015610b58573d6000803e3d6000fd5b505050506040513d6020811015610b6e57600080fd5b8101908080519060200190929190505050115b610bd6576040517f08c379a000000000000000000000000000000000000000000000000000000000815260040180806020018281038252602c8152602001806127ea602c913960400191505060405180910390fd5b610bdf8261080d565b15610c52576040517f08c379a000000000000000000000000000000000000000000000000000000000815260040180806020018281038252601d8152602001807f63616e277420707574206120636470206f6e2073616c6520747769636500000081525060200191505060405180910390fd5b60003373ffffffffffffffffffffffffffffffffffffffff16638da5cb5b6040518163ffffffff1660e01b8152600401602060405180830381600087803b158015610c9c57600080fd5b505af1158015610cb0573d6000803e3d6000fd5b505050506040513d6020811015610cc657600080fd5b8101908080519060200190929190505050905060405180608001604052808273ffffffffffffffffffffffffffffffffffffffff1681526020013373ffffffffffffffffffffffffffffffffffffffff168152602001838152602001600115158152506002600085815260200190815260200160002060008201518160000160006101000a81548173ffffffffffffffffffffffffffffffffffffffff021916908373ffffffffffffffffffffffffffffffffffffffff16021790555060208201518160010160006101000a81548173ffffffffffffffffffffffffffffffffffffffff021916908373ffffffffffffffffffffffffffffffffffffffff1602179055506040820151816002015560608201518160030160006101000a81548160ff021916908315150217905550905050600483908060018154018082558091505090600182039060005260206000200160009091929091909150555060016004805490500360036000858152602001908152602001600020819055503373ffffffffffffffffffffffffffffffffffffffff16837fa23e1b9c0cc66d644699301966e3d07beee16a26448ed5807814abbec25025638385604051808373ffffffffffffffffffffffffffffffffffffffff1673ffffffffffffffffffffffffffffffffffffffff1681526020018281526020019250505060405180910390a3505050565b610ef9336000357fffffffff0000000000000000000000000000000000000000000000000000000016612177565b610f0257600080fd5b806000806101000a81548173ffffffffffffffffffffffffffffffffffffffff021916908373ffffffffffffffffffffffffffffffffffffffff1602179055506000809054906101000a900473ffffffffffffffffffffffffffffffffffffffff1673ffffffffffffffffffffffffffffffffffffffff167f1abebea81bfa2637f28358c371278fb15ede7ea8dd28d2e03b112ff6d936ada460405160405180910390a250565b600760009054906101000a900473ffffffffffffffffffffffffffffffffffffffff1681565b600160009054906101000a900473ffffffffffffffffffffffffffffffffffffffff1681565b60008061100061271a565b600260008581526020019081526020016000206040518060800160405290816000820160009054906101000a900473ffffffffffffffffffffffffffffffffffffffff1673ffffffffffffffffffffffffffffffffffffffff1673ffffffffffffffffffffffffffffffffffffffff1681526020016001820160009054906101000a900473ffffffffffffffffffffffffffffffffffffffff1673ffffffffffffffffffffffffffffffffffffffff1673ffffffffffffffffffffffffffffffffffffffff168152602001600282015481526020016003820160009054906101000a900460ff16151515158152505090506000611250600860009054906101000a900473ffffffffffffffffffffffffffffffffffffffff1673ffffffffffffffffffffffffffffffffffffffff16631f3634ed876040518263ffffffff1660e01b815260040180828152602001915050602060405180830381600087803b15801561116b57600080fd5b505af115801561117f573d6000803e3d6000fd5b505050506040513d602081101561119557600080fd5b8101908080519060200190929190505050600860009054906101000a900473ffffffffffffffffffffffffffffffffffffffff1673ffffffffffffffffffffffffffffffffffffffff16637ec9c3b86040518163ffffffff1660e01b8152600401602060405180830381600087803b15801561121057600080fd5b505af1158015611224573d6000803e3d6000fd5b505050506040513d602081101561123a57600080fd5b81019080805190602001909291905050506124c1565b905060006115a6611477600860009054906101000a900473ffffffffffffffffffffffffffffffffffffffff1673ffffffffffffffffffffffffffffffffffffffff1663f7c8d634896040518263ffffffff1660e01b815260040180828152602001915050602060405180830381600087803b1580156112cf57600080fd5b505af11580156112e3573d6000803e3d6000fd5b505050506040513d60208110156112f957600080fd5b8101908080519060200190929190505050611472600860009054906101000a900473ffffffffffffffffffffffffffffffffffffffff1673ffffffffffffffffffffffffffffffffffffffff16636f78ee0d8b6040518263ffffffff1660e01b815260040180828152602001915050602060405180830381600087803b15801561138257600080fd5b505af1158015611396573d6000803e3d6000fd5b505050506040513d60208110156113ac57600080fd5b8101908080519060200190929190505050600860009054906101000a900473ffffffffffffffffffffffffffffffffffffffff1673ffffffffffffffffffffffffffffffffffffffff1663f7c8d6348c6040518263ffffffff1660e01b815260040180828152602001915050602060405180830381600087803b15801561143257600080fd5b505af1158015611446573d6000803e3d6000fd5b505050506040513d602081101561145c57600080fd5b8101908080519060200190929190505050612509565b6124c1565b600860009054906101000a900473ffffffffffffffffffffffffffffffffffffffff1673ffffffffffffffffffffffffffffffffffffffff1663d741e2f96040518163ffffffff1660e01b8152600401602060405180830381600087803b1580156114e157600080fd5b505af11580156114f5573d6000803e3d6000fd5b505050506040513d602081101561150b57600080fd5b810190808051906020019092919050505073ffffffffffffffffffffffffffffffffffffffff166357de26a46040518163ffffffff1660e01b8152600401602060405180830381600087803b15801561156357600080fd5b505af1158015611577573d6000803e3d6000fd5b505050506040513d602081101561158d57600080fd5b810190808051906020019092919050505060001c612545565b9050600061179582611790600860009054906101000a900473ffffffffffffffffffffffffffffffffffffffff1673ffffffffffffffffffffffffffffffffffffffff1663f7c8d6348b6040518263ffffffff1660e01b815260040180828152602001915050602060405180830381600087803b15801561162657600080fd5b505af115801561163a573d6000803e3d6000fd5b505050506040513d602081101561165057600080fd5b8101908080519060200190929190505050600860009054906101000a900473ffffffffffffffffffffffffffffffffffffffff1673ffffffffffffffffffffffffffffffffffffffff1663d741e2f96040518163ffffffff1660e01b8152600401602060405180830381600087803b1580156116cb57600080fd5b505af11580156116df573d6000803e3d6000fd5b505050506040513d60208110156116f557600080fd5b810190808051906020019092919050505073ffffffffffffffffffffffffffffffffffffffff166357de26a46040518163ffffffff1660e01b8152600401602060405180830381600087803b15801561174d57600080fd5b505af1158015611761573d6000803e3d6000fd5b505050506040513d602081101561177757600080fd5b810190808051906020019092919050505060001c612545565b61257d565b90506000809050600654856040015111156117c1576117ba8560400151600654612597565b90506117c9565b846040015190505b60006127106117ec6117db8786612597565b6117e761271086612597565b6125b1565b816117f357fe5b04905060006127106118106118088887612597565b6006546125b1565b8161181757fe5b04905081819850985050505050505050915091565b600560009054906101000a900473ffffffffffffffffffffffffffffffffffffffff1681565b6060600080905060048054905060405190808252806020026020018201604052801561188d5781602001602082028038833980820191505090505b50915060008090505b6004805490508110156119df57600073ffffffffffffffffffffffffffffffffffffffff16600860009054906101000a900473ffffffffffffffffffffffffffffffffffffffff1673ffffffffffffffffffffffffffffffffffffffff1663de5f55176004848154811061190657fe5b90600052602060002001546040518263ffffffff1660e01b81526004018082815260200191505060206040518083038186803b15801561194557600080fd5b505afa158015611959573d6000803e3d6000fd5b505050506040513d602081101561196f57600080fd5b810190808051906020019092919050505073ffffffffffffffffffffffffffffffffffffffff16146119d457600481815481106119a857fe5b90600052602060002001548383815181106119bf57fe5b60200260200101818152505081806001019250505b806001019050611896565b505090565b6000809054906101000a900473ffffffffffffffffffffffffffffffffffffffff1681565b6000600260008481526020019081526020016000209050600115158160030160009054906101000a900460ff16151514611aab576040517f08c379a00000000000000000000000000000000000000000000000000000000081526004018080602001828103825260178152602001807f436865636b20696620637570206973206f6e2073616c6500000000000000000081525060200191505060405180910390fd5b600860009054906101000a900473ffffffffffffffffffffffffffffffffffffffff1673ffffffffffffffffffffffffffffffffffffffff1663de5f5517846040518263ffffffff1660e01b81526004018082815260200191505060206040518083038186803b158015611b1e57600080fd5b505afa158015611b32573d6000803e3d6000fd5b505050506040513d6020811015611b4857600080fd5b810190808051906020019092919050505073ffffffffffffffffffffffffffffffffffffffff168160010160009054906101000a900473ffffffffffffffffffffffffffffffffffffffff1673ffffffffffffffffffffffffffffffffffffffff1614611c1d576040517f08c379a000000000000000000000000000000000000000000000000000000000815260040180806020018281038252601c8152602001807f546865206f776e6572206d7573742073746179207468652073616d650000000081525060200191505060405180910390fd5b600080611c2985610ff5565b809250819350505081341015611c8a576040517f08c379a000000000000000000000000000000000000000000000000000000000815260040180806020018281038252602a815260200180612837602a913960400191505060405180910390fd5b60008360030160006101000a81548160ff0219169083151502179055508260010160009054906101000a900473ffffffffffffffffffffffffffffffffffffffff1673ffffffffffffffffffffffffffffffffffffffff16631cff79cd600560009054906101000a900473ffffffffffffffffffffffffffffffffffffffff168787604051602401808381526020018273ffffffffffffffffffffffffffffffffffffffff1673ffffffffffffffffffffffffffffffffffffffff168152602001925050506040516020818303038152906040527fbaa8529c000000000000000000000000000000000000000000000000000000007bffffffffffffffffffffffffffffffffffffffffffffffffffffffff19166020820180517bffffffffffffffffffffffffffffffffffffffffffffffffffffffff83818316178352505050506040518363ffffffff1660e01b8152600401808373ffffffffffffffffffffffffffffffffffffffff1673ffffffffffffffffffffffffffffffffffffffff16815260200180602001828103825283818151815260200191508051906020019080838360005b83811015611e4d578082015181840152602081019050611e32565b50505050905090810190601f168015611e7a5780820380516001836020036101000a031916815260200191505b509350505050602060405180830381600087803b158015611e9a57600080fd5b505af1158015611eae573d6000803e3d6000fd5b505050506040513d6020811015611ec457600080fd5b8101908080519060200190929190505050508260000160009054906101000a900473ffffffffffffffffffffffffffffffffffffffff1673ffffffffffffffffffffffffffffffffffffffff166108fc611f1e8484612597565b9081150290604051600060405180830381858888f19350505050158015611f49573d6000803e3d6000fd5b503373ffffffffffffffffffffffffffffffffffffffff166108fc611f6e3485612597565b9081150290604051600060405180830381858888f19350505050158015611f99573d6000803e3d6000fd5b508260010160009054906101000a900473ffffffffffffffffffffffffffffffffffffffff1673ffffffffffffffffffffffffffffffffffffffff163373ffffffffffffffffffffffffffffffffffffffff16867f786e1e7a3c34c913b4bac247ef51a76aacc938cd4eb2149cac51da7a314d19528660000160009054906101000a900473ffffffffffffffffffffffffffffffffffffffff168760020154604051808373ffffffffffffffffffffffffffffffffffffffff1673ffffffffffffffffffffffffffffffffffffffff1681526020018281526020019250505060405180910390a4612089856125dd565b5050505050565b61209a33826123d0565b6120ef576040517f08c379a00000000000000000000000000000000000000000000000000000000081526004018080602001828103825260288152602001806127c26028913960400191505060405180910390fd5b6120f88161080d565b61214d576040517f08c379a00000000000000000000000000000000000000000000000000000000081526004018080602001828103825260218152602001806128166021913960400191505060405180910390fd5b612156816125dd565b50565b60065481565b60036020528060005260406000206000915090505481565b60003073ffffffffffffffffffffffffffffffffffffffff168373ffffffffffffffffffffffffffffffffffffffff1614156121b657600190506123ca565b600160009054906101000a900473ffffffffffffffffffffffffffffffffffffffff1673ffffffffffffffffffffffffffffffffffffffff168373ffffffffffffffffffffffffffffffffffffffff16141561221557600190506123ca565b600073ffffffffffffffffffffffffffffffffffffffff166000809054906101000a900473ffffffffffffffffffffffffffffffffffffffff1673ffffffffffffffffffffffffffffffffffffffff16141561227457600090506123ca565b6000809054906101000a900473ffffffffffffffffffffffffffffffffffffffff1673ffffffffffffffffffffffffffffffffffffffff1663b70096138430856040518463ffffffff1660e01b8152600401808473ffffffffffffffffffffffffffffffffffffffff1673ffffffffffffffffffffffffffffffffffffffff1681526020018373ffffffffffffffffffffffffffffffffffffffff1673ffffffffffffffffffffffffffffffffffffffff168152602001827bffffffffffffffffffffffffffffffffffffffffffffffffffffffff19167bffffffffffffffffffffffffffffffffffffffffffffffffffffffff19168152602001935050505060206040518083038186803b15801561238c57600080fd5b505afa1580156123a0573d6000803e3d6000fd5b505050506040513d60208110156123b657600080fd5b810190808051906020019092919050505090505b92915050565b60008273ffffffffffffffffffffffffffffffffffffffff16600860009054906101000a900473ffffffffffffffffffffffffffffffffffffffff1673ffffffffffffffffffffffffffffffffffffffff1663de5f5517846040518263ffffffff1660e01b81526004018082815260200191505060206040518083038186803b15801561245c57600080fd5b505afa158015612470573d6000803e3d6000fd5b505050506040513d602081101561248657600080fd5b810190808051906020019092919050505073ffffffffffffffffffffffffffffffffffffffff16146124b757600080fd5b6001905092915050565b60006b033b2e3c9fd0803ce80000006124f96124dd85856125b1565b60026b033b2e3c9fd0803ce8000000816124f357fe5b0461257d565b8161250057fe5b04905092915050565b600081612535612525856b033b2e3c9fd0803ce80000006125b1565b6002858161252f57fe5b0461257d565b8161253c57fe5b04905092915050565b60008161256d61255d85670de0b6b3a76400006125b1565b6002858161256757fe5b0461257d565b8161257457fe5b04905092915050565b600082828401915081101561259157600080fd5b92915050565b60008282840391508111156125ab57600080fd5b92915050565b6000808214806125ce57508282838502925082816125cb57fe5b04145b6125d757600080fd5b92915050565b60026000828152602001908152602001600020600080820160006101000a81549073ffffffffffffffffffffffffffffffffffffffff02191690556001820160006101000a81549073ffffffffffffffffffffffffffffffffffffffff021916905560028201600090556003820160006101000a81549060ff0219169055505060006003600083815260200190815260200160002054905060046001600480549050038154811061268a57fe5b9060005260206000200154600482815481106126a257fe5b90600052602060002001819055506000600360008481526020019081526020016000208190555080600360006004600160048054905003815481106126e357fe5b906000526020600020015481526020019081526020016000208190555060048054809190600190036127159190612770565b505050565b6040518060800160405280600073ffffffffffffffffffffffffffffffffffffffff168152602001600073ffffffffffffffffffffffffffffffffffffffff168152602001600081526020016000151581525090565b81548183558181111561279757818360005260206000209182019101612796919061279c565b5b505050565b6127be91905b808211156127ba5760008160009055506001016127a2565b5090565b9056fe6d73672e73656e646572206d7573742070726f7879207768696368206f776e7320746865206375706d757374206861766520636f6c6c61746572616c20616e64206465627420746f20707574206f6e2073616c656f6e6c792063616e63656c2063647073207468617420617265206f6e2073616c65436865636b20696620656e6f7567682065746865722069732073656e7420666f722074686973206375706d73672e73656e646572206d7573742062652070726f7879207768696368206f776e73207468652063757063616e27742068617665203130302520646973636f756e7420616e64206d757374206265206f766572203125a165627a7a723058202fa549ab4455ed9c253b018a91b11bf813f3f1a6579c1de927f36a43f1afcf3c0029",
  "source": "pragma solidity ^0.5.0;\n\nimport \"./DS/DSMath.sol\";\nimport \"./DS/DSAuth.sol\";\nimport \"./interfaces/TubInterface.sol\";\nimport \"./interfaces/ProxyRegistryInterface.sol\";\n\n/// @title Marketplace keeps track of all the CDPs and implements the buy logic through MarketplaceProxy\ncontract Marketplace is DSAuth, DSMath {\n\n    struct SaleItem {\n        address payable owner;\n        address payable proxy;\n        uint discount;\n        bool active;\n    }\n\n    mapping (bytes32 => SaleItem) public items;\n    mapping (bytes32 => uint) public itemPos;\n    bytes32[] public itemsArr;\n\n    address public marketplaceProxy;\n\n    // 2 decimal percision when defining the disocunt value\n    uint public fee = 100; //1% fee\n\n    // KOVAN\n    ProxyRegistryInterface public registry = ProxyRegistryInterface(0x64A436ae831C1672AE81F674CAb8B6775df3475C);\n    TubInterface public tub = TubInterface(0xa71937147b55Deb8a530C7229C442Fd3F31b7db2);\n\n    event OnSale(bytes32 indexed cup, address indexed proxy, address owner, uint discount);\n\n    event Bought(bytes32 indexed cup, address indexed newLad, address indexed oldProxy,\n                address oldOwner, uint discount);\n\n    constructor(address _marketplaceProxy) public {\n        marketplaceProxy = _marketplaceProxy;\n    }\n\n    /// @notice User calls this method to put a CDP on sale which he must own\n    /// @dev Must be called by DSProxy contract in order to authorize for sale\n    /// @param _cup Id of the CDP that is being put on sale\n    /// @param _discount Discount of the original value, goes from 0 - 99% with 2 decimal percision\n    function putOnSale(bytes32 _cup, uint _discount) public {\n        require(isOwner(msg.sender, _cup), \"msg.sender must be proxy which owns the cup\");\n        require(_discount < 10000 && _discount > 100, \"can't have 100% discount and must be over 1%\");\n        require(tub.ink(_cup) > 0 && tub.tab(_cup) > 0, \"must have collateral and debt to put on sale\");\n        require(!isOnSale(_cup), \"can't put a cdp on sale twice\");\n\n        address payable owner = address(uint160(DSProxyInterface(msg.sender).owner()));\n\n        items[_cup] = SaleItem({\n            discount: _discount,\n            proxy: msg.sender,\n            owner: owner,\n            active: true\n        });\n\n        itemsArr.push(_cup);\n        itemPos[_cup] = itemsArr.length - 1;\n\n        emit OnSale(_cup, msg.sender, owner, _discount);\n    }\n\n    /// @notice Any user can call this method to buy a CDP\n    /// @dev This will fail if the CDP owner was changed\n    /// @param _cup Id of the CDP you want to buy\n    function buy(bytes32 _cup, address _newOwner) public payable {\n        SaleItem storage item = items[_cup];\n\n        require(item.active == true, \"Check if cup is on sale\");\n        require(item.proxy == tub.lad(_cup), \"The owner must stay the same\");\n\n        uint cdpPrice;\n        uint feeAmount;\n\n        (cdpPrice, feeAmount) = getCdpPrice(_cup);\n\n        require(msg.value >= cdpPrice, \"Check if enough ether is sent for this cup\");\n\n        item.active = false;\n\n        // give the cup to the buyer, him becoming the lad that owns the cup\n        DSProxyInterface(item.proxy).execute(marketplaceProxy,\n            abi.encodeWithSignature(\"give(bytes32,address)\", _cup, _newOwner));\n\n        item.owner.transfer(sub(cdpPrice, feeAmount)); // transfer money to the seller\n\n        msg.sender.transfer(sub(msg.value, cdpPrice));\n\n        emit Bought(_cup, msg.sender, item.proxy, item.owner, item.discount);\n\n        removeItem(_cup);\n\n    }\n\n    /// @notice Remove the CDP from the marketplace\n    /// @param _cup Id of the CDP\n    function cancel(bytes32 _cup) public {\n        require(isOwner(msg.sender, _cup), \"msg.sender must proxy which owns the cup\");\n        require(isOnSale(_cup), \"only cancel cdps that are on sale\");\n\n        removeItem(_cup);\n    }\n\n    /// @notice A only owner functon which withdraws Eth balance\n    function withdraw() public auth {\n        msg.sender.transfer(address(this).balance);\n    }\n\n    /// @notice Calculates the price of the CDP given the discount and the fee\n    /// @param _cup Id of the CDP\n    /// @return It returns the price of the CDP and the amount needed for the contracts fee\n    function getCdpPrice(bytes32 _cup) public returns(uint, uint) {\n        SaleItem memory item = items[_cup];\n\n        uint collateral = rmul(tub.ink(_cup), tub.per()); // collateral in Eth\n        uint govFee = wdiv(rmul(tub.tab(_cup), rdiv(tub.rap(_cup), tub.tab(_cup))), uint(tub.pip().read()));\n        uint debt = add(govFee, wdiv(tub.tab(_cup), uint(tub.pip().read()))); // debt in Eth\n\n        uint difference = 0;\n\n        if (item.discount > fee) {\n            difference = sub(item.discount, fee);\n        } else {\n            difference = item.discount;\n        }\n\n        uint cdpPrice = mul(sub(collateral, debt), (sub(10000, difference))) / 10000;\n        uint feeAmount = mul(sub(collateral, debt), fee) / 10000;\n\n        return (cdpPrice, feeAmount);\n    }\n\n    /// @notice Used by front to fetch what is on sale\n    /// @return Returns all CDP ids that are on sale and are not closed\n    function getItemsOnSale() public view returns(bytes32[] memory arr) {\n        uint n = 0;\n\n        arr = new bytes32[](itemsArr.length);\n        for (uint i = 0; i < itemsArr.length; ++i) {\n            if (tub.lad(itemsArr[i]) != address(0)) {\n                arr[n] = itemsArr[i];\n                n++;\n            }\n        }\n\n    }\n\n    /// @notice Helper method to check if a CDP is on sale\n    /// @return True|False depending if it is on sale\n    function isOnSale(bytes32 _cup) public view returns (bool) {\n        return items[_cup].active;\n    }\n\n    function removeItem(bytes32 _cup) internal {\n        delete items[_cup];\n\n        uint index = itemPos[_cup];\n        itemsArr[index] = itemsArr[itemsArr.length - 1];\n\n        itemPos[_cup] = 0;\n        itemPos[itemsArr[itemsArr.length - 1]] = index;\n\n        itemsArr.length--;\n    }\n\n    function isOwner(address _owner, bytes32 _cup) internal view returns(bool) {\n        require(tub.lad(_cup) == _owner);\n\n        return true;\n    }\n\n}\n",
  "sourcePath": "/Users/nikolaklipa/Decenter/defisaver/cdpsaver-contracts/contracts/Marketplace.sol",
  "compiler": {
    "name": "solc",
    "version": "0.5.7+commit.6da8b019.Emscripten.clang"
  },
  "schemaVersion": "3.0.9",
  "updatedAt": "2019-08-01T13:38:31.724Z",
  "devdoc": {
    "methods": {
      "buy(bytes32,address)": {
        "details": "This will fail if the CDP owner was changed",
        "params": {
          "_cup": "Id of the CDP you want to buy"
        }
      },
      "cancel(bytes32)": {
        "params": {
          "_cup": "Id of the CDP"
        }
      },
      "getCdpPrice(bytes32)": {
        "params": {
          "_cup": "Id of the CDP"
        },
        "return": "It returns the price of the CDP and the amount needed for the contracts fee"
      },
      "getItemsOnSale()": {
        "return": "Returns all CDP ids that are on sale and are not closed"
      },
      "isOnSale(bytes32)": {
        "return": "True|False depending if it is on sale"
      },
      "putOnSale(bytes32,uint256)": {
        "details": "Must be called by DSProxy contract in order to authorize for sale",
        "params": {
          "_cup": "Id of the CDP that is being put on sale",
          "_discount": "Discount of the original value, goes from 0 - 99% with 2 decimal percision"
        }
      }
    },
    "title": "Marketplace keeps track of all the CDPs and implements the buy logic through MarketplaceProxy"
  },
  "userdoc": {
    "methods": {
      "buy(bytes32,address)": {
        "notice": "Any user can call this method to buy a CDP"
      },
      "cancel(bytes32)": {
        "notice": "Remove the CDP from the marketplace"
      },
      "getCdpPrice(bytes32)": {
        "notice": "Calculates the price of the CDP given the discount and the fee"
      },
      "getItemsOnSale()": {
        "notice": "Used by front to fetch what is on sale"
      },
      "isOnSale(bytes32)": {
        "notice": "Helper method to check if a CDP is on sale"
      },
      "putOnSale(bytes32,uint256)": {
        "notice": "User calls this method to put a CDP on sale which he must own"
      },
      "withdraw()": {
        "notice": "A only owner functon which withdraws Eth balance"
      }
    }
  }
}