{
  "contractName": "MarketplaceProxy",
  "abi": [
    {
      "constant": true,
      "inputs": [],
      "name": "WETH_ADDRESS",
      "outputs": [
        {
          "name": "",
          "type": "address"
        }
      ],
      "payable": false,
      "stateMutability": "view",
      "type": "function"
    },
    {
      "constant": true,
      "inputs": [],
      "name": "CDAI_ADDRESS",
      "outputs": [
        {
          "name": "",
          "type": "address"
        }
      ],
      "payable": false,
      "stateMutability": "view",
      "type": "function"
    },
    {
      "constant": true,
      "inputs": [],
      "name": "PIP_INTERFACE_ADDRESS",
      "outputs": [
        {
          "name": "",
          "type": "address"
        }
      ],
      "payable": false,
      "stateMutability": "view",
      "type": "function"
    },
    {
      "constant": true,
      "inputs": [],
      "name": "KYBER_ETH_ADDRESS",
      "outputs": [
        {
          "name": "",
          "type": "address"
        }
      ],
      "payable": false,
      "stateMutability": "view",
      "type": "function"
    },
    {
      "constant": true,
      "inputs": [],
      "name": "OTC_ADDRESS",
      "outputs": [
        {
          "name": "",
          "type": "address"
        }
      ],
      "payable": false,
      "stateMutability": "view",
      "type": "function"
    },
    {
      "constant": true,
      "inputs": [],
      "name": "IDAI_ADDRESS",
      "outputs": [
        {
          "name": "",
          "type": "address"
        }
      ],
      "payable": false,
      "stateMutability": "view",
      "type": "function"
    },
    {
      "constant": true,
      "inputs": [],
      "name": "GAS_TOKEN_INTERFACE_ADDRESS",
      "outputs": [
        {
          "name": "",
          "type": "address"
        }
      ],
      "payable": false,
      "stateMutability": "view",
      "type": "function"
    },
    {
      "constant": true,
      "inputs": [],
      "name": "VOX_ADDRESS",
      "outputs": [
        {
          "name": "",
          "type": "address"
        }
      ],
      "payable": false,
      "stateMutability": "view",
      "type": "function"
    },
    {
      "constant": true,
      "inputs": [],
      "name": "ETH2DAI_WRAPPER",
      "outputs": [
        {
          "name": "",
          "type": "address"
        }
      ],
      "payable": false,
      "stateMutability": "view",
      "type": "function"
    },
    {
      "constant": true,
      "inputs": [],
      "name": "STUPID_EXCHANGE",
      "outputs": [
        {
          "name": "",
          "type": "address"
        }
      ],
      "payable": false,
      "stateMutability": "view",
      "type": "function"
    },
    {
      "constant": true,
      "inputs": [],
      "name": "PROXY_REGISTRY_INTERFACE_ADDRESS",
      "outputs": [
        {
          "name": "",
          "type": "address"
        }
      ],
      "payable": false,
      "stateMutability": "view",
      "type": "function"
    },
    {
      "constant": true,
      "inputs": [],
      "name": "MKR_ADDRESS",
      "outputs": [
        {
          "name": "",
          "type": "address"
        }
      ],
      "payable": false,
      "stateMutability": "view",
      "type": "function"
    },
    {
      "constant": true,
      "inputs": [],
      "name": "FACTORY_ADDRESS",
      "outputs": [
        {
          "name": "",
          "type": "address"
        }
      ],
      "payable": false,
      "stateMutability": "view",
      "type": "function"
    },
    {
      "constant": true,
      "inputs": [],
      "name": "LOGGER_ADDRESS",
      "outputs": [
        {
          "name": "",
          "type": "address"
        }
      ],
      "payable": false,
      "stateMutability": "view",
      "type": "function"
    },
    {
      "constant": true,
      "inputs": [],
      "name": "MAKER_DAI_ADDRESS",
      "outputs": [
        {
          "name": "",
          "type": "address"
        }
      ],
      "payable": false,
      "stateMutability": "view",
      "type": "function"
    },
    {
      "constant": true,
      "inputs": [],
      "name": "KYBER_WRAPPER",
      "outputs": [
        {
          "name": "",
          "type": "address"
        }
      ],
      "payable": false,
      "stateMutability": "view",
      "type": "function"
    },
    {
      "constant": true,
      "inputs": [],
      "name": "COMPOUND_DAI_ADDRESS",
      "outputs": [
        {
          "name": "",
          "type": "address"
        }
      ],
      "payable": false,
      "stateMutability": "view",
      "type": "function"
    },
    {
      "constant": true,
      "inputs": [],
      "name": "UNISWAP_FACTORY",
      "outputs": [
        {
          "name": "",
          "type": "address"
        }
      ],
      "payable": false,
      "stateMutability": "view",
      "type": "function"
    },
    {
      "constant": true,
      "inputs": [],
      "name": "PETH_ADDRESS",
      "outputs": [
        {
          "name": "",
          "type": "address"
        }
      ],
      "payable": false,
      "stateMutability": "view",
      "type": "function"
    },
    {
      "constant": true,
      "inputs": [],
      "name": "KYBER_INTERFACE",
      "outputs": [
        {
          "name": "",
          "type": "address"
        }
      ],
      "payable": false,
      "stateMutability": "view",
      "type": "function"
    },
    {
      "constant": true,
      "inputs": [],
      "name": "WALLET_ID",
      "outputs": [
        {
          "name": "",
          "type": "address"
        }
      ],
      "payable": false,
      "stateMutability": "view",
      "type": "function"
    },
    {
      "constant": true,
      "inputs": [],
      "name": "SOLO_MARGIN_ADDRESS",
      "outputs": [
        {
          "name": "",
          "type": "address"
        }
      ],
      "payable": false,
      "stateMutability": "view",
      "type": "function"
    },
    {
      "constant": true,
      "inputs": [],
      "name": "UNISWAP_WRAPPER",
      "outputs": [
        {
          "name": "",
          "type": "address"
        }
      ],
      "payable": false,
      "stateMutability": "view",
      "type": "function"
    },
    {
      "constant": true,
      "inputs": [],
      "name": "TUB_ADDRESS",
      "outputs": [
        {
          "name": "",
          "type": "address"
        }
      ],
      "payable": false,
      "stateMutability": "view",
      "type": "function"
    },
    {
      "constant": false,
      "inputs": [
        {
          "name": "_cup",
          "type": "bytes32"
        },
        {
          "name": "_newOwner",
          "type": "address"
        }
      ],
      "name": "give",
      "outputs": [],
      "payable": false,
      "stateMutability": "nonpayable",
      "type": "function"
    },
    {
      "constant": false,
      "inputs": [
        {
          "name": "_cup",
          "type": "bytes32"
        },
        {
          "name": "_discount",
          "type": "uint256"
        },
        {
          "name": "_marketplace",
          "type": "address"
        },
        {
          "name": "_proxy",
          "type": "address"
        }
      ],
      "name": "createAuthorizeAndSell",
      "outputs": [],
      "payable": false,
      "stateMutability": "nonpayable",
      "type": "function"
    },
    {
      "constant": false,
      "inputs": [
        {
          "name": "_cup",
          "type": "bytes32"
        },
        {
          "name": "_discount",
          "type": "uint256"
        },
        {
          "name": "_marketplace",
          "type": "address"
        },
        {
          "name": "_proxy",
          "type": "address"
        }
      ],
      "name": "authorizeAndSell",
      "outputs": [],
      "payable": false,
      "stateMutability": "nonpayable",
      "type": "function"
    },
    {
      "constant": false,
      "inputs": [
        {
          "name": "_cup",
          "type": "bytes32"
        },
        {
          "name": "_discount",
          "type": "uint256"
        },
        {
          "name": "_marketplace",
          "type": "address"
        }
      ],
      "name": "sell",
      "outputs": [],
      "payable": false,
      "stateMutability": "nonpayable",
      "type": "function"
    },
    {
      "constant": false,
      "inputs": [
        {
          "name": "_cup",
          "type": "bytes32"
        },
        {
          "name": "_marketplace",
          "type": "address"
        }
      ],
      "name": "cancel",
      "outputs": [],
      "payable": false,
      "stateMutability": "nonpayable",
      "type": "function"
    }
  ],
  "bytecode": "0x608060405234801561001057600080fd5b506113ac806100206000396000f3fe608060405234801561001057600080fd5b50600436106101cf5760003560e01c80638823151b11610104578063c74c0fac116100a2578063d36b907d11610071578063d36b907d14610952578063d3ee65811461099c578063ddaa293c14610a14578063f0d405e514610a5e576101cf565b8063c74c0fac1461082a578063c9fde27014610874578063ce9bde1d146108be578063d3661fa514610908576101cf565b80639da779e9116100de5780639da779e9146106fe578063b175afa114610748578063baa8529c14610792578063c16921b7146107e0576101cf565b80638823151b1461061257806390423e441461065c57806394bfbe74146106b4576101cf565b80632d5eeb3f1161017157806343fb75e81161014b57806343fb75e8146104ea578063502237d714610534578063728c00921461057e578063825ffd92146105c8576101cf565b80632d5eeb3f1461040c57806332ac5cd21461045657806336e6da11146104a0576101cf565b80631dab52b0116101ad5780631dab52b0146102e057806322cae9a21461032a57806329f7fc9e146103785780632a441f05146103c2576101cf565b8063040141e5146101d45780630531b2ad1461021e57806318c6926e14610268575b600080fd5b6101dc610aa8565b604051808273ffffffffffffffffffffffffffffffffffffffff1673ffffffffffffffffffffffffffffffffffffffff16815260200191505060405180910390f35b610226610ac0565b604051808273ffffffffffffffffffffffffffffffffffffffff1673ffffffffffffffffffffffffffffffffffffffff16815260200191505060405180910390f35b6102de6004803603608081101561027e57600080fd5b810190808035906020019092919080359060200190929190803573ffffffffffffffffffffffffffffffffffffffff169060200190929190803573ffffffffffffffffffffffffffffffffffffffff169060200190929190505050610ad8565b005b6102e8610cfe565b604051808273ffffffffffffffffffffffffffffffffffffffff1673ffffffffffffffffffffffffffffffffffffffff16815260200191505060405180910390f35b6103766004803603604081101561034057600080fd5b8101908080359060200190929190803573ffffffffffffffffffffffffffffffffffffffff169060200190929190505050610d16565b005b610380610d85565b604051808273ffffffffffffffffffffffffffffffffffffffff1673ffffffffffffffffffffffffffffffffffffffff16815260200191505060405180910390f35b6103ca610d9d565b604051808273ffffffffffffffffffffffffffffffffffffffff1673ffffffffffffffffffffffffffffffffffffffff16815260200191505060405180910390f35b610414610db5565b604051808273ffffffffffffffffffffffffffffffffffffffff1673ffffffffffffffffffffffffffffffffffffffff16815260200191505060405180910390f35b61045e610dcd565b604051808273ffffffffffffffffffffffffffffffffffffffff1673ffffffffffffffffffffffffffffffffffffffff16815260200191505060405180910390f35b6104a8610de0565b604051808273ffffffffffffffffffffffffffffffffffffffff1673ffffffffffffffffffffffffffffffffffffffff16815260200191505060405180910390f35b6104f2610df8565b604051808273ffffffffffffffffffffffffffffffffffffffff1673ffffffffffffffffffffffffffffffffffffffff16815260200191505060405180910390f35b61053c610e10565b604051808273ffffffffffffffffffffffffffffffffffffffff1673ffffffffffffffffffffffffffffffffffffffff16815260200191505060405180910390f35b610586610e28565b604051808273ffffffffffffffffffffffffffffffffffffffff1673ffffffffffffffffffffffffffffffffffffffff16815260200191505060405180910390f35b6105d0610e40565b604051808273ffffffffffffffffffffffffffffffffffffffff1673ffffffffffffffffffffffffffffffffffffffff16815260200191505060405180910390f35b61061a610e58565b604051808273ffffffffffffffffffffffffffffffffffffffff1673ffffffffffffffffffffffffffffffffffffffff16815260200191505060405180910390f35b6106b26004803603606081101561067257600080fd5b810190808035906020019092919080359060200190929190803573ffffffffffffffffffffffffffffffffffffffff169060200190929190505050610e70565b005b6106bc610ee8565b604051808273ffffffffffffffffffffffffffffffffffffffff1673ffffffffffffffffffffffffffffffffffffffff16815260200191505060405180910390f35b610706610f00565b604051808273ffffffffffffffffffffffffffffffffffffffff1673ffffffffffffffffffffffffffffffffffffffff16815260200191505060405180910390f35b610750610f18565b604051808273ffffffffffffffffffffffffffffffffffffffff1673ffffffffffffffffffffffffffffffffffffffff16815260200191505060405180910390f35b6107de600480360360408110156107a857600080fd5b8101908080359060200190929190803573ffffffffffffffffffffffffffffffffffffffff169060200190929190505050610f30565b005b6107e8610fed565b604051808273ffffffffffffffffffffffffffffffffffffffff1673ffffffffffffffffffffffffffffffffffffffff16815260200191505060405180910390f35b610832611005565b604051808273ffffffffffffffffffffffffffffffffffffffff1673ffffffffffffffffffffffffffffffffffffffff16815260200191505060405180910390f35b61087c61101d565b604051808273ffffffffffffffffffffffffffffffffffffffff1673ffffffffffffffffffffffffffffffffffffffff16815260200191505060405180910390f35b6108c6611035565b604051808273ffffffffffffffffffffffffffffffffffffffff1673ffffffffffffffffffffffffffffffffffffffff16815260200191505060405180910390f35b61091061104d565b604051808273ffffffffffffffffffffffffffffffffffffffff1673ffffffffffffffffffffffffffffffffffffffff16815260200191505060405180910390f35b61095a611065565b604051808273ffffffffffffffffffffffffffffffffffffffff1673ffffffffffffffffffffffffffffffffffffffff16815260200191505060405180910390f35b610a12600480360360808110156109b257600080fd5b810190808035906020019092919080359060200190929190803573ffffffffffffffffffffffffffffffffffffffff169060200190929190803573ffffffffffffffffffffffffffffffffffffffff16906020019092919050505061107d565b005b610a1c611350565b604051808273ffffffffffffffffffffffffffffffffffffffff1673ffffffffffffffffffffffffffffffffffffffff16815260200191505060405180910390f35b610a66611368565b604051808273ffffffffffffffffffffffffffffffffffffffff1673ffffffffffffffffffffffffffffffffffffffff16815260200191505060405180910390f35b73d0a1e359811322d97991e03f863a0c30c2cf029c81565b73b6b09fbffba6a5c4631e5f7b2e3ee183ac259c0d81565b60008173ffffffffffffffffffffffffffffffffffffffff1663bf7e214f6040518163ffffffff1660e01b815260040160206040518083038186803b158015610b2057600080fd5b505afa158015610b34573d6000803e3d6000fd5b505050506040513d6020811015610b4a57600080fd5b810190808051906020019092919050505090508073ffffffffffffffffffffffffffffffffffffffff1663cbeea68c848460405180807f6578656375746528616464726573732c62797465732900000000000000000000815250601601905060405180910390206040518463ffffffff1660e01b8152600401808473ffffffffffffffffffffffffffffffffffffffff1673ffffffffffffffffffffffffffffffffffffffff1681526020018373ffffffffffffffffffffffffffffffffffffffff1673ffffffffffffffffffffffffffffffffffffffff168152602001827bffffffffffffffffffffffffffffffffffffffffffffffffffffffff191681526020019350505050600060405180830381600087803b158015610c6c57600080fd5b505af1158015610c80573d6000803e3d6000fd5b505050508273ffffffffffffffffffffffffffffffffffffffff16634db4f98186866040518363ffffffff1660e01b81526004018083815260200182815260200192505050600060405180830381600087803b158015610cdf57600080fd5b505af1158015610cf3573d6000803e3d6000fd5b505050505050505050565b73a944bd4b25c9f186a846fd5668941aa3d3b8425f81565b8073ffffffffffffffffffffffffffffffffffffffff1663c4d252f5836040518263ffffffff1660e01b815260040180828152602001915050600060405180830381600087803b158015610d6957600080fd5b505af1158015610d7d573d6000803e3d6000fd5b505050505050565b73eeeeeeeeeeeeeeeeeeeeeeeeeeeeeeeeeeeeeeee81565b734a6bc4e803c62081ffebcc8d227b5a87a58f1f8f81565b73a1e58f3b1927743393b25f261471e1f2d3d9f0f681565b6e170ccc93903185be5a2094c870df6281565b73bb4339c0ab5b1d9f14bd6e3426444a1e9d86a1d981565b73823cde416973a19f98bb9c96d97f4fe6c9a7238b81565b73863e41fe88288ebf3fcd91d8dbb679fb83fdfe1781565b7364a436ae831c1672ae81f674cab8b6775df3475c81565b73aaf64bfcc32d0f15873a02163e7e500671a4ffcd81565b73c72e74e474682680a414b506699bbca44ab9a93081565b8073ffffffffffffffffffffffffffffffffffffffff16634db4f98184846040518363ffffffff1660e01b81526004018083815260200182815260200192505050600060405180830381600087803b158015610ecb57600080fd5b505af1158015610edf573d6000803e3d6000fd5b50505050505050565b7332d0e18f988f952eb3524ace762042381a2c39e581565b73c4375b7de8af5a38a93548eb8453a498222c4ff281565b735595930d576aedf13945c83ce5aad827529a131081565b600073a71937147b55deb8a530c7229c442fd3f31b7db290508073ffffffffffffffffffffffffffffffffffffffff1663baa8529c84846040518363ffffffff1660e01b8152600401808381526020018273ffffffffffffffffffffffffffffffffffffffff1673ffffffffffffffffffffffffffffffffffffffff16815260200192505050600060405180830381600087803b158015610fd057600080fd5b505af1158015610fe4573d6000803e3d6000fd5b50505050505050565b7325a01a05c188dacbcf1d61af55d4a5b4021f7eed81565b73f5d915570bc477f9b8d6c0e980aa81757a3aac3681565b73f4d791139ce033ad35db2b2201435fad668b1b6481565b73692f391bcc85cefce8c237c01e1f636bbd70ea4d81565b7354b44c6b18fc0b4a1010b21d524c338d1f8065f681565b734ec3570cadaaee08ae384779b0f3a45ef85289de81565b600073c72e74e474682680a414b506699bbca44ab9a93073ffffffffffffffffffffffffffffffffffffffff166365688cc96040518163ffffffff1660e01b8152600401602060405180830381600087803b1580156110db57600080fd5b505af11580156110ef573d6000803e3d6000fd5b505050506040513d602081101561110557600080fd5b810190808051906020019092919050505090508173ffffffffffffffffffffffffffffffffffffffff16637a9e5e4b826040518263ffffffff1660e01b8152600401808273ffffffffffffffffffffffffffffffffffffffff1673ffffffffffffffffffffffffffffffffffffffff168152602001915050600060405180830381600087803b15801561119757600080fd5b505af11580156111ab573d6000803e3d6000fd5b505050508073ffffffffffffffffffffffffffffffffffffffff1663cbeea68c848460405180807f6578656375746528616464726573732c62797465732900000000000000000000815250601601905060405180910390206040518463ffffffff1660e01b8152600401808473ffffffffffffffffffffffffffffffffffffffff1673ffffffffffffffffffffffffffffffffffffffff1681526020018373ffffffffffffffffffffffffffffffffffffffff1673ffffffffffffffffffffffffffffffffffffffff168152602001827bffffffffffffffffffffffffffffffffffffffffffffffffffffffff191681526020019350505050600060405180830381600087803b1580156112be57600080fd5b505af11580156112d2573d6000803e3d6000fd5b505050508273ffffffffffffffffffffffffffffffffffffffff16634db4f98186866040518363ffffffff1660e01b81526004018083815260200182815260200192505050600060405180830381600087803b15801561133157600080fd5b505af1158015611345573d6000803e3d6000fd5b505050505050505050565b735595930d576aedf13945c83ce5aad827529a131081565b73a71937147b55deb8a530c7229c442fd3f31b7db28156fea165627a7a72305820af9820e8292e1563f252ef9703d40cfaed49378251bebe2678883abd9cb2086b0029",
  "source": "pragma solidity ^0.5.0;\n\nimport \"./interfaces/TubInterface.sol\";\nimport \"./DS/DSGuard.sol\";\nimport \"./Marketplace.sol\";\nimport \"./constants/ConstantAddresses.sol\";\n\n/// @title MarketplaceProxy handles authorization and interaction with the Marketplace contract\ncontract MarketplaceProxy is ConstantAddresses {\n\n    ///@dev Called by the Marketplace contract, will give CDP only if you're authorized or CDP owner\n    ///@param _cup CDP Id\n    ///@param _newOwner Transfer the CDP to this address\n    function give(bytes32 _cup, address _newOwner) public {\n        TubInterface tub = TubInterface(TUB_ADDRESS);\n\n        tub.give(_cup, _newOwner);\n    }\n\n    ///@dev Creates a new DSGuard for the user, authorizes the marketplace contract and puts on sale the cdp\n    ///@param _cup CDP Id\n    ///@param _discount 4 digit number representing a discount of CDP value (0-9999)\n    ///@param _marketplace Address of the marketplace contract\n    function createAuthorizeAndSell(bytes32 _cup, uint _discount, address _marketplace, address _proxy) public {\n        DSGuard guard = DSGuardFactory(FACTORY_ADDRESS).newGuard();\n        DSAuth(_proxy).setAuthority(DSAuthority(address(guard)));\n\n        guard.permit(_marketplace, _proxy, bytes4(keccak256(\"execute(address,bytes)\")));\n\n        Marketplace(_marketplace).putOnSale(_cup, _discount);\n    }\n\n    ///@dev If the user already own a DSGuard but isn't authorized, authorizes the marketplace contract and sell\n    ///@param _cup CDP Id\n    ///@param _discount 4 digit number representing a discount of CDP value (0-9999)\n    ///@param _marketplace Address of the marketplace contract\n    function authorizeAndSell(bytes32 _cup, uint _discount, address _marketplace, address _proxy) public {\n        DSGuard guard = DSGuard(address(DSAuth(_proxy).authority()));\n        guard.permit(_marketplace, _proxy, bytes4(keccak256(\"execute(address,bytes)\")));\n\n        Marketplace(_marketplace).putOnSale(_cup, _discount);\n    }\n\n    ///@dev Put a cdp on sale, if the user already has a DSGuard and authorized it\n    ///@param _cup CDP Id\n    ///@param _discount 4 digit number representing a discount of CDP value (0-9999)\n    ///@param _marketplace Address of the marketplace contract\n    function sell(bytes32 _cup, uint _discount, address _marketplace) public {\n        Marketplace(_marketplace).putOnSale(_cup, _discount);\n    }\n\n    ///@dev Cancel a CDP on sale\n    ///@param _cup CDP Id\n    ///@param _marketplace Address of the marketplace contract\n    function cancel(bytes32 _cup, address _marketplace) public {\n        Marketplace(_marketplace).cancel(_cup);\n    }\n}\n",
  "sourcePath": "/Users/nikolaklipa/Decenter/defisaver/cdpsaver-contracts/contracts/MarketplaceProxy.sol",
  "compiler": {
    "name": "solc",
    "version": "0.5.7+commit.6da8b019.Emscripten.clang"
  },
  "schemaVersion": "3.0.9",
  "updatedAt": "2019-08-13T11:10:46.932Z",
  "devdoc": {
    "methods": {
      "authorizeAndSell(bytes32,uint256,address,address)": {
        "details": "If the user already own a DSGuard but isn't authorized, authorizes the marketplace contract and sell",
        "params": {
          "_cup": "CDP Id",
          "_discount": "4 digit number representing a discount of CDP value (0-9999)",
          "_marketplace": "Address of the marketplace contract"
        }
      },
      "cancel(bytes32,address)": {
        "details": "Cancel a CDP on sale",
        "params": {
          "_cup": "CDP Id",
          "_marketplace": "Address of the marketplace contract"
        }
      },
      "createAuthorizeAndSell(bytes32,uint256,address,address)": {
        "details": "Creates a new DSGuard for the user, authorizes the marketplace contract and puts on sale the cdp",
        "params": {
          "_cup": "CDP Id",
          "_discount": "4 digit number representing a discount of CDP value (0-9999)",
          "_marketplace": "Address of the marketplace contract"
        }
      },
      "give(bytes32,address)": {
        "details": "Called by the Marketplace contract, will give CDP only if you're authorized or CDP owner",
        "params": {
          "_cup": "CDP Id",
          "_newOwner": "Transfer the CDP to this address"
        }
      },
      "sell(bytes32,uint256,address)": {
        "details": "Put a cdp on sale, if the user already has a DSGuard and authorized it",
        "params": {
          "_cup": "CDP Id",
          "_discount": "4 digit number representing a discount of CDP value (0-9999)",
          "_marketplace": "Address of the marketplace contract"
        }
      }
    },
    "title": "MarketplaceProxy handles authorization and interaction with the Marketplace contract"
  },
  "userdoc": {
    "methods": {}
  }
}