{
  "contractName": "Marketplace",
  "abi": [
    {
      "constant": true,
      "inputs": [],
      "name": "WETH_ADDRESS",
      "outputs": [
        {
          "name": "",
          "type": "address"
        }
      ],
      "payable": false,
      "stateMutability": "view",
      "type": "function"
    },
    {
      "constant": true,
      "inputs": [],
      "name": "CDAI_ADDRESS",
      "outputs": [
        {
          "name": "",
          "type": "address"
        }
      ],
      "payable": false,
      "stateMutability": "view",
      "type": "function"
    },
    {
      "constant": false,
      "inputs": [
        {
          "name": "owner_",
          "type": "address"
        }
      ],
      "name": "setOwner",
      "outputs": [],
      "payable": false,
      "stateMutability": "nonpayable",
      "type": "function"
    },
    {
      "constant": true,
      "inputs": [
        {
          "name": "",
          "type": "uint256"
        }
      ],
      "name": "itemsArr",
      "outputs": [
        {
          "name": "",
          "type": "bytes32"
        }
      ],
      "payable": false,
      "stateMutability": "view",
      "type": "function"
    },
    {
      "constant": true,
      "inputs": [],
      "name": "PIP_INTERFACE_ADDRESS",
      "outputs": [
        {
          "name": "",
          "type": "address"
        }
      ],
      "payable": false,
      "stateMutability": "view",
      "type": "function"
    },
    {
      "constant": true,
      "inputs": [],
      "name": "KYBER_ETH_ADDRESS",
      "outputs": [
        {
          "name": "",
          "type": "address"
        }
      ],
      "payable": false,
      "stateMutability": "view",
      "type": "function"
    },
    {
      "constant": true,
      "inputs": [],
      "name": "OTC_ADDRESS",
      "outputs": [
        {
          "name": "",
          "type": "address"
        }
      ],
      "payable": false,
      "stateMutability": "view",
      "type": "function"
    },
    {
      "constant": true,
      "inputs": [],
      "name": "IDAI_ADDRESS",
      "outputs": [
        {
          "name": "",
          "type": "address"
        }
      ],
      "payable": false,
      "stateMutability": "view",
      "type": "function"
    },
    {
      "constant": true,
      "inputs": [],
      "name": "GAS_TOKEN_INTERFACE_ADDRESS",
      "outputs": [
        {
          "name": "",
          "type": "address"
        }
      ],
      "payable": false,
      "stateMutability": "view",
      "type": "function"
    },
    {
      "constant": true,
      "inputs": [],
      "name": "tub",
      "outputs": [
        {
          "name": "",
          "type": "address"
        }
      ],
      "payable": false,
      "stateMutability": "view",
      "type": "function"
    },
    {
      "constant": true,
      "inputs": [],
      "name": "VOX_ADDRESS",
      "outputs": [
        {
          "name": "",
          "type": "address"
        }
      ],
      "payable": false,
      "stateMutability": "view",
      "type": "function"
    },
    {
      "constant": true,
      "inputs": [],
      "name": "ETH2DAI_WRAPPER",
      "outputs": [
        {
          "name": "",
          "type": "address"
        }
      ],
      "payable": false,
      "stateMutability": "view",
      "type": "function"
    },
    {
      "constant": true,
      "inputs": [
        {
          "name": "",
          "type": "bytes32"
        }
      ],
      "name": "items",
      "outputs": [
        {
          "name": "owner",
          "type": "address"
        },
        {
          "name": "proxy",
          "type": "address"
        },
        {
          "name": "discount",
          "type": "uint256"
        },
        {
          "name": "active",
          "type": "bool"
        }
      ],
      "payable": false,
      "stateMutability": "view",
      "type": "function"
    },
    {
      "constant": true,
      "inputs": [],
      "name": "STUPID_EXCHANGE",
      "outputs": [
        {
          "name": "",
          "type": "address"
        }
      ],
      "payable": false,
      "stateMutability": "view",
      "type": "function"
    },
    {
      "constant": true,
      "inputs": [],
      "name": "PROXY_REGISTRY_INTERFACE_ADDRESS",
      "outputs": [
        {
          "name": "",
          "type": "address"
        }
      ],
      "payable": false,
      "stateMutability": "view",
      "type": "function"
    },
    {
      "constant": false,
      "inputs": [
        {
          "name": "authority_",
          "type": "address"
        }
      ],
      "name": "setAuthority",
      "outputs": [],
      "payable": false,
      "stateMutability": "nonpayable",
      "type": "function"
    },
    {
      "constant": true,
      "inputs": [],
      "name": "registry",
      "outputs": [
        {
          "name": "",
          "type": "address"
        }
      ],
      "payable": false,
      "stateMutability": "view",
      "type": "function"
    },
    {
      "constant": true,
      "inputs": [],
      "name": "MKR_ADDRESS",
      "outputs": [
        {
          "name": "",
          "type": "address"
        }
      ],
      "payable": false,
      "stateMutability": "view",
      "type": "function"
    },
    {
      "constant": true,
      "inputs": [],
      "name": "FACTORY_ADDRESS",
      "outputs": [
        {
          "name": "",
          "type": "address"
        }
      ],
      "payable": false,
      "stateMutability": "view",
      "type": "function"
    },
    {
      "constant": true,
      "inputs": [],
      "name": "owner",
      "outputs": [
        {
          "name": "",
          "type": "address"
        }
      ],
      "payable": false,
      "stateMutability": "view",
      "type": "function"
    },
    {
      "constant": true,
      "inputs": [],
      "name": "LOGGER_ADDRESS",
      "outputs": [
        {
          "name": "",
          "type": "address"
        }
      ],
      "payable": false,
      "stateMutability": "view",
      "type": "function"
    },
    {
      "constant": true,
      "inputs": [],
      "name": "MAKER_DAI_ADDRESS",
      "outputs": [
        {
          "name": "",
          "type": "address"
        }
      ],
      "payable": false,
      "stateMutability": "view",
      "type": "function"
    },
    {
      "constant": true,
      "inputs": [],
      "name": "marketplaceProxy",
      "outputs": [
        {
          "name": "",
          "type": "address"
        }
      ],
      "payable": false,
      "stateMutability": "view",
      "type": "function"
    },
    {
      "constant": true,
      "inputs": [],
      "name": "KYBER_WRAPPER",
      "outputs": [
        {
          "name": "",
          "type": "address"
        }
      ],
      "payable": false,
      "stateMutability": "view",
      "type": "function"
    },
    {
      "constant": true,
      "inputs": [],
      "name": "authority",
      "outputs": [
        {
          "name": "",
          "type": "address"
        }
      ],
      "payable": false,
      "stateMutability": "view",
      "type": "function"
    },
    {
      "constant": true,
      "inputs": [],
      "name": "COMPOUND_DAI_ADDRESS",
      "outputs": [
        {
          "name": "",
          "type": "address"
        }
      ],
      "payable": false,
      "stateMutability": "view",
      "type": "function"
    },
    {
      "constant": true,
      "inputs": [],
      "name": "UNISWAP_FACTORY",
      "outputs": [
        {
          "name": "",
          "type": "address"
        }
      ],
      "payable": false,
      "stateMutability": "view",
      "type": "function"
    },
    {
      "constant": true,
      "inputs": [],
      "name": "PETH_ADDRESS",
      "outputs": [
        {
          "name": "",
          "type": "address"
        }
      ],
      "payable": false,
      "stateMutability": "view",
      "type": "function"
    },
    {
      "constant": true,
      "inputs": [],
      "name": "KYBER_INTERFACE",
      "outputs": [
        {
          "name": "",
          "type": "address"
        }
      ],
      "payable": false,
      "stateMutability": "view",
      "type": "function"
    },
    {
      "constant": true,
      "inputs": [],
      "name": "WALLET_ID",
      "outputs": [
        {
          "name": "",
          "type": "address"
        }
      ],
      "payable": false,
      "stateMutability": "view",
      "type": "function"
    },
    {
      "constant": true,
      "inputs": [],
      "name": "SOLO_MARGIN_ADDRESS",
      "outputs": [
        {
          "name": "",
          "type": "address"
        }
      ],
      "payable": false,
      "stateMutability": "view",
      "type": "function"
    },
    {
      "constant": true,
      "inputs": [],
      "name": "UNISWAP_WRAPPER",
      "outputs": [
        {
          "name": "",
          "type": "address"
        }
      ],
      "payable": false,
      "stateMutability": "view",
      "type": "function"
    },
    {
      "constant": true,
      "inputs": [],
      "name": "fee",
      "outputs": [
        {
          "name": "",
          "type": "uint256"
        }
      ],
      "payable": false,
      "stateMutability": "view",
      "type": "function"
    },
    {
      "constant": true,
      "inputs": [],
      "name": "TUB_ADDRESS",
      "outputs": [
        {
          "name": "",
          "type": "address"
        }
      ],
      "payable": false,
      "stateMutability": "view",
      "type": "function"
    },
    {
      "constant": true,
      "inputs": [
        {
          "name": "",
          "type": "bytes32"
        }
      ],
      "name": "itemPos",
      "outputs": [
        {
          "name": "",
          "type": "uint256"
        }
      ],
      "payable": false,
      "stateMutability": "view",
      "type": "function"
    },
    {
      "inputs": [
        {
          "name": "_marketplaceProxy",
          "type": "address"
        }
      ],
      "payable": false,
      "stateMutability": "nonpayable",
      "type": "constructor"
    },
    {
      "anonymous": false,
      "inputs": [
        {
          "indexed": true,
          "name": "cup",
          "type": "bytes32"
        },
        {
          "indexed": true,
          "name": "proxy",
          "type": "address"
        },
        {
          "indexed": false,
          "name": "owner",
          "type": "address"
        },
        {
          "indexed": false,
          "name": "discount",
          "type": "uint256"
        }
      ],
      "name": "OnSale",
      "type": "event"
    },
    {
      "anonymous": false,
      "inputs": [
        {
          "indexed": true,
          "name": "cup",
          "type": "bytes32"
        },
        {
          "indexed": true,
          "name": "newLad",
          "type": "address"
        },
        {
          "indexed": true,
          "name": "oldProxy",
          "type": "address"
        },
        {
          "indexed": false,
          "name": "oldOwner",
          "type": "address"
        },
        {
          "indexed": false,
          "name": "discount",
          "type": "uint256"
        }
      ],
      "name": "Bought",
      "type": "event"
    },
    {
      "anonymous": false,
      "inputs": [
        {
          "indexed": true,
          "name": "authority",
          "type": "address"
        }
      ],
      "name": "LogSetAuthority",
      "type": "event"
    },
    {
      "anonymous": false,
      "inputs": [
        {
          "indexed": true,
          "name": "owner",
          "type": "address"
        }
      ],
      "name": "LogSetOwner",
      "type": "event"
    },
    {
      "constant": false,
      "inputs": [
        {
          "name": "_cup",
          "type": "bytes32"
        },
        {
          "name": "_discount",
          "type": "uint256"
        }
      ],
      "name": "putOnSale",
      "outputs": [],
      "payable": false,
      "stateMutability": "nonpayable",
      "type": "function"
    },
    {
      "constant": false,
      "inputs": [
        {
          "name": "_cup",
          "type": "bytes32"
        },
        {
          "name": "_newOwner",
          "type": "address"
        }
      ],
      "name": "buy",
      "outputs": [],
      "payable": true,
      "stateMutability": "payable",
      "type": "function"
    },
    {
      "constant": false,
      "inputs": [
        {
          "name": "_cup",
          "type": "bytes32"
        }
      ],
      "name": "cancel",
      "outputs": [],
      "payable": false,
      "stateMutability": "nonpayable",
      "type": "function"
    },
    {
      "constant": false,
      "inputs": [],
      "name": "withdraw",
      "outputs": [],
      "payable": false,
      "stateMutability": "nonpayable",
      "type": "function"
    },
    {
      "constant": false,
      "inputs": [
        {
          "name": "_cup",
          "type": "bytes32"
        }
      ],
      "name": "getCdpPrice",
      "outputs": [
        {
          "name": "",
          "type": "uint256"
        },
        {
          "name": "",
          "type": "uint256"
        }
      ],
      "payable": false,
      "stateMutability": "nonpayable",
      "type": "function"
    },
    {
      "constant": true,
      "inputs": [],
      "name": "getItemsOnSale",
      "outputs": [
        {
          "name": "arr",
          "type": "bytes32[]"
        }
      ],
      "payable": false,
      "stateMutability": "view",
      "type": "function"
    },
    {
      "constant": true,
      "inputs": [
        {
          "name": "_cup",
          "type": "bytes32"
        }
      ],
      "name": "isOnSale",
      "outputs": [
        {
          "name": "",
          "type": "bool"
        }
      ],
      "payable": false,
      "stateMutability": "view",
      "type": "function"
    }
  ],
  "bytecode": "0x608060405260646006557364a436ae831c1672ae81f674cab8b6775df3475c600760006101000a81548173ffffffffffffffffffffffffffffffffffffffff021916908373ffffffffffffffffffffffffffffffffffffffff16021790555073a71937147b55deb8a530c7229c442fd3f31b7db2600860006101000a81548173ffffffffffffffffffffffffffffffffffffffff021916908373ffffffffffffffffffffffffffffffffffffffff1602179055503480156100bf57600080fd5b50604051602080613653833981018060405260208110156100df57600080fd5b810190808051906020019092919050505033600160006101000a81548173ffffffffffffffffffffffffffffffffffffffff021916908373ffffffffffffffffffffffffffffffffffffffff1602179055503373ffffffffffffffffffffffffffffffffffffffff167fce241d7ca1f669fee44b6fc00b8eba2df3bb514eed0f6f668f8f89096e81ed9460405160405180910390a280600560006101000a81548173ffffffffffffffffffffffffffffffffffffffff021916908373ffffffffffffffffffffffffffffffffffffffff1602179055505061348e806101c56000396000f3fe6080604052600436106102515760003560e01c80638823151b11610139578063c16921b7116100b6578063d3661fa51161007a578063d3661fa514610e80578063d36b907d14610ed7578063ddaa293c14610f2e578063ddca3f4314610f85578063f0d405e514610fb0578063f97f5ba11461100757610251565b8063c16921b714610ce9578063c4d252f514610d40578063c74c0fac14610d7b578063c9fde27014610dd2578063ce9bde1d14610e2957610251565b8063ac5e7f73116100fd578063ac5e7f7314610b2a578063b175afa114610b81578063bbcbc2e714610bd8578063bf7e214f14610c44578063c049604a14610c9b57610251565b80638823151b146109785780638da5cb5b146109cf57806394bfbe7414610a265780639da779e914610a7d578063a06c9be214610ad457610251565b80633661ab5c116101d25780634db4f981116101965780634db4f98114610786578063502237d7146107cb578063728c0092146108225780637a9e5e4b146108795780637b103999146108ca578063825ffd921461092157610251565b80633661ab5c146105ae57806336e6da11146106015780633ccfd60b1461065857806343fb75e81461066f57806348f343f3146106c657610251565b806329f7fc9e1161021957806329f7fc9e146103fb5780632a441f05146104525780632d5eeb3f146104a957806332ac5cd21461050057806334e70cc21461055757610251565b8063040141e5146102565780630531b2ad146102ad57806313af4035146103045780631c19eb23146103555780631dab52b0146103a4575b600080fd5b34801561026257600080fd5b5061026b611056565b604051808273ffffffffffffffffffffffffffffffffffffffff1673ffffffffffffffffffffffffffffffffffffffff16815260200191505060405180910390f35b3480156102b957600080fd5b506102c261106e565b604051808273ffffffffffffffffffffffffffffffffffffffff1673ffffffffffffffffffffffffffffffffffffffff16815260200191505060405180910390f35b34801561031057600080fd5b506103536004803603602081101561032757600080fd5b81019080803573ffffffffffffffffffffffffffffffffffffffff169060200190929190505050611086565b005b34801561036157600080fd5b5061038e6004803603602081101561037857600080fd5b8101908080359060200190929190505050611166565b6040518082815260200191505060405180910390f35b3480156103b057600080fd5b506103b9611187565b604051808273ffffffffffffffffffffffffffffffffffffffff1673ffffffffffffffffffffffffffffffffffffffff16815260200191505060405180910390f35b34801561040757600080fd5b5061041061119f565b604051808273ffffffffffffffffffffffffffffffffffffffff1673ffffffffffffffffffffffffffffffffffffffff16815260200191505060405180910390f35b34801561045e57600080fd5b506104676111b7565b604051808273ffffffffffffffffffffffffffffffffffffffff1673ffffffffffffffffffffffffffffffffffffffff16815260200191505060405180910390f35b3480156104b557600080fd5b506104be6111cf565b604051808273ffffffffffffffffffffffffffffffffffffffff1673ffffffffffffffffffffffffffffffffffffffff16815260200191505060405180910390f35b34801561050c57600080fd5b506105156111e7565b604051808273ffffffffffffffffffffffffffffffffffffffff1673ffffffffffffffffffffffffffffffffffffffff16815260200191505060405180910390f35b34801561056357600080fd5b5061056c6111fa565b604051808273ffffffffffffffffffffffffffffffffffffffff1673ffffffffffffffffffffffffffffffffffffffff16815260200191505060405180910390f35b3480156105ba57600080fd5b506105e7600480360360208110156105d157600080fd5b8101908080359060200190929190505050611220565b604051808215151515815260200191505060405180910390f35b34801561060d57600080fd5b5061061661124d565b604051808273ffffffffffffffffffffffffffffffffffffffff1673ffffffffffffffffffffffffffffffffffffffff16815260200191505060405180910390f35b34801561066457600080fd5b5061066d611265565b005b34801561067b57600080fd5b506106846112fc565b604051808273ffffffffffffffffffffffffffffffffffffffff1673ffffffffffffffffffffffffffffffffffffffff16815260200191505060405180910390f35b3480156106d257600080fd5b506106ff600480360360208110156106e957600080fd5b8101908080359060200190929190505050611314565b604051808573ffffffffffffffffffffffffffffffffffffffff1673ffffffffffffffffffffffffffffffffffffffff1681526020018473ffffffffffffffffffffffffffffffffffffffff1673ffffffffffffffffffffffffffffffffffffffff1681526020018381526020018215151515815260200194505050505060405180910390f35b34801561079257600080fd5b506107c9600480360360408110156107a957600080fd5b810190808035906020019092919080359060200190929190505050611391565b005b3480156107d757600080fd5b506107e061190e565b604051808273ffffffffffffffffffffffffffffffffffffffff1673ffffffffffffffffffffffffffffffffffffffff16815260200191505060405180910390f35b34801561082e57600080fd5b50610837611926565b604051808273ffffffffffffffffffffffffffffffffffffffff1673ffffffffffffffffffffffffffffffffffffffff16815260200191505060405180910390f35b34801561088557600080fd5b506108c86004803603602081101561089c57600080fd5b81019080803573ffffffffffffffffffffffffffffffffffffffff16906020019092919050505061193e565b005b3480156108d657600080fd5b506108df611a1c565b604051808273ffffffffffffffffffffffffffffffffffffffff1673ffffffffffffffffffffffffffffffffffffffff16815260200191505060405180910390f35b34801561092d57600080fd5b50610936611a42565b604051808273ffffffffffffffffffffffffffffffffffffffff1673ffffffffffffffffffffffffffffffffffffffff16815260200191505060405180910390f35b34801561098457600080fd5b5061098d611a5a565b604051808273ffffffffffffffffffffffffffffffffffffffff1673ffffffffffffffffffffffffffffffffffffffff16815260200191505060405180910390f35b3480156109db57600080fd5b506109e4611a72565b604051808273ffffffffffffffffffffffffffffffffffffffff1673ffffffffffffffffffffffffffffffffffffffff16815260200191505060405180910390f35b348015610a3257600080fd5b50610a3b611a98565b604051808273ffffffffffffffffffffffffffffffffffffffff1673ffffffffffffffffffffffffffffffffffffffff16815260200191505060405180910390f35b348015610a8957600080fd5b50610a92611ab0565b604051808273ffffffffffffffffffffffffffffffffffffffff1673ffffffffffffffffffffffffffffffffffffffff16815260200191505060405180910390f35b348015610ae057600080fd5b50610b0d60048036036020811015610af757600080fd5b8101908080359060200190929190505050611ac8565b604051808381526020018281526020019250505060405180910390f35b348015610b3657600080fd5b50610b3f6122ff565b604051808273ffffffffffffffffffffffffffffffffffffffff1673ffffffffffffffffffffffffffffffffffffffff16815260200191505060405180910390f35b348015610b8d57600080fd5b50610b96612325565b604051808273ffffffffffffffffffffffffffffffffffffffff1673ffffffffffffffffffffffffffffffffffffffff16815260200191505060405180910390f35b348015610be457600080fd5b50610bed61233d565b6040518080602001828103825283818151815260200191508051906020019060200280838360005b83811015610c30578082015181840152602081019050610c15565b505050509050019250505060405180910390f35b348015610c5057600080fd5b50610c596124cf565b604051808273ffffffffffffffffffffffffffffffffffffffff1673ffffffffffffffffffffffffffffffffffffffff16815260200191505060405180910390f35b610ce760048036036040811015610cb157600080fd5b8101908080359060200190929190803573ffffffffffffffffffffffffffffffffffffffff1690602001909291905050506124f4565b005b348015610cf557600080fd5b50610cfe612b7b565b604051808273ffffffffffffffffffffffffffffffffffffffff1673ffffffffffffffffffffffffffffffffffffffff16815260200191505060405180910390f35b348015610d4c57600080fd5b50610d7960048036036020811015610d6357600080fd5b8101908080359060200190929190505050612b93565b005b348015610d8757600080fd5b50610d90612c5c565b604051808273ffffffffffffffffffffffffffffffffffffffff1673ffffffffffffffffffffffffffffffffffffffff16815260200191505060405180910390f35b348015610dde57600080fd5b50610de7612c74565b604051808273ffffffffffffffffffffffffffffffffffffffff1673ffffffffffffffffffffffffffffffffffffffff16815260200191505060405180910390f35b348015610e3557600080fd5b50610e3e612c8c565b604051808273ffffffffffffffffffffffffffffffffffffffff1673ffffffffffffffffffffffffffffffffffffffff16815260200191505060405180910390f35b348015610e8c57600080fd5b50610e95612ca4565b604051808273ffffffffffffffffffffffffffffffffffffffff1673ffffffffffffffffffffffffffffffffffffffff16815260200191505060405180910390f35b348015610ee357600080fd5b50610eec612cbc565b604051808273ffffffffffffffffffffffffffffffffffffffff1673ffffffffffffffffffffffffffffffffffffffff16815260200191505060405180910390f35b348015610f3a57600080fd5b50610f43612cd4565b604051808273ffffffffffffffffffffffffffffffffffffffff1673ffffffffffffffffffffffffffffffffffffffff16815260200191505060405180910390f35b348015610f9157600080fd5b50610f9a612cec565b6040518082815260200191505060405180910390f35b348015610fbc57600080fd5b50610fc5612cf2565b604051808273ffffffffffffffffffffffffffffffffffffffff1673ffffffffffffffffffffffffffffffffffffffff16815260200191505060405180910390f35b34801561101357600080fd5b506110406004803603602081101561102a57600080fd5b8101908080359060200190929190505050612d0a565b6040518082815260200191505060405180910390f35b73d0a1e359811322d97991e03f863a0c30c2cf029c81565b73b6b09fbffba6a5c4631e5f7b2e3ee183ac259c0d81565b6110b4336000357fffffffff0000000000000000000000000000000000000000000000000000000016612d22565b6110bd57600080fd5b80600160006101000a81548173ffffffffffffffffffffffffffffffffffffffff021916908373ffffffffffffffffffffffffffffffffffffffff160217905550600160009054906101000a900473ffffffffffffffffffffffffffffffffffffffff1673ffffffffffffffffffffffffffffffffffffffff167fce241d7ca1f669fee44b6fc00b8eba2df3bb514eed0f6f668f8f89096e81ed9460405160405180910390a250565b6004818154811061117357fe5b906000526020600020016000915090505481565b73a944bd4b25c9f186a846fd5668941aa3d3b8425f81565b73eeeeeeeeeeeeeeeeeeeeeeeeeeeeeeeeeeeeeeee81565b734a6bc4e803c62081ffebcc8d227b5a87a58f1f8f81565b73a1e58f3b1927743393b25f261471e1f2d3d9f0f681565b6e170ccc93903185be5a2094c870df6281565b600860009054906101000a900473ffffffffffffffffffffffffffffffffffffffff1681565b60006002600083815260200190815260200160002060030160009054906101000a900460ff169050919050565b73bb4339c0ab5b1d9f14bd6e3426444a1e9d86a1d981565b611293336000357fffffffff0000000000000000000000000000000000000000000000000000000016612d22565b61129c57600080fd5b3373ffffffffffffffffffffffffffffffffffffffff166108fc3073ffffffffffffffffffffffffffffffffffffffff16319081150290604051600060405180830381858888f193505050501580156112f9573d6000803e3d6000fd5b50565b73823cde416973a19f98bb9c96d97f4fe6c9a7238b81565b60026020528060005260406000206000915090508060000160009054906101000a900473ffffffffffffffffffffffffffffffffffffffff16908060010160009054906101000a900473ffffffffffffffffffffffffffffffffffffffff16908060020154908060030160009054906101000a900460ff16905084565b61139b3383612f7b565b6113f0576040517f08c379a000000000000000000000000000000000000000000000000000000000815260040180806020018281038252602b81526020018061340c602b913960400191505060405180910390fd5b612710811080156114015750606481115b611456576040517f08c379a000000000000000000000000000000000000000000000000000000000815260040180806020018281038252602c815260200180613437602c913960400191505060405180910390fd5b6000600860009054906101000a900473ffffffffffffffffffffffffffffffffffffffff1673ffffffffffffffffffffffffffffffffffffffff16631f3634ed846040518263ffffffff1660e01b815260040180828152602001915050602060405180830381600087803b1580156114cd57600080fd5b505af11580156114e1573d6000803e3d6000fd5b505050506040513d60208110156114f757600080fd5b81019080805190602001909291905050501180156115c457506000600860009054906101000a900473ffffffffffffffffffffffffffffffffffffffff1673ffffffffffffffffffffffffffffffffffffffff1663f7c8d634846040518263ffffffff1660e01b815260040180828152602001915050602060405180830381600087803b15801561158757600080fd5b505af115801561159b573d6000803e3d6000fd5b505050506040513d60208110156115b157600080fd5b8101908080519060200190929190505050115b611619576040517f08c379a000000000000000000000000000000000000000000000000000000000815260040180806020018281038252602c815260200180613395602c913960400191505060405180910390fd5b61162282611220565b15611695576040517f08c379a000000000000000000000000000000000000000000000000000000000815260040180806020018281038252601d8152602001807f63616e277420707574206120636470206f6e2073616c6520747769636500000081525060200191505060405180910390fd5b60003373ffffffffffffffffffffffffffffffffffffffff16638da5cb5b6040518163ffffffff1660e01b8152600401602060405180830381600087803b1580156116df57600080fd5b505af11580156116f3573d6000803e3d6000fd5b505050506040513d602081101561170957600080fd5b8101908080519060200190929190505050905060405180608001604052808273ffffffffffffffffffffffffffffffffffffffff1681526020013373ffffffffffffffffffffffffffffffffffffffff168152602001838152602001600115158152506002600085815260200190815260200160002060008201518160000160006101000a81548173ffffffffffffffffffffffffffffffffffffffff021916908373ffffffffffffffffffffffffffffffffffffffff16021790555060208201518160010160006101000a81548173ffffffffffffffffffffffffffffffffffffffff021916908373ffffffffffffffffffffffffffffffffffffffff1602179055506040820151816002015560608201518160030160006101000a81548160ff021916908315150217905550905050600483908060018154018082558091505090600182039060005260206000200160009091929091909150555060016004805490500360036000858152602001908152602001600020819055503373ffffffffffffffffffffffffffffffffffffffff16837fa23e1b9c0cc66d644699301966e3d07beee16a26448ed5807814abbec25025638385604051808373ffffffffffffffffffffffffffffffffffffffff1673ffffffffffffffffffffffffffffffffffffffff1681526020018281526020019250505060405180910390a3505050565b73863e41fe88288ebf3fcd91d8dbb679fb83fdfe1781565b7364a436ae831c1672ae81f674cab8b6775df3475c81565b61196c336000357fffffffff0000000000000000000000000000000000000000000000000000000016612d22565b61197557600080fd5b806000806101000a81548173ffffffffffffffffffffffffffffffffffffffff021916908373ffffffffffffffffffffffffffffffffffffffff1602179055506000809054906101000a900473ffffffffffffffffffffffffffffffffffffffff1673ffffffffffffffffffffffffffffffffffffffff167f1abebea81bfa2637f28358c371278fb15ede7ea8dd28d2e03b112ff6d936ada460405160405180910390a250565b600760009054906101000a900473ffffffffffffffffffffffffffffffffffffffff1681565b73aaf64bfcc32d0f15873a02163e7e500671a4ffcd81565b73c72e74e474682680a414b506699bbca44ab9a93081565b600160009054906101000a900473ffffffffffffffffffffffffffffffffffffffff1681565b7332d0e18f988f952eb3524ace762042381a2c39e581565b73c4375b7de8af5a38a93548eb8453a498222c4ff281565b600080611ad36132c5565b600260008581526020019081526020016000206040518060800160405290816000820160009054906101000a900473ffffffffffffffffffffffffffffffffffffffff1673ffffffffffffffffffffffffffffffffffffffff1673ffffffffffffffffffffffffffffffffffffffff1681526020016001820160009054906101000a900473ffffffffffffffffffffffffffffffffffffffff1673ffffffffffffffffffffffffffffffffffffffff1673ffffffffffffffffffffffffffffffffffffffff168152602001600282015481526020016003820160009054906101000a900460ff16151515158152505090506000611d23600860009054906101000a900473ffffffffffffffffffffffffffffffffffffffff1673ffffffffffffffffffffffffffffffffffffffff16631f3634ed876040518263ffffffff1660e01b815260040180828152602001915050602060405180830381600087803b158015611c3e57600080fd5b505af1158015611c52573d6000803e3d6000fd5b505050506040513d6020811015611c6857600080fd5b8101908080519060200190929190505050600860009054906101000a900473ffffffffffffffffffffffffffffffffffffffff1673ffffffffffffffffffffffffffffffffffffffff16637ec9c3b86040518163ffffffff1660e01b8152600401602060405180830381600087803b158015611ce357600080fd5b505af1158015611cf7573d6000803e3d6000fd5b505050506040513d6020811015611d0d57600080fd5b810190808051906020019092919050505061306c565b90506000612079611f4a600860009054906101000a900473ffffffffffffffffffffffffffffffffffffffff1673ffffffffffffffffffffffffffffffffffffffff1663f7c8d634896040518263ffffffff1660e01b815260040180828152602001915050602060405180830381600087803b158015611da257600080fd5b505af1158015611db6573d6000803e3d6000fd5b505050506040513d6020811015611dcc57600080fd5b8101908080519060200190929190505050611f45600860009054906101000a900473ffffffffffffffffffffffffffffffffffffffff1673ffffffffffffffffffffffffffffffffffffffff16636f78ee0d8b6040518263ffffffff1660e01b815260040180828152602001915050602060405180830381600087803b158015611e5557600080fd5b505af1158015611e69573d6000803e3d6000fd5b505050506040513d6020811015611e7f57600080fd5b8101908080519060200190929190505050600860009054906101000a900473ffffffffffffffffffffffffffffffffffffffff1673ffffffffffffffffffffffffffffffffffffffff1663f7c8d6348c6040518263ffffffff1660e01b815260040180828152602001915050602060405180830381600087803b158015611f0557600080fd5b505af1158015611f19573d6000803e3d6000fd5b505050506040513d6020811015611f2f57600080fd5b81019080805190602001909291905050506130b4565b61306c565b600860009054906101000a900473ffffffffffffffffffffffffffffffffffffffff1673ffffffffffffffffffffffffffffffffffffffff1663d741e2f96040518163ffffffff1660e01b8152600401602060405180830381600087803b158015611fb457600080fd5b505af1158015611fc8573d6000803e3d6000fd5b505050506040513d6020811015611fde57600080fd5b810190808051906020019092919050505073ffffffffffffffffffffffffffffffffffffffff166357de26a46040518163ffffffff1660e01b8152600401602060405180830381600087803b15801561203657600080fd5b505af115801561204a573d6000803e3d6000fd5b505050506040513d602081101561206057600080fd5b810190808051906020019092919050505060001c6130f0565b9050600061226882612263600860009054906101000a900473ffffffffffffffffffffffffffffffffffffffff1673ffffffffffffffffffffffffffffffffffffffff1663f7c8d6348b6040518263ffffffff1660e01b815260040180828152602001915050602060405180830381600087803b1580156120f957600080fd5b505af115801561210d573d6000803e3d6000fd5b505050506040513d602081101561212357600080fd5b8101908080519060200190929190505050600860009054906101000a900473ffffffffffffffffffffffffffffffffffffffff1673ffffffffffffffffffffffffffffffffffffffff1663d741e2f96040518163ffffffff1660e01b8152600401602060405180830381600087803b15801561219e57600080fd5b505af11580156121b2573d6000803e3d6000fd5b505050506040513d60208110156121c857600080fd5b810190808051906020019092919050505073ffffffffffffffffffffffffffffffffffffffff166357de26a46040518163ffffffff1660e01b8152600401602060405180830381600087803b15801561222057600080fd5b505af1158015612234573d6000803e3d6000fd5b505050506040513d602081101561224a57600080fd5b810190808051906020019092919050505060001c6130f0565b613128565b90506000809050600654856040015111156122945761228d8560400151600654613142565b905061229c565b846040015190505b60006127106122bf6122ae8786613142565b6122ba61271086613142565b61315c565b816122c657fe5b04905060006127106122e36122db8887613142565b60065461315c565b816122ea57fe5b04905081819850985050505050505050915091565b600560009054906101000a900473ffffffffffffffffffffffffffffffffffffffff1681565b735595930d576aedf13945c83ce5aad827529a131081565b606060008090506004805490506040519080825280602002602001820160405280156123785781602001602082028038833980820191505090505b50915060008090505b6004805490508110156124ca57600073ffffffffffffffffffffffffffffffffffffffff16600860009054906101000a900473ffffffffffffffffffffffffffffffffffffffff1673ffffffffffffffffffffffffffffffffffffffff1663de5f5517600484815481106123f157fe5b90600052602060002001546040518263ffffffff1660e01b81526004018082815260200191505060206040518083038186803b15801561243057600080fd5b505afa158015612444573d6000803e3d6000fd5b505050506040513d602081101561245a57600080fd5b810190808051906020019092919050505073ffffffffffffffffffffffffffffffffffffffff16146124bf576004818154811061249357fe5b90600052602060002001548383815181106124aa57fe5b60200260200101818152505081806001019250505b806001019050612381565b505090565b6000809054906101000a900473ffffffffffffffffffffffffffffffffffffffff1681565b6000600260008481526020019081526020016000209050600115158160030160009054906101000a900460ff16151514612596576040517f08c379a00000000000000000000000000000000000000000000000000000000081526004018080602001828103825260178152602001807f436865636b20696620637570206973206f6e2073616c6500000000000000000081525060200191505060405180910390fd5b600860009054906101000a900473ffffffffffffffffffffffffffffffffffffffff1673ffffffffffffffffffffffffffffffffffffffff1663de5f5517846040518263ffffffff1660e01b81526004018082815260200191505060206040518083038186803b15801561260957600080fd5b505afa15801561261d573d6000803e3d6000fd5b505050506040513d602081101561263357600080fd5b810190808051906020019092919050505073ffffffffffffffffffffffffffffffffffffffff168160010160009054906101000a900473ffffffffffffffffffffffffffffffffffffffff1673ffffffffffffffffffffffffffffffffffffffff1614612708576040517f08c379a000000000000000000000000000000000000000000000000000000000815260040180806020018281038252601c8152602001807f546865206f776e6572206d7573742073746179207468652073616d650000000081525060200191505060405180910390fd5b60008061271485611ac8565b809250819350505081341015612775576040517f08c379a000000000000000000000000000000000000000000000000000000000815260040180806020018281038252602a8152602001806133e2602a913960400191505060405180910390fd5b60008360030160006101000a81548160ff0219169083151502179055508260010160009054906101000a900473ffffffffffffffffffffffffffffffffffffffff1673ffffffffffffffffffffffffffffffffffffffff16631cff79cd600560009054906101000a900473ffffffffffffffffffffffffffffffffffffffff168787604051602401808381526020018273ffffffffffffffffffffffffffffffffffffffff1673ffffffffffffffffffffffffffffffffffffffff168152602001925050506040516020818303038152906040527fbaa8529c000000000000000000000000000000000000000000000000000000007bffffffffffffffffffffffffffffffffffffffffffffffffffffffff19166020820180517bffffffffffffffffffffffffffffffffffffffffffffffffffffffff83818316178352505050506040518363ffffffff1660e01b8152600401808373ffffffffffffffffffffffffffffffffffffffff1673ffffffffffffffffffffffffffffffffffffffff16815260200180602001828103825283818151815260200191508051906020019080838360005b8381101561293857808201518184015260208101905061291d565b50505050905090810190601f1680156129655780820380516001836020036101000a031916815260200191505b509350505050602060405180830381600087803b15801561298557600080fd5b505af1158015612999573d6000803e3d6000fd5b505050506040513d60208110156129af57600080fd5b8101908080519060200190929190505050508260000160009054906101000a900473ffffffffffffffffffffffffffffffffffffffff1673ffffffffffffffffffffffffffffffffffffffff166108fc612a098484613142565b9081150290604051600060405180830381858888f19350505050158015612a34573d6000803e3d6000fd5b503373ffffffffffffffffffffffffffffffffffffffff166108fc612a593485613142565b9081150290604051600060405180830381858888f19350505050158015612a84573d6000803e3d6000fd5b508260010160009054906101000a900473ffffffffffffffffffffffffffffffffffffffff1673ffffffffffffffffffffffffffffffffffffffff163373ffffffffffffffffffffffffffffffffffffffff16867f786e1e7a3c34c913b4bac247ef51a76aacc938cd4eb2149cac51da7a314d19528660000160009054906101000a900473ffffffffffffffffffffffffffffffffffffffff168760020154604051808373ffffffffffffffffffffffffffffffffffffffff1673ffffffffffffffffffffffffffffffffffffffff1681526020018281526020019250505060405180910390a4612b7485613188565b5050505050565b7325a01a05c188dacbcf1d61af55d4a5b4021f7eed81565b612b9d3382612f7b565b612bf2576040517f08c379a000000000000000000000000000000000000000000000000000000000815260040180806020018281038252602881526020018061336d6028913960400191505060405180910390fd5b612bfb81611220565b612c50576040517f08c379a00000000000000000000000000000000000000000000000000000000081526004018080602001828103825260218152602001806133c16021913960400191505060405180910390fd5b612c5981613188565b50565b73f5d915570bc477f9b8d6c0e980aa81757a3aac3681565b73f4d791139ce033ad35db2b2201435fad668b1b6481565b73692f391bcc85cefce8c237c01e1f636bbd70ea4d81565b7354b44c6b18fc0b4a1010b21d524c338d1f8065f681565b734ec3570cadaaee08ae384779b0f3a45ef85289de81565b735595930d576aedf13945c83ce5aad827529a131081565b60065481565b73a71937147b55deb8a530c7229c442fd3f31b7db281565b60036020528060005260406000206000915090505481565b60003073ffffffffffffffffffffffffffffffffffffffff168373ffffffffffffffffffffffffffffffffffffffff161415612d615760019050612f75565b600160009054906101000a900473ffffffffffffffffffffffffffffffffffffffff1673ffffffffffffffffffffffffffffffffffffffff168373ffffffffffffffffffffffffffffffffffffffff161415612dc05760019050612f75565b600073ffffffffffffffffffffffffffffffffffffffff166000809054906101000a900473ffffffffffffffffffffffffffffffffffffffff1673ffffffffffffffffffffffffffffffffffffffff161415612e1f5760009050612f75565b6000809054906101000a900473ffffffffffffffffffffffffffffffffffffffff1673ffffffffffffffffffffffffffffffffffffffff1663b70096138430856040518463ffffffff1660e01b8152600401808473ffffffffffffffffffffffffffffffffffffffff1673ffffffffffffffffffffffffffffffffffffffff1681526020018373ffffffffffffffffffffffffffffffffffffffff1673ffffffffffffffffffffffffffffffffffffffff168152602001827bffffffffffffffffffffffffffffffffffffffffffffffffffffffff19167bffffffffffffffffffffffffffffffffffffffffffffffffffffffff19168152602001935050505060206040518083038186803b158015612f3757600080fd5b505afa158015612f4b573d6000803e3d6000fd5b505050506040513d6020811015612f6157600080fd5b810190808051906020019092919050505090505b92915050565b60008273ffffffffffffffffffffffffffffffffffffffff16600860009054906101000a900473ffffffffffffffffffffffffffffffffffffffff1673ffffffffffffffffffffffffffffffffffffffff1663de5f5517846040518263ffffffff1660e01b81526004018082815260200191505060206040518083038186803b15801561300757600080fd5b505afa15801561301b573d6000803e3d6000fd5b505050506040513d602081101561303157600080fd5b810190808051906020019092919050505073ffffffffffffffffffffffffffffffffffffffff161461306257600080fd5b6001905092915050565b60006b033b2e3c9fd0803ce80000006130a4613088858561315c565b60026b033b2e3c9fd0803ce80000008161309e57fe5b04613128565b816130ab57fe5b04905092915050565b6000816130e06130d0856b033b2e3c9fd0803ce800000061315c565b600285816130da57fe5b04613128565b816130e757fe5b04905092915050565b60008161311861310885670de0b6b3a764000061315c565b6002858161311257fe5b04613128565b8161311f57fe5b04905092915050565b600082828401915081101561313c57600080fd5b92915050565b600082828403915081111561315657600080fd5b92915050565b600080821480613179575082828385029250828161317657fe5b04145b61318257600080fd5b92915050565b60026000828152602001908152602001600020600080820160006101000a81549073ffffffffffffffffffffffffffffffffffffffff02191690556001820160006101000a81549073ffffffffffffffffffffffffffffffffffffffff021916905560028201600090556003820160006101000a81549060ff0219169055505060006003600083815260200190815260200160002054905060046001600480549050038154811061323557fe5b90600052602060002001546004828154811061324d57fe5b906000526020600020018190555060006003600084815260200190815260200160002081905550806003600060046001600480549050038154811061328e57fe5b906000526020600020015481526020019081526020016000208190555060048054809190600190036132c0919061331b565b505050565b6040518060800160405280600073ffffffffffffffffffffffffffffffffffffffff168152602001600073ffffffffffffffffffffffffffffffffffffffff168152602001600081526020016000151581525090565b815481835581811115613342578183600052602060002091820191016133419190613347565b5b505050565b61336991905b8082111561336557600081600090555060010161334d565b5090565b9056fe6d73672e73656e646572206d7573742070726f7879207768696368206f776e7320746865206375706d757374206861766520636f6c6c61746572616c20616e64206465627420746f20707574206f6e2073616c656f6e6c792063616e63656c2063647073207468617420617265206f6e2073616c65436865636b20696620656e6f7567682065746865722069732073656e7420666f722074686973206375706d73672e73656e646572206d7573742062652070726f7879207768696368206f776e73207468652063757063616e27742068617665203130302520646973636f756e7420616e64206d757374206265206f766572203125a165627a7a723058201f5ac74f6e9dd909998b974a25dfb94fbb0a508231435c8c15e44a16b06ee7ad0029",
  "source": "pragma solidity ^0.5.0;\n\nimport \"./DS/DSMath.sol\";\nimport \"./DS/DSAuth.sol\";\nimport \"./interfaces/TubInterface.sol\";\nimport \"./interfaces/ProxyRegistryInterface.sol\";\nimport \"./constants/ConstantAddresses.sol\";\n\n/// @title Marketplace keeps track of all the CDPs and implements the buy logic through MarketplaceProxy\ncontract Marketplace is DSAuth, DSMath, ConstantAddresses {\n\n    struct SaleItem {\n        address payable owner;\n        address payable proxy;\n        uint discount;\n        bool active;\n    }\n\n    mapping (bytes32 => SaleItem) public items;\n    mapping (bytes32 => uint) public itemPos;\n    bytes32[] public itemsArr;\n\n    address public marketplaceProxy;\n\n    // 2 decimal percision when defining the disocunt value\n    uint public fee = 100; //1% fee\n\n    // KOVAN\n    ProxyRegistryInterface public registry = ProxyRegistryInterface(PROXY_REGISTRY_INTERFACE_ADDRESS);\n    TubInterface public tub = TubInterface(TUB_ADDRESS);\n\n    event OnSale(bytes32 indexed cup, address indexed proxy, address owner, uint discount);\n\n    event Bought(bytes32 indexed cup, address indexed newLad, address indexed oldProxy,\n                address oldOwner, uint discount);\n\n    constructor(address _marketplaceProxy) public {\n        marketplaceProxy = _marketplaceProxy;\n    }\n\n    /// @notice User calls this method to put a CDP on sale which he must own\n    /// @dev Must be called by DSProxy contract in order to authorize for sale\n    /// @param _cup Id of the CDP that is being put on sale\n    /// @param _discount Discount of the original value, goes from 0 - 99% with 2 decimal percision\n    function putOnSale(bytes32 _cup, uint _discount) public {\n        require(isOwner(msg.sender, _cup), \"msg.sender must be proxy which owns the cup\");\n        require(_discount < 10000 && _discount > 100, \"can't have 100% discount and must be over 1%\");\n        require(tub.ink(_cup) > 0 && tub.tab(_cup) > 0, \"must have collateral and debt to put on sale\");\n        require(!isOnSale(_cup), \"can't put a cdp on sale twice\");\n\n        address payable owner = address(uint160(DSProxyInterface(msg.sender).owner()));\n\n        items[_cup] = SaleItem({\n            discount: _discount,\n            proxy: msg.sender,\n            owner: owner,\n            active: true\n        });\n\n        itemsArr.push(_cup);\n        itemPos[_cup] = itemsArr.length - 1;\n\n        emit OnSale(_cup, msg.sender, owner, _discount);\n    }\n\n    /// @notice Any user can call this method to buy a CDP\n    /// @dev This will fail if the CDP owner was changed\n    /// @param _cup Id of the CDP you want to buy\n    function buy(bytes32 _cup, address _newOwner) public payable {\n        SaleItem storage item = items[_cup];\n\n        require(item.active == true, \"Check if cup is on sale\");\n        require(item.proxy == tub.lad(_cup), \"The owner must stay the same\");\n\n        uint cdpPrice;\n        uint feeAmount;\n\n        (cdpPrice, feeAmount) = getCdpPrice(_cup);\n\n        require(msg.value >= cdpPrice, \"Check if enough ether is sent for this cup\");\n\n        item.active = false;\n\n        // give the cup to the buyer, him becoming the lad that owns the cup\n        DSProxyInterface(item.proxy).execute(marketplaceProxy,\n            abi.encodeWithSignature(\"give(bytes32,address)\", _cup, _newOwner));\n\n        item.owner.transfer(sub(cdpPrice, feeAmount)); // transfer money to the seller\n\n        msg.sender.transfer(sub(msg.value, cdpPrice));\n\n        emit Bought(_cup, msg.sender, item.proxy, item.owner, item.discount);\n\n        removeItem(_cup);\n\n    }\n\n    /// @notice Remove the CDP from the marketplace\n    /// @param _cup Id of the CDP\n    function cancel(bytes32 _cup) public {\n        require(isOwner(msg.sender, _cup), \"msg.sender must proxy which owns the cup\");\n        require(isOnSale(_cup), \"only cancel cdps that are on sale\");\n\n        removeItem(_cup);\n    }\n\n    /// @notice A only owner functon which withdraws Eth balance\n    function withdraw() public auth {\n        msg.sender.transfer(address(this).balance);\n    }\n\n    /// @notice Calculates the price of the CDP given the discount and the fee\n    /// @param _cup Id of the CDP\n    /// @return It returns the price of the CDP and the amount needed for the contracts fee\n    function getCdpPrice(bytes32 _cup) public returns(uint, uint) {\n        SaleItem memory item = items[_cup];\n\n        uint collateral = rmul(tub.ink(_cup), tub.per()); // collateral in Eth\n        uint govFee = wdiv(rmul(tub.tab(_cup), rdiv(tub.rap(_cup), tub.tab(_cup))), uint(tub.pip().read()));\n        uint debt = add(govFee, wdiv(tub.tab(_cup), uint(tub.pip().read()))); // debt in Eth\n\n        uint difference = 0;\n\n        if (item.discount > fee) {\n            difference = sub(item.discount, fee);\n        } else {\n            difference = item.discount;\n        }\n\n        uint cdpPrice = mul(sub(collateral, debt), (sub(10000, difference))) / 10000;\n        uint feeAmount = mul(sub(collateral, debt), fee) / 10000;\n\n        return (cdpPrice, feeAmount);\n    }\n\n    /// @notice Used by front to fetch what is on sale\n    /// @return Returns all CDP ids that are on sale and are not closed\n    function getItemsOnSale() public view returns(bytes32[] memory arr) {\n        uint n = 0;\n\n        arr = new bytes32[](itemsArr.length);\n        for (uint i = 0; i < itemsArr.length; ++i) {\n            if (tub.lad(itemsArr[i]) != address(0)) {\n                arr[n] = itemsArr[i];\n                n++;\n            }\n        }\n\n    }\n\n    /// @notice Helper method to check if a CDP is on sale\n    /// @return True|False depending if it is on sale\n    function isOnSale(bytes32 _cup) public view returns (bool) {\n        return items[_cup].active;\n    }\n\n    function removeItem(bytes32 _cup) internal {\n        delete items[_cup];\n\n        uint index = itemPos[_cup];\n        itemsArr[index] = itemsArr[itemsArr.length - 1];\n\n        itemPos[_cup] = 0;\n        itemPos[itemsArr[itemsArr.length - 1]] = index;\n\n        itemsArr.length--;\n    }\n\n    function isOwner(address _owner, bytes32 _cup) internal view returns(bool) {\n        require(tub.lad(_cup) == _owner);\n\n        return true;\n    }\n\n}\n",
  "sourcePath": "/Users/nikolaklipa/Decenter/defisaver/cdpsaver-contracts/contracts/Marketplace.sol",
  "compiler": {
    "name": "solc",
    "version": "0.5.7+commit.6da8b019.Emscripten.clang"
  },
  "schemaVersion": "3.0.9",
  "updatedAt": "2019-08-13T11:10:46.925Z",
  "devdoc": {
    "methods": {
      "buy(bytes32,address)": {
        "details": "This will fail if the CDP owner was changed",
        "params": {
          "_cup": "Id of the CDP you want to buy"
        }
      },
      "cancel(bytes32)": {
        "params": {
          "_cup": "Id of the CDP"
        }
      },
      "getCdpPrice(bytes32)": {
        "params": {
          "_cup": "Id of the CDP"
        },
        "return": "It returns the price of the CDP and the amount needed for the contracts fee"
      },
      "getItemsOnSale()": {
        "return": "Returns all CDP ids that are on sale and are not closed"
      },
      "isOnSale(bytes32)": {
        "return": "True|False depending if it is on sale"
      },
      "putOnSale(bytes32,uint256)": {
        "details": "Must be called by DSProxy contract in order to authorize for sale",
        "params": {
          "_cup": "Id of the CDP that is being put on sale",
          "_discount": "Discount of the original value, goes from 0 - 99% with 2 decimal percision"
        }
      }
    },
    "title": "Marketplace keeps track of all the CDPs and implements the buy logic through MarketplaceProxy"
  },
  "userdoc": {
    "methods": {
      "buy(bytes32,address)": {
        "notice": "Any user can call this method to buy a CDP"
      },
      "cancel(bytes32)": {
        "notice": "Remove the CDP from the marketplace"
      },
      "getCdpPrice(bytes32)": {
        "notice": "Calculates the price of the CDP given the discount and the fee"
      },
      "getItemsOnSale()": {
        "notice": "Used by front to fetch what is on sale"
      },
      "isOnSale(bytes32)": {
        "notice": "Helper method to check if a CDP is on sale"
      },
      "putOnSale(bytes32,uint256)": {
        "notice": "User calls this method to put a CDP on sale which he must own"
      },
      "withdraw()": {
        "notice": "A only owner functon which withdraws Eth balance"
      }
    }
  }
}