{
  "contractName": "Monitor",
  "abi": [
    {
      "constant": true,
      "inputs": [],
      "name": "WETH_ADDRESS",
      "outputs": [
        {
          "name": "",
          "type": "address"
        }
      ],
      "payable": false,
      "stateMutability": "view",
      "type": "function"
    },
    {
      "constant": true,
      "inputs": [],
      "name": "CDAI_ADDRESS",
      "outputs": [
        {
          "name": "",
          "type": "address"
        }
      ],
      "payable": false,
      "stateMutability": "view",
      "type": "function"
    },
    {
      "constant": true,
      "inputs": [],
      "name": "changeIndex",
      "outputs": [
        {
          "name": "",
          "type": "uint256"
        }
      ],
      "payable": false,
      "stateMutability": "view",
      "type": "function"
    },
    {
      "constant": true,
      "inputs": [
        {
          "name": "",
          "type": "bytes32"
        }
      ],
      "name": "PIP_INTERFACE_ADDRESS",
      "outputs": [
        {
          "name": "",
          "type": "address"
        },
        {
          "name": "maxRatio",
          "type": "uint256"
        },
        {
          "name": "slippageLimit",
          "type": "uint256"
        },
        {
          "name": "optimalRatioBoost",
          "type": "uint256"
        },
        {
          "name": "optimalRatioRepay",
          "type": "uint256"
        },
        {
          "name": "owner",
          "type": "address"
        }
      ],
      "payable": false,
      "stateMutability": "view",
      "type": "function"
    },
    {
      "constant": true,
      "inputs": [],
      "name": "KYBER_ETH_ADDRESS",
      "outputs": [
        {
          "name": "",
          "type": "address"
        }
      ],
      "payable": false,
      "stateMutability": "view",
      "type": "function"
    },
    {
      "constant": true,
      "inputs": [
        {
          "name": "",
          "type": "address"
        }
      ],
      "name": "OTC_ADDRESS",
      "outputs": [
        {
          "name": "",
          "type": "address"
        }
      ],
      "payable": false,
      "stateMutability": "view",
      "type": "function"
    },
    {
      "constant": true,
      "inputs": [],
      "name": "IDAI_ADDRESS",
      "outputs": [
        {
          "name": "",
          "type": "address"
        }
      ],
      "payable": false,
      "stateMutability": "view",
      "type": "function"
    },
    {
      "inputs": [],
      "payable": false,
      "stateMutability": "view",
      "type": "function",
      "constant": true,
      "name": "GAS_TOKEN_INTERFACE_ADDRESS",
      "outputs": [
        {
          "name": "",
          "type": "address"
        }
      ]
    },
    {
      "anonymous": false,
      "inputs": [
        {
          "indexed": true,
          "name": "owner",
          "type": "address"
        },
        {
          "indexed": false,
          "name": "cdpId",
          "type": "bytes32"
        }
      ],
      "name": "VOX_ADDRESS",
      "type": "function",
      "constant": true,
      "outputs": [
        {
          "name": "",
          "type": "address"
        }
      ],
      "payable": false,
      "stateMutability": "view"
    },
    {
      "anonymous": false,
      "inputs": [
        {
          "indexed": true,
          "name": "owner",
          "type": "address"
        },
        {
          "indexed": false,
          "name": "cdpId",
          "type": "bytes32"
        }
      ],
      "name": "ETH2DAI_WRAPPER",
      "type": "function",
      "constant": true,
      "outputs": [
        {
          "name": "",
          "type": "address"
        }
      ],
      "payable": false,
      "stateMutability": "view"
    },
    {
      "anonymous": false,
      "inputs": [
        {
          "indexed": true,
          "name": "owner",
          "type": "address"
        },
        {
          "indexed": false,
          "name": "cdpId",
          "type": "bytes32"
        }
      ],
      "name": "STUPID_EXCHANGE",
      "type": "function",
      "constant": true,
      "outputs": [
        {
          "name": "",
          "type": "address"
        }
      ],
      "payable": false,
      "stateMutability": "view"
    },
    {
      "anonymous": false,
      "inputs": [
        {
          "indexed": true,
          "name": "cdpId",
          "type": "bytes32"
        },
        {
          "indexed": false,
          "name": "caller",
          "type": "address"
        },
        {
          "indexed": false,
          "name": "_amount",
          "type": "uint256"
        },
        {
          "indexed": false,
          "name": "_ratioBefore",
          "type": "uint256"
        },
        {
          "indexed": false,
          "name": "_ratioAfter",
          "type": "uint256"
        }
      ],
      "name": "BOOST_GAS_TOKEN",
      "type": "function",
      "constant": true,
      "outputs": [
        {
          "name": "",
          "type": "uint256"
        }
      ],
      "payable": false,
      "stateMutability": "view"
    },
    {
      "anonymous": false,
      "inputs": [
        {
          "indexed": true,
          "name": "cdpId",
          "type": "bytes32"
        },
        {
          "indexed": false,
          "name": "caller",
          "type": "address"
        },
        {
          "indexed": false,
          "name": "_amount",
          "type": "uint256"
        },
        {
          "indexed": false,
          "name": "_ratioBefore",
          "type": "uint256"
        },
        {
          "indexed": false,
          "name": "_ratioAfter",
          "type": "uint256"
        }
      ],
      "name": "PROXY_REGISTRY_INTERFACE_ADDRESS",
      "type": "function",
      "constant": true,
      "outputs": [
        {
          "name": "",
          "type": "address"
        }
      ],
      "payable": false,
      "stateMutability": "view"
    },
    {
      "constant": true,
      "inputs": [
        {
          "name": "_cdpId",
          "type": "bytes32"
        },
        {
          "name": "_minRatio",
          "type": "uint256"
        },
        {
          "name": "_maxRatio",
          "type": "uint256"
        },
        {
          "name": "_optimalRatioBoost",
          "type": "uint256"
        },
        {
          "name": "_optimalRatioRepay",
          "type": "uint256"
        },
        {
          "name": "_slippageLimit",
          "type": "uint256"
        }
      ],
      "name": "MKR_ADDRESS",
      "outputs": [
        {
          "name": "",
          "type": "address"
        }
      ],
      "payable": false,
      "stateMutability": "view",
      "type": "function"
    },
    {
      "constant": true,
      "inputs": [
        {
          "name": "_cdpId",
          "type": "bytes32"
        }
      ],
      "name": "FACTORY_ADDRESS",
      "outputs": [
        {
          "name": "",
          "type": "address"
        }
      ],
      "payable": false,
      "stateMutability": "view",
      "type": "function"
    },
    {
      "constant": true,
      "inputs": [
        {
          "name": "_cdpId",
          "type": "bytes32"
        },
        {
          "name": "_amount",
          "type": "uint256"
        }
      ],
      "name": "owner",
      "outputs": [
        {
          "name": "",
          "type": "address"
        }
      ],
      "payable": false,
      "stateMutability": "view",
      "type": "function"
    },
    {
      "constant": true,
      "inputs": [
        {
          "name": "_cdpId",
          "type": "bytes32"
        },
        {
          "name": "_amount",
          "type": "uint256"
        }
      ],
      "name": "LOGGER_ADDRESS",
      "outputs": [
        {
          "name": "",
          "type": "address"
        }
      ],
      "payable": false,
      "stateMutability": "view",
      "type": "function"
    },
    {
      "constant": true,
      "inputs": [
        {
          "name": "",
          "type": "bytes32"
        }
      ],
      "name": "holders",
      "outputs": [
        {
          "name": "minRatio",
          "type": "uint256"
        },
        {
          "name": "maxRatio",
          "type": "uint256"
        },
        {
          "name": "slippageLimit",
          "type": "uint256"
        },
        {
          "name": "optimalRatioBoost",
          "type": "uint256"
        },
        {
          "name": "optimalRatioRepay",
          "type": "uint256"
        },
        {
          "name": "owner",
          "type": "address"
        }
      ],
      "payable": false,
      "stateMutability": "view",
      "type": "function"
    },
    {
      "constant": true,
      "inputs": [
        {
          "name": "_caller",
          "type": "address"
        }
      ],
      "name": "MAKER_DAI_ADDRESS",
      "outputs": [
        {
          "name": "",
          "type": "address"
        }
      ],
      "payable": false,
      "stateMutability": "view",
      "type": "function"
    },
    {
      "constant": true,
      "inputs": [
        {
          "name": "_caller",
          "type": "address"
        }
      ],
      "name": "REPAY_GAS_TOKEN",
      "outputs": [
        {
          "name": "",
          "type": "uint256"
        }
      ],
      "payable": false,
      "stateMutability": "view",
      "type": "function"
    },
    {
      "constant": true,
      "inputs": [
        {
          "name": "",
          "type": "address"
        }
      ],
      "name": "approvedCallers",
      "outputs": [
        {
          "name": "",
          "type": "bool"
        }
      ],
      "payable": false,
      "stateMutability": "view",
      "type": "function"
    },
    {
      "constant": true,
      "inputs": [],
      "name": "KYBER_WRAPPER",
      "outputs": [
        {
          "name": "",
          "type": "address"
        }
      ],
      "payable": false,
      "stateMutability": "view",
      "type": "function"
    },
    {
      "constant": true,
      "inputs": [],
      "name": "COMPOUND_DAI_ADDRESS",
      "outputs": [
        {
          "name": "",
          "type": "address"
        }
      ],
      "payable": false,
      "stateMutability": "view",
      "type": "function"
    },
    {
      "constant": true,
      "inputs": [],
      "name": "UNISWAP_FACTORY",
      "outputs": [
        {
          "name": "",
          "type": "address"
        }
      ],
      "payable": false,
      "stateMutability": "view",
      "type": "function"
    },
    {
      "constant": true,
      "inputs": [],
      "name": "PETH_ADDRESS",
      "outputs": [
        {
          "name": "",
          "type": "address"
        }
      ],
      "payable": false,
      "stateMutability": "view",
      "type": "function"
    },
    {
      "constant": true,
      "inputs": [],
      "name": "KYBER_INTERFACE",
      "outputs": [
        {
          "name": "",
          "type": "address"
        }
      ],
      "payable": false,
      "stateMutability": "view",
      "type": "function"
    },
    {
      "constant": true,
      "inputs": [],
      "name": "WALLET_ID",
      "outputs": [
        {
          "name": "",
          "type": "address"
        }
      ],
      "payable": false,
      "stateMutability": "view",
      "type": "function"
    },
    {
      "constant": true,
      "inputs": [],
      "name": "SOLO_MARGIN_ADDRESS",
      "outputs": [
        {
          "name": "",
          "type": "address"
        }
      ],
      "payable": false,
      "stateMutability": "view",
      "type": "function"
    },
    {
      "constant": true,
      "inputs": [],
      "name": "UNISWAP_WRAPPER",
      "outputs": [
        {
          "name": "",
          "type": "address"
        }
      ],
      "payable": false,
      "stateMutability": "view",
      "type": "function"
    },
    {
      "constant": true,
      "inputs": [],
      "name": "saverProxy",
      "outputs": [
        {
          "name": "",
          "type": "address"
        }
      ],
      "payable": false,
      "stateMutability": "view",
      "type": "function"
    },
    {
      "constant": true,
      "inputs": [],
      "name": "TUB_ADDRESS",
      "outputs": [
        {
          "name": "",
          "type": "address"
        }
      ],
      "payable": false,
      "stateMutability": "view",
      "type": "function"
    },
    {
      "constant": true,
      "inputs": [],
      "name": "CTOKEN_INTERFACE",
      "outputs": [
        {
          "name": "",
          "type": "address"
        }
      ],
      "payable": false,
      "stateMutability": "view",
      "type": "function"
    },
    {
      "inputs": [],
      "payable": false,
      "stateMutability": "nonpayable",
      "type": "constructor"
    },
    {
      "anonymous": false,
      "inputs": [
        {
          "indexed": true,
          "name": "owner",
          "type": "address"
        },
        {
          "indexed": false,
          "name": "cdpId",
          "type": "bytes32"
        }
      ],
      "name": "Subscribed",
      "type": "event"
    },
    {
      "anonymous": false,
      "inputs": [
        {
          "indexed": true,
          "name": "owner",
          "type": "address"
        },
        {
          "indexed": false,
          "name": "cdpId",
          "type": "bytes32"
        }
      ],
      "name": "Unsubscribed",
      "type": "event"
    },
    {
      "anonymous": false,
      "inputs": [
        {
          "indexed": true,
          "name": "owner",
          "type": "address"
        },
        {
          "indexed": false,
          "name": "cdpId",
          "type": "bytes32"
        }
      ],
      "name": "Updated",
      "type": "event"
    },
    {
      "anonymous": false,
      "inputs": [
        {
          "indexed": true,
          "name": "cdpId",
          "type": "bytes32"
        },
        {
          "indexed": false,
          "name": "caller",
          "type": "address"
        },
        {
          "indexed": false,
          "name": "_amount",
          "type": "uint256"
        },
        {
          "indexed": false,
          "name": "_ratioBefore",
          "type": "uint256"
        },
        {
          "indexed": false,
          "name": "_ratioAfter",
          "type": "uint256"
        }
      ],
      "name": "CdpRepay",
      "type": "event"
    },
    {
      "anonymous": false,
      "inputs": [
        {
          "indexed": true,
          "name": "cdpId",
          "type": "bytes32"
        },
        {
          "indexed": false,
          "name": "caller",
          "type": "address"
        },
        {
          "indexed": false,
          "name": "_amount",
          "type": "uint256"
        },
        {
          "indexed": false,
          "name": "_ratioBefore",
          "type": "uint256"
        },
        {
          "indexed": false,
          "name": "_ratioAfter",
          "type": "uint256"
        }
      ],
      "name": "CdpBoost",
      "type": "event"
    },
    {
      "constant": false,
      "inputs": [
        {
          "name": "_cdpId",
          "type": "bytes32"
        },
        {
          "name": "_minRatio",
          "type": "uint256"
        },
        {
          "name": "_maxRatio",
          "type": "uint256"
        },
        {
          "name": "_optimalRatioBoost",
          "type": "uint256"
        },
        {
          "name": "_optimalRatioRepay",
          "type": "uint256"
        },
        {
          "name": "_slippageLimit",
          "type": "uint256"
        }
      ],
      "name": "subscribe",
      "outputs": [],
      "payable": false,
      "stateMutability": "nonpayable",
      "type": "function"
    },
    {
      "constant": false,
      "inputs": [
        {
          "name": "_cdpId",
          "type": "bytes32"
        }
      ],
      "name": "unsubscribe",
      "outputs": [],
      "payable": false,
      "stateMutability": "nonpayable",
      "type": "function"
    },
    {
      "constant": false,
      "inputs": [
        {
          "name": "_cdpId",
          "type": "bytes32"
        },
        {
          "name": "_amount",
          "type": "uint256"
        }
      ],
      "name": "repayFor",
      "outputs": [],
      "payable": false,
      "stateMutability": "nonpayable",
      "type": "function"
    },
    {
      "constant": false,
      "inputs": [
        {
          "name": "_cdpId",
          "type": "bytes32"
        },
        {
          "name": "_amount",
          "type": "uint256"
        }
      ],
      "name": "boostFor",
      "outputs": [],
      "payable": false,
      "stateMutability": "nonpayable",
      "type": "function"
    },
    {
      "constant": false,
      "inputs": [
        {
          "name": "_cdpId",
          "type": "bytes32"
        }
      ],
      "name": "getRatio",
      "outputs": [
        {
          "name": "",
          "type": "uint256"
        }
      ],
      "payable": false,
      "stateMutability": "nonpayable",
      "type": "function"
    },
    {
      "constant": false,
      "inputs": [
        {
          "name": "_caller",
          "type": "address"
        }
      ],
      "name": "addCaller",
      "outputs": [],
      "payable": false,
      "stateMutability": "nonpayable",
      "type": "function"
    },
    {
      "constant": false,
      "inputs": [
        {
          "name": "_caller",
          "type": "address"
        }
      ],
      "name": "removeCaller",
      "outputs": [],
      "payable": false,
      "stateMutability": "nonpayable",
      "type": "function"
    }
  ],
  "bytecode": "0x608060405273a944bd4b25c9f186a846fd5668941aa3d3b8425f6000806101000a81548173ffffffffffffffffffffffffffffffffffffffff021916908373ffffffffffffffffffffffffffffffffffffffff16021790555073a71937147b55deb8a530c7229c442fd3f31b7db2600160006101000a81548173ffffffffffffffffffffffffffffffffffffffff021916908373ffffffffffffffffffffffffffffffffffffffff1602179055507364a436ae831c1672ae81f674cab8b6775df3475c600260006101000a81548173ffffffffffffffffffffffffffffffffffffffff021916908373ffffffffffffffffffffffffffffffffffffffff1602179055506e170ccc93903185be5a2094c870df62600360006101000a81548173ffffffffffffffffffffffffffffffffffffffff021916908373ffffffffffffffffffffffffffffffffffffffff16021790555034801561015e57600080fd5b506001600860003373ffffffffffffffffffffffffffffffffffffffff1673ffffffffffffffffffffffffffffffffffffffff16815260200190815260200160002060006101000a81548160ff02191690831515021790555033600560006101000a81548173ffffffffffffffffffffffffffffffffffffffff021916908373ffffffffffffffffffffffffffffffffffffffff16021790555073043125335e8fed7421f4af91f7123b605b30f593600460006101000a81548173ffffffffffffffffffffffffffffffffffffffff021916908373ffffffffffffffffffffffffffffffffffffffff160217905550600060078190555061212a806102646000396000f3fe608060405234801561001057600080fd5b506004361061023d5760003560e01c80638823151b1161013b578063c9fde270116100b8578063ebc723cb1161007c578063ebc723cb14610bcf578063eef21cd214610c19578063f0d405e514610c5d578063f2f239d414610ca7578063f8c6014614610cf15761023d565b8063c9fde27014610a5d578063ce9bde1d14610aa7578063d3661fa514610af1578063d36b907d14610b3b578063ddaa293c14610b855761023d565b8063a56f9718116100ff578063a56f971814610905578063a71975af14610923578063b175afa11461097f578063c16921b7146109c9578063c74c0fac14610a135761023d565b80638823151b1461074c5780638da5cb5b1461079657806394bfbe74146107e0578063993861441461082a5780639da779e9146108bb5761023d565b806332ac5cd2116101c9578063502237d71161018d578063502237d71461060c578063696806c014610656578063728c009214610674578063747293fb146106be578063825ffd92146107025761023d565b806332ac5cd2146104be57806335c66d401461050857806336e6da111461054057806343fb75e81461058a57806346fb3805146105d45761023d565b806326fdf0771161021057806326fdf0771461033e57806329f7fc9e1461039e5780632a441f05146103e85780632bd63f0c146104325780632d5eeb3f146104745761023d565b8063040141e5146102425780630531b2ad1461028c578063106b0339146102d65780631dab52b0146102f4575b600080fd5b61024a610d1f565b604051808273ffffffffffffffffffffffffffffffffffffffff1673ffffffffffffffffffffffffffffffffffffffff16815260200191505060405180910390f35b610294610d37565b604051808273ffffffffffffffffffffffffffffffffffffffff1673ffffffffffffffffffffffffffffffffffffffff16815260200191505060405180910390f35b6102de610d4f565b6040518082815260200191505060405180910390f35b6102fc610d55565b604051808273ffffffffffffffffffffffffffffffffffffffff1673ffffffffffffffffffffffffffffffffffffffff16815260200191505060405180910390f35b61039c600480360360c081101561035457600080fd5b81019080803590602001909291908035906020019092919080359060200190929190803590602001909291908035906020019092919080359060200190929190505050610d6d565b005b6103a6610f8c565b604051808273ffffffffffffffffffffffffffffffffffffffff1673ffffffffffffffffffffffffffffffffffffffff16815260200191505060405180910390f35b6103f0610fa4565b604051808273ffffffffffffffffffffffffffffffffffffffff1673ffffffffffffffffffffffffffffffffffffffff16815260200191505060405180910390f35b61045e6004803603602081101561044857600080fd5b8101908080359060200190929190505050610fbc565b6040518082815260200191505060405180910390f35b61047c6111eb565b604051808273ffffffffffffffffffffffffffffffffffffffff1673ffffffffffffffffffffffffffffffffffffffff16815260200191505060405180910390f35b6104c6611203565b604051808273ffffffffffffffffffffffffffffffffffffffff1673ffffffffffffffffffffffffffffffffffffffff16815260200191505060405180910390f35b61053e6004803603604081101561051e57600080fd5b810190808035906020019092919080359060200190929190505050611216565b005b610548611615565b604051808273ffffffffffffffffffffffffffffffffffffffff1673ffffffffffffffffffffffffffffffffffffffff16815260200191505060405180910390f35b61059261162d565b604051808273ffffffffffffffffffffffffffffffffffffffff1673ffffffffffffffffffffffffffffffffffffffff16815260200191505060405180910390f35b61060a600480360360408110156105ea57600080fd5b810190808035906020019092919080359060200190929190505050611645565b005b610614611a60565b604051808273ffffffffffffffffffffffffffffffffffffffff1673ffffffffffffffffffffffffffffffffffffffff16815260200191505060405180910390f35b61065e611a78565b6040518082815260200191505060405180910390f35b61067c611a7d565b604051808273ffffffffffffffffffffffffffffffffffffffff1673ffffffffffffffffffffffffffffffffffffffff16815260200191505060405180910390f35b610700600480360360208110156106d457600080fd5b81019080803573ffffffffffffffffffffffffffffffffffffffff169060200190929190505050611a95565b005b61070a611b4a565b604051808273ffffffffffffffffffffffffffffffffffffffff1673ffffffffffffffffffffffffffffffffffffffff16815260200191505060405180910390f35b610754611b62565b604051808273ffffffffffffffffffffffffffffffffffffffff1673ffffffffffffffffffffffffffffffffffffffff16815260200191505060405180910390f35b61079e611b7a565b604051808273ffffffffffffffffffffffffffffffffffffffff1673ffffffffffffffffffffffffffffffffffffffff16815260200191505060405180910390f35b6107e8611ba0565b604051808273ffffffffffffffffffffffffffffffffffffffff1673ffffffffffffffffffffffffffffffffffffffff16815260200191505060405180910390f35b6108566004803603602081101561084057600080fd5b8101908080359060200190929190505050611bb8565b604051808781526020018681526020018581526020018481526020018381526020018273ffffffffffffffffffffffffffffffffffffffff1673ffffffffffffffffffffffffffffffffffffffff168152602001965050505050505060405180910390f35b6108c3611c14565b604051808273ffffffffffffffffffffffffffffffffffffffff1673ffffffffffffffffffffffffffffffffffffffff16815260200191505060405180910390f35b61090d611c2c565b6040518082815260200191505060405180910390f35b6109656004803603602081101561093957600080fd5b81019080803573ffffffffffffffffffffffffffffffffffffffff169060200190929190505050611c31565b604051808215151515815260200191505060405180910390f35b610987611c51565b604051808273ffffffffffffffffffffffffffffffffffffffff1673ffffffffffffffffffffffffffffffffffffffff16815260200191505060405180910390f35b6109d1611c69565b604051808273ffffffffffffffffffffffffffffffffffffffff1673ffffffffffffffffffffffffffffffffffffffff16815260200191505060405180910390f35b610a1b611c81565b604051808273ffffffffffffffffffffffffffffffffffffffff1673ffffffffffffffffffffffffffffffffffffffff16815260200191505060405180910390f35b610a65611c99565b604051808273ffffffffffffffffffffffffffffffffffffffff1673ffffffffffffffffffffffffffffffffffffffff16815260200191505060405180910390f35b610aaf611cb1565b604051808273ffffffffffffffffffffffffffffffffffffffff1673ffffffffffffffffffffffffffffffffffffffff16815260200191505060405180910390f35b610af9611cc9565b604051808273ffffffffffffffffffffffffffffffffffffffff1673ffffffffffffffffffffffffffffffffffffffff16815260200191505060405180910390f35b610b43611ce1565b604051808273ffffffffffffffffffffffffffffffffffffffff1673ffffffffffffffffffffffffffffffffffffffff16815260200191505060405180910390f35b610b8d611cf9565b604051808273ffffffffffffffffffffffffffffffffffffffff1673ffffffffffffffffffffffffffffffffffffffff16815260200191505060405180910390f35b610bd7611d11565b604051808273ffffffffffffffffffffffffffffffffffffffff1673ffffffffffffffffffffffffffffffffffffffff16815260200191505060405180910390f35b610c5b60048036036020811015610c2f57600080fd5b81019080803573ffffffffffffffffffffffffffffffffffffffff169060200190929190505050611d37565b005b610c65611dec565b604051808273ffffffffffffffffffffffffffffffffffffffff1673ffffffffffffffffffffffffffffffffffffffff16815260200191505060405180910390f35b610caf611e04565b604051808273ffffffffffffffffffffffffffffffffffffffff1673ffffffffffffffffffffffffffffffffffffffff16815260200191505060405180910390f35b610d1d60048036036020811015610d0757600080fd5b8101908080359060200190929190505050611e1c565b005b73d0a1e359811322d97991e03f863a0c30c2cf029c81565b73b6b09fbffba6a5c4631e5f7b2e3ee183ac259c0d81565b60075481565b73a944bd4b25c9f186a846fd5668941aa3d3b8425f81565b610d773387611ef7565b610d8057600080fd5b60008073ffffffffffffffffffffffffffffffffffffffff166006600089815260200190815260200160002060050160009054906101000a900473ffffffffffffffffffffffffffffffffffffffff1673ffffffffffffffffffffffffffffffffffffffff1614610df2576000610df5565b60015b90506040518060c001604052808781526020018681526020018381526020018581526020018481526020013373ffffffffffffffffffffffffffffffffffffffff1681525060066000898152602001908152602001600020600082015181600001556020820151816001015560408201518160020155606082015181600301556080820151816004015560a08201518160050160006101000a81548173ffffffffffffffffffffffffffffffffffffffff021916908373ffffffffffffffffffffffffffffffffffffffff1602179055509050506007600081548092919060010191905055508015610f34573373ffffffffffffffffffffffffffffffffffffffff167f3e8901f9ef2d2a2a75af91d229b1ab4c4530ff19a91e142a22249976b4f9fdb2886040518082815260200191505060405180910390a2610f83565b3373ffffffffffffffffffffffffffffffffffffffff167f381a32e049502b173221a8aedfae50ce8d5b10c6add4439b2179b4d034b75e5b886040518082815260200191505060405180910390a25b50505050505050565b73eeeeeeeeeeeeeeeeeeeeeeeeeeeeeeeeeeeeeeee81565b734a6bc4e803c62081ffebcc8d227b5a87a58f1f8f81565b60006111e461112f611121600160009054906101000a900473ffffffffffffffffffffffffffffffffffffffff1673ffffffffffffffffffffffffffffffffffffffff16631f3634ed866040518263ffffffff1660e01b815260040180828152602001915050602060405180830381600087803b15801561103c57600080fd5b505af1158015611050573d6000803e3d6000fd5b505050506040513d602081101561106657600080fd5b8101908080519060200190929190505050600160009054906101000a900473ffffffffffffffffffffffffffffffffffffffff1673ffffffffffffffffffffffffffffffffffffffff166351f910666040518163ffffffff1660e01b8152600401602060405180830381600087803b1580156110e157600080fd5b505af11580156110f5573d6000803e3d6000fd5b505050506040513d602081101561110b57600080fd5b8101908080519060200190929190505050611fe8565b670de0b6b3a7640000611fe8565b600160009054906101000a900473ffffffffffffffffffffffffffffffffffffffff1673ffffffffffffffffffffffffffffffffffffffff1663f7c8d634856040518263ffffffff1660e01b815260040180828152602001915050602060405180830381600087803b1580156111a457600080fd5b505af11580156111b8573d6000803e3d6000fd5b505050506040513d60208110156111ce57600080fd5b8101908080519060200190929190505050612030565b9050919050565b73b6b09fbffba6a5c4631e5f7b2e3ee183ac259c0d81565b6e170ccc93903185be5a2094c870df6281565b600860003373ffffffffffffffffffffffffffffffffffffffff1673ffffffffffffffffffffffffffffffffffffffff16815260200190815260200160002060009054906101000a900460ff1661126c57600080fd5b6112746120b2565b600660008481526020019081526020016000206040518060c001604052908160008201548152602001600182015481526020016002820154815260200160038201548152602001600482015481526020016005820160009054906101000a900473ffffffffffffffffffffffffffffffffffffffff1673ffffffffffffffffffffffffffffffffffffffff1673ffffffffffffffffffffffffffffffffffffffff16815250509050600061132784610fbc565b9050600073ffffffffffffffffffffffffffffffffffffffff168260a0015173ffffffffffffffffffffffffffffffffffffffff16141561136757600080fd5b600660008581526020019081526020016000206000015481111561138a57600080fd5b8160a0015173ffffffffffffffffffffffffffffffffffffffff16631cff79cd600460009054906101000a900473ffffffffffffffffffffffffffffffffffffffff16868660006002604051602401808581526020018481526020018360ff1681526020018260ff1681526020019450505050506040516020818303038152906040527f4c3e49f0000000000000000000000000000000000000000000000000000000007bffffffffffffffffffffffffffffffffffffffffffffffffffffffff19166020820180517bffffffffffffffffffffffffffffffffffffffffffffffffffffffff83818316178352505050506040518363ffffffff1660e01b8152600401808373ffffffffffffffffffffffffffffffffffffffff1673ffffffffffffffffffffffffffffffffffffffff16815260200180602001828103825283818151815260200191508051906020019080838360005b838110156114fc5780820151818401526020810190506114e1565b50505050905090810190601f1680156115295780820380516001836020036101000a031916815260200191505b509350505050602060405180830381600087803b15801561154957600080fd5b505af115801561155d573d6000803e3d6000fd5b505050506040513d602081101561157357600080fd5b810190808051906020019092919050505050600061159085610fbc565b9050847f38b848867f033433a60ddbc2138cc66f87818dde92104b7c621cfc2ed9d9b11533868585604051808573ffffffffffffffffffffffffffffffffffffffff1673ffffffffffffffffffffffffffffffffffffffff16815260200184815260200183815260200182815260200194505050505060405180910390a25050505050565b73bb4339c0ab5b1d9f14bd6e3426444a1e9d86a1d981565b73823cde416973a19f98bb9c96d97f4fe6c9a7238b81565b600860003373ffffffffffffffffffffffffffffffffffffffff1673ffffffffffffffffffffffffffffffffffffffff16815260200190815260200160002060009054906101000a900460ff1661169b57600080fd5b6116a36120b2565b600660008481526020019081526020016000206040518060c001604052908160008201548152602001600182015481526020016002820154815260200160038201548152602001600482015481526020016005820160009054906101000a900473ffffffffffffffffffffffffffffffffffffffff1673ffffffffffffffffffffffffffffffffffffffff1673ffffffffffffffffffffffffffffffffffffffff16815250509050600061175684610fbc565b9050600073ffffffffffffffffffffffffffffffffffffffff168260a0015173ffffffffffffffffffffffffffffffffffffffff16141561179657600080fd5b60066000858152602001908152602001600020600101548110156117b957600080fd5b8160a0015173ffffffffffffffffffffffffffffffffffffffff16631cff79cd600460009054906101000a900473ffffffffffffffffffffffffffffffffffffffff1686867fffffffffffffffffffffffffffffffffffffffffffffffffffffffffffffffff6002604051602401808581526020018481526020018381526020018260ff1681526020019450505050506040516020818303038152906040527f67dc7736000000000000000000000000000000000000000000000000000000007bffffffffffffffffffffffffffffffffffffffffffffffffffffffff19166020820180517bffffffffffffffffffffffffffffffffffffffffffffffffffffffff83818316178352505050506040518363ffffffff1660e01b8152600401808373ffffffffffffffffffffffffffffffffffffffff1673ffffffffffffffffffffffffffffffffffffffff16815260200180602001828103825283818151815260200191508051906020019080838360005b8381101561194757808201518184015260208101905061192c565b50505050905090810190601f1680156119745780820380516001836020036101000a031916815260200191505b509350505050602060405180830381600087803b15801561199457600080fd5b505af11580156119a8573d6000803e3d6000fd5b505050506040513d60208110156119be57600080fd5b81019080805190602001909291905050505060006119db85610fbc565b9050847f30d77cb90eaf60f3adb5378f6e31c893714d37bde2eecb64a1e05802d896807e33868585604051808573ffffffffffffffffffffffffffffffffffffffff1673ffffffffffffffffffffffffffffffffffffffff16815260200184815260200183815260200182815260200194505050505060405180910390a25050505050565b73863e41fe88288ebf3fcd91d8dbb679fb83fdfe1781565b601381565b7364a436ae831c1672ae81f674cab8b6775df3475c81565b3373ffffffffffffffffffffffffffffffffffffffff16600560009054906101000a900473ffffffffffffffffffffffffffffffffffffffff1673ffffffffffffffffffffffffffffffffffffffff1614611aef57600080fd5b6001600860008373ffffffffffffffffffffffffffffffffffffffff1673ffffffffffffffffffffffffffffffffffffffff16815260200190815260200160002060006101000a81548160ff02191690831515021790555050565b73aaf64bfcc32d0f15873a02163e7e500671a4ffcd81565b73c72e74e474682680a414b506699bbca44ab9a93081565b600560009054906101000a900473ffffffffffffffffffffffffffffffffffffffff1681565b7332d0e18f988f952eb3524ace762042381a2c39e581565b60066020528060005260406000206000915090508060000154908060010154908060020154908060030154908060040154908060050160009054906101000a900473ffffffffffffffffffffffffffffffffffffffff16905086565b73c4375b7de8af5a38a93548eb8453a498222c4ff281565b601e81565b60086020528060005260406000206000915054906101000a900460ff1681565b735595930d576aedf13945c83ce5aad827529a131081565b7325a01a05c188dacbcf1d61af55d4a5b4021f7eed81565b73f5d915570bc477f9b8d6c0e980aa81757a3aac3681565b73f4d791139ce033ad35db2b2201435fad668b1b6481565b73692f391bcc85cefce8c237c01e1f636bbd70ea4d81565b7354b44c6b18fc0b4a1010b21d524c338d1f8065f681565b734ec3570cadaaee08ae384779b0f3a45ef85289de81565b735595930d576aedf13945c83ce5aad827529a131081565b600460009054906101000a900473ffffffffffffffffffffffffffffffffffffffff1681565b3373ffffffffffffffffffffffffffffffffffffffff16600560009054906101000a900473ffffffffffffffffffffffffffffffffffffffff1673ffffffffffffffffffffffffffffffffffffffff1614611d9157600080fd5b6000600860008373ffffffffffffffffffffffffffffffffffffffff1673ffffffffffffffffffffffffffffffffffffffff16815260200190815260200160002060006101000a81548160ff02191690831515021790555050565b73a71937147b55deb8a530c7229c442fd3f31b7db281565b73b6b09fbffba6a5c4631e5f7b2e3ee183ac259c0d81565b611e263382611ef7565b611e2f57600080fd5b6006600082815260200190815260200160002060008082016000905560018201600090556002820160009055600382016000905560048201600090556005820160006101000a81549073ffffffffffffffffffffffffffffffffffffffff021916905550506007600081548092919060010191905055503373ffffffffffffffffffffffffffffffffffffffff167fbd7d343a76cb95ae0e4391dff1b19b1894066d854717b1b63971cb7e4ad56410826040518082815260200191505060405180910390a250565b60008273ffffffffffffffffffffffffffffffffffffffff16600160009054906101000a900473ffffffffffffffffffffffffffffffffffffffff1673ffffffffffffffffffffffffffffffffffffffff1663de5f5517846040518263ffffffff1660e01b81526004018082815260200191505060206040518083038186803b158015611f8357600080fd5b505afa158015611f97573d6000803e3d6000fd5b505050506040513d6020811015611fad57600080fd5b810190808051906020019092919050505073ffffffffffffffffffffffffffffffffffffffff1614611fde57600080fd5b6001905092915050565b60006b033b2e3c9fd0803ce8000000612020612004858561206c565b60026b033b2e3c9fd0803ce80000008161201a57fe5b04612098565b8161202757fe5b04905092915050565b60008161205c61204c856b033b2e3c9fd0803ce800000061206c565b6002858161205657fe5b04612098565b8161206357fe5b04905092915050565b600080821480612089575082828385029250828161208657fe5b04145b61209257600080fd5b92915050565b60008282840191508110156120ac57600080fd5b92915050565b6040518060c001604052806000815260200160008152602001600081526020016000815260200160008152602001600073ffffffffffffffffffffffffffffffffffffffff168152509056fea165627a7a7230582044cecfad040c712f5a4ab79b7a68a2c7e63b04e06f24ddab37713fc28b55a0470029",
  "source": "pragma solidity ^0.5.0;\n\nimport \"./interfaces/TubInterface.sol\";\nimport \"./interfaces/ProxyRegistryInterface.sol\";\nimport \"./interfaces/GasTokenInterface.sol\";\nimport \"./interfaces/ERC20.sol\";\nimport \"./DS/DSMath.sol\";\nimport \"./ConstantAddresses.sol\";\n\ncontract Monitor is DSMath, ConstantAddresses {\n    // KOVAN\n    PipInterface pip = PipInterface(PIP_INTERFACE_ADDRESS);\n    TubInterface tub = TubInterface(TUB_ADDRESS);\n    ProxyRegistryInterface registry = ProxyRegistryInterface(PROXY_REGISTRY_INTERFACE_ADDRESS);\n    GasTokenInterface gasToken = GasTokenInterface(GAS_TOKEN_INTERFACE_ADDRESS);\n\n    uint constant public REPAY_GAS_TOKEN = 30;\n    uint constant public BOOST_GAS_TOKEN = 19;\n\n    address public saverProxy;\n    address public owner;\n\n    struct CdpHolder {\n        uint minRatio;\n        uint maxRatio;\n        uint slippageLimit;\n        uint optimalRatioBoost;\n        uint optimalRatioRepay;\n        address owner;\n    }\n\n    mapping(bytes32 => CdpHolder) public holders;\n\n    uint public changeIndex;\n\n    /// @dev This will be Bot addresses which will trigger the calls\n    mapping(address => bool) public approvedCallers;\n\n    event Subscribed(address indexed owner, bytes32 cdpId);\n    event Unsubscribed(address indexed owner, bytes32 cdpId);\n    event Updated(address indexed owner, bytes32 cdpId);\n\n    event CdpRepay(bytes32 indexed cdpId, address caller, uint _amount, uint _ratioBefore, uint _ratioAfter);\n    event CdpBoost(bytes32 indexed cdpId, address caller, uint _amount, uint _ratioBefore, uint _ratioAfter);\n\n    modifier onlyApproved() {\n        require(approvedCallers[msg.sender]);\n        _;\n    }\n\n    modifier onlyOwner() {\n        require(owner == msg.sender);\n        _;\n    }\n\n    constructor() public {\n        approvedCallers[msg.sender] = true;\n        owner = msg.sender;\n        saverProxy = 0x043125335E8feD7421F4aF91F7123b605b30F593;\n        changeIndex = 0;\n    }\n\n    /// @dev Users DSProxy should call this\n    function subscribe(bytes32 _cdpId, uint _minRatio, uint _maxRatio, uint _optimalRatioBoost, uint _optimalRatioRepay, uint _slippageLimit) public {\n        require(isOwner(msg.sender, _cdpId));\n\n        bool isCreated = holders[_cdpId].owner == address(0) ? true : false;\n\n        holders[_cdpId] = CdpHolder({\n            minRatio: _minRatio,\n            maxRatio: _maxRatio,\n            optimalRatioBoost: _optimalRatioBoost,\n            optimalRatioRepay: _optimalRatioRepay,\n            slippageLimit: _slippageLimit,\n            owner: msg.sender\n        });\n\n        changeIndex++;\n\n        if (isCreated) {\n            emit Subscribed(msg.sender, _cdpId);\n        } else {\n            emit Updated(msg.sender, _cdpId);\n        }\n    }\n\n    function unsubscribe(bytes32 _cdpId) public {\n        require(isOwner(msg.sender, _cdpId));\n\n        delete holders[_cdpId];\n\n        changeIndex++;\n\n        emit Unsubscribed(msg.sender, _cdpId);\n    }\n\n    /// @dev Should be callable by onlyApproved\n    function repayFor(bytes32 _cdpId, uint _amount) public onlyApproved {\n        // if (gasToken.balanceOf(address(this)) >= BOOST_GAS_TOKEN) {\n        //     gasToken.free(BOOST_GAS_TOKEN);\n        // }\n\n        CdpHolder memory holder = holders[_cdpId];\n        uint ratioBefore = getRatio(_cdpId);\n\n        require(holder.owner != address(0));\n        require(ratioBefore <= holders[_cdpId].minRatio);\n\n        DSProxyInterface(holder.owner).execute(saverProxy, abi.encodeWithSignature(\"repay(bytes32,uint256,uint256,uint256)\", _cdpId, _amount, 0, 2));\n\n        uint ratioAfter = getRatio(_cdpId);\n\n        emit CdpRepay(_cdpId, msg.sender, _amount, ratioBefore, ratioAfter);\n    }\n\n    /// @dev Should be callable by onlyApproved\n    function boostFor(bytes32 _cdpId, uint _amount) public onlyApproved {\n        // if (gasToken.balanceOf(address(this)) >= REPAY_GAS_TOKEN) {\n        //     gasToken.free(REPAY_GAS_TOKEN);\n        // }\n\n        CdpHolder memory holder = holders[_cdpId];\n        uint ratioBefore = getRatio(_cdpId);\n\n        require(holder.owner != address(0));\n\n        require(ratioBefore >= holders[_cdpId].maxRatio);\n\n        DSProxyInterface(holder.owner).execute(saverProxy, abi.encodeWithSignature(\"boost(bytes32,uint256,uint256,uint256)\", _cdpId, _amount, uint(-1), 2));\n\n        uint ratioAfter = getRatio(_cdpId);\n\n        emit CdpBoost(_cdpId, msg.sender, _amount, ratioBefore, ratioAfter);\n    }\n\n    function getRatio(bytes32 _cdpId) public returns(uint) {\n        return (rdiv(rmul(rmul(tub.ink(_cdpId), tub.tag()), WAD), tub.tab(_cdpId)));\n    }\n\n    function isOwner(address _owner, bytes32 _cdpId) internal returns(bool) {\n        require(tub.lad(_cdpId) == _owner);\n\n        return true;\n    }\n\n    // Owner only operations\n    function addCaller(address _caller) public onlyOwner {\n        approvedCallers[_caller] = true;\n    }\n\n    function removeCaller(address _caller) public onlyOwner {\n        approvedCallers[_caller] = false;\n    }\n }\n",
  "sourcePath": "/Users/nikolaklipa/Decenter/defisaver/cdpsaver-contracts/contracts/Monitor.sol",
  "compiler": {
    "name": "solc",
    "version": "0.5.7+commit.6da8b019.Emscripten.clang"
  },
  "schemaVersion": "3.0.9",
  "updatedAt": "2019-08-12T10:13:19.533Z",
  "devdoc": {
    "methods": {
      "boostFor(bytes32,uint256)": {
        "details": "Should be callable by onlyApproved"
      },
      "repayFor(bytes32,uint256)": {
        "details": "Should be callable by onlyApproved"
      },
      "subscribe(bytes32,uint256,uint256,uint256,uint256,uint256)": {
        "details": "Users DSProxy should call this"
      }
    }
  },
  "userdoc": {
    "methods": {}
  }
}