{
  "contractName": "MonitorProxy",
  "abi": [
    {
      "constant": true,
      "inputs": [],
      "name": "FACTORY_ADDRESS",
      "outputs": [
        {
          "name": "",
          "type": "address"
        }
      ],
      "payable": false,
      "stateMutability": "view",
      "type": "function"
    },
    {
      "constant": false,
      "inputs": [
        {
          "name": "_cup",
          "type": "bytes32"
        },
        {
          "name": "_minRatio",
          "type": "uint256"
        },
        {
          "name": "_maxRatio",
          "type": "uint256"
        },
        {
          "name": "_optimalRatioBoost",
          "type": "uint256"
        },
        {
          "name": "_optimalRatioRepay",
          "type": "uint256"
        },
        {
          "name": "_slippageLimit",
          "type": "uint256"
        },
        {
          "name": "_monitor",
          "type": "address"
        }
      ],
      "name": "subscribe",
      "outputs": [],
      "payable": false,
      "stateMutability": "nonpayable",
      "type": "function"
    },
    {
      "constant": false,
      "inputs": [
        {
          "name": "_cup",
          "type": "bytes32"
        },
        {
          "name": "_monitor",
          "type": "address"
        }
      ],
      "name": "unsubscribe",
      "outputs": [],
      "payable": false,
      "stateMutability": "nonpayable",
      "type": "function"
    }
  ],
  "bytecode": "0x608060405234801561001057600080fd5b50610507806100206000396000f3fe608060405234801561001057600080fd5b50600436106100415760003560e01c806343ac1a7e146100465780638823151b146100c6578063d59fd22f14610110575b600080fd5b6100c4600480360360e081101561005c57600080fd5b81019080803590602001909291908035906020019092919080359060200190929190803590602001909291908035906020019092919080359060200190929190803573ffffffffffffffffffffffffffffffffffffffff16906020019092919050505061015e565b005b6100ce610454565b604051808273ffffffffffffffffffffffffffffffffffffffff1673ffffffffffffffffffffffffffffffffffffffff16815260200191505060405180910390f35b61015c6004803603604081101561012657600080fd5b8101908080359060200190929190803573ffffffffffffffffffffffffffffffffffffffff16906020019092919050505061046c565b005b600073c72e74e474682680a414b506699bbca44ab9a93073ffffffffffffffffffffffffffffffffffffffff166365688cc96040518163ffffffff1660e01b8152600401602060405180830381600087803b1580156101bc57600080fd5b505af11580156101d0573d6000803e3d6000fd5b505050506040513d60208110156101e657600080fd5b810190808051906020019092919050505090503073ffffffffffffffffffffffffffffffffffffffff16637a9e5e4b826040518263ffffffff1660e01b8152600401808273ffffffffffffffffffffffffffffffffffffffff1673ffffffffffffffffffffffffffffffffffffffff168152602001915050600060405180830381600087803b15801561027857600080fd5b505af115801561028c573d6000803e3d6000fd5b505050508073ffffffffffffffffffffffffffffffffffffffff1663cbeea68c833060405180807f6578656375746528616464726573732c62797465732900000000000000000000815250601601905060405180910390206040518463ffffffff1660e01b8152600401808473ffffffffffffffffffffffffffffffffffffffff1673ffffffffffffffffffffffffffffffffffffffff1681526020018373ffffffffffffffffffffffffffffffffffffffff1673ffffffffffffffffffffffffffffffffffffffff168152602001827bffffffffffffffffffffffffffffffffffffffffffffffffffffffff191681526020019350505050600060405180830381600087803b15801561039f57600080fd5b505af11580156103b3573d6000803e3d6000fd5b505050508173ffffffffffffffffffffffffffffffffffffffff166326fdf0778989898989896040518763ffffffff1660e01b8152600401808781526020018681526020018581526020018481526020018381526020018281526020019650505050505050600060405180830381600087803b15801561043257600080fd5b505af1158015610446573d6000803e3d6000fd5b505050505050505050505050565b73c72e74e474682680a414b506699bbca44ab9a93081565b8073ffffffffffffffffffffffffffffffffffffffff1663f8c60146836040518263ffffffff1660e01b815260040180828152602001915050600060405180830381600087803b1580156104bf57600080fd5b505af11580156104d3573d6000803e3d6000fd5b50505050505056fea165627a7a72305820613040c396a00b4259473c1fab7d73d8d05687016abda151570eb21b24b4be2a0029",
  "source": "pragma solidity ^0.5.0;\n\nimport \"./interfaces/TubInterface.sol\";\nimport \"./DS/DSGuard.sol\";\nimport \"./DS/DSAuth.sol\";\nimport \"./Monitor.sol\";\n\n/// @title MonitorProxy handles authorization and interaction with the Monitor contract\ncontract MonitorProxy {\n    // Kovan\n    address public constant FACTORY_ADDRESS = 0xc72E74E474682680a414b506699bBcA44ab9a930;\n\n    function subscribe(bytes32 _cup, uint _minRatio, uint _maxRatio, uint _optimalRatioBoost, uint _optimalRatioRepay, uint _slippageLimit, address _monitor) public {\n        DSGuard guard = DSGuardFactory(FACTORY_ADDRESS).newGuard();\n        DSAuth(address(this)).setAuthority(DSAuthority(address(guard)));\n\n        guard.permit(_monitor, address(this), bytes4(keccak256(\"execute(address,bytes)\")));\n\n        Monitor(_monitor).subscribe(_cup, _minRatio, _maxRatio, _optimalRatioBoost, _optimalRatioRepay, _slippageLimit);\n    }\n\n    function unsubscribe(bytes32 _cup, address _monitor) public {\n        Monitor(_monitor).unsubscribe(_cup);\n    }\n}",
  "sourcePath": "/Users/nikolaklipa/Decenter/defisaver/cdpsaver-contracts/contracts/MonitorProxy.sol",
  "compiler": {
    "name": "solc",
    "version": "0.5.7+commit.6da8b019.Emscripten.clang"
  },
  "schemaVersion": "3.0.9",
  "updatedAt": "2019-08-08T19:13:24.682Z",
  "devdoc": {
    "methods": {},
    "title": "MonitorProxy handles authorization and interaction with the Monitor contract"
  },
  "userdoc": {
    "methods": {}
  }
}