{
  "contractName": "Monitor",
  "abi": [
    {
      "constant": true,
      "inputs": [],
      "name": "WETH_ADDRESS",
      "outputs": [
        {
          "name": "",
          "type": "address"
        }
      ],
      "payable": false,
      "stateMutability": "view",
      "type": "function",
      "signature": "0x040141e5"
    },
    {
      "constant": true,
      "inputs": [],
      "name": "CDAI_ADDRESS",
      "outputs": [
        {
          "name": "",
          "type": "address"
        }
      ],
      "payable": false,
      "stateMutability": "view",
      "type": "function",
      "signature": "0x0531b2ad"
    },
    {
      "constant": true,
      "inputs": [],
      "name": "changeIndex",
      "outputs": [
        {
          "name": "",
          "type": "uint256"
        }
      ],
      "payable": false,
      "stateMutability": "view",
      "type": "function",
      "signature": "0x106b0339"
    },
    {
      "constant": true,
      "inputs": [],
      "name": "BOOST_GAS_COST",
      "outputs": [
        {
          "name": "",
          "type": "uint256"
        }
      ],
      "payable": false,
      "stateMutability": "view",
      "type": "function",
      "signature": "0x18bf60e1"
    },
    {
      "constant": true,
      "inputs": [],
      "name": "PIP_INTERFACE_ADDRESS",
      "outputs": [
        {
          "name": "",
          "type": "address"
        }
      ],
      "payable": false,
      "stateMutability": "view",
      "type": "function",
      "signature": "0x1dab52b0"
    },
    {
      "constant": true,
      "inputs": [],
      "name": "KYBER_ETH_ADDRESS",
      "outputs": [
        {
          "name": "",
          "type": "address"
        }
      ],
      "payable": false,
      "stateMutability": "view",
      "type": "function",
      "signature": "0x29f7fc9e"
    },
    {
      "constant": true,
      "inputs": [],
      "name": "OTC_ADDRESS",
      "outputs": [
        {
          "name": "",
          "type": "address"
        }
      ],
      "payable": false,
      "stateMutability": "view",
      "type": "function",
      "signature": "0x2a441f05"
    },
    {
      "constant": true,
      "inputs": [],
      "name": "IDAI_ADDRESS",
      "outputs": [
        {
          "name": "",
          "type": "address"
        }
      ],
      "payable": false,
      "stateMutability": "view",
      "type": "function",
      "signature": "0x2d5eeb3f"
    },
    {
      "constant": true,
      "inputs": [],
      "name": "GAS_TOKEN_INTERFACE_ADDRESS",
      "outputs": [
        {
          "name": "",
          "type": "address"
        }
      ],
      "payable": false,
      "stateMutability": "view",
      "type": "function",
      "signature": "0x32ac5cd2"
    },
    {
      "constant": true,
      "inputs": [],
      "name": "VOX_ADDRESS",
      "outputs": [
        {
          "name": "",
          "type": "address"
        }
      ],
      "payable": false,
      "stateMutability": "view",
      "type": "function",
      "signature": "0x36e6da11"
    },
    {
      "constant": true,
      "inputs": [],
      "name": "REPAY_GAS_COST",
      "outputs": [
        {
          "name": "",
          "type": "uint256"
        }
      ],
      "payable": false,
      "stateMutability": "view",
      "type": "function",
      "signature": "0x36fc603f"
    },
    {
      "constant": true,
      "inputs": [],
      "name": "ETH2DAI_WRAPPER",
      "outputs": [
        {
          "name": "",
          "type": "address"
        }
      ],
      "payable": false,
      "stateMutability": "view",
      "type": "function",
      "signature": "0x43fb75e8"
    },
    {
      "constant": true,
      "inputs": [],
      "name": "STUPID_EXCHANGE",
      "outputs": [
        {
          "name": "",
          "type": "address"
        }
      ],
      "payable": false,
      "stateMutability": "view",
      "type": "function",
      "signature": "0x502237d7"
    },
    {
      "constant": true,
      "inputs": [],
      "name": "BOOST_GAS_TOKEN",
      "outputs": [
        {
          "name": "",
          "type": "uint256"
        }
      ],
      "payable": false,
      "stateMutability": "view",
      "type": "function",
      "signature": "0x696806c0"
    },
    {
      "constant": true,
      "inputs": [],
      "name": "PROXY_REGISTRY_INTERFACE_ADDRESS",
      "outputs": [
        {
          "name": "",
          "type": "address"
        }
      ],
      "payable": false,
      "stateMutability": "view",
      "type": "function",
      "signature": "0x728c0092"
    },
    {
      "constant": true,
      "inputs": [],
      "name": "MKR_ADDRESS",
      "outputs": [
        {
          "name": "",
          "type": "address"
        }
      ],
      "payable": false,
      "stateMutability": "view",
      "type": "function",
      "signature": "0x825ffd92"
    },
    {
      "constant": true,
      "inputs": [],
      "name": "FACTORY_ADDRESS",
      "outputs": [
        {
          "name": "",
          "type": "address"
        }
      ],
      "payable": false,
      "stateMutability": "view",
      "type": "function",
      "signature": "0x8823151b"
    },
    {
      "constant": true,
      "inputs": [],
      "name": "owner",
      "outputs": [
        {
          "name": "",
          "type": "address"
        }
      ],
      "payable": false,
      "stateMutability": "view",
      "type": "function",
      "signature": "0x8da5cb5b"
    },
    {
      "constant": true,
      "inputs": [],
      "name": "LOGGER_ADDRESS",
      "outputs": [
        {
          "name": "",
          "type": "address"
        }
      ],
      "payable": false,
      "stateMutability": "view",
      "type": "function",
      "signature": "0x94bfbe74"
    },
    {
      "constant": true,
      "inputs": [
        {
          "name": "",
          "type": "bytes32"
        }
      ],
      "name": "holders",
      "outputs": [
        {
          "name": "minRatio",
          "type": "uint256"
        },
        {
          "name": "maxRatio",
          "type": "uint256"
        },
        {
          "name": "optimalRatioBoost",
          "type": "uint256"
        },
        {
          "name": "optimalRatioRepay",
          "type": "uint256"
        },
        {
          "name": "owner",
          "type": "address"
        }
      ],
      "payable": false,
      "stateMutability": "view",
      "type": "function",
      "signature": "0x99386144"
    },
    {
      "constant": true,
      "inputs": [],
      "name": "MAKER_DAI_ADDRESS",
      "outputs": [
        {
          "name": "",
          "type": "address"
        }
      ],
      "payable": false,
      "stateMutability": "view",
      "type": "function",
      "signature": "0x9da779e9"
    },
    {
      "constant": true,
      "inputs": [],
      "name": "REPAY_GAS_TOKEN",
      "outputs": [
        {
          "name": "",
          "type": "uint256"
        }
      ],
      "payable": false,
      "stateMutability": "view",
      "type": "function",
      "signature": "0xa56f9718"
    },
    {
      "constant": true,
      "inputs": [
        {
          "name": "",
          "type": "address"
        }
      ],
      "name": "approvedCallers",
      "outputs": [
        {
          "name": "",
          "type": "bool"
        }
      ],
      "payable": false,
      "stateMutability": "view",
      "type": "function",
      "signature": "0xa71975af"
    },
    {
      "constant": true,
      "inputs": [],
      "name": "KYBER_WRAPPER",
      "outputs": [
        {
          "name": "",
          "type": "address"
        }
      ],
      "payable": false,
      "stateMutability": "view",
      "type": "function",
      "signature": "0xb175afa1"
    },
    {
      "constant": true,
      "inputs": [],
      "name": "COMPOUND_DAI_ADDRESS",
      "outputs": [
        {
          "name": "",
          "type": "address"
        }
      ],
      "payable": false,
      "stateMutability": "view",
      "type": "function",
      "signature": "0xc16921b7"
    },
    {
      "constant": true,
      "inputs": [],
      "name": "UNISWAP_FACTORY",
      "outputs": [
        {
          "name": "",
          "type": "address"
        }
      ],
      "payable": false,
      "stateMutability": "view",
      "type": "function",
      "signature": "0xc74c0fac"
    },
    {
      "constant": true,
      "inputs": [],
      "name": "PETH_ADDRESS",
      "outputs": [
        {
          "name": "",
          "type": "address"
        }
      ],
      "payable": false,
      "stateMutability": "view",
      "type": "function",
      "signature": "0xc9fde270"
    },
    {
      "constant": true,
      "inputs": [],
      "name": "KYBER_INTERFACE",
      "outputs": [
        {
          "name": "",
          "type": "address"
        }
      ],
      "payable": false,
      "stateMutability": "view",
      "type": "function",
      "signature": "0xce9bde1d"
    },
    {
      "constant": true,
      "inputs": [],
      "name": "WALLET_ID",
      "outputs": [
        {
          "name": "",
          "type": "address"
        }
      ],
      "payable": false,
      "stateMutability": "view",
      "type": "function",
      "signature": "0xd3661fa5"
    },
    {
      "constant": true,
      "inputs": [],
      "name": "SOLO_MARGIN_ADDRESS",
      "outputs": [
        {
          "name": "",
          "type": "address"
        }
      ],
      "payable": false,
      "stateMutability": "view",
      "type": "function",
      "signature": "0xd36b907d"
    },
    {
      "constant": true,
      "inputs": [],
      "name": "UNISWAP_WRAPPER",
      "outputs": [
        {
          "name": "",
          "type": "address"
        }
      ],
      "payable": false,
      "stateMutability": "view",
      "type": "function",
      "signature": "0xddaa293c"
    },
    {
      "constant": true,
      "inputs": [],
      "name": "MAX_GAS_PRICE",
      "outputs": [
        {
          "name": "",
          "type": "uint256"
        }
      ],
      "payable": false,
      "stateMutability": "view",
      "type": "function",
      "signature": "0xe3bbb4f1"
    },
    {
      "constant": true,
      "inputs": [],
      "name": "saverProxy",
      "outputs": [
        {
          "name": "",
          "type": "address"
        }
      ],
      "payable": false,
      "stateMutability": "view",
      "type": "function",
      "signature": "0xebc723cb"
    },
    {
      "constant": true,
      "inputs": [],
      "name": "TUB_ADDRESS",
      "outputs": [
        {
          "name": "",
          "type": "address"
        }
      ],
      "payable": false,
      "stateMutability": "view",
      "type": "function",
      "signature": "0xf0d405e5"
    },
    {
      "inputs": [
        {
          "name": "_saverProxy",
          "type": "address"
        }
      ],
      "payable": false,
      "stateMutability": "nonpayable",
      "type": "constructor",
      "signature": "constructor"
    },
    {
      "anonymous": false,
      "inputs": [
        {
          "indexed": true,
          "name": "owner",
          "type": "address"
        },
        {
          "indexed": false,
          "name": "cdpId",
          "type": "bytes32"
        }
      ],
      "name": "Subscribed",
      "type": "event",
      "signature": "0x3e8901f9ef2d2a2a75af91d229b1ab4c4530ff19a91e142a22249976b4f9fdb2"
    },
    {
      "anonymous": false,
      "inputs": [
        {
          "indexed": true,
          "name": "owner",
          "type": "address"
        },
        {
          "indexed": false,
          "name": "cdpId",
          "type": "bytes32"
        }
      ],
      "name": "Unsubscribed",
      "type": "event",
      "signature": "0xbd7d343a76cb95ae0e4391dff1b19b1894066d854717b1b63971cb7e4ad56410"
    },
    {
      "anonymous": false,
      "inputs": [
        {
          "indexed": true,
          "name": "owner",
          "type": "address"
        },
        {
          "indexed": false,
          "name": "cdpId",
          "type": "bytes32"
        }
      ],
      "name": "Updated",
      "type": "event",
      "signature": "0x381a32e049502b173221a8aedfae50ce8d5b10c6add4439b2179b4d034b75e5b"
    },
    {
      "anonymous": false,
      "inputs": [
        {
          "indexed": true,
          "name": "cdpId",
          "type": "bytes32"
        },
        {
          "indexed": false,
          "name": "caller",
          "type": "address"
        },
        {
          "indexed": false,
          "name": "_amount",
          "type": "uint256"
        },
        {
          "indexed": false,
          "name": "_ratioBefore",
          "type": "uint256"
        },
        {
          "indexed": false,
          "name": "_ratioAfter",
          "type": "uint256"
        }
      ],
      "name": "CdpRepay",
      "type": "event",
      "signature": "0x38b848867f033433a60ddbc2138cc66f87818dde92104b7c621cfc2ed9d9b115"
    },
    {
      "anonymous": false,
      "inputs": [
        {
          "indexed": true,
          "name": "cdpId",
          "type": "bytes32"
        },
        {
          "indexed": false,
          "name": "caller",
          "type": "address"
        },
        {
          "indexed": false,
          "name": "_amount",
          "type": "uint256"
        },
        {
          "indexed": false,
          "name": "_ratioBefore",
          "type": "uint256"
        },
        {
          "indexed": false,
          "name": "_ratioAfter",
          "type": "uint256"
        }
      ],
      "name": "CdpBoost",
      "type": "event",
      "signature": "0x30d77cb90eaf60f3adb5378f6e31c893714d37bde2eecb64a1e05802d896807e"
    },
    {
      "constant": false,
      "inputs": [
        {
          "name": "_cdpId",
          "type": "bytes32"
        },
        {
          "name": "_minRatio",
          "type": "uint256"
        },
        {
          "name": "_maxRatio",
          "type": "uint256"
        },
        {
          "name": "_optimalRatioBoost",
          "type": "uint256"
        },
        {
          "name": "_optimalRatioRepay",
          "type": "uint256"
        }
      ],
      "name": "subscribe",
      "outputs": [],
      "payable": false,
      "stateMutability": "nonpayable",
      "type": "function",
      "signature": "0x3f0740c5"
    },
    {
      "constant": false,
      "inputs": [
        {
          "name": "_cdpId",
          "type": "bytes32"
        }
      ],
      "name": "unsubscribe",
      "outputs": [],
      "payable": false,
      "stateMutability": "nonpayable",
      "type": "function",
      "signature": "0xf8c60146"
    },
    {
      "constant": false,
      "inputs": [
        {
          "name": "_cdpId",
          "type": "bytes32"
        },
        {
          "name": "_amount",
          "type": "uint256"
        }
      ],
      "name": "repayFor",
      "outputs": [],
      "payable": false,
      "stateMutability": "nonpayable",
      "type": "function",
      "signature": "0x35c66d40"
    },
    {
      "constant": false,
      "inputs": [
        {
          "name": "_cdpId",
          "type": "bytes32"
        },
        {
          "name": "_amount",
          "type": "uint256"
        }
      ],
      "name": "boostFor",
      "outputs": [],
      "payable": false,
      "stateMutability": "nonpayable",
      "type": "function",
      "signature": "0x46fb3805"
    },
    {
      "constant": false,
      "inputs": [
        {
          "name": "_cdpId",
          "type": "bytes32"
        }
      ],
      "name": "getRatio",
      "outputs": [
        {
          "name": "",
          "type": "uint256"
        }
      ],
      "payable": false,
      "stateMutability": "nonpayable",
      "type": "function",
      "signature": "0x2bd63f0c"
    },
    {
      "constant": false,
      "inputs": [
        {
          "name": "_caller",
          "type": "address"
        }
      ],
      "name": "addCaller",
      "outputs": [],
      "payable": false,
      "stateMutability": "nonpayable",
      "type": "function",
      "signature": "0x747293fb"
    },
    {
      "constant": false,
      "inputs": [
        {
          "name": "_caller",
          "type": "address"
        }
      ],
      "name": "removeCaller",
      "outputs": [],
      "payable": false,
      "stateMutability": "nonpayable",
      "type": "function",
      "signature": "0xeef21cd2"
    }
  ],
  "bytecode": "0x608060405273a944bd4b25c9f186a846fd5668941aa3d3b8425f6000806101000a81548173ffffffffffffffffffffffffffffffffffffffff021916908373ffffffffffffffffffffffffffffffffffffffff16021790555073a71937147b55deb8a530c7229c442fd3f31b7db2600160006101000a81548173ffffffffffffffffffffffffffffffffffffffff021916908373ffffffffffffffffffffffffffffffffffffffff1602179055507364a436ae831c1672ae81f674cab8b6775df3475c600260006101000a81548173ffffffffffffffffffffffffffffffffffffffff021916908373ffffffffffffffffffffffffffffffffffffffff1602179055506e170ccc93903185be5a2094c870df62600360006101000a81548173ffffffffffffffffffffffffffffffffffffffff021916908373ffffffffffffffffffffffffffffffffffffffff16021790555034801561015e57600080fd5b506040516020806127f98339810180604052602081101561017e57600080fd5b81019080805190602001909291905050506001600860003373ffffffffffffffffffffffffffffffffffffffff1673ffffffffffffffffffffffffffffffffffffffff16815260200190815260200160002060006101000a81548160ff02191690831515021790555033600560006101000a81548173ffffffffffffffffffffffffffffffffffffffff021916908373ffffffffffffffffffffffffffffffffffffffff16021790555080600460006101000a81548173ffffffffffffffffffffffffffffffffffffffff021916908373ffffffffffffffffffffffffffffffffffffffff160217905550600060068190555050612578806102816000396000f3fe608060405234801561001057600080fd5b5060043610610270576000357c010000000000000000000000000000000000000000000000000000000090048063825ffd9211610163578063c74c0fac116100e0578063ddaa293c116100a4578063ddaa293c14610be3578063e3bbb4f114610c2d578063ebc723cb14610c4b578063eef21cd214610c95578063f0d405e514610cd9578063f8c6014614610d2357610270565b8063c74c0fac14610a71578063c9fde27014610abb578063ce9bde1d14610b05578063d3661fa514610b4f578063d36b907d14610b9957610270565b80639da779e9116101275780639da779e914610919578063a56f971814610963578063a71975af14610981578063b175afa1146109dd578063c16921b714610a2757610270565b8063825ffd92146107675780638823151b146107b15780638da5cb5b146107fb57806394bfbe7414610845578063993861441461088f57610270565b806335c66d40116101f157806346fb3805116101b557806346fb380514610639578063502237d714610671578063696806c0146106bb578063728c0092146106d9578063747293fb1461072357610270565b806335c66d40146104f957806336e6da111461053157806336fc603f1461057b5780633f0740c51461059957806343fb75e8146105ef57610270565b806329f7fc9e1161023857806329f7fc9e1461038f5780632a441f05146103d95780632bd63f0c146104235780632d5eeb3f1461046557806332ac5cd2146104af57610270565b8063040141e5146102755780630531b2ad146102bf578063106b03391461030957806318bf60e1146103275780631dab52b014610345575b600080fd5b61027d610d51565b604051808273ffffffffffffffffffffffffffffffffffffffff1673ffffffffffffffffffffffffffffffffffffffff16815260200191505060405180910390f35b6102c7610d69565b604051808273ffffffffffffffffffffffffffffffffffffffff1673ffffffffffffffffffffffffffffffffffffffff16815260200191505060405180910390f35b610311610d81565b6040518082815260200191505060405180910390f35b61032f610d87565b6040518082815260200191505060405180910390f35b61034d610d8e565b604051808273ffffffffffffffffffffffffffffffffffffffff1673ffffffffffffffffffffffffffffffffffffffff16815260200191505060405180910390f35b610397610da6565b604051808273ffffffffffffffffffffffffffffffffffffffff1673ffffffffffffffffffffffffffffffffffffffff16815260200191505060405180910390f35b6103e1610dbe565b604051808273ffffffffffffffffffffffffffffffffffffffff1673ffffffffffffffffffffffffffffffffffffffff16815260200191505060405180910390f35b61044f6004803603602081101561043957600080fd5b8101908080359060200190929190505050610dd6565b6040518082815260200191505060405180910390f35b61046d611059565b604051808273ffffffffffffffffffffffffffffffffffffffff1673ffffffffffffffffffffffffffffffffffffffff16815260200191505060405180910390f35b6104b7611071565b604051808273ffffffffffffffffffffffffffffffffffffffff1673ffffffffffffffffffffffffffffffffffffffff16815260200191505060405180910390f35b61052f6004803603604081101561050f57600080fd5b810190808035906020019092919080359060200190929190505050611084565b005b610539611662565b604051808273ffffffffffffffffffffffffffffffffffffffff1673ffffffffffffffffffffffffffffffffffffffff16815260200191505060405180910390f35b61058361167a565b6040518082815260200191505060405180910390f35b6105ed600480360360a08110156105af57600080fd5b810190808035906020019092919080359060200190929190803590602001909291908035906020019092919080359060200190929190505050611681565b005b6105f761188f565b604051808273ffffffffffffffffffffffffffffffffffffffff1673ffffffffffffffffffffffffffffffffffffffff16815260200191505060405180910390f35b61066f6004803603604081101561064f57600080fd5b8101908080359060200190929190803590602001909291905050506118a7565b005b610679611e85565b604051808273ffffffffffffffffffffffffffffffffffffffff1673ffffffffffffffffffffffffffffffffffffffff16815260200191505060405180910390f35b6106c3611e9d565b6040518082815260200191505060405180910390f35b6106e1611ea2565b604051808273ffffffffffffffffffffffffffffffffffffffff1673ffffffffffffffffffffffffffffffffffffffff16815260200191505060405180910390f35b6107656004803603602081101561073957600080fd5b81019080803573ffffffffffffffffffffffffffffffffffffffff169060200190929190505050611eba565b005b61076f611f6f565b604051808273ffffffffffffffffffffffffffffffffffffffff1673ffffffffffffffffffffffffffffffffffffffff16815260200191505060405180910390f35b6107b9611f87565b604051808273ffffffffffffffffffffffffffffffffffffffff1673ffffffffffffffffffffffffffffffffffffffff16815260200191505060405180910390f35b610803611f9f565b604051808273ffffffffffffffffffffffffffffffffffffffff1673ffffffffffffffffffffffffffffffffffffffff16815260200191505060405180910390f35b61084d611fc5565b604051808273ffffffffffffffffffffffffffffffffffffffff1673ffffffffffffffffffffffffffffffffffffffff16815260200191505060405180910390f35b6108bb600480360360208110156108a557600080fd5b8101908080359060200190929190505050611fdd565b604051808681526020018581526020018481526020018381526020018273ffffffffffffffffffffffffffffffffffffffff1673ffffffffffffffffffffffffffffffffffffffff1681526020019550505050505060405180910390f35b610921612033565b604051808273ffffffffffffffffffffffffffffffffffffffff1673ffffffffffffffffffffffffffffffffffffffff16815260200191505060405180910390f35b61096b61204b565b6040518082815260200191505060405180910390f35b6109c36004803603602081101561099757600080fd5b81019080803573ffffffffffffffffffffffffffffffffffffffff169060200190929190505050612050565b604051808215151515815260200191505060405180910390f35b6109e5612070565b604051808273ffffffffffffffffffffffffffffffffffffffff1673ffffffffffffffffffffffffffffffffffffffff16815260200191505060405180910390f35b610a2f612088565b604051808273ffffffffffffffffffffffffffffffffffffffff1673ffffffffffffffffffffffffffffffffffffffff16815260200191505060405180910390f35b610a796120a0565b604051808273ffffffffffffffffffffffffffffffffffffffff1673ffffffffffffffffffffffffffffffffffffffff16815260200191505060405180910390f35b610ac36120b8565b604051808273ffffffffffffffffffffffffffffffffffffffff1673ffffffffffffffffffffffffffffffffffffffff16815260200191505060405180910390f35b610b0d6120d0565b604051808273ffffffffffffffffffffffffffffffffffffffff1673ffffffffffffffffffffffffffffffffffffffff16815260200191505060405180910390f35b610b576120e8565b604051808273ffffffffffffffffffffffffffffffffffffffff1673ffffffffffffffffffffffffffffffffffffffff16815260200191505060405180910390f35b610ba1612100565b604051808273ffffffffffffffffffffffffffffffffffffffff1673ffffffffffffffffffffffffffffffffffffffff16815260200191505060405180910390f35b610beb612118565b604051808273ffffffffffffffffffffffffffffffffffffffff1673ffffffffffffffffffffffffffffffffffffffff16815260200191505060405180910390f35b610c35612130565b6040518082815260200191505060405180910390f35b610c53612139565b604051808273ffffffffffffffffffffffffffffffffffffffff1673ffffffffffffffffffffffffffffffffffffffff16815260200191505060405180910390f35b610cd760048036036020811015610cab57600080fd5b81019080803573ffffffffffffffffffffffffffffffffffffffff16906020019092919050505061215f565b005b610ce1612214565b604051808273ffffffffffffffffffffffffffffffffffffffff1673ffffffffffffffffffffffffffffffffffffffff16815260200191505060405180910390f35b610d4f60048036036020811015610d3957600080fd5b810190808035906020019092919050505061222c565b005b73d0a1e359811322d97991e03f863a0c30c2cf029c81565b73b6b09fbffba6a5c4631e5f7b2e3ee183ac259c0d81565b60065481565b620b71b081565b73a944bd4b25c9f186a846fd5668941aa3d3b8425f81565b73eeeeeeeeeeeeeeeeeeeeeeeeeeeeeeeeeeeeeeee81565b734a6bc4e803c62081ffebcc8d227b5a87a58f1f8f81565b6000611052610f81610f73600160009054906101000a900473ffffffffffffffffffffffffffffffffffffffff1673ffffffffffffffffffffffffffffffffffffffff16631f3634ed866040518263ffffffff167c010000000000000000000000000000000000000000000000000000000002815260040180828152602001915050602060405180830381600087803b158015610e7257600080fd5b505af1158015610e86573d6000803e3d6000fd5b505050506040513d6020811015610e9c57600080fd5b8101908080519060200190929190505050600160009054906101000a900473ffffffffffffffffffffffffffffffffffffffff1673ffffffffffffffffffffffffffffffffffffffff166351f910666040518163ffffffff167c0100000000000000000000000000000000000000000000000000000000028152600401602060405180830381600087803b158015610f3357600080fd5b505af1158015610f47573d6000803e3d6000fd5b505050506040513d6020811015610f5d57600080fd5b81019080805190602001909291905050506122ff565b670de0b6b3a76400006122ff565b600160009054906101000a900473ffffffffffffffffffffffffffffffffffffffff1673ffffffffffffffffffffffffffffffffffffffff1663f7c8d634856040518263ffffffff167c010000000000000000000000000000000000000000000000000000000002815260040180828152602001915050602060405180830381600087803b15801561101257600080fd5b505af1158015611026573d6000803e3d6000fd5b505050506040513d602081101561103c57600080fd5b8101908080519060200190929190505050612347565b9050919050565b73a1e58f3b1927743393b25f261471e1f2d3d9f0f681565b6e170ccc93903185be5a2094c870df6281565b600860003373ffffffffffffffffffffffffffffffffffffffff1673ffffffffffffffffffffffffffffffffffffffff16815260200190815260200160002060009054906101000a900460ff166110da57600080fd5b6013600360009054906101000a900473ffffffffffffffffffffffffffffffffffffffff1673ffffffffffffffffffffffffffffffffffffffff166370a08231306040518263ffffffff167c0100000000000000000000000000000000000000000000000000000000028152600401808273ffffffffffffffffffffffffffffffffffffffff1673ffffffffffffffffffffffffffffffffffffffff16815260200191505060206040518083038186803b15801561119757600080fd5b505afa1580156111ab573d6000803e3d6000fd5b505050506040513d60208110156111c157600080fd5b8101908080519060200190929190505050106112a657600360009054906101000a900473ffffffffffffffffffffffffffffffffffffffff1673ffffffffffffffffffffffffffffffffffffffff1663d8ccd0f360136040518263ffffffff167c010000000000000000000000000000000000000000000000000000000002815260040180828152602001915050602060405180830381600087803b15801561126957600080fd5b505af115801561127d573d6000803e3d6000fd5b505050506040513d602081101561129357600080fd5b8101908080519060200190929190505050505b6112ae612507565b600760008481526020019081526020016000206040518060a0016040529081600082015481526020016001820154815260200160028201548152602001600382015481526020016004820160009054906101000a900473ffffffffffffffffffffffffffffffffffffffff1673ffffffffffffffffffffffffffffffffffffffff1673ffffffffffffffffffffffffffffffffffffffff16815250509050600061135784610dd6565b9050600073ffffffffffffffffffffffffffffffffffffffff16826080015173ffffffffffffffffffffffffffffffffffffffff16141561139757600080fd5b60076000858152602001908152602001600020600001548111156113ba57600080fd5b60006113c86216e360612383565b9050826080015173ffffffffffffffffffffffffffffffffffffffff16631cff79cd600460009054906101000a900473ffffffffffffffffffffffffffffffffffffffff168787856040516024018084815260200183815260200182815260200193505050506040516020818303038152906040527fe4858494000000000000000000000000000000000000000000000000000000007bffffffffffffffffffffffffffffffffffffffffffffffffffffffff19166020820180517bffffffffffffffffffffffffffffffffffffffffffffffffffffffff83818316178352505050506040518363ffffffff167c0100000000000000000000000000000000000000000000000000000000028152600401808373ffffffffffffffffffffffffffffffffffffffff1673ffffffffffffffffffffffffffffffffffffffff16815260200180602001828103825283818151815260200191508051906020019080838360005b8381101561154857808201518184015260208101905061152d565b50505050905090810190601f1680156115755780820380516001836020036101000a031916815260200191505b509350505050602060405180830381600087803b15801561159557600080fd5b505af11580156115a9573d6000803e3d6000fd5b505050506040513d60208110156115bf57600080fd5b81019080805190602001909291905050505060006115dc86610dd6565b9050857f38b848867f033433a60ddbc2138cc66f87818dde92104b7c621cfc2ed9d9b11533878685604051808573ffffffffffffffffffffffffffffffffffffffff1673ffffffffffffffffffffffffffffffffffffffff16815260200184815260200183815260200182815260200194505050505060405180910390a2505050505050565b73bb4339c0ab5b1d9f14bd6e3426444a1e9d86a1d981565b6216e36081565b61168b33866123b4565b61169457600080fd5b60008073ffffffffffffffffffffffffffffffffffffffff166007600088815260200190815260200160002060040160009054906101000a900473ffffffffffffffffffffffffffffffffffffffff1673ffffffffffffffffffffffffffffffffffffffff1614611706576000611709565b60015b90506040518060a001604052808681526020018581526020018481526020018381526020013373ffffffffffffffffffffffffffffffffffffffff16815250600760008881526020019081526020016000206000820151816000015560208201518160010155604082015181600201556060820151816003015560808201518160040160006101000a81548173ffffffffffffffffffffffffffffffffffffffff021916908373ffffffffffffffffffffffffffffffffffffffff1602179055509050506006600081548092919060010191905055508015611838573373ffffffffffffffffffffffffffffffffffffffff167f3e8901f9ef2d2a2a75af91d229b1ab4c4530ff19a91e142a22249976b4f9fdb2876040518082815260200191505060405180910390a2611887565b3373ffffffffffffffffffffffffffffffffffffffff167f381a32e049502b173221a8aedfae50ce8d5b10c6add4439b2179b4d034b75e5b876040518082815260200191505060405180910390a25b505050505050565b73823cde416973a19f98bb9c96d97f4fe6c9a7238b81565b600860003373ffffffffffffffffffffffffffffffffffffffff1673ffffffffffffffffffffffffffffffffffffffff16815260200190815260200160002060009054906101000a900460ff166118fd57600080fd5b601e600360009054906101000a900473ffffffffffffffffffffffffffffffffffffffff1673ffffffffffffffffffffffffffffffffffffffff166370a08231306040518263ffffffff167c0100000000000000000000000000000000000000000000000000000000028152600401808273ffffffffffffffffffffffffffffffffffffffff1673ffffffffffffffffffffffffffffffffffffffff16815260200191505060206040518083038186803b1580156119ba57600080fd5b505afa1580156119ce573d6000803e3d6000fd5b505050506040513d60208110156119e457600080fd5b810190808051906020019092919050505010611ac957600360009054906101000a900473ffffffffffffffffffffffffffffffffffffffff1673ffffffffffffffffffffffffffffffffffffffff1663d8ccd0f3601e6040518263ffffffff167c010000000000000000000000000000000000000000000000000000000002815260040180828152602001915050602060405180830381600087803b158015611a8c57600080fd5b505af1158015611aa0573d6000803e3d6000fd5b505050506040513d6020811015611ab657600080fd5b8101908080519060200190929190505050505b611ad1612507565b600760008481526020019081526020016000206040518060a0016040529081600082015481526020016001820154815260200160028201548152602001600382015481526020016004820160009054906101000a900473ffffffffffffffffffffffffffffffffffffffff1673ffffffffffffffffffffffffffffffffffffffff1673ffffffffffffffffffffffffffffffffffffffff168152505090506000611b7a84610dd6565b9050600073ffffffffffffffffffffffffffffffffffffffff16826080015173ffffffffffffffffffffffffffffffffffffffff161415611bba57600080fd5b6007600085815260200190815260200160002060010154811015611bdd57600080fd5b6000611beb620b71b0612383565b9050826080015173ffffffffffffffffffffffffffffffffffffffff16631cff79cd600460009054906101000a900473ffffffffffffffffffffffffffffffffffffffff168787856040516024018084815260200183815260200182815260200193505050506040516020818303038152906040527fce474e74000000000000000000000000000000000000000000000000000000007bffffffffffffffffffffffffffffffffffffffffffffffffffffffff19166020820180517bffffffffffffffffffffffffffffffffffffffffffffffffffffffff83818316178352505050506040518363ffffffff167c0100000000000000000000000000000000000000000000000000000000028152600401808373ffffffffffffffffffffffffffffffffffffffff1673ffffffffffffffffffffffffffffffffffffffff16815260200180602001828103825283818151815260200191508051906020019080838360005b83811015611d6b578082015181840152602081019050611d50565b50505050905090810190601f168015611d985780820380516001836020036101000a031916815260200191505b509350505050602060405180830381600087803b158015611db857600080fd5b505af1158015611dcc573d6000803e3d6000fd5b505050506040513d6020811015611de257600080fd5b8101908080519060200190929190505050506000611dff86610dd6565b9050857f30d77cb90eaf60f3adb5378f6e31c893714d37bde2eecb64a1e05802d896807e33878685604051808573ffffffffffffffffffffffffffffffffffffffff1673ffffffffffffffffffffffffffffffffffffffff16815260200184815260200183815260200182815260200194505050505060405180910390a2505050505050565b73863e41fe88288ebf3fcd91d8dbb679fb83fdfe1781565b601381565b7364a436ae831c1672ae81f674cab8b6775df3475c81565b3373ffffffffffffffffffffffffffffffffffffffff16600560009054906101000a900473ffffffffffffffffffffffffffffffffffffffff1673ffffffffffffffffffffffffffffffffffffffff1614611f1457600080fd5b6001600860008373ffffffffffffffffffffffffffffffffffffffff1673ffffffffffffffffffffffffffffffffffffffff16815260200190815260200160002060006101000a81548160ff02191690831515021790555050565b73aaf64bfcc32d0f15873a02163e7e500671a4ffcd81565b73c72e74e474682680a414b506699bbca44ab9a93081565b600560009054906101000a900473ffffffffffffffffffffffffffffffffffffffff1681565b7332d0e18f988f952eb3524ace762042381a2c39e581565b60076020528060005260406000206000915090508060000154908060010154908060020154908060030154908060040160009054906101000a900473ffffffffffffffffffffffffffffffffffffffff16905085565b73c4375b7de8af5a38a93548eb8453a498222c4ff281565b601e81565b60086020528060005260406000206000915054906101000a900460ff1681565b735595930d576aedf13945c83ce5aad827529a131081565b7325a01a05c188dacbcf1d61af55d4a5b4021f7eed81565b73f5d915570bc477f9b8d6c0e980aa81757a3aac3681565b73f4d791139ce033ad35db2b2201435fad668b1b6481565b73692f391bcc85cefce8c237c01e1f636bbd70ea4d81565b7354b44c6b18fc0b4a1010b21d524c338d1f8065f681565b734ec3570cadaaee08ae384779b0f3a45ef85289de81565b735595930d576aedf13945c83ce5aad827529a131081565b6409502f900081565b600460009054906101000a900473ffffffffffffffffffffffffffffffffffffffff1681565b3373ffffffffffffffffffffffffffffffffffffffff16600560009054906101000a900473ffffffffffffffffffffffffffffffffffffffff1673ffffffffffffffffffffffffffffffffffffffff16146121b957600080fd5b6000600860008373ffffffffffffffffffffffffffffffffffffffff1673ffffffffffffffffffffffffffffffffffffffff16815260200190815260200160002060006101000a81548160ff02191690831515021790555050565b73a71937147b55deb8a530c7229c442fd3f31b7db281565b61223633826123b4565b61223f57600080fd5b600760008281526020019081526020016000206000808201600090556001820160009055600282016000905560038201600090556004820160006101000a81549073ffffffffffffffffffffffffffffffffffffffff021916905550506006600081548092919060010191905055503373ffffffffffffffffffffffffffffffffffffffff167fbd7d343a76cb95ae0e4391dff1b19b1894066d854717b1b63971cb7e4ad56410826040518082815260200191505060405180910390a250565b60006b033b2e3c9fd0803ce800000061233761231b85856124c1565b60026b033b2e3c9fd0803ce80000008161233157fe5b046124ed565b8161233e57fe5b04905092915050565b600081612373612363856b033b2e3c9fd0803ce80000006124c1565b6002858161236d57fe5b046124ed565b8161237a57fe5b04905092915050565b6000806409502f90003a111561239e576409502f90006123a0565b3a5b90506123ac81846124c1565b915050919050565b60008273ffffffffffffffffffffffffffffffffffffffff16600160009054906101000a900473ffffffffffffffffffffffffffffffffffffffff1673ffffffffffffffffffffffffffffffffffffffff1663de5f5517846040518263ffffffff167c01000000000000000000000000000000000000000000000000000000000281526004018082815260200191505060206040518083038186803b15801561245c57600080fd5b505afa158015612470573d6000803e3d6000fd5b505050506040513d602081101561248657600080fd5b810190808051906020019092919050505073ffffffffffffffffffffffffffffffffffffffff16146124b757600080fd5b6001905092915050565b6000808214806124de57508282838502925082816124db57fe5b04145b6124e757600080fd5b92915050565b600082828401915081101561250157600080fd5b92915050565b6040518060a0016040528060008152602001600081526020016000815260200160008152602001600073ffffffffffffffffffffffffffffffffffffffff168152509056fea165627a7a723058204fc3f7e0ec9f5847508f7e3c059217b9f0068b9e9a8e103835b7e269001df43f0029",
  "source": "pragma solidity ^0.5.0;\n\nimport \"./interfaces/TubInterface.sol\";\nimport \"./interfaces/ProxyRegistryInterface.sol\";\nimport \"./interfaces/GasTokenInterface.sol\";\nimport \"./interfaces/ERC20.sol\";\nimport \"./DS/DSMath.sol\";\nimport \"./constants/ConstantAddresses.sol\";\n\ncontract Monitor is DSMath, ConstantAddresses {\n\n    // KOVAN\n    PipInterface pip = PipInterface(PIP_INTERFACE_ADDRESS);\n    TubInterface tub = TubInterface(TUB_ADDRESS);\n    ProxyRegistryInterface registry = ProxyRegistryInterface(PROXY_REGISTRY_INTERFACE_ADDRESS);\n    GasTokenInterface gasToken = GasTokenInterface(GAS_TOKEN_INTERFACE_ADDRESS);\n\n    uint constant public REPAY_GAS_TOKEN = 30;\n    uint constant public BOOST_GAS_TOKEN = 19;\n\n    uint constant public MAX_GAS_PRICE = 40000000000; // 40 gwei\n\n    uint constant public REPAY_GAS_COST = 1500000;\n    uint constant public BOOST_GAS_COST = 750000;\n\n    address public saverProxy;\n    address public owner;\n    uint public changeIndex;\n\n    struct CdpHolder {\n        uint minRatio;\n        uint maxRatio;\n        uint optimalRatioBoost;\n        uint optimalRatioRepay;\n        address owner;\n    }\n\n    mapping(bytes32 => CdpHolder) public holders;\n\n    /// @dev This will be Bot addresses which will trigger the calls\n    mapping(address => bool) public approvedCallers;\n\n    event Subscribed(address indexed owner, bytes32 cdpId);\n    event Unsubscribed(address indexed owner, bytes32 cdpId);\n    event Updated(address indexed owner, bytes32 cdpId);\n\n    event CdpRepay(bytes32 indexed cdpId, address caller, uint _amount, uint _ratioBefore, uint _ratioAfter);\n    event CdpBoost(bytes32 indexed cdpId, address caller, uint _amount, uint _ratioBefore, uint _ratioAfter);\n\n    modifier onlyApproved() {\n        require(approvedCallers[msg.sender]);\n        _;\n    }\n\n    modifier onlyOwner() {\n        require(owner == msg.sender);\n        _;\n    }\n\n    constructor(address _saverProxy) public {\n        approvedCallers[msg.sender] = true;\n        owner = msg.sender;\n\n        saverProxy = _saverProxy;\n        changeIndex = 0;\n    }\n\n    /// @notice Owners of Cdps subscribe through DSProxy for automatic saving\n    /// @param _cdpId Id of the cdp\n    /// @param _minRatio Minimum ratio that the Cdp can be\n    /// @param _maxRatio Maximum ratio that the Cdp can be\n    /// @param _optimalRatioBoost Optimal ratio for the user after boost is performed\n    /// @param _optimalRatioRepay Optimal ratio for the user after repay is performed\n    function subscribe(bytes32 _cdpId, uint _minRatio, uint _maxRatio, uint _optimalRatioBoost, uint _optimalRatioRepay) public {\n        require(isOwner(msg.sender, _cdpId));\n\n        bool isCreated = holders[_cdpId].owner == address(0) ? true : false;\n\n        holders[_cdpId] = CdpHolder({\n            minRatio: _minRatio,\n            maxRatio: _maxRatio,\n            optimalRatioBoost: _optimalRatioBoost,\n            optimalRatioRepay: _optimalRatioRepay,\n            owner: msg.sender\n        });\n\n        changeIndex++;\n\n        if (isCreated) {\n            emit Subscribed(msg.sender, _cdpId);\n        } else {\n            emit Updated(msg.sender, _cdpId);\n        }\n    }\n\n    /// @notice Users can unsubscribe from monitoring\n    /// @param _cdpId Id of the cdp\n    function unsubscribe(bytes32 _cdpId) public {\n        require(isOwner(msg.sender, _cdpId));\n\n        delete holders[_cdpId];\n\n        changeIndex++;\n\n        emit Unsubscribed(msg.sender, _cdpId);\n    }\n\n    /// @notice Bots call this method to repay for user when conditions are met\n    /// @dev If the contract ownes gas token it will try and use it for gas price reduction\n    /// @param _cdpId Id of the cdp\n    /// @param _amount Amount of Eth to convert to Dai\n    function repayFor(bytes32 _cdpId, uint _amount) public onlyApproved {\n        if (gasToken.balanceOf(address(this)) >= BOOST_GAS_TOKEN) {\n            gasToken.free(BOOST_GAS_TOKEN);\n        }\n\n        CdpHolder memory holder = holders[_cdpId];\n        uint ratioBefore = getRatio(_cdpId);\n\n        require(holder.owner != address(0));\n        require(ratioBefore <= holders[_cdpId].minRatio);\n\n        uint gasCost = calcGasCost(REPAY_GAS_COST);\n\n        DSProxyInterface(holder.owner).execute(saverProxy, abi.encodeWithSignature(\"repay(bytes32,uint256,uint256)\", _cdpId, _amount, gasCost));\n\n        uint ratioAfter = getRatio(_cdpId);\n\n        emit CdpRepay(_cdpId, msg.sender, _amount, ratioBefore, ratioAfter);\n    }\n\n    /// @notice Bots call this method to boost for user when conditions are met\n    /// @dev If the contract ownes gas token it will try and use it for gas price reduction\n    /// @param _cdpId Id of the cdp\n    /// @param _amount Amount of Dai to convert to Eth\n    function boostFor(bytes32 _cdpId, uint _amount) public onlyApproved {\n        if (gasToken.balanceOf(address(this)) >= REPAY_GAS_TOKEN) {\n            gasToken.free(REPAY_GAS_TOKEN);\n        }\n\n        CdpHolder memory holder = holders[_cdpId];\n        uint ratioBefore = getRatio(_cdpId);\n\n        require(holder.owner != address(0));\n\n        require(ratioBefore >= holders[_cdpId].maxRatio);\n\n        uint gasCost = calcGasCost(BOOST_GAS_COST);\n\n        DSProxyInterface(holder.owner).execute(saverProxy, abi.encodeWithSignature(\"boost(bytes32,uint256,uint256)\", _cdpId, _amount, gasCost));\n\n        uint ratioAfter = getRatio(_cdpId);\n\n        emit CdpBoost(_cdpId, msg.sender, _amount, ratioBefore, ratioAfter);\n    }\n\n\n    /// @notice Calculates the ratio of a given cdp\n    /// @param _cdpId The id od the cdp\n    function getRatio(bytes32 _cdpId) public returns(uint) {\n        return (rdiv(rmul(rmul(tub.ink(_cdpId), tub.tag()), WAD), tub.tab(_cdpId)));\n    }\n\n    /// @notice Check if the owner is the cup owner\n    /// @param _owner Address which is the owner of the cup\n    /// @param _cdpId Id of the cdp\n    function isOwner(address _owner, bytes32 _cdpId) internal view returns(bool) {\n        require(tub.lad(_cdpId) == _owner);\n\n        return true;\n    }\n\n    /// @notice Calculates gas cost (in Eth) of tx\n    /// @dev Gas price is limited to MAX_GAS_PRICE to prevent attack of draining user CDP\n    /// @param _gasAmount Amount of gas used for the tx\n    function calcGasCost(uint _gasAmount) internal view returns (uint) {\n        uint gasPrice = tx.gasprice <= MAX_GAS_PRICE ? tx.gasprice : MAX_GAS_PRICE;\n\n        return mul(gasPrice, _gasAmount);\n    }\n\n\n    /******************* OWNER ONLY OPERATIONS ********************************/\n\n    /// @notice Adds a new bot address which can call repay/boost\n    /// @param _caller Bot address\n    function addCaller(address _caller) public onlyOwner {\n        approvedCallers[_caller] = true;\n    }\n\n    /// @notice Removed a bot address so it can't call repay/boost\n    /// @param _caller Bot address\n    function removeCaller(address _caller) public onlyOwner {\n        approvedCallers[_caller] = false;\n    }\n }\n",
  "sourcePath": "/Users/nenadpalinkasevic/Desktop/blockchain/cdpsaver-contracts/contracts/Monitor.sol",
  "compiler": {
    "name": "solc",
    "version": "0.5.7+commit.6da8b019.Emscripten.clang"
  },
  "schemaVersion": "3.0.0",
  "updatedAt": "2019-08-19T13:35:54.621Z",
  "devdoc": {
    "methods": {
      "addCaller(address)": {
        "params": {
          "_caller": "Bot address"
        }
      },
      "boostFor(bytes32,uint256)": {
        "details": "If the contract ownes gas token it will try and use it for gas price reduction",
        "params": {
          "_amount": "Amount of Dai to convert to Eth",
          "_cdpId": "Id of the cdp"
        }
      },
      "getRatio(bytes32)": {
        "params": {
          "_cdpId": "The id od the cdp"
        }
      },
      "removeCaller(address)": {
        "params": {
          "_caller": "Bot address"
        }
      },
      "repayFor(bytes32,uint256)": {
        "details": "If the contract ownes gas token it will try and use it for gas price reduction",
        "params": {
          "_amount": "Amount of Eth to convert to Dai",
          "_cdpId": "Id of the cdp"
        }
      },
      "subscribe(bytes32,uint256,uint256,uint256,uint256)": {
        "params": {
          "_cdpId": "Id of the cdp",
          "_maxRatio": "Maximum ratio that the Cdp can be",
          "_minRatio": "Minimum ratio that the Cdp can be",
          "_optimalRatioBoost": "Optimal ratio for the user after boost is performed",
          "_optimalRatioRepay": "Optimal ratio for the user after repay is performed"
        }
      },
      "unsubscribe(bytes32)": {
        "params": {
          "_cdpId": "Id of the cdp"
        }
      }
    }
  },
  "userdoc": {
    "methods": {
      "addCaller(address)": {
        "notice": "Adds a new bot address which can call repay/boost"
      },
      "boostFor(bytes32,uint256)": {
        "notice": "Bots call this method to boost for user when conditions are met"
      },
      "getRatio(bytes32)": {
        "notice": "Calculates the ratio of a given cdp"
      },
      "removeCaller(address)": {
        "notice": "Removed a bot address so it can't call repay/boost"
      },
      "repayFor(bytes32,uint256)": {
        "notice": "Bots call this method to repay for user when conditions are met"
      },
      "subscribe(bytes32,uint256,uint256,uint256,uint256)": {
        "notice": "Owners of Cdps subscribe through DSProxy for automatic saving"
      },
      "unsubscribe(bytes32)": {
        "notice": "Users can unsubscribe from monitoring"
      }
    }
  }
}