{
  "contractName": "SaverLogger",
  "abi": [
    {
      "anonymous": false,
      "inputs": [
        {
          "indexed": true,
          "name": "cdpId",
          "type": "uint256"
        },
        {
          "indexed": true,
          "name": "owner",
          "type": "address"
        },
        {
          "indexed": false,
          "name": "collateralAmount",
          "type": "uint256"
        },
        {
          "indexed": false,
          "name": "daiAmount",
          "type": "uint256"
        }
      ],
      "name": "Repay",
      "type": "event"
    },
    {
      "anonymous": false,
      "inputs": [
        {
          "indexed": true,
          "name": "cdpId",
          "type": "uint256"
        },
        {
          "indexed": true,
          "name": "owner",
          "type": "address"
        },
        {
          "indexed": false,
          "name": "daiAmount",
          "type": "uint256"
        },
        {
          "indexed": false,
          "name": "collateralAmount",
          "type": "uint256"
        }
      ],
      "name": "Boost",
      "type": "event"
    },
    {
      "constant": false,
      "inputs": [
        {
          "name": "_cdpId",
          "type": "uint256"
        },
        {
          "name": "_owner",
          "type": "address"
        },
        {
          "name": "_collateralAmount",
          "type": "uint256"
        },
        {
          "name": "_daiAmount",
          "type": "uint256"
        }
      ],
      "name": "LogRepay",
      "outputs": [],
      "payable": false,
      "stateMutability": "nonpayable",
      "type": "function"
    },
    {
      "constant": false,
      "inputs": [
        {
          "name": "_cdpId",
          "type": "uint256"
        },
        {
          "name": "_owner",
          "type": "address"
        },
        {
          "name": "_daiAmount",
          "type": "uint256"
        },
        {
          "name": "_collateralAmount",
          "type": "uint256"
        }
      ],
      "name": "LogBoost",
      "outputs": [],
      "payable": false,
      "stateMutability": "nonpayable",
      "type": "function"
    }
  ],
  "bytecode": "0x608060405234801561001057600080fd5b506101e5806100206000396000f3fe608060405234801561001057600080fd5b50600436106100365760003560e01c8063406bb32a1461003b578063687710051461009d575b600080fd5b61009b6004803603608081101561005157600080fd5b8101908080359060200190929190803573ffffffffffffffffffffffffffffffffffffffff16906020019092919080359060200190929190803590602001909291905050506100ff565b005b6100fd600480360360808110156100b357600080fd5b8101908080359060200190929190803573ffffffffffffffffffffffffffffffffffffffff169060200190929190803590602001909291908035906020019092919050505061015c565b005b8273ffffffffffffffffffffffffffffffffffffffff16847f4e209d95368098bc8c8a8b0010964bca5d6789b67388238d3a2bad8e236e54b08484604051808381526020018281526020019250505060405180910390a350505050565b8273ffffffffffffffffffffffffffffffffffffffff16847f8eeb98bc97afac8a400c010e88a1295ce2cef30b23c752ac702c2b3432bbba438484604051808381526020018281526020019250505060405180910390a35050505056fea165627a7a72305820b7b49ffedda605fecbb401c86cd3849e65d37b5e259a69bd7d0854f3a4cabf990029",
  "source": "pragma solidity ^0.5.0;\n\ncontract SaverLogger {\n    event Repay(uint indexed cdpId, address indexed owner, uint collateralAmount, uint daiAmount);\n    event Boost(uint indexed cdpId, address indexed owner, uint daiAmount, uint collateralAmount);\n\n    function LogRepay(uint _cdpId, address _owner, uint _collateralAmount, uint _daiAmount) public {\n        emit Repay(_cdpId, _owner, _collateralAmount, _daiAmount);\n    }\n\n    function LogBoost(uint _cdpId, address _owner, uint _daiAmount, uint _collateralAmount) public {\n        emit Boost(_cdpId, _owner, _daiAmount, _collateralAmount);\n    }\n}\n",
  "sourcePath": "/Users/nikolaklipa/Decenter/defisaver/cdpsaver-contracts/contracts/SaverLogger.sol",
  "compiler": {
    "name": "solc",
    "version": "0.5.7+commit.6da8b019.Emscripten.clang"
  },
  "schemaVersion": "3.0.9",
  "updatedAt": "2019-08-13T11:10:46.944Z",
  "devdoc": {
    "methods": {}
  },
  "userdoc": {
    "methods": {}
  }
}