{
  "contractName": "SaverProxy",
  "abi": [
    {
      "constant": true,
      "inputs": [],
      "name": "WETH_ADDRESS",
      "outputs": [
        {
          "name": "",
          "type": "address"
        }
      ],
      "payable": false,
      "stateMutability": "view",
      "type": "function"
    },
    {
      "constant": true,
      "inputs": [],
      "name": "CDAI_ADDRESS",
      "outputs": [
        {
          "name": "",
          "type": "address"
        }
      ],
      "payable": false,
      "stateMutability": "view",
      "type": "function"
    },
    {
      "constant": true,
      "inputs": [],
      "name": "PIP_INTERFACE_ADDRESS",
      "outputs": [
        {
          "name": "",
          "type": "address"
        }
      ],
      "payable": false,
      "stateMutability": "view",
      "type": "function"
    },
    {
      "constant": true,
      "inputs": [],
      "name": "KYBER_ETH_ADDRESS",
      "outputs": [
        {
          "name": "",
          "type": "address"
        }
      ],
      "payable": false,
      "stateMutability": "view",
      "type": "function"
    },
    {
      "constant": true,
      "inputs": [],
      "name": "OTC_ADDRESS",
      "outputs": [
        {
          "name": "",
          "type": "address"
        }
      ],
      "payable": false,
      "stateMutability": "view",
      "type": "function"
    },
    {
      "constant": true,
      "inputs": [],
      "name": "IDAI_ADDRESS",
      "outputs": [
        {
          "name": "",
          "type": "address"
        }
      ],
      "payable": false,
      "stateMutability": "view",
      "type": "function"
    },
    {
      "constant": true,
      "inputs": [],
      "name": "GAS_TOKEN_INTERFACE_ADDRESS",
      "outputs": [
        {
          "name": "",
          "type": "address"
        }
      ],
      "payable": false,
      "stateMutability": "view",
      "type": "function"
    },
    {
      "constant": true,
      "inputs": [],
      "name": "VOX_ADDRESS",
      "outputs": [
        {
          "name": "",
          "type": "address"
        }
      ],
      "payable": false,
      "stateMutability": "view",
      "type": "function"
    },
    {
      "constant": true,
      "inputs": [],
      "name": "ETH2DAI_WRAPPER",
      "outputs": [
        {
          "name": "",
          "type": "address"
        }
      ],
      "payable": false,
      "stateMutability": "view",
      "type": "function"
    },
    {
      "constant": true,
      "inputs": [],
      "name": "STUPID_EXCHANGE",
      "outputs": [
        {
          "name": "",
          "type": "address"
        }
      ],
      "payable": false,
      "stateMutability": "view",
      "type": "function"
    },
    {
      "constant": true,
      "inputs": [],
      "name": "SERVICE_FEE",
      "outputs": [
        {
          "name": "",
          "type": "uint256"
        }
      ],
      "payable": false,
      "stateMutability": "view",
      "type": "function"
    },
    {
      "constant": true,
      "inputs": [],
      "name": "PROXY_REGISTRY_INTERFACE_ADDRESS",
      "outputs": [
        {
          "name": "",
          "type": "address"
        }
      ],
      "payable": false,
      "stateMutability": "view",
      "type": "function"
    },
    {
      "constant": true,
      "inputs": [],
      "name": "MKR_ADDRESS",
      "outputs": [
        {
          "name": "",
          "type": "address"
        }
      ],
      "payable": false,
      "stateMutability": "view",
      "type": "function"
    },
    {
      "constant": true,
      "inputs": [
        {
          "name": "_cup",
          "type": "bytes32"
        },
        {
          "name": "_amount",
          "type": "uint256"
        },
        {
          "name": "_minPrice",
          "type": "uint256"
        },
        {
          "name": "_borrowedAmount",
          "type": "uint256"
        }
      ],
      "name": "FACTORY_ADDRESS",
      "outputs": [
        {
          "name": "",
          "type": "address"
        }
      ],
      "payable": false,
      "stateMutability": "view",
      "type": "function"
    },
    {
      "constant": true,
      "inputs": [
        {
          "name": "_cup",
          "type": "bytes32"
        },
        {
          "name": "_amount",
          "type": "uint256"
        },
        {
          "name": "_minPrice",
          "type": "uint256"
        },
        {
          "name": "_borrowedAmount",
          "type": "uint256"
        }
      ],
      "name": "LOGGER_ADDRESS",
      "outputs": [
        {
          "name": "",
          "type": "address"
        }
      ],
      "payable": false,
      "stateMutability": "view",
      "type": "function"
    },
    {
      "constant": true,
      "inputs": [
        {
          "name": "_tub",
          "type": "address"
        },
        {
          "name": "_cup",
          "type": "bytes32"
        }
      ],
      "name": "MAKER_DAI_ADDRESS",
      "outputs": [
        {
          "name": "",
          "type": "address"
        }
      ],
      "payable": false,
      "stateMutability": "view",
      "type": "function"
    },
    {
      "constant": true,
      "inputs": [
        {
          "name": "_tub",
          "type": "address"
        },
        {
          "name": "_cup",
          "type": "bytes32"
        }
      ],
      "name": "KYBER_WRAPPER",
      "outputs": [
        {
          "name": "",
          "type": "address"
        }
      ],
      "payable": false,
      "stateMutability": "view",
      "type": "function"
    },
    {
      "constant": true,
      "inputs": [
        {
          "name": "_tub",
          "type": "address"
        },
        {
          "name": "_cup",
          "type": "bytes32"
        },
        {
          "name": "_daiRepay",
          "type": "uint256"
        }
      ],
      "name": "COMPOUND_DAI_ADDRESS",
      "outputs": [
        {
          "name": "",
          "type": "address"
        }
      ],
      "payable": false,
      "stateMutability": "view",
      "type": "function"
    },
    {
      "constant": true,
      "inputs": [],
      "name": "UNISWAP_FACTORY",
      "outputs": [
        {
          "name": "",
          "type": "address"
        }
      ],
      "payable": false,
      "stateMutability": "view",
      "type": "function"
    },
    {
      "constant": true,
      "inputs": [],
      "name": "PETH_ADDRESS",
      "outputs": [
        {
          "name": "",
          "type": "address"
        }
      ],
      "payable": false,
      "stateMutability": "view",
      "type": "function"
    },
    {
      "constant": true,
      "inputs": [],
      "name": "KYBER_INTERFACE",
      "outputs": [
        {
          "name": "",
          "type": "address"
        }
      ],
      "payable": false,
      "stateMutability": "view",
      "type": "function"
    },
    {
      "constant": true,
      "inputs": [],
      "name": "WALLET_ID",
      "outputs": [
        {
          "name": "",
          "type": "address"
        }
      ],
      "payable": false,
      "stateMutability": "view",
      "type": "function"
    },
    {
      "constant": true,
      "inputs": [],
      "name": "SOLO_MARGIN_ADDRESS",
      "outputs": [
        {
          "name": "",
          "type": "address"
        }
      ],
      "payable": false,
      "stateMutability": "view",
      "type": "function"
    },
    {
      "constant": true,
      "inputs": [],
      "name": "UNISWAP_WRAPPER",
      "outputs": [
        {
          "name": "",
          "type": "address"
        }
      ],
      "payable": false,
      "stateMutability": "view",
      "type": "function"
    },
    {
      "constant": true,
      "inputs": [],
      "name": "TUB_ADDRESS",
      "outputs": [
        {
          "name": "",
          "type": "address"
        }
      ],
      "payable": false,
      "stateMutability": "view",
      "type": "function"
    },
    {
      "constant": false,
      "inputs": [
        {
          "name": "_cup",
          "type": "bytes32"
        },
        {
          "name": "_amount",
          "type": "uint256"
        },
        {
          "name": "_minPrice",
          "type": "uint256"
        },
        {
          "name": "_exchangeType",
          "type": "uint256"
        }
      ],
      "name": "repay",
      "outputs": [
        {
          "name": "",
          "type": "address"
        }
      ],
      "payable": false,
      "stateMutability": "nonpayable",
      "type": "function"
    },
    {
      "constant": false,
      "inputs": [
        {
          "name": "_cup",
          "type": "bytes32"
        },
        {
          "name": "_amount",
          "type": "uint256"
        },
        {
          "name": "_minPrice",
          "type": "uint256"
        },
        {
          "name": "_exchangeType",
          "type": "uint256"
        }
      ],
      "name": "boost",
      "outputs": [],
      "payable": false,
      "stateMutability": "nonpayable",
      "type": "function"
    },
    {
      "constant": false,
      "inputs": [
        {
          "name": "_tub",
          "type": "address"
        },
        {
          "name": "_cup",
          "type": "bytes32"
        },
        {
          "name": "_minPrice",
          "type": "uint256"
        },
        {
          "name": "_borrowedAmount",
          "type": "uint256"
        }
      ],
      "name": "maxFreeCollateral",
      "outputs": [
        {
          "name": "",
          "type": "uint256"
        }
      ],
      "payable": false,
      "stateMutability": "nonpayable",
      "type": "function"
    },
    {
      "constant": false,
      "inputs": [
        {
          "name": "_tub",
          "type": "address"
        },
        {
          "name": "_cup",
          "type": "bytes32"
        }
      ],
      "name": "maxFreeDai",
      "outputs": [
        {
          "name": "",
          "type": "uint256"
        }
      ],
      "payable": false,
      "stateMutability": "nonpayable",
      "type": "function"
    },
    {
      "constant": false,
      "inputs": [
        {
          "name": "_tub",
          "type": "address"
        },
        {
          "name": "_cup",
          "type": "bytes32"
        },
        {
          "name": "_daiRepay",
          "type": "uint256"
        }
      ],
      "name": "stabilityFeeInMkr",
      "outputs": [
        {
          "name": "",
          "type": "uint256"
        }
      ],
      "payable": false,
      "stateMutability": "nonpayable",
      "type": "function"
    },
    {
      "constant": false,
      "inputs": [
        {
          "name": "_amount",
          "type": "uint256"
        },
        {
          "name": "_srcToken",
          "type": "address"
        },
        {
          "name": "_destToken",
          "type": "address"
        },
        {
          "name": "_exchangeType",
          "type": "uint256"
        }
      ],
      "name": "getBestPrice",
      "outputs": [
        {
          "name": "",
          "type": "address"
        },
        {
          "name": "",
          "type": "uint256"
        }
      ],
      "payable": false,
      "stateMutability": "nonpayable",
      "type": "function"
    },
    {
      "constant": false,
      "inputs": [
        {
          "name": "_amount",
          "type": "uint256"
        },
        {
          "name": "_srcToken",
          "type": "address"
        },
        {
          "name": "_destToken",
          "type": "address"
        },
        {
          "name": "_exchangeType",
          "type": "uint256"
        }
      ],
      "name": "getBestPrice",
      "outputs": [
        {
          "name": "",
          "type": "address"
        },
        {
          "name": "",
          "type": "uint256"
        }
      ],
      "payable": false,
      "stateMutability": "nonpayable",
      "type": "function"
    }
  ],
  "bytecode": "0x608060405234801561001057600080fd5b50613207806100206000396000f3fe608060405234801561001057600080fd5b50600436106101e55760003560e01c8063730fd6801161010f578063c74c0fac116100a2578063d3661fa511610071578063d3661fa514610a57578063d36b907d14610aa1578063ddaa293c14610aeb578063f0d405e514610b35576101e5565b8063c74c0fac14610917578063c9fde27014610961578063ce9bde1d146109ab578063d325a2c1146109f5576101e5565b80639da779e9116100de5780639da779e9146107cd578063b175afa114610817578063c16921b714610861578063c387fd86146108ab576101e5565b8063730fd6801461068d578063825ffd92146106ef5780638823151b1461073957806394bfbe7414610783576101e5565b806332ac5cd211610187578063502237d711610156578063502237d71461058f57806350c86de5146105d957806367dc7736146105f7578063728c009214610643576101e5565b806332ac5cd21461046557806336e6da11146104af57806343fb75e8146104f95780634c3e49f014610543576101e5565b806329f7fc9e116101c357806329f7fc9e146102c85780632a441f05146103125780632d5eeb3f1461035c5780632ec1f009146103a6576101e5565b8063040141e5146101ea5780630531b2ad146102345780631dab52b01461027e575b600080fd5b6101f2610b7f565b604051808273ffffffffffffffffffffffffffffffffffffffff1673ffffffffffffffffffffffffffffffffffffffff16815260200191505060405180910390f35b61023c610b97565b604051808273ffffffffffffffffffffffffffffffffffffffff1673ffffffffffffffffffffffffffffffffffffffff16815260200191505060405180910390f35b610286610baf565b604051808273ffffffffffffffffffffffffffffffffffffffff1673ffffffffffffffffffffffffffffffffffffffff16815260200191505060405180910390f35b6102d0610bc7565b604051808273ffffffffffffffffffffffffffffffffffffffff1673ffffffffffffffffffffffffffffffffffffffff16815260200191505060405180910390f35b61031a610bdf565b604051808273ffffffffffffffffffffffffffffffffffffffff1673ffffffffffffffffffffffffffffffffffffffff16815260200191505060405180910390f35b610364610bf7565b604051808273ffffffffffffffffffffffffffffffffffffffff1673ffffffffffffffffffffffffffffffffffffffff16815260200191505060405180910390f35b61041c600480360360808110156103bc57600080fd5b8101908080359060200190929190803573ffffffffffffffffffffffffffffffffffffffff169060200190929190803573ffffffffffffffffffffffffffffffffffffffff16906020019092919080359060200190929190505050610c0f565b604051808373ffffffffffffffffffffffffffffffffffffffff1673ffffffffffffffffffffffffffffffffffffffff1681526020018281526020019250505060405180910390f35b61046d610f80565b604051808273ffffffffffffffffffffffffffffffffffffffff1673ffffffffffffffffffffffffffffffffffffffff16815260200191505060405180910390f35b6104b7610f93565b604051808273ffffffffffffffffffffffffffffffffffffffff1673ffffffffffffffffffffffffffffffffffffffff16815260200191505060405180910390f35b610501610fab565b604051808273ffffffffffffffffffffffffffffffffffffffff1673ffffffffffffffffffffffffffffffffffffffff16815260200191505060405180910390f35b61058d6004803603608081101561055957600080fd5b8101908080359060200190929190803590602001909291908035906020019092919080359060200190929190505050610fc3565b005b610597611689565b604051808273ffffffffffffffffffffffffffffffffffffffff1673ffffffffffffffffffffffffffffffffffffffff16815260200191505060405180910390f35b6105e16116a1565b6040518082815260200191505060405180910390f35b6106416004803603608081101561060d57600080fd5b81019080803590602001909291908035906020019092919080359060200190929190803590602001909291905050506116a7565b005b61064b6119f1565b604051808273ffffffffffffffffffffffffffffffffffffffff1673ffffffffffffffffffffffffffffffffffffffff16815260200191505060405180910390f35b6106d9600480360360408110156106a357600080fd5b81019080803573ffffffffffffffffffffffffffffffffffffffff16906020019092919080359060200190929190505050611a09565b6040518082815260200191505060405180910390f35b6106f7611c61565b604051808273ffffffffffffffffffffffffffffffffffffffff1673ffffffffffffffffffffffffffffffffffffffff16815260200191505060405180910390f35b610741611c79565b604051808273ffffffffffffffffffffffffffffffffffffffff1673ffffffffffffffffffffffffffffffffffffffff16815260200191505060405180910390f35b61078b611c91565b604051808273ffffffffffffffffffffffffffffffffffffffff1673ffffffffffffffffffffffffffffffffffffffff16815260200191505060405180910390f35b6107d5611ca9565b604051808273ffffffffffffffffffffffffffffffffffffffff1673ffffffffffffffffffffffffffffffffffffffff16815260200191505060405180910390f35b61081f611cc1565b604051808273ffffffffffffffffffffffffffffffffffffffff1673ffffffffffffffffffffffffffffffffffffffff16815260200191505060405180910390f35b610869611cd9565b604051808273ffffffffffffffffffffffffffffffffffffffff1673ffffffffffffffffffffffffffffffffffffffff16815260200191505060405180910390f35b610901600480360360608110156108c157600080fd5b81019080803573ffffffffffffffffffffffffffffffffffffffff1690602001909291908035906020019092919080359060200190929190505050611cf1565b6040518082815260200191505060405180910390f35b61091f611f55565b604051808273ffffffffffffffffffffffffffffffffffffffff1673ffffffffffffffffffffffffffffffffffffffff16815260200191505060405180910390f35b610969611f6d565b604051808273ffffffffffffffffffffffffffffffffffffffff1673ffffffffffffffffffffffffffffffffffffffff16815260200191505060405180910390f35b6109b3611f85565b604051808273ffffffffffffffffffffffffffffffffffffffff1673ffffffffffffffffffffffffffffffffffffffff16815260200191505060405180910390f35b610a4160048036036040811015610a0b57600080fd5b81019080803573ffffffffffffffffffffffffffffffffffffffff16906020019092919080359060200190929190505050611f9d565b6040518082815260200191505060405180910390f35b610a5f612294565b604051808273ffffffffffffffffffffffffffffffffffffffff1673ffffffffffffffffffffffffffffffffffffffff16815260200191505060405180910390f35b610aa96122ac565b604051808273ffffffffffffffffffffffffffffffffffffffff1673ffffffffffffffffffffffffffffffffffffffff16815260200191505060405180910390f35b610af36122c4565b604051808273ffffffffffffffffffffffffffffffffffffffff1673ffffffffffffffffffffffffffffffffffffffff16815260200191505060405180910390f35b610b3d6122dc565b604051808273ffffffffffffffffffffffffffffffffffffffff1673ffffffffffffffffffffffffffffffffffffffff16815260200191505060405180910390f35b73d0a1e359811322d97991e03f863a0c30c2cf029c81565b73b6b09fbffba6a5c4631e5f7b2e3ee183ac259c0d81565b73a944bd4b25c9f186a846fd5668941aa3d3b8425f81565b73eeeeeeeeeeeeeeeeeeeeeeeeeeeeeeeeeeeeeeee81565b734a6bc4e803c62081ffebcc8d227b5a87a58f1f8f81565b73b6b09fbffba6a5c4631e5f7b2e3ee183ac259c0d81565b600080600080905060008090506000809050735595930d576aedf13945c83ce5aad827529a131073ffffffffffffffffffffffffffffffffffffffff1663809a9e5589898c6040518463ffffffff1660e01b8152600401808473ffffffffffffffffffffffffffffffffffffffff1673ffffffffffffffffffffffffffffffffffffffff1681526020018373ffffffffffffffffffffffffffffffffffffffff1673ffffffffffffffffffffffffffffffffffffffff1681526020018281526020019350505050604080518083038186803b158015610ced57600080fd5b505afa158015610d01573d6000803e3d6000fd5b505050506040513d6040811015610d1757600080fd5b8101908080519060200190929190805190602001909291905050505080935050735595930d576aedf13945c83ce5aad827529a131073ffffffffffffffffffffffffffffffffffffffff1663809a9e5589898c6040518463ffffffff1660e01b8152600401808473ffffffffffffffffffffffffffffffffffffffff1673ffffffffffffffffffffffffffffffffffffffff1681526020018373ffffffffffffffffffffffffffffffffffffffff1673ffffffffffffffffffffffffffffffffffffffff1681526020018281526020019350505050604080518083038186803b158015610e0357600080fd5b505afa158015610e17573d6000803e3d6000fd5b505050506040513d6040811015610e2d57600080fd5b81019080805190602001909291908051906020019092919050505050809250506001861415610e785773823cde416973a19f98bb9c96d97f4fe6c9a7238b8194509450505050610f77565b6002861415610ea357735595930d576aedf13945c83ce5aad827529a13108394509450505050610f77565b6003861415610ece57735595930d576aedf13945c83ce5aad827529a13108294509450505050610f77565b828110158015610ede5750818110155b15610f055773823cde416973a19f98bb9c96d97f4fe6c9a7238b8194509450505050610f77565b818310158015610f155750808310155b15610f3c57735595930d576aedf13945c83ce5aad827529a13108394509450505050610f77565b828210158015610f4c5750808210155b15610f7357735595930d576aedf13945c83ce5aad827529a13108294509450505050610f77565b5050505b94509492505050565b6e170ccc93903185be5a2094c870df6281565b73bb4339c0ab5b1d9f14bd6e3426444a1e9d86a1d981565b73823cde416973a19f98bb9c96d97f4fe6c9a7238b81565b600080610ffa8573eeeeeeeeeeeeeeeeeeeeeeeeeeeeeeeeeeeeeeee73c4375b7de8af5a38a93548eb8453a498222c4ff286610c0f565b8092508193505050838111611077576040517f08c379a000000000000000000000000000000000000000000000000000000000815260040180806020018281038252600b8152602001807f536c70706167652068697400000000000000000000000000000000000000000081525060200191505060405180910390fd5b600073a71937147b55deb8a530c7229c442fd3f31b7db290506110ad73c4375b7de8af5a38a93548eb8453a498222c4ff26122f4565b6110ca73aaf64bfcc32d0f15873a02163e7e500671a4ffcd6122f4565b6110e773f4d791139ce033ad35db2b2201435fad668b1b646122f4565b61110473d0a1e359811322d97991e03f863a0c30c2cf029c6122f4565b6000611110828961250c565b905061111c8289611f9d565b8711156111305761112d8289611f9d565b96505b61113b8289896126d6565b60006111478885612937565b90506000611155848b612977565b90506000611178858c61117386610190888161116d57fe5b04612a37565b611cf1565b9050818311156111905761118d858c84611cf1565b90505b60006111a48261119f8d612a51565b612b96565b90506000735595930d576aedf13945c83ce5aad827529a131073ffffffffffffffffffffffffffffffffffffffff166343ac1dc6838473aaf64bfcc32d0f15873a02163e7e500671a4ffcd876040518563ffffffff1660e01b8152600401808481526020018373ffffffffffffffffffffffffffffffffffffffff1673ffffffffffffffffffffffffffffffffffffffff168152602001828152602001935050505060408051808303818588803b15801561125e57600080fd5b505af1158015611272573d6000803e3d6000fd5b50505050506040513d604081101561128957600080fd5b8101908080519060200190929190805190602001909291905050509050809150506112bd8c6112b88484612a37565b612a37565b9b508873ffffffffffffffffffffffffffffffffffffffff166343ac1dc68d8e73c4375b7de8af5a38a93548eb8453a498222c4ff27fffffffffffffffffffffffffffffffffffffffffffffffffffffffffffffffff6040518563ffffffff1660e01b8152600401808481526020018373ffffffffffffffffffffffffffffffffffffffff1673ffffffffffffffffffffffffffffffffffffffff168152602001828152602001935050505060408051808303818588803b15801561138157600080fd5b505af1158015611395573d6000803e3d6000fd5b50505050506040513d60408110156113ac57600080fd5b81019080805190602001909291908051906020019092919050505050809550506113de856113d987612bce565b612a37565b945083851115611540578673ffffffffffffffffffffffffffffffffffffffff166373b381018e866040518363ffffffff1660e01b81526004018083815260200182815260200192505050600060405180830381600087803b15801561144357600080fd5b505af1158015611457573d6000803e3d6000fd5b5050505073c4375b7de8af5a38a93548eb8453a498222c4ff273ffffffffffffffffffffffffffffffffffffffff1663a9059cbb336114968888612a37565b6040518363ffffffff1660e01b8152600401808373ffffffffffffffffffffffffffffffffffffffff1673ffffffffffffffffffffffffffffffffffffffff16815260200182815260200192505050602060405180830381600087803b1580156114ff57600080fd5b505af1158015611513573d6000803e3d6000fd5b505050506040513d602081101561152957600080fd5b8101908080519060200190929190505050506115b4565b8673ffffffffffffffffffffffffffffffffffffffff166373b381018e876040518363ffffffff1660e01b81526004018083815260200182815260200192505050600060405180830381600087803b15801561159b57600080fd5b505af11580156115af573d6000803e3d6000fd5b505050505b7332d0e18f988f952eb3524ace762042381a2c39e573ffffffffffffffffffffffffffffffffffffffff1663406bb32a8e60001c338f896040518563ffffffff1660e01b8152600401808581526020018473ffffffffffffffffffffffffffffffffffffffff1673ffffffffffffffffffffffffffffffffffffffff168152602001838152602001828152602001945050505050600060405180830381600087803b15801561166257600080fd5b505af1158015611676573d6000803e3d6000fd5b5050505050505050505050505050505050565b73863e41fe88288ebf3fcd91d8dbb679fb83fdfe1781565b61019081565b6000806116de8573c4375b7de8af5a38a93548eb8453a498222c4ff273eeeeeeeeeeeeeeeeeeeeeeeeeeeeeeeeeeeeeeee86610c0f565b8092508193505050836116f9670de0b6b3a764000083612b96565b1061176c576040517f08c379a000000000000000000000000000000000000000000000000000000000815260040180806020018281038252600c8152602001807f536c69707061676520686974000000000000000000000000000000000000000081525060200191505060405180910390fd5b600073a71937147b55deb8a530c7229c442fd3f31b7db290506117a273d0a1e359811322d97991e03f863a0c30c2cf029c6122f4565b6117bf73f4d791139ce033ad35db2b2201435fad668b1b646122f4565b6117dc73c4375b7de8af5a38a93548eb8453a498222c4ff26122f4565b60006117e88289611a09565b9050808711156117f6578096505b60008273ffffffffffffffffffffffffffffffffffffffff16631f3634ed8a6040518263ffffffff1660e01b815260040180828152602001915050602060405180830381600087803b15801561184b57600080fd5b505af115801561185f573d6000803e3d6000fd5b505050506040513d602081101561187557600080fd5b810190808051906020019092919050505090508273ffffffffffffffffffffffffffffffffffffffff1663440f19ba8a8a6040518363ffffffff1660e01b81526004018083815260200182815260200192505050600060405180830381600087803b1580156118e357600080fd5b505af11580156118f7573d6000803e3d6000fd5b5050505061190d886119088a612bce565b612a37565b9750600061191d848b8b89612cce565b90507332d0e18f988f952eb3524ace762042381a2c39e573ffffffffffffffffffffffffffffffffffffffff1663687710058b60001c338c856040518563ffffffff1660e01b8152600401808581526020018473ffffffffffffffffffffffffffffffffffffffff1673ffffffffffffffffffffffffffffffffffffffff168152602001838152602001828152602001945050505050600060405180830381600087803b1580156119cd57600080fd5b505af11580156119e1573d6000803e3d6000fd5b5050505050505050505050505050565b7364a436ae831c1672ae81f674cab8b6775df3475c81565b60006001611c58611bc5611b2c8673ffffffffffffffffffffffffffffffffffffffff16631f3634ed876040518263ffffffff1660e01b815260040180828152602001915050602060405180830381600087803b158015611a6957600080fd5b505af1158015611a7d573d6000803e3d6000fd5b505050506040513d6020811015611a9357600080fd5b81019080805190602001909291905050508773ffffffffffffffffffffffffffffffffffffffff166351f910666040518163ffffffff1660e01b8152600401602060405180830381600087803b158015611aec57600080fd5b505af1158015611b00573d6000803e3d6000fd5b505050506040513d6020811015611b1657600080fd5b8101908080519060200190929190505050613111565b611bc08773ffffffffffffffffffffffffffffffffffffffff1663ab0783da6040518163ffffffff1660e01b8152600401602060405180830381600087803b158015611b7757600080fd5b505af1158015611b8b573d6000803e3d6000fd5b505050506040513d6020811015611ba157600080fd5b8101908080519060200190929190505050670de0b6b3a7640000613111565b612b96565b8573ffffffffffffffffffffffffffffffffffffffff1663f7c8d634866040518263ffffffff1660e01b815260040180828152602001915050602060405180830381600087803b158015611c1857600080fd5b505af1158015611c2c573d6000803e3d6000fd5b505050506040513d6020811015611c4257600080fd5b8101908080519060200190929190505050612a37565b03905092915050565b73aaf64bfcc32d0f15873a02163e7e500671a4ffcd81565b73c72e74e474682680a414b506699bbca44ab9a93081565b7332d0e18f988f952eb3524ace762042381a2c39e581565b73c4375b7de8af5a38a93548eb8453a498222c4ff281565b735595930d576aedf13945c83ce5aad827529a131081565b7325a01a05c188dacbcf1d61af55d4a5b4021f7eed81565b600080600080611e2485611e1f8973ffffffffffffffffffffffffffffffffffffffff16636f78ee0d8a6040518263ffffffff1660e01b815260040180828152602001915050602060405180830381600087803b158015611d5157600080fd5b505af1158015611d65573d6000803e3d6000fd5b505050506040513d6020811015611d7b57600080fd5b81019080805190602001909291905050508a73ffffffffffffffffffffffffffffffffffffffff1663f7c8d6348b6040518263ffffffff1660e01b815260040180828152602001915050602060405180830381600087803b158015611ddf57600080fd5b505af1158015611df3573d6000803e3d6000fd5b505050506040513d6020811015611e0957600080fd5b8101908080519060200190929190505050613159565b613111565b90508673ffffffffffffffffffffffffffffffffffffffff1663ace237f56040518163ffffffff1660e01b8152600401602060405180830381600087803b158015611e6e57600080fd5b505af1158015611e82573d6000803e3d6000fd5b505050506040513d6020811015611e9857600080fd5b810190808051906020019092919050505073ffffffffffffffffffffffffffffffffffffffff166359e02dd76040518163ffffffff1660e01b81526004016040805180830381600087803b158015611eef57600080fd5b505af1158015611f03573d6000803e3d6000fd5b505050506040513d6040811015611f1957600080fd5b8101908080519060200190929190805190602001909291905050508093508194505050611f49818460001c612b96565b93505050509392505050565b73f5d915570bc477f9b8d6c0e980aa81757a3aac3681565b73f4d791139ce033ad35db2b2201435fad668b1b6481565b73692f391bcc85cefce8c237c01e1f636bbd70ea4d81565b6000600161228b8473ffffffffffffffffffffffffffffffffffffffff16631f3634ed856040518263ffffffff1660e01b815260040180828152602001915050602060405180830381600087803b158015611ff757600080fd5b505af115801561200b573d6000803e3d6000fd5b505050506040513d602081101561202157600080fd5b81019080805190602001909291905050506122866121fe6121628873ffffffffffffffffffffffffffffffffffffffff1663f7c8d634896040518263ffffffff1660e01b815260040180828152602001915050602060405180830381600087803b15801561208e57600080fd5b505af11580156120a2573d6000803e3d6000fd5b505050506040513d60208110156120b857600080fd5b810190808051906020019092919050505061215d8a73ffffffffffffffffffffffffffffffffffffffff1663ab0783da6040518163ffffffff1660e01b8152600401602060405180830381600087803b15801561211457600080fd5b505af1158015612128573d6000803e3d6000fd5b505050506040513d602081101561213e57600080fd5b8101908080519060200190929190505050670de0b6b3a7640000613111565b612937565b73bb4339c0ab5b1d9f14bd6e3426444a1e9d86a1d973ffffffffffffffffffffffffffffffffffffffff1663495d32cb6040518163ffffffff1660e01b8152600401602060405180830381600087803b1580156121be57600080fd5b505af11580156121d2573d6000803e3d6000fd5b505050506040513d60208110156121e857600080fd5b8101908080519060200190929190505050612937565b8773ffffffffffffffffffffffffffffffffffffffff166351f910666040518163ffffffff1660e01b8152600401602060405180830381600087803b15801561224657600080fd5b505af115801561225a573d6000803e3d6000fd5b505050506040513d602081101561227057600080fd5b8101908080519060200190929190505050612b96565b612a37565b03905092915050565b7354b44c6b18fc0b4a1010b21d524c338d1f8065f681565b734ec3570cadaaee08ae384779b0f3a45ef85289de81565b735595930d576aedf13945c83ce5aad827529a131081565b73a71937147b55deb8a530c7229c442fd3f31b7db281565b60027fffffffffffffffffffffffffffffffffffffffffffffffffffffffffffffffff8161231e57fe5b048173ffffffffffffffffffffffffffffffffffffffff1663dd62ed3e33846040518363ffffffff1660e01b8152600401808373ffffffffffffffffffffffffffffffffffffffff1673ffffffffffffffffffffffffffffffffffffffff1681526020018273ffffffffffffffffffffffffffffffffffffffff1673ffffffffffffffffffffffffffffffffffffffff1681526020019250505060206040518083038186803b1580156123d057600080fd5b505afa1580156123e4573d6000803e3d6000fd5b505050506040513d60208110156123fa57600080fd5b81019080805190602001909291905050501015612509578073ffffffffffffffffffffffffffffffffffffffff1663095ea7b373a71937147b55deb8a530c7229c442fd3f31b7db27fffffffffffffffffffffffffffffffffffffffffffffffffffffffffffffffff6040518363ffffffff1660e01b8152600401808373ffffffffffffffffffffffffffffffffffffffff1673ffffffffffffffffffffffffffffffffffffffff16815260200182815260200192505050602060405180830381600087803b1580156124cc57600080fd5b505af11580156124e0573d6000803e3d6000fd5b505050506040513d60208110156124f657600080fd5b8101908080519060200190929190505050505b50565b60006126ce61263b61262d8573ffffffffffffffffffffffffffffffffffffffff16631f3634ed866040518263ffffffff1660e01b815260040180828152602001915050602060405180830381600087803b15801561256a57600080fd5b505af115801561257e573d6000803e3d6000fd5b505050506040513d602081101561259457600080fd5b81019080805190602001909291905050508673ffffffffffffffffffffffffffffffffffffffff166351f910666040518163ffffffff1660e01b8152600401602060405180830381600087803b1580156125ed57600080fd5b505af1158015612601573d6000803e3d6000fd5b505050506040513d602081101561261757600080fd5b8101908080519060200190929190505050613111565b670de0b6b3a7640000613111565b8473ffffffffffffffffffffffffffffffffffffffff1663f7c8d634856040518263ffffffff1660e01b815260040180828152602001915050602060405180830381600087803b15801561268e57600080fd5b505af11580156126a2573d6000803e3d6000fd5b505050506040513d60208110156126b857600080fd5b8101908080519060200190929190505050612b96565b905092915050565b6000612764828573ffffffffffffffffffffffffffffffffffffffff16637ec9c3b86040518163ffffffff1660e01b8152600401602060405180830381600087803b15801561272457600080fd5b505af1158015612738573d6000803e3d6000fd5b505050506040513d602081101561274e57600080fd5b8101908080519060200190929190505050613159565b90508373ffffffffffffffffffffffffffffffffffffffff1663a5cd184e84836040518363ffffffff1660e01b81526004018083815260200182815260200192505050600060405180830381600087803b1580156127c157600080fd5b505af11580156127d5573d6000803e3d6000fd5b505050508373ffffffffffffffffffffffffffffffffffffffff16637f8661a1826040518263ffffffff1660e01b815260040180828152602001915050600060405180830381600087803b15801561282c57600080fd5b505af1158015612840573d6000803e3d6000fd5b505050508373ffffffffffffffffffffffffffffffffffffffff16637bd2bea76040518163ffffffff1660e01b8152600401602060405180830381600087803b15801561288c57600080fd5b505af11580156128a0573d6000803e3d6000fd5b505050506040513d60208110156128b657600080fd5b810190808051906020019092919050505073ffffffffffffffffffffffffffffffffffffffff16632e1a7d4d836040518263ffffffff1660e01b815260040180828152602001915050600060405180830381600087803b15801561291957600080fd5b505af115801561292d573d6000803e3d6000fd5b5050505050505050565b6000670de0b6b3a764000061296761294f8585613195565b6002670de0b6b3a76400008161296157fe5b046131c1565b8161296e57fe5b04905092915050565b60008273ffffffffffffffffffffffffffffffffffffffff1663fdac0025836040518263ffffffff1660e01b815260040180828152602001915050608060405180830381600087803b1580156129cc57600080fd5b505af11580156129e0573d6000803e3d6000fd5b505050506040513d60808110156129f657600080fd5b810190808051906020019092919080519060200190929190805190602001909291908051906020019092919050505090919250909150508091505092915050565b6000828284039150811115612a4b57600080fd5b92915050565b6000735595930d576aedf13945c83ce5aad827529a131073ffffffffffffffffffffffffffffffffffffffff1663809a9e5573eeeeeeeeeeeeeeeeeeeeeeeeeeeeeeeeeeeeeeee73aaf64bfcc32d0f15873a02163e7e500671a4ffcd856040518463ffffffff1660e01b8152600401808473ffffffffffffffffffffffffffffffffffffffff1673ffffffffffffffffffffffffffffffffffffffff1681526020018373ffffffffffffffffffffffffffffffffffffffff1673ffffffffffffffffffffffffffffffffffffffff1681526020018281526020019350505050604080518083038186803b158015612b4757600080fd5b505afa158015612b5b573d6000803e3d6000fd5b505050506040513d6040811015612b7157600080fd5b8101908080519060200190929190805190602001909291905050505080915050919050565b600081612bbe612bae85670de0b6b3a7640000613195565b60028581612bb857fe5b046131c1565b81612bc557fe5b04905092915050565b60006101908281612bdb57fe5b04905073c4375b7de8af5a38a93548eb8453a498222c4ff273ffffffffffffffffffffffffffffffffffffffff1663a9059cbb7354b44c6b18fc0b4a1010b21d524c338d1f8065f6836040518363ffffffff1660e01b8152600401808373ffffffffffffffffffffffffffffffffffffffff1673ffffffffffffffffffffffffffffffffffffffff16815260200182815260200192505050602060405180830381600087803b158015612c8d57600080fd5b505af1158015612ca1573d6000803e3d6000fd5b505050506040513d6020811015612cb757600080fd5b810190808051906020019092919050505050919050565b600073c4375b7de8af5a38a93548eb8453a498222c4ff273ffffffffffffffffffffffffffffffffffffffff1663a9059cbb83856040518363ffffffff1660e01b8152600401808373ffffffffffffffffffffffffffffffffffffffff1673ffffffffffffffffffffffffffffffffffffffff16815260200182815260200192505050602060405180830381600087803b158015612d6b57600080fd5b505af1158015612d7f573d6000803e3d6000fd5b505050506040513d6020811015612d9557600080fd5b81019080805190602001909291905050505060008273ffffffffffffffffffffffffffffffffffffffff16633bba21dc73c4375b7de8af5a38a93548eb8453a498222c4ff2867fffffffffffffffffffffffffffffffffffffffffffffffffffffffffffffffff6040518463ffffffff1660e01b8152600401808473ffffffffffffffffffffffffffffffffffffffff1673ffffffffffffffffffffffffffffffffffffffff1681526020018381526020018281526020019350505050602060405180830381600087803b158015612e6c57600080fd5b505af1158015612e80573d6000803e3d6000fd5b505050506040513d6020811015612e9657600080fd5b810190808051906020019092919050505090508573ffffffffffffffffffffffffffffffffffffffff16637bd2bea76040518163ffffffff1660e01b8152600401602060405180830381600087803b158015612ef157600080fd5b505af1158015612f05573d6000803e3d6000fd5b505050506040513d6020811015612f1b57600080fd5b810190808051906020019092919050505073ffffffffffffffffffffffffffffffffffffffff1663d0e30db0826040518263ffffffff1660e01b81526004016000604051808303818588803b158015612f7357600080fd5b505af1158015612f87573d6000803e3d6000fd5b5050505050600061302461301d838973ffffffffffffffffffffffffffffffffffffffff16637ec9c3b86040518163ffffffff1660e01b8152600401602060405180830381600087803b158015612fdd57600080fd5b505af1158015612ff1573d6000803e3d6000fd5b505050506040513d602081101561300757600080fd5b8101908080519060200190929190505050613159565b6001612a37565b90508673ffffffffffffffffffffffffffffffffffffffff1663049878f3826040518263ffffffff1660e01b815260040180828152602001915050600060405180830381600087803b15801561307957600080fd5b505af115801561308d573d6000803e3d6000fd5b505050508673ffffffffffffffffffffffffffffffffffffffff1663b3b77a5187836040518363ffffffff1660e01b81526004018083815260200182815260200192505050600060405180830381600087803b1580156130ec57600080fd5b505af1158015613100573d6000803e3d6000fd5b505050508192505050949350505050565b60006b033b2e3c9fd0803ce800000061314961312d8585613195565b60026b033b2e3c9fd0803ce80000008161314357fe5b046131c1565b8161315057fe5b04905092915050565b600081613185613175856b033b2e3c9fd0803ce8000000613195565b6002858161317f57fe5b046131c1565b8161318c57fe5b04905092915050565b6000808214806131b257508282838502925082816131af57fe5b04145b6131bb57600080fd5b92915050565b60008282840191508110156131d557600080fd5b9291505056fea165627a7a7230582002724c4a6e90b3fc0d4b32675f9c62c5124135ccb973df58f2fb04c88bc31a3a0029",
  "source": "pragma solidity ^0.5.0;\n\nimport \"./interfaces/TubInterface.sol\";\nimport \"./interfaces/ExchangeInterface.sol\";\nimport \"./DS/DSMath.sol\";\nimport \"./SaverLogger.sol\";\nimport \"./constants/ConstantAddresses.sol\";\n\n/// @title SaverProxy implements advanced dashboard features repay/boost\ncontract SaverProxy is DSMath, ConstantAddresses {\n\n    uint public constant SERVICE_FEE = 400; // 0.25% Fee\n\n    /// @notice Withdraws Eth collateral, swaps Eth -> Dai with Kyber, and pays back the debt in Dai\n    /// @dev If _buyMkr is false user needs to have MKR tokens and approve his DSProxy\n    /// @param _cup Id of the CDP\n    /// @param _amount Amount of Eth to sell\n    /// @param _minPrice Minimum acaptable ETH/DAI price\n    function repay(bytes32 _cup, uint _amount, uint _minPrice, uint _exchangeType) public {\n        address exchangeWrapper;\n        uint ethDaiPrice;\n\n        (exchangeWrapper, ethDaiPrice) = getBestPrice(_amount, KYBER_ETH_ADDRESS, MAKER_DAI_ADDRESS, _exchangeType);\n\n        require(ethDaiPrice > _minPrice, \"Slppage hit\");\n\n        TubInterface tub = TubInterface(TUB_ADDRESS);\n\n        approveTub(MAKER_DAI_ADDRESS);\n        approveTub(MKR_ADDRESS);\n        approveTub(PETH_ADDRESS);\n        approveTub(WETH_ADDRESS);\n\n        uint startingRatio = getRatio(tub, _cup);\n\n        if (_amount > maxFreeCollateral(tub, _cup)) {\n            _amount = maxFreeCollateral(tub, _cup);\n        }\n\n        withdrawEth(tub, _cup, _amount);\n\n        uint daiAmount = wmul(_amount, ethDaiPrice);\n        uint cdpWholeDebt = getDebt(tub, _cup);\n\n        uint mkrAmount = stabilityFeeInMkr(tub, _cup, sub(daiAmount, daiAmount / SERVICE_FEE));\n\n        if (daiAmount > cdpWholeDebt) {\n            mkrAmount = stabilityFeeInMkr(tub, _cup, cdpWholeDebt);\n        }\n\n        uint ethFee = wdiv(mkrAmount, estimatedMkrPrice(_amount));\n\n        uint change;\n        (, change) = ExchangeInterface(KYBER_WRAPPER).swapEtherToToken.\n                        value(ethFee)(ethFee, MKR_ADDRESS, mkrAmount);\n\n\n        _amount = sub(_amount, sub(ethFee, change));\n\n        (daiAmount, ) = ExchangeInterface(exchangeWrapper).swapEtherToToken.\n                            value(_amount)(_amount, MAKER_DAI_ADDRESS, uint(-1));\n\n         // Take a fee from the user in dai\n         daiAmount = sub(daiAmount, takeFee(daiAmount));\n\n        if (daiAmount > cdpWholeDebt) {\n            tub.wipe(_cup, cdpWholeDebt);\n            ERC20(MAKER_DAI_ADDRESS).transfer(msg.sender, sub(daiAmount, cdpWholeDebt));\n        } else {\n            tub.wipe(_cup, daiAmount);\n            // require(getRatio(tub, _cup) > startingRatio, \"ratio must be better off at the end\");\n        }\n\n        SaverLogger(LOGGER_ADDRESS).LogRepay(uint(_cup), msg.sender, _amount, daiAmount);\n    }\n\n    /// @notice Boost will draw Dai, swap Dai -> Eth on kyber, and add that Eth to the CDP\n    /// @dev Amount must be less then the max. amount available Dai to generate\n    /// @param _cup Id of the CDP\n    /// @param _amount Amount of Dai to sell\n    /// @param _minPrice Minimum acaptable ETH/DAI price\n    function boost(bytes32 _cup, uint _amount, uint _minPrice, uint _exchangeType) public {\n        address exchangeWrapper;\n        uint daiEthPrice;\n\n        (exchangeWrapper, daiEthPrice) = getBestPrice(_amount, MAKER_DAI_ADDRESS, KYBER_ETH_ADDRESS, _exchangeType);\n\n        require(wdiv(1000000000000000000, daiEthPrice) < _minPrice, \"Slippage hit\");\n\n        TubInterface tub = TubInterface(TUB_ADDRESS);\n\n        approveTub(WETH_ADDRESS);\n        approveTub(PETH_ADDRESS);\n        approveTub(MAKER_DAI_ADDRESS);\n\n        uint maxAmount = maxFreeDai(tub, _cup);\n\n        if (_amount > maxAmount) {\n            _amount = maxAmount;\n        }\n\n        uint startingCollateral = tub.ink(_cup);\n\n        tub.draw(_cup, _amount);\n\n        // Take a fee from the user in dai\n        _amount = sub(_amount, takeFee(_amount));\n\n        uint ethAmount = swapDaiAndLockEth(tub, _cup, _amount, exchangeWrapper);\n\n        // require(tub.ink(_cup) > startingCollateral, \"collateral must be bigger than starting point\");\n\n        SaverLogger(LOGGER_ADDRESS).LogBoost(uint(_cup), msg.sender, _amount, ethAmount);\n    }\n\n    /// @notice Max. amount of collateral available to withdraw\n    /// @param _tub Tub interface\n    /// @param _cup Id of the CDP\n    function maxFreeCollateral(TubInterface _tub, bytes32 _cup) public returns (uint) {\n        return sub(_tub.ink(_cup), wdiv(wmul(wmul(_tub.tab(_cup), rmul(_tub.mat(), WAD)),\n                VoxInterface(VOX_ADDRESS).par()), _tub.tag())) - 1;\n    }\n\n    /// @notice Max. amount of Dai available to generate\n    /// @param _tub Tub interface\n    /// @param _cup Id of the CDP\n    function maxFreeDai(TubInterface _tub, bytes32 _cup) public returns (uint) {\n        return sub(wdiv(rmul(_tub.ink(_cup), _tub.tag()), rmul(_tub.mat(), WAD)), _tub.tab(_cup)) - 1;\n    }\n\n    /// @notice Stability fee amount in Mkr\n    /// @param _tub Tub interface\n    /// @param _cup Id of the CDP\n    /// @param _daiRepay Amount of dai we are repaying\n    function stabilityFeeInMkr(TubInterface _tub, bytes32 _cup, uint _daiRepay) public returns (uint) {\n        bytes32 mkrPrice;\n        bool ok;\n\n        uint feeInDai = rmul(_daiRepay, rdiv(_tub.rap(_cup), _tub.tab(_cup)));\n\n        (mkrPrice, ok) = _tub.pep().peek();\n\n        return wdiv(feeInDai, uint(mkrPrice));\n    }\n\n    /// @notice Helper function which swaps Dai for Eth and adds the collateral to the CDP\n    /// @param _tub Tub interface\n    /// @param _cup Id of the CDP\n    /// @param _daiAmount Amount of Dai to swap for Eth\n    function swapDaiAndLockEth(TubInterface _tub, bytes32 _cup, uint _daiAmount, address _exchangeWrapper) internal returns(uint) {\n\n        ERC20(MAKER_DAI_ADDRESS).transfer(_exchangeWrapper, _daiAmount);\n\n        uint ethAmount = ExchangeInterface(_exchangeWrapper).swapTokenToEther(MAKER_DAI_ADDRESS, _daiAmount, uint(-1));\n\n        _tub.gem().deposit.value(ethAmount)();\n\n        uint ink = sub(rdiv(ethAmount, _tub.per()), 1);\n\n        _tub.join(ink);\n\n        _tub.lock(_cup, ink);\n\n        return ethAmount;\n    }\n\n    /// @notice Approve a token if it's not already approved\n    /// @param _tokenAddress Address of the ERC20 token we want to approve\n    function approveTub(address _tokenAddress) internal {\n        if (ERC20(_tokenAddress).allowance(msg.sender, _tokenAddress) < (uint(-1) / 2)) {\n            ERC20(_tokenAddress).approve(TUB_ADDRESS, uint(-1));\n        }\n    }\n\n    /// @notice Returns the current collaterlization ratio for the CDP\n    /// @param _tub Tub interface\n    /// @param _cup Id of the CDP\n    function getRatio(TubInterface _tub, bytes32 _cup) internal returns(uint) {\n        return (wdiv(rmul(rmul(_tub.ink(_cup), _tub.tag()), WAD), _tub.tab(_cup)));\n    }\n\n    /// @notice Helper function which withdraws collateral from CDP\n    /// @param _tub Tub interface\n    /// @param _cup Id of the CDP\n    /// @param _ethAmount Amount of Eth to withdraw\n    function withdrawEth(TubInterface _tub, bytes32 _cup, uint _ethAmount) internal {\n        uint ink = rdiv(_ethAmount, _tub.per());\n        _tub.free(_cup, ink);\n\n        _tub.exit(ink);\n        _tub.gem().withdraw(_ethAmount);\n    }\n\n    /// @notice Takes a feePercentage and sends it to wallet\n    /// @param _amount Dai amount of the whole trade\n    /// @return feeAmount Amount in Dai owner earned on the fee\n    function takeFee(uint _amount) internal returns (uint feeAmount) {\n        feeAmount = _amount / SERVICE_FEE;\n        ERC20(MAKER_DAI_ADDRESS).transfer(WALLET_ID, feeAmount);\n    }\n\n    /// @notice Returns the best estimated price from 2 exchanges\n    /// @param _amount Amount of source tokens you want to exchange\n    /// @param _srcToken Address of the source token\n    /// @param _destToken Address of the destination token\n    /// @return (address, uint) The address of the best exchange and the exchange price\n    function getBestPrice(uint _amount, address _srcToken, address _destToken, uint _exchangeType) public returns (address, uint) {\n        uint expectedRateKyber = 0;\n        uint expectedRateUniswap = 0;\n        uint expectedRateEth2Dai = 0;\n\n        (expectedRateKyber, ) = ExchangeInterface(KYBER_WRAPPER).getExpectedRate(_srcToken, _destToken, _amount);\n        (expectedRateUniswap, ) = ExchangeInterface(UNISWAP_WRAPPER).getExpectedRate(_srcToken, _destToken, _amount);\n        // (expectedRateEth2Dai, ) = ExchangeInterface(ETH2DAI_WRAPPER).getExpectedRate(_srcToken, _destToken, _amount);\n\n        if (_exchangeType == 1) {\n            return (ETH2DAI_WRAPPER, expectedRateEth2Dai);\n        }\n\n        if (_exchangeType == 2) {\n            return (KYBER_WRAPPER, expectedRateKyber);\n        }\n\n        if (_exchangeType == 3) {\n            return (UNISWAP_WRAPPER, expectedRateUniswap);\n        }\n\n        if ((expectedRateEth2Dai >= expectedRateKyber) && (expectedRateEth2Dai >= expectedRateUniswap)) {\n            return (ETH2DAI_WRAPPER, expectedRateEth2Dai);\n        }\n\n        if ((expectedRateKyber >= expectedRateUniswap) && (expectedRateKyber >= expectedRateEth2Dai)) {\n            return (KYBER_WRAPPER, expectedRateKyber);\n        }\n\n        if ((expectedRateUniswap >= expectedRateKyber) && (expectedRateUniswap >= expectedRateEth2Dai)) {\n            return (UNISWAP_WRAPPER, expectedRateUniswap);\n        }\n    }\n\n    /// @notice Returns expected rate for Eth -> Dai conversion\n    /// @param _amount Amount of Ether\n    function estimatedDaiPrice(uint _amount) internal returns (uint expectedRate) {\n        (expectedRate, ) = ExchangeInterface(KYBER_WRAPPER).getExpectedRate(KYBER_ETH_ADDRESS, MAKER_DAI_ADDRESS, _amount);\n    }\n\n    /// @notice Returns expected rate for Dai -> Eth conversion\n    /// @param _amount Amount of Dai\n    function estimatedEthPrice(uint _amount) internal returns (uint expectedRate) {\n        (expectedRate, ) = ExchangeInterface(KYBER_WRAPPER).getExpectedRate(MAKER_DAI_ADDRESS, KYBER_ETH_ADDRESS, _amount);\n    }\n\n    /// @notice Returns expected rate for Eth -> Mkr conversion\n    /// @param _amount Amount of Ether\n    function estimatedMkrPrice(uint _amount) internal returns (uint expectedRate) {\n        (expectedRate, ) = ExchangeInterface(KYBER_WRAPPER).getExpectedRate(KYBER_ETH_ADDRESS, MKR_ADDRESS, _amount);\n    }\n\n    /// @notice Returns current Dai debt of the CDP\n    /// @param _tub Tub interface\n    /// @param _cup Id of the CDP\n    function getDebt(TubInterface _tub, bytes32 _cup) internal returns (uint debt) {\n        ( , , debt, ) = _tub.cups(_cup);\n    }\n}\n",
  "sourcePath": "/Users/nikolaklipa/Decenter/defisaver/cdpsaver-contracts/contracts/SaverProxy.sol",
  "compiler": {
    "name": "solc",
    "version": "0.5.7+commit.6da8b019.Emscripten.clang"
  },
  "schemaVersion": "3.0.9",
  "updatedAt": "2019-08-12T14:47:38.992Z",
  "devdoc": {
    "methods": {
      "boost(bytes32,uint256,uint256,uint256)": {
        "details": "Amount must be less then the max. amount available Dai to generate",
        "params": {
          "_amount": "Amount of Dai to sell",
          "_cup": "Id of the CDP",
          "_minPrice": "Minimum acaptable ETH/DAI price"
        }
      },
      "maxFreeCollateral(address,bytes32)": {
        "params": {
          "_cup": "Id of the CDP",
          "_tub": "Tub interface"
        }
      },
      "maxFreeDai(address,bytes32)": {
        "params": {
          "_cup": "Id of the CDP",
          "_tub": "Tub interface"
        }
      },
      "repay(bytes32,uint256,uint256,uint256)": {
        "details": "If _buyMkr is false user needs to have MKR tokens and approve his DSProxy",
        "params": {
          "_amount": "Amount of Eth to sell",
          "_cup": "Id of the CDP",
          "_minPrice": "Minimum acaptable ETH/DAI price"
        }
      },
      "stabilityFeeInMkr(address,bytes32,uint256)": {
        "params": {
          "_cup": "Id of the CDP",
          "_daiRepay": "Amount of dai we are repaying",
          "_tub": "Tub interface"
        }
      },
      "getBestPrice(uint256,address,address,uint256)": {
        "params": {
          "_amount": "Amount of source tokens you want to exchange",
          "_destToken": "Address of the destination token",
          "_srcToken": "Address of the source token"
        },
        "return": "(address, uint) The address of the best exchange and the exchange price"
      }
    },
    "title": "SaverProxy implements advanced dashboard features repay/boost"
  },
  "userdoc": {
    "methods": {
      "boost(bytes32,uint256,uint256,uint256)": {
        "notice": "Boost will draw Dai, swap Dai -> Eth on kyber, and add that Eth to the CDP"
      },
      "maxFreeCollateral(address,bytes32)": {
        "notice": "Max. amount of collateral available to withdraw"
      },
      "maxFreeDai(address,bytes32)": {
        "notice": "Max. amount of Dai available to generate"
      },
      "repay(bytes32,uint256,uint256,uint256)": {
        "notice": "Withdraws Eth collateral, swaps Eth -> Dai with Kyber, and pays back the debt in Dai"
      },
      "stabilityFeeInMkr(address,bytes32,uint256)": {
        "notice": "Stability fee amount in Mkr"
      },
      "getBestPrice(uint256,address,address,uint256)": {
        "notice": "Returns the best estimated price from 2 exchanges"
      }
    }
  }
}