{
  "contractName": "SaverProxyMonitor",
  "abi": [
    {
      "constant": true,
      "inputs": [],
      "name": "WETH_ADDRESS",
      "outputs": [
        {
          "name": "",
          "type": "address"
        }
      ],
      "payable": false,
      "stateMutability": "view",
      "type": "function",
      "signature": "0x040141e5"
    },
    {
      "constant": true,
      "inputs": [],
      "name": "CDAI_ADDRESS",
      "outputs": [
        {
          "name": "",
          "type": "address"
        }
      ],
      "payable": false,
      "stateMutability": "view",
      "type": "function",
      "signature": "0x0531b2ad"
    },
    {
      "constant": true,
      "inputs": [],
      "name": "PIP_INTERFACE_ADDRESS",
      "outputs": [
        {
          "name": "",
          "type": "address"
        }
      ],
      "payable": false,
      "stateMutability": "view",
      "type": "function",
      "signature": "0x1dab52b0"
    },
    {
      "constant": true,
      "inputs": [],
      "name": "KYBER_ETH_ADDRESS",
      "outputs": [
        {
          "name": "",
          "type": "address"
        }
      ],
      "payable": false,
      "stateMutability": "view",
      "type": "function",
      "signature": "0x29f7fc9e"
    },
    {
      "constant": true,
      "inputs": [],
      "name": "OTC_ADDRESS",
      "outputs": [
        {
          "name": "",
          "type": "address"
        }
      ],
      "payable": false,
      "stateMutability": "view",
      "type": "function",
      "signature": "0x2a441f05"
    },
    {
      "constant": true,
      "inputs": [],
      "name": "IDAI_ADDRESS",
      "outputs": [
        {
          "name": "",
          "type": "address"
        }
      ],
      "payable": false,
      "stateMutability": "view",
      "type": "function",
      "signature": "0x2d5eeb3f"
    },
    {
      "constant": true,
      "inputs": [],
      "name": "GAS_TOKEN_INTERFACE_ADDRESS",
      "outputs": [
        {
          "name": "",
          "type": "address"
        }
      ],
      "payable": false,
      "stateMutability": "view",
      "type": "function",
      "signature": "0x32ac5cd2"
    },
    {
      "constant": true,
      "inputs": [],
      "name": "VOX_ADDRESS",
      "outputs": [
        {
          "name": "",
          "type": "address"
        }
      ],
      "payable": false,
      "stateMutability": "view",
      "type": "function",
      "signature": "0x36e6da11"
    },
    {
      "constant": true,
      "inputs": [],
      "name": "ETH2DAI_WRAPPER",
      "outputs": [
        {
          "name": "",
          "type": "address"
        }
      ],
      "payable": false,
      "stateMutability": "view",
      "type": "function",
      "signature": "0x43fb75e8"
    },
    {
      "constant": true,
      "inputs": [],
      "name": "STUPID_EXCHANGE",
      "outputs": [
        {
          "name": "",
          "type": "address"
        }
      ],
      "payable": false,
      "stateMutability": "view",
      "type": "function",
      "signature": "0x502237d7"
    },
    {
      "constant": true,
      "inputs": [],
      "name": "SERVICE_FEE",
      "outputs": [
        {
          "name": "",
          "type": "uint256"
        }
      ],
      "payable": false,
      "stateMutability": "view",
      "type": "function",
      "signature": "0x50c86de5"
    },
    {
      "constant": true,
      "inputs": [],
      "name": "PROXY_REGISTRY_INTERFACE_ADDRESS",
      "outputs": [
        {
          "name": "",
          "type": "address"
        }
      ],
      "payable": false,
      "stateMutability": "view",
      "type": "function",
      "signature": "0x728c0092"
    },
    {
      "constant": true,
      "inputs": [],
      "name": "MKR_ADDRESS",
      "outputs": [
        {
          "name": "",
          "type": "address"
        }
      ],
      "payable": false,
      "stateMutability": "view",
      "type": "function",
      "signature": "0x825ffd92"
    },
    {
      "constant": true,
      "inputs": [],
      "name": "FACTORY_ADDRESS",
      "outputs": [
        {
          "name": "",
          "type": "address"
        }
      ],
      "payable": false,
      "stateMutability": "view",
      "type": "function",
      "signature": "0x8823151b"
    },
    {
      "constant": true,
      "inputs": [],
      "name": "LOGGER_ADDRESS",
      "outputs": [
        {
          "name": "",
          "type": "address"
        }
      ],
      "payable": false,
      "stateMutability": "view",
      "type": "function",
      "signature": "0x94bfbe74"
    },
    {
      "constant": true,
      "inputs": [],
      "name": "MAKER_DAI_ADDRESS",
      "outputs": [
        {
          "name": "",
          "type": "address"
        }
      ],
      "payable": false,
      "stateMutability": "view",
      "type": "function",
      "signature": "0x9da779e9"
    },
    {
      "constant": true,
      "inputs": [],
      "name": "KYBER_WRAPPER",
      "outputs": [
        {
          "name": "",
          "type": "address"
        }
      ],
      "payable": false,
      "stateMutability": "view",
      "type": "function",
      "signature": "0xb175afa1"
    },
    {
      "constant": true,
      "inputs": [],
      "name": "COMPOUND_DAI_ADDRESS",
      "outputs": [
        {
          "name": "",
          "type": "address"
        }
      ],
      "payable": false,
      "stateMutability": "view",
      "type": "function",
      "signature": "0xc16921b7"
    },
    {
      "constant": true,
      "inputs": [],
      "name": "UNISWAP_FACTORY",
      "outputs": [
        {
          "name": "",
          "type": "address"
        }
      ],
      "payable": false,
      "stateMutability": "view",
      "type": "function",
      "signature": "0xc74c0fac"
    },
    {
      "constant": true,
      "inputs": [],
      "name": "PETH_ADDRESS",
      "outputs": [
        {
          "name": "",
          "type": "address"
        }
      ],
      "payable": false,
      "stateMutability": "view",
      "type": "function",
      "signature": "0xc9fde270"
    },
    {
      "constant": true,
      "inputs": [],
      "name": "KYBER_INTERFACE",
      "outputs": [
        {
          "name": "",
          "type": "address"
        }
      ],
      "payable": false,
      "stateMutability": "view",
      "type": "function",
      "signature": "0xce9bde1d"
    },
    {
      "constant": true,
      "inputs": [],
      "name": "WALLET_ID",
      "outputs": [
        {
          "name": "",
          "type": "address"
        }
      ],
      "payable": false,
      "stateMutability": "view",
      "type": "function",
      "signature": "0xd3661fa5"
    },
    {
      "constant": true,
      "inputs": [],
      "name": "SOLO_MARGIN_ADDRESS",
      "outputs": [
        {
          "name": "",
          "type": "address"
        }
      ],
      "payable": false,
      "stateMutability": "view",
      "type": "function",
      "signature": "0xd36b907d"
    },
    {
      "constant": true,
      "inputs": [],
      "name": "UNISWAP_WRAPPER",
      "outputs": [
        {
          "name": "",
          "type": "address"
        }
      ],
      "payable": false,
      "stateMutability": "view",
      "type": "function",
      "signature": "0xddaa293c"
    },
    {
      "constant": true,
      "inputs": [],
      "name": "TUB_ADDRESS",
      "outputs": [
        {
          "name": "",
          "type": "address"
        }
      ],
      "payable": false,
      "stateMutability": "view",
      "type": "function",
      "signature": "0xf0d405e5"
    },
    {
      "constant": false,
      "inputs": [
        {
          "name": "_cup",
          "type": "bytes32"
        },
        {
          "name": "_amount",
          "type": "uint256"
        },
        {
          "name": "_gasCost",
          "type": "uint256"
        }
      ],
      "name": "repay",
      "outputs": [],
      "payable": false,
      "stateMutability": "nonpayable",
      "type": "function",
      "signature": "0xe4858494"
    },
    {
      "constant": false,
      "inputs": [
        {
          "name": "_cup",
          "type": "bytes32"
        },
        {
          "name": "_amount",
          "type": "uint256"
        },
        {
          "name": "_gasCost",
          "type": "uint256"
        }
      ],
      "name": "boost",
      "outputs": [],
      "payable": false,
      "stateMutability": "nonpayable",
      "type": "function",
      "signature": "0xce474e74"
    },
    {
      "constant": false,
      "inputs": [
        {
          "name": "_tub",
          "type": "address"
        },
        {
          "name": "_cup",
          "type": "bytes32"
        }
      ],
      "name": "maxFreeCollateral",
      "outputs": [
        {
          "name": "",
          "type": "uint256"
        }
      ],
      "payable": false,
      "stateMutability": "nonpayable",
      "type": "function",
      "signature": "0xd325a2c1"
    },
    {
      "constant": false,
      "inputs": [
        {
          "name": "_tub",
          "type": "address"
        },
        {
          "name": "_cup",
          "type": "bytes32"
        }
      ],
      "name": "maxFreeDai",
      "outputs": [
        {
          "name": "",
          "type": "uint256"
        }
      ],
      "payable": false,
      "stateMutability": "nonpayable",
      "type": "function",
      "signature": "0x730fd680"
    },
    {
      "constant": false,
      "inputs": [
        {
          "name": "_tub",
          "type": "address"
        },
        {
          "name": "_cup",
          "type": "bytes32"
        },
        {
          "name": "_daiRepay",
          "type": "uint256"
        }
      ],
      "name": "stabilityFeeInMkr",
      "outputs": [
        {
          "name": "",
          "type": "uint256"
        }
      ],
      "payable": false,
      "stateMutability": "nonpayable",
      "type": "function",
      "signature": "0xc387fd86"
    },
    {
      "constant": true,
      "inputs": [
        {
          "name": "_amount",
          "type": "uint256"
        },
        {
          "name": "_srcToken",
          "type": "address"
        },
        {
          "name": "_destToken",
          "type": "address"
        },
        {
          "name": "_exchangeType",
          "type": "uint256"
        }
      ],
      "name": "getBestPrice",
      "outputs": [
        {
          "name": "",
          "type": "address"
        },
        {
          "name": "",
          "type": "uint256"
        }
      ],
      "payable": false,
      "stateMutability": "view",
      "type": "function",
      "signature": "0x2ec1f009"
    }
  ],
  "bytecode": "0x608060405234801561001057600080fd5b5061390a806100206000396000f3fe608060405234801561001057600080fd5b5060043610610202576000357c0100000000000000000000000000000000000000000000000000000000900480638823151b1161012c578063ce474e74116100bf578063d36b907d1161008e578063d36b907d14610a68578063ddaa293c14610ab2578063e485849414610afc578063f0d405e514610b3e57610202565b8063ce474e7414610930578063ce9bde1d14610972578063d325a2c1146109bc578063d3661fa514610a1e57610202565b8063c16921b7116100fb578063c16921b7146107e6578063c387fd8614610830578063c74c0fac1461089c578063c9fde270146108e657610202565b80638823151b146106be57806394bfbe74146107085780639da779e914610752578063b175afa11461079c57610202565b806332ac5cd2116101a457806350c86de51161017357806350c86de5146105aa578063728c0092146105c8578063730fd68014610612578063825ffd921461067457610202565b806332ac5cd21461048257806336e6da11146104cc57806343fb75e814610516578063502237d71461056057610202565b806329f7fc9e116101e057806329f7fc9e146102e55780632a441f051461032f5780632d5eeb3f146103795780632ec1f009146103c357610202565b8063040141e5146102075780630531b2ad146102515780631dab52b01461029b575b600080fd5b61020f610b88565b604051808273ffffffffffffffffffffffffffffffffffffffff1673ffffffffffffffffffffffffffffffffffffffff16815260200191505060405180910390f35b610259610ba0565b604051808273ffffffffffffffffffffffffffffffffffffffff1673ffffffffffffffffffffffffffffffffffffffff16815260200191505060405180910390f35b6102a3610bb8565b604051808273ffffffffffffffffffffffffffffffffffffffff1673ffffffffffffffffffffffffffffffffffffffff16815260200191505060405180910390f35b6102ed610bd0565b604051808273ffffffffffffffffffffffffffffffffffffffff1673ffffffffffffffffffffffffffffffffffffffff16815260200191505060405180910390f35b610337610be8565b604051808273ffffffffffffffffffffffffffffffffffffffff1673ffffffffffffffffffffffffffffffffffffffff16815260200191505060405180910390f35b610381610c00565b604051808273ffffffffffffffffffffffffffffffffffffffff1673ffffffffffffffffffffffffffffffffffffffff16815260200191505060405180910390f35b610439600480360360808110156103d957600080fd5b8101908080359060200190929190803573ffffffffffffffffffffffffffffffffffffffff169060200190929190803573ffffffffffffffffffffffffffffffffffffffff16906020019092919080359060200190929190505050610c18565b604051808373ffffffffffffffffffffffffffffffffffffffff1673ffffffffffffffffffffffffffffffffffffffff1681526020018281526020019250505060405180910390f35b61048a6110f3565b604051808273ffffffffffffffffffffffffffffffffffffffff1673ffffffffffffffffffffffffffffffffffffffff16815260200191505060405180910390f35b6104d4611106565b604051808273ffffffffffffffffffffffffffffffffffffffff1673ffffffffffffffffffffffffffffffffffffffff16815260200191505060405180910390f35b61051e61111e565b604051808273ffffffffffffffffffffffffffffffffffffffff1673ffffffffffffffffffffffffffffffffffffffff16815260200191505060405180910390f35b610568611136565b604051808273ffffffffffffffffffffffffffffffffffffffff1673ffffffffffffffffffffffffffffffffffffffff16815260200191505060405180910390f35b6105b261114e565b6040518082815260200191505060405180910390f35b6105d0611154565b604051808273ffffffffffffffffffffffffffffffffffffffff1673ffffffffffffffffffffffffffffffffffffffff16815260200191505060405180910390f35b61065e6004803603604081101561062857600080fd5b81019080803573ffffffffffffffffffffffffffffffffffffffff1690602001909291908035906020019092919050505061116c565b6040518082815260200191505060405180910390f35b61067c611434565b604051808273ffffffffffffffffffffffffffffffffffffffff1673ffffffffffffffffffffffffffffffffffffffff16815260200191505060405180910390f35b6106c661144c565b604051808273ffffffffffffffffffffffffffffffffffffffff1673ffffffffffffffffffffffffffffffffffffffff16815260200191505060405180910390f35b610710611464565b604051808273ffffffffffffffffffffffffffffffffffffffff1673ffffffffffffffffffffffffffffffffffffffff16815260200191505060405180910390f35b61075a61147c565b604051808273ffffffffffffffffffffffffffffffffffffffff1673ffffffffffffffffffffffffffffffffffffffff16815260200191505060405180910390f35b6107a4611494565b604051808273ffffffffffffffffffffffffffffffffffffffff1673ffffffffffffffffffffffffffffffffffffffff16815260200191505060405180910390f35b6107ee6114ac565b604051808273ffffffffffffffffffffffffffffffffffffffff1673ffffffffffffffffffffffffffffffffffffffff16815260200191505060405180910390f35b6108866004803603606081101561084657600080fd5b81019080803573ffffffffffffffffffffffffffffffffffffffff16906020019092919080359060200190929190803590602001909291905050506114c4565b6040518082815260200191505060405180910390f35b6108a4611799565b604051808273ffffffffffffffffffffffffffffffffffffffff1673ffffffffffffffffffffffffffffffffffffffff16815260200191505060405180910390f35b6108ee6117b1565b604051808273ffffffffffffffffffffffffffffffffffffffff1673ffffffffffffffffffffffffffffffffffffffff16815260200191505060405180910390f35b6109706004803603606081101561094657600080fd5b810190808035906020019092919080359060200190929190803590602001909291905050506117c9565b005b61097a611bfc565b604051808273ffffffffffffffffffffffffffffffffffffffff1673ffffffffffffffffffffffffffffffffffffffff16815260200191505060405180910390f35b610a08600480360360408110156109d257600080fd5b81019080803573ffffffffffffffffffffffffffffffffffffffff16906020019092919080359060200190929190505050611c14565b6040518082815260200191505060405180910390f35b610a26611f97565b604051808273ffffffffffffffffffffffffffffffffffffffff1673ffffffffffffffffffffffffffffffffffffffff16815260200191505060405180910390f35b610a70611faf565b604051808273ffffffffffffffffffffffffffffffffffffffff1673ffffffffffffffffffffffffffffffffffffffff16815260200191505060405180910390f35b610aba611fc7565b604051808273ffffffffffffffffffffffffffffffffffffffff1673ffffffffffffffffffffffffffffffffffffffff16815260200191505060405180910390f35b610b3c60048036036060811015610b1257600080fd5b81019080803590602001909291908035906020019092919080359060200190929190505050611fdf565b005b610b4661273c565b604051808273ffffffffffffffffffffffffffffffffffffffff1673ffffffffffffffffffffffffffffffffffffffff16815260200191505060405180910390f35b73d0a1e359811322d97991e03f863a0c30c2cf029c81565b73b6b09fbffba6a5c4631e5f7b2e3ee183ac259c0d81565b73a944bd4b25c9f186a846fd5668941aa3d3b8425f81565b73eeeeeeeeeeeeeeeeeeeeeeeeeeeeeeeeeeeeeeee81565b734a6bc4e803c62081ffebcc8d227b5a87a58f1f8f81565b73a1e58f3b1927743393b25f261471e1f2d3d9f0f681565b600080600080905060008090506000809050735595930d576aedf13945c83ce5aad827529a131073ffffffffffffffffffffffffffffffffffffffff1663809a9e5589898c6040518463ffffffff167c0100000000000000000000000000000000000000000000000000000000028152600401808473ffffffffffffffffffffffffffffffffffffffff1673ffffffffffffffffffffffffffffffffffffffff1681526020018373ffffffffffffffffffffffffffffffffffffffff1673ffffffffffffffffffffffffffffffffffffffff1681526020018281526020019350505050604080518083038186803b158015610d1257600080fd5b505afa158015610d26573d6000803e3d6000fd5b505050506040513d6040811015610d3c57600080fd5b8101908080519060200190929190805190602001909291905050505080935050735595930d576aedf13945c83ce5aad827529a131073ffffffffffffffffffffffffffffffffffffffff1663809a9e5589898c6040518463ffffffff167c0100000000000000000000000000000000000000000000000000000000028152600401808473ffffffffffffffffffffffffffffffffffffffff1673ffffffffffffffffffffffffffffffffffffffff1681526020018373ffffffffffffffffffffffffffffffffffffffff1673ffffffffffffffffffffffffffffffffffffffff1681526020018281526020019350505050604080518083038186803b158015610e4457600080fd5b505afa158015610e58573d6000803e3d6000fd5b505050506040513d6040811015610e6e57600080fd5b810190808051906020019092919080519060200190929190505050508092505073823cde416973a19f98bb9c96d97f4fe6c9a7238b73ffffffffffffffffffffffffffffffffffffffff1663809a9e5589898c6040518463ffffffff167c0100000000000000000000000000000000000000000000000000000000028152600401808473ffffffffffffffffffffffffffffffffffffffff1673ffffffffffffffffffffffffffffffffffffffff1681526020018373ffffffffffffffffffffffffffffffffffffffff1673ffffffffffffffffffffffffffffffffffffffff1681526020018281526020019350505050604080518083038186803b158015610f7657600080fd5b505afa158015610f8a573d6000803e3d6000fd5b505050506040513d6040811015610fa057600080fd5b81019080805190602001909291908051906020019092919050505050809150506001861415610feb5773823cde416973a19f98bb9c96d97f4fe6c9a7238b81945094505050506110ea565b600286141561101657735595930d576aedf13945c83ce5aad827529a131083945094505050506110ea565b600386141561104157735595930d576aedf13945c83ce5aad827529a131082945094505050506110ea565b8281101580156110515750818110155b156110785773823cde416973a19f98bb9c96d97f4fe6c9a7238b81945094505050506110ea565b8183101580156110885750808310155b156110af57735595930d576aedf13945c83ce5aad827529a131083945094505050506110ea565b8282101580156110bf5750808210155b156110e657735595930d576aedf13945c83ce5aad827529a131082945094505050506110ea565b5050505b94509492505050565b6e170ccc93903185be5a2094c870df6281565b73bb4339c0ab5b1d9f14bd6e3426444a1e9d86a1d981565b73823cde416973a19f98bb9c96d97f4fe6c9a7238b81565b73863e41fe88288ebf3fcd91d8dbb679fb83fdfe1781565b61019081565b7364a436ae831c1672ae81f674cab8b6775df3475c81565b6000600161142b61137c6112c78673ffffffffffffffffffffffffffffffffffffffff16631f3634ed876040518263ffffffff167c010000000000000000000000000000000000000000000000000000000002815260040180828152602001915050602060405180830381600087803b1580156111e857600080fd5b505af11580156111fc573d6000803e3d6000fd5b505050506040513d602081101561121257600080fd5b81019080805190602001909291905050508773ffffffffffffffffffffffffffffffffffffffff166351f910666040518163ffffffff167c0100000000000000000000000000000000000000000000000000000000028152600401602060405180830381600087803b15801561128757600080fd5b505af115801561129b573d6000803e3d6000fd5b505050506040513d60208110156112b157600080fd5b8101908080519060200190929190505050612754565b6113778773ffffffffffffffffffffffffffffffffffffffff1663ab0783da6040518163ffffffff167c0100000000000000000000000000000000000000000000000000000000028152600401602060405180830381600087803b15801561132e57600080fd5b505af1158015611342573d6000803e3d6000fd5b505050506040513d602081101561135857600080fd5b8101908080519060200190929190505050670de0b6b3a7640000612754565b61279c565b8573ffffffffffffffffffffffffffffffffffffffff1663f7c8d634866040518263ffffffff167c010000000000000000000000000000000000000000000000000000000002815260040180828152602001915050602060405180830381600087803b1580156113eb57600080fd5b505af11580156113ff573d6000803e3d6000fd5b505050506040513d602081101561141557600080fd5b81019080805190602001909291905050506127d4565b03905092915050565b73aaf64bfcc32d0f15873a02163e7e500671a4ffcd81565b73c72e74e474682680a414b506699bbca44ab9a93081565b7332d0e18f988f952eb3524ace762042381a2c39e581565b73c4375b7de8af5a38a93548eb8453a498222c4ff281565b735595930d576aedf13945c83ce5aad827529a131081565b7325a01a05c188dacbcf1d61af55d4a5b4021f7eed81565b60008060008061162f8561162a8973ffffffffffffffffffffffffffffffffffffffff16636f78ee0d8a6040518263ffffffff167c010000000000000000000000000000000000000000000000000000000002815260040180828152602001915050602060405180830381600087803b15801561154057600080fd5b505af1158015611554573d6000803e3d6000fd5b505050506040513d602081101561156a57600080fd5b81019080805190602001909291905050508a73ffffffffffffffffffffffffffffffffffffffff1663f7c8d6348b6040518263ffffffff167c010000000000000000000000000000000000000000000000000000000002815260040180828152602001915050602060405180830381600087803b1580156115ea57600080fd5b505af11580156115fe573d6000803e3d6000fd5b505050506040513d602081101561161457600080fd5b81019080805190602001909291905050506127ee565b612754565b90508673ffffffffffffffffffffffffffffffffffffffff1663ace237f56040518163ffffffff167c0100000000000000000000000000000000000000000000000000000000028152600401602060405180830381600087803b15801561169557600080fd5b505af11580156116a9573d6000803e3d6000fd5b505050506040513d60208110156116bf57600080fd5b810190808051906020019092919050505073ffffffffffffffffffffffffffffffffffffffff166359e02dd76040518163ffffffff167c01000000000000000000000000000000000000000000000000000000000281526004016040805180830381600087803b15801561173257600080fd5b505af1158015611746573d6000803e3d6000fd5b505050506040513d604081101561175c57600080fd5b810190808051906020019092919080519060200190929190505050809350819450505061178d81846001900461279c565b93505050509392505050565b73f5d915570bc477f9b8d6c0e980aa81757a3aac3681565b73f4d791139ce033ad35db2b2201435fad668b1b6481565b6000806118018473c4375b7de8af5a38a93548eb8453a498222c4ff273eeeeeeeeeeeeeeeeeeeeeeeeeeeeeeeeeeeeeeee6000610c18565b8092508193505050600061181d670de0b6b3a76400008361279c565b9050600073a71937147b55deb8a530c7229c442fd3f31b7db2905061185573d0a1e359811322d97991e03f863a0c30c2cf029c61282a565b61187273f4d791139ce033ad35db2b2201435fad668b1b6461282a565b61188f73c4375b7de8af5a38a93548eb8453a498222c4ff261282a565b600061189b828961116c565b9050808711156118a9578096505b60008273ffffffffffffffffffffffffffffffffffffffff16631f3634ed8a6040518263ffffffff167c010000000000000000000000000000000000000000000000000000000002815260040180828152602001915050602060405180830381600087803b15801561191a57600080fd5b505af115801561192e573d6000803e3d6000fd5b505050506040513d602081101561194457600080fd5b810190808051906020019092919050505090508273ffffffffffffffffffffffffffffffffffffffff1663440f19ba8a8a6040518363ffffffff167c01000000000000000000000000000000000000000000000000000000000281526004018083815260200182815260200192505050600060405180830381600087803b1580156119ce57600080fd5b505af11580156119e2573d6000803e3d6000fd5b505050506119fa886119f58a8a88612a7a565b6127d4565b97506000611a0a848b8b8a612baf565b9050818473ffffffffffffffffffffffffffffffffffffffff16631f3634ed8c6040518263ffffffff167c010000000000000000000000000000000000000000000000000000000002815260040180828152602001915050602060405180830381600087803b158015611a7c57600080fd5b505af1158015611a90573d6000803e3d6000fd5b505050506040513d6020811015611aa657600080fd5b810190808051906020019092919050505011611b0d576040517f08c379a000000000000000000000000000000000000000000000000000000000815260040180806020018281038252602d81526020018061388f602d913960400191505060405180910390fd5b7332d0e18f988f952eb3524ace762042381a2c39e573ffffffffffffffffffffffffffffffffffffffff1663687710058b60019004338c856040518563ffffffff167c0100000000000000000000000000000000000000000000000000000000028152600401808581526020018473ffffffffffffffffffffffffffffffffffffffff1673ffffffffffffffffffffffffffffffffffffffff168152602001838152602001828152602001945050505050600060405180830381600087803b158015611bd857600080fd5b505af1158015611bec573d6000803e3d6000fd5b5050505050505050505050505050565b73692f391bcc85cefce8c237c01e1f636bbd70ea4d81565b60006001611f8e8473ffffffffffffffffffffffffffffffffffffffff16631f3634ed856040518263ffffffff167c010000000000000000000000000000000000000000000000000000000002815260040180828152602001915050602060405180830381600087803b158015611c8a57600080fd5b505af1158015611c9e573d6000803e3d6000fd5b505050506040513d6020811015611cb457600080fd5b8101908080519060200190929190505050611f89611ee5611e2d8873ffffffffffffffffffffffffffffffffffffffff1663f7c8d634896040518263ffffffff167c010000000000000000000000000000000000000000000000000000000002815260040180828152602001915050602060405180830381600087803b158015611d3d57600080fd5b505af1158015611d51573d6000803e3d6000fd5b505050506040513d6020811015611d6757600080fd5b8101908080519060200190929190505050611e288a73ffffffffffffffffffffffffffffffffffffffff1663ab0783da6040518163ffffffff167c0100000000000000000000000000000000000000000000000000000000028152600401602060405180830381600087803b158015611ddf57600080fd5b505af1158015611df3573d6000803e3d6000fd5b505050506040513d6020811015611e0957600080fd5b8101908080519060200190929190505050670de0b6b3a7640000612754565b6130b6565b73bb4339c0ab5b1d9f14bd6e3426444a1e9d86a1d973ffffffffffffffffffffffffffffffffffffffff1663495d32cb6040518163ffffffff167c0100000000000000000000000000000000000000000000000000000000028152600401602060405180830381600087803b158015611ea557600080fd5b505af1158015611eb9573d6000803e3d6000fd5b505050506040513d6020811015611ecf57600080fd5b81019080805190602001909291905050506130b6565b8773ffffffffffffffffffffffffffffffffffffffff166351f910666040518163ffffffff167c0100000000000000000000000000000000000000000000000000000000028152600401602060405180830381600087803b158015611f4957600080fd5b505af1158015611f5d573d6000803e3d6000fd5b505050506040513d6020811015611f7357600080fd5b810190808051906020019092919050505061279c565b6127d4565b03905092915050565b7354b44c6b18fc0b4a1010b21d524c338d1f8065f681565b734ec3570cadaaee08ae384779b0f3a45ef85289de81565b735595930d576aedf13945c83ce5aad827529a131081565b6000806120178473eeeeeeeeeeeeeeeeeeeeeeeeeeeeeeeeeeeeeeee73c4375b7de8af5a38a93548eb8453a498222c4ff26000610c18565b8092508193505050600073a71937147b55deb8a530c7229c442fd3f31b7db2905061205573c4375b7de8af5a38a93548eb8453a498222c4ff261282a565b61207273aaf64bfcc32d0f15873a02163e7e500671a4ffcd61282a565b61208f73f4d791139ce033ad35db2b2201435fad668b1b6461282a565b6120ac73d0a1e359811322d97991e03f863a0c30c2cf029c61282a565b60006120b882886130f6565b90506120c48288611c14565b8611156120d8576120d58288611c14565b95505b6120e3828888613314565b60006120ef87856130b6565b905060006120fd848a61360b565b90506000612120858b61211b86610190888161211557fe5b046127d4565b6114c4565b90508183111561213857612135858b846114c4565b90505b600061214c826121478c6136e7565b61279c565b90506000735595930d576aedf13945c83ce5aad827529a131073ffffffffffffffffffffffffffffffffffffffff166343ac1dc6838473aaf64bfcc32d0f15873a02163e7e500671a4ffcd876040518563ffffffff167c0100000000000000000000000000000000000000000000000000000000028152600401808481526020018373ffffffffffffffffffffffffffffffffffffffff1673ffffffffffffffffffffffffffffffffffffffff168152602001828152602001935050505060408051808303818588803b15801561222257600080fd5b505af1158015612236573d6000803e3d6000fd5b50505050506040513d604081101561224d57600080fd5b8101908080519060200190929190805190602001909291905050509050809150506122818b61227c84846127d4565b6127d4565b9a508873ffffffffffffffffffffffffffffffffffffffff166343ac1dc68c8d73c4375b7de8af5a38a93548eb8453a498222c4ff27fffffffffffffffffffffffffffffffffffffffffffffffffffffffffffffffff6040518563ffffffff167c0100000000000000000000000000000000000000000000000000000000028152600401808481526020018373ffffffffffffffffffffffffffffffffffffffff1673ffffffffffffffffffffffffffffffffffffffff168152602001828152602001935050505060408051808303818588803b15801561236157600080fd5b505af1158015612375573d6000803e3d6000fd5b50505050506040513d604081101561238c57600080fd5b81019080805190602001909291908051906020019092919050505050809550506123c0856123bb878d8c612a7a565b6127d4565b94508385111561255a578673ffffffffffffffffffffffffffffffffffffffff166373b381018d866040518363ffffffff167c01000000000000000000000000000000000000000000000000000000000281526004018083815260200182815260200192505050600060405180830381600087803b15801561244157600080fd5b505af1158015612455573d6000803e3d6000fd5b5050505073c4375b7de8af5a38a93548eb8453a498222c4ff273ffffffffffffffffffffffffffffffffffffffff1663a9059cbb3361249488886127d4565b6040518363ffffffff167c0100000000000000000000000000000000000000000000000000000000028152600401808373ffffffffffffffffffffffffffffffffffffffff1673ffffffffffffffffffffffffffffffffffffffff16815260200182815260200192505050602060405180830381600087803b15801561251957600080fd5b505af115801561252d573d6000803e3d6000fd5b505050506040513d602081101561254357600080fd5b81019080805190602001909291905050505061264b565b8673ffffffffffffffffffffffffffffffffffffffff166373b381018d876040518363ffffffff167c01000000000000000000000000000000000000000000000000000000000281526004018083815260200182815260200192505050600060405180830381600087803b1580156125d157600080fd5b505af11580156125e5573d6000803e3d6000fd5b50505050856125f4888e6130f6565b1161264a576040517f08c379a00000000000000000000000000000000000000000000000000000000081526004018080602001828103825260238152602001806138bc6023913960400191505060405180910390fd5b5b7332d0e18f988f952eb3524ace762042381a2c39e573ffffffffffffffffffffffffffffffffffffffff1663406bb32a8d60019004338e896040518563ffffffff167c0100000000000000000000000000000000000000000000000000000000028152600401808581526020018473ffffffffffffffffffffffffffffffffffffffff1673ffffffffffffffffffffffffffffffffffffffff168152602001838152602001828152602001945050505050600060405180830381600087803b15801561271657600080fd5b505af115801561272a573d6000803e3d6000fd5b50505050505050505050505050505050565b73a71937147b55deb8a530c7229c442fd3f31b7db281565b60006b033b2e3c9fd0803ce800000061278c6127708585613848565b60026b033b2e3c9fd0803ce80000008161278657fe5b04613874565b8161279357fe5b04905092915050565b6000816127c46127b485670de0b6b3a7640000613848565b600285816127be57fe5b04613874565b816127cb57fe5b04905092915050565b60008282840391508111156127e857600080fd5b92915050565b60008161281a61280a856b033b2e3c9fd0803ce8000000613848565b6002858161281457fe5b04613874565b8161282157fe5b04905092915050565b60027fffffffffffffffffffffffffffffffffffffffffffffffffffffffffffffffff8161285457fe5b048173ffffffffffffffffffffffffffffffffffffffff1663dd62ed3e33846040518363ffffffff167c0100000000000000000000000000000000000000000000000000000000028152600401808373ffffffffffffffffffffffffffffffffffffffff1673ffffffffffffffffffffffffffffffffffffffff1681526020018273ffffffffffffffffffffffffffffffffffffffff1673ffffffffffffffffffffffffffffffffffffffff1681526020019250505060206040518083038186803b15801561292257600080fd5b505afa158015612936573d6000803e3d6000fd5b505050506040513d602081101561294c57600080fd5b81019080805190602001909291905050501015612a77578073ffffffffffffffffffffffffffffffffffffffff1663095ea7b373a71937147b55deb8a530c7229c442fd3f31b7db27fffffffffffffffffffffffffffffffffffffffffffffffffffffffffffffffff6040518363ffffffff167c0100000000000000000000000000000000000000000000000000000000028152600401808373ffffffffffffffffffffffffffffffffffffffff1673ffffffffffffffffffffffffffffffffffffffff16815260200182815260200192505050602060405180830381600087803b158015612a3a57600080fd5b505af1158015612a4e573d6000803e3d6000fd5b505050506040513d6020811015612a6457600080fd5b8101908080519060200190929190505050505b50565b600080612a878484613848565b9050612a9e6101908681612a9757fe5b0482613874565b915073c4375b7de8af5a38a93548eb8453a498222c4ff273ffffffffffffffffffffffffffffffffffffffff1663a9059cbb7354b44c6b18fc0b4a1010b21d524c338d1f8065f6846040518363ffffffff167c0100000000000000000000000000000000000000000000000000000000028152600401808373ffffffffffffffffffffffffffffffffffffffff1673ffffffffffffffffffffffffffffffffffffffff16815260200182815260200192505050602060405180830381600087803b158015612b6b57600080fd5b505af1158015612b7f573d6000803e3d6000fd5b505050506040513d6020811015612b9557600080fd5b810190808051906020019092919050505050509392505050565b600073c4375b7de8af5a38a93548eb8453a498222c4ff273ffffffffffffffffffffffffffffffffffffffff1663a9059cbb83856040518363ffffffff167c0100000000000000000000000000000000000000000000000000000000028152600401808373ffffffffffffffffffffffffffffffffffffffff1673ffffffffffffffffffffffffffffffffffffffff16815260200182815260200192505050602060405180830381600087803b158015612c6857600080fd5b505af1158015612c7c573d6000803e3d6000fd5b505050506040513d6020811015612c9257600080fd5b81019080805190602001909291905050505060008273ffffffffffffffffffffffffffffffffffffffff16633bba21dc73c4375b7de8af5a38a93548eb8453a498222c4ff2867fffffffffffffffffffffffffffffffffffffffffffffffffffffffffffffffff6040518463ffffffff167c0100000000000000000000000000000000000000000000000000000000028152600401808473ffffffffffffffffffffffffffffffffffffffff1673ffffffffffffffffffffffffffffffffffffffff1681526020018381526020018281526020019350505050602060405180830381600087803b158015612d8557600080fd5b505af1158015612d99573d6000803e3d6000fd5b505050506040513d6020811015612daf57600080fd5b810190808051906020019092919050505090508573ffffffffffffffffffffffffffffffffffffffff16637bd2bea76040518163ffffffff167c0100000000000000000000000000000000000000000000000000000000028152600401602060405180830381600087803b158015612e2657600080fd5b505af1158015612e3a573d6000803e3d6000fd5b505050506040513d6020811015612e5057600080fd5b810190808051906020019092919050505073ffffffffffffffffffffffffffffffffffffffff1663d0e30db0826040518263ffffffff167c01000000000000000000000000000000000000000000000000000000000281526004016000604051808303818588803b158015612ec457600080fd5b505af1158015612ed8573d6000803e3d6000fd5b50505050506000612f91612f8a838973ffffffffffffffffffffffffffffffffffffffff16637ec9c3b86040518163ffffffff167c0100000000000000000000000000000000000000000000000000000000028152600401602060405180830381600087803b158015612f4a57600080fd5b505af1158015612f5e573d6000803e3d6000fd5b505050506040513d6020811015612f7457600080fd5b81019080805190602001909291905050506127ee565b60016127d4565b90508673ffffffffffffffffffffffffffffffffffffffff1663049878f3826040518263ffffffff167c010000000000000000000000000000000000000000000000000000000002815260040180828152602001915050600060405180830381600087803b15801561300257600080fd5b505af1158015613016573d6000803e3d6000fd5b505050508673ffffffffffffffffffffffffffffffffffffffff1663b3b77a5187836040518363ffffffff167c01000000000000000000000000000000000000000000000000000000000281526004018083815260200182815260200192505050600060405180830381600087803b15801561309157600080fd5b505af11580156130a5573d6000803e3d6000fd5b505050508192505050949350505050565b6000670de0b6b3a76400006130e66130ce8585613848565b6002670de0b6b3a7640000816130e057fe5b04613874565b816130ed57fe5b04905092915050565b600061330c61325d61324f8573ffffffffffffffffffffffffffffffffffffffff16631f3634ed866040518263ffffffff167c010000000000000000000000000000000000000000000000000000000002815260040180828152602001915050602060405180830381600087803b15801561317057600080fd5b505af1158015613184573d6000803e3d6000fd5b505050506040513d602081101561319a57600080fd5b81019080805190602001909291905050508673ffffffffffffffffffffffffffffffffffffffff166351f910666040518163ffffffff167c0100000000000000000000000000000000000000000000000000000000028152600401602060405180830381600087803b15801561320f57600080fd5b505af1158015613223573d6000803e3d6000fd5b505050506040513d602081101561323957600080fd5b8101908080519060200190929190505050612754565b670de0b6b3a7640000612754565b8473ffffffffffffffffffffffffffffffffffffffff1663f7c8d634856040518263ffffffff167c010000000000000000000000000000000000000000000000000000000002815260040180828152602001915050602060405180830381600087803b1580156132cc57600080fd5b505af11580156132e0573d6000803e3d6000fd5b505050506040513d60208110156132f657600080fd5b810190808051906020019092919050505061279c565b905092915050565b60006133c86133c1838673ffffffffffffffffffffffffffffffffffffffff16637ec9c3b86040518163ffffffff167c0100000000000000000000000000000000000000000000000000000000028152600401602060405180830381600087803b15801561338157600080fd5b505af1158015613395573d6000803e3d6000fd5b505050506040513d60208110156133ab57600080fd5b81019080805190602001909291905050506127ee565b60016127d4565b90508373ffffffffffffffffffffffffffffffffffffffff1663a5cd184e84836040518363ffffffff167c01000000000000000000000000000000000000000000000000000000000281526004018083815260200182815260200192505050600060405180830381600087803b15801561344157600080fd5b505af1158015613455573d6000803e3d6000fd5b505050508373ffffffffffffffffffffffffffffffffffffffff16637f8661a1826040518263ffffffff167c010000000000000000000000000000000000000000000000000000000002815260040180828152602001915050600060405180830381600087803b1580156134c857600080fd5b505af11580156134dc573d6000803e3d6000fd5b505050508373ffffffffffffffffffffffffffffffffffffffff16637bd2bea76040518163ffffffff167c0100000000000000000000000000000000000000000000000000000000028152600401602060405180830381600087803b15801561354457600080fd5b505af1158015613558573d6000803e3d6000fd5b505050506040513d602081101561356e57600080fd5b810190808051906020019092919050505073ffffffffffffffffffffffffffffffffffffffff16632e1a7d4d836040518263ffffffff167c010000000000000000000000000000000000000000000000000000000002815260040180828152602001915050600060405180830381600087803b1580156135ed57600080fd5b505af1158015613601573d6000803e3d6000fd5b5050505050505050565b60008273ffffffffffffffffffffffffffffffffffffffff1663fdac0025836040518263ffffffff167c010000000000000000000000000000000000000000000000000000000002815260040180828152602001915050608060405180830381600087803b15801561367c57600080fd5b505af1158015613690573d6000803e3d6000fd5b505050506040513d60808110156136a657600080fd5b810190808051906020019092919080519060200190929190805190602001909291908051906020019092919050505090919250909150508091505092915050565b6000735595930d576aedf13945c83ce5aad827529a131073ffffffffffffffffffffffffffffffffffffffff1663809a9e5573eeeeeeeeeeeeeeeeeeeeeeeeeeeeeeeeeeeeeeee73aaf64bfcc32d0f15873a02163e7e500671a4ffcd856040518463ffffffff167c0100000000000000000000000000000000000000000000000000000000028152600401808473ffffffffffffffffffffffffffffffffffffffff1673ffffffffffffffffffffffffffffffffffffffff1681526020018373ffffffffffffffffffffffffffffffffffffffff1673ffffffffffffffffffffffffffffffffffffffff1681526020018281526020019350505050604080518083038186803b1580156137f957600080fd5b505afa15801561380d573d6000803e3d6000fd5b505050506040513d604081101561382357600080fd5b8101908080519060200190929190805190602001909291905050505080915050919050565b600080821480613865575082828385029250828161386257fe5b04145b61386e57600080fd5b92915050565b600082828401915081101561388857600080fd5b9291505056fe636f6c6c61746572616c206d75737420626520626967676572207468616e207374617274696e6720706f696e74726174696f206d75737420626520626574746572206f66662061742074686520656e64a165627a7a72305820e767cd6fc0ab20f49488b896db42dbe0957a7ff710113dfcafc9e9bc27bee9870029",
  "source": "pragma solidity ^0.5.0;\n\nimport \"./interfaces/TubInterface.sol\";\nimport \"./interfaces/ExchangeInterface.sol\";\nimport \"./DS/DSMath.sol\";\nimport \"./SaverLogger.sol\";\nimport \"./constants/ConstantAddresses.sol\";\n\n/// @title SaverProxy implements advanced dashboard features repay/boost\ncontract SaverProxyMonitor is DSMath, ConstantAddresses {\n\n    uint public constant SERVICE_FEE = 400; // 0.25% Fee\n\n    /// @notice Withdraws Eth collateral, swaps Eth -> Dai with Kyber, and pays back the debt in Dai\n    /// @dev If _buyMkr is false user needs to have MKR tokens and approve his DSProxy\n    /// @param _cup Id of the CDP\n    /// @param _gasCost taking the amount needed for tx gas cost\n    function repay(bytes32 _cup, uint _amount, uint _gasCost) public {\n        address exchangeWrapper;\n        uint ethDaiPrice;\n\n        (exchangeWrapper, ethDaiPrice) = getBestPrice(_amount, KYBER_ETH_ADDRESS, MAKER_DAI_ADDRESS, 0);\n\n        TubInterface tub = TubInterface(TUB_ADDRESS);\n\n        approveTub(MAKER_DAI_ADDRESS);\n        approveTub(MKR_ADDRESS);\n        approveTub(PETH_ADDRESS);\n        approveTub(WETH_ADDRESS);\n\n        uint startingRatio = getRatio(tub, _cup);\n\n        if (_amount > maxFreeCollateral(tub, _cup)) {\n            _amount = maxFreeCollateral(tub, _cup);\n        }\n\n        withdrawEth(tub, _cup, _amount);\n\n        uint daiAmount = wmul(_amount, ethDaiPrice);\n        uint cdpWholeDebt = getDebt(tub, _cup);\n\n        uint mkrAmount = stabilityFeeInMkr(tub, _cup, sub(daiAmount, daiAmount / SERVICE_FEE));\n\n        if (daiAmount > cdpWholeDebt) {\n            mkrAmount = stabilityFeeInMkr(tub, _cup, cdpWholeDebt);\n        }\n\n        uint ethFee = wdiv(mkrAmount, estimatedMkrPrice(_amount));\n\n        uint change;\n        (, change) = ExchangeInterface(KYBER_WRAPPER).swapEtherToToken.\n                        value(ethFee)(ethFee, MKR_ADDRESS, mkrAmount);\n\n\n        _amount = sub(_amount, sub(ethFee, change));\n\n        (daiAmount, ) = ExchangeInterface(exchangeWrapper).swapEtherToToken.\n                            value(_amount)(_amount, MAKER_DAI_ADDRESS, uint(-1));\n\n         // Take a fee from the user in dai\n         daiAmount = sub(daiAmount, takeFee(daiAmount, _gasCost, ethDaiPrice));\n\n        if (daiAmount > cdpWholeDebt) {\n            tub.wipe(_cup, cdpWholeDebt);\n            ERC20(MAKER_DAI_ADDRESS).transfer(msg.sender, sub(daiAmount, cdpWholeDebt));\n        } else {\n            tub.wipe(_cup, daiAmount);\n            require(getRatio(tub, _cup) > startingRatio, \"ratio must be better off at the end\");\n        }\n\n        SaverLogger(LOGGER_ADDRESS).LogRepay(uint(_cup), msg.sender, _amount, daiAmount);\n    }\n\n    /// @notice Boost will draw Dai, swap Dai -> Eth on kyber, and add that Eth to the CDP\n    /// @dev Amount must be less then the max. amount available Dai to generate\n    /// @param _cup Id of the CDP\n    /// @param _gasCost taking the amount needed for tx gas cost\n    function boost(bytes32 _cup, uint _amount, uint _gasCost) public {\n        address exchangeWrapper;\n        uint daiEthPrice;\n\n        (exchangeWrapper, daiEthPrice) = getBestPrice(_amount, MAKER_DAI_ADDRESS, KYBER_ETH_ADDRESS, 0);\n\n        uint ethDaiPrice = wdiv(1000000000000000000, daiEthPrice);\n\n        TubInterface tub = TubInterface(TUB_ADDRESS);\n\n        approveTub(WETH_ADDRESS);\n        approveTub(PETH_ADDRESS);\n        approveTub(MAKER_DAI_ADDRESS);\n\n        uint maxAmount = maxFreeDai(tub, _cup);\n\n        if (_amount > maxAmount) {\n            _amount = maxAmount;\n        }\n\n        uint startingCollateral = tub.ink(_cup);\n\n        tub.draw(_cup, _amount);\n\n        // Take a fee from the user in dai\n        _amount = sub(_amount, takeFee(_amount, _gasCost, ethDaiPrice));\n\n        uint ethAmount = swapDaiAndLockEth(tub, _cup, _amount, exchangeWrapper);\n\n        require(tub.ink(_cup) > startingCollateral, \"collateral must be bigger than starting point\");\n\n        SaverLogger(LOGGER_ADDRESS).LogBoost(uint(_cup), msg.sender, _amount, ethAmount);\n    }\n\n    /// @notice Max. amount of collateral available to withdraw\n    /// @param _tub Tub interface\n    /// @param _cup Id of the CDP\n    function maxFreeCollateral(TubInterface _tub, bytes32 _cup) public returns (uint) {\n        return sub(_tub.ink(_cup), wdiv(wmul(wmul(_tub.tab(_cup), rmul(_tub.mat(), WAD)),\n                VoxInterface(VOX_ADDRESS).par()), _tub.tag())) - 1;\n    }\n\n    /// @notice Max. amount of Dai available to generate\n    /// @param _tub Tub interface\n    /// @param _cup Id of the CDP\n    function maxFreeDai(TubInterface _tub, bytes32 _cup) public returns (uint) {\n        return sub(wdiv(rmul(_tub.ink(_cup), _tub.tag()), rmul(_tub.mat(), WAD)), _tub.tab(_cup)) - 1;\n    }\n\n    /// @notice Stability fee amount in Mkr\n    /// @param _tub Tub interface\n    /// @param _cup Id of the CDP\n    /// @param _daiRepay Amount of dai we are repaying\n    function stabilityFeeInMkr(TubInterface _tub, bytes32 _cup, uint _daiRepay) public returns (uint) {\n        bytes32 mkrPrice;\n        bool ok;\n\n        uint feeInDai = rmul(_daiRepay, rdiv(_tub.rap(_cup), _tub.tab(_cup)));\n\n        (mkrPrice, ok) = _tub.pep().peek();\n\n        return wdiv(feeInDai, uint(mkrPrice));\n    }\n\n    /// @notice Helper function which swaps Dai for Eth and adds the collateral to the CDP\n    /// @param _tub Tub interface\n    /// @param _cup Id of the CDP\n    /// @param _daiAmount Amount of Dai to swap for Eth\n    function swapDaiAndLockEth(TubInterface _tub, bytes32 _cup, uint _daiAmount, address _exchangeWrapper) internal returns(uint) {\n\n        ERC20(MAKER_DAI_ADDRESS).transfer(_exchangeWrapper, _daiAmount);\n\n        uint ethAmount = ExchangeInterface(_exchangeWrapper).swapTokenToEther(MAKER_DAI_ADDRESS, _daiAmount, uint(-1));\n\n        _tub.gem().deposit.value(ethAmount)();\n\n        uint ink = sub(rdiv(ethAmount, _tub.per()), 1);\n\n        _tub.join(ink);\n\n        _tub.lock(_cup, ink);\n\n        return ethAmount;\n    }\n\n    /// @notice Approve a token if it's not already approved\n    /// @param _tokenAddress Address of the ERC20 token we want to approve\n    function approveTub(address _tokenAddress) internal {\n        if (ERC20(_tokenAddress).allowance(msg.sender, _tokenAddress) < (uint(-1) / 2)) {\n            ERC20(_tokenAddress).approve(TUB_ADDRESS, uint(-1));\n        }\n    }\n\n    /// @notice Returns the current collaterlization ratio for the CDP\n    /// @param _tub Tub interface\n    /// @param _cup Id of the CDP\n    function getRatio(TubInterface _tub, bytes32 _cup) internal returns(uint) {\n        return (wdiv(rmul(rmul(_tub.ink(_cup), _tub.tag()), WAD), _tub.tab(_cup)));\n    }\n\n    /// @notice Helper function which withdraws collateral from CDP\n    /// @param _tub Tub interface\n    /// @param _cup Id of the CDP\n    /// @param _ethAmount Amount of Eth to withdraw\n    function withdrawEth(TubInterface _tub, bytes32 _cup, uint _ethAmount) internal {\n        uint ink = sub(rdiv(_ethAmount, _tub.per()), 1);\n        _tub.free(_cup, ink);\n\n        _tub.exit(ink);\n        _tub.gem().withdraw(_ethAmount);\n    }\n\n    /// @notice Takes a feePercentage and sends it to wallet\n    /// @param _amount Dai amount of the whole trade\n    /// @param _gasFee Aditional fee for gas payment\n    /// @param _price Price of Eth in Dai so we can take the fee in Dai\n    /// @return feeAmount Amount in Dai owner earned on the fee\n    function takeFee(uint _amount, uint _gasFee, uint _price) internal returns (uint feeAmount) {\n        uint gasFeeDai = mul(_gasFee, _price); // The gas price of the tx in Dai\n\n        feeAmount = add((_amount / SERVICE_FEE), gasFeeDai);\n\n        ERC20(MAKER_DAI_ADDRESS).transfer(WALLET_ID, feeAmount);\n    }\n\n    /// @notice Returns the best estimated price from 2 exchanges\n    /// @param _amount Amount of source tokens you want to exchange\n    /// @param _srcToken Address of the source token\n    /// @param _destToken Address of the destination token\n    /// @return (address, uint) The address of the best exchange and the exchange price\n    function getBestPrice(uint _amount, address _srcToken, address _destToken, uint _exchangeType) public view returns (address, uint) {\n        uint expectedRateKyber = 0;\n        uint expectedRateUniswap = 0;\n        uint expectedRateEth2Dai = 0;\n\n        (expectedRateKyber, ) = ExchangeInterface(KYBER_WRAPPER).getExpectedRate(_srcToken, _destToken, _amount);\n        (expectedRateUniswap, ) = ExchangeInterface(UNISWAP_WRAPPER).getExpectedRate(_srcToken, _destToken, _amount);\n        (expectedRateEth2Dai, ) = ExchangeInterface(ETH2DAI_WRAPPER).getExpectedRate(_srcToken, _destToken, _amount);\n\n        if (_exchangeType == 1) {\n            return (ETH2DAI_WRAPPER, expectedRateEth2Dai);\n        }\n\n        if (_exchangeType == 2) {\n            return (KYBER_WRAPPER, expectedRateKyber);\n        }\n\n        if (_exchangeType == 3) {\n            return (UNISWAP_WRAPPER, expectedRateUniswap);\n        }\n\n        if ((expectedRateEth2Dai >= expectedRateKyber) && (expectedRateEth2Dai >= expectedRateUniswap)) {\n            return (ETH2DAI_WRAPPER, expectedRateEth2Dai);\n        }\n\n        if ((expectedRateKyber >= expectedRateUniswap) && (expectedRateKyber >= expectedRateEth2Dai)) {\n            return (KYBER_WRAPPER, expectedRateKyber);\n        }\n\n        if ((expectedRateUniswap >= expectedRateKyber) && (expectedRateUniswap >= expectedRateEth2Dai)) {\n            return (UNISWAP_WRAPPER, expectedRateUniswap);\n        }\n    }\n\n    /// @notice Returns expected rate for Eth -> Dai conversion\n    /// @param _amount Amount of Ether\n    function estimatedDaiPrice(uint _amount) internal view returns (uint expectedRate) {\n        (expectedRate, ) = ExchangeInterface(KYBER_WRAPPER).getExpectedRate(KYBER_ETH_ADDRESS, MAKER_DAI_ADDRESS, _amount);\n    }\n\n    /// @notice Returns expected rate for Dai -> Eth conversion\n    /// @param _amount Amount of Dai\n    function estimatedEthPrice(uint _amount) internal view returns (uint expectedRate) {\n        (expectedRate, ) = ExchangeInterface(KYBER_WRAPPER).getExpectedRate(MAKER_DAI_ADDRESS, KYBER_ETH_ADDRESS, _amount);\n    }\n\n    /// @notice Returns expected rate for Eth -> Mkr conversion\n    /// @param _amount Amount of Ether\n    function estimatedMkrPrice(uint _amount) internal view returns (uint expectedRate) {\n        (expectedRate, ) = ExchangeInterface(KYBER_WRAPPER).getExpectedRate(KYBER_ETH_ADDRESS, MKR_ADDRESS, _amount);\n    }\n\n    /// @notice Returns current Dai debt of the CDP\n    /// @param _tub Tub interface\n    /// @param _cup Id of the CDP\n    function getDebt(TubInterface _tub, bytes32 _cup) internal returns (uint debt) {\n        ( , , debt, ) = _tub.cups(_cup);\n    }\n}\n",
  "sourcePath": "/Users/nenadpalinkasevic/Desktop/blockchain/cdpsaver-contracts/contracts/SaverProxyMonitor.sol",
  "compiler": {
    "name": "solc",
    "version": "0.5.7+commit.6da8b019.Emscripten.clang"
  },
  "schemaVersion": "3.0.0",
  "updatedAt": "2019-08-19T13:35:54.642Z",
  "devdoc": {
    "methods": {
      "boost(bytes32,uint256,uint256)": {
        "details": "Amount must be less then the max. amount available Dai to generate",
        "params": {
          "_cup": "Id of the CDP",
          "_gasCost": "taking the amount needed for tx gas cost"
        }
      },
      "getBestPrice(uint256,address,address,uint256)": {
        "params": {
          "_amount": "Amount of source tokens you want to exchange",
          "_destToken": "Address of the destination token",
          "_srcToken": "Address of the source token"
        },
        "return": "(address, uint) The address of the best exchange and the exchange price"
      },
      "maxFreeCollateral(address,bytes32)": {
        "params": {
          "_cup": "Id of the CDP",
          "_tub": "Tub interface"
        }
      },
      "maxFreeDai(address,bytes32)": {
        "params": {
          "_cup": "Id of the CDP",
          "_tub": "Tub interface"
        }
      },
      "repay(bytes32,uint256,uint256)": {
        "details": "If _buyMkr is false user needs to have MKR tokens and approve his DSProxy",
        "params": {
          "_cup": "Id of the CDP",
          "_gasCost": "taking the amount needed for tx gas cost"
        }
      },
      "stabilityFeeInMkr(address,bytes32,uint256)": {
        "params": {
          "_cup": "Id of the CDP",
          "_daiRepay": "Amount of dai we are repaying",
          "_tub": "Tub interface"
        }
      }
    },
    "title": "SaverProxy implements advanced dashboard features repay/boost"
  },
  "userdoc": {
    "methods": {
      "boost(bytes32,uint256,uint256)": {
        "notice": "Boost will draw Dai, swap Dai -> Eth on kyber, and add that Eth to the CDP"
      },
      "getBestPrice(uint256,address,address,uint256)": {
        "notice": "Returns the best estimated price from 2 exchanges"
      },
      "maxFreeCollateral(address,bytes32)": {
        "notice": "Max. amount of collateral available to withdraw"
      },
      "maxFreeDai(address,bytes32)": {
        "notice": "Max. amount of Dai available to generate"
      },
      "repay(bytes32,uint256,uint256)": {
        "notice": "Withdraws Eth collateral, swaps Eth -> Dai with Kyber, and pays back the debt in Dai"
      },
      "stabilityFeeInMkr(address,bytes32,uint256)": {
        "notice": "Stability fee amount in Mkr"
      }
    }
  }
}