{
  "contractName": "SaverProxy",
  "abi": [
    {
      "constant": true,
      "inputs": [],
      "name": "WETH_ADDRESS",
      "outputs": [
        {
          "name": "",
          "type": "address"
        }
      ],
      "payable": false,
      "stateMutability": "view",
      "type": "function"
    },
    {
      "constant": true,
      "inputs": [],
      "name": "CDAI_ADDRESS",
      "outputs": [
        {
          "name": "",
          "type": "address"
        }
      ],
      "payable": false,
      "stateMutability": "view",
      "type": "function"
    },
    {
      "constant": true,
      "inputs": [],
      "name": "PIP_INTERFACE_ADDRESS",
      "outputs": [
        {
          "name": "",
          "type": "address"
        }
      ],
      "payable": false,
      "stateMutability": "view",
      "type": "function"
    },
    {
      "constant": true,
      "inputs": [],
      "name": "KYBER_ETH_ADDRESS",
      "outputs": [
        {
          "name": "",
          "type": "address"
        }
      ],
      "payable": false,
      "stateMutability": "view",
      "type": "function"
    },
    {
      "constant": true,
      "inputs": [],
      "name": "OTC_ADDRESS",
      "outputs": [
        {
          "name": "",
          "type": "address"
        }
      ],
      "payable": false,
      "stateMutability": "view",
      "type": "function"
    },
    {
      "constant": true,
      "inputs": [],
      "name": "IDAI_ADDRESS",
      "outputs": [
        {
          "name": "",
          "type": "address"
        }
      ],
      "payable": false,
      "stateMutability": "view",
      "type": "function"
    },
    {
      "constant": true,
      "inputs": [],
      "name": "GAS_TOKEN_INTERFACE_ADDRESS",
      "outputs": [
        {
          "name": "",
          "type": "address"
        }
      ],
      "payable": false,
      "stateMutability": "view",
      "type": "function"
    },
    {
      "constant": true,
      "inputs": [],
      "name": "VOX_ADDRESS",
      "outputs": [
        {
          "name": "",
          "type": "address"
        }
      ],
      "payable": false,
      "stateMutability": "view",
      "type": "function"
    },
    {
      "constant": true,
      "inputs": [],
      "name": "ETH2DAI_WRAPPER",
      "outputs": [
        {
          "name": "",
          "type": "address"
        }
      ],
      "payable": false,
      "stateMutability": "view",
      "type": "function"
    },
    {
      "constant": true,
      "inputs": [],
      "name": "STUPID_EXCHANGE",
      "outputs": [
        {
          "name": "",
          "type": "address"
        }
      ],
      "payable": false,
      "stateMutability": "view",
      "type": "function"
    },
    {
      "constant": true,
      "inputs": [],
      "name": "SERVICE_FEE",
      "outputs": [
        {
          "name": "",
          "type": "uint256"
        }
      ],
      "payable": false,
      "stateMutability": "view",
      "type": "function"
    },
    {
      "constant": true,
      "inputs": [],
      "name": "PROXY_REGISTRY_INTERFACE_ADDRESS",
      "outputs": [
        {
          "name": "",
          "type": "address"
        }
      ],
      "payable": false,
      "stateMutability": "view",
      "type": "function"
    },
    {
      "constant": true,
      "inputs": [],
      "name": "MKR_ADDRESS",
      "outputs": [
        {
          "name": "",
          "type": "address"
        }
      ],
      "payable": false,
      "stateMutability": "view",
      "type": "function"
    },
    {
      "constant": true,
      "inputs": [
        {
          "name": "_cup",
          "type": "bytes32"
        },
        {
          "name": "_amount",
          "type": "uint256"
        },
        {
          "name": "_minPrice",
          "type": "uint256"
        },
        {
          "name": "_borrowedAmount",
          "type": "uint256"
        }
      ],
      "name": "FACTORY_ADDRESS",
      "outputs": [
        {
          "name": "",
          "type": "address"
        }
      ],
      "payable": false,
      "stateMutability": "view",
      "type": "function"
    },
    {
      "constant": true,
      "inputs": [
        {
          "name": "_cup",
          "type": "bytes32"
        },
        {
          "name": "_amount",
          "type": "uint256"
        },
        {
          "name": "_minPrice",
          "type": "uint256"
        },
        {
          "name": "_borrowedAmount",
          "type": "uint256"
        }
      ],
      "name": "LOGGER_ADDRESS",
      "outputs": [
        {
          "name": "",
          "type": "address"
        }
      ],
      "payable": false,
      "stateMutability": "view",
      "type": "function"
    },
    {
      "constant": true,
      "inputs": [
        {
          "name": "_tub",
          "type": "address"
        },
        {
          "name": "_cup",
          "type": "bytes32"
        }
      ],
      "name": "MAKER_DAI_ADDRESS",
      "outputs": [
        {
          "name": "",
          "type": "address"
        }
      ],
      "payable": false,
      "stateMutability": "view",
      "type": "function"
    },
    {
      "constant": true,
      "inputs": [
        {
          "name": "_tub",
          "type": "address"
        },
        {
          "name": "_cup",
          "type": "bytes32"
        }
      ],
      "name": "KYBER_WRAPPER",
      "outputs": [
        {
          "name": "",
          "type": "address"
        }
      ],
      "payable": false,
      "stateMutability": "view",
      "type": "function"
    },
    {
      "constant": true,
      "inputs": [
        {
          "name": "_tub",
          "type": "address"
        },
        {
          "name": "_cup",
          "type": "bytes32"
        },
        {
          "name": "_daiRepay",
          "type": "uint256"
        }
      ],
      "name": "COMPOUND_DAI_ADDRESS",
      "outputs": [
        {
          "name": "",
          "type": "address"
        }
      ],
      "payable": false,
      "stateMutability": "view",
      "type": "function"
    },
    {
      "constant": true,
      "inputs": [],
      "name": "UNISWAP_FACTORY",
      "outputs": [
        {
          "name": "",
          "type": "address"
        }
      ],
      "payable": false,
      "stateMutability": "view",
      "type": "function"
    },
    {
      "constant": true,
      "inputs": [],
      "name": "PETH_ADDRESS",
      "outputs": [
        {
          "name": "",
          "type": "address"
        }
      ],
      "payable": false,
      "stateMutability": "view",
      "type": "function"
    },
    {
      "constant": true,
      "inputs": [],
      "name": "KYBER_INTERFACE",
      "outputs": [
        {
          "name": "",
          "type": "address"
        }
      ],
      "payable": false,
      "stateMutability": "view",
      "type": "function"
    },
    {
      "constant": true,
      "inputs": [],
      "name": "WALLET_ID",
      "outputs": [
        {
          "name": "",
          "type": "address"
        }
      ],
      "payable": false,
      "stateMutability": "view",
      "type": "function"
    },
    {
      "constant": true,
      "inputs": [],
      "name": "SOLO_MARGIN_ADDRESS",
      "outputs": [
        {
          "name": "",
          "type": "address"
        }
      ],
      "payable": false,
      "stateMutability": "view",
      "type": "function"
    },
    {
      "constant": true,
      "inputs": [],
      "name": "UNISWAP_WRAPPER",
      "outputs": [
        {
          "name": "",
          "type": "address"
        }
      ],
      "payable": false,
      "stateMutability": "view",
      "type": "function"
    },
    {
      "constant": true,
      "inputs": [],
      "name": "TUB_ADDRESS",
      "outputs": [
        {
          "name": "",
          "type": "address"
        }
      ],
      "payable": false,
      "stateMutability": "view",
      "type": "function"
    },
    {
      "constant": true,
      "inputs": [],
      "name": "CTOKEN_INTERFACE",
      "outputs": [
        {
          "name": "",
          "type": "address"
        }
      ],
      "payable": false,
      "stateMutability": "view",
      "type": "function"
    },
    {
      "constant": false,
      "inputs": [
        {
          "name": "_cup",
          "type": "bytes32"
        },
        {
          "name": "_amount",
          "type": "uint256"
        },
        {
          "name": "_minPrice",
          "type": "uint256"
        },
        {
          "name": "_borrowedAmount",
          "type": "uint256"
        }
      ],
      "name": "repay",
      "outputs": [],
      "payable": false,
      "stateMutability": "nonpayable",
      "type": "function"
    },
    {
      "constant": false,
      "inputs": [
        {
          "name": "_cup",
          "type": "bytes32"
        },
        {
          "name": "_amount",
          "type": "uint256"
        },
        {
          "name": "_minPrice",
          "type": "uint256"
        },
        {
          "name": "_borrowedAmount",
          "type": "uint256"
        }
      ],
      "name": "boost",
      "outputs": [],
      "payable": false,
      "stateMutability": "nonpayable",
      "type": "function"
    },
    {
      "constant": false,
      "inputs": [
        {
          "name": "_tub",
          "type": "address"
        },
        {
          "name": "_cup",
          "type": "bytes32"
        }
      ],
      "name": "maxFreeCollateral",
      "outputs": [
        {
          "name": "",
          "type": "uint256"
        }
      ],
      "payable": false,
      "stateMutability": "nonpayable",
      "type": "function"
    },
    {
      "constant": false,
      "inputs": [
        {
          "name": "_tub",
          "type": "address"
        },
        {
          "name": "_cup",
          "type": "bytes32"
        }
      ],
      "name": "maxFreeDai",
      "outputs": [
        {
          "name": "",
          "type": "uint256"
        }
      ],
      "payable": false,
      "stateMutability": "nonpayable",
      "type": "function"
    },
    {
      "constant": false,
      "inputs": [
        {
          "name": "_tub",
          "type": "address"
        },
        {
          "name": "_cup",
          "type": "bytes32"
        },
        {
          "name": "_daiRepay",
          "type": "uint256"
        }
      ],
      "name": "stabilityFeeInMkr",
      "outputs": [
        {
          "name": "",
          "type": "uint256"
        }
      ],
      "payable": false,
      "stateMutability": "nonpayable",
      "type": "function"
    },
    {
      "constant": false,
      "inputs": [
        {
          "name": "_amount",
          "type": "uint256"
        },
        {
          "name": "_srcToken",
          "type": "address"
        },
        {
          "name": "_destToken",
          "type": "address"
        },
        {
          "name": "_exchangeType",
          "type": "uint256"
        }
      ],
      "name": "getBestPrice",
      "outputs": [
        {
          "name": "",
          "type": "address"
        },
        {
          "name": "",
          "type": "uint256"
        }
      ],
      "payable": false,
      "stateMutability": "nonpayable",
      "type": "function"
    }
  ],
  "bytecode": "0x608060405234801561001057600080fd5b50613465806100206000396000f3fe608060405234801561001057600080fd5b50600436106101e55760003560e01c8063825ffd921161010f578063c9fde270116100a2578063d36b907d11610071578063d36b907d146109e2578063ddaa293c14610a2c578063f0d405e514610a76578063f2f239d414610ac0576101e5565b8063c9fde270146108a2578063ce9bde1d146108ec578063d325a2c114610936578063d3661fa514610998576101e5565b8063b175afa1116100de578063b175afa114610758578063c16921b7146107a2578063c387fd86146107ec578063c74c0fac14610858576101e5565b8063825ffd92146106305780638823151b1461067a57806394bfbe74146106c45780639da779e91461070e576101e5565b806336e6da111161018757806350c86de51161015657806350c86de51461051a57806367dc773614610538578063728c009214610584578063730fd680146105ce576101e5565b806336e6da11146103f057806343fb75e81461043a5780634c3e49f014610484578063502237d7146104d0576101e5565b806329f7fc9e116101c357806329f7fc9e146102c85780632a441f05146103125780632d5eeb3f1461035c57806332ac5cd2146103a6576101e5565b8063040141e5146101ea5780630531b2ad146102345780631dab52b01461027e575b600080fd5b6101f2610b0a565b604051808273ffffffffffffffffffffffffffffffffffffffff1673ffffffffffffffffffffffffffffffffffffffff16815260200191505060405180910390f35b61023c610b22565b604051808273ffffffffffffffffffffffffffffffffffffffff1673ffffffffffffffffffffffffffffffffffffffff16815260200191505060405180910390f35b610286610b3a565b604051808273ffffffffffffffffffffffffffffffffffffffff1673ffffffffffffffffffffffffffffffffffffffff16815260200191505060405180910390f35b6102d0610b52565b604051808273ffffffffffffffffffffffffffffffffffffffff1673ffffffffffffffffffffffffffffffffffffffff16815260200191505060405180910390f35b61031a610b6a565b604051808273ffffffffffffffffffffffffffffffffffffffff1673ffffffffffffffffffffffffffffffffffffffff16815260200191505060405180910390f35b610364610b82565b604051808273ffffffffffffffffffffffffffffffffffffffff1673ffffffffffffffffffffffffffffffffffffffff16815260200191505060405180910390f35b6103ae610b9a565b604051808273ffffffffffffffffffffffffffffffffffffffff1673ffffffffffffffffffffffffffffffffffffffff16815260200191505060405180910390f35b6103f8610bad565b604051808273ffffffffffffffffffffffffffffffffffffffff1673ffffffffffffffffffffffffffffffffffffffff16815260200191505060405180910390f35b610442610bc5565b604051808273ffffffffffffffffffffffffffffffffffffffff1673ffffffffffffffffffffffffffffffffffffffff16815260200191505060405180910390f35b6104ce6004803603608081101561049a57600080fd5b8101908080359060200190929190803590602001909291908035906020019092919080359060200190929190505050610bdd565b005b6104d861140d565b604051808273ffffffffffffffffffffffffffffffffffffffff1673ffffffffffffffffffffffffffffffffffffffff16815260200191505060405180910390f35b610522611425565b6040518082815260200191505060405180910390f35b6105826004803603608081101561054e57600080fd5b810190808035906020019092919080359060200190929190803590602001909291908035906020019092919050505061142b565b005b61058c6118d6565b604051808273ffffffffffffffffffffffffffffffffffffffff1673ffffffffffffffffffffffffffffffffffffffff16815260200191505060405180910390f35b61061a600480360360408110156105e457600080fd5b81019080803573ffffffffffffffffffffffffffffffffffffffff169060200190929190803590602001909291905050506118ee565b6040518082815260200191505060405180910390f35b610638611b46565b604051808273ffffffffffffffffffffffffffffffffffffffff1673ffffffffffffffffffffffffffffffffffffffff16815260200191505060405180910390f35b610682611b5e565b604051808273ffffffffffffffffffffffffffffffffffffffff1673ffffffffffffffffffffffffffffffffffffffff16815260200191505060405180910390f35b6106cc611b76565b604051808273ffffffffffffffffffffffffffffffffffffffff1673ffffffffffffffffffffffffffffffffffffffff16815260200191505060405180910390f35b610716611b8e565b604051808273ffffffffffffffffffffffffffffffffffffffff1673ffffffffffffffffffffffffffffffffffffffff16815260200191505060405180910390f35b610760611ba6565b604051808273ffffffffffffffffffffffffffffffffffffffff1673ffffffffffffffffffffffffffffffffffffffff16815260200191505060405180910390f35b6107aa611bbe565b604051808273ffffffffffffffffffffffffffffffffffffffff1673ffffffffffffffffffffffffffffffffffffffff16815260200191505060405180910390f35b6108426004803603606081101561080257600080fd5b81019080803573ffffffffffffffffffffffffffffffffffffffff1690602001909291908035906020019092919080359060200190929190505050611bd6565b6040518082815260200191505060405180910390f35b610860611e3a565b604051808273ffffffffffffffffffffffffffffffffffffffff1673ffffffffffffffffffffffffffffffffffffffff16815260200191505060405180910390f35b6108aa611e52565b604051808273ffffffffffffffffffffffffffffffffffffffff1673ffffffffffffffffffffffffffffffffffffffff16815260200191505060405180910390f35b6108f4611e6a565b604051808273ffffffffffffffffffffffffffffffffffffffff1673ffffffffffffffffffffffffffffffffffffffff16815260200191505060405180910390f35b6109826004803603604081101561094c57600080fd5b81019080803573ffffffffffffffffffffffffffffffffffffffff16906020019092919080359060200190929190505050611e82565b6040518082815260200191505060405180910390f35b6109a0612179565b604051808273ffffffffffffffffffffffffffffffffffffffff1673ffffffffffffffffffffffffffffffffffffffff16815260200191505060405180910390f35b6109ea612191565b604051808273ffffffffffffffffffffffffffffffffffffffff1673ffffffffffffffffffffffffffffffffffffffff16815260200191505060405180910390f35b610a346121a9565b604051808273ffffffffffffffffffffffffffffffffffffffff1673ffffffffffffffffffffffffffffffffffffffff16815260200191505060405180910390f35b610a7e6121c1565b604051808273ffffffffffffffffffffffffffffffffffffffff1673ffffffffffffffffffffffffffffffffffffffff16815260200191505060405180910390f35b610ac86121d9565b604051808273ffffffffffffffffffffffffffffffffffffffff1673ffffffffffffffffffffffffffffffffffffffff16815260200191505060405180910390f35b73d0a1e359811322d97991e03f863a0c30c2cf029c81565b73b6b09fbffba6a5c4631e5f7b2e3ee183ac259c0d81565b73a944bd4b25c9f186a846fd5668941aa3d3b8425f81565b73eeeeeeeeeeeeeeeeeeeeeeeeeeeeeeeeeeeeeeee81565b734a6bc4e803c62081ffebcc8d227b5a87a58f1f8f81565b73b6b09fbffba6a5c4631e5f7b2e3ee183ac259c0d81565b6e170ccc93903185be5a2094c870df6281565b73bb4339c0ab5b1d9f14bd6e3426444a1e9d86a1d981565b73823cde416973a19f98bb9c96d97f4fe6c9a7238b81565b600080610c158573eeeeeeeeeeeeeeeeeeeeeeeeeeeeeeeeeeeeeeee73c4375b7de8af5a38a93548eb8453a498222c4ff260006121f1565b8092508193505050838111610c92576040517f08c379a000000000000000000000000000000000000000000000000000000000815260040180806020018281038252600b8152602001807f536c70706167652068697400000000000000000000000000000000000000000081525060200191505060405180910390fd5b600073a71937147b55deb8a530c7229c442fd3f31b7db29050610cc873c4375b7de8af5a38a93548eb8453a498222c4ff2612552565b610ce573aaf64bfcc32d0f15873a02163e7e500671a4ffcd612552565b610d0273f4d791139ce033ad35db2b2201435fad668b1b64612552565b610d1f73d0a1e359811322d97991e03f863a0c30c2cf029c612552565b6000610d2b828961276a565b9050610d378289611e82565b871115610d4b57610d488289611e82565b96505b610d56828989612934565b6000610d6b610d658986612b95565b87612bd5565b90506000610d79848b612bef565b90506000610d9c858c610d97866101908881610d9157fe5b04612caf565b611bd6565b905081831115610db457610db1858c84611bd6565b90505b6000610dc882610dc38d612cc9565b612e0e565b90506000735595930d576aedf13945c83ce5aad827529a131073ffffffffffffffffffffffffffffffffffffffff166343ac1dc6838473aaf64bfcc32d0f15873a02163e7e500671a4ffcd876040518563ffffffff1660e01b8152600401808481526020018373ffffffffffffffffffffffffffffffffffffffff1673ffffffffffffffffffffffffffffffffffffffff168152602001828152602001935050505060408051808303818588803b158015610e8257600080fd5b505af1158015610e96573d6000803e3d6000fd5b50505050506040513d6040811015610ead57600080fd5b810190808051906020019092919080519060200190929190505050905080915050610ee18c610edc8484612caf565b612caf565b9b508873ffffffffffffffffffffffffffffffffffffffff166343ac1dc68d8e73c4375b7de8af5a38a93548eb8453a498222c4ff27fffffffffffffffffffffffffffffffffffffffffffffffffffffffffffffffff6040518563ffffffff1660e01b8152600401808481526020018373ffffffffffffffffffffffffffffffffffffffff1673ffffffffffffffffffffffffffffffffffffffff168152602001828152602001935050505060408051808303818588803b158015610fa557600080fd5b505af1158015610fb9573d6000803e3d6000fd5b50505050506040513d6040811015610fd057600080fd5b8101908080519060200190929190805190602001909291905050505080955050610ffa858b612bd5565b945061100e8561100987612e46565b612caf565b945083851115611170578673ffffffffffffffffffffffffffffffffffffffff166373b381018e866040518363ffffffff1660e01b81526004018083815260200182815260200192505050600060405180830381600087803b15801561107357600080fd5b505af1158015611087573d6000803e3d6000fd5b5050505073c4375b7de8af5a38a93548eb8453a498222c4ff273ffffffffffffffffffffffffffffffffffffffff1663a9059cbb336110c68888612caf565b6040518363ffffffff1660e01b8152600401808373ffffffffffffffffffffffffffffffffffffffff1673ffffffffffffffffffffffffffffffffffffffff16815260200182815260200192505050602060405180830381600087803b15801561112f57600080fd5b505af1158015611143573d6000803e3d6000fd5b505050506040513d602081101561115957600080fd5b8101908080519060200190929190505050506111e4565b8673ffffffffffffffffffffffffffffffffffffffff166373b381018e876040518363ffffffff1660e01b81526004018083815260200182815260200192505050600060405180830381600087803b1580156111cb57600080fd5b505af11580156111df573d6000803e3d6000fd5b505050505b60008a1115611338578673ffffffffffffffffffffffffffffffffffffffff1663440f19ba8e8c6040518363ffffffff1660e01b81526004018083815260200182815260200192505050600060405180830381600087803b15801561124857600080fd5b505af115801561125c573d6000803e3d6000fd5b5050505073c4375b7de8af5a38a93548eb8453a498222c4ff273ffffffffffffffffffffffffffffffffffffffff1663a9059cbb338c6040518363ffffffff1660e01b8152600401808373ffffffffffffffffffffffffffffffffffffffff1673ffffffffffffffffffffffffffffffffffffffff16815260200182815260200192505050602060405180830381600087803b1580156112fb57600080fd5b505af115801561130f573d6000803e3d6000fd5b505050506040513d602081101561132557600080fd5b8101908080519060200190929190505050505b7332d0e18f988f952eb3524ace762042381a2c39e573ffffffffffffffffffffffffffffffffffffffff1663406bb32a8e60001c338f896040518563ffffffff1660e01b8152600401808581526020018473ffffffffffffffffffffffffffffffffffffffff1673ffffffffffffffffffffffffffffffffffffffff168152602001838152602001828152602001945050505050600060405180830381600087803b1580156113e657600080fd5b505af11580156113fa573d6000803e3d6000fd5b5050505050505050505050505050505050565b73863e41fe88288ebf3fcd91d8dbb679fb83fdfe1781565b61019081565b6000806114638573c4375b7de8af5a38a93548eb8453a498222c4ff273eeeeeeeeeeeeeeeeeeeeeeeeeeeeeeeeeeeeeeee60006121f1565b80925081935050508361147e670de0b6b3a764000083612e0e565b106114f1576040517f08c379a000000000000000000000000000000000000000000000000000000000815260040180806020018281038252600c8152602001807f536c69707061676520686974000000000000000000000000000000000000000081525060200191505060405180910390fd5b600073a71937147b55deb8a530c7229c442fd3f31b7db2905061152773d0a1e359811322d97991e03f863a0c30c2cf029c612552565b61154473f4d791139ce033ad35db2b2201435fad668b1b64612552565b61156173c4375b7de8af5a38a93548eb8453a498222c4ff2612552565b600061156d82896118ee565b90508087111561157b578096505b60008273ffffffffffffffffffffffffffffffffffffffff16631f3634ed8a6040518263ffffffff1660e01b815260040180828152602001915050602060405180830381600087803b1580156115d057600080fd5b505af11580156115e4573d6000803e3d6000fd5b505050506040513d60208110156115fa57600080fd5b810190808051906020019092919050505090508273ffffffffffffffffffffffffffffffffffffffff1663440f19ba8a8a6040518363ffffffff1660e01b81526004018083815260200182815260200192505050600060405180830381600087803b15801561166857600080fd5b505af115801561167c573d6000803e3d6000fd5b5050505061168a8887612bd5565b975061169e886116998a612e46565b612caf565b975060006116ae848b8b89612f46565b90506000871115611804578373ffffffffffffffffffffffffffffffffffffffff1663440f19ba8b896040518363ffffffff1660e01b81526004018083815260200182815260200192505050600060405180830381600087803b15801561171457600080fd5b505af1158015611728573d6000803e3d6000fd5b5050505073c4375b7de8af5a38a93548eb8453a498222c4ff273ffffffffffffffffffffffffffffffffffffffff1663a9059cbb33896040518363ffffffff1660e01b8152600401808373ffffffffffffffffffffffffffffffffffffffff1673ffffffffffffffffffffffffffffffffffffffff16815260200182815260200192505050602060405180830381600087803b1580156117c757600080fd5b505af11580156117db573d6000803e3d6000fd5b505050506040513d60208110156117f157600080fd5b8101908080519060200190929190505050505b7332d0e18f988f952eb3524ace762042381a2c39e573ffffffffffffffffffffffffffffffffffffffff1663687710058b60001c338c856040518563ffffffff1660e01b8152600401808581526020018473ffffffffffffffffffffffffffffffffffffffff1673ffffffffffffffffffffffffffffffffffffffff168152602001838152602001828152602001945050505050600060405180830381600087803b1580156118b257600080fd5b505af11580156118c6573d6000803e3d6000fd5b5050505050505050505050505050565b7364a436ae831c1672ae81f674cab8b6775df3475c81565b60006001611b3d611aaa611a118673ffffffffffffffffffffffffffffffffffffffff16631f3634ed876040518263ffffffff1660e01b815260040180828152602001915050602060405180830381600087803b15801561194e57600080fd5b505af1158015611962573d6000803e3d6000fd5b505050506040513d602081101561197857600080fd5b81019080805190602001909291905050508773ffffffffffffffffffffffffffffffffffffffff166351f910666040518163ffffffff1660e01b8152600401602060405180830381600087803b1580156119d157600080fd5b505af11580156119e5573d6000803e3d6000fd5b505050506040513d60208110156119fb57600080fd5b8101908080519060200190929190505050613389565b611aa58773ffffffffffffffffffffffffffffffffffffffff1663ab0783da6040518163ffffffff1660e01b8152600401602060405180830381600087803b158015611a5c57600080fd5b505af1158015611a70573d6000803e3d6000fd5b505050506040513d6020811015611a8657600080fd5b8101908080519060200190929190505050670de0b6b3a7640000613389565b612e0e565b8573ffffffffffffffffffffffffffffffffffffffff1663f7c8d634866040518263ffffffff1660e01b815260040180828152602001915050602060405180830381600087803b158015611afd57600080fd5b505af1158015611b11573d6000803e3d6000fd5b505050506040513d6020811015611b2757600080fd5b8101908080519060200190929190505050612caf565b03905092915050565b73aaf64bfcc32d0f15873a02163e7e500671a4ffcd81565b73c72e74e474682680a414b506699bbca44ab9a93081565b7332d0e18f988f952eb3524ace762042381a2c39e581565b73c4375b7de8af5a38a93548eb8453a498222c4ff281565b735595930d576aedf13945c83ce5aad827529a131081565b7325a01a05c188dacbcf1d61af55d4a5b4021f7eed81565b600080600080611d0985611d048973ffffffffffffffffffffffffffffffffffffffff16636f78ee0d8a6040518263ffffffff1660e01b815260040180828152602001915050602060405180830381600087803b158015611c3657600080fd5b505af1158015611c4a573d6000803e3d6000fd5b505050506040513d6020811015611c6057600080fd5b81019080805190602001909291905050508a73ffffffffffffffffffffffffffffffffffffffff1663f7c8d6348b6040518263ffffffff1660e01b815260040180828152602001915050602060405180830381600087803b158015611cc457600080fd5b505af1158015611cd8573d6000803e3d6000fd5b505050506040513d6020811015611cee57600080fd5b81019080805190602001909291905050506133d1565b613389565b90508673ffffffffffffffffffffffffffffffffffffffff1663ace237f56040518163ffffffff1660e01b8152600401602060405180830381600087803b158015611d5357600080fd5b505af1158015611d67573d6000803e3d6000fd5b505050506040513d6020811015611d7d57600080fd5b810190808051906020019092919050505073ffffffffffffffffffffffffffffffffffffffff166359e02dd76040518163ffffffff1660e01b81526004016040805180830381600087803b158015611dd457600080fd5b505af1158015611de8573d6000803e3d6000fd5b505050506040513d6040811015611dfe57600080fd5b8101908080519060200190929190805190602001909291905050508093508194505050611e2e818460001c612e0e565b93505050509392505050565b73f5d915570bc477f9b8d6c0e980aa81757a3aac3681565b73f4d791139ce033ad35db2b2201435fad668b1b6481565b73692f391bcc85cefce8c237c01e1f636bbd70ea4d81565b600060016121708473ffffffffffffffffffffffffffffffffffffffff16631f3634ed856040518263ffffffff1660e01b815260040180828152602001915050602060405180830381600087803b158015611edc57600080fd5b505af1158015611ef0573d6000803e3d6000fd5b505050506040513d6020811015611f0657600080fd5b810190808051906020019092919050505061216b6120e36120478873ffffffffffffffffffffffffffffffffffffffff1663f7c8d634896040518263ffffffff1660e01b815260040180828152602001915050602060405180830381600087803b158015611f7357600080fd5b505af1158015611f87573d6000803e3d6000fd5b505050506040513d6020811015611f9d57600080fd5b81019080805190602001909291905050506120428a73ffffffffffffffffffffffffffffffffffffffff1663ab0783da6040518163ffffffff1660e01b8152600401602060405180830381600087803b158015611ff957600080fd5b505af115801561200d573d6000803e3d6000fd5b505050506040513d602081101561202357600080fd5b8101908080519060200190929190505050670de0b6b3a7640000613389565b612b95565b73bb4339c0ab5b1d9f14bd6e3426444a1e9d86a1d973ffffffffffffffffffffffffffffffffffffffff1663495d32cb6040518163ffffffff1660e01b8152600401602060405180830381600087803b1580156120a357600080fd5b505af11580156120b7573d6000803e3d6000fd5b505050506040513d60208110156120cd57600080fd5b8101908080519060200190929190505050612b95565b8773ffffffffffffffffffffffffffffffffffffffff166351f910666040518163ffffffff1660e01b8152600401602060405180830381600087803b15801561212b57600080fd5b505af115801561213f573d6000803e3d6000fd5b505050506040513d602081101561215557600080fd5b8101908080519060200190929190505050612e0e565b612caf565b03905092915050565b7354b44c6b18fc0b4a1010b21d524c338d1f8065f681565b734ec3570cadaaee08ae384779b0f3a45ef85289de81565b735595930d576aedf13945c83ce5aad827529a131081565b73a71937147b55deb8a530c7229c442fd3f31b7db281565b73b6b09fbffba6a5c4631e5f7b2e3ee183ac259c0d81565b6000806000806000735595930d576aedf13945c83ce5aad827529a131073ffffffffffffffffffffffffffffffffffffffff1663809a9e5589898c6040518463ffffffff1660e01b8152600401808473ffffffffffffffffffffffffffffffffffffffff1673ffffffffffffffffffffffffffffffffffffffff1681526020018373ffffffffffffffffffffffffffffffffffffffff1673ffffffffffffffffffffffffffffffffffffffff1681526020018281526020019350505050604080518083038186803b1580156122c557600080fd5b505afa1580156122d9573d6000803e3d6000fd5b505050506040513d60408110156122ef57600080fd5b8101908080519060200190929190805190602001909291905050505080935050735595930d576aedf13945c83ce5aad827529a131073ffffffffffffffffffffffffffffffffffffffff1663809a9e5589898c6040518463ffffffff1660e01b8152600401808473ffffffffffffffffffffffffffffffffffffffff1673ffffffffffffffffffffffffffffffffffffffff1681526020018373ffffffffffffffffffffffffffffffffffffffff1673ffffffffffffffffffffffffffffffffffffffff1681526020018281526020019350505050604080518083038186803b1580156123db57600080fd5b505afa1580156123ef573d6000803e3d6000fd5b505050506040513d604081101561240557600080fd5b810190808051906020019092919080519060200190929190505050508092505060018614156124505773823cde416973a19f98bb9c96d97f4fe6c9a7238b8194509450505050612549565b600286141561247b57735595930d576aedf13945c83ce5aad827529a13108394509450505050612549565b60038614156124a657735595930d576aedf13945c83ce5aad827529a13108294509450505050612549565b82811180156124b457508181115b156124db5773823cde416973a19f98bb9c96d97f4fe6c9a7238b8194509450505050612549565b81831180156124e957508083115b1561251057735595930d576aedf13945c83ce5aad827529a13108394509450505050612549565b828211801561251e57508082115b1561254557735595930d576aedf13945c83ce5aad827529a13108294509450505050612549565b5050505b94509492505050565b60027fffffffffffffffffffffffffffffffffffffffffffffffffffffffffffffffff8161257c57fe5b048173ffffffffffffffffffffffffffffffffffffffff1663dd62ed3e33846040518363ffffffff1660e01b8152600401808373ffffffffffffffffffffffffffffffffffffffff1673ffffffffffffffffffffffffffffffffffffffff1681526020018273ffffffffffffffffffffffffffffffffffffffff1673ffffffffffffffffffffffffffffffffffffffff1681526020019250505060206040518083038186803b15801561262e57600080fd5b505afa158015612642573d6000803e3d6000fd5b505050506040513d602081101561265857600080fd5b81019080805190602001909291905050501015612767578073ffffffffffffffffffffffffffffffffffffffff1663095ea7b373a71937147b55deb8a530c7229c442fd3f31b7db27fffffffffffffffffffffffffffffffffffffffffffffffffffffffffffffffff6040518363ffffffff1660e01b8152600401808373ffffffffffffffffffffffffffffffffffffffff1673ffffffffffffffffffffffffffffffffffffffff16815260200182815260200192505050602060405180830381600087803b15801561272a57600080fd5b505af115801561273e573d6000803e3d6000fd5b505050506040513d602081101561275457600080fd5b8101908080519060200190929190505050505b50565b600061292c61289961288b8573ffffffffffffffffffffffffffffffffffffffff16631f3634ed866040518263ffffffff1660e01b815260040180828152602001915050602060405180830381600087803b1580156127c857600080fd5b505af11580156127dc573d6000803e3d6000fd5b505050506040513d60208110156127f257600080fd5b81019080805190602001909291905050508673ffffffffffffffffffffffffffffffffffffffff166351f910666040518163ffffffff1660e01b8152600401602060405180830381600087803b15801561284b57600080fd5b505af115801561285f573d6000803e3d6000fd5b505050506040513d602081101561287557600080fd5b8101908080519060200190929190505050613389565b670de0b6b3a7640000613389565b8473ffffffffffffffffffffffffffffffffffffffff1663f7c8d634856040518263ffffffff1660e01b815260040180828152602001915050602060405180830381600087803b1580156128ec57600080fd5b505af1158015612900573d6000803e3d6000fd5b505050506040513d602081101561291657600080fd5b8101908080519060200190929190505050612e0e565b905092915050565b60006129c2828573ffffffffffffffffffffffffffffffffffffffff16637ec9c3b86040518163ffffffff1660e01b8152600401602060405180830381600087803b15801561298257600080fd5b505af1158015612996573d6000803e3d6000fd5b505050506040513d60208110156129ac57600080fd5b81019080805190602001909291905050506133d1565b90508373ffffffffffffffffffffffffffffffffffffffff1663a5cd184e84836040518363ffffffff1660e01b81526004018083815260200182815260200192505050600060405180830381600087803b158015612a1f57600080fd5b505af1158015612a33573d6000803e3d6000fd5b505050508373ffffffffffffffffffffffffffffffffffffffff16637f8661a1826040518263ffffffff1660e01b815260040180828152602001915050600060405180830381600087803b158015612a8a57600080fd5b505af1158015612a9e573d6000803e3d6000fd5b505050508373ffffffffffffffffffffffffffffffffffffffff16637bd2bea76040518163ffffffff1660e01b8152600401602060405180830381600087803b158015612aea57600080fd5b505af1158015612afe573d6000803e3d6000fd5b505050506040513d6020811015612b1457600080fd5b810190808051906020019092919050505073ffffffffffffffffffffffffffffffffffffffff16632e1a7d4d836040518263ffffffff1660e01b815260040180828152602001915050600060405180830381600087803b158015612b7757600080fd5b505af1158015612b8b573d6000803e3d6000fd5b5050505050505050565b6000670de0b6b3a7640000612bc5612bad858561340d565b6002670de0b6b3a764000081612bbf57fe5b04612bd5565b81612bcc57fe5b04905092915050565b6000828284019150811015612be957600080fd5b92915050565b60008273ffffffffffffffffffffffffffffffffffffffff1663fdac0025836040518263ffffffff1660e01b815260040180828152602001915050608060405180830381600087803b158015612c4457600080fd5b505af1158015612c58573d6000803e3d6000fd5b505050506040513d6080811015612c6e57600080fd5b810190808051906020019092919080519060200190929190805190602001909291908051906020019092919050505090919250909150508091505092915050565b6000828284039150811115612cc357600080fd5b92915050565b6000735595930d576aedf13945c83ce5aad827529a131073ffffffffffffffffffffffffffffffffffffffff1663809a9e5573eeeeeeeeeeeeeeeeeeeeeeeeeeeeeeeeeeeeeeee73aaf64bfcc32d0f15873a02163e7e500671a4ffcd856040518463ffffffff1660e01b8152600401808473ffffffffffffffffffffffffffffffffffffffff1673ffffffffffffffffffffffffffffffffffffffff1681526020018373ffffffffffffffffffffffffffffffffffffffff1673ffffffffffffffffffffffffffffffffffffffff1681526020018281526020019350505050604080518083038186803b158015612dbf57600080fd5b505afa158015612dd3573d6000803e3d6000fd5b505050506040513d6040811015612de957600080fd5b8101908080519060200190929190805190602001909291905050505080915050919050565b600081612e36612e2685670de0b6b3a764000061340d565b60028581612e3057fe5b04612bd5565b81612e3d57fe5b04905092915050565b60006101908281612e5357fe5b04905073c4375b7de8af5a38a93548eb8453a498222c4ff273ffffffffffffffffffffffffffffffffffffffff1663a9059cbb7354b44c6b18fc0b4a1010b21d524c338d1f8065f6836040518363ffffffff1660e01b8152600401808373ffffffffffffffffffffffffffffffffffffffff1673ffffffffffffffffffffffffffffffffffffffff16815260200182815260200192505050602060405180830381600087803b158015612f0557600080fd5b505af1158015612f19573d6000803e3d6000fd5b505050506040513d6020811015612f2f57600080fd5b810190808051906020019092919050505050919050565b600073c4375b7de8af5a38a93548eb8453a498222c4ff273ffffffffffffffffffffffffffffffffffffffff1663a9059cbb83856040518363ffffffff1660e01b8152600401808373ffffffffffffffffffffffffffffffffffffffff1673ffffffffffffffffffffffffffffffffffffffff16815260200182815260200192505050602060405180830381600087803b158015612fe357600080fd5b505af1158015612ff7573d6000803e3d6000fd5b505050506040513d602081101561300d57600080fd5b81019080805190602001909291905050505060008273ffffffffffffffffffffffffffffffffffffffff16633bba21dc73c4375b7de8af5a38a93548eb8453a498222c4ff2867fffffffffffffffffffffffffffffffffffffffffffffffffffffffffffffffff6040518463ffffffff1660e01b8152600401808473ffffffffffffffffffffffffffffffffffffffff1673ffffffffffffffffffffffffffffffffffffffff1681526020018381526020018281526020019350505050602060405180830381600087803b1580156130e457600080fd5b505af11580156130f8573d6000803e3d6000fd5b505050506040513d602081101561310e57600080fd5b810190808051906020019092919050505090508573ffffffffffffffffffffffffffffffffffffffff16637bd2bea76040518163ffffffff1660e01b8152600401602060405180830381600087803b15801561316957600080fd5b505af115801561317d573d6000803e3d6000fd5b505050506040513d602081101561319357600080fd5b810190808051906020019092919050505073ffffffffffffffffffffffffffffffffffffffff1663d0e30db0826040518263ffffffff1660e01b81526004016000604051808303818588803b1580156131eb57600080fd5b505af11580156131ff573d6000803e3d6000fd5b5050505050600061329c613295838973ffffffffffffffffffffffffffffffffffffffff16637ec9c3b86040518163ffffffff1660e01b8152600401602060405180830381600087803b15801561325557600080fd5b505af1158015613269573d6000803e3d6000fd5b505050506040513d602081101561327f57600080fd5b81019080805190602001909291905050506133d1565b6001612caf565b90508673ffffffffffffffffffffffffffffffffffffffff1663049878f3826040518263ffffffff1660e01b815260040180828152602001915050600060405180830381600087803b1580156132f157600080fd5b505af1158015613305573d6000803e3d6000fd5b505050508673ffffffffffffffffffffffffffffffffffffffff1663b3b77a5187836040518363ffffffff1660e01b81526004018083815260200182815260200192505050600060405180830381600087803b15801561336457600080fd5b505af1158015613378573d6000803e3d6000fd5b505050508192505050949350505050565b60006b033b2e3c9fd0803ce80000006133c16133a5858561340d565b60026b033b2e3c9fd0803ce8000000816133bb57fe5b04612bd5565b816133c857fe5b04905092915050565b6000816133fd6133ed856b033b2e3c9fd0803ce800000061340d565b600285816133f757fe5b04612bd5565b8161340457fe5b04905092915050565b60008082148061342a575082828385029250828161342757fe5b04145b61343357600080fd5b9291505056fea165627a7a7230582009f6c33f6d307c4cb4d36cac2d840bf49eccbf98aa92e5bf53df0f7d1cc07aea0029",
  "source": "pragma solidity ^0.5.0;\n\nimport \"./interfaces/TubInterface.sol\";\nimport \"./interfaces/ExchangeInterface.sol\";\nimport \"./DS/DSMath.sol\";\nimport \"./SaverLogger.sol\";\nimport \"./constants/ConstantAddresses.sol\";\n\n/// @title SaverProxy implements advanced dashboard features repay/boost\ncontract SaverProxy is DSMath, ConstantAddresses {\n\n    uint public constant SERVICE_FEE = 400; // 0.25% Fee\n\n    /// @notice Withdraws Eth collateral, swaps Eth -> Dai with Kyber, and pays back the debt in Dai\n    /// @dev If _buyMkr is false user needs to have MKR tokens and approve his DSProxy\n    /// @param _cup Id of the CDP\n    /// @param _amount Amount of Eth to sell\n    /// @param _minPrice Minimum acaptable ETH/DAI price\n    function repay(bytes32 _cup, uint _amount, uint _minPrice, uint _borrowedAmount) public {\n        address exchangeWrapper;\n        uint ethDaiPrice;\n\n        (exchangeWrapper, ethDaiPrice) = getBestPrice(_amount, KYBER_ETH_ADDRESS, MAKER_DAI_ADDRESS, 0);\n\n        require(ethDaiPrice > _minPrice, \"Slppage hit\");\n\n        TubInterface tub = TubInterface(TUB_ADDRESS);\n\n        approveTub(MAKER_DAI_ADDRESS);\n        approveTub(MKR_ADDRESS);\n        approveTub(PETH_ADDRESS);\n        approveTub(WETH_ADDRESS);\n\n        uint startingRatio = getRatio(tub, _cup);\n\n        if (_amount > maxFreeCollateral(tub, _cup)) {\n            _amount = maxFreeCollateral(tub, _cup);\n        }\n\n        withdrawEth(tub, _cup, _amount);\n\n        uint daiAmount = add(wmul(_amount, ethDaiPrice), _borrowedAmount);\n        uint cdpWholeDebt = getDebt(tub, _cup);\n\n        uint mkrAmount = stabilityFeeInMkr(tub, _cup, sub(daiAmount, daiAmount / SERVICE_FEE));\n\n        if (daiAmount > cdpWholeDebt) {\n            mkrAmount = stabilityFeeInMkr(tub, _cup, cdpWholeDebt);\n        }\n\n        uint ethFee = wdiv(mkrAmount, estimatedMkrPrice(_amount));\n\n        uint change;\n        (, change) = ExchangeInterface(KYBER_WRAPPER).swapEtherToToken.\n                        value(ethFee)(ethFee, MKR_ADDRESS, mkrAmount);\n\n\n        _amount = sub(_amount, sub(ethFee, change));\n\n        (daiAmount, ) = ExchangeInterface(exchangeWrapper).swapEtherToToken.\n                            value(_amount)(_amount, MAKER_DAI_ADDRESS, uint(-1));\n\n        daiAmount = add(daiAmount, _borrowedAmount);\n\n        // Take a fee from the user in dai\n        daiAmount = sub(daiAmount, takeFee(daiAmount));\n\n        if (daiAmount > cdpWholeDebt) {\n            tub.wipe(_cup, cdpWholeDebt);\n            ERC20(MAKER_DAI_ADDRESS).transfer(msg.sender, sub(daiAmount, cdpWholeDebt));\n        } else {\n            tub.wipe(_cup, daiAmount);\n            // require(getRatio(tub, _cup) > startingRatio, \"ratio must be better off at the end\");\n        }\n\n        if (_borrowedAmount > 0) {\n            tub.draw(_cup, _borrowedAmount);\n            ERC20(MAKER_DAI_ADDRESS).transfer(msg.sender, _borrowedAmount);\n        }\n\n        SaverLogger(LOGGER_ADDRESS).LogRepay(uint(_cup), msg.sender, _amount, daiAmount);\n    }\n\n    /// @notice Boost will draw Dai, swap Dai -> Eth on kyber, and add that Eth to the CDP\n    /// @dev Amount must be less then the max. amount available Dai to generate\n    /// @param _cup Id of the CDP\n    /// @param _amount Amount of Dai to sell\n    /// @param _minPrice Minimum acaptable ETH/DAI price\n    function boost(bytes32 _cup, uint _amount, uint _minPrice, uint _borrowedAmount) public {\n        address exchangeWrapper;\n        uint daiEthPrice;\n\n        (exchangeWrapper, daiEthPrice) = getBestPrice(_amount, MAKER_DAI_ADDRESS, KYBER_ETH_ADDRESS, 0);\n\n        require(wdiv(1000000000000000000, daiEthPrice) < _minPrice, \"Slippage hit\");\n\n        TubInterface tub = TubInterface(TUB_ADDRESS);\n\n        approveTub(WETH_ADDRESS);\n        approveTub(PETH_ADDRESS);\n        approveTub(MAKER_DAI_ADDRESS);\n\n        uint maxAmount = maxFreeDai(tub, _cup);\n\n        if (_amount > maxAmount) {\n            _amount = maxAmount;\n        }\n\n        uint startingCollateral = tub.ink(_cup);\n\n        tub.draw(_cup, _amount);\n\n        _amount = add(_amount, _borrowedAmount);\n\n        // Take a fee from the user in dai\n        _amount = sub(_amount, takeFee(_amount));\n\n        uint ethAmount = swapDaiAndLockEth(tub, _cup, _amount, exchangeWrapper);\n\n        if (_borrowedAmount > 0) {\n            tub.draw(_cup, _borrowedAmount);\n            ERC20(MAKER_DAI_ADDRESS).transfer(msg.sender, _borrowedAmount);\n        }\n\n        // require(tub.ink(_cup) > startingCollateral, \"collateral must be bigger than starting point\");\n\n        SaverLogger(LOGGER_ADDRESS).LogBoost(uint(_cup), msg.sender, _amount, ethAmount);\n    }\n\n    /// @notice Max. amount of collateral available to withdraw\n    /// @param _tub Tub interface\n    /// @param _cup Id of the CDP\n    function maxFreeCollateral(TubInterface _tub, bytes32 _cup) public returns (uint) {\n        return sub(_tub.ink(_cup), wdiv(wmul(wmul(_tub.tab(_cup), rmul(_tub.mat(), WAD)),\n                VoxInterface(VOX_ADDRESS).par()), _tub.tag())) - 1;\n    }\n\n    /// @notice Max. amount of Dai available to generate\n    /// @param _tub Tub interface\n    /// @param _cup Id of the CDP\n    function maxFreeDai(TubInterface _tub, bytes32 _cup) public returns (uint) {\n        return sub(wdiv(rmul(_tub.ink(_cup), _tub.tag()), rmul(_tub.mat(), WAD)), _tub.tab(_cup)) - 1;\n    }\n\n    /// @notice Stability fee amount in Mkr\n    /// @param _tub Tub interface\n    /// @param _cup Id of the CDP\n    /// @param _daiRepay Amount of dai we are repaying\n    function stabilityFeeInMkr(TubInterface _tub, bytes32 _cup, uint _daiRepay) public returns (uint) {\n        bytes32 mkrPrice;\n        bool ok;\n\n        uint feeInDai = rmul(_daiRepay, rdiv(_tub.rap(_cup), _tub.tab(_cup)));\n\n        (mkrPrice, ok) = _tub.pep().peek();\n\n        return wdiv(feeInDai, uint(mkrPrice));\n    }\n\n    /// @notice Helper function which swaps Dai for Eth and adds the collateral to the CDP\n    /// @param _tub Tub interface\n    /// @param _cup Id of the CDP\n    /// @param _daiAmount Amount of Dai to swap for Eth\n    function swapDaiAndLockEth(TubInterface _tub, bytes32 _cup, uint _daiAmount, address _exchangeWrapper) internal returns(uint) {\n\n        ERC20(MAKER_DAI_ADDRESS).transfer(_exchangeWrapper, _daiAmount);\n\n        uint ethAmount = ExchangeInterface(_exchangeWrapper).swapTokenToEther(MAKER_DAI_ADDRESS, _daiAmount, uint(-1));\n\n        _tub.gem().deposit.value(ethAmount)();\n\n        uint ink = sub(rdiv(ethAmount, _tub.per()), 1);\n\n        _tub.join(ink);\n\n        _tub.lock(_cup, ink);\n\n        return ethAmount;\n    }\n\n    /// @notice Approve a token if it's not already approved\n    /// @param _tokenAddress Address of the ERC20 token we want to approve\n    function approveTub(address _tokenAddress) internal {\n        if (ERC20(_tokenAddress).allowance(msg.sender, _tokenAddress) < (uint(-1) / 2)) {\n            ERC20(_tokenAddress).approve(TUB_ADDRESS, uint(-1));\n        }\n    }\n\n    /// @notice Returns the current collaterlization ratio for the CDP\n    /// @param _tub Tub interface\n    /// @param _cup Id of the CDP\n    function getRatio(TubInterface _tub, bytes32 _cup) internal returns(uint) {\n        return (wdiv(rmul(rmul(_tub.ink(_cup), _tub.tag()), WAD), _tub.tab(_cup)));\n    }\n\n    /// @notice Helper function which withdraws collateral from CDP\n    /// @param _tub Tub interface\n    /// @param _cup Id of the CDP\n    /// @param _ethAmount Amount of Eth to withdraw\n    function withdrawEth(TubInterface _tub, bytes32 _cup, uint _ethAmount) internal {\n        uint ink = rdiv(_ethAmount, _tub.per());\n        _tub.free(_cup, ink);\n\n        _tub.exit(ink);\n        _tub.gem().withdraw(_ethAmount);\n    }\n\n    /// @notice Takes a feePercentage and sends it to wallet\n    /// @param _amount Dai amount of the whole trade\n    /// @return feeAmount Amount in Dai owner earned on the fee\n    function takeFee(uint _amount) internal returns (uint feeAmount) {\n        feeAmount = _amount / SERVICE_FEE;\n        ERC20(MAKER_DAI_ADDRESS).transfer(WALLET_ID, feeAmount);\n    }\n\n    /// @notice Returns the best estimated price from 2 exchanges\n    /// @param _amount Amount of source tokens you want to exchange\n    /// @param _srcToken Address of the source token\n    /// @param _destToken Address of the destination token\n    /// @return (address, uint) The address of the best exchange and the exchange price\n    function getBestPrice(uint _amount, address _srcToken, address _destToken, uint _exchangeType) internal returns (address, uint) {\n        uint expectedRateKyber;\n        uint expectedRateUniswap;\n        uint expectedRateEth2Dai;\n\n        (expectedRateKyber, ) = ExchangeInterface(KYBER_WRAPPER).getExpectedRate(_srcToken, _destToken, _amount);\n        (expectedRateUniswap, ) = ExchangeInterface(UNISWAP_WRAPPER).getExpectedRate(_srcToken, _destToken, _amount);\n        // (expectedRateEth2Dai, ) = ExchangeInterface(ETH2DAI_WRAPPER).getExpectedRate(_srcToken, _destToken, _amount);\n\n        if (_exchangeType == 1) {\n            return (ETH2DAI_WRAPPER, expectedRateEth2Dai);\n        }\n\n        if (_exchangeType == 2) {\n            return (KYBER_WRAPPER, expectedRateKyber);\n        }\n\n        if (_exchangeType == 3) {\n            return (UNISWAP_WRAPPER, expectedRateUniswap);\n        }\n\n        if (expectedRateEth2Dai > expectedRateKyber && expectedRateEth2Dai > expectedRateUniswap) {\n            return (ETH2DAI_WRAPPER, expectedRateEth2Dai);\n        }\n\n        if (expectedRateKyber > expectedRateUniswap && expectedRateKyber > expectedRateEth2Dai) {\n            return (KYBER_WRAPPER, expectedRateKyber);\n        }\n\n        if (expectedRateUniswap > expectedRateKyber && expectedRateUniswap > expectedRateEth2Dai) {\n            return (UNISWAP_WRAPPER, expectedRateUniswap);\n        }\n    }\n\n    /// @notice Returns expected rate for Eth -> Dai conversion\n    /// @param _amount Amount of Ether\n    function estimatedDaiPrice(uint _amount) internal returns (uint expectedRate) {\n        (expectedRate, ) = ExchangeInterface(KYBER_WRAPPER).getExpectedRate(KYBER_ETH_ADDRESS, MAKER_DAI_ADDRESS, _amount);\n    }\n\n    /// @notice Returns expected rate for Dai -> Eth conversion\n    /// @param _amount Amount of Dai\n    function estimatedEthPrice(uint _amount) internal returns (uint expectedRate) {\n        (expectedRate, ) = ExchangeInterface(KYBER_WRAPPER).getExpectedRate(MAKER_DAI_ADDRESS, KYBER_ETH_ADDRESS, _amount);\n    }\n\n    /// @notice Returns expected rate for Eth -> Mkr conversion\n    /// @param _amount Amount of Ether\n    function estimatedMkrPrice(uint _amount) internal returns (uint expectedRate) {\n        (expectedRate, ) = ExchangeInterface(KYBER_WRAPPER).getExpectedRate(KYBER_ETH_ADDRESS, MKR_ADDRESS, _amount);\n    }\n\n    /// @notice Returns current Dai debt of the CDP\n    /// @param _tub Tub interface\n    /// @param _cup Id of the CDP\n    function getDebt(TubInterface _tub, bytes32 _cup) internal returns (uint debt) {\n        ( , , debt, ) = _tub.cups(_cup);\n    }\n}\n",
  "sourcePath": "/Users/nikolaklipa/Decenter/defisaver/cdpsaver-contracts/contracts/SaverProxyMonitor.sol",
  "compiler": {
    "name": "solc",
    "version": "0.5.7+commit.6da8b019.Emscripten.clang"
  },
  "schemaVersion": "3.0.9",
  "updatedAt": "2019-08-12T10:52:18.116Z",
  "devdoc": {
    "methods": {
      "boost(bytes32,uint256,uint256,uint256)": {
        "details": "Amount must be less then the max. amount available Dai to generate",
        "params": {
          "_amount": "Amount of Dai to sell",
          "_cup": "Id of the CDP",
          "_minPrice": "Minimum acaptable ETH/DAI price"
        }
      },
      "maxFreeCollateral(address,bytes32)": {
        "params": {
          "_cup": "Id of the CDP",
          "_tub": "Tub interface"
        }
      },
      "maxFreeDai(address,bytes32)": {
        "params": {
          "_cup": "Id of the CDP",
          "_tub": "Tub interface"
        }
      },
      "repay(bytes32,uint256,uint256,uint256)": {
        "details": "If _buyMkr is false user needs to have MKR tokens and approve his DSProxy",
        "params": {
          "_amount": "Amount of Eth to sell",
          "_cup": "Id of the CDP",
          "_minPrice": "Minimum acaptable ETH/DAI price"
        }
      },
      "stabilityFeeInMkr(address,bytes32,uint256)": {
        "params": {
          "_cup": "Id of the CDP",
          "_daiRepay": "Amount of dai we are repaying",
          "_tub": "Tub interface"
        }
      },
      "getBestPrice(uint256,address,address,uint256)": {
        "params": {
          "_amount": "Amount of source tokens you want to exchange",
          "_destToken": "Address of the destination token",
          "_srcToken": "Address of the source token"
        },
        "return": "(address, uint) The address of the best exchange and the exchange price"
      }
    },
    "title": "SaverProxy implements advanced dashboard features repay/boost"
  },
  "userdoc": {
    "methods": {
      "boost(bytes32,uint256,uint256,uint256)": {
        "notice": "Boost will draw Dai, swap Dai -> Eth on kyber, and add that Eth to the CDP"
      },
      "maxFreeCollateral(address,bytes32)": {
        "notice": "Max. amount of collateral available to withdraw"
      },
      "maxFreeDai(address,bytes32)": {
        "notice": "Max. amount of Dai available to generate"
      },
      "repay(bytes32,uint256,uint256,uint256)": {
        "notice": "Withdraws Eth collateral, swaps Eth -> Dai with Kyber, and pays back the debt in Dai"
      },
      "stabilityFeeInMkr(address,bytes32,uint256)": {
        "notice": "Stability fee amount in Mkr"
      },
      "getBestPrice(uint256,address,address,uint256)": {
        "notice": "Returns the best estimated price from 2 exchanges"
      }
    }
  }
}