{
  "contractName": "SaverProxy",
  "abi": [
    {
      "constant": true,
      "inputs": [],
      "name": "WETH_ADDRESS",
      "outputs": [
        {
          "name": "",
          "type": "address"
        }
      ],
      "payable": false,
      "stateMutability": "view",
      "type": "function"
    },
    {
      "constant": true,
      "inputs": [],
      "name": "DAI_ADDRESS",
      "outputs": [
        {
          "name": "",
          "type": "address"
        }
      ],
      "payable": false,
      "stateMutability": "view",
      "type": "function"
    },
    {
      "constant": true,
      "inputs": [],
      "name": "VOX_ADDRESS",
      "outputs": [
        {
          "name": "",
          "type": "address"
        }
      ],
      "payable": false,
      "stateMutability": "view",
      "type": "function"
    },
    {
      "constant": true,
      "inputs": [],
      "name": "ETH2DAI_WRAPPER",
      "outputs": [
        {
          "name": "",
          "type": "address"
        }
      ],
      "payable": false,
      "stateMutability": "view",
      "type": "function"
    },
    {
      "constant": true,
      "inputs": [],
      "name": "SERVICE_FEE",
      "outputs": [
        {
          "name": "",
          "type": "uint256"
        }
      ],
      "payable": false,
      "stateMutability": "view",
      "type": "function"
    },
    {
      "constant": true,
      "inputs": [],
      "name": "MKR_ADDRESS",
      "outputs": [
        {
          "name": "",
          "type": "address"
        }
      ],
      "payable": false,
      "stateMutability": "view",
      "type": "function"
    },
    {
      "constant": true,
      "inputs": [],
      "name": "LOGGER_ADDRESS",
      "outputs": [
        {
          "name": "",
          "type": "address"
        }
      ],
      "payable": false,
      "stateMutability": "view",
      "type": "function"
    },
    {
      "constant": true,
      "inputs": [],
      "name": "KYBER_WRAPPER",
      "outputs": [
        {
          "name": "",
          "type": "address"
        }
      ],
      "payable": false,
      "stateMutability": "view",
      "type": "function"
    },
    {
      "constant": true,
      "inputs": [],
      "name": "PETH_ADDRESS",
      "outputs": [
        {
          "name": "",
          "type": "address"
        }
      ],
      "payable": false,
      "stateMutability": "view",
      "type": "function"
    },
    {
      "constant": true,
      "inputs": [],
      "name": "ETHER_ADDRESS",
      "outputs": [
        {
          "name": "",
          "type": "address"
        }
      ],
      "payable": false,
      "stateMutability": "view",
      "type": "function"
    },
    {
      "constant": true,
      "inputs": [],
      "name": "WALLET_ID",
      "outputs": [
        {
          "name": "",
          "type": "address"
        }
      ],
      "payable": false,
      "stateMutability": "view",
      "type": "function"
    },
    {
      "constant": true,
      "inputs": [],
      "name": "UNISWAP_WRAPPER",
      "outputs": [
        {
          "name": "",
          "type": "address"
        }
      ],
      "payable": false,
      "stateMutability": "view",
      "type": "function"
    },
    {
      "constant": true,
      "inputs": [],
      "name": "TUB_ADDRESS",
      "outputs": [
        {
          "name": "",
          "type": "address"
        }
      ],
      "payable": false,
      "stateMutability": "view",
      "type": "function"
    },
    {
      "constant": false,
      "inputs": [
        {
          "name": "_cup",
          "type": "bytes32"
        },
        {
          "name": "_amount",
          "type": "uint256"
        },
        {
          "name": "_minPrice",
          "type": "uint256"
        },
        {
          "name": "_exchangeType",
          "type": "uint256"
        }
      ],
      "name": "repay",
      "outputs": [],
      "payable": false,
      "stateMutability": "nonpayable",
      "type": "function"
    },
    {
      "constant": false,
      "inputs": [
        {
          "name": "_cup",
          "type": "bytes32"
        },
        {
          "name": "_amount",
          "type": "uint256"
        },
        {
          "name": "_minPrice",
          "type": "uint256"
        },
        {
          "name": "_exchangeType",
          "type": "uint256"
        }
      ],
      "name": "boost",
      "outputs": [],
      "payable": false,
      "stateMutability": "nonpayable",
      "type": "function"
    },
    {
      "constant": false,
      "inputs": [
        {
          "name": "_tub",
          "type": "address"
        },
        {
          "name": "_cup",
          "type": "bytes32"
        }
      ],
      "name": "maxFreeCollateral",
      "outputs": [
        {
          "name": "",
          "type": "uint256"
        }
      ],
      "payable": false,
      "stateMutability": "nonpayable",
      "type": "function"
    },
    {
      "constant": false,
      "inputs": [
        {
          "name": "_tub",
          "type": "address"
        },
        {
          "name": "_cup",
          "type": "bytes32"
        }
      ],
      "name": "maxFreeDai",
      "outputs": [
        {
          "name": "",
          "type": "uint256"
        }
      ],
      "payable": false,
      "stateMutability": "nonpayable",
      "type": "function"
    },
    {
      "constant": false,
      "inputs": [
        {
          "name": "_tub",
          "type": "address"
        },
        {
          "name": "_cup",
          "type": "bytes32"
        },
        {
          "name": "_daiRepay",
          "type": "uint256"
        }
      ],
      "name": "stabilityFeeInMkr",
      "outputs": [
        {
          "name": "",
          "type": "uint256"
        }
      ],
      "payable": false,
      "stateMutability": "nonpayable",
      "type": "function"
    }
  ],
  "bytecode": "0x608060405234801561001057600080fd5b50612bdc806100206000396000f3fe608060405234801561001057600080fd5b50600436106101165760003560e01c806394bfbe74116100a2578063cf1d21c011610071578063cf1d21c0146104ef578063d325a2c114610539578063d3661fa51461059b578063ddaa293c146105e5578063f0d405e51461062f57610116565b806394bfbe74146103a5578063b175afa1146103ef578063c387fd8614610439578063c9fde270146104a557610116565b80634c3e49f0116100e95780634c3e49f01461024357806350c86de51461028f57806367dc7736146102ad578063730fd680146102f9578063825ffd921461035b57610116565b8063040141e51461011b5780632a4c0a1a1461016557806336e6da11146101af57806343fb75e8146101f9575b600080fd5b610123610679565b604051808273ffffffffffffffffffffffffffffffffffffffff1673ffffffffffffffffffffffffffffffffffffffff16815260200191505060405180910390f35b61016d610691565b604051808273ffffffffffffffffffffffffffffffffffffffff1673ffffffffffffffffffffffffffffffffffffffff16815260200191505060405180910390f35b6101b76106a9565b604051808273ffffffffffffffffffffffffffffffffffffffff1673ffffffffffffffffffffffffffffffffffffffff16815260200191505060405180910390f35b6102016106c1565b604051808273ffffffffffffffffffffffffffffffffffffffff1673ffffffffffffffffffffffffffffffffffffffff16815260200191505060405180910390f35b61028d6004803603608081101561025957600080fd5b81019080803590602001909291908035906020019092919080359060200190929190803590602001909291905050506106d9565b005b610297610d9f565b6040518082815260200191505060405180910390f35b6102f7600480360360808110156102c357600080fd5b8101908080359060200190929190803590602001909291908035906020019092919080359060200190929190505050610da5565b005b6103456004803603604081101561030f57600080fd5b81019080803573ffffffffffffffffffffffffffffffffffffffff169060200190929190803590602001909291905050506110ef565b6040518082815260200191505060405180910390f35b610363611347565b604051808273ffffffffffffffffffffffffffffffffffffffff1673ffffffffffffffffffffffffffffffffffffffff16815260200191505060405180910390f35b6103ad61135f565b604051808273ffffffffffffffffffffffffffffffffffffffff1673ffffffffffffffffffffffffffffffffffffffff16815260200191505060405180910390f35b6103f7611377565b604051808273ffffffffffffffffffffffffffffffffffffffff1673ffffffffffffffffffffffffffffffffffffffff16815260200191505060405180910390f35b61048f6004803603606081101561044f57600080fd5b81019080803573ffffffffffffffffffffffffffffffffffffffff169060200190929190803590602001909291908035906020019092919050505061138f565b6040518082815260200191505060405180910390f35b6104ad6115f3565b604051808273ffffffffffffffffffffffffffffffffffffffff1673ffffffffffffffffffffffffffffffffffffffff16815260200191505060405180910390f35b6104f761160b565b604051808273ffffffffffffffffffffffffffffffffffffffff1673ffffffffffffffffffffffffffffffffffffffff16815260200191505060405180910390f35b6105856004803603604081101561054f57600080fd5b81019080803573ffffffffffffffffffffffffffffffffffffffff16906020019092919080359060200190929190505050611623565b6040518082815260200191505060405180910390f35b6105a361191a565b604051808273ffffffffffffffffffffffffffffffffffffffff1673ffffffffffffffffffffffffffffffffffffffff16815260200191505060405180910390f35b6105ed611932565b604051808273ffffffffffffffffffffffffffffffffffffffff1673ffffffffffffffffffffffffffffffffffffffff16815260200191505060405180910390f35b61063761194a565b604051808273ffffffffffffffffffffffffffffffffffffffff1673ffffffffffffffffffffffffffffffffffffffff16815260200191505060405180910390f35b73d0a1e359811322d97991e03f863a0c30c2cf029c81565b73c4375b7de8af5a38a93548eb8453a498222c4ff281565b73bb4339c0ab5b1d9f14bd6e3426444a1e9d86a1d981565b73823cde416973a19f98bb9c96d97f4fe6c9a7238b81565b6000806107108573eeeeeeeeeeeeeeeeeeeeeeeeeeeeeeeeeeeeeeee73c4375b7de8af5a38a93548eb8453a498222c4ff286611962565b809250819350505083811161078d576040517f08c379a000000000000000000000000000000000000000000000000000000000815260040180806020018281038252600b8152602001807f536c70706167652068697400000000000000000000000000000000000000000081525060200191505060405180910390fd5b600073a71937147b55deb8a530c7229c442fd3f31b7db290506107c373c4375b7de8af5a38a93548eb8453a498222c4ff2611cc7565b6107e073aaf64bfcc32d0f15873a02163e7e500671a4ffcd611cc7565b6107fd73f4d791139ce033ad35db2b2201435fad668b1b64611cc7565b61081a73d0a1e359811322d97991e03f863a0c30c2cf029c611cc7565b60006108268289611edf565b90506108328289611623565b871115610846576108438289611623565b96505b6108518289896120a9565b600061085d888561230a565b9050600061086b848b61234a565b9050600061088e858c61088986610190888161088357fe5b0461240a565b61138f565b9050818311156108a6576108a3858c8461138f565b90505b60006108ba826108b58d612424565b61256b565b90506000735595930d576aedf13945c83ce5aad827529a131073ffffffffffffffffffffffffffffffffffffffff166343ac1dc6838473aaf64bfcc32d0f15873a02163e7e500671a4ffcd876040518563ffffffff1660e01b8152600401808481526020018373ffffffffffffffffffffffffffffffffffffffff1673ffffffffffffffffffffffffffffffffffffffff168152602001828152602001935050505060408051808303818588803b15801561097457600080fd5b505af1158015610988573d6000803e3d6000fd5b50505050506040513d604081101561099f57600080fd5b8101908080519060200190929190805190602001909291905050509050809150506109d38c6109ce848461240a565b61240a565b9b508873ffffffffffffffffffffffffffffffffffffffff166343ac1dc68d8e73c4375b7de8af5a38a93548eb8453a498222c4ff27fffffffffffffffffffffffffffffffffffffffffffffffffffffffffffffffff6040518563ffffffff1660e01b8152600401808481526020018373ffffffffffffffffffffffffffffffffffffffff1673ffffffffffffffffffffffffffffffffffffffff168152602001828152602001935050505060408051808303818588803b158015610a9757600080fd5b505af1158015610aab573d6000803e3d6000fd5b50505050506040513d6040811015610ac257600080fd5b8101908080519060200190929190805190602001909291905050505080955050610af485610aef876125a3565b61240a565b945083851115610c56578673ffffffffffffffffffffffffffffffffffffffff166373b381018e866040518363ffffffff1660e01b81526004018083815260200182815260200192505050600060405180830381600087803b158015610b5957600080fd5b505af1158015610b6d573d6000803e3d6000fd5b5050505073c4375b7de8af5a38a93548eb8453a498222c4ff273ffffffffffffffffffffffffffffffffffffffff1663a9059cbb33610bac888861240a565b6040518363ffffffff1660e01b8152600401808373ffffffffffffffffffffffffffffffffffffffff1673ffffffffffffffffffffffffffffffffffffffff16815260200182815260200192505050602060405180830381600087803b158015610c1557600080fd5b505af1158015610c29573d6000803e3d6000fd5b505050506040513d6020811015610c3f57600080fd5b810190808051906020019092919050505050610cca565b8673ffffffffffffffffffffffffffffffffffffffff166373b381018e876040518363ffffffff1660e01b81526004018083815260200182815260200192505050600060405180830381600087803b158015610cb157600080fd5b505af1158015610cc5573d6000803e3d6000fd5b505050505b7332d0e18f988f952eb3524ace762042381a2c39e573ffffffffffffffffffffffffffffffffffffffff1663406bb32a8e60001c338f896040518563ffffffff1660e01b8152600401808581526020018473ffffffffffffffffffffffffffffffffffffffff1673ffffffffffffffffffffffffffffffffffffffff168152602001838152602001828152602001945050505050600060405180830381600087803b158015610d7857600080fd5b505af1158015610d8c573d6000803e3d6000fd5b5050505050505050505050505050505050565b61019081565b600080610ddc8573c4375b7de8af5a38a93548eb8453a498222c4ff273eeeeeeeeeeeeeeeeeeeeeeeeeeeeeeeeeeeeeeee86611962565b809250819350505083610df7670de0b6b3a76400008361256b565b10610e6a576040517f08c379a000000000000000000000000000000000000000000000000000000000815260040180806020018281038252600c8152602001807f536c69707061676520686974000000000000000000000000000000000000000081525060200191505060405180910390fd5b600073a71937147b55deb8a530c7229c442fd3f31b7db29050610ea073d0a1e359811322d97991e03f863a0c30c2cf029c611cc7565b610ebd73f4d791139ce033ad35db2b2201435fad668b1b64611cc7565b610eda73c4375b7de8af5a38a93548eb8453a498222c4ff2611cc7565b6000610ee682896110ef565b905080871115610ef4578096505b60008273ffffffffffffffffffffffffffffffffffffffff16631f3634ed8a6040518263ffffffff1660e01b815260040180828152602001915050602060405180830381600087803b158015610f4957600080fd5b505af1158015610f5d573d6000803e3d6000fd5b505050506040513d6020811015610f7357600080fd5b810190808051906020019092919050505090508273ffffffffffffffffffffffffffffffffffffffff1663440f19ba8a8a6040518363ffffffff1660e01b81526004018083815260200182815260200192505050600060405180830381600087803b158015610fe157600080fd5b505af1158015610ff5573d6000803e3d6000fd5b5050505061100b886110068a6125a3565b61240a565b9750600061101b848b8b896126a3565b90507332d0e18f988f952eb3524ace762042381a2c39e573ffffffffffffffffffffffffffffffffffffffff1663687710058b60001c338c856040518563ffffffff1660e01b8152600401808581526020018473ffffffffffffffffffffffffffffffffffffffff1673ffffffffffffffffffffffffffffffffffffffff168152602001838152602001828152602001945050505050600060405180830381600087803b1580156110cb57600080fd5b505af11580156110df573d6000803e3d6000fd5b5050505050505050505050505050565b6000600161133e6112ab6112128673ffffffffffffffffffffffffffffffffffffffff16631f3634ed876040518263ffffffff1660e01b815260040180828152602001915050602060405180830381600087803b15801561114f57600080fd5b505af1158015611163573d6000803e3d6000fd5b505050506040513d602081101561117957600080fd5b81019080805190602001909291905050508773ffffffffffffffffffffffffffffffffffffffff166351f910666040518163ffffffff1660e01b8152600401602060405180830381600087803b1580156111d257600080fd5b505af11580156111e6573d6000803e3d6000fd5b505050506040513d60208110156111fc57600080fd5b8101908080519060200190929190505050612ae6565b6112a68773ffffffffffffffffffffffffffffffffffffffff1663ab0783da6040518163ffffffff1660e01b8152600401602060405180830381600087803b15801561125d57600080fd5b505af1158015611271573d6000803e3d6000fd5b505050506040513d602081101561128757600080fd5b8101908080519060200190929190505050670de0b6b3a7640000612ae6565b61256b565b8573ffffffffffffffffffffffffffffffffffffffff1663f7c8d634866040518263ffffffff1660e01b815260040180828152602001915050602060405180830381600087803b1580156112fe57600080fd5b505af1158015611312573d6000803e3d6000fd5b505050506040513d602081101561132857600080fd5b810190808051906020019092919050505061240a565b03905092915050565b73aaf64bfcc32d0f15873a02163e7e500671a4ffcd81565b7332d0e18f988f952eb3524ace762042381a2c39e581565b735595930d576aedf13945c83ce5aad827529a131081565b6000806000806114c2856114bd8973ffffffffffffffffffffffffffffffffffffffff16636f78ee0d8a6040518263ffffffff1660e01b815260040180828152602001915050602060405180830381600087803b1580156113ef57600080fd5b505af1158015611403573d6000803e3d6000fd5b505050506040513d602081101561141957600080fd5b81019080805190602001909291905050508a73ffffffffffffffffffffffffffffffffffffffff1663f7c8d6348b6040518263ffffffff1660e01b815260040180828152602001915050602060405180830381600087803b15801561147d57600080fd5b505af1158015611491573d6000803e3d6000fd5b505050506040513d60208110156114a757600080fd5b8101908080519060200190929190505050612b2e565b612ae6565b90508673ffffffffffffffffffffffffffffffffffffffff1663ace237f56040518163ffffffff1660e01b8152600401602060405180830381600087803b15801561150c57600080fd5b505af1158015611520573d6000803e3d6000fd5b505050506040513d602081101561153657600080fd5b810190808051906020019092919050505073ffffffffffffffffffffffffffffffffffffffff166359e02dd76040518163ffffffff1660e01b81526004016040805180830381600087803b15801561158d57600080fd5b505af11580156115a1573d6000803e3d6000fd5b505050506040513d60408110156115b757600080fd5b81019080805190602001909291908051906020019092919050505080935081945050506115e7818460001c61256b565b93505050509392505050565b73f4d791139ce033ad35db2b2201435fad668b1b6481565b73eeeeeeeeeeeeeeeeeeeeeeeeeeeeeeeeeeeeeeee81565b600060016119118473ffffffffffffffffffffffffffffffffffffffff16631f3634ed856040518263ffffffff1660e01b815260040180828152602001915050602060405180830381600087803b15801561167d57600080fd5b505af1158015611691573d6000803e3d6000fd5b505050506040513d60208110156116a757600080fd5b810190808051906020019092919050505061190c6118846117e88873ffffffffffffffffffffffffffffffffffffffff1663f7c8d634896040518263ffffffff1660e01b815260040180828152602001915050602060405180830381600087803b15801561171457600080fd5b505af1158015611728573d6000803e3d6000fd5b505050506040513d602081101561173e57600080fd5b81019080805190602001909291905050506117e38a73ffffffffffffffffffffffffffffffffffffffff1663ab0783da6040518163ffffffff1660e01b8152600401602060405180830381600087803b15801561179a57600080fd5b505af11580156117ae573d6000803e3d6000fd5b505050506040513d60208110156117c457600080fd5b8101908080519060200190929190505050670de0b6b3a7640000612ae6565b61230a565b73bb4339c0ab5b1d9f14bd6e3426444a1e9d86a1d973ffffffffffffffffffffffffffffffffffffffff1663495d32cb6040518163ffffffff1660e01b8152600401602060405180830381600087803b15801561184457600080fd5b505af1158015611858573d6000803e3d6000fd5b505050506040513d602081101561186e57600080fd5b810190808051906020019092919050505061230a565b8773ffffffffffffffffffffffffffffffffffffffff166351f910666040518163ffffffff1660e01b8152600401602060405180830381600087803b1580156118cc57600080fd5b505af11580156118e0573d6000803e3d6000fd5b505050506040513d60208110156118f657600080fd5b810190808051906020019092919050505061256b565b61240a565b03905092915050565b7354b44c6b18fc0b4a1010b21d524c338d1f8065f681565b735595930d576aedf13945c83ce5aad827529a131081565b73a71937147b55deb8a530c7229c442fd3f31b7db281565b6000806000806000735595930d576aedf13945c83ce5aad827529a131073ffffffffffffffffffffffffffffffffffffffff1663809a9e5589898c6040518463ffffffff1660e01b8152600401808473ffffffffffffffffffffffffffffffffffffffff1673ffffffffffffffffffffffffffffffffffffffff1681526020018373ffffffffffffffffffffffffffffffffffffffff1673ffffffffffffffffffffffffffffffffffffffff16815260200182815260200193505050506040805180830381600087803b158015611a3857600080fd5b505af1158015611a4c573d6000803e3d6000fd5b505050506040513d6040811015611a6257600080fd5b8101908080519060200190929190805190602001909291905050505080935050735595930d576aedf13945c83ce5aad827529a131073ffffffffffffffffffffffffffffffffffffffff1663809a9e5589898c6040518463ffffffff1660e01b8152600401808473ffffffffffffffffffffffffffffffffffffffff1673ffffffffffffffffffffffffffffffffffffffff1681526020018373ffffffffffffffffffffffffffffffffffffffff1673ffffffffffffffffffffffffffffffffffffffff16815260200182815260200193505050506040805180830381600087803b158015611b5057600080fd5b505af1158015611b64573d6000803e3d6000fd5b505050506040513d6040811015611b7a57600080fd5b81019080805190602001909291908051906020019092919050505050809250506001861415611bc55773823cde416973a19f98bb9c96d97f4fe6c9a7238b8194509450505050611cbe565b6002861415611bf057735595930d576aedf13945c83ce5aad827529a13108394509450505050611cbe565b6003861415611c1b57735595930d576aedf13945c83ce5aad827529a13108294509450505050611cbe565b8281118015611c2957508181115b15611c505773823cde416973a19f98bb9c96d97f4fe6c9a7238b8194509450505050611cbe565b8183118015611c5e57508083115b15611c8557735595930d576aedf13945c83ce5aad827529a13108394509450505050611cbe565b8282118015611c9357508082115b15611cba57735595930d576aedf13945c83ce5aad827529a13108294509450505050611cbe565b5050505b94509492505050565b60027fffffffffffffffffffffffffffffffffffffffffffffffffffffffffffffffff81611cf157fe5b048173ffffffffffffffffffffffffffffffffffffffff1663dd62ed3e33846040518363ffffffff1660e01b8152600401808373ffffffffffffffffffffffffffffffffffffffff1673ffffffffffffffffffffffffffffffffffffffff1681526020018273ffffffffffffffffffffffffffffffffffffffff1673ffffffffffffffffffffffffffffffffffffffff1681526020019250505060206040518083038186803b158015611da357600080fd5b505afa158015611db7573d6000803e3d6000fd5b505050506040513d6020811015611dcd57600080fd5b81019080805190602001909291905050501015611edc578073ffffffffffffffffffffffffffffffffffffffff1663095ea7b373a71937147b55deb8a530c7229c442fd3f31b7db27fffffffffffffffffffffffffffffffffffffffffffffffffffffffffffffffff6040518363ffffffff1660e01b8152600401808373ffffffffffffffffffffffffffffffffffffffff1673ffffffffffffffffffffffffffffffffffffffff16815260200182815260200192505050602060405180830381600087803b158015611e9f57600080fd5b505af1158015611eb3573d6000803e3d6000fd5b505050506040513d6020811015611ec957600080fd5b8101908080519060200190929190505050505b50565b60006120a161200e6120008573ffffffffffffffffffffffffffffffffffffffff16631f3634ed866040518263ffffffff1660e01b815260040180828152602001915050602060405180830381600087803b158015611f3d57600080fd5b505af1158015611f51573d6000803e3d6000fd5b505050506040513d6020811015611f6757600080fd5b81019080805190602001909291905050508673ffffffffffffffffffffffffffffffffffffffff166351f910666040518163ffffffff1660e01b8152600401602060405180830381600087803b158015611fc057600080fd5b505af1158015611fd4573d6000803e3d6000fd5b505050506040513d6020811015611fea57600080fd5b8101908080519060200190929190505050612ae6565b670de0b6b3a7640000612ae6565b8473ffffffffffffffffffffffffffffffffffffffff1663f7c8d634856040518263ffffffff1660e01b815260040180828152602001915050602060405180830381600087803b15801561206157600080fd5b505af1158015612075573d6000803e3d6000fd5b505050506040513d602081101561208b57600080fd5b810190808051906020019092919050505061256b565b905092915050565b6000612137828573ffffffffffffffffffffffffffffffffffffffff16637ec9c3b86040518163ffffffff1660e01b8152600401602060405180830381600087803b1580156120f757600080fd5b505af115801561210b573d6000803e3d6000fd5b505050506040513d602081101561212157600080fd5b8101908080519060200190929190505050612b2e565b90508373ffffffffffffffffffffffffffffffffffffffff1663a5cd184e84836040518363ffffffff1660e01b81526004018083815260200182815260200192505050600060405180830381600087803b15801561219457600080fd5b505af11580156121a8573d6000803e3d6000fd5b505050508373ffffffffffffffffffffffffffffffffffffffff16637f8661a1826040518263ffffffff1660e01b815260040180828152602001915050600060405180830381600087803b1580156121ff57600080fd5b505af1158015612213573d6000803e3d6000fd5b505050508373ffffffffffffffffffffffffffffffffffffffff16637bd2bea76040518163ffffffff1660e01b8152600401602060405180830381600087803b15801561225f57600080fd5b505af1158015612273573d6000803e3d6000fd5b505050506040513d602081101561228957600080fd5b810190808051906020019092919050505073ffffffffffffffffffffffffffffffffffffffff16632e1a7d4d836040518263ffffffff1660e01b815260040180828152602001915050600060405180830381600087803b1580156122ec57600080fd5b505af1158015612300573d6000803e3d6000fd5b5050505050505050565b6000670de0b6b3a764000061233a6123228585612b6a565b6002670de0b6b3a76400008161233457fe5b04612b96565b8161234157fe5b04905092915050565b60008273ffffffffffffffffffffffffffffffffffffffff1663fdac0025836040518263ffffffff1660e01b815260040180828152602001915050608060405180830381600087803b15801561239f57600080fd5b505af11580156123b3573d6000803e3d6000fd5b505050506040513d60808110156123c957600080fd5b810190808051906020019092919080519060200190929190805190602001909291908051906020019092919050505090919250909150508091505092915050565b600082828403915081111561241e57600080fd5b92915050565b6000735595930d576aedf13945c83ce5aad827529a131073ffffffffffffffffffffffffffffffffffffffff1663809a9e5573eeeeeeeeeeeeeeeeeeeeeeeeeeeeeeeeeeeeeeee73aaf64bfcc32d0f15873a02163e7e500671a4ffcd856040518463ffffffff1660e01b8152600401808473ffffffffffffffffffffffffffffffffffffffff1673ffffffffffffffffffffffffffffffffffffffff1681526020018373ffffffffffffffffffffffffffffffffffffffff1673ffffffffffffffffffffffffffffffffffffffff16815260200182815260200193505050506040805180830381600087803b15801561251c57600080fd5b505af1158015612530573d6000803e3d6000fd5b505050506040513d604081101561254657600080fd5b8101908080519060200190929190805190602001909291905050505080915050919050565b60008161259361258385670de0b6b3a7640000612b6a565b6002858161258d57fe5b04612b96565b8161259a57fe5b04905092915050565b600061019082816125b057fe5b04905073c4375b7de8af5a38a93548eb8453a498222c4ff273ffffffffffffffffffffffffffffffffffffffff1663a9059cbb7354b44c6b18fc0b4a1010b21d524c338d1f8065f6836040518363ffffffff1660e01b8152600401808373ffffffffffffffffffffffffffffffffffffffff1673ffffffffffffffffffffffffffffffffffffffff16815260200182815260200192505050602060405180830381600087803b15801561266257600080fd5b505af1158015612676573d6000803e3d6000fd5b505050506040513d602081101561268c57600080fd5b810190808051906020019092919050505050919050565b600073c4375b7de8af5a38a93548eb8453a498222c4ff273ffffffffffffffffffffffffffffffffffffffff1663a9059cbb83856040518363ffffffff1660e01b8152600401808373ffffffffffffffffffffffffffffffffffffffff1673ffffffffffffffffffffffffffffffffffffffff16815260200182815260200192505050602060405180830381600087803b15801561274057600080fd5b505af1158015612754573d6000803e3d6000fd5b505050506040513d602081101561276a57600080fd5b81019080805190602001909291905050505060008273ffffffffffffffffffffffffffffffffffffffff16633bba21dc73c4375b7de8af5a38a93548eb8453a498222c4ff2867fffffffffffffffffffffffffffffffffffffffffffffffffffffffffffffffff6040518463ffffffff1660e01b8152600401808473ffffffffffffffffffffffffffffffffffffffff1673ffffffffffffffffffffffffffffffffffffffff1681526020018381526020018281526020019350505050602060405180830381600087803b15801561284157600080fd5b505af1158015612855573d6000803e3d6000fd5b505050506040513d602081101561286b57600080fd5b810190808051906020019092919050505090508573ffffffffffffffffffffffffffffffffffffffff16637bd2bea76040518163ffffffff1660e01b8152600401602060405180830381600087803b1580156128c657600080fd5b505af11580156128da573d6000803e3d6000fd5b505050506040513d60208110156128f057600080fd5b810190808051906020019092919050505073ffffffffffffffffffffffffffffffffffffffff1663d0e30db0826040518263ffffffff1660e01b81526004016000604051808303818588803b15801561294857600080fd5b505af115801561295c573d6000803e3d6000fd5b505050505060006129f96129f2838973ffffffffffffffffffffffffffffffffffffffff16637ec9c3b86040518163ffffffff1660e01b8152600401602060405180830381600087803b1580156129b257600080fd5b505af11580156129c6573d6000803e3d6000fd5b505050506040513d60208110156129dc57600080fd5b8101908080519060200190929190505050612b2e565b600161240a565b90508673ffffffffffffffffffffffffffffffffffffffff1663049878f3826040518263ffffffff1660e01b815260040180828152602001915050600060405180830381600087803b158015612a4e57600080fd5b505af1158015612a62573d6000803e3d6000fd5b505050508673ffffffffffffffffffffffffffffffffffffffff1663b3b77a5187836040518363ffffffff1660e01b81526004018083815260200182815260200192505050600060405180830381600087803b158015612ac157600080fd5b505af1158015612ad5573d6000803e3d6000fd5b505050508192505050949350505050565b60006b033b2e3c9fd0803ce8000000612b1e612b028585612b6a565b60026b033b2e3c9fd0803ce800000081612b1857fe5b04612b96565b81612b2557fe5b04905092915050565b600081612b5a612b4a856b033b2e3c9fd0803ce8000000612b6a565b60028581612b5457fe5b04612b96565b81612b6157fe5b04905092915050565b600080821480612b875750828283850292508281612b8457fe5b04145b612b9057600080fd5b92915050565b6000828284019150811015612baa57600080fd5b9291505056fea165627a7a72305820283993d92e74bef7a481470958e72ac5a0625c7c27b3ce4a01840a224b154af70029",
  "source": "pragma solidity ^0.5.0;\n\nimport \"./interfaces/TubInterface.sol\";\nimport \"./interfaces/ExchangeInterface.sol\";\nimport \"./DS/DSMath.sol\";\nimport \"./SaverLogger.sol\";\n\n/// @title SaverProxy implements advanced dashboard features repay/boost\ncontract SaverProxy is DSMath {\n    //KOVAN\n    address public constant WETH_ADDRESS = 0xd0A1E359811322d97991E03f863a0C30C2cF029C;\n    address public constant DAI_ADDRESS = 0xC4375B7De8af5a38a93548eb8453a498222C4fF2;\n    address public constant MKR_ADDRESS = 0xAaF64BFCC32d0F15873a02163e7E500671a4ffcD;\n    address public constant VOX_ADDRESS = 0xBb4339c0aB5B1d9f14Bd6e3426444A1e9d86A1d9;\n    address public constant PETH_ADDRESS = 0xf4d791139cE033Ad35DB2B2201435fAd668B1b64;\n    address public constant TUB_ADDRESS = 0xa71937147b55Deb8a530C7229C442Fd3F31b7db2;\n    address public constant ETHER_ADDRESS = 0xEeeeeEeeeEeEeeEeEeEeeEEEeeeeEeeeeeeeEEeE;\n    address public constant LOGGER_ADDRESS = 0x32d0e18f988F952Eb3524aCE762042381a2c39E5;\n    address public constant WALLET_ID = 0x54b44C6B18fc0b4A1010B21d524c338D1f8065F6;\n\n    uint public constant SERVICE_FEE = 400; // 0.25% Fee\n\n    address public constant KYBER_WRAPPER = 0x5595930d576Aedf13945C83cE5aaD827529A1310;\n    address public constant UNISWAP_WRAPPER = 0x5595930d576Aedf13945C83cE5aaD827529A1310;\n    address public constant ETH2DAI_WRAPPER = 0x823cde416973a19f98Bb9C96d97F4FE6C9A7238B;\n\n    /// @notice Withdraws Eth collateral, swaps Eth -> Dai with Kyber, and pays back the debt in Dai\n    /// @dev If _buyMkr is false user needs to have MKR tokens and approve his DSProxy\n    /// @param _cup Id of the CDP\n    /// @param _amount Amount of Eth to sell\n    /// @param _minPrice Minimum acaptable ETH/DAI price\n    function repay(bytes32 _cup, uint _amount, uint _minPrice, uint _exchangeType) public {\n        address exchangeWrapper;\n        uint ethDaiPrice;\n\n        (exchangeWrapper, ethDaiPrice) = getBestPrice(_amount, ETHER_ADDRESS, DAI_ADDRESS, _exchangeType);\n\n        require(ethDaiPrice > _minPrice, \"Slppage hit\");\n\n        TubInterface tub = TubInterface(TUB_ADDRESS);\n\n        approveTub(DAI_ADDRESS);\n        approveTub(MKR_ADDRESS);\n        approveTub(PETH_ADDRESS);\n        approveTub(WETH_ADDRESS);\n\n        uint startingRatio = getRatio(tub, _cup);\n\n        if (_amount > maxFreeCollateral(tub, _cup)) {\n            _amount = maxFreeCollateral(tub, _cup);\n        }\n\n        withdrawEth(tub, _cup, _amount);\n\n        uint daiAmount = wmul(_amount, ethDaiPrice);\n        uint cdpWholeDebt = getDebt(tub, _cup);\n\n        uint mkrAmount = stabilityFeeInMkr(tub, _cup, sub(daiAmount, daiAmount / SERVICE_FEE));\n\n        if (daiAmount > cdpWholeDebt) {\n            mkrAmount = stabilityFeeInMkr(tub, _cup, cdpWholeDebt);\n        }\n\n        uint ethFee = wdiv(mkrAmount, estimatedMkrPrice(_amount));\n\n        uint change;\n        (, change) = ExchangeInterface(KYBER_WRAPPER).swapEtherToToken.\n                        value(ethFee)(ethFee, MKR_ADDRESS, mkrAmount);\n\n\n        _amount = sub(_amount, sub(ethFee, change));\n\n        (daiAmount, ) = ExchangeInterface(exchangeWrapper).swapEtherToToken.\n                            value(_amount)(_amount, DAI_ADDRESS, uint(-1));\n\n         // Take a fee from the user in dai\n         daiAmount = sub(daiAmount, takeFee(daiAmount));\n        \n        if (daiAmount > cdpWholeDebt) {\n            tub.wipe(_cup, cdpWholeDebt);\n            ERC20(DAI_ADDRESS).transfer(msg.sender, sub(daiAmount, cdpWholeDebt));\n        } else {\n            tub.wipe(_cup, daiAmount);\n            // require(getRatio(tub, _cup) > startingRatio, \"ratio must be better off at the end\");\n        }\n\n        SaverLogger(LOGGER_ADDRESS).LogRepay(uint(_cup), msg.sender, _amount, daiAmount);\n    }\n\n    /// @notice Boost will draw Dai, swap Dai -> Eth on kyber, and add that Eth to the CDP\n    /// @dev Amount must be less then the max. amount available Dai to generate\n    /// @param _cup Id of the CDP\n    /// @param _amount Amount of Dai to sell\n    /// @param _minPrice Minimum acaptable ETH/DAI price\n    function boost(bytes32 _cup, uint _amount, uint _minPrice, uint _exchangeType) public {\n        address exchangeWrapper;\n        uint daiEthPrice;\n\n        (exchangeWrapper, daiEthPrice) = getBestPrice(_amount, DAI_ADDRESS, ETHER_ADDRESS, _exchangeType);\n\n        require(wdiv(1000000000000000000, daiEthPrice) < _minPrice, \"Slippage hit\");\n\n        TubInterface tub = TubInterface(TUB_ADDRESS);\n\n        approveTub(WETH_ADDRESS);\n        approveTub(PETH_ADDRESS);\n        approveTub(DAI_ADDRESS);\n        \n        uint maxAmount = maxFreeDai(tub, _cup);\n\n        if (_amount > maxAmount) {\n            _amount = maxAmount;\n        }\n\n        uint startingCollateral = tub.ink(_cup);\n        \n        tub.draw(_cup, _amount);\n\n        // Take a fee from the user in dai\n        _amount = sub(_amount, takeFee(_amount));\n        \n        uint ethAmount = swapDaiAndLockEth(tub, _cup, _amount, exchangeWrapper);\n\n        // require(tub.ink(_cup) > startingCollateral, \"collateral must be bigger than starting point\");\n        \n        SaverLogger(LOGGER_ADDRESS).LogBoost(uint(_cup), msg.sender, _amount, ethAmount);\n    }\n\n    /// @notice Max. amount of collateral available to withdraw\n    /// @param _tub Tub interface\n    /// @param _cup Id of the CDP\n    function maxFreeCollateral(TubInterface _tub, bytes32 _cup) public returns (uint) {\n        return sub(_tub.ink(_cup), wdiv(wmul(wmul(_tub.tab(_cup), rmul(_tub.mat(), WAD)),\n                VoxInterface(VOX_ADDRESS).par()), _tub.tag())) - 1;\n    }\n    \n    /// @notice Max. amount of Dai available to generate\n    /// @param _tub Tub interface\n    /// @param _cup Id of the CDP\n    function maxFreeDai(TubInterface _tub, bytes32 _cup) public returns (uint) {\n        return sub(wdiv(rmul(_tub.ink(_cup), _tub.tag()), rmul(_tub.mat(), WAD)), _tub.tab(_cup)) - 1;\n    }\n\n    /// @notice Stability fee amount in Mkr\n    /// @param _tub Tub interface\n    /// @param _cup Id of the CDP\n    /// @param _daiRepay Amount of dai we are repaying\n    function stabilityFeeInMkr(TubInterface _tub, bytes32 _cup, uint _daiRepay) public returns (uint) {\n        bytes32 mkrPrice;\n        bool ok;\n\n        uint feeInDai = rmul(_daiRepay, rdiv(_tub.rap(_cup), _tub.tab(_cup)));\n\n        (mkrPrice, ok) = _tub.pep().peek();\n\n        return wdiv(feeInDai, uint(mkrPrice));\n    }\n    \n    /// @notice Helper function which swaps Dai for Eth and adds the collateral to the CDP\n    /// @param _tub Tub interface\n    /// @param _cup Id of the CDP\n    /// @param _daiAmount Amount of Dai to swap for Eth\n    function swapDaiAndLockEth(TubInterface _tub, bytes32 _cup, uint _daiAmount, address _exchangeWrapper) internal returns(uint) {\n\n        ERC20(DAI_ADDRESS).transfer(_exchangeWrapper, _daiAmount);\n\n        uint ethAmount = ExchangeInterface(_exchangeWrapper).swapTokenToEther(DAI_ADDRESS, _daiAmount, uint(-1));\n        \n        _tub.gem().deposit.value(ethAmount)();\n\n        uint ink = sub(rdiv(ethAmount, _tub.per()), 1);\n        \n        _tub.join(ink);\n\n        _tub.lock(_cup, ink);\n        \n        return ethAmount;\n    }\n\n    /// @notice Approve a token if it's not already approved\n    /// @param _tokenAddress Address of the ERC20 token we want to approve\n    function approveTub(address _tokenAddress) internal {\n        if (ERC20(_tokenAddress).allowance(msg.sender, _tokenAddress) < (uint(-1) / 2)) {\n            ERC20(_tokenAddress).approve(TUB_ADDRESS, uint(-1));\n        }\n    }\n\n    /// @notice Returns the current collaterlization ratio for the CDP\n    /// @param _tub Tub interface\n    /// @param _cup Id of the CDP\n    function getRatio(TubInterface _tub, bytes32 _cup) internal returns(uint) {\n        return (wdiv(rmul(rmul(_tub.ink(_cup), _tub.tag()), WAD), _tub.tab(_cup)));\n    }\n\n    /// @notice Helper function which withdraws collateral from CDP\n    /// @param _tub Tub interface\n    /// @param _cup Id of the CDP\n    /// @param _ethAmount Amount of Eth to withdraw\n    function withdrawEth(TubInterface _tub, bytes32 _cup, uint _ethAmount) internal {\n        uint ink = rdiv(_ethAmount, _tub.per());\n        _tub.free(_cup, ink);\n        \n        _tub.exit(ink);\n        _tub.gem().withdraw(_ethAmount);\n    }\n\n    /// @notice Takes a feePercentage and sends it to wallet\n    /// @param _amount Dai amount of the whole trade\n    /// @return feeAmount Amount in Dai owner earned on the fee\n    function takeFee(uint _amount) internal returns (uint feeAmount) {\n        feeAmount = _amount / SERVICE_FEE;\n        ERC20(DAI_ADDRESS).transfer(WALLET_ID, feeAmount);\n    }\n\n    /// @notice Returns the best estimated price from 2 exchanges\n    /// @param _amount Amount of source tokens you want to exchange\n    /// @param _srcToken Address of the source token\n    /// @param _destToken Address of the destination token\n    /// @return (address, uint) The address of the best exchange and the exchange price\n    function getBestPrice(uint _amount, address _srcToken, address _destToken, uint _exchangeType) internal returns (address, uint) {\n        uint expectedRateKyber;\n        uint expectedRateUniswap;\n        uint expectedRateEth2Dai;\n\n        (expectedRateKyber, ) = ExchangeInterface(KYBER_WRAPPER).getExpectedRate(_srcToken, _destToken, _amount);\n        (expectedRateUniswap, ) = ExchangeInterface(UNISWAP_WRAPPER).getExpectedRate(_srcToken, _destToken, _amount);\n        // (expectedRateEth2Dai, ) = ExchangeInterface(ETH2DAI_WRAPPER).getExpectedRate(_srcToken, _destToken, _amount);\n\n        if (_exchangeType == 1) {\n            return (ETH2DAI_WRAPPER, expectedRateEth2Dai);\n        }\n\n        if (_exchangeType == 2) {\n            return (KYBER_WRAPPER, expectedRateKyber);\n        }\n\n        if (_exchangeType == 3) {\n            return (UNISWAP_WRAPPER, expectedRateUniswap);\n        }\n\n        if (expectedRateEth2Dai > expectedRateKyber && expectedRateEth2Dai > expectedRateUniswap) {\n            return (ETH2DAI_WRAPPER, expectedRateEth2Dai);\n        }\n\n        if (expectedRateKyber > expectedRateUniswap && expectedRateKyber > expectedRateEth2Dai) {\n            return (KYBER_WRAPPER, expectedRateKyber);\n        }\n\n        if (expectedRateUniswap > expectedRateKyber && expectedRateUniswap > expectedRateEth2Dai) {\n            return (UNISWAP_WRAPPER, expectedRateUniswap);\n        }\n    }\n\n    /// @notice Returns expected rate for Eth -> Dai conversion\n    /// @param _amount Amount of Ether\n    function estimatedDaiPrice(uint _amount) internal returns (uint expectedRate) {\n        (expectedRate, ) = ExchangeInterface(KYBER_WRAPPER).getExpectedRate(ETHER_ADDRESS, DAI_ADDRESS, _amount);\n    }\n\n    /// @notice Returns expected rate for Dai -> Eth conversion\n    /// @param _amount Amount of Dai\n    function estimatedEthPrice(uint _amount) internal returns (uint expectedRate) {\n        (expectedRate, ) = ExchangeInterface(KYBER_WRAPPER).getExpectedRate(DAI_ADDRESS, ETHER_ADDRESS, _amount);\n    }\n\n    /// @notice Returns expected rate for Eth -> Mkr conversion\n    /// @param _amount Amount of Ether\n    function estimatedMkrPrice(uint _amount) internal returns (uint expectedRate) {\n        (expectedRate, ) = ExchangeInterface(KYBER_WRAPPER).getExpectedRate(ETHER_ADDRESS, MKR_ADDRESS, _amount);\n    }\n\n    /// @notice Returns current Dai debt of the CDP\n    /// @param _tub Tub interface\n    /// @param _cup Id of the CDP\n    function getDebt(TubInterface _tub, bytes32 _cup) internal returns (uint debt) {\n        ( , , debt, ) = _tub.cups(_cup);\n    }\n}\n",
  "sourcePath": "/Users/nikolaklipa/Decenter/defisaver/cdpsaver-contracts/contracts/SaverProxy.sol",
  "compiler": {
    "name": "solc",
    "version": "0.5.7+commit.6da8b019.Emscripten.clang"
  },
  "schemaVersion": "3.0.9",
  "updatedAt": "2019-08-01T13:38:31.650Z",
  "devdoc": {
    "methods": {
      "boost(bytes32,uint256,uint256,uint256)": {
        "details": "Amount must be less then the max. amount available Dai to generate",
        "params": {
          "_amount": "Amount of Dai to sell",
          "_cup": "Id of the CDP",
          "_minPrice": "Minimum acaptable ETH/DAI price"
        }
      },
      "maxFreeCollateral(address,bytes32)": {
        "params": {
          "_cup": "Id of the CDP",
          "_tub": "Tub interface"
        }
      },
      "maxFreeDai(address,bytes32)": {
        "params": {
          "_cup": "Id of the CDP",
          "_tub": "Tub interface"
        }
      },
      "repay(bytes32,uint256,uint256,uint256)": {
        "details": "If _buyMkr is false user needs to have MKR tokens and approve his DSProxy",
        "params": {
          "_amount": "Amount of Eth to sell",
          "_cup": "Id of the CDP",
          "_minPrice": "Minimum acaptable ETH/DAI price"
        }
      },
      "stabilityFeeInMkr(address,bytes32,uint256)": {
        "params": {
          "_cup": "Id of the CDP",
          "_daiRepay": "Amount of dai we are repaying",
          "_tub": "Tub interface"
        }
      }
    },
    "title": "SaverProxy implements advanced dashboard features repay/boost"
  },
  "userdoc": {
    "methods": {
      "boost(bytes32,uint256,uint256,uint256)": {
        "notice": "Boost will draw Dai, swap Dai -> Eth on kyber, and add that Eth to the CDP"
      },
      "maxFreeCollateral(address,bytes32)": {
        "notice": "Max. amount of collateral available to withdraw"
      },
      "maxFreeDai(address,bytes32)": {
        "notice": "Max. amount of Dai available to generate"
      },
      "repay(bytes32,uint256,uint256,uint256)": {
        "notice": "Withdraws Eth collateral, swaps Eth -> Dai with Kyber, and pays back the debt in Dai"
      },
      "stabilityFeeInMkr(address,bytes32,uint256)": {
        "notice": "Stability fee amount in Mkr"
      }
    }
  }
}