{
  "contractName": "SavingsProxy",
  "abi": [
    {
      "constant": true,
      "inputs": [],
      "name": "WETH_ADDRESS",
      "outputs": [
        {
          "name": "",
          "type": "address"
        }
      ],
      "payable": false,
      "stateMutability": "view",
      "type": "function"
    },
    {
      "constant": true,
      "inputs": [],
      "name": "CDAI_ADDRESS",
      "outputs": [
        {
          "name": "",
          "type": "address"
        }
      ],
      "payable": false,
      "stateMutability": "view",
      "type": "function"
    },
    {
      "constant": true,
      "inputs": [],
      "name": "SAVINGS_DYDX_ADDRESS",
      "outputs": [
        {
          "name": "",
          "type": "address"
        }
      ],
      "payable": false,
      "stateMutability": "view",
      "type": "function"
    },
    {
      "constant": true,
      "inputs": [],
      "name": "PIP_INTERFACE_ADDRESS",
      "outputs": [
        {
          "name": "",
          "type": "address"
        }
      ],
      "payable": false,
      "stateMutability": "view",
      "type": "function"
    },
    {
      "constant": true,
      "inputs": [],
      "name": "KYBER_ETH_ADDRESS",
      "outputs": [
        {
          "name": "",
          "type": "address"
        }
      ],
      "payable": false,
      "stateMutability": "view",
      "type": "function"
    },
    {
      "constant": true,
      "inputs": [],
      "name": "OTC_ADDRESS",
      "outputs": [
        {
          "name": "",
          "type": "address"
        }
      ],
      "payable": false,
      "stateMutability": "view",
      "type": "function"
    },
    {
      "constant": true,
      "inputs": [],
      "name": "IDAI_ADDRESS",
      "outputs": [
        {
          "name": "",
          "type": "address"
        }
      ],
      "payable": false,
      "stateMutability": "view",
      "type": "function"
    },
    {
      "constant": true,
      "inputs": [],
      "name": "GAS_TOKEN_INTERFACE_ADDRESS",
      "outputs": [
        {
          "name": "",
          "type": "address"
        }
      ],
      "payable": false,
      "stateMutability": "view",
      "type": "function"
    },
    {
      "constant": true,
      "inputs": [],
      "name": "VOX_ADDRESS",
      "outputs": [
        {
          "name": "",
          "type": "address"
        }
      ],
      "payable": false,
      "stateMutability": "view",
      "type": "function"
    },
    {
      "constant": true,
      "inputs": [],
      "name": "SAVINGS_FULCRUM_ADDRESS",
      "outputs": [
        {
          "name": "",
          "type": "address"
        }
      ],
      "payable": false,
      "stateMutability": "view",
      "type": "function"
    },
    {
      "constant": true,
      "inputs": [],
      "name": "ETH2DAI_WRAPPER",
      "outputs": [
        {
          "name": "",
          "type": "address"
        }
      ],
      "payable": false,
      "stateMutability": "view",
      "type": "function"
    },
    {
      "constant": true,
      "inputs": [],
      "name": "STUPID_EXCHANGE",
      "outputs": [
        {
          "name": "",
          "type": "address"
        }
      ],
      "payable": false,
      "stateMutability": "view",
      "type": "function"
    },
    {
      "constant": true,
      "inputs": [],
      "name": "PROXY_REGISTRY_INTERFACE_ADDRESS",
      "outputs": [
        {
          "name": "",
          "type": "address"
        }
      ],
      "payable": false,
      "stateMutability": "view",
      "type": "function"
    },
    {
      "constant": true,
      "inputs": [],
      "name": "MKR_ADDRESS",
      "outputs": [
        {
          "name": "",
          "type": "address"
        }
      ],
      "payable": false,
      "stateMutability": "view",
      "type": "function"
    },
    {
      "constant": true,
      "inputs": [],
      "name": "FACTORY_ADDRESS",
      "outputs": [
        {
          "name": "",
          "type": "address"
        }
      ],
      "payable": false,
      "stateMutability": "view",
      "type": "function"
    },
    {
      "constant": true,
      "inputs": [],
      "name": "LOGGER_ADDRESS",
      "outputs": [
        {
          "name": "",
          "type": "address"
        }
      ],
      "payable": false,
      "stateMutability": "view",
      "type": "function"
    },
    {
      "constant": true,
      "inputs": [],
      "name": "MAKER_DAI_ADDRESS",
      "outputs": [
        {
          "name": "",
          "type": "address"
        }
      ],
      "payable": false,
      "stateMutability": "view",
      "type": "function"
    },
    {
      "constant": true,
      "inputs": [],
      "name": "KYBER_WRAPPER",
      "outputs": [
        {
          "name": "",
          "type": "address"
        }
      ],
      "payable": false,
      "stateMutability": "view",
      "type": "function"
    },
    {
      "constant": true,
      "inputs": [],
      "name": "COMPOUND_DAI_ADDRESS",
      "outputs": [
        {
          "name": "",
          "type": "address"
        }
      ],
      "payable": false,
      "stateMutability": "view",
      "type": "function"
    },
    {
      "constant": true,
      "inputs": [],
      "name": "UNISWAP_FACTORY",
      "outputs": [
        {
          "name": "",
          "type": "address"
        }
      ],
      "payable": false,
      "stateMutability": "view",
      "type": "function"
    },
    {
      "constant": true,
      "inputs": [],
      "name": "PETH_ADDRESS",
      "outputs": [
        {
          "name": "",
          "type": "address"
        }
      ],
      "payable": false,
      "stateMutability": "view",
      "type": "function"
    },
    {
      "constant": true,
      "inputs": [],
      "name": "KYBER_INTERFACE",
      "outputs": [
        {
          "name": "",
          "type": "address"
        }
      ],
      "payable": false,
      "stateMutability": "view",
      "type": "function"
    },
    {
      "constant": true,
      "inputs": [],
      "name": "WALLET_ID",
      "outputs": [
        {
          "name": "",
          "type": "address"
        }
      ],
      "payable": false,
      "stateMutability": "view",
      "type": "function"
    },
    {
      "constant": true,
      "inputs": [],
      "name": "SOLO_MARGIN_ADDRESS",
      "outputs": [
        {
          "name": "",
          "type": "address"
        }
      ],
      "payable": false,
      "stateMutability": "view",
      "type": "function"
    },
    {
      "constant": true,
      "inputs": [],
      "name": "UNISWAP_WRAPPER",
      "outputs": [
        {
          "name": "",
          "type": "address"
        }
      ],
      "payable": false,
      "stateMutability": "view",
      "type": "function"
    },
    {
      "constant": true,
      "inputs": [],
      "name": "TUB_ADDRESS",
      "outputs": [
        {
          "name": "",
          "type": "address"
        }
      ],
      "payable": false,
      "stateMutability": "view",
      "type": "function"
    },
    {
      "constant": true,
      "inputs": [],
      "name": "SAVINGS_COMPOUND_ADDRESS",
      "outputs": [
        {
          "name": "",
          "type": "address"
        }
      ],
      "payable": false,
      "stateMutability": "view",
      "type": "function"
    },
    {
      "constant": false,
      "inputs": [
        {
          "name": "_protocol",
          "type": "uint8"
        },
        {
          "name": "_amount",
          "type": "uint256"
        }
      ],
      "name": "deposit",
      "outputs": [],
      "payable": false,
      "stateMutability": "nonpayable",
      "type": "function"
    },
    {
      "constant": false,
      "inputs": [
        {
          "name": "_protocol",
          "type": "uint8"
        },
        {
          "name": "_amount",
          "type": "uint256"
        }
      ],
      "name": "withdraw",
      "outputs": [],
      "payable": false,
      "stateMutability": "nonpayable",
      "type": "function"
    },
    {
      "constant": false,
      "inputs": [
        {
          "name": "_from",
          "type": "uint8"
        },
        {
          "name": "_to",
          "type": "uint8"
        },
        {
          "name": "_amount",
          "type": "uint256"
        }
      ],
      "name": "swap",
      "outputs": [],
      "payable": false,
      "stateMutability": "nonpayable",
      "type": "function"
    },
    {
      "constant": false,
      "inputs": [],
      "name": "withdrawDai",
      "outputs": [],
      "payable": false,
      "stateMutability": "nonpayable",
      "type": "function"
    },
    {
      "constant": true,
      "inputs": [
        {
          "name": "_protocol",
          "type": "uint8"
        }
      ],
      "name": "getAddress",
      "outputs": [
        {
          "name": "",
          "type": "address"
        }
      ],
      "payable": false,
      "stateMutability": "pure",
      "type": "function"
    }
  ],
  "bytecode": "0x608060405234801561001057600080fd5b50611526806100206000396000f3fe608060405234801561001057600080fd5b50600436106101f05760003560e01c80638823151b1161010f578063ce9bde1d116100a2578063e4b6f79911610071578063e4b6f7991461054b578063f0d405e514610555578063f4d4c9d714610573578063fcbb81641461058f576101f0565b8063ce9bde1d146104d3578063d3661fa5146104f1578063d36b907d1461050f578063ddaa293c1461052d576101f0565b8063bcaa0c55116100de578063bcaa0c5514610449578063c16921b714610479578063c74c0fac14610497578063c9fde270146104b5576101f0565b80638823151b146103d157806394bfbe74146103ef5780639da779e91461040d578063b175afa11461042b576101f0565b806332ac5cd21161018757806343fb75e81161015657806343fb75e814610359578063502237d714610377578063728c009214610395578063825ffd92146103b3576101f0565b806332ac5cd2146102e357806336e6da11146103015780633f4899141461031f5780633f7b1ca11461033b576101f0565b80631dab52b0116101c35780631dab52b01461026b57806329f7fc9e146102895780632a441f05146102a75780632d5eeb3f146102c5576101f0565b8063040141e5146101f55780630531b2ad146102135780631ab62b68146102315780631ae3bc161461024d575b600080fd5b6101fd6105ad565b60405161020a9190611345565b60405180910390f35b61021b6105c5565b6040516102289190611345565b60405180910390f35b61024b600480360361024691908101906111a5565b6105dd565b005b6102556105f6565b6040516102629190611345565b60405180910390f35b61027361060e565b6040516102809190611345565b60405180910390f35b610291610626565b60405161029e9190611345565b60405180910390f35b6102af61063e565b6040516102bc9190611345565b60405180910390f35b6102cd610656565b6040516102da9190611345565b60405180910390f35b6102eb61066e565b6040516102f89190611345565b60405180910390f35b610309610681565b6040516103169190611345565b60405180910390f35b610339600480360361033491908101906111f4565b610699565b005b61034361072d565b6040516103509190611345565b60405180910390f35b610361610745565b60405161036e9190611345565b60405180910390f35b61037f61075d565b60405161038c9190611345565b60405180910390f35b61039d610775565b6040516103aa9190611345565b60405180910390f35b6103bb61078d565b6040516103c89190611345565b60405180910390f35b6103d96107a5565b6040516103e69190611345565b60405180910390f35b6103f76107bd565b6040516104049190611345565b60405180910390f35b6104156107d5565b6040516104229190611345565b60405180910390f35b6104336107ed565b6040516104409190611345565b60405180910390f35b610463600480360361045e919081019061117c565b610805565b6040516104709190611345565b60405180910390f35b6104816108bc565b60405161048e9190611345565b60405180910390f35b61049f6108d4565b6040516104ac9190611345565b60405180910390f35b6104bd6108ec565b6040516104ca9190611345565b60405180910390f35b6104db610904565b6040516104e89190611345565b60405180910390f35b6104f961091c565b6040516105069190611345565b60405180910390f35b610517610934565b6040516105249190611345565b60405180910390f35b61053561094c565b6040516105429190611345565b60405180910390f35b610553610964565b005b61055d610aa4565b60405161056a9190611345565b60405180910390f35b61058d600480360361058891908101906111f4565b610abc565b005b610597610b48565b6040516105a49190611345565b60405180910390f35b73d0a1e359811322d97991e03f863a0c30c2cf029c81565b73b6b09fbffba6a5c4631e5f7b2e3ee183ac259c0d81565b6105e78382610699565b6105f18282610abc565b505050565b7397a13567879471e1d6a3c37ab1017321980cd0ca81565b73a944bd4b25c9f186a846fd5668941aa3d3b8425f81565b73eeeeeeeeeeeeeeeeeeeeeeeeeeeeeeeeeeeeeeee81565b734a6bc4e803c62081ffebcc8d227b5a87a58f1f8f81565b73a1e58f3b1927743393b25f261471e1f2d3d9f0f681565b6e170ccc93903185be5a2094c870df6281565b73bb4339c0ab5b1d9f14bd6e3426444a1e9d86a1d981565b6106a38282610b60565b6106ac82610805565b73ffffffffffffffffffffffffffffffffffffffff1663f3fef3a330836040518363ffffffff1660e01b81526004016106e69291906113c0565b600060405180830381600087803b15801561070057600080fd5b505af1158015610714573d6000803e3d6000fd5b5050505061072182610d21565b610729610964565b5050565b730f0277ee54403a46f12d68eeb49e444fe0bd468281565b73823cde416973a19f98bb9c96d97f4fe6c9a7238b81565b73863e41fe88288ebf3fcd91d8dbb679fb83fdfe1781565b7364a436ae831c1672ae81f674cab8b6775df3475c81565b73aaf64bfcc32d0f15873a02163e7e500671a4ffcd81565b73c72e74e474682680a414b506699bbca44ab9a93081565b7332d0e18f988f952eb3524ace762042381a2c39e581565b73c4375b7de8af5a38a93548eb8453a498222c4ff281565b735595930d576aedf13945c83ce5aad827529a131081565b600080600281111561081357fe5b82600281111561081f57fe5b14156108415773ba7676a6c3e2ffff9f8d16e9c7b1e7848cc0f7de90506108b7565b6001600281111561084e57fe5b82600281111561085a57fe5b141561087c577397a13567879471e1d6a3c37ab1017321980cd0ca90506108b7565b60028081111561088857fe5b82600281111561089457fe5b14156108b657730f0277ee54403a46f12d68eeb49e444fe0bd468290506108b7565b5b919050565b7325a01a05c188dacbcf1d61af55d4a5b4021f7eed81565b73f5d915570bc477f9b8d6c0e980aa81757a3aac3681565b73f4d791139ce033ad35db2b2201435fad668b1b6481565b73692f391bcc85cefce8c237c01e1f636bbd70ea4d81565b7354b44c6b18fc0b4a1010b21d524c338d1f8065f681565b734ec3570cadaaee08ae384779b0f3a45ef85289de81565b735595930d576aedf13945c83ce5aad827529a131081565b73c4375b7de8af5a38a93548eb8453a498222c4ff273ffffffffffffffffffffffffffffffffffffffff1663a9059cbb3373c4375b7de8af5a38a93548eb8453a498222c4ff273ffffffffffffffffffffffffffffffffffffffff166370a08231306040518263ffffffff1660e01b81526004016109e29190611345565b60206040518083038186803b1580156109fa57600080fd5b505afa158015610a0e573d6000803e3d6000fd5b505050506040513d601f19601f82011682018060405250610a329190810190611230565b6040518363ffffffff1660e01b8152600401610a4f929190611397565b602060405180830381600087803b158015610a6957600080fd5b505af1158015610a7d573d6000803e3d6000fd5b505050506040513d601f19601f82011682018060405250610aa19190810190611153565b50565b73a71937147b55deb8a530c7229c442fd3f31b7db281565b610ac68282610d4e565b610acf82610805565b73ffffffffffffffffffffffffffffffffffffffff166347e7ef2430836040518363ffffffff1660e01b8152600401610b099291906113c0565b600060405180830381600087803b158015610b2357600080fd5b505af1158015610b37573d6000803e3d6000fd5b50505050610b4482610d21565b5050565b73ba7676a6c3e2ffff9f8d16e9c7b1e7848cc0f7de81565b60006002811115610b6d57fe5b826002811115610b7957fe5b1415610c2a5773b6b09fbffba6a5c4631e5f7b2e3ee183ac259c0d73ffffffffffffffffffffffffffffffffffffffff1663095ea7b3610bb884610805565b836040518363ffffffff1660e01b8152600401610bd69291906113c0565b602060405180830381600087803b158015610bf057600080fd5b505af1158015610c04573d6000803e3d6000fd5b505050506040513d601f19601f82011682018060405250610c289190810190611153565b505b60016002811115610c3757fe5b826002811115610c4357fe5b1415610c5457610c536001610fc0565b5b600280811115610c6057fe5b826002811115610c6c57fe5b1415610d1d5773a1e58f3b1927743393b25f261471e1f2d3d9f0f673ffffffffffffffffffffffffffffffffffffffff1663095ea7b3610cab84610805565b836040518363ffffffff1660e01b8152600401610cc99291906113c0565b602060405180830381600087803b158015610ce357600080fd5b505af1158015610cf7573d6000803e3d6000fd5b505050506040513d601f19601f82011682018060405250610d1b9190810190611153565b505b5050565b60016002811115610d2e57fe5b816002811115610d3a57fe5b1415610d4b57610d4a6000610fc0565b5b50565b73c4375b7de8af5a38a93548eb8453a498222c4ff273ffffffffffffffffffffffffffffffffffffffff166323b872dd3330846040518463ffffffff1660e01b8152600401610d9f93929190611360565b602060405180830381600087803b158015610db957600080fd5b505af1158015610dcd573d6000803e3d6000fd5b505050506040513d601f19601f82011682018060405250610df19190810190611153565b5060006002811115610dff57fe5b826002811115610e0b57fe5b1480610e2c5750600280811115610e1e57fe5b826002811115610e2a57fe5b145b15610edc5773c4375b7de8af5a38a93548eb8453a498222c4ff273ffffffffffffffffffffffffffffffffffffffff1663095ea7b3610e6a84610805565b836040518363ffffffff1660e01b8152600401610e889291906113c0565b602060405180830381600087803b158015610ea257600080fd5b505af1158015610eb6573d6000803e3d6000fd5b505050506040513d601f19601f82011682018060405250610eda9190810190611153565b505b60016002811115610ee957fe5b826002811115610ef557fe5b1415610fbc5773c4375b7de8af5a38a93548eb8453a498222c4ff273ffffffffffffffffffffffffffffffffffffffff1663095ea7b3734ec3570cadaaee08ae384779b0f3a45ef85289de836040518363ffffffff1660e01b8152600401610f5e9291906113c0565b602060405180830381600087803b158015610f7857600080fd5b505af1158015610f8c573d6000803e3d6000fd5b505050506040513d601f19601f82011682018060405250610fb09190810190611153565b50610fbb6001610fc0565b5b5050565b60606001604051908082528060200260200182016040528015610ffd57816020015b610fea6110d1565b815260200190600190039081610fe25790505b50905060405180604001604052806110156001610805565b73ffffffffffffffffffffffffffffffffffffffff1681526020018315158152508160008151811061104357fe5b6020026020010181905250734ec3570cadaaee08ae384779b0f3a45ef85289de73ffffffffffffffffffffffffffffffffffffffff166385b53fc8826040518263ffffffff1660e01b815260040161109b91906113e9565b600060405180830381600087803b1580156110b557600080fd5b505af11580156110c9573d6000803e3d6000fd5b505050505050565b6040518060400160405280600073ffffffffffffffffffffffffffffffffffffffff1681526020016000151581525090565b600061110f8251611489565b905092915050565b60006111238235611495565b905092915050565b600061113782356114ac565b905092915050565b600061114b82516114ac565b905092915050565b60006020828403121561116557600080fd5b600061117384828501611103565b91505092915050565b60006020828403121561118e57600080fd5b600061119c84828501611117565b91505092915050565b6000806000606084860312156111ba57600080fd5b60006111c886828701611117565b93505060206111d986828701611117565b92505060406111ea8682870161112b565b9150509250925092565b6000806040838503121561120757600080fd5b600061121585828601611117565b92505060206112268582860161112b565b9150509250929050565b60006020828403121561124257600080fd5b60006112508482850161113f565b91505092915050565b60006112658383611307565b60408301905092915050565b61127a816114b6565b82525050565b61128981611441565b82525050565b61129881611441565b82525050565b60006112a982611418565b6112b38185611430565b93506112be8361140b565b60005b828110156112ec576112d4868351611259565b95506112df82611423565b91506001810190506112c1565b50849250505092915050565b61130181611453565b82525050565b60408201600082015161131d6000850182611280565b50602082015161133060208501826112f8565b50505050565b61133f8161147f565b82525050565b600060208201905061135a600083018461128f565b92915050565b60006060820190506113756000830186611271565b611382602083018561128f565b61138f6040830184611336565b949350505050565b60006040820190506113ac6000830185611271565b6113b96020830184611336565b9392505050565b60006040820190506113d5600083018561128f565b6113e26020830184611336565b9392505050565b60006020820190508181036000830152611403818461129e565b905092915050565b6000602082019050919050565b600081519050919050565b6000602082019050919050565b600082825260208201905092915050565b600061144c8261145f565b9050919050565b60008115159050919050565b600073ffffffffffffffffffffffffffffffffffffffff82169050919050565b6000819050919050565b60008115159050919050565b6000600382106114a457600080fd5b819050919050565b6000819050919050565b60006114c1826114c8565b9050919050565b60006114d3826114da565b9050919050565b60006114e58261145f565b905091905056fea265627a7a7230582067d6238f5966c3f891162e95c0234ea25d75e49197213248cf32c816eb8013aa6c6578706572696d656e74616cf50037",
  "source": "pragma solidity ^0.5.0;\npragma experimental ABIEncoderV2;\n\nimport \"./ProtocolInterface.sol\";\nimport \"../interfaces/ERC20.sol\";\nimport \"../constants/ConstantAddresses.sol\";\nimport \"./dydx/ISoloMargin.sol\";\n\ncontract SavingsProxy is ConstantAddresses {\n\n    address constant public SAVINGS_COMPOUND_ADDRESS = 0xba7676a6c3E2FFff9f8d16e9C7b1e7848CC0f7DE;\n    address constant public SAVINGS_DYDX_ADDRESS = 0x97a13567879471E1d6a3C37AB1017321980cd0ca;\n    address constant public SAVINGS_FULCRUM_ADDRESS = 0x0F0277EE54403a46f12D68Eeb49e444FE0bd4682;\n\n    enum SavingsProtocol { Compound, Dydx, Fulcrum }\n\n    function deposit(SavingsProtocol _protocol, uint _amount) public {\n        approveDeposit(_protocol, _amount);\n\n        ProtocolInterface(getAddress(_protocol)).deposit(address(this), _amount);\n\n        endAction(_protocol);\n    }\n\n    function withdraw(SavingsProtocol _protocol, uint _amount) public {\n        approveWithdraw(_protocol, _amount);\n\n        ProtocolInterface(getAddress(_protocol)).withdraw(address(this), _amount);\n\n        endAction(_protocol);\n\n        withdrawDai();\n    }\n\n    function swap(SavingsProtocol _from, SavingsProtocol _to, uint _amount) public {\n        withdraw(_from, _amount);\n        deposit(_to, _amount);\n    }\n\n    // @dev only DSProxy holds dai, so if its called from random address, balance will be 0\n    function withdrawDai() public {\n\n        ERC20(MAKER_DAI_ADDRESS).transfer(msg.sender, ERC20(MAKER_DAI_ADDRESS).balanceOf(address(this)));\n    }\n\n\n    function getAddress(SavingsProtocol _protocol) public pure returns(address) {\n        if (_protocol == SavingsProtocol.Compound) {\n            return SAVINGS_COMPOUND_ADDRESS;\n        }\n\n        if (_protocol == SavingsProtocol.Dydx) {\n            return SAVINGS_DYDX_ADDRESS;\n        }\n\n        if (_protocol == SavingsProtocol.Fulcrum) {\n            return SAVINGS_FULCRUM_ADDRESS;\n        }\n    }\n\n    function endAction(SavingsProtocol _protocol)  internal {\n        if (_protocol == SavingsProtocol.Dydx) {\n            setDydxOperator(false);\n        }\n    }\n\n    function approveDeposit(SavingsProtocol _protocol, uint _amount) internal {\n        ERC20(MAKER_DAI_ADDRESS).transferFrom(msg.sender, address(this), _amount);\n\n        if (_protocol == SavingsProtocol.Compound || _protocol == SavingsProtocol.Fulcrum) {\n            ERC20(MAKER_DAI_ADDRESS).approve(getAddress(_protocol), _amount);\n        }\n\n        if (_protocol == SavingsProtocol.Dydx) {\n            ERC20(MAKER_DAI_ADDRESS).approve(SOLO_MARGIN_ADDRESS, _amount);\n            setDydxOperator(true);\n        }\n    }\n\n    function approveWithdraw(SavingsProtocol _protocol, uint _amount) internal {\n        if (_protocol == SavingsProtocol.Compound) {\n            ERC20(CDAI_ADDRESS).approve(getAddress(_protocol), _amount);\n        }\n\n        if (_protocol == SavingsProtocol.Dydx) {\n            setDydxOperator(true);\n        }\n\n        if (_protocol == SavingsProtocol.Fulcrum) {\n            ERC20(IDAI_ADDRESS).approve(getAddress(_protocol), _amount);\n        }\n    }\n\n    function setDydxOperator(bool _trusted) internal {\n        ISoloMargin.OperatorArg[] memory operatorArgs = new ISoloMargin.OperatorArg[](1);\n        operatorArgs[0] = ISoloMargin.OperatorArg({\n            operator: getAddress(SavingsProtocol.Dydx),\n            trusted: _trusted\n        });\n\n        ISoloMargin(SOLO_MARGIN_ADDRESS).setOperators(operatorArgs);\n    }\n}\n",
  "sourcePath": "/Users/nikolaklipa/Decenter/defisaver/cdpsaver-contracts/contracts/savings/SavingsProxy.sol",
  "compiler": {
    "name": "solc",
    "version": "0.5.7+commit.6da8b019.Emscripten.clang"
  },
  "schemaVersion": "3.0.11",
  "updatedAt": "2019-08-16T13:11:37.570Z",
  "devdoc": {
    "methods": {}
  },
  "userdoc": {
    "methods": {}
  }
}