{
  "contractName": "SavingsProxy",
  "abi": [
    {
      "constant": true,
      "inputs": [
        {
          "name": "",
          "type": "bytes32"
        }
      ],
      "name": "WETH_ADDRESS",
      "outputs": [
        {
          "name": "",
          "type": "address"
        }
      ],
      "payable": false,
      "stateMutability": "view",
      "type": "function"
    },
    {
      "constant": true,
      "inputs": [
        {
          "name": "_compoundProtocol",
          "type": "address"
        },
        {
          "name": "_dydxProtocol",
          "type": "address"
        },
        {
          "name": "_fulcrumProtocol",
          "type": "address"
        }
      ],
      "name": "CDAI_ADDRESS",
      "outputs": [
        {
          "name": "",
          "type": "address"
        }
      ],
      "payable": false,
      "stateMutability": "view",
      "type": "function"
    },
    {
      "constant": true,
      "inputs": [
        {
          "name": "_protocol",
          "type": "uint8"
        },
        {
          "name": "_amount",
          "type": "uint256"
        }
      ],
      "name": "SAVINGS_DYDX_ADDRESS",
      "outputs": [
        {
          "name": "",
          "type": "address"
        }
      ],
      "payable": false,
      "stateMutability": "view",
      "type": "function"
    },
    {
      "constant": true,
      "inputs": [
        {
          "name": "_protocol",
          "type": "uint8"
        },
        {
          "name": "_amount",
          "type": "uint256"
        }
      ],
      "name": "PIP_INTERFACE_ADDRESS",
      "outputs": [
        {
          "name": "",
          "type": "address"
        }
      ],
      "payable": false,
      "stateMutability": "view",
      "type": "function"
    },
    {
      "constant": true,
      "inputs": [
        {
          "name": "_from",
          "type": "uint8"
        },
        {
          "name": "_to",
          "type": "uint8"
        },
        {
          "name": "_amount",
          "type": "uint256"
        }
      ],
      "name": "KYBER_ETH_ADDRESS",
      "outputs": [
        {
          "name": "",
          "type": "address"
        }
      ],
      "payable": false,
      "stateMutability": "view",
      "type": "function"
    },
    {
      "constant": true,
      "inputs": [
        {
          "name": "_protocol",
          "type": "uint8"
        }
      ],
      "name": "OTC_ADDRESS",
      "outputs": [
        {
          "name": "",
          "type": "address"
        }
      ],
      "payable": false,
      "stateMutability": "view",
      "type": "function"
    },
    {
      "constant": true,
      "inputs": [],
      "name": "IDAI_ADDRESS",
      "outputs": [
        {
          "name": "",
          "type": "address"
        }
      ],
      "payable": false,
      "stateMutability": "view",
      "type": "function"
    },
    {
      "constant": true,
      "inputs": [],
      "name": "GAS_TOKEN_INTERFACE_ADDRESS",
      "outputs": [
        {
          "name": "",
          "type": "address"
        }
      ],
      "payable": false,
      "stateMutability": "view",
      "type": "function"
    },
    {
      "constant": true,
      "inputs": [],
      "name": "VOX_ADDRESS",
      "outputs": [
        {
          "name": "",
          "type": "address"
        }
      ],
      "payable": false,
      "stateMutability": "view",
      "type": "function"
    },
    {
      "constant": true,
      "inputs": [],
      "name": "SAVINGS_FULCRUM_ADDRESS",
      "outputs": [
        {
          "name": "",
          "type": "address"
        }
      ],
      "payable": false,
      "stateMutability": "view",
      "type": "function"
    },
    {
      "constant": true,
      "inputs": [
        {
          "name": "",
          "type": "bytes32"
        }
      ],
      "name": "ETH2DAI_WRAPPER",
      "outputs": [
        {
          "name": "",
          "type": "address"
        }
      ],
      "payable": false,
      "stateMutability": "view",
      "type": "function"
    },
    {
      "constant": true,
      "inputs": [],
      "name": "STUPID_EXCHANGE",
      "outputs": [
        {
          "name": "",
          "type": "address"
        }
      ],
      "payable": false,
      "stateMutability": "view",
      "type": "function"
    },
    {
      "constant": true,
      "inputs": [],
      "name": "PROXY_REGISTRY_INTERFACE_ADDRESS",
      "outputs": [
        {
          "name": "",
          "type": "address"
        }
      ],
      "payable": false,
      "stateMutability": "view",
      "type": "function"
    },
    {
      "constant": true,
      "inputs": [],
      "name": "MKR_ADDRESS",
      "outputs": [
        {
          "name": "",
          "type": "address"
        }
      ],
      "payable": false,
      "stateMutability": "view",
      "type": "function"
    },
    {
      "constant": true,
      "inputs": [],
      "name": "FACTORY_ADDRESS",
      "outputs": [
        {
          "name": "",
          "type": "address"
        }
      ],
      "payable": false,
      "stateMutability": "view",
      "type": "function"
    },
    {
      "constant": true,
      "inputs": [],
      "name": "LOGGER_ADDRESS",
      "outputs": [
        {
          "name": "",
          "type": "address"
        }
      ],
      "payable": false,
      "stateMutability": "view",
      "type": "function"
    },
    {
      "constant": true,
      "inputs": [],
      "name": "MAKER_DAI_ADDRESS",
      "outputs": [
        {
          "name": "",
          "type": "address"
        }
      ],
      "payable": false,
      "stateMutability": "view",
      "type": "function"
    },
    {
      "constant": true,
      "inputs": [],
      "name": "KYBER_WRAPPER",
      "outputs": [
        {
          "name": "",
          "type": "address"
        }
      ],
      "payable": false,
      "stateMutability": "view",
      "type": "function"
    },
    {
      "constant": true,
      "inputs": [],
      "name": "COMPOUND_DAI_ADDRESS",
      "outputs": [
        {
          "name": "",
          "type": "address"
        }
      ],
      "payable": false,
      "stateMutability": "view",
      "type": "function"
    },
    {
      "constant": true,
      "inputs": [],
      "name": "UNISWAP_FACTORY",
      "outputs": [
        {
          "name": "",
          "type": "address"
        }
      ],
      "payable": false,
      "stateMutability": "view",
      "type": "function"
    },
    {
      "constant": true,
      "inputs": [],
      "name": "PETH_ADDRESS",
      "outputs": [
        {
          "name": "",
          "type": "address"
        }
      ],
      "payable": false,
      "stateMutability": "view",
      "type": "function"
    },
    {
      "constant": true,
      "inputs": [],
      "name": "KYBER_INTERFACE",
      "outputs": [
        {
          "name": "",
          "type": "address"
        }
      ],
      "payable": false,
      "stateMutability": "view",
      "type": "function"
    },
    {
      "constant": true,
      "inputs": [],
      "name": "WALLET_ID",
      "outputs": [
        {
          "name": "",
          "type": "address"
        }
      ],
      "payable": false,
      "stateMutability": "view",
      "type": "function"
    },
    {
      "constant": true,
      "inputs": [],
      "name": "SOLO_MARGIN_ADDRESS",
      "outputs": [
        {
          "name": "",
          "type": "address"
        }
      ],
      "payable": false,
      "stateMutability": "view",
      "type": "function"
    },
    {
      "constant": true,
      "inputs": [],
      "name": "UNISWAP_WRAPPER",
      "outputs": [
        {
          "name": "",
          "type": "address"
        }
      ],
      "payable": false,
      "stateMutability": "view",
      "type": "function"
    },
    {
      "constant": true,
      "inputs": [
        {
          "name": "_compoundProtocol",
          "type": "address"
        },
        {
          "name": "_dydxProtocol",
          "type": "address"
        },
        {
          "name": "_fulcrumProtocol",
          "type": "address"
        }
      ],
      "name": "TUB_ADDRESS",
      "outputs": [
        {
          "name": "",
          "type": "address"
        }
      ],
      "payable": false,
      "stateMutability": "view",
      "type": "function"
    },
    {
      "constant": true,
      "inputs": [
        {
          "name": "_protocol",
          "type": "uint8"
        },
        {
          "name": "_amount",
          "type": "uint256"
        }
      ],
      "name": "SAVINGS_COMPOUND_ADDRESS",
      "outputs": [
        {
          "name": "",
          "type": "address"
        }
      ],
      "payable": false,
      "stateMutability": "view",
      "type": "function"
    },
    {
      "constant": false,
      "inputs": [
        {
          "name": "_protocol",
          "type": "uint8"
        },
        {
          "name": "_amount",
          "type": "uint256"
        }
      ],
      "name": "deposit",
      "outputs": [],
      "payable": false,
      "stateMutability": "nonpayable",
      "type": "function"
    },
    {
      "constant": false,
      "inputs": [
        {
          "name": "_protocol",
          "type": "uint8"
        },
        {
          "name": "_amount",
          "type": "uint256"
        },
        {
          "name": "_amount",
          "type": "uint256"
        }
      ],
      "name": "withdraw",
      "outputs": [],
      "payable": false,
      "stateMutability": "nonpayable",
      "type": "function"
    },
    {
      "constant": false,
      "inputs": [
        {
          "name": "_from",
          "type": "uint8"
        },
        {
          "name": "_to",
          "type": "uint8"
        },
        {
          "name": "_amount",
          "type": "uint256"
        }
      ],
      "name": "swap",
      "outputs": [
        {
          "name": "",
          "type": "bytes32"
        }
      ],
      "payable": false,
      "stateMutability": "nonpayable",
      "type": "function"
    },
    {
      "constant": true,
      "inputs": [
        {
          "name": "_protocol",
          "type": "uint8"
        }
      ],
      "name": "getAddress",
      "outputs": [
        {
          "name": "",
          "type": "address"
        }
      ],
      "payable": false,
      "stateMutability": "view",
      "type": "function"
    }
  ],
  "bytecode": "0x608060405234801561001057600080fd5b5061145f806100206000396000f3fe608060405234801561001057600080fd5b50600436106101e55760003560e01c8063825ffd921161010f578063c9fde270116100a2578063ddaa293c11610071578063ddaa293c14610522578063f0d405e514610540578063f4d4c9d71461055e578063fcbb81641461057a576101e5565b8063c9fde270146104aa578063ce9bde1d146104c8578063d3661fa5146104e6578063d36b907d14610504576101e5565b8063b175afa1116100de578063b175afa114610420578063bcaa0c551461043e578063c16921b71461046e578063c74c0fac1461048c576101e5565b8063825ffd92146103a85780638823151b146103c657806394bfbe74146103e45780639da779e914610402576101e5565b80632d5eeb3f116101875780633f7b1ca1116101565780633f7b1ca11461033057806343fb75e81461034e578063502237d71461036c578063728c00921461038a576101e5565b80632d5eeb3f146102ba57806332ac5cd2146102d857806336e6da11146102f65780633f48991414610314576101e5565b80631ae3bc16116101c35780631ae3bc16146102425780631dab52b01461026057806329f7fc9e1461027e5780632a441f051461029c576101e5565b8063040141e5146101ea5780630531b2ad146102085780631ab62b6814610226575b600080fd5b6101f2610598565b6040516101ff91906112a7565b60405180910390f35b6102106105b0565b60405161021d91906112a7565b60405180910390f35b610240600480360361023b9190810190611130565b6105c8565b005b61024a6106dd565b60405161025791906112a7565b60405180910390f35b6102686106f5565b60405161027591906112a7565b60405180910390f35b61028661070d565b60405161029391906112a7565b60405180910390f35b6102a4610725565b6040516102b191906112a7565b60405180910390f35b6102c261073d565b6040516102cf91906112a7565b60405180910390f35b6102e0610755565b6040516102ed91906112a7565b60405180910390f35b6102fe610768565b60405161030b91906112a7565b60405180910390f35b61032e6004803603610329919081019061117f565b610780565b005b61033861080c565b60405161034591906112a7565b60405180910390f35b610356610824565b60405161036391906112a7565b60405180910390f35b61037461083c565b60405161038191906112a7565b60405180910390f35b610392610854565b60405161039f91906112a7565b60405180910390f35b6103b061086c565b6040516103bd91906112a7565b60405180910390f35b6103ce610884565b6040516103db91906112a7565b60405180910390f35b6103ec61089c565b6040516103f991906112a7565b60405180910390f35b61040a6108b4565b60405161041791906112a7565b60405180910390f35b6104286108cc565b60405161043591906112a7565b60405180910390f35b61045860048036036104539190810190611107565b6108e4565b60405161046591906112a7565b60405180910390f35b61047661099b565b60405161048391906112a7565b60405180910390f35b6104946109b3565b6040516104a191906112a7565b60405180910390f35b6104b26109cb565b6040516104bf91906112a7565b60405180910390f35b6104d06109e3565b6040516104dd91906112a7565b60405180910390f35b6104ee6109fb565b6040516104fb91906112a7565b60405180910390f35b61050c610a13565b60405161051991906112a7565b60405180910390f35b61052a610a2b565b60405161053791906112a7565b60405180910390f35b610548610a43565b60405161055591906112a7565b60405180910390f35b6105786004803603610573919081019061117f565b610a5b565b005b610582610ae7565b60405161058f91906112a7565b60405180910390f35b73d0a1e359811322d97991e03f863a0c30c2cf029c81565b73b6b09fbffba6a5c4631e5f7b2e3ee183ac259c0d81565b6105d28382610aff565b6105dc8282610cc0565b6105e5836108e4565b73ffffffffffffffffffffffffffffffffffffffff1663f3fef3a330836040518363ffffffff1660e01b815260040161061f9291906112f9565b600060405180830381600087803b15801561063957600080fd5b505af115801561064d573d6000803e3d6000fd5b5050505061065a826108e4565b73ffffffffffffffffffffffffffffffffffffffff166347e7ef2430836040518363ffffffff1660e01b81526004016106949291906112f9565b600060405180830381600087803b1580156106ae57600080fd5b505af11580156106c2573d6000803e3d6000fd5b505050506106cf83610f32565b6106d882610f32565b505050565b7313903074023f8a269671e12401cce148ea18784d81565b73a944bd4b25c9f186a846fd5668941aa3d3b8425f81565b73eeeeeeeeeeeeeeeeeeeeeeeeeeeeeeeeeeeeeeee81565b734a6bc4e803c62081ffebcc8d227b5a87a58f1f8f81565b73b6b09fbffba6a5c4631e5f7b2e3ee183ac259c0d81565b6e170ccc93903185be5a2094c870df6281565b73bb4339c0ab5b1d9f14bd6e3426444a1e9d86a1d981565b61078a8282610aff565b610793826108e4565b73ffffffffffffffffffffffffffffffffffffffff1663f3fef3a330836040518363ffffffff1660e01b81526004016107cd9291906112f9565b600060405180830381600087803b1580156107e757600080fd5b505af11580156107fb573d6000803e3d6000fd5b5050505061080882610f32565b5050565b73560d427777a206e3152b9b2a998ac52a8660269a81565b73823cde416973a19f98bb9c96d97f4fe6c9a7238b81565b73863e41fe88288ebf3fcd91d8dbb679fb83fdfe1781565b7364a436ae831c1672ae81f674cab8b6775df3475c81565b73aaf64bfcc32d0f15873a02163e7e500671a4ffcd81565b73c72e74e474682680a414b506699bbca44ab9a93081565b7332d0e18f988f952eb3524ace762042381a2c39e581565b73c4375b7de8af5a38a93548eb8453a498222c4ff281565b735595930d576aedf13945c83ce5aad827529a131081565b60008060028111156108f257fe5b8260028111156108fe57fe5b141561092057735bdf0b2faf59639f41946ee2deba90f0e02eb8679050610996565b6001600281111561092d57fe5b82600281111561093957fe5b141561095b577313903074023f8a269671e12401cce148ea18784d9050610996565b60028081111561096757fe5b82600281111561097357fe5b14156109955773560d427777a206e3152b9b2a998ac52a8660269a9050610996565b5b919050565b7325a01a05c188dacbcf1d61af55d4a5b4021f7eed81565b73f5d915570bc477f9b8d6c0e980aa81757a3aac3681565b73f4d791139ce033ad35db2b2201435fad668b1b6481565b73692f391bcc85cefce8c237c01e1f636bbd70ea4d81565b7354b44c6b18fc0b4a1010b21d524c338d1f8065f681565b734ec3570cadaaee08ae384779b0f3a45ef85289de81565b735595930d576aedf13945c83ce5aad827529a131081565b73a71937147b55deb8a530c7229c442fd3f31b7db281565b610a658282610cc0565b610a6e826108e4565b73ffffffffffffffffffffffffffffffffffffffff166347e7ef2430836040518363ffffffff1660e01b8152600401610aa89291906112f9565b600060405180830381600087803b158015610ac257600080fd5b505af1158015610ad6573d6000803e3d6000fd5b50505050610ae382610f32565b5050565b735bdf0b2faf59639f41946ee2deba90f0e02eb86781565b60006002811115610b0c57fe5b826002811115610b1857fe5b1415610bc95773b6b09fbffba6a5c4631e5f7b2e3ee183ac259c0d73ffffffffffffffffffffffffffffffffffffffff1663095ea7b3610b57846108e4565b836040518363ffffffff1660e01b8152600401610b759291906112f9565b602060405180830381600087803b158015610b8f57600080fd5b505af1158015610ba3573d6000803e3d6000fd5b505050506040513d601f19601f82011682018060405250610bc791908101906110de565b505b60016002811115610bd657fe5b826002811115610be257fe5b1415610bf357610bf26001610f5f565b5b600280811115610bff57fe5b826002811115610c0b57fe5b1415610cbc5773b6b09fbffba6a5c4631e5f7b2e3ee183ac259c0d73ffffffffffffffffffffffffffffffffffffffff1663095ea7b3610c4a846108e4565b836040518363ffffffff1660e01b8152600401610c689291906112f9565b602060405180830381600087803b158015610c8257600080fd5b505af1158015610c96573d6000803e3d6000fd5b505050506040513d601f19601f82011682018060405250610cba91908101906110de565b505b5050565b73c4375b7de8af5a38a93548eb8453a498222c4ff273ffffffffffffffffffffffffffffffffffffffff166323b872dd3330846040518463ffffffff1660e01b8152600401610d11939291906112c2565b602060405180830381600087803b158015610d2b57600080fd5b505af1158015610d3f573d6000803e3d6000fd5b505050506040513d601f19601f82011682018060405250610d6391908101906110de565b5060006002811115610d7157fe5b826002811115610d7d57fe5b1480610d9e5750600280811115610d9057fe5b826002811115610d9c57fe5b145b15610e4e5773c4375b7de8af5a38a93548eb8453a498222c4ff273ffffffffffffffffffffffffffffffffffffffff1663095ea7b3610ddc846108e4565b836040518363ffffffff1660e01b8152600401610dfa9291906112f9565b602060405180830381600087803b158015610e1457600080fd5b505af1158015610e28573d6000803e3d6000fd5b505050506040513d601f19601f82011682018060405250610e4c91908101906110de565b505b60016002811115610e5b57fe5b826002811115610e6757fe5b1415610f2e5773c4375b7de8af5a38a93548eb8453a498222c4ff273ffffffffffffffffffffffffffffffffffffffff1663095ea7b3734ec3570cadaaee08ae384779b0f3a45ef85289de836040518363ffffffff1660e01b8152600401610ed09291906112f9565b602060405180830381600087803b158015610eea57600080fd5b505af1158015610efe573d6000803e3d6000fd5b505050506040513d601f19601f82011682018060405250610f2291908101906110de565b50610f2d6001610f5f565b5b5050565b60016002811115610f3f57fe5b816002811115610f4b57fe5b1415610f5c57610f5b6000610f5f565b5b50565b60606001604051908082528060200260200182016040528015610f9c57816020015b610f89611070565b815260200190600190039081610f815790505b5090506040518060400160405280610fb460016108e4565b73ffffffffffffffffffffffffffffffffffffffff16815260200183151581525081600081518110610fe257fe5b6020026020010181905250734ec3570cadaaee08ae384779b0f3a45ef85289de73ffffffffffffffffffffffffffffffffffffffff166385b53fc8826040518263ffffffff1660e01b815260040161103a9190611322565b600060405180830381600087803b15801561105457600080fd5b505af1158015611068573d6000803e3d6000fd5b505050505050565b6040518060400160405280600073ffffffffffffffffffffffffffffffffffffffff1681526020016000151581525090565b60006110ae82516113c2565b905092915050565b60006110c282356113ce565b905092915050565b60006110d682356113e5565b905092915050565b6000602082840312156110f057600080fd5b60006110fe848285016110a2565b91505092915050565b60006020828403121561111957600080fd5b6000611127848285016110b6565b91505092915050565b60008060006060848603121561114557600080fd5b6000611153868287016110b6565b9350506020611164868287016110b6565b9250506040611175868287016110ca565b9150509250925092565b6000806040838503121561119257600080fd5b60006111a0858286016110b6565b92505060206111b1858286016110ca565b9150509250929050565b60006111c78383611269565b60408301905092915050565b6111dc816113ef565b82525050565b6111eb8161137a565b82525050565b6111fa8161137a565b82525050565b600061120b82611351565b6112158185611369565b935061122083611344565b60005b8281101561124e576112368683516111bb565b95506112418261135c565b9150600181019050611223565b50849250505092915050565b6112638161138c565b82525050565b60408201600082015161127f60008501826111e2565b506020820151611292602085018261125a565b50505050565b6112a1816113b8565b82525050565b60006020820190506112bc60008301846111f1565b92915050565b60006060820190506112d760008301866111d3565b6112e460208301856111f1565b6112f16040830184611298565b949350505050565b600060408201905061130e60008301856111f1565b61131b6020830184611298565b9392505050565b6000602082019050818103600083015261133c8184611200565b905092915050565b6000602082019050919050565b600081519050919050565b6000602082019050919050565b600082825260208201905092915050565b600061138582611398565b9050919050565b60008115159050919050565b600073ffffffffffffffffffffffffffffffffffffffff82169050919050565b6000819050919050565b60008115159050919050565b6000600382106113dd57600080fd5b819050919050565b6000819050919050565b60006113fa82611401565b9050919050565b600061140c82611413565b9050919050565b600061141e82611398565b905091905056fea265627a7a7230582009743ac75cd6e02efb86ad37e018e511f36ae75463b33b9b9510d230652a01506c6578706572696d656e74616cf50037",
  "source": "pragma solidity ^0.5.0;\npragma experimental ABIEncoderV2;\n\nimport \"./ProtocolInterface.sol\";\nimport \"../interfaces/ERC20.sol\";\nimport \"../constants/ConstantAddresses.sol\";\nimport \"./dydx/ISoloMargin.sol\";\n\ncontract SavingsProxy is ConstantAddresses {\n\n    address constant public SAVINGS_COMPOUND_ADDRESS = 0x5bdF0b2FaF59639f41946EE2DeBa90f0e02EB867;\n    address constant public SAVINGS_DYDX_ADDRESS = 0x13903074023f8a269671e12401Cce148eA18784D;\n    address constant public SAVINGS_FULCRUM_ADDRESS = 0x560d427777a206E3152B9b2a998aC52a8660269A;\n\n    enum SavingsProtocol { Compound, Dydx, Fulcrum }\n\n    function deposit(SavingsProtocol _protocol, uint _amount) public {\n        approveDeposit(_protocol, _amount);\n\n        ProtocolInterface(getAddress(_protocol)).deposit(address(this), _amount);\n\n        endAction(_protocol);\n    }\n\n    function withdraw(SavingsProtocol _protocol, uint _amount) public {\n        approveWithdraw(_protocol, _amount);\n\n        ProtocolInterface(getAddress(_protocol)).withdraw(address(this), _amount);\n\n        endAction(_protocol);\n    }\n\n    function swap(SavingsProtocol _from, SavingsProtocol _to, uint _amount) public {\n        approveWithdraw(_from, _amount);\n        approveDeposit(_to, _amount);\n\n        ProtocolInterface(getAddress(_from)).withdraw(address(this), _amount);\n        ProtocolInterface(getAddress(_to)).deposit(address(this), _amount);\n\n        endAction(_from);\n        endAction(_to);\n    }\n\n    function getAddress(SavingsProtocol _protocol) public view returns(address) {\n        if (_protocol == SavingsProtocol.Compound) {\n            return SAVINGS_COMPOUND_ADDRESS;\n        }\n\n        if (_protocol == SavingsProtocol.Dydx) {\n            return SAVINGS_DYDX_ADDRESS;\n        }\n\n        if (_protocol == SavingsProtocol.Fulcrum) {\n            return SAVINGS_FULCRUM_ADDRESS;\n        }\n    }\n\n    function endAction(SavingsProtocol _protocol)  internal {\n        if (_protocol == SavingsProtocol.Dydx) {\n            setDydxOperator(false);\n        }\n    }\n\n    function approveDeposit(SavingsProtocol _protocol, uint _amount) internal {\n        ERC20(MAKER_DAI_ADDRESS).transferFrom(msg.sender, address(this), _amount);\n\n        if (_protocol == SavingsProtocol.Compound || _protocol == SavingsProtocol.Fulcrum) {\n            ERC20(MAKER_DAI_ADDRESS).approve(getAddress(_protocol), _amount);\n        }\n\n        if (_protocol == SavingsProtocol.Dydx) {\n            ERC20(MAKER_DAI_ADDRESS).approve(SOLO_MARGIN_ADDRESS, _amount);\n            setDydxOperator(true);\n        }\n    }\n\n    function approveWithdraw(SavingsProtocol _protocol, uint _amount) internal {\n        if (_protocol == SavingsProtocol.Compound) {\n            ERC20(CDAI_ADDRESS).approve(getAddress(_protocol), _amount);\n        }\n\n        if (_protocol == SavingsProtocol.Dydx) {\n            setDydxOperator(true);\n        }\n\n        if (_protocol == SavingsProtocol.Fulcrum) {\n            ERC20(IDAI_ADDRESS).approve(getAddress(_protocol), _amount);\n        }\n    }\n\n    function setDydxOperator(bool _trusted) internal {\n        ISoloMargin.OperatorArg[] memory operatorArgs = new ISoloMargin.OperatorArg[](1);\n        operatorArgs[0] = ISoloMargin.OperatorArg({\n            operator: getAddress(SavingsProtocol.Dydx),\n            trusted: _trusted\n        });\n\n        ISoloMargin(SOLO_MARGIN_ADDRESS).setOperators(operatorArgs);\n    }\n}\n",
  "sourcePath": "/Users/nikolaklipa/Decenter/defisaver/cdpsaver-contracts/contracts/savings/SavingsProxy.sol",
  "compiler": {
    "name": "solc",
    "version": "0.5.7+commit.6da8b019.Emscripten.clang"
  },
  "schemaVersion": "3.0.9",
  "updatedAt": "2019-08-12T14:47:39.037Z",
  "devdoc": {
    "methods": {}
  },
  "userdoc": {
    "methods": {}
  }
}