{
  "contractName": "SavingsProxy",
  "abi": [
    {
      "constant": true,
      "inputs": [],
      "name": "WETH_ADDRESS",
      "outputs": [
        {
          "name": "",
          "type": "address"
        }
      ],
      "payable": false,
      "stateMutability": "view",
      "type": "function"
    },
    {
      "constant": true,
      "inputs": [],
      "name": "CDAI_ADDRESS",
      "outputs": [
        {
          "name": "",
          "type": "address"
        }
      ],
      "payable": false,
      "stateMutability": "view",
      "type": "function"
    },
    {
      "constant": true,
      "inputs": [],
      "name": "SAVINGS_DYDX_ADDRESS",
      "outputs": [
        {
          "name": "",
          "type": "address"
        }
      ],
      "payable": false,
      "stateMutability": "view",
      "type": "function"
    },
    {
      "constant": true,
      "inputs": [],
      "name": "PIP_INTERFACE_ADDRESS",
      "outputs": [
        {
          "name": "",
          "type": "address"
        }
      ],
      "payable": false,
      "stateMutability": "view",
      "type": "function"
    },
    {
      "constant": true,
      "inputs": [],
      "name": "KYBER_ETH_ADDRESS",
      "outputs": [
        {
          "name": "",
          "type": "address"
        }
      ],
      "payable": false,
      "stateMutability": "view",
      "type": "function"
    },
    {
      "constant": true,
      "inputs": [],
      "name": "OTC_ADDRESS",
      "outputs": [
        {
          "name": "",
          "type": "address"
        }
      ],
      "payable": false,
      "stateMutability": "view",
      "type": "function"
    },
    {
      "constant": true,
      "inputs": [],
      "name": "IDAI_ADDRESS",
      "outputs": [
        {
          "name": "",
          "type": "address"
        }
      ],
      "payable": false,
      "stateMutability": "view",
      "type": "function"
    },
    {
      "constant": true,
      "inputs": [],
      "name": "GAS_TOKEN_INTERFACE_ADDRESS",
      "outputs": [
        {
          "name": "",
          "type": "address"
        }
      ],
      "payable": false,
      "stateMutability": "view",
      "type": "function"
    },
    {
      "constant": true,
      "inputs": [],
      "name": "VOX_ADDRESS",
      "outputs": [
        {
          "name": "",
          "type": "address"
        }
      ],
      "payable": false,
      "stateMutability": "view",
      "type": "function"
    },
    {
      "constant": true,
      "inputs": [],
      "name": "SAVINGS_FULCRUM_ADDRESS",
      "outputs": [
        {
          "name": "",
          "type": "address"
        }
      ],
      "payable": false,
      "stateMutability": "view",
      "type": "function"
    },
    {
      "constant": true,
      "inputs": [],
      "name": "ETH2DAI_WRAPPER",
      "outputs": [
        {
          "name": "",
          "type": "address"
        }
      ],
      "payable": false,
      "stateMutability": "view",
      "type": "function"
    },
    {
      "constant": true,
      "inputs": [],
      "name": "STUPID_EXCHANGE",
      "outputs": [
        {
          "name": "",
          "type": "address"
        }
      ],
      "payable": false,
      "stateMutability": "view",
      "type": "function"
    },
    {
      "constant": true,
      "inputs": [],
      "name": "PROXY_REGISTRY_INTERFACE_ADDRESS",
      "outputs": [
        {
          "name": "",
          "type": "address"
        }
      ],
      "payable": false,
      "stateMutability": "view",
      "type": "function"
    },
    {
      "constant": true,
      "inputs": [],
      "name": "MKR_ADDRESS",
      "outputs": [
        {
          "name": "",
          "type": "address"
        }
      ],
      "payable": false,
      "stateMutability": "view",
      "type": "function"
    },
    {
      "constant": true,
      "inputs": [],
      "name": "FACTORY_ADDRESS",
      "outputs": [
        {
          "name": "",
          "type": "address"
        }
      ],
      "payable": false,
      "stateMutability": "view",
      "type": "function"
    },
    {
      "constant": true,
      "inputs": [],
      "name": "LOGGER_ADDRESS",
      "outputs": [
        {
          "name": "",
          "type": "address"
        }
      ],
      "payable": false,
      "stateMutability": "view",
      "type": "function"
    },
    {
      "constant": true,
      "inputs": [],
      "name": "MAKER_DAI_ADDRESS",
      "outputs": [
        {
          "name": "",
          "type": "address"
        }
      ],
      "payable": false,
      "stateMutability": "view",
      "type": "function"
    },
    {
      "constant": true,
      "inputs": [],
      "name": "KYBER_WRAPPER",
      "outputs": [
        {
          "name": "",
          "type": "address"
        }
      ],
      "payable": false,
      "stateMutability": "view",
      "type": "function"
    },
    {
      "constant": true,
      "inputs": [],
      "name": "COMPOUND_DAI_ADDRESS",
      "outputs": [
        {
          "name": "",
          "type": "address"
        }
      ],
      "payable": false,
      "stateMutability": "view",
      "type": "function"
    },
    {
      "constant": true,
      "inputs": [],
      "name": "UNISWAP_FACTORY",
      "outputs": [
        {
          "name": "",
          "type": "address"
        }
      ],
      "payable": false,
      "stateMutability": "view",
      "type": "function"
    },
    {
      "constant": true,
      "inputs": [],
      "name": "PETH_ADDRESS",
      "outputs": [
        {
          "name": "",
          "type": "address"
        }
      ],
      "payable": false,
      "stateMutability": "view",
      "type": "function"
    },
    {
      "constant": true,
      "inputs": [],
      "name": "KYBER_INTERFACE",
      "outputs": [
        {
          "name": "",
          "type": "address"
        }
      ],
      "payable": false,
      "stateMutability": "view",
      "type": "function"
    },
    {
      "constant": true,
      "inputs": [],
      "name": "WALLET_ID",
      "outputs": [
        {
          "name": "",
          "type": "address"
        }
      ],
      "payable": false,
      "stateMutability": "view",
      "type": "function"
    },
    {
      "constant": true,
      "inputs": [],
      "name": "SOLO_MARGIN_ADDRESS",
      "outputs": [
        {
          "name": "",
          "type": "address"
        }
      ],
      "payable": false,
      "stateMutability": "view",
      "type": "function"
    },
    {
      "constant": true,
      "inputs": [],
      "name": "UNISWAP_WRAPPER",
      "outputs": [
        {
          "name": "",
          "type": "address"
        }
      ],
      "payable": false,
      "stateMutability": "view",
      "type": "function"
    },
    {
      "constant": true,
      "inputs": [],
      "name": "TUB_ADDRESS",
      "outputs": [
        {
          "name": "",
          "type": "address"
        }
      ],
      "payable": false,
      "stateMutability": "view",
      "type": "function"
    },
    {
      "constant": true,
      "inputs": [],
      "name": "SAVINGS_COMPOUND_ADDRESS",
      "outputs": [
        {
          "name": "",
          "type": "address"
        }
      ],
      "payable": false,
      "stateMutability": "view",
      "type": "function"
    },
    {
      "constant": false,
      "inputs": [
        {
          "name": "_protocol",
          "type": "uint8"
        },
        {
          "name": "_amount",
          "type": "uint256"
        }
      ],
      "name": "deposit",
      "outputs": [],
      "payable": false,
      "stateMutability": "nonpayable",
      "type": "function"
    },
    {
      "constant": false,
      "inputs": [
        {
          "name": "_protocol",
          "type": "uint8"
        },
        {
          "name": "_amount",
          "type": "uint256"
        }
      ],
      "name": "withdraw",
      "outputs": [],
      "payable": false,
      "stateMutability": "nonpayable",
      "type": "function"
    },
    {
      "constant": false,
      "inputs": [
        {
          "name": "_from",
          "type": "uint8"
        },
        {
          "name": "_to",
          "type": "uint8"
        },
        {
          "name": "_amount",
          "type": "uint256"
        }
      ],
      "name": "swap",
      "outputs": [],
      "payable": false,
      "stateMutability": "nonpayable",
      "type": "function"
    },
    {
      "constant": true,
      "inputs": [
        {
          "name": "_protocol",
          "type": "uint8"
        }
      ],
      "name": "getAddress",
      "outputs": [
        {
          "name": "",
          "type": "address"
        }
      ],
      "payable": false,
      "stateMutability": "pure",
      "type": "function"
    }
  ],
  "bytecode": "0x608060405234801561001057600080fd5b50611594806100206000396000f3fe608060405234801561001057600080fd5b5060043610610202576000357c010000000000000000000000000000000000000000000000000000000090048063825ffd921161012c578063c9fde270116100bf578063ddaa293c1161008e578063ddaa293c1461053f578063f0d405e51461055d578063f4d4c9d71461057b578063fcbb81641461059757610202565b8063c9fde270146104c7578063ce9bde1d146104e5578063d3661fa514610503578063d36b907d1461052157610202565b8063b175afa1116100fb578063b175afa11461043d578063bcaa0c551461045b578063c16921b71461048b578063c74c0fac146104a957610202565b8063825ffd92146103c55780638823151b146103e357806394bfbe74146104015780639da779e91461041f57610202565b80632d5eeb3f116101a45780633f7b1ca1116101735780633f7b1ca11461034d57806343fb75e81461036b578063502237d714610389578063728c0092146103a757610202565b80632d5eeb3f146102d757806332ac5cd2146102f557806336e6da11146103135780633f4899141461033157610202565b80631ae3bc16116101e05780631ae3bc161461025f5780631dab52b01461027d57806329f7fc9e1461029b5780632a441f05146102b957610202565b8063040141e5146102075780630531b2ad146102255780631ab62b6814610243575b600080fd5b61020f6105b5565b60405161021c91906113dc565b60405180910390f35b61022d6105cd565b60405161023a91906113dc565b60405180910390f35b61025d60048036036102589190810190611265565b6105e5565b005b610267610732565b60405161027491906113dc565b60405180910390f35b61028561074a565b60405161029291906113dc565b60405180910390f35b6102a3610762565b6040516102b091906113dc565b60405180910390f35b6102c161077a565b6040516102ce91906113dc565b60405180910390f35b6102df610792565b6040516102ec91906113dc565b60405180910390f35b6102fd6107aa565b60405161030a91906113dc565b60405180910390f35b61031b6107bd565b60405161032891906113dc565b60405180910390f35b61034b600480360361034691908101906112b4565b6107d5565b005b61035561087d565b60405161036291906113dc565b60405180910390f35b610373610895565b60405161038091906113dc565b60405180910390f35b6103916108ad565b60405161039e91906113dc565b60405180910390f35b6103af6108c5565b6040516103bc91906113dc565b60405180910390f35b6103cd6108dd565b6040516103da91906113dc565b60405180910390f35b6103eb6108f5565b6040516103f891906113dc565b60405180910390f35b61040961090d565b60405161041691906113dc565b60405180910390f35b610427610925565b60405161043491906113dc565b60405180910390f35b61044561093d565b60405161045291906113dc565b60405180910390f35b6104756004803603610470919081019061123c565b610955565b60405161048291906113dc565b60405180910390f35b610493610a0c565b6040516104a091906113dc565b60405180910390f35b6104b1610a24565b6040516104be91906113dc565b60405180910390f35b6104cf610a3c565b6040516104dc91906113dc565b60405180910390f35b6104ed610a54565b6040516104fa91906113dc565b60405180910390f35b61050b610a6c565b60405161051891906113dc565b60405180910390f35b610529610a84565b60405161053691906113dc565b60405180910390f35b610547610a9c565b60405161055491906113dc565b60405180910390f35b610565610ab4565b60405161057291906113dc565b60405180910390f35b610595600480360361059091908101906112b4565b610acc565b005b61059f610b74565b6040516105ac91906113dc565b60405180910390f35b73d0a1e359811322d97991e03f863a0c30c2cf029c81565b73b6b09fbffba6a5c4631e5f7b2e3ee183ac259c0d81565b6105ef8382610b8c565b6105f98282610d85565b61060283610955565b73ffffffffffffffffffffffffffffffffffffffff1663f3fef3a330836040518363ffffffff167c010000000000000000000000000000000000000000000000000000000002815260040161065892919061142e565b600060405180830381600087803b15801561067257600080fd5b505af1158015610686573d6000803e3d6000fd5b5050505061069382610955565b73ffffffffffffffffffffffffffffffffffffffff166347e7ef2430836040518363ffffffff167c01000000000000000000000000000000000000000000000000000000000281526004016106e992919061142e565b600060405180830381600087803b15801561070357600080fd5b505af1158015610717573d6000803e3d6000fd5b505050506107248361104b565b61072d8261104b565b505050565b73409fb5b8c2b2eff5d86449f52aba8a2af0ee88f281565b73a944bd4b25c9f186a846fd5668941aa3d3b8425f81565b73eeeeeeeeeeeeeeeeeeeeeeeeeeeeeeeeeeeeeeee81565b734a6bc4e803c62081ffebcc8d227b5a87a58f1f8f81565b73a1e58f3b1927743393b25f261471e1f2d3d9f0f681565b6e170ccc93903185be5a2094c870df6281565b73bb4339c0ab5b1d9f14bd6e3426444a1e9d86a1d981565b6107df8282610b8c565b6107e882610955565b73ffffffffffffffffffffffffffffffffffffffff1663f3fef3a330836040518363ffffffff167c010000000000000000000000000000000000000000000000000000000002815260040161083e92919061142e565b600060405180830381600087803b15801561085857600080fd5b505af115801561086c573d6000803e3d6000fd5b505050506108798261104b565b5050565b73b5be7966144dcd1458c1ecf6b57fdd1adc460f1d81565b73823cde416973a19f98bb9c96d97f4fe6c9a7238b81565b73863e41fe88288ebf3fcd91d8dbb679fb83fdfe1781565b7364a436ae831c1672ae81f674cab8b6775df3475c81565b73aaf64bfcc32d0f15873a02163e7e500671a4ffcd81565b73c72e74e474682680a414b506699bbca44ab9a93081565b7332d0e18f988f952eb3524ace762042381a2c39e581565b73c4375b7de8af5a38a93548eb8453a498222c4ff281565b735595930d576aedf13945c83ce5aad827529a131081565b600080600281111561096357fe5b82600281111561096f57fe5b141561099157735cede2418e64de77efef3aa85a74fd18cdb18b2a9050610a07565b6001600281111561099e57fe5b8260028111156109aa57fe5b14156109cc5773409fb5b8c2b2eff5d86449f52aba8a2af0ee88f29050610a07565b6002808111156109d857fe5b8260028111156109e457fe5b1415610a065773b5be7966144dcd1458c1ecf6b57fdd1adc460f1d9050610a07565b5b919050565b7325a01a05c188dacbcf1d61af55d4a5b4021f7eed81565b73f5d915570bc477f9b8d6c0e980aa81757a3aac3681565b73f4d791139ce033ad35db2b2201435fad668b1b6481565b73692f391bcc85cefce8c237c01e1f636bbd70ea4d81565b7354b44c6b18fc0b4a1010b21d524c338d1f8065f681565b734ec3570cadaaee08ae384779b0f3a45ef85289de81565b735595930d576aedf13945c83ce5aad827529a131081565b73a71937147b55deb8a530c7229c442fd3f31b7db281565b610ad68282610d85565b610adf82610955565b73ffffffffffffffffffffffffffffffffffffffff166347e7ef2430836040518363ffffffff167c0100000000000000000000000000000000000000000000000000000000028152600401610b3592919061142e565b600060405180830381600087803b158015610b4f57600080fd5b505af1158015610b63573d6000803e3d6000fd5b50505050610b708261104b565b5050565b735cede2418e64de77efef3aa85a74fd18cdb18b2a81565b60006002811115610b9957fe5b826002811115610ba557fe5b1415610c725773b6b09fbffba6a5c4631e5f7b2e3ee183ac259c0d73ffffffffffffffffffffffffffffffffffffffff1663095ea7b3610be484610955565b836040518363ffffffff167c0100000000000000000000000000000000000000000000000000000000028152600401610c1e92919061142e565b602060405180830381600087803b158015610c3857600080fd5b505af1158015610c4c573d6000803e3d6000fd5b505050506040513d601f19601f82011682018060405250610c709190810190611213565b505b60016002811115610c7f57fe5b826002811115610c8b57fe5b1415610c9c57610c9b6001611078565b5b600280811115610ca857fe5b826002811115610cb457fe5b1415610d815773a1e58f3b1927743393b25f261471e1f2d3d9f0f673ffffffffffffffffffffffffffffffffffffffff1663095ea7b3610cf384610955565b836040518363ffffffff167c0100000000000000000000000000000000000000000000000000000000028152600401610d2d92919061142e565b602060405180830381600087803b158015610d4757600080fd5b505af1158015610d5b573d6000803e3d6000fd5b505050506040513d601f19601f82011682018060405250610d7f9190810190611213565b505b5050565b73c4375b7de8af5a38a93548eb8453a498222c4ff273ffffffffffffffffffffffffffffffffffffffff166323b872dd3330846040518463ffffffff167c0100000000000000000000000000000000000000000000000000000000028152600401610df2939291906113f7565b602060405180830381600087803b158015610e0c57600080fd5b505af1158015610e20573d6000803e3d6000fd5b505050506040513d601f19601f82011682018060405250610e449190810190611213565b5060006002811115610e5257fe5b826002811115610e5e57fe5b1480610e7f5750600280811115610e7157fe5b826002811115610e7d57fe5b145b15610f4b5773c4375b7de8af5a38a93548eb8453a498222c4ff273ffffffffffffffffffffffffffffffffffffffff1663095ea7b3610ebd84610955565b836040518363ffffffff167c0100000000000000000000000000000000000000000000000000000000028152600401610ef792919061142e565b602060405180830381600087803b158015610f1157600080fd5b505af1158015610f25573d6000803e3d6000fd5b505050506040513d601f19601f82011682018060405250610f499190810190611213565b505b60016002811115610f5857fe5b826002811115610f6457fe5b14156110475773c4375b7de8af5a38a93548eb8453a498222c4ff273ffffffffffffffffffffffffffffffffffffffff1663095ea7b3734ec3570cadaaee08ae384779b0f3a45ef85289de836040518363ffffffff167c0100000000000000000000000000000000000000000000000000000000028152600401610fe992919061142e565b602060405180830381600087803b15801561100357600080fd5b505af1158015611017573d6000803e3d6000fd5b505050506040513d601f19601f8201168201806040525061103b9190810190611213565b506110466001611078565b5b5050565b6001600281111561105857fe5b81600281111561106457fe5b1415611075576110746000611078565b5b50565b606060016040519080825280602002602001820160405280156110b557816020015b6110a26111a5565b81526020019060019003908161109a5790505b50905060405180604001604052806110cd6001610955565b73ffffffffffffffffffffffffffffffffffffffff168152602001831515815250816000815181106110fb57fe5b6020026020010181905250734ec3570cadaaee08ae384779b0f3a45ef85289de73ffffffffffffffffffffffffffffffffffffffff166385b53fc8826040518263ffffffff167c010000000000000000000000000000000000000000000000000000000002815260040161116f9190611457565b600060405180830381600087803b15801561118957600080fd5b505af115801561119d573d6000803e3d6000fd5b505050505050565b6040518060400160405280600073ffffffffffffffffffffffffffffffffffffffff1681526020016000151581525090565b60006111e382516114f7565b905092915050565b60006111f78235611503565b905092915050565b600061120b823561151a565b905092915050565b60006020828403121561122557600080fd5b6000611233848285016111d7565b91505092915050565b60006020828403121561124e57600080fd5b600061125c848285016111eb565b91505092915050565b60008060006060848603121561127a57600080fd5b6000611288868287016111eb565b9350506020611299868287016111eb565b92505060406112aa868287016111ff565b9150509250925092565b600080604083850312156112c757600080fd5b60006112d5858286016111eb565b92505060206112e6858286016111ff565b9150509250929050565b60006112fc838361139e565b60408301905092915050565b61131181611524565b82525050565b611320816114af565b82525050565b61132f816114af565b82525050565b600061134082611486565b61134a818561149e565b935061135583611479565b60005b828110156113835761136b8683516112f0565b955061137682611491565b9150600181019050611358565b50849250505092915050565b611398816114c1565b82525050565b6040820160008201516113b46000850182611317565b5060208201516113c7602085018261138f565b50505050565b6113d6816114ed565b82525050565b60006020820190506113f16000830184611326565b92915050565b600060608201905061140c6000830186611308565b6114196020830185611326565b61142660408301846113cd565b949350505050565b60006040820190506114436000830185611326565b61145060208301846113cd565b9392505050565b600060208201905081810360008301526114718184611335565b905092915050565b6000602082019050919050565b600081519050919050565b6000602082019050919050565b600082825260208201905092915050565b60006114ba826114cd565b9050919050565b60008115159050919050565b600073ffffffffffffffffffffffffffffffffffffffff82169050919050565b6000819050919050565b60008115159050919050565b60006003821061151257600080fd5b819050919050565b6000819050919050565b600061152f82611536565b9050919050565b600061154182611548565b9050919050565b6000611553826114cd565b905091905056fea265627a7a72305820f948f77f343dd4aade03ef413dabe043b27767f8048cb7b70e4b4bd325243adc6c6578706572696d656e74616cf50037",
  "source": "pragma solidity ^0.5.0;\npragma experimental ABIEncoderV2;\n\nimport \"./ProtocolInterface.sol\";\nimport \"../interfaces/ERC20.sol\";\nimport \"../constants/ConstantAddresses.sol\";\nimport \"./dydx/ISoloMargin.sol\";\n\ncontract SavingsProxy is ConstantAddresses {\n\n    address constant public SAVINGS_COMPOUND_ADDRESS = 0x5CeDe2418E64de77efEF3aA85a74fD18CdB18B2a;\n    address constant public SAVINGS_DYDX_ADDRESS = 0x409FB5b8c2B2EfF5d86449f52AbA8a2AF0ee88f2;\n    address constant public SAVINGS_FULCRUM_ADDRESS = 0xB5Be7966144dcd1458c1ECf6b57fdD1adc460f1D;\n\n    enum SavingsProtocol { Compound, Dydx, Fulcrum }\n\n    function deposit(SavingsProtocol _protocol, uint _amount) public {\n        approveDeposit(_protocol, _amount);\n\n        ProtocolInterface(getAddress(_protocol)).deposit(address(this), _amount);\n\n        endAction(_protocol);\n    }\n\n    function withdraw(SavingsProtocol _protocol, uint _amount) public {\n        approveWithdraw(_protocol, _amount);\n\n        ProtocolInterface(getAddress(_protocol)).withdraw(address(this), _amount);\n\n        endAction(_protocol);\n    }\n\n    function swap(SavingsProtocol _from, SavingsProtocol _to, uint _amount) public {\n        approveWithdraw(_from, _amount);\n        approveDeposit(_to, _amount);\n\n        ProtocolInterface(getAddress(_from)).withdraw(address(this), _amount);\n        ProtocolInterface(getAddress(_to)).deposit(address(this), _amount);\n\n        endAction(_from);\n        endAction(_to);\n    }\n\n    function getAddress(SavingsProtocol _protocol) public pure returns(address) {\n        if (_protocol == SavingsProtocol.Compound) {\n            return SAVINGS_COMPOUND_ADDRESS;\n        }\n\n        if (_protocol == SavingsProtocol.Dydx) {\n            return SAVINGS_DYDX_ADDRESS;\n        }\n\n        if (_protocol == SavingsProtocol.Fulcrum) {\n            return SAVINGS_FULCRUM_ADDRESS;\n        }\n    }\n\n    function endAction(SavingsProtocol _protocol)  internal {\n        if (_protocol == SavingsProtocol.Dydx) {\n            setDydxOperator(false);\n        }\n    }\n\n    function approveDeposit(SavingsProtocol _protocol, uint _amount) internal {\n        ERC20(MAKER_DAI_ADDRESS).transferFrom(msg.sender, address(this), _amount);\n\n        if (_protocol == SavingsProtocol.Compound || _protocol == SavingsProtocol.Fulcrum) {\n            ERC20(MAKER_DAI_ADDRESS).approve(getAddress(_protocol), _amount);\n        }\n\n        if (_protocol == SavingsProtocol.Dydx) {\n            ERC20(MAKER_DAI_ADDRESS).approve(SOLO_MARGIN_ADDRESS, _amount);\n            setDydxOperator(true);\n        }\n    }\n\n    function approveWithdraw(SavingsProtocol _protocol, uint _amount) internal {\n        if (_protocol == SavingsProtocol.Compound) {\n            ERC20(CDAI_ADDRESS).approve(getAddress(_protocol), _amount);\n        }\n\n        if (_protocol == SavingsProtocol.Dydx) {\n            setDydxOperator(true);\n        }\n\n        if (_protocol == SavingsProtocol.Fulcrum) {\n            ERC20(IDAI_ADDRESS).approve(getAddress(_protocol), _amount);\n        }\n    }\n\n    function setDydxOperator(bool _trusted) internal {\n        ISoloMargin.OperatorArg[] memory operatorArgs = new ISoloMargin.OperatorArg[](1);\n        operatorArgs[0] = ISoloMargin.OperatorArg({\n            operator: getAddress(SavingsProtocol.Dydx),\n            trusted: _trusted\n        });\n\n        ISoloMargin(SOLO_MARGIN_ADDRESS).setOperators(operatorArgs);\n    }\n}\n",
  "sourcePath": "/Users/nenadpalinkasevic/Desktop/blockchain/cdpsaver-contracts/contracts/savings/SavingsProxy.sol",
  "compiler": {
    "name": "solc",
    "version": "0.5.7+commit.6da8b019.Emscripten.clang"
  },
  "schemaVersion": "3.0.0",
  "updatedAt": "2019-08-17T15:16:30.384Z",
  "devdoc": {
    "methods": {}
  },
  "userdoc": {
    "methods": {}
  }
}