{
  "contractName": "SavingsProxy",
  "abi": [
    {
      "constant": false,
      "inputs": [
        {
          "name": "_amount",
          "type": "uint256"
        },
        {
          "name": "_protocol",
          "type": "uint256"
        }
      ],
      "name": "deposit",
      "outputs": [],
      "payable": false,
      "stateMutability": "nonpayable",
      "type": "function"
    },
    {
      "constant": false,
      "inputs": [
        {
          "name": "_amount",
          "type": "uint256"
        },
        {
          "name": "_protocol",
          "type": "uint256"
        }
      ],
      "name": "withdraw",
      "outputs": [],
      "payable": false,
      "stateMutability": "nonpayable",
      "type": "function"
    },
    {
      "constant": false,
      "inputs": [
        {
          "name": "_from",
          "type": "uint256"
        },
        {
          "name": "_to",
          "type": "uint256"
        }
      ],
      "name": "swap",
      "outputs": [],
      "payable": false,
      "stateMutability": "nonpayable",
      "type": "function"
    }
  ],
  "bytecode": "0x608060405234801561001057600080fd5b50610118806100206000396000f3fe6080604052348015600f57600080fd5b5060043610603c5760003560e01c8063441a3e70146041578063d96073cf146076578063e2bbb1581460ab575b600080fd5b607460048036036040811015605557600080fd5b81019080803590602001909291908035906020019092919050505060e0565b005b60a960048036036040811015608a57600080fd5b81019080803590602001909291908035906020019092919050505060e4565b005b60de6004803603604081101560bf57600080fd5b81019080803590602001909291908035906020019092919050505060e8565b005b5050565b5050565b505056fea165627a7a72305820ee1e3d5be8d1f17f7d77afae9ebf90e48ea91b835cf8ccc98243865a5414351a0029",
  "source": "pragma solidity ^0.5.0;\n\n\ncontract SavingsProxy {\n\n    function deposit(uint _amount, uint _protocol) public {\n\n    }\n\n    function withdraw(uint _amount, uint _protocol) public {\n\n    }\n\n    function swap(uint _from, uint _to) public {\n\n    }\n}\n",
  "sourcePath": "/Users/nikolaklipa/Decenter/defisaver/cdpsaver-contracts/contracts/savings/SavingsProxy.sol",
  "compiler": {
    "name": "solc",
    "version": "0.5.7+commit.6da8b019.Emscripten.clang"
  },
  "schemaVersion": "3.0.9",
  "updatedAt": "2019-08-05T11:25:37.342Z",
  "devdoc": {
    "methods": {}
  },
  "userdoc": {
    "methods": {}
  }
}