{
  "contractName": "SavingsProxy",
  "abi": [
    {
      "constant": true,
      "inputs": [
        {
          "name": "",
          "type": "bytes32"
        },
        {
          "name": "_protocol",
          "type": "uint256"
        }
      ],
      "name": "protocols",
      "outputs": [
        {
          "name": "",
          "type": "address"
        }
      ],
      "payable": false,
      "stateMutability": "view",
      "type": "function"
    },
    {
      "constant": false,
      "inputs": [
        {
          "name": "_protocols",
          "type": "address[]"
        },
        {
          "name": "_protocol",
          "type": "uint256"
        }
      ],
      "name": "withdraw",
      "outputs": [],
      "payable": false,
      "stateMutability": "nonpayable",
      "type": "constructor"
    },
    {
      "constant": false,
      "inputs": [
        {
          "name": "_protocol",
          "type": "uint8"
        },
        {
          "name": "_amount",
          "type": "uint256"
        }
      ],
      "name": "deposit",
      "outputs": [],
      "payable": false,
      "stateMutability": "nonpayable",
      "type": "function"
    },
    {
      "constant": false,
      "inputs": [
        {
          "name": "_protocol",
          "type": "uint8"
        },
        {
          "name": "_amount",
          "type": "uint256"
        }
      ],
      "name": "withdraw",
      "outputs": [],
      "payable": false,
      "stateMutability": "nonpayable",
      "type": "function"
    },
    {
      "constant": false,
      "inputs": [
        {
          "name": "_from",
          "type": "uint8"
        },
        {
          "name": "_to",
          "type": "uint8"
        },
        {
          "name": "_amount",
          "type": "uint256"
        }
      ],
      "name": "swap",
      "outputs": [],
      "payable": false,
      "stateMutability": "nonpayable",
      "type": "function"
    },
    {
      "constant": true,
      "inputs": [
        {
          "name": "_protocol",
          "type": "uint8"
        }
      ],
      "name": "getKeyValue",
      "outputs": [
        {
          "name": "",
          "type": "bytes32"
        }
      ],
      "payable": false,
      "stateMutability": "view",
      "type": "function"
    }
  ],
  "bytecode": "0x60806040523480156200001157600080fd5b5060405162000b1138038062000b11833981018060405262000037919081019062000287565b60038151146200004657600080fd5b806000815181106200005457fe5b6020026020010151600080620000716000620001b260201b60201c565b815260200190815260200160002060006101000a81548173ffffffffffffffffffffffffffffffffffffffff021916908373ffffffffffffffffffffffffffffffffffffffff16021790555080600181518110620000cb57fe5b6020026020010151600080620000e86001620001b260201b60201c565b815260200190815260200160002060006101000a81548173ffffffffffffffffffffffffffffffffffffffff021916908373ffffffffffffffffffffffffffffffffffffffff160217905550806002815181106200014257fe5b60200260200101516000806200015f6002620001b260201b60201c565b815260200190815260200160002060006101000a81548173ffffffffffffffffffffffffffffffffffffffff021916908373ffffffffffffffffffffffffffffffffffffffff16021790555050620003d9565b600081604051602001620001c79190620002e7565b604051602081830303815290604052805190602001209050919050565b6000620001f2825162000370565b905092915050565b600082601f8301126200020c57600080fd5b8151620002236200021d8262000332565b62000304565b915081818352602084019350602081019050838560208402820111156200024957600080fd5b60005b838110156200027d5781620002628882620001e4565b8452602084019350602083019250506001810190506200024c565b5050505092915050565b6000602082840312156200029a57600080fd5b600082015167ffffffffffffffff811115620002b557600080fd5b620002c384828501620001fa565b91505092915050565b620002e1620002db82620003a4565b620003b8565b82525050565b6000620002f58284620002cc565b60018201915081905092915050565b6000604051905081810181811067ffffffffffffffff821117156200032857600080fd5b8060405250919050565b600067ffffffffffffffff8211156200034a57600080fd5b602082029050602081019050919050565b6000600382106200036857fe5b819050919050565b60006200037d8262000384565b9050919050565b600073ffffffffffffffffffffffffffffffffffffffff82169050919050565b6000620003b1826200035b565b9050919050565b6000620003c582620003cc565b9050919050565b60008160f81b9050919050565b61072880620003e96000396000f3fe608060405234801561001057600080fd5b50600436106100575760003560e01c80631ab62b681461005c5780633f489914146100785780635515fe0a14610094578063ed343668146100c4578063f4d4c9d7146100f4575b600080fd5b610076600480360361007191908101906104aa565b610110565b005b610092600480360361008d91908101906104f9565b610263565b005b6100ae60048036036100a99190810190610458565b61030e565b6040516100bb91906105a3565b60405180910390f35b6100de60048036036100d99190810190610481565b610341565b6040516100eb91906105e7565b60405180910390f35b61010e600480360361010991908101906104f9565b610371565b005b60008061011c85610341565b815260200190815260200160002060009054906101000a900473ffffffffffffffffffffffffffffffffffffffff1673ffffffffffffffffffffffffffffffffffffffff1663f3fef3a333836040518363ffffffff1660e01b81526004016101859291906105be565b600060405180830381600087803b15801561019f57600080fd5b505af11580156101b3573d6000803e3d6000fd5b505050506000806101c384610341565b815260200190815260200160002060009054906101000a900473ffffffffffffffffffffffffffffffffffffffff1673ffffffffffffffffffffffffffffffffffffffff166347e7ef2433836040518363ffffffff1660e01b815260040161022c9291906105be565b600060405180830381600087803b15801561024657600080fd5b505af115801561025a573d6000803e3d6000fd5b50505050505050565b60008061026f84610341565b815260200190815260200160002060009054906101000a900473ffffffffffffffffffffffffffffffffffffffff1673ffffffffffffffffffffffffffffffffffffffff1663f3fef3a333836040518363ffffffff1660e01b81526004016102d89291906105be565b600060405180830381600087803b1580156102f257600080fd5b505af1158015610306573d6000803e3d6000fd5b505050505050565b60006020528060005260406000206000915054906101000a900473ffffffffffffffffffffffffffffffffffffffff1681565b6000816040516020016103549190610588565b604051602081830303815290604052805190602001209050919050565b60008061037d84610341565b815260200190815260200160002060009054906101000a900473ffffffffffffffffffffffffffffffffffffffff1673ffffffffffffffffffffffffffffffffffffffff166347e7ef2433836040518363ffffffff1660e01b81526004016103e69291906105be565b600060405180830381600087803b15801561040057600080fd5b505af1158015610414573d6000803e3d6000fd5b505050505050565b6000610428823561065c565b905092915050565b600061043c8235610666565b905092915050565b6000610450823561067d565b905092915050565b60006020828403121561046a57600080fd5b60006104788482850161041c565b91505092915050565b60006020828403121561049357600080fd5b60006104a184828501610430565b91505092915050565b6000806000606084860312156104bf57600080fd5b60006104cd86828701610430565b93505060206104de86828701610430565b92505060406104ef86828701610444565b9150509250925092565b6000806040838503121561050c57600080fd5b600061051a85828601610430565b925050602061052b85828601610444565b9150509250929050565b61053e81610687565b82525050565b61054d81610602565b82525050565b61055c81610614565b82525050565b61057361056e82610699565b6106cf565b82525050565b61058281610652565b82525050565b60006105948284610562565b60018201915081905092915050565b60006020820190506105b86000830184610544565b92915050565b60006040820190506105d36000830185610535565b6105e06020830184610579565b9392505050565b60006020820190506105fc6000830184610553565b92915050565b600061060d82610632565b9050919050565b6000819050919050565b60006003821061062a57fe5b819050919050565b600073ffffffffffffffffffffffffffffffffffffffff82169050919050565b6000819050919050565b6000819050919050565b60006003821061067557600080fd5b819050919050565b6000819050919050565b6000610692826106ab565b9050919050565b60006106a48261061e565b9050919050565b60006106b6826106bd565b9050919050565b60006106c882610632565b9050919050565b60006106da826106e1565b9050919050565b60008160f81b905091905056fea265627a7a72305820f184e26143a865753f006ecca593040a4ace6d999cf393df8d5cd4c11abe16866c6578706572696d656e74616cf50037",
  "source": "pragma solidity ^0.5.0;\npragma experimental ABIEncoderV2;\n\nimport \"./ProtocolInterface.sol\";\n\ncontract SavingsProxy {\n\n    enum SavingsProtocol { Compound, Dydx, Fulcrum }\n\n    mapping(bytes32 => address) public protocols;\n\n    constructor(address[] memory _protocols) public {\n        require(_protocols.length == 3);\n\n        protocols[getKeyValue(SavingsProtocol.Compound)] = _protocols[0];\n        protocols[getKeyValue(SavingsProtocol.Dydx)] = _protocols[1];\n        protocols[getKeyValue(SavingsProtocol.Fulcrum)] = _protocols[2];\n    }\n\n    function deposit(SavingsProtocol _protocol, uint _amount) public {\n        ProtocolInterface(protocols[getKeyValue(_protocol)]).deposit(msg.sender, _amount);\n    }\n\n    function withdraw(SavingsProtocol _protocol, uint _amount) public {\n        ProtocolInterface(protocols[getKeyValue(_protocol)]).withdraw(msg.sender, _amount);\n    }\n\n    function swap(SavingsProtocol _from, SavingsProtocol _to, uint _amount) public {\n        ProtocolInterface(protocols[getKeyValue(_from)]).withdraw(msg.sender, _amount);\n        ProtocolInterface(protocols[getKeyValue(_to)]).deposit(msg.sender, _amount);\n    }\n\n    function getKeyValue(SavingsProtocol _protocol) public view returns(bytes32) {\n        return keccak256(abi.encodePacked(_protocol));\n    }\n}\n",
  "sourcePath": "/Users/nikolaklipa/Decenter/defisaver/cdpsaver-contracts/contracts/savings/SavingsProxy.sol",
  "compiler": {
    "name": "solc",
    "version": "0.5.7+commit.6da8b019.Emscripten.clang"
  },
  "schemaVersion": "3.0.9",
  "updatedAt": "2019-08-06T16:41:24.231Z",
  "devdoc": {
    "methods": {}
  },
  "userdoc": {
    "methods": {}
  }
}