{
  "contractName": "SavingsProxy",
  "abi": [
    {
      "constant": true,
      "inputs": [
        {
          "name": "",
          "type": "bytes32"
        }
      ],
      "name": "WETH_ADDRESS",
      "outputs": [
        {
          "name": "",
          "type": "address"
        }
      ],
      "payable": false,
      "stateMutability": "view",
      "type": "function"
    },
    {
      "constant": true,
      "inputs": [
        {
          "name": "_compoundProtocol",
          "type": "address"
        },
        {
          "name": "_dydxProtocol",
          "type": "address"
        },
        {
          "name": "_fulcrumProtocol",
          "type": "address"
        }
      ],
      "name": "CDAI_ADDRESS",
      "outputs": [
        {
          "name": "",
          "type": "address"
        }
      ],
      "payable": false,
      "stateMutability": "view",
      "type": "function"
    },
    {
      "constant": true,
      "inputs": [
        {
          "name": "_protocol",
          "type": "uint8"
        },
        {
          "name": "_amount",
          "type": "uint256"
        }
      ],
      "name": "PIP_INTERFACE_ADDRESS",
      "outputs": [
        {
          "name": "",
          "type": "address"
        }
      ],
      "payable": false,
      "stateMutability": "view",
      "type": "function"
    },
    {
      "constant": true,
      "inputs": [
        {
          "name": "_protocol",
          "type": "uint8"
        },
        {
          "name": "_amount",
          "type": "uint256"
        }
      ],
      "name": "KYBER_ETH_ADDRESS",
      "outputs": [
        {
          "name": "",
          "type": "address"
        }
      ],
      "payable": false,
      "stateMutability": "view",
      "type": "function"
    },
    {
      "constant": true,
      "inputs": [
        {
          "name": "_from",
          "type": "uint8"
        },
        {
          "name": "_to",
          "type": "uint8"
        },
        {
          "name": "_amount",
          "type": "uint256"
        }
      ],
      "name": "OTC_ADDRESS",
      "outputs": [
        {
          "name": "",
          "type": "address"
        }
      ],
      "payable": false,
      "stateMutability": "view",
      "type": "function"
    },
    {
      "constant": true,
      "inputs": [
        {
          "name": "_protocol",
          "type": "uint8"
        }
      ],
      "name": "IDAI_ADDRESS",
      "outputs": [
        {
          "name": "",
          "type": "address"
        }
      ],
      "payable": false,
      "stateMutability": "view",
      "type": "function"
    },
    {
      "constant": true,
      "inputs": [],
      "name": "GAS_TOKEN_INTERFACE_ADDRESS",
      "outputs": [
        {
          "name": "",
          "type": "address"
        }
      ],
      "payable": false,
      "stateMutability": "view",
      "type": "function"
    },
    {
      "constant": true,
      "inputs": [],
      "name": "VOX_ADDRESS",
      "outputs": [
        {
          "name": "",
          "type": "address"
        }
      ],
      "payable": false,
      "stateMutability": "view",
      "type": "function"
    },
    {
      "constant": true,
      "inputs": [],
      "name": "ETH2DAI_WRAPPER",
      "outputs": [
        {
          "name": "",
          "type": "address"
        }
      ],
      "payable": false,
      "stateMutability": "view",
      "type": "function"
    },
    {
      "constant": true,
      "inputs": [],
      "name": "STUPID_EXCHANGE",
      "outputs": [
        {
          "name": "",
          "type": "address"
        }
      ],
      "payable": false,
      "stateMutability": "view",
      "type": "function"
    },
    {
      "constant": true,
      "inputs": [
        {
          "name": "",
          "type": "bytes32"
        }
      ],
      "name": "protocols",
      "outputs": [
        {
          "name": "",
          "type": "address"
        }
      ],
      "payable": false,
      "stateMutability": "view",
      "type": "function"
    },
    {
      "constant": true,
      "inputs": [],
      "name": "PROXY_REGISTRY_INTERFACE_ADDRESS",
      "outputs": [
        {
          "name": "",
          "type": "address"
        }
      ],
      "payable": false,
      "stateMutability": "view",
      "type": "function"
    },
    {
      "constant": true,
      "inputs": [],
      "name": "MKR_ADDRESS",
      "outputs": [
        {
          "name": "",
          "type": "address"
        }
      ],
      "payable": false,
      "stateMutability": "view",
      "type": "function"
    },
    {
      "constant": true,
      "inputs": [],
      "name": "FACTORY_ADDRESS",
      "outputs": [
        {
          "name": "",
          "type": "address"
        }
      ],
      "payable": false,
      "stateMutability": "view",
      "type": "function"
    },
    {
      "constant": true,
      "inputs": [],
      "name": "LOGGER_ADDRESS",
      "outputs": [
        {
          "name": "",
          "type": "address"
        }
      ],
      "payable": false,
      "stateMutability": "view",
      "type": "function"
    },
    {
      "constant": true,
      "inputs": [],
      "name": "MAKER_DAI_ADDRESS",
      "outputs": [
        {
          "name": "",
          "type": "address"
        }
      ],
      "payable": false,
      "stateMutability": "view",
      "type": "function"
    },
    {
      "constant": true,
      "inputs": [],
      "name": "KYBER_WRAPPER",
      "outputs": [
        {
          "name": "",
          "type": "address"
        }
      ],
      "payable": false,
      "stateMutability": "view",
      "type": "function"
    },
    {
      "constant": true,
      "inputs": [],
      "name": "COMPOUND_DAI_ADDRESS",
      "outputs": [
        {
          "name": "",
          "type": "address"
        }
      ],
      "payable": false,
      "stateMutability": "view",
      "type": "function"
    },
    {
      "constant": true,
      "inputs": [],
      "name": "UNISWAP_FACTORY",
      "outputs": [
        {
          "name": "",
          "type": "address"
        }
      ],
      "payable": false,
      "stateMutability": "view",
      "type": "function"
    },
    {
      "constant": true,
      "inputs": [],
      "name": "PETH_ADDRESS",
      "outputs": [
        {
          "name": "",
          "type": "address"
        }
      ],
      "payable": false,
      "stateMutability": "view",
      "type": "function"
    },
    {
      "constant": true,
      "inputs": [],
      "name": "KYBER_INTERFACE",
      "outputs": [
        {
          "name": "",
          "type": "address"
        }
      ],
      "payable": false,
      "stateMutability": "view",
      "type": "function"
    },
    {
      "constant": true,
      "inputs": [],
      "name": "WALLET_ID",
      "outputs": [
        {
          "name": "",
          "type": "address"
        }
      ],
      "payable": false,
      "stateMutability": "view",
      "type": "function"
    },
    {
      "constant": true,
      "inputs": [],
      "name": "SOLO_MARGIN_ADDRESS",
      "outputs": [
        {
          "name": "",
          "type": "address"
        }
      ],
      "payable": false,
      "stateMutability": "view",
      "type": "function"
    },
    {
      "constant": true,
      "inputs": [],
      "name": "UNISWAP_WRAPPER",
      "outputs": [
        {
          "name": "",
          "type": "address"
        }
      ],
      "payable": false,
      "stateMutability": "view",
      "type": "function"
    },
    {
      "constant": true,
      "inputs": [],
      "name": "TUB_ADDRESS",
      "outputs": [
        {
          "name": "",
          "type": "address"
        }
      ],
      "payable": false,
      "stateMutability": "view",
      "type": "function"
    },
    {
      "constant": false,
      "inputs": [
        {
          "name": "_compoundProtocol",
          "type": "address"
        },
        {
          "name": "_dydxProtocol",
          "type": "address"
        },
        {
          "name": "_fulcrumProtocol",
          "type": "address"
        }
      ],
      "name": "addProtocols",
      "outputs": [],
      "payable": false,
      "stateMutability": "nonpayable",
      "type": "function"
    },
    {
      "constant": false,
      "inputs": [
        {
          "name": "_protocol",
          "type": "uint8"
        },
        {
          "name": "_amount",
          "type": "uint256"
        }
      ],
      "name": "deposit",
      "outputs": [],
      "payable": false,
      "stateMutability": "nonpayable",
      "type": "function"
    },
    {
      "constant": false,
      "inputs": [
        {
          "name": "_protocol",
          "type": "uint8"
        },
        {
          "name": "_amount",
          "type": "uint256"
        }
      ],
      "name": "withdraw",
      "outputs": [],
      "payable": false,
      "stateMutability": "nonpayable",
      "type": "function"
    },
    {
      "constant": false,
      "inputs": [
        {
          "name": "_from",
          "type": "uint8"
        },
        {
          "name": "_to",
          "type": "uint8"
        },
        {
          "name": "_amount",
          "type": "uint256"
        }
      ],
      "name": "swap",
      "outputs": [],
      "payable": false,
      "stateMutability": "nonpayable",
      "type": "function"
    },
    {
      "constant": true,
      "inputs": [
        {
          "name": "_protocol",
          "type": "uint8"
        }
      ],
      "name": "getKey",
      "outputs": [
        {
          "name": "",
          "type": "bytes32"
        }
      ],
      "payable": false,
      "stateMutability": "view",
      "type": "function"
    }
  ],
  "bytecode": "0x608060405234801561001057600080fd5b50611848806100206000396000f3fe608060405234801561001057600080fd5b50600436106101da5760003560e01c8063825ffd9211610104578063c74c0fac116100a2578063d36b907d11610071578063d36b907d14610509578063ddaa293c14610527578063f0d405e514610545578063f4d4c9d714610563576101da565b8063c74c0fac14610491578063c9fde270146104af578063ce9bde1d146104cd578063d3661fa5146104eb576101da565b806394bfbe74116100de57806394bfbe74146104195780639da779e914610437578063b175afa114610455578063c16921b714610473576101da565b8063825ffd92146103ad5780638823151b146103cb578063943923cd146103e9576101da565b806332ac5cd21161017c578063502237d71161014b578063502237d7146103255780635515fe0a146103435780635cba0fd014610373578063728c00921461038f576101da565b806332ac5cd2146102af57806336e6da11146102cd5780633f489914146102eb57806343fb75e814610307576101da565b80631dab52b0116101b85780631dab52b01461023757806329f7fc9e146102555780632a441f05146102735780632d5eeb3f14610291576101da565b8063040141e5146101df5780630531b2ad146101fd5780631ab62b681461021b575b600080fd5b6101e761057f565b6040516101f491906115ea565b60405180910390f35b610205610597565b60405161021291906115ea565b60405180910390f35b61023560048036036102309190810190611432565b6105af565b005b61023f610728565b60405161024c91906115ea565b60405180910390f35b61025d610740565b60405161026a91906115ea565b60405180910390f35b61027b610758565b60405161028891906115ea565b60405180910390f35b610299610770565b6040516102a691906115ea565b60405180910390f35b6102b7610788565b6040516102c491906115ea565b60405180910390f35b6102d561079b565b6040516102e291906115ea565b60405180910390f35b61030560048036036103009190810190611481565b6107b3565b005b61030f610871565b60405161031c91906115ea565b60405180910390f35b61032d610889565b60405161033a91906115ea565b60405180910390f35b61035d600480360361035891908101906113e0565b6108a1565b60405161036a91906115ea565b60405180910390f35b61038d60048036036103889190810190611368565b6108d4565b005b610397610a5b565b6040516103a491906115ea565b60405180910390f35b6103b5610a73565b6040516103c291906115ea565b60405180910390f35b6103d3610a8b565b6040516103e091906115ea565b60405180910390f35b61040360048036036103fe9190810190611409565b610aa3565b6040516104109190611687565b60405180910390f35b610421610ad3565b60405161042e91906115ea565b60405180910390f35b61043f610aeb565b60405161044c91906115ea565b60405180910390f35b61045d610b03565b60405161046a91906115ea565b60405180910390f35b61047b610b1b565b60405161048891906115ea565b60405180910390f35b610499610b33565b6040516104a691906115ea565b60405180910390f35b6104b7610b4b565b6040516104c491906115ea565b60405180910390f35b6104d5610b63565b6040516104e291906115ea565b60405180910390f35b6104f3610b7b565b60405161050091906115ea565b60405180910390f35b610511610b93565b60405161051e91906115ea565b60405180910390f35b61052f610bab565b60405161053c91906115ea565b60405180910390f35b61054d610bc3565b60405161055a91906115ea565b60405180910390f35b61057d60048036036105789190810190611481565b610bdb565b005b73d0a1e359811322d97991e03f863a0c30c2cf029c81565b73b6b09fbffba6a5c4631e5f7b2e3ee183ac259c0d81565b6105b98382610c99565b6105c38282610ebe565b6000806105cf85610aa3565b815260200190815260200160002060009054906101000a900473ffffffffffffffffffffffffffffffffffffffff1673ffffffffffffffffffffffffffffffffffffffff1663f3fef3a330836040518363ffffffff1660e01b815260040161063892919061163c565b600060405180830381600087803b15801561065257600080fd5b505af1158015610666573d6000803e3d6000fd5b5050505060008061067684610aa3565b815260200190815260200160002060009054906101000a900473ffffffffffffffffffffffffffffffffffffffff1673ffffffffffffffffffffffffffffffffffffffff166347e7ef2430836040518363ffffffff1660e01b81526004016106df92919061163c565b600060405180830381600087803b1580156106f957600080fd5b505af115801561070d573d6000803e3d6000fd5b5050505061071a83611162565b61072382611162565b505050565b73a944bd4b25c9f186a846fd5668941aa3d3b8425f81565b73eeeeeeeeeeeeeeeeeeeeeeeeeeeeeeeeeeeeeeee81565b734a6bc4e803c62081ffebcc8d227b5a87a58f1f8f81565b73b6b09fbffba6a5c4631e5f7b2e3ee183ac259c0d81565b6e170ccc93903185be5a2094c870df6281565b73bb4339c0ab5b1d9f14bd6e3426444a1e9d86a1d981565b6107bd8282610c99565b6000806107c984610aa3565b815260200190815260200160002060009054906101000a900473ffffffffffffffffffffffffffffffffffffffff1673ffffffffffffffffffffffffffffffffffffffff1663f3fef3a330836040518363ffffffff1660e01b815260040161083292919061163c565b600060405180830381600087803b15801561084c57600080fd5b505af1158015610860573d6000803e3d6000fd5b5050505061086d82611162565b5050565b73823cde416973a19f98bb9c96d97f4fe6c9a7238b81565b73863e41fe88288ebf3fcd91d8dbb679fb83fdfe1781565b60006020528060005260406000206000915054906101000a900473ffffffffffffffffffffffffffffffffffffffff1681565b600073ffffffffffffffffffffffffffffffffffffffff166000806108f96000610aa3565b815260200190815260200160002060009054906101000a900473ffffffffffffffffffffffffffffffffffffffff1673ffffffffffffffffffffffffffffffffffffffff161461094857600080fd5b826000806109566000610aa3565b815260200190815260200160002060006101000a81548173ffffffffffffffffffffffffffffffffffffffff021916908373ffffffffffffffffffffffffffffffffffffffff160217905550816000806109b06001610aa3565b815260200190815260200160002060006101000a81548173ffffffffffffffffffffffffffffffffffffffff021916908373ffffffffffffffffffffffffffffffffffffffff16021790555080600080610a0a6002610aa3565b815260200190815260200160002060006101000a81548173ffffffffffffffffffffffffffffffffffffffff021916908373ffffffffffffffffffffffffffffffffffffffff160217905550505050565b7364a436ae831c1672ae81f674cab8b6775df3475c81565b73aaf64bfcc32d0f15873a02163e7e500671a4ffcd81565b73c72e74e474682680a414b506699bbca44ab9a93081565b600081604051602001610ab691906115cf565b604051602081830303815290604052805190602001209050919050565b7332d0e18f988f952eb3524ace762042381a2c39e581565b73c4375b7de8af5a38a93548eb8453a498222c4ff281565b735595930d576aedf13945c83ce5aad827529a131081565b7325a01a05c188dacbcf1d61af55d4a5b4021f7eed81565b73f5d915570bc477f9b8d6c0e980aa81757a3aac3681565b73f4d791139ce033ad35db2b2201435fad668b1b6481565b73692f391bcc85cefce8c237c01e1f636bbd70ea4d81565b7354b44c6b18fc0b4a1010b21d524c338d1f8065f681565b734ec3570cadaaee08ae384779b0f3a45ef85289de81565b735595930d576aedf13945c83ce5aad827529a131081565b73a71937147b55deb8a530c7229c442fd3f31b7db281565b610be58282610ebe565b600080610bf184610aa3565b815260200190815260200160002060009054906101000a900473ffffffffffffffffffffffffffffffffffffffff1673ffffffffffffffffffffffffffffffffffffffff166347e7ef2430836040518363ffffffff1660e01b8152600401610c5a92919061163c565b600060405180830381600087803b158015610c7457600080fd5b505af1158015610c88573d6000803e3d6000fd5b50505050610c9582611162565b5050565b60006002811115610ca657fe5b826002811115610cb257fe5b1415610d955773b6b09fbffba6a5c4631e5f7b2e3ee183ac259c0d73ffffffffffffffffffffffffffffffffffffffff1663095ea7b3600080610cf486610aa3565b815260200190815260200160002060009054906101000a900473ffffffffffffffffffffffffffffffffffffffff16836040518363ffffffff1660e01b8152600401610d4192919061163c565b602060405180830381600087803b158015610d5b57600080fd5b505af1158015610d6f573d6000803e3d6000fd5b505050506040513d601f19601f82011682018060405250610d9391908101906113b7565b505b60016002811115610da257fe5b826002811115610dae57fe5b1415610dbf57610dbe600161118f565b5b600280811115610dcb57fe5b826002811115610dd757fe5b1415610eba5773b6b09fbffba6a5c4631e5f7b2e3ee183ac259c0d73ffffffffffffffffffffffffffffffffffffffff1663095ea7b3600080610e1986610aa3565b815260200190815260200160002060009054906101000a900473ffffffffffffffffffffffffffffffffffffffff16836040518363ffffffff1660e01b8152600401610e6692919061163c565b602060405180830381600087803b158015610e8057600080fd5b505af1158015610e94573d6000803e3d6000fd5b505050506040513d601f19601f82011682018060405250610eb891908101906113b7565b505b5050565b73c4375b7de8af5a38a93548eb8453a498222c4ff273ffffffffffffffffffffffffffffffffffffffff166323b872dd3330846040518463ffffffff1660e01b8152600401610f0f93929190611605565b602060405180830381600087803b158015610f2957600080fd5b505af1158015610f3d573d6000803e3d6000fd5b505050506040513d601f19601f82011682018060405250610f6191908101906113b7565b5060006002811115610f6f57fe5b826002811115610f7b57fe5b1480610f9c5750600280811115610f8e57fe5b826002811115610f9a57fe5b145b1561107e5773c4375b7de8af5a38a93548eb8453a498222c4ff273ffffffffffffffffffffffffffffffffffffffff1663095ea7b3600080610fdd86610aa3565b815260200190815260200160002060009054906101000a900473ffffffffffffffffffffffffffffffffffffffff16836040518363ffffffff1660e01b815260040161102a92919061163c565b602060405180830381600087803b15801561104457600080fd5b505af1158015611058573d6000803e3d6000fd5b505050506040513d601f19601f8201168201806040525061107c91908101906113b7565b505b6001600281111561108b57fe5b82600281111561109757fe5b141561115e5773c4375b7de8af5a38a93548eb8453a498222c4ff273ffffffffffffffffffffffffffffffffffffffff1663095ea7b3734ec3570cadaaee08ae384779b0f3a45ef85289de836040518363ffffffff1660e01b815260040161110092919061163c565b602060405180830381600087803b15801561111a57600080fd5b505af115801561112e573d6000803e3d6000fd5b505050506040513d601f19601f8201168201806040525061115291908101906113b7565b5061115d600161118f565b5b5050565b6001600281111561116f57fe5b81600281111561117b57fe5b141561118c5761118b600061118f565b5b50565b606060016040519080825280602002602001820160405280156111cc57816020015b6111b96112d2565b8152602001906001900390816111b15790505b50905060405180604001604052806000806111e76001610aa3565b815260200190815260200160002060009054906101000a900473ffffffffffffffffffffffffffffffffffffffff1673ffffffffffffffffffffffffffffffffffffffff1681526020018315158152508160008151811061124457fe5b6020026020010181905250734ec3570cadaaee08ae384779b0f3a45ef85289de73ffffffffffffffffffffffffffffffffffffffff166385b53fc8826040518263ffffffff1660e01b815260040161129c9190611665565b600060405180830381600087803b1580156112b657600080fd5b505af11580156112ca573d6000803e3d6000fd5b505050505050565b6040518060400160405280600073ffffffffffffffffffffffffffffffffffffffff1681526020016000151581525090565b6000611310823561173e565b905092915050565b60006113248251611750565b905092915050565b6000611338823561175c565b905092915050565b600061134c8235611766565b905092915050565b6000611360823561179d565b905092915050565b60008060006060848603121561137d57600080fd5b600061138b86828701611304565b935050602061139c86828701611304565b92505060406113ad86828701611304565b9150509250925092565b6000602082840312156113c957600080fd5b60006113d784828501611318565b91505092915050565b6000602082840312156113f257600080fd5b60006114008482850161132c565b91505092915050565b60006020828403121561141b57600080fd5b600061142984828501611340565b91505092915050565b60008060006060848603121561144757600080fd5b600061145586828701611340565b935050602061146686828701611340565b925050604061147786828701611354565b9150509250925092565b6000806040838503121561149457600080fd5b60006114a285828601611340565b92505060206114b385828601611354565b9150509250929050565b60006114c98383611591565b60408301905092915050565b6114de816117a7565b82525050565b6114ed816116d8565b82525050565b6114fc816116d8565b82525050565b600061150d826116af565b61151781856116c7565b9350611522836116a2565b60005b82811015611550576115388683516114bd565b9550611543826116ba565b9150600181019050611525565b50849250505092915050565b611565816116ea565b82525050565b611574816116f6565b82525050565b61158b611586826117b9565b6117ef565b82525050565b6040820160008201516115a760008501826114e4565b5060208201516115ba602085018261155c565b50505050565b6115c981611734565b82525050565b60006115db828461157a565b60018201915081905092915050565b60006020820190506115ff60008301846114f3565b92915050565b600060608201905061161a60008301866114d5565b61162760208301856114f3565b61163460408301846115c0565b949350505050565b600060408201905061165160008301856114f3565b61165e60208301846115c0565b9392505050565b6000602082019050818103600083015261167f8184611502565b905092915050565b600060208201905061169c600083018461156b565b92915050565b6000602082019050919050565b600081519050919050565b6000602082019050919050565b600082825260208201905092915050565b60006116e382611714565b9050919050565b60008115159050919050565b6000819050919050565b60006003821061170c57fe5b819050919050565b600073ffffffffffffffffffffffffffffffffffffffff82169050919050565b6000819050919050565b60006117498261177d565b9050919050565b60008115159050919050565b6000819050919050565b60006003821061177557600080fd5b819050919050565b600073ffffffffffffffffffffffffffffffffffffffff82169050919050565b6000819050919050565b60006117b2826117cb565b9050919050565b60006117c482611700565b9050919050565b60006117d6826117dd565b9050919050565b60006117e882611714565b9050919050565b60006117fa82611801565b9050919050565b60008160f81b905091905056fea265627a7a723058208a28038fdfd9485574c596eb8ecf8d14493c634884bb306aa844cc97dba396bc6c6578706572696d656e74616cf50037",
  "source": "pragma solidity ^0.5.0;\npragma experimental ABIEncoderV2;\n\nimport \"./ProtocolInterface.sol\";\nimport \"../interfaces/ERC20.sol\";\nimport \"../constants/ConstantAddresses.sol\";\nimport \"./dydx/ISoloMargin.sol\";\n\ncontract SavingsProxy is ConstantAddresses {\n\n    enum SavingsProtocol { Compound, Dydx, Fulcrum }\n\n    mapping(bytes32 => address) public protocols;\n\n    function addProtocols(address _compoundProtocol, address _dydxProtocol, address _fulcrumProtocol) public {\n        // allow setting only once\n        require(protocols[getKey(SavingsProtocol.Compound)] == address(0));\n\n        protocols[getKey(SavingsProtocol.Compound)] = _compoundProtocol;\n        protocols[getKey(SavingsProtocol.Dydx)] = _dydxProtocol;\n        protocols[getKey(SavingsProtocol.Fulcrum)] = _fulcrumProtocol;\n    }\n\n    function deposit(SavingsProtocol _protocol, uint _amount) public {\n        approveDeposit(_protocol, _amount);\n\n        ProtocolInterface(protocols[getKey(_protocol)]).deposit(address(this), _amount);\n\n        endAction(_protocol);\n    }\n\n    function withdraw(SavingsProtocol _protocol, uint _amount) public {\n        approveWithdraw(_protocol, _amount);\n\n        ProtocolInterface(protocols[getKey(_protocol)]).withdraw(address(this), _amount);\n\n        endAction(_protocol);\n    }\n\n    function swap(SavingsProtocol _from, SavingsProtocol _to, uint _amount) public {\n        approveWithdraw(_from, _amount);\n        approveDeposit(_to, _amount);\n\n        ProtocolInterface(protocols[getKey(_from)]).withdraw(address(this), _amount);\n        ProtocolInterface(protocols[getKey(_to)]).deposit(address(this), _amount);\n\n        endAction(_from);\n        endAction(_to);\n    }\n\n    function getKey(SavingsProtocol _protocol) public view returns(bytes32) {\n        return keccak256(abi.encodePacked(_protocol));\n    }\n\n    function endAction(SavingsProtocol _protocol)  internal {\n        if (_protocol == SavingsProtocol.Dydx) {\n            setDydxOperator(false);\n        }\n    }\n\n    function approveDeposit(SavingsProtocol _protocol, uint _amount) internal {\n        ERC20(MAKER_DAI_ADDRESS).transferFrom(msg.sender, address(this), _amount);\n\n        if (_protocol == SavingsProtocol.Compound || _protocol == SavingsProtocol.Fulcrum) {\n            ERC20(MAKER_DAI_ADDRESS).approve(protocols[getKey(_protocol)], _amount);\n        }\n\n        if (_protocol == SavingsProtocol.Dydx) {\n            ERC20(MAKER_DAI_ADDRESS).approve(SOLO_MARGIN_ADDRESS, _amount);\n            setDydxOperator(true);\n        }\n    }\n\n    function approveWithdraw(SavingsProtocol _protocol, uint _amount) internal {\n        if (_protocol == SavingsProtocol.Compound) {\n            ERC20(CDAI_ADDRESS).approve(protocols[getKey(_protocol)], _amount);\n        }\n\n        if (_protocol == SavingsProtocol.Dydx) {\n            setDydxOperator(true);\n        }\n\n        if (_protocol == SavingsProtocol.Fulcrum) {\n            ERC20(IDAI_ADDRESS).approve(protocols[getKey(_protocol)], _amount);\n        }\n    }\n\n    function setDydxOperator(bool _trusted) internal {\n        ISoloMargin.OperatorArg[] memory operatorArgs = new ISoloMargin.OperatorArg[](1);\n        operatorArgs[0] = ISoloMargin.OperatorArg({\n            operator: protocols[getKey(SavingsProtocol.Dydx)],\n            trusted: _trusted\n        });\n\n        ISoloMargin(SOLO_MARGIN_ADDRESS).setOperators(operatorArgs);\n    }\n}\n",
  "sourcePath": "/Users/nikolaklipa/Decenter/defisaver/cdpsaver-contracts/contracts/savings/SavingsProxy.sol",
  "compiler": {
    "name": "solc",
    "version": "0.5.7+commit.6da8b019.Emscripten.clang"
  },
  "schemaVersion": "3.0.9",
  "updatedAt": "2019-08-12T14:29:47.309Z",
  "devdoc": {
    "methods": {}
  },
  "userdoc": {
    "methods": {}
  }
}