{
  "contractName": "SavingsProxy",
  "abi": [
    {
      "constant": true,
      "inputs": [
        {
          "name": "",
          "type": "bytes32"
        }
      ],
      "name": "protocols",
      "outputs": [
        {
          "name": "",
          "type": "address"
        }
      ],
      "payable": false,
      "stateMutability": "view",
      "type": "function"
    },
    {
      "constant": false,
      "inputs": [
        {
          "name": "_compoundProtocol",
          "type": "address"
        },
        {
          "name": "_dydxProtocol",
          "type": "address"
        },
        {
          "name": "_fulcrumProtocol",
          "type": "address"
        }
      ],
      "name": "addProtocols",
      "outputs": [],
      "payable": false,
      "stateMutability": "nonpayable",
      "type": "function"
    },
    {
      "constant": false,
      "inputs": [
        {
          "name": "_protocol",
          "type": "uint8"
        },
        {
          "name": "_amount",
          "type": "uint256"
        }
      ],
      "name": "deposit",
      "outputs": [],
      "payable": false,
      "stateMutability": "nonpayable",
      "type": "function"
    },
    {
      "constant": false,
      "inputs": [
        {
          "name": "_protocol",
          "type": "uint8"
        },
        {
          "name": "_amount",
          "type": "uint256"
        }
      ],
      "name": "withdraw",
      "outputs": [],
      "payable": false,
      "stateMutability": "nonpayable",
      "type": "function"
    },
    {
      "constant": false,
      "inputs": [
        {
          "name": "_from",
          "type": "uint8"
        },
        {
          "name": "_to",
          "type": "uint8"
        },
        {
          "name": "_amount",
          "type": "uint256"
        }
      ],
      "name": "swap",
      "outputs": [],
      "payable": false,
      "stateMutability": "nonpayable",
      "type": "function"
    },
    {
      "constant": true,
      "inputs": [
        {
          "name": "_protocol",
          "type": "uint8"
        }
      ],
      "name": "getKeyValue",
      "outputs": [
        {
          "name": "",
          "type": "bytes32"
        }
      ],
      "payable": false,
      "stateMutability": "view",
      "type": "function"
    }
  ],
  "bytecode": "0x608060405234801561001057600080fd5b5061096b806100206000396000f3fe608060405234801561001057600080fd5b50600436106100625760003560e01c80631ab62b68146100675780633f489914146100835780635515fe0a1461009f5780635cba0fd0146100cf578063ed343668146100eb578063f4d4c9d71461011b575b600080fd5b610081600480360361007c91908101906106bb565b610137565b005b61009d6004803603610098919081019061070a565b61028a565b005b6100b960048036036100b49190810190610669565b610335565b6040516100c691906107b4565b60405180910390f35b6100e960048036036100e4919081019061061a565b610368565b005b61010560048036036101009190810190610692565b6104ef565b60405161011291906107f8565b60405180910390f35b6101356004803603610130919081019061070a565b61051f565b005b600080610143856104ef565b815260200190815260200160002060009054906101000a900473ffffffffffffffffffffffffffffffffffffffff1673ffffffffffffffffffffffffffffffffffffffff1663f3fef3a333836040518363ffffffff1660e01b81526004016101ac9291906107cf565b600060405180830381600087803b1580156101c657600080fd5b505af11580156101da573d6000803e3d6000fd5b505050506000806101ea846104ef565b815260200190815260200160002060009054906101000a900473ffffffffffffffffffffffffffffffffffffffff1673ffffffffffffffffffffffffffffffffffffffff166347e7ef2433836040518363ffffffff1660e01b81526004016102539291906107cf565b600060405180830381600087803b15801561026d57600080fd5b505af1158015610281573d6000803e3d6000fd5b50505050505050565b600080610296846104ef565b815260200190815260200160002060009054906101000a900473ffffffffffffffffffffffffffffffffffffffff1673ffffffffffffffffffffffffffffffffffffffff1663f3fef3a333836040518363ffffffff1660e01b81526004016102ff9291906107cf565b600060405180830381600087803b15801561031957600080fd5b505af115801561032d573d6000803e3d6000fd5b505050505050565b60006020528060005260406000206000915054906101000a900473ffffffffffffffffffffffffffffffffffffffff1681565b600073ffffffffffffffffffffffffffffffffffffffff1660008061038d60006104ef565b815260200190815260200160002060009054906101000a900473ffffffffffffffffffffffffffffffffffffffff1673ffffffffffffffffffffffffffffffffffffffff16146103dc57600080fd5b826000806103ea60006104ef565b815260200190815260200160002060006101000a81548173ffffffffffffffffffffffffffffffffffffffff021916908373ffffffffffffffffffffffffffffffffffffffff1602179055508160008061044460016104ef565b815260200190815260200160002060006101000a81548173ffffffffffffffffffffffffffffffffffffffff021916908373ffffffffffffffffffffffffffffffffffffffff1602179055508060008061049e60026104ef565b815260200190815260200160002060006101000a81548173ffffffffffffffffffffffffffffffffffffffff021916908373ffffffffffffffffffffffffffffffffffffffff160217905550505050565b6000816040516020016105029190610799565b604051602081830303815290604052805190602001209050919050565b60008061052b846104ef565b815260200190815260200160002060009054906101000a900473ffffffffffffffffffffffffffffffffffffffff1673ffffffffffffffffffffffffffffffffffffffff166347e7ef2433836040518363ffffffff1660e01b81526004016105949291906107cf565b600060405180830381600087803b1580156105ae57600080fd5b505af11580156105c2573d6000803e3d6000fd5b505050505050565b60006105d6823561086d565b905092915050565b60006105ea823561087f565b905092915050565b60006105fe8235610889565b905092915050565b600061061282356108c0565b905092915050565b60008060006060848603121561062f57600080fd5b600061063d868287016105ca565b935050602061064e868287016105ca565b925050604061065f868287016105ca565b9150509250925092565b60006020828403121561067b57600080fd5b6000610689848285016105de565b91505092915050565b6000602082840312156106a457600080fd5b60006106b2848285016105f2565b91505092915050565b6000806000606084860312156106d057600080fd5b60006106de868287016105f2565b93505060206106ef868287016105f2565b925050604061070086828701610606565b9150509250925092565b6000806040838503121561071d57600080fd5b600061072b858286016105f2565b925050602061073c85828601610606565b9150509250929050565b61074f816108ca565b82525050565b61075e81610813565b82525050565b61076d81610825565b82525050565b61078461077f826108dc565b610912565b82525050565b61079381610863565b82525050565b60006107a58284610773565b60018201915081905092915050565b60006020820190506107c96000830184610755565b92915050565b60006040820190506107e46000830185610746565b6107f1602083018461078a565b9392505050565b600060208201905061080d6000830184610764565b92915050565b600061081e82610843565b9050919050565b6000819050919050565b60006003821061083b57fe5b819050919050565b600073ffffffffffffffffffffffffffffffffffffffff82169050919050565b6000819050919050565b6000610878826108a0565b9050919050565b6000819050919050565b60006003821061089857600080fd5b819050919050565b600073ffffffffffffffffffffffffffffffffffffffff82169050919050565b6000819050919050565b60006108d5826108ee565b9050919050565b60006108e78261082f565b9050919050565b60006108f982610900565b9050919050565b600061090b82610843565b9050919050565b600061091d82610924565b9050919050565b60008160f81b905091905056fea265627a7a7230582081b6453cb0500be3d0dc2b698b5f83d5154cfd196a4a0aaa262578770b1ccafd6c6578706572696d656e74616cf50037",
  "source": "pragma solidity ^0.5.0;\npragma experimental ABIEncoderV2;\n\nimport \"./ProtocolInterface.sol\";\n\ncontract SavingsProxy {\n\n    enum SavingsProtocol { Compound, Dydx, Fulcrum }\n\n    mapping(bytes32 => address) public protocols;\n\n    function addProtocols(address _compoundProtocol, address _dydxProtocol, address _fulcrumProtocol) public {\n        // allow setting only once\n        require(protocols[getKeyValue(SavingsProtocol.Compound)] == address(0));\n\n        protocols[getKeyValue(SavingsProtocol.Compound)] = _compoundProtocol;\n        protocols[getKeyValue(SavingsProtocol.Dydx)] = _dydxProtocol;\n        protocols[getKeyValue(SavingsProtocol.Fulcrum)] = _fulcrumProtocol;\n    }\n\n    function deposit(SavingsProtocol _protocol, uint _amount) public {\n        ProtocolInterface(protocols[getKeyValue(_protocol)]).deposit(msg.sender, _amount);\n    }\n\n    function withdraw(SavingsProtocol _protocol, uint _amount) public {\n        ProtocolInterface(protocols[getKeyValue(_protocol)]).withdraw(msg.sender, _amount);\n    }\n\n    function swap(SavingsProtocol _from, SavingsProtocol _to, uint _amount) public {\n        ProtocolInterface(protocols[getKeyValue(_from)]).withdraw(msg.sender, _amount);\n        ProtocolInterface(protocols[getKeyValue(_to)]).deposit(msg.sender, _amount);\n    }\n\n    function getKeyValue(SavingsProtocol _protocol) public view returns(bytes32) {\n        return keccak256(abi.encodePacked(_protocol));\n    }\n}\n",
  "sourcePath": "/Users/nikolaklipa/Decenter/defisaver/cdpsaver-contracts/contracts/savings/SavingsProxy.sol",
  "compiler": {
    "name": "solc",
    "version": "0.5.7+commit.6da8b019.Emscripten.clang"
  },
  "schemaVersion": "3.0.9",
  "updatedAt": "2019-08-08T19:13:24.730Z",
  "devdoc": {
    "methods": {}
  },
  "userdoc": {
    "methods": {}
  }
}