{
  "contractName": "StupidExchange",
  "abi": [
    {
      "constant": true,
      "inputs": [],
      "name": "MAKER_DAI_ADDRESS",
      "outputs": [
        {
          "name": "",
          "type": "address"
        }
      ],
      "payable": false,
      "stateMutability": "view",
      "type": "function"
    },
    {
      "constant": true,
      "inputs": [],
      "name": "COMPOUND_DAI_ADDRESS",
      "outputs": [
        {
          "name": "",
          "type": "address"
        }
      ],
      "payable": false,
      "stateMutability": "view",
      "type": "function"
    },
    {
      "constant": false,
      "inputs": [
        {
          "name": "_amount",
          "type": "uint256"
        }
      ],
      "name": "getMakerDaiToken",
      "outputs": [],
      "payable": false,
      "stateMutability": "nonpayable",
      "type": "function"
    },
    {
      "constant": false,
      "inputs": [
        {
          "name": "_amount",
          "type": "uint256"
        }
      ],
      "name": "getCompoundDaiToken",
      "outputs": [],
      "payable": false,
      "stateMutability": "nonpayable",
      "type": "function"
    }
  ],
  "bytecode": "0x608060405234801561001057600080fd5b50610351806100206000396000f3fe608060405234801561001057600080fd5b506004361061004c5760003560e01c806369a90514146100515780639da779e91461007f578063c16921b7146100c9578063db8b0a5814610113575b600080fd5b61007d6004803603602081101561006757600080fd5b8101908080359060200190929190505050610141565b005b61008761021b565b604051808273ffffffffffffffffffffffffffffffffffffffff1673ffffffffffffffffffffffffffffffffffffffff16815260200191505060405180910390f35b6100d1610233565b604051808273ffffffffffffffffffffffffffffffffffffffff1673ffffffffffffffffffffffffffffffffffffffff16815260200191505060405180910390f35b61013f6004803603602081101561012957600080fd5b810190808035906020019092919050505061024b565b005b7325a01a05c188dacbcf1d61af55d4a5b4021f7eed73ffffffffffffffffffffffffffffffffffffffff1663a9059cbb33836040518363ffffffff1660e01b8152600401808373ffffffffffffffffffffffffffffffffffffffff1673ffffffffffffffffffffffffffffffffffffffff16815260200182815260200192505050602060405180830381600087803b1580156101dc57600080fd5b505af11580156101f0573d6000803e3d6000fd5b505050506040513d602081101561020657600080fd5b81019080805190602001909291905050505050565b73c4375b7de8af5a38a93548eb8453a498222c4ff281565b7325a01a05c188dacbcf1d61af55d4a5b4021f7eed81565b73c4375b7de8af5a38a93548eb8453a498222c4ff273ffffffffffffffffffffffffffffffffffffffff1663a9059cbb33836040518363ffffffff1660e01b8152600401808373ffffffffffffffffffffffffffffffffffffffff1673ffffffffffffffffffffffffffffffffffffffff16815260200182815260200192505050602060405180830381600087803b1580156102e657600080fd5b505af11580156102fa573d6000803e3d6000fd5b505050506040513d602081101561031057600080fd5b8101908080519060200190929190505050505056fea165627a7a72305820e0737b32a5a9969035c6ea3210d7d6d745442a2f378b13a077b4bedc028c2f9c0029",
  "source": "pragma solidity ^0.5.0;\n\nimport \"../interfaces/ERC20.sol\";\n\n/// @title Used only on kovan as a helper because different Dai tokens are used in Maker | Compound\ncontract StupidExchange {\n    address public constant MAKER_DAI_ADDRESS = 0xC4375B7De8af5a38a93548eb8453a498222C4fF2;\n    address public constant COMPOUND_DAI_ADDRESS = 0x25a01a05C188DaCBCf1D61Af55D4a5B4021F7eeD;\n    \n    function getMakerDaiToken(uint _amount) public {\n        ERC20(MAKER_DAI_ADDRESS).transfer(msg.sender, _amount);\n    }\n    \n    function getCompoundDaiToken(uint _amount) public {\n        ERC20(COMPOUND_DAI_ADDRESS).transfer(msg.sender, _amount);\n    }\n}\n",
  "sourcePath": "/Users/nikolaklipa/Decenter/defisaver/cdpsaver-contracts/contracts/compound/StupidExchange.sol",
  "compiler": {
    "name": "solc",
    "version": "0.5.7+commit.6da8b019.Emscripten.clang"
  },
  "schemaVersion": "3.0.9",
  "updatedAt": "2019-08-01T13:30:59.845Z",
  "devdoc": {
    "methods": {},
    "title": "Used only on kovan as a helper because different Dai tokens are used in Maker | Compound"
  },
  "userdoc": {
    "methods": {}
  }
}