{
  "contractName": "UniswapWrapper",
  "abi": [
    {
      "constant": true,
      "inputs": [],
      "name": "KYBER_ETH_ADDRESS",
      "outputs": [
        {
          "name": "",
          "type": "address"
        }
      ],
      "payable": false,
      "stateMutability": "view",
      "type": "function"
    },
    {
      "constant": true,
      "inputs": [],
      "name": "UNISWAP_FACTORY",
      "outputs": [
        {
          "name": "",
          "type": "address"
        }
      ],
      "payable": false,
      "stateMutability": "view",
      "type": "function"
    },
    {
      "payable": true,
      "stateMutability": "payable",
      "type": "fallback"
    },
    {
      "constant": false,
      "inputs": [
        {
          "name": "_ethAmount",
          "type": "uint256"
        },
        {
          "name": "_tokenAddress",
          "type": "address"
        },
        {
          "name": "_maxAmount",
          "type": "uint256"
        }
      ],
      "name": "swapEtherToToken",
      "outputs": [
        {
          "name": "",
          "type": "uint256"
        },
        {
          "name": "",
          "type": "uint256"
        }
      ],
      "payable": true,
      "stateMutability": "payable",
      "type": "function"
    },
    {
      "constant": false,
      "inputs": [
        {
          "name": "_tokenAddress",
          "type": "address"
        },
        {
          "name": "_amount",
          "type": "uint256"
        },
        {
          "name": "_maxAmount",
          "type": "uint256"
        }
      ],
      "name": "swapTokenToEther",
      "outputs": [
        {
          "name": "",
          "type": "uint256"
        }
      ],
      "payable": false,
      "stateMutability": "nonpayable",
      "type": "function"
    },
    {
      "constant": false,
      "inputs": [
        {
          "name": "_src",
          "type": "address"
        },
        {
          "name": "_dest",
          "type": "address"
        },
        {
          "name": "_srcQty",
          "type": "uint256"
        }
      ],
      "name": "getExpectedRate",
      "outputs": [
        {
          "name": "",
          "type": "uint256"
        },
        {
          "name": "",
          "type": "uint256"
        }
      ],
      "payable": false,
      "stateMutability": "nonpayable",
      "type": "function"
    }
  ],
  "bytecode": "0x608060405234801561001057600080fd5b50610dd1806100206000396000f3fe60806040526004361061004a5760003560e01c806329f7fc9e1461004c5780633bba21dc146100a357806343ac1dc61461011c578063809a9e551461018f578063c74c0fac14610225575b005b34801561005857600080fd5b5061006161027c565b604051808273ffffffffffffffffffffffffffffffffffffffff1673ffffffffffffffffffffffffffffffffffffffff16815260200191505060405180910390f35b3480156100af57600080fd5b50610106600480360360608110156100c657600080fd5b81019080803573ffffffffffffffffffffffffffffffffffffffff1690602001909291908035906020019092919080359060200190929190505050610294565b6040518082815260200191505060405180910390f35b6101726004803603606081101561013257600080fd5b8101908080359060200190929190803573ffffffffffffffffffffffffffffffffffffffff1690602001909291908035906020019092919050505061050d565b604051808381526020018281526020019250505060405180910390f35b34801561019b57600080fd5b50610208600480360360608110156101b257600080fd5b81019080803573ffffffffffffffffffffffffffffffffffffffff169060200190929190803573ffffffffffffffffffffffffffffffffffffffff169060200190929190803590602001909291905050506106c6565b604051808381526020018281526020019250505060405180910390f35b34801561023157600080fd5b5061023a610d0f565b604051808273ffffffffffffffffffffffffffffffffffffffff1673ffffffffffffffffffffffffffffffffffffffff16815260200191505060405180910390f35b73eeeeeeeeeeeeeeeeeeeeeeeeeeeeeeeeeeeeeeee81565b60008073f5d915570bc477f9b8d6c0e980aa81757a3aac3673ffffffffffffffffffffffffffffffffffffffff166306f2bf62866040518263ffffffff1660e01b8152600401808273ffffffffffffffffffffffffffffffffffffffff1673ffffffffffffffffffffffffffffffffffffffff16815260200191505060206040518083038186803b15801561032857600080fd5b505afa15801561033c573d6000803e3d6000fd5b505050506040513d602081101561035257600080fd5b810190808051906020019092919050505090508473ffffffffffffffffffffffffffffffffffffffff1663095ea7b382866040518363ffffffff1660e01b8152600401808373ffffffffffffffffffffffffffffffffffffffff1673ffffffffffffffffffffffffffffffffffffffff16815260200182815260200192505050602060405180830381600087803b1580156103ec57600080fd5b505af1158015610400573d6000803e3d6000fd5b505050506040513d602081101561041657600080fd5b81019080805190602001909291905050505060008173ffffffffffffffffffffffffffffffffffffffff16637237e031866001804201336040518563ffffffff1660e01b8152600401808581526020018481526020018381526020018273ffffffffffffffffffffffffffffffffffffffff1673ffffffffffffffffffffffffffffffffffffffff168152602001945050505050602060405180830381600087803b1580156104c457600080fd5b505af11580156104d8573d6000803e3d6000fd5b505050506040513d60208110156104ee57600080fd5b8101908080519060200190929190505050905080925050509392505050565b600080600073f5d915570bc477f9b8d6c0e980aa81757a3aac3673ffffffffffffffffffffffffffffffffffffffff166306f2bf62866040518263ffffffff1660e01b8152600401808273ffffffffffffffffffffffffffffffffffffffff1673ffffffffffffffffffffffffffffffffffffffff16815260200191505060206040518083038186803b1580156105a357600080fd5b505afa1580156105b7573d6000803e3d6000fd5b505050506040513d60208110156105cd57600080fd5b8101908080519060200190929190505050905060008173ffffffffffffffffffffffffffffffffffffffff1663ad65d76d886001804201336040518563ffffffff1660e01b8152600401808481526020018381526020018273ffffffffffffffffffffffffffffffffffffffff1673ffffffffffffffffffffffffffffffffffffffff16815260200193505050506020604051808303818588803b15801561067457600080fd5b505af1158015610688573d6000803e3d6000fd5b50505050506040513d602081101561069f57600080fd5b81019080805190602001909291905050509050806000809050935093505050935093915050565b60008073eeeeeeeeeeeeeeeeeeeeeeeeeeeeeeeeeeeeeeee73ffffffffffffffffffffffffffffffffffffffff168573ffffffffffffffffffffffffffffffffffffffff16141561088557600073f5d915570bc477f9b8d6c0e980aa81757a3aac3673ffffffffffffffffffffffffffffffffffffffff166306f2bf62866040518263ffffffff1660e01b8152600401808273ffffffffffffffffffffffffffffffffffffffff1673ffffffffffffffffffffffffffffffffffffffff16815260200191505060206040518083038186803b1580156107a457600080fd5b505afa1580156107b8573d6000803e3d6000fd5b505050506040513d60208110156107ce57600080fd5b810190808051906020019092919050505090506108768173ffffffffffffffffffffffffffffffffffffffff1663cd7724c3866040518263ffffffff1660e01b81526004018082815260200191505060206040518083038186803b15801561083557600080fd5b505afa158015610849573d6000803e3d6000fd5b505050506040513d602081101561085f57600080fd5b810190808051906020019092919050505085610d27565b60008090509250925050610d07565b73eeeeeeeeeeeeeeeeeeeeeeeeeeeeeeeeeeeeeeee73ffffffffffffffffffffffffffffffffffffffff168473ffffffffffffffffffffffffffffffffffffffff161415610a4157600073f5d915570bc477f9b8d6c0e980aa81757a3aac3673ffffffffffffffffffffffffffffffffffffffff166306f2bf62876040518263ffffffff1660e01b8152600401808273ffffffffffffffffffffffffffffffffffffffff1673ffffffffffffffffffffffffffffffffffffffff16815260200191505060206040518083038186803b15801561096057600080fd5b505afa158015610974573d6000803e3d6000fd5b505050506040513d602081101561098a57600080fd5b81019080805190602001909291905050509050610a328173ffffffffffffffffffffffffffffffffffffffff166395b68fe7866040518263ffffffff1660e01b81526004018082815260200191505060206040518083038186803b1580156109f157600080fd5b505afa158015610a05573d6000803e3d6000fd5b505050506040513d6020811015610a1b57600080fd5b810190808051906020019092919050505085610d27565b60008090509250925050610d07565b600073f5d915570bc477f9b8d6c0e980aa81757a3aac3673ffffffffffffffffffffffffffffffffffffffff166306f2bf62876040518263ffffffff1660e01b8152600401808273ffffffffffffffffffffffffffffffffffffffff1673ffffffffffffffffffffffffffffffffffffffff16815260200191505060206040518083038186803b158015610ad457600080fd5b505afa158015610ae8573d6000803e3d6000fd5b505050506040513d6020811015610afe57600080fd5b810190808051906020019092919050505073ffffffffffffffffffffffffffffffffffffffff166395b68fe7856040518263ffffffff1660e01b81526004018082815260200191505060206040518083038186803b158015610b5f57600080fd5b505afa158015610b73573d6000803e3d6000fd5b505050506040513d6020811015610b8957600080fd5b81019080805190602001909291905050509050610cfc73f5d915570bc477f9b8d6c0e980aa81757a3aac3673ffffffffffffffffffffffffffffffffffffffff166306f2bf62876040518263ffffffff1660e01b8152600401808273ffffffffffffffffffffffffffffffffffffffff1673ffffffffffffffffffffffffffffffffffffffff16815260200191505060206040518083038186803b158015610c3057600080fd5b505afa158015610c44573d6000803e3d6000fd5b505050506040513d6020811015610c5a57600080fd5b810190808051906020019092919050505073ffffffffffffffffffffffffffffffffffffffff1663cd7724c3836040518263ffffffff1660e01b81526004018082815260200191505060206040518083038186803b158015610cbb57600080fd5b505afa158015610ccf573d6000803e3d6000fd5b505050506040513d6020811015610ce557600080fd5b810190808051906020019092919050505082610d27565b600080905092509250505b935093915050565b73f5d915570bc477f9b8d6c0e980aa81757a3aac3681565b600081610d4f610d3f85670de0b6b3a7640000610d5f565b60028581610d4957fe5b04610d8b565b81610d5657fe5b04905092915050565b600080821480610d7c5750828283850292508281610d7957fe5b04145b610d8557600080fd5b92915050565b6000828284019150811015610d9f57600080fd5b9291505056fea165627a7a72305820fce669b63d2ae9b125e210d5a1f00b37ff69bf36e4b1768d964a755618e6a4130029",
  "source": "pragma solidity ^0.5.0;\n\nimport \"./interfaces/ERC20.sol\";\nimport \"./interfaces/KyberNetworkProxyInterface.sol\";\nimport \"./interfaces/ExchangeInterface.sol\";\nimport \"./interfaces/UniswapExchangeInterface.sol\";\nimport \"./DS/DSMath.sol\";\n\ncontract UniswapFactoryInterface {\n    function getExchange(address token) external view returns (address exchange);\n}\n\ncontract UniswapWrapper is ExchangeInterface, DSMath {\n\n    address public constant KYBER_ETH_ADDRESS = 0xEeeeeEeeeEeEeeEeEeEeeEEEeeeeEeeeeeeeEEeE;\n\n    // Mainnet, no kovan deployment :(\n    // address public constant UNISWAP_FACTORY = 0xc0a47dFe034B400B47bDaD5FecDa2621de6c4d95;\n\n    // Rinkeby\n    address public constant UNISWAP_FACTORY = 0xf5D915570BC477f9B8D6C0E980aA81757A3AaC36;\n\n    function swapEtherToToken (uint _ethAmount, address _tokenAddress, uint _maxAmount) external payable returns(uint, uint) {\n        address uniswapTokenAddress = UniswapFactoryInterface(UNISWAP_FACTORY).getExchange(_tokenAddress);\n\n        uint tokenAmount = UniswapExchangeInterface(uniswapTokenAddress).\n                ethToTokenTransferInput.value(_ethAmount)(1, block.timestamp + 1, msg.sender);\n\n        return (tokenAmount, 0);\n    }\n    \n    function swapTokenToEther (address _tokenAddress, uint _amount, uint _maxAmount) external returns(uint) {\n        address uniswapTokenAddress = UniswapFactoryInterface(UNISWAP_FACTORY).getExchange(_tokenAddress);\n\n        ERC20(_tokenAddress).approve(uniswapTokenAddress, _amount);\n\n        uint ethAmount = UniswapExchangeInterface(uniswapTokenAddress).\n                tokenToEthTransferInput(_amount, 1, block.timestamp + 1, msg.sender);\n\n        return ethAmount;\n    }\n\n    function getExpectedRate(address _src, address _dest, uint _srcQty) public returns (uint, uint) {\n        if(_src == KYBER_ETH_ADDRESS) {\n            address uniswapTokenAddress = UniswapFactoryInterface(UNISWAP_FACTORY).getExchange(_dest);\n            return (wdiv(UniswapExchangeInterface(uniswapTokenAddress).getEthToTokenInputPrice(_srcQty), _srcQty), 0);\n        } else if (_dest == KYBER_ETH_ADDRESS) {\n            address uniswapTokenAddress = UniswapFactoryInterface(UNISWAP_FACTORY).getExchange(_src);\n            return (wdiv(UniswapExchangeInterface(uniswapTokenAddress).getTokenToEthInputPrice(_srcQty), _srcQty), 0);\n        } else {\n            uint ethBought = UniswapExchangeInterface(UniswapFactoryInterface(UNISWAP_FACTORY).getExchange(_src)).getTokenToEthInputPrice(_srcQty);\n            return (wdiv(UniswapExchangeInterface(UniswapFactoryInterface(UNISWAP_FACTORY).getExchange(_dest)).getEthToTokenInputPrice(ethBought), ethBought), 0);\n        }\n    }\n\n    function() payable external {\n    }\n}",
  "sourcePath": "/Users/nikolaklipa/Decenter/defisaver/cdpsaver-contracts/contracts/UniswapWrapper.sol",
  "compiler": {
    "name": "solc",
    "version": "0.5.7+commit.6da8b019.Emscripten.clang"
  },
  "schemaVersion": "3.0.9",
  "updatedAt": "2019-08-05T11:25:37.269Z",
  "devdoc": {
    "methods": {}
  },
  "userdoc": {
    "methods": {}
  }
}