{
  "contractName": "UniswapWrapper",
  "abi": [
    {
      "constant": true,
      "inputs": [],
      "name": "WETH_ADDRESS",
      "outputs": [
        {
          "name": "",
          "type": "address"
        }
      ],
      "payable": false,
      "stateMutability": "view",
      "type": "function"
    },
    {
      "constant": true,
      "inputs": [],
      "name": "CDAI_ADDRESS",
      "outputs": [
        {
          "name": "",
          "type": "address"
        }
      ],
      "payable": false,
      "stateMutability": "view",
      "type": "function"
    },
    {
      "payable": false,
      "stateMutability": "view",
      "type": "function",
      "constant": true,
      "inputs": [],
      "name": "PIP_INTERFACE_ADDRESS",
      "outputs": [
        {
          "name": "",
          "type": "address"
        }
      ]
    },
    {
      "constant": true,
      "inputs": [
        {
          "name": "_ethAmount",
          "type": "uint256"
        },
        {
          "name": "_tokenAddress",
          "type": "address"
        },
        {
          "name": "_maxAmount",
          "type": "uint256"
        }
      ],
      "name": "KYBER_ETH_ADDRESS",
      "outputs": [
        {
          "name": "",
          "type": "address"
        },
        {
          "name": "",
          "type": "uint256"
        }
      ],
      "payable": false,
      "stateMutability": "view",
      "type": "function"
    },
    {
      "constant": true,
      "inputs": [
        {
          "name": "_tokenAddress",
          "type": "address"
        },
        {
          "name": "_amount",
          "type": "uint256"
        },
        {
          "name": "_maxAmount",
          "type": "uint256"
        }
      ],
      "name": "OTC_ADDRESS",
      "outputs": [
        {
          "name": "",
          "type": "address"
        }
      ],
      "payable": false,
      "stateMutability": "view",
      "type": "function"
    },
    {
      "constant": true,
      "inputs": [
        {
          "name": "_src",
          "type": "address"
        },
        {
          "name": "_dest",
          "type": "address"
        },
        {
          "name": "_srcQty",
          "type": "uint256"
        }
      ],
      "name": "IDAI_ADDRESS",
      "outputs": [
        {
          "name": "",
          "type": "address"
        },
        {
          "name": "",
          "type": "uint256"
        }
      ],
      "payable": false,
      "stateMutability": "view",
      "type": "function"
    },
    {
      "constant": true,
      "inputs": [],
      "name": "GAS_TOKEN_INTERFACE_ADDRESS",
      "outputs": [
        {
          "name": "",
          "type": "address"
        }
      ],
      "payable": false,
      "stateMutability": "view",
      "type": "function"
    },
    {
      "constant": true,
      "inputs": [],
      "name": "VOX_ADDRESS",
      "outputs": [
        {
          "name": "",
          "type": "address"
        }
      ],
      "payable": false,
      "stateMutability": "view",
      "type": "function"
    },
    {
      "constant": true,
      "inputs": [],
      "name": "ETH2DAI_WRAPPER",
      "outputs": [
        {
          "name": "",
          "type": "address"
        }
      ],
      "payable": false,
      "stateMutability": "view",
      "type": "function"
    },
    {
      "constant": true,
      "inputs": [],
      "name": "STUPID_EXCHANGE",
      "outputs": [
        {
          "name": "",
          "type": "address"
        }
      ],
      "payable": false,
      "stateMutability": "view",
      "type": "function"
    },
    {
      "constant": true,
      "inputs": [],
      "name": "PROXY_REGISTRY_INTERFACE_ADDRESS",
      "outputs": [
        {
          "name": "",
          "type": "address"
        }
      ],
      "payable": false,
      "stateMutability": "view",
      "type": "function"
    },
    {
      "constant": true,
      "inputs": [],
      "name": "MKR_ADDRESS",
      "outputs": [
        {
          "name": "",
          "type": "address"
        }
      ],
      "payable": false,
      "stateMutability": "view",
      "type": "function"
    },
    {
      "constant": true,
      "inputs": [],
      "name": "FACTORY_ADDRESS",
      "outputs": [
        {
          "name": "",
          "type": "address"
        }
      ],
      "payable": false,
      "stateMutability": "view",
      "type": "function"
    },
    {
      "constant": true,
      "inputs": [],
      "name": "LOGGER_ADDRESS",
      "outputs": [
        {
          "name": "",
          "type": "address"
        }
      ],
      "payable": false,
      "stateMutability": "view",
      "type": "function"
    },
    {
      "constant": true,
      "inputs": [],
      "name": "MAKER_DAI_ADDRESS",
      "outputs": [
        {
          "name": "",
          "type": "address"
        }
      ],
      "payable": false,
      "stateMutability": "view",
      "type": "function"
    },
    {
      "constant": true,
      "inputs": [],
      "name": "KYBER_WRAPPER",
      "outputs": [
        {
          "name": "",
          "type": "address"
        }
      ],
      "payable": false,
      "stateMutability": "view",
      "type": "function"
    },
    {
      "constant": true,
      "inputs": [],
      "name": "COMPOUND_DAI_ADDRESS",
      "outputs": [
        {
          "name": "",
          "type": "address"
        }
      ],
      "payable": false,
      "stateMutability": "view",
      "type": "function"
    },
    {
      "constant": true,
      "inputs": [],
      "name": "UNISWAP_FACTORY",
      "outputs": [
        {
          "name": "",
          "type": "address"
        }
      ],
      "payable": false,
      "stateMutability": "view",
      "type": "function"
    },
    {
      "constant": true,
      "inputs": [],
      "name": "PETH_ADDRESS",
      "outputs": [
        {
          "name": "",
          "type": "address"
        }
      ],
      "payable": false,
      "stateMutability": "view",
      "type": "function"
    },
    {
      "constant": true,
      "inputs": [],
      "name": "KYBER_INTERFACE",
      "outputs": [
        {
          "name": "",
          "type": "address"
        }
      ],
      "payable": false,
      "stateMutability": "view",
      "type": "function"
    },
    {
      "constant": true,
      "inputs": [],
      "name": "WALLET_ID",
      "outputs": [
        {
          "name": "",
          "type": "address"
        }
      ],
      "payable": false,
      "stateMutability": "view",
      "type": "function"
    },
    {
      "constant": true,
      "inputs": [],
      "name": "SOLO_MARGIN_ADDRESS",
      "outputs": [
        {
          "name": "",
          "type": "address"
        }
      ],
      "payable": false,
      "stateMutability": "view",
      "type": "function"
    },
    {
      "constant": true,
      "inputs": [],
      "name": "UNISWAP_WRAPPER",
      "outputs": [
        {
          "name": "",
          "type": "address"
        }
      ],
      "payable": false,
      "stateMutability": "view",
      "type": "function"
    },
    {
      "constant": true,
      "inputs": [],
      "name": "TUB_ADDRESS",
      "outputs": [
        {
          "name": "",
          "type": "address"
        }
      ],
      "payable": false,
      "stateMutability": "view",
      "type": "function"
    },
    {
      "constant": true,
      "inputs": [],
      "name": "CTOKEN_INTERFACE",
      "outputs": [
        {
          "name": "",
          "type": "address"
        }
      ],
      "payable": false,
      "stateMutability": "view",
      "type": "function"
    },
    {
      "payable": true,
      "stateMutability": "payable",
      "type": "fallback"
    },
    {
      "constant": false,
      "inputs": [
        {
          "name": "_ethAmount",
          "type": "uint256"
        },
        {
          "name": "_tokenAddress",
          "type": "address"
        },
        {
          "name": "_maxAmount",
          "type": "uint256"
        }
      ],
      "name": "swapEtherToToken",
      "outputs": [
        {
          "name": "",
          "type": "uint256"
        },
        {
          "name": "",
          "type": "uint256"
        }
      ],
      "payable": true,
      "stateMutability": "payable",
      "type": "function"
    },
    {
      "constant": false,
      "inputs": [
        {
          "name": "_tokenAddress",
          "type": "address"
        },
        {
          "name": "_amount",
          "type": "uint256"
        },
        {
          "name": "_maxAmount",
          "type": "uint256"
        }
      ],
      "name": "swapTokenToEther",
      "outputs": [
        {
          "name": "",
          "type": "uint256"
        }
      ],
      "payable": false,
      "stateMutability": "nonpayable",
      "type": "function"
    },
    {
      "constant": true,
      "inputs": [
        {
          "name": "_src",
          "type": "address"
        },
        {
          "name": "_dest",
          "type": "address"
        },
        {
          "name": "_srcQty",
          "type": "uint256"
        }
      ],
      "name": "getExpectedRate",
      "outputs": [
        {
          "name": "",
          "type": "uint256"
        },
        {
          "name": "",
          "type": "uint256"
        }
      ],
      "payable": false,
      "stateMutability": "view",
      "type": "function"
    }
  ],
  "bytecode": "0x608060405234801561001057600080fd5b50611932806100206000396000f3fe6080604052600436106101b75760003560e01c8063825ffd92116100ec578063c9fde2701161008a578063d36b907d11610064578063d36b907d14610a5e578063ddaa293c14610ab5578063f0d405e514610b0c578063f2f239d414610b63576101b7565b8063c9fde27014610959578063ce9bde1d146109b0578063d3661fa514610a07576101b7565b80639da779e9116100c65780639da779e9146107fd578063b175afa114610854578063c16921b7146108ab578063c74c0fac14610902576101b7565b8063825ffd92146106f85780638823151b1461074f57806394bfbe74146107a6576101b7565b806336e6da111161015957806343fb75e81161013357806343fb75e81461055d578063502237d7146105b4578063728c00921461060b578063809a9e5514610662576101b7565b806336e6da111461041a5780633bba21dc1461047157806343ac1dc6146104ea576101b7565b806329f7fc9e1161019557806329f7fc9e146102be5780632a441f05146103155780632d5eeb3f1461036c57806332ac5cd2146103c3576101b7565b8063040141e5146101b95780630531b2ad146102105780631dab52b014610267575b005b3480156101c557600080fd5b506101ce610bba565b604051808273ffffffffffffffffffffffffffffffffffffffff1673ffffffffffffffffffffffffffffffffffffffff16815260200191505060405180910390f35b34801561021c57600080fd5b50610225610bd2565b604051808273ffffffffffffffffffffffffffffffffffffffff1673ffffffffffffffffffffffffffffffffffffffff16815260200191505060405180910390f35b34801561027357600080fd5b5061027c610bea565b604051808273ffffffffffffffffffffffffffffffffffffffff1673ffffffffffffffffffffffffffffffffffffffff16815260200191505060405180910390f35b3480156102ca57600080fd5b506102d3610c02565b604051808273ffffffffffffffffffffffffffffffffffffffff1673ffffffffffffffffffffffffffffffffffffffff16815260200191505060405180910390f35b34801561032157600080fd5b5061032a610c1a565b604051808273ffffffffffffffffffffffffffffffffffffffff1673ffffffffffffffffffffffffffffffffffffffff16815260200191505060405180910390f35b34801561037857600080fd5b50610381610c32565b604051808273ffffffffffffffffffffffffffffffffffffffff1673ffffffffffffffffffffffffffffffffffffffff16815260200191505060405180910390f35b3480156103cf57600080fd5b506103d8610c4a565b604051808273ffffffffffffffffffffffffffffffffffffffff1673ffffffffffffffffffffffffffffffffffffffff16815260200191505060405180910390f35b34801561042657600080fd5b5061042f610c5d565b604051808273ffffffffffffffffffffffffffffffffffffffff1673ffffffffffffffffffffffffffffffffffffffff16815260200191505060405180910390f35b34801561047d57600080fd5b506104d46004803603606081101561049457600080fd5b81019080803573ffffffffffffffffffffffffffffffffffffffff1690602001909291908035906020019092919080359060200190929190505050610c75565b6040518082815260200191505060405180910390f35b6105406004803603606081101561050057600080fd5b8101908080359060200190929190803573ffffffffffffffffffffffffffffffffffffffff16906020019092919080359060200190929190505050610eee565b604051808381526020018281526020019250505060405180910390f35b34801561056957600080fd5b506105726110a7565b604051808273ffffffffffffffffffffffffffffffffffffffff1673ffffffffffffffffffffffffffffffffffffffff16815260200191505060405180910390f35b3480156105c057600080fd5b506105c96110bf565b604051808273ffffffffffffffffffffffffffffffffffffffff1673ffffffffffffffffffffffffffffffffffffffff16815260200191505060405180910390f35b34801561061757600080fd5b506106206110d7565b604051808273ffffffffffffffffffffffffffffffffffffffff1673ffffffffffffffffffffffffffffffffffffffff16815260200191505060405180910390f35b34801561066e57600080fd5b506106db6004803603606081101561068557600080fd5b81019080803573ffffffffffffffffffffffffffffffffffffffff169060200190929190803573ffffffffffffffffffffffffffffffffffffffff169060200190929190803590602001909291905050506110ef565b604051808381526020018281526020019250505060405180910390f35b34801561070457600080fd5b5061070d611738565b604051808273ffffffffffffffffffffffffffffffffffffffff1673ffffffffffffffffffffffffffffffffffffffff16815260200191505060405180910390f35b34801561075b57600080fd5b50610764611750565b604051808273ffffffffffffffffffffffffffffffffffffffff1673ffffffffffffffffffffffffffffffffffffffff16815260200191505060405180910390f35b3480156107b257600080fd5b506107bb611768565b604051808273ffffffffffffffffffffffffffffffffffffffff1673ffffffffffffffffffffffffffffffffffffffff16815260200191505060405180910390f35b34801561080957600080fd5b50610812611780565b604051808273ffffffffffffffffffffffffffffffffffffffff1673ffffffffffffffffffffffffffffffffffffffff16815260200191505060405180910390f35b34801561086057600080fd5b50610869611798565b604051808273ffffffffffffffffffffffffffffffffffffffff1673ffffffffffffffffffffffffffffffffffffffff16815260200191505060405180910390f35b3480156108b757600080fd5b506108c06117b0565b604051808273ffffffffffffffffffffffffffffffffffffffff1673ffffffffffffffffffffffffffffffffffffffff16815260200191505060405180910390f35b34801561090e57600080fd5b506109176117c8565b604051808273ffffffffffffffffffffffffffffffffffffffff1673ffffffffffffffffffffffffffffffffffffffff16815260200191505060405180910390f35b34801561096557600080fd5b5061096e6117e0565b604051808273ffffffffffffffffffffffffffffffffffffffff1673ffffffffffffffffffffffffffffffffffffffff16815260200191505060405180910390f35b3480156109bc57600080fd5b506109c56117f8565b604051808273ffffffffffffffffffffffffffffffffffffffff1673ffffffffffffffffffffffffffffffffffffffff16815260200191505060405180910390f35b348015610a1357600080fd5b50610a1c611810565b604051808273ffffffffffffffffffffffffffffffffffffffff1673ffffffffffffffffffffffffffffffffffffffff16815260200191505060405180910390f35b348015610a6a57600080fd5b50610a73611828565b604051808273ffffffffffffffffffffffffffffffffffffffff1673ffffffffffffffffffffffffffffffffffffffff16815260200191505060405180910390f35b348015610ac157600080fd5b50610aca611840565b604051808273ffffffffffffffffffffffffffffffffffffffff1673ffffffffffffffffffffffffffffffffffffffff16815260200191505060405180910390f35b348015610b1857600080fd5b50610b21611858565b604051808273ffffffffffffffffffffffffffffffffffffffff1673ffffffffffffffffffffffffffffffffffffffff16815260200191505060405180910390f35b348015610b6f57600080fd5b50610b78611870565b604051808273ffffffffffffffffffffffffffffffffffffffff1673ffffffffffffffffffffffffffffffffffffffff16815260200191505060405180910390f35b73d0a1e359811322d97991e03f863a0c30c2cf029c81565b73b6b09fbffba6a5c4631e5f7b2e3ee183ac259c0d81565b73a944bd4b25c9f186a846fd5668941aa3d3b8425f81565b73eeeeeeeeeeeeeeeeeeeeeeeeeeeeeeeeeeeeeeee81565b734a6bc4e803c62081ffebcc8d227b5a87a58f1f8f81565b73b6b09fbffba6a5c4631e5f7b2e3ee183ac259c0d81565b6e170ccc93903185be5a2094c870df6281565b73bb4339c0ab5b1d9f14bd6e3426444a1e9d86a1d981565b60008073f5d915570bc477f9b8d6c0e980aa81757a3aac3673ffffffffffffffffffffffffffffffffffffffff166306f2bf62866040518263ffffffff1660e01b8152600401808273ffffffffffffffffffffffffffffffffffffffff1673ffffffffffffffffffffffffffffffffffffffff16815260200191505060206040518083038186803b158015610d0957600080fd5b505afa158015610d1d573d6000803e3d6000fd5b505050506040513d6020811015610d3357600080fd5b810190808051906020019092919050505090508473ffffffffffffffffffffffffffffffffffffffff1663095ea7b382866040518363ffffffff1660e01b8152600401808373ffffffffffffffffffffffffffffffffffffffff1673ffffffffffffffffffffffffffffffffffffffff16815260200182815260200192505050602060405180830381600087803b158015610dcd57600080fd5b505af1158015610de1573d6000803e3d6000fd5b505050506040513d6020811015610df757600080fd5b81019080805190602001909291905050505060008173ffffffffffffffffffffffffffffffffffffffff16637237e031866001804201336040518563ffffffff1660e01b8152600401808581526020018481526020018381526020018273ffffffffffffffffffffffffffffffffffffffff1673ffffffffffffffffffffffffffffffffffffffff168152602001945050505050602060405180830381600087803b158015610ea557600080fd5b505af1158015610eb9573d6000803e3d6000fd5b505050506040513d6020811015610ecf57600080fd5b8101908080519060200190929190505050905080925050509392505050565b600080600073f5d915570bc477f9b8d6c0e980aa81757a3aac3673ffffffffffffffffffffffffffffffffffffffff166306f2bf62866040518263ffffffff1660e01b8152600401808273ffffffffffffffffffffffffffffffffffffffff1673ffffffffffffffffffffffffffffffffffffffff16815260200191505060206040518083038186803b158015610f8457600080fd5b505afa158015610f98573d6000803e3d6000fd5b505050506040513d6020811015610fae57600080fd5b8101908080519060200190929190505050905060008173ffffffffffffffffffffffffffffffffffffffff1663ad65d76d886001804201336040518563ffffffff1660e01b8152600401808481526020018381526020018273ffffffffffffffffffffffffffffffffffffffff1673ffffffffffffffffffffffffffffffffffffffff16815260200193505050506020604051808303818588803b15801561105557600080fd5b505af1158015611069573d6000803e3d6000fd5b50505050506040513d602081101561108057600080fd5b81019080805190602001909291905050509050806000809050935093505050935093915050565b73823cde416973a19f98bb9c96d97f4fe6c9a7238b81565b73863e41fe88288ebf3fcd91d8dbb679fb83fdfe1781565b7364a436ae831c1672ae81f674cab8b6775df3475c81565b60008073eeeeeeeeeeeeeeeeeeeeeeeeeeeeeeeeeeeeeeee73ffffffffffffffffffffffffffffffffffffffff168573ffffffffffffffffffffffffffffffffffffffff1614156112ae57600073f5d915570bc477f9b8d6c0e980aa81757a3aac3673ffffffffffffffffffffffffffffffffffffffff166306f2bf62866040518263ffffffff1660e01b8152600401808273ffffffffffffffffffffffffffffffffffffffff1673ffffffffffffffffffffffffffffffffffffffff16815260200191505060206040518083038186803b1580156111cd57600080fd5b505afa1580156111e1573d6000803e3d6000fd5b505050506040513d60208110156111f757600080fd5b8101908080519060200190929190505050905061129f8173ffffffffffffffffffffffffffffffffffffffff1663cd7724c3866040518263ffffffff1660e01b81526004018082815260200191505060206040518083038186803b15801561125e57600080fd5b505afa158015611272573d6000803e3d6000fd5b505050506040513d602081101561128857600080fd5b810190808051906020019092919050505085611888565b60008090509250925050611730565b73eeeeeeeeeeeeeeeeeeeeeeeeeeeeeeeeeeeeeeee73ffffffffffffffffffffffffffffffffffffffff168473ffffffffffffffffffffffffffffffffffffffff16141561146a57600073f5d915570bc477f9b8d6c0e980aa81757a3aac3673ffffffffffffffffffffffffffffffffffffffff166306f2bf62876040518263ffffffff1660e01b8152600401808273ffffffffffffffffffffffffffffffffffffffff1673ffffffffffffffffffffffffffffffffffffffff16815260200191505060206040518083038186803b15801561138957600080fd5b505afa15801561139d573d6000803e3d6000fd5b505050506040513d60208110156113b357600080fd5b8101908080519060200190929190505050905061145b8173ffffffffffffffffffffffffffffffffffffffff166395b68fe7866040518263ffffffff1660e01b81526004018082815260200191505060206040518083038186803b15801561141a57600080fd5b505afa15801561142e573d6000803e3d6000fd5b505050506040513d602081101561144457600080fd5b810190808051906020019092919050505085611888565b60008090509250925050611730565b600073f5d915570bc477f9b8d6c0e980aa81757a3aac3673ffffffffffffffffffffffffffffffffffffffff166306f2bf62876040518263ffffffff1660e01b8152600401808273ffffffffffffffffffffffffffffffffffffffff1673ffffffffffffffffffffffffffffffffffffffff16815260200191505060206040518083038186803b1580156114fd57600080fd5b505afa158015611511573d6000803e3d6000fd5b505050506040513d602081101561152757600080fd5b810190808051906020019092919050505073ffffffffffffffffffffffffffffffffffffffff166395b68fe7856040518263ffffffff1660e01b81526004018082815260200191505060206040518083038186803b15801561158857600080fd5b505afa15801561159c573d6000803e3d6000fd5b505050506040513d60208110156115b257600080fd5b8101908080519060200190929190505050905061172573f5d915570bc477f9b8d6c0e980aa81757a3aac3673ffffffffffffffffffffffffffffffffffffffff166306f2bf62876040518263ffffffff1660e01b8152600401808273ffffffffffffffffffffffffffffffffffffffff1673ffffffffffffffffffffffffffffffffffffffff16815260200191505060206040518083038186803b15801561165957600080fd5b505afa15801561166d573d6000803e3d6000fd5b505050506040513d602081101561168357600080fd5b810190808051906020019092919050505073ffffffffffffffffffffffffffffffffffffffff1663cd7724c3836040518263ffffffff1660e01b81526004018082815260200191505060206040518083038186803b1580156116e457600080fd5b505afa1580156116f8573d6000803e3d6000fd5b505050506040513d602081101561170e57600080fd5b810190808051906020019092919050505082611888565b600080905092509250505b935093915050565b73aaf64bfcc32d0f15873a02163e7e500671a4ffcd81565b73c72e74e474682680a414b506699bbca44ab9a93081565b7332d0e18f988f952eb3524ace762042381a2c39e581565b73c4375b7de8af5a38a93548eb8453a498222c4ff281565b735595930d576aedf13945c83ce5aad827529a131081565b7325a01a05c188dacbcf1d61af55d4a5b4021f7eed81565b73f5d915570bc477f9b8d6c0e980aa81757a3aac3681565b73f4d791139ce033ad35db2b2201435fad668b1b6481565b73692f391bcc85cefce8c237c01e1f636bbd70ea4d81565b7354b44c6b18fc0b4a1010b21d524c338d1f8065f681565b734ec3570cadaaee08ae384779b0f3a45ef85289de81565b735595930d576aedf13945c83ce5aad827529a131081565b73a71937147b55deb8a530c7229c442fd3f31b7db281565b73b6b09fbffba6a5c4631e5f7b2e3ee183ac259c0d81565b6000816118b06118a085670de0b6b3a76400006118c0565b600285816118aa57fe5b046118ec565b816118b757fe5b04905092915050565b6000808214806118dd57508282838502925082816118da57fe5b04145b6118e657600080fd5b92915050565b600082828401915081101561190057600080fd5b9291505056fea165627a7a72305820f59705f645f924650c6f3c17abbfacbd92d0cb4077afcd9d0fff5c5c83f959010029",
  "source": "pragma solidity ^0.5.0;\n\nimport \"./interfaces/ERC20.sol\";\nimport \"./interfaces/KyberNetworkProxyInterface.sol\";\nimport \"./interfaces/ExchangeInterface.sol\";\nimport \"./interfaces/UniswapExchangeInterface.sol\";\nimport \"./DS/DSMath.sol\";\nimport \"./constants/ConstantAddresses.sol\";\n\ncontract UniswapFactoryInterface {\n    function getExchange(address token) external view returns (address exchange);\n}\n\ncontract UniswapWrapper is ExchangeInterface, DSMath, ConstantAddresses {\n\n    // Mainnet, no kovan deployment :(\n    // address public constant UNISWAP_FACTORY = 0xc0a47dFe034B400B47bDaD5FecDa2621de6c4d95;\n\n    function swapEtherToToken (uint _ethAmount, address _tokenAddress, uint _maxAmount) external payable returns(uint, uint) {\n        address uniswapTokenAddress = UniswapFactoryInterface(UNISWAP_FACTORY).getExchange(_tokenAddress);\n\n        uint tokenAmount = UniswapExchangeInterface(uniswapTokenAddress).\n                ethToTokenTransferInput.value(_ethAmount)(1, block.timestamp + 1, msg.sender);\n\n        return (tokenAmount, 0);\n    }\n\n    function swapTokenToEther (address _tokenAddress, uint _amount, uint _maxAmount) external returns(uint) {\n        address uniswapTokenAddress = UniswapFactoryInterface(UNISWAP_FACTORY).getExchange(_tokenAddress);\n\n        ERC20(_tokenAddress).approve(uniswapTokenAddress, _amount);\n\n        uint ethAmount = UniswapExchangeInterface(uniswapTokenAddress).\n                tokenToEthTransferInput(_amount, 1, block.timestamp + 1, msg.sender);\n\n        return ethAmount;\n    }\n\n    function getExpectedRate(address _src, address _dest, uint _srcQty) public view returns (uint, uint) {\n        if(_src == KYBER_ETH_ADDRESS) {\n            address uniswapTokenAddress = UniswapFactoryInterface(UNISWAP_FACTORY).getExchange(_dest);\n            return (wdiv(UniswapExchangeInterface(uniswapTokenAddress).getEthToTokenInputPrice(_srcQty), _srcQty), 0);\n        } else if (_dest == KYBER_ETH_ADDRESS) {\n            address uniswapTokenAddress = UniswapFactoryInterface(UNISWAP_FACTORY).getExchange(_src);\n            return (wdiv(UniswapExchangeInterface(uniswapTokenAddress).getTokenToEthInputPrice(_srcQty), _srcQty), 0);\n        } else {\n            uint ethBought = UniswapExchangeInterface(UniswapFactoryInterface(UNISWAP_FACTORY).getExchange(_src)).getTokenToEthInputPrice(_srcQty);\n            return (wdiv(UniswapExchangeInterface(UniswapFactoryInterface(UNISWAP_FACTORY).getExchange(_dest)).getEthToTokenInputPrice(ethBought), ethBought), 0);\n        }\n    }\n\n    function() payable external {\n    }\n}\n",
  "sourcePath": "/Users/nikolaklipa/Decenter/defisaver/cdpsaver-contracts/contracts/UniswapWrapper.sol",
  "compiler": {
    "name": "solc",
    "version": "0.5.7+commit.6da8b019.Emscripten.clang"
  },
  "schemaVersion": "3.0.9",
  "updatedAt": "2019-08-12T10:52:18.292Z",
  "devdoc": {
    "methods": {}
  },
  "userdoc": {
    "methods": {}
  }
}